:100000000C943F030C9477030C9477030C947703C0
:100010000C9477030C9477030C9477030C94770378
:100020000C9477030C9477030C948E2B0C944A2B2E
:100030000C948B2C0C9477030C9477030C9477031B
:100040000C9477030C9477030C9477030C94770348
:100050000C9477030C94672C0C9477030C9477031F
:100060000C9477030C9477030C9477030C94770328
:100070000C9477030C9477030C9477030C94770318
:100080000C9477030C9477030C9477030C94770308
:100090000C9477030C9477030C9477030C947703F8
:1000A0000C9477030C9477030C9477030501098073
:1000B000A101850319012AB700150126B700950192
:1000C00075108100C0050C0901A101850419012AE0
:1000D000A002150126A002950175108100C005013E
:1000E0000906A1018506050719E029E71500250184
:1000F0009508750181020507190029EF15002501F2
:1001000095F075018102050819012905950575010C
:100110009102950175039101C00660FF0961A1017B
:100120000962150026FF00952075088102096315F4
:100130000026FF00952075089102C005010906A15F
:1001400001050719E029E7150025019508750181CA
:10015000029501750881010507190029FF15002680
:10016000FF00950675088100050819012905950508
:1001700075019102950175039101C0FD377A585AB6
:10018000000004E6D6B44602002101160000007407
:100190002FE5A3E002DA01305D003D888986D3DCDB
:1001A0000AE842C3249258425AFA4B42162C5F5432
:1001B0002BA3199BCDF09E3ED52B7388208A270256
:1001C000C28D38357C35B527B5D6CBB071DBB13EA5
:1001D0005DCD06CDA498600019DB8EB6B76D146FA7
:1001E0000D3DB0AECDE593C3F07A5D5EC53D79239C
:1001F0004C7E0806EE9A0B8A1BBB6AC294D4784ADE
:1002000043A0C76B8591137EE211C5AE6ABB46273A
:10021000B2B5888D711202DDF5DC3B288943B080D0
:100220004B7DD8303A513E172A56C41AFCE55ED8A9
:10023000498A03D0912F05D62D487E1938A3CA9A32
:10024000A2D2A0C1B98EC56EC2186E2C3CF6B5778D
:100250003EA948C2F6E4516D3E3F1EB9E409EAAD3D
:10026000A2B87C6665E2742E2145ABE686828D18C5
:10027000342B10D0D0046B4797A96B637A07DE67E5
:100280002149DBB5E4FEF63DB488709BBC984D7502
:100290001C6C76771BB305FC67071EDA44DB9E32C5
:1002A0003F1EDE1086683DEE9F458F04DC22B7FFBF
:1002B000E8A287DC4456400577336091A6328C452E
:1002C0005737948A71FB69D5863B00CF4DB57313C0
:1002D000099D180001CC02DB05000001A52128B111
:1002E000C467FB020000000004595A00000000022D
:1002F000000100060002000D0003000E00040019BA
:100300000005001F00070020000800000101010196
:1003100001010101010202020202020202020303C0
:100320000303030303030404040404040405050590
:100330000505060606060607070707070808080852
:10034000090909090A0A0A0B0B0B0C0C0C0D0D0DFF
:100350000E0E0E0F0F0F1010111111121213131495
:1003600014151516161717181819191A1A1B1B1C0D
:100370001D1D1E1E1F202021222223242425262667
:10038000272829292A2B2C2D2D2E2F30313232339C
:100390003435363738393A3B3C3D3E3F40414243A5
:1003A0004445464748494A4C4D4E4F505153545589
:1003B0005658595A5B5D5E5F616264656668696B39
:1003C0006C6D6F7072737577787A7B7D7E808283B7
:1003D0008587888A8C8E8F91939596989A9C9EA0FB
:1003E000A2A3A5A7A9ABADAFB1B3B5B7BABCBEC008
:1003F000C2C4C6C9CBCDCFD1D4D6D8DBDDDFE2E4D1
:10040000E7E9EBEEF0F3F5F8FAFDFF00000000007D
:1004100000000000000000000000000000000000DC
:1004200000000000000000000000000000000000CC
:1004300000000000000000000000000000000000BC
:1004400000000000000000000000000000000000AC
:10045000000000000000000000000000000000009C
:10046000000000000000000000000000000000008C
:10047000000000000000000000000000000000007C
:100480000000000000000001000100CD05350E68ED
:100490000E000002000200C905350E680E000003C0
:1004A000000100CE05350E680E000004000200B306
:1004B00005350E680E500605000100CF05350E68A3
:1004C0000E000006000200B505350E680E0000079C
:1004D000000200CB05350E680E000008000100D0B8
:1004E00005350E680E000012000200D105350E68B9
:1004F0000E000013000200D305350E680E00001434
:10050000000100D505350E680E0000150000000042
:1005100000D6056118000009025B00030100A0FA83
:100520000904000001030101000921110100012259
:1005300040000705810308000109040100020300CF
:100540000000092111010001222200070582032079
:100550000001070503032000010904020001030054
:100560000000092111010001226D0007058403200C
:1005700000011201000200000008AEFE47880001E1
:10058000010203011C037600690061006C003A005F
:1005900066003600340063003200620033006300FE
:1005A0000000100345006D006200720061006300EE
:1005B00065000000140354007200610073006800BD
:1005C00020004D0061006E000000040309040000DB
:1005D000000000000000000000000000000000001B
:1005E000000000000000000000000000000000000B
:1005F00000007E0F00D4FFFFFFC70000007800005E
:100600000000000000002A2B28000000000000006D
:1006100000000000000000000029000000002C1E67
:100620003420212224342627252E362D3738271E24
:100630001F202122232425263333362E37381F044A
:1006400005060708090A0B0C0D0E0F1011121314E2
:1006500015161718191A1B1C1D2F3130232D3504A0
:1006600005060708090A0B0C0D0E0F1011121314C2
:1006700015161718191A1B1C1D2F3130354C112453
:100680001FBECFEFDAE0DEBFCDBF04B603FE18C059
:100690008091F9069091FA06A091FB06B091FC06B4
:1006A0008730904BA740B04B59F41092F906109246
:1006B000FA061092FB061092FC06E0E0F8E30995BA
:1006C00026E0ACE6B2E001C01D92A93FB207E1F717
:1006D00012E0A0E0B1E0E2E7FEE602C005900D9274
:1006E000AC36B107D9F70E94B22C0C940A370C949F
:1006F0000000E8EDF0E080818E7F80831092E200C0
:100700001092DA001092E100A0EEB0E08C918160CE
:100710008C9380818F77808319BCA7EDB0E08C919A
:100720008E7F8C9380818F7E8083109295060895B2
:100730002091E4003091E50095E6A9012091EC00BC
:10074000822F817020FF06C08091E80080FF06C0E4
:1007500080E008952091E80022FD1AC08091BA0639
:10076000882389F0853089F08091EB0085FD0FC0EA
:100770002091E4003091E50042175307F9F29150BF
:10078000E1F684E0089582E0089583E0089581E031
:100790000895EF92FF920F931F93CF937C018B01EB
:1007A0000E949803C82F811117C08091E80085FD31
:1007B0000BC08091E8008E778093E8000E94980338
:1007C000882399F3C82F08C0F70181917F01809396
:1007D000F1000150110949F78C2FCF911F910F9112
:1007E000FF90EF9008958091BC0687FF13C0809121
:1007F000E80082FF06C08091E8008B778093E800D4
:1008000004C08091BA068111F2CF08958091BA0692
:100810008823D9F38091E80080FFF8CF8091E80029
:100820008E77ECCF982F9093E900242F762F50E00D
:10083000891731F07091EC002091ED005091F0009B
:1008400021FD07C09F5F973071F78093E90081E039
:1008500008953091EB003E7F3093EB003091ED0036
:100860003D7F3093ED003091EB0031603093EB0031
:100870007093EC002093ED005093F0002091EE0077
:1008800027FDE0CF80E00895B0E0A0E0EAE4F4E0E6
:100890000C948E35C8EDD0E088818F7E8883E7ED9B
:1008A000F0E080818160808384E082BF81E080937A
:1008B000950688818E7F888302EE10E0F801108211
:1008C0001092DA0081EEC82ED12CF60110828881B8
:1008D0008F77888388818068888388818F7D8883EB
:1008E00019BC1092BA061092BB061092B90610926B
:1008F000B80690EEE92EF12CF70180818B7F808382
:1009000088818160888342E060E080E00E94120478
:10091000F60180818E7F8083F801808181608083F1
:10092000808188608083F70180818E7F80838881C9
:1009300080618883CDB7DEB7E8E00C94AA35FC016E
:100940008091C2069091C30686179707A0F06115A3
:10095000710529F49091E8009E779093E80090E06B
:100960006115710551F4911108C08091E80082FF72
:1009700034C080E00895BC01F2CF8091BA0688238C
:10098000C1F18530C1F18091E80083FD30C08091D4
:10099000E80082FDEACF8091E80080FFE1CF8091FE
:1009A000F3002091F200382F6115710519F02830FD
:1009B000310558F091E02830310509F090E02091A0
:1009C000E8002E772093E800CBCF81918093F1004F
:1009D000615071092F5F3F4FE7CF8091BA0688239E
:1009E00041F0853041F08091E80083FFBECF81E087
:1009F000089582E0089583E0089508950895809110
:100A0000970608959C014FB7F89480918C069091B9
:100A10008D06A0918E06B0918F064FBF821B930B5F
:100A200008952FB7F89460918C0670918D0680918F
:100A30008E0690918F062FBF08952FB7F89480915E
:100A40008C0690918D06A0918E06B0918F062FBFD7
:100A5000089520911B012223C9F02091900627FFC1
:100A600015C0E62FE695E695E695EE31D8F4E80F49
:100A7000F92FF11D677021E030E001C0220F6A9567
:100A8000EAF720958281282322830895FC0132967B
:100A900008962191621303C0DF0111971C92E81799
:100AA000F907B9F708952091890630918A06281729
:100AB000390771F090938A0680938906E091870642
:100AC000F0918806309721F00084F185E02D09959A
:100AD000089520918506309186062817390771F010
:100AE0009093860680938506E0918706F0918806AC
:100AF000309721F00680F781E02D09950895E09167
:100B00008706F0918806309729F00190F081E02D5A
:100B10000995089580E00895452B39F0682381E018
:100B20006F3F09F080E08170089581E0FCCFDC0127
:100B300060917F0680918006962F891301C00895E9
:100B4000292F30E0F901EE0FFF1FE958F94F4081DE
:100B500051814A175B07A1F487E08A9FA0018B9F10
:100B6000500D1124415C594F81E0FA0184839613A2
:100B7000E6CF2F5F3F4F2370332720937F060895E2
:100B80002F5F3F4F922F9370D8CF1092DC051092B9
:100B9000DB05EFE3F6E08581811102C01482168245
:100BA000379686E0E737F807B1F70895B0E0A0E0A0
:100BB000ECEDF5E00C948C358FEF9FEF4430510550
:100BC00008F469C04091900641FB882780F990E0C5
:100BD000880F991F42FB002700F910E0000F111F3A
:100BE000000F111F802B912B40FBCC24C0F8D12C7F
:100BF0008C299D2943FB222720F9C22FE0E0DE2F1C
:100C000053E0CC0FDD1F5A95E1F78C2B9D2B44FB55
:100C1000AA27A0F9B0E0E4E0AA0FBB1FEA95E1F72C
:100C20008A2B9B2B45FBEE27E0F9F0E0A5E0EE0FC9
:100C3000FF1FAA95E1F78E2B9F2B46FB222720F959
:100C400030E0B6E0220F331FBA95E1F7822B932BE9
:100C500047FB222720F930E03695322F222737959F
:100C60002795822B932B20919106322F3170F32EF2
:100C7000E82EF92A26952170B22EBB0CA82EBF288B
:100C8000C501BB0CAA0BBB0BFB0180839183A28324
:100C9000B38390E080E0CDB7DEB7EAE00C94A835EE
:100CA0008091B3059091B40590931801809317013A
:100CB0000895EEECF4E090E080E06FEA7AE246ED31
:100CC0005AE224E23AE2778366835187408733878A
:100CD00022879587848701963E968830910599F7FB
:100CE000089581152CE5920741F42091150130916A
:100CF0001601232B11F490E080E00895FA01811190
:100D000001C0FB0109950895E0E2F4E0818360836E
:100D10004283339694E0EC3BF907C1F70895FC0158
:100D2000EE0FFF1FE80FF91FE05EFB4F618340836A
:100D300022830895E1EFF6E0248130E1231B08F4DB
:100D400020E0248380911F04816080931F04089514
:100D5000E1EFF6E0248130E1230F08F42FEF248344
:100D600080911F04816080931F0408959091F10683
:100D7000937071F08093F2066093F306453608F0A5
:100D800044E64093F40680911F04822B80931F0455
:100D90000895E1EFF6E0438120E1421B08F440E0D2
:100DA000818121E0628190E00E94B6060895E1EF22
:100DB000F6E0438120E1420F08F44FEF818121E00A
:100DC000628190E00E94B6060895E1EFF6E062814C
:100DD00020E1621B08F460E0818121E0438190E022
:100DE0000E94B6060895E1EFF6E0628120E1620F0D
:100DF00008F46FEF818121E0438190E00E94B60604
:100E00000895E1EFF6E0818121E04381628188501D
:100E1000990B0E94B6060895E1EFF6E0818190E01B
:100E200021E04381628108960E94B6060895909160
:100E3000F106937061F081110BC094609093F106FC
:100E40001092140180911F04862B80931F04089533
:100E5000893010F09062F2CF880F880F982BEECF78
:100E60008091F10686958695815009F488E061E0CD
:100E70000E94170708958091F106869586958F5FE9
:100E8000893008F081E061E00E941707089522E8A8
:100E9000241B08F420E0620F08954095282F429FFC
:100EA000412D1124842F0895E42FF0E0EE0FFF1F51
:100EB000E153FE4F6081621B0895622F08950E94E6
:100EC000840608950E948F06089540911001509164
:100ED000110125E038E0429FC001439F900D529FD1
:100EE000900D1124875E994C90931101809310010D
:100EF000890F089530E020E0869F212D969F200DD8
:100F0000311D1124C9010895AF92BF92CF92DF9293
:100F1000FF920F931F93CF93DF93362F472FE82F26
:100F2000F0E0E55FFC4F71110FC0E4918E2F2E2F82
:100F30006E2F722FDF91CF911F910F91FF90DF9055
:100F4000CF90BF90AF900895C72FD0E02491F22E9C
:100F5000022F10E056E0659FC0011124EFEFF0E092
:100F6000BF010E944F35832F90E0880F991F35E510
:100F7000369FD001379FB00D11248A1B9B0B982FF1
:100F8000990F980F6F01CC1ADD0AC09ED001C19E47
:100F9000B00DD09EB00D11248B2F499FA0011124BC
:100FA000452F55276F01C41AD50AC09EA001C19EC6
:100FB000500DD09E500D11245F01A91AB108AC9EAE
:100FC0006001AD9ED00CBC9ED00C1124CD2CDD2434
:100FD000EC19FD09E09FE001E19FD00DF09FD00DDD
:100FE0001124ED2F62307105A1F050F461157105E7
:100FF00009F49ECF6130710581F0EB2F852F98CFDA
:101000006430710569F080F06630710509F490CFA5
:10101000F4CFE22F2B2F8D2F8BCFE22F252F88CFD0
:10102000EB2F822F2D2F84CF2B2F8F2DE52F80CFCD
:10103000B0E0A0E0EEE1F8E00C948E358C01C091B8
:101040001C018BE0C89FC02D11242BE0D22EDC0E9A
:10105000CD2C24E32D1510F494E3C92E2091F50630
:1010600031E0230F08F42FEF30E050E040E06FEF65
:101070007FEF80E090E00E94A7367901D0E02C2F2E
:10108000CC1550F081E0F3E3FD1508F480E0CDB716
:10109000DEB7E8E00C94AA35FE01E95CFD4F8081E3
:1010A00090911D01892311F14091C8064150042EF1
:1010B000000C550B47FF1CC0C7016091F50621E0ED
:1010C000620F08F46FEF0E947A07AC016091F2069C
:1010D0007091F3068091F406F80109950E94840747
:1010E000462F282F672FCE010E9462072196C7CF77
:1010F000FA01E853F94F818982130AC0FA01EE0F11
:10110000FF1FE853F94F818D928D8E159F05A8F230
:1011100041505109CFCFB0E0A0E0E1E9F8E00C94F4
:101120008F357C01C0911C018BE0C89FC02D11241C
:101130001BE01C0F012F153308F004E36091F50646
:101140006695669521E0620F08F46FEF8091C40602
:101150009091C5060E947A07D82ED0E0C01748F0BB
:1011600081E0143308F080E0CDB7DEB7E7E00C94FF
:10117000AB35FE01E95CFD4F808190911D01892313
:1011800091F06091F2067091F3068091F4062D2D96
:101190004C2FF70109950E948407462F282F672FAF
:1011A000CE010E9462072196D9CF80E00895F8947D
:1011B000E82FE295EF70F0E031A1282F2F7081E049
:1011C00090E001C0880F2A95EAF7982F9095932315
:1011D00091A392A1892B82A378940895909190066F
:1011E00092FF06C0282F28712830F9F4877F846089
:1011F00093FF06C0282F28712831F1F4877E84617F
:101200002091910620FF06C0382F38713830D9F46C
:10121000877F816021FF06C0282F28712831D1F4F3
:10122000877E816194FD877E0895282F2471243064
:10123000F9F68B7F8860DCCF282F2471243101F7E9
:101240008B7E8861DDCF382F3171313019F78E7F79
:101250008860E0CF282F2171213121F78E7E8861AF
:10126000E1CFCF93DF93EC0182389105B1F108F023
:1012700040C08133910509F49DC048F5893291053C
:1012800009F48DC08A9709F49CC0C11522E5D207E4
:1012900008F0BDC0C11531E5D30708F025C1C83E2F
:1012A000D10508F0A3C0C13ED10588F5C83AD105E3
:1012B00008F08EC0C53AD10508F0F6C0C130D1059E
:1012C00031F1209721F1C430D10508F545C08533AF
:1012D000910509F45FC0C997C1F6809190068370AB
:1012E00009F037C18091910683FF11C0C9E2D0E0B7
:1012F0000EC0833E910599F170F4803E910501F195
:10130000823E910511F68091900682FD21C0CE01AA
:10131000DF91CF910895863E910561F1873E910559
:1013200071F1843E910509F0B0CF8091910681FF63
:10133000EECF80919006C7EED0E084FD0DC0E7CFE0
:101340008091900680FD33C09091910690FFDFCF91
:10135000C3EED0E084FFDBCFD0E0C0E0D8CF8091F7
:10136000900682FDF3C09091910690FDF2C084FF3B
:10137000CECFF2CF8091900683FDDDCFC8CF809194
:10138000900683FDE9C09091910691FFF0CFC4EEE5
:10139000D0E0BDCF8091900685FFB9CFA7CF8091D7
:1013A000900685FDDCC08091910683FFB0CFC9E334
:1013B000D0E0ADCF8091900686FFA9CFCAE2D0E001
:1013C000A6CF8091900686FFA2CFC1E3D0E09FCF49
:1013D000CF3BD10508F6C85AD0E0CC0FDD1FC35D66
:1013E000DE4F0990D881C02DD46491CFC11540E55E
:1013F000D40708F064C0C11580E4D80708F05CC0C9
:10140000CE019A9581159F4108F481CFA5CFC115D2
:1014100036E5D30718F5C11545E5D40708F07DC0BA
:10142000C11584E5D80708F073C09C2F9695969552
:101430009E0123703327C115D34508F45AC0C1E07B
:10144000D0E002C0CC0FDD1F2A95E2F730E2939F77
:10145000C0011124C82BD92BDA6859CFC1158AE5F0
:10146000D80778F4C11529E5D20708F061C0C11585
:1014700038E5D30708F470CFDC2FCC27C06FD06AD3
:1014800046CFCE0190568115904208F065CF8D2F42
:101490008F710E94EE0890E0982F882788279F710F
:1014A0009C012C2BE90142C0C55AD0E0C65DDE4F3D
:1014B000C881D0E0D0642BCFDF70D06A28CF2C2F2A
:1014C00026952695237080E2289F900111248C2F69
:1014D0008370C1E0D0E002C0CC0FDD1F8A95E2F737
:1014E000C22BD32BDD6813CFDC2FCC27C16FD06A82
:1014F0000ECFC1E0D0E002C0CC0FDD1F2A95E2F78D
:1015000020E2929FC0011124C82BD92BDC68FFCEAA
:10151000DC2FCC27C46FD06AFACE8C2F0E94EE0845
:10152000C82FD0E0DC2FCC27CC27DF71D062EFCEE4
:101530008C2F8F700E94EE0834E0D695C7953A95AF
:10154000E1F7CF709C2FEC01D069E1CEC2EED0E084
:10155000DECEC0EED0E0DBCEC6EED0E0D8CEC5E326
:10156000D0E0D5CE80911B03882331F010921B036D
:1015700010921A03109219030895CF93C82F8091E7
:10158000910682FF0CC080911B038C1741F00E94D2
:101590001D0590931A0380931903C0931B03CF91E9
:1015A000089580959091F80698239093F8060895F1
:1015B000809590919205982390939205089590912B
:1015C0009205892B8093920508951092F80210924B
:1015D000F7021092F60208958091B5059091B60534
:1015E000892B89F00E941D052091190330911A035F
:1015F000AC01421B530B81E02091B5053091B6053B
:101600004217530708F480E0817008952091F50295
:101610009091B402291302C080E0089530E0F901EE
:1016200053E0EE0FFF1F5A95E1F7EB54FD4F518148
:10163000561306C05081581303C05281541304C07E
:101640002F5F3F4F2770E6CF81E008958091F5022C
:101650009091B402981301C008958F5F8770FACFFC
:10166000A82FA77023E0969587952A95E1F7FC01AE
:10167000EE0FFF1FE80FF91FE60FF71F50E040E0E5
:1016800080E0219130E00A2E02C0369527950A9419
:10169000E2F721703327042E01C0220F0A94EAF7E3
:1016A000822B4F5F5F4F4330510559F70895903FAC
:1016B000C9F0953080F48C30A8F4282F30E064E92C
:1016C00072E0A901ECE09E9F400D511D1124CA015A
:1016D0000E94300B08959C5F923020F461E972E023
:1016E00090E0F6CF80E00895262F277091E001C0AA
:1016F000990F2A95EAF723E0769567952A95E1F701
:10170000FB01EE0FFF1FE60FF71FE40FF51F50E080
:1017100040E0682F70E08191DF0111979B01042E5A
:1017200002C0369527950A94E2F721702195282763
:10173000292328272C934F5F5F4F4330510559F7DA
:101740000895282F862F903F79F0953070F42C3033
:1017500058F4622F70E02CE0929F600D711D1124EF
:1017600044E952E00E94740B08959C5F9230E0F7C8
:10177000622F70E041E952E0F5CF92959F7096306C
:1017800091F058F4925F9F70923058F4803F19F0B6
:1017900030F4883E30F481E008959A5FF4CF843FBE
:1017A000D1F380E00895883EB0F3813FD1F7F3CFC5
:1017B0009C013A9521153F4150F5FC01EE27F1704F
:1017C000BC0166277270AC01442754709C0122272B
:1017D000387094FF0EC080E1EF2B09F480E0672B96
:1017E00009F08062452B09F08064232B89F0806822
:1017F000089581E0EF2B09F480E0672B09F0826007
:10180000452B09F08460232B19F08860089580E04F
:101810000895809392067093940660939306809146
:10182000BA068430F9F48093E9008FEF9091E800D4
:10183000815095FD06C095ED9A95F1F70000811154
:10184000F5CF8091E80085FF0DC050E040E063E0F7
:1018500070E082E996E00E94C9038091E8008E77EB
:101860008093E8000895BC0184E00E94090C08956B
:10187000BC0183E00E94090C0895CF93DF93EC0133
:1018800080911B018823B1F18091900687FF32C0BF
:1018900060E284E08093E9008FEF9091E80081504E
:1018A00095FD06C095ED9A95F1F700008111F5CFF1
:1018B0008091E80085FF1BC080911B0170E050E023
:1018C00040E0811104C050E040E068E070E0CE01EB
:1018D0000E94C9038091E8008E778093E80080E23F
:1018E000FE01A8E9B6E001900D928A95E1F7DF913B
:1018F000CF91089568E081E0CDCF81E08093E00052
:1019000080E28093D8001092C9008FE19EE4019795
:10191000F1F700C0000087E090EBDC018093F9064E
:101920009093FA06A093FB06B093FC0688E19CE036
:101930000FB6F894A895809360000FBE9093600056
:10194000FFCF019708F40895EFE9FFE03197F1F731
:1019500000C00000F6CF809A31B33E7F21B32160F2
:101960004FB7F89480E294E0FC015191CF0168E018
:1019700021BB000000C057FF31BB550F000000C065
:1019800000C000C031BB00C06A9591F7F4E08C3B09
:101990009F0751F74FBF8FE594E00197F1F700C023
:1019A000000008950F931F93CF93DF9303EB15E08F
:1019B000C7E1D2E0CE010E944D36F80181938F013C
:1019C0002196CB33F2E0DF07A9F7C1E9D4E0FE01AD
:1019D00085919491009711F0FC0109952C96F5E002
:1019E000C132DF07A1F7DF91CF911F910F910895C9
:1019F000FF920F931F93CF93DF93F42E843040F523
:101A0000611126C024E0829F80011124095F1D4FCF
:101A100082E090E0442311F090E080E0800F911F7D
:101A20000E944D36C82FD0E0DC2FCC2783E090E019
:101A3000FF2011F081E090E0800F911F0E944D3651
:101A40009E01282BC901CDB7DEB7E5E00C94AD357A
:101A500090E080E0F8CF0F931F93CF93DF93843013
:101A600030F5653020F54C3010F5C42FD0E0CC0FA8
:101A7000DD1F28E1629FC00DD11D112438E7839F2F
:101A8000C00DD11D1124CE0187960E944D36082F1E
:101A900010E0102F0027CE0188960E944D36980145
:101AA000282BC901DF91CF911F910F91089590E0EC
:101AB00080E0F8CF462F672F209190053091910557
:101AC000232BF9F4703F39F4403FD9F480918E050F
:101AD00090918F0508958430A0F4753028F44C302F
:101AE00080F40E942B0D08957D3F39F4411109C007
:101AF00041E060E00E94F80C08957C3F11F444231B
:101B0000C1F390E080E00895CF92DF92FF920F93AF
:101B10001F93CF93DF936C010091F70680911C0314
:101B2000082BC7E0D0E010E0FC2EC8010C2E02C04C
:101B3000959587950A94E2F780FD0CC02197A0F750
:101B4000F12C8F2DDF91CF911F910F91FF90DF909E
:101B5000CF900895B6018C2F0E945A0D0E94310932
:101B6000019761F3EECFCF93DF93EC010E94840DD8
:101B7000BE010E945A0D0E943109DF91CF91089554
:101B8000CF93DF93EC014B815C81698188810E9456
:101B90008C05811110C08E819F81009739F00E94C1
:101BA00031090E94BD0BDF91CF9108958881998101
:101BB0000E94B30DF6CF80E0F6CFA5E0B0E0E3EEF3
:101BC000FDE00C94933549835A8389819A81662379
:101BD00099F0222389F00E94840D182F682F8981A3
:101BE0009A810E94A10B69817A81812F0E945A0DEE
:101BF0002596E3E00C94AF350E94570B182FF3CFD6
:101C0000FC01262F86819781009739F4408151810C
:101C10006281738184810E94DD0D089583E290E0EA
:101C20000E944D36843089F484E290E00E944D3663
:101C30008E3B59F485E290E00E944D3691E08E3162
:101C400009F090E0892F8170089580E0FCCFCF9358
:101C500084E090E00E944D36C82F82E290E00E941E
:101C60004D36982F8C2FCF910895DB01FC013296D1
:101C7000259134914217530758F0FC013496659131
:101C80007491A901CD010E942D3690E080E0089565
:101C90008FEF9FEF08950F931F93CF93DF9303EB85
:101CA00015E0C7E1D2E0CE010E944D36F801619106
:101CB0008F01681719F0CE010E946B362196CB3345
:101CC000F2E0DF0781F7DF91CF911F910F91089527
:101CD000DA019C012E5F3F4FF90145915491F901C2
:101CE00025913491A217B30758F0FC0134968591E1
:101CF00094910E942D360E944B0E90E080E0089552
:101D00008FEF9FEF0895CF93DF93CBEDD2E060E0AC
:101D1000CE010E946B362196C11584E0D807B9F731
:101D2000DF91CF9108950F931F93CF93DF93142FDB
:101D3000022F8430F0F461111CC094E0899FE0010F
:101D40001124C95FDD4F82E090E0442311F090E060
:101D500080E0632F8C0F9D1F0E946B3683E090E024
:101D6000112311F081E090E0602F8C0F9D1F0E94E5
:101D70006B36DF91CF911F910F9108951F93CF93F1
:101D8000DF93122F8430E0F46530D0F44C30C0F48F
:101D9000C42FD0E0CC0FDD1F98E1699FC00DD11D8D
:101DA000112498E7899FC00DD11D1124632FCE0106
:101DB00087960E946B36612FCE0188960E946B3603
:101DC000DF91CF911F910895CF93C82F6FEF8111AD
:101DD00064E083E290E00E946B366FEFC1116EEB1E
:101DE00084E290E00E946B366FEFC1116EE185E2F4
:101DF00090E00E946B36CF910895CF93C92F682F42
:101E000084E090E00E946B366C2F82E290E00E94AA
:101E10006B36CF9108959B01883070F49AE0899FCA
:101E2000B0011124655C7D4F4AE050E0C9010E9479
:101E30003D3690E080E008958FEF9FEF0895AAE08F
:101E4000B0E0E5E2FFE00C9494359C0137552F3F5C
:101E5000310509F068F4BE016F5F7F4F0E940B0FE0
:101E6000892B31F489859A852A96E2E00C94B03565
:101E70008091CB059091CC05F7CFAAE0B0E0E3E4E8
:101E8000FFE00C948E35EEE3F5E080E5DF011D9276
:101E90008A95E9F7EFE3F6E088E3DF011D928A9582
:101EA000E9F78EE3C82E85E0D82E7F010BE812E01B
:101EB000F701D182C0824AE050E0B801CE0101961C
:101EC0000E943D3688E0FE013196D60101900D92C8
:101ED0008A95E1F789859A85D70113969C938E930D
:101EE0001297BAE0CB0ED11CE7E0EE0EF11C065FB4
:101EF0001F4F0B3DF2E01F07D9F62A96E8E00C943D
:101F0000AA351F93CF93DF93EC01FC01E95CFD4FF1
:101F100080816823B1F00E940736182F0E9407368F
:101F20008F77782F20E8720F08F47FEF612F809170
:101F3000F4060E948407462F282F672FCE010E94A7
:101F40006207DF91CF911F91089546E050E06CE168
:101F500070E081EF96E00E945B3610921F040895B6
:101F6000B0E0A0E0E6EBFFE00C948635C0907B0388
:101F7000D0907C03E0907D03F0907E038FB7F894BF
:101F800040908C0650908D0660908E0670908F0663
:101F90008FBF530142018C189D08AE08BF080E94F4
:101FA000110560937B0370937C0380937D03909372
:101FB0007E03A0915203E2E5F3E02A2F30E04FEFD9
:101FC000C40ED41EE11CF11CC418D508E608F7089D
:101FD000A3131BC0209352033091F106132F1370EB
:101FE00019F0132F16951695209114012130B9F18F
:101FF0002223F1F0223009F42EC2233009F434C236
:10200000CDB7DEB7E0E10C94A235418D528D2A01A7
:10201000712C612CC414D504E604F70420F421507B
:102020003F5F3296D5CF480D591D528F418FF8CF63
:1020300010921C016093C4067093C5068093C60677
:102040009093C70689E2E2E5F3E0A8ECB6E00190E0
:102050000D928A95E1F781E080931401D1CF9091A0
:10206000130181E019130BC0832F8370209112019B
:1020700030E091E08217130609F490E0892F817017
:1020800080931E018091F60690911D01981739F0FA
:1020900080931D0140E060E080E00E945F071930FE
:1020A00050F4E12FF0E0E45FF84C0C947735809128
:1020B0001E01811102C0C0E087C040E060E080E006
:1020C0000E945F07F8CFC0911C018BE0C89FC02D14
:1020D00011240BE00C0FF02E053310F034E3F32E37
:1020E0006091F2067091F3068091F4060E948407D5
:1020F000E62ED72EC82ED0E0CF1528F0C1E004334D
:1021000008F462C0D8CFFE01E95CFD4F8081909158
:102110001D01892331F02C2D4E2D6D2DCE010E94F5
:1021200062072196E9CFC0911C018BE0C89FC02DAA
:102130001124DBE0DC0F0D2FD53308F004E3E09031
:10214000F206F090F306D090F4066091F5066695DD
:10215000669566958091C4069091C5060E947A079F
:10216000E82F86FDE0952E2F2F7086FD2F5FE695D8
:10217000E695E695E670F0E0E458FE4F9181929F77
:10218000902D212D112492959F702295207F922BC6
:102190002081920F87FD9195892F87FD8195880F6A
:1021A000282F3D2D239F212D1124822FB7010E941E
:1021B0008407D62EC72EB82EEC2EF12CE016B0F0E8
:1021C000C1E0D43308F077CF80911C018F5F8093FA
:1021D0001C01C11115CF82E08093140180911E0172
:1021E00081110ECF11110CCF83E036CFF701E95CDE
:1021F000FD4F808190911D01892331F02B2D4D2DB4
:102200006C2DC7010E9462074FEFE41AF40AD6CF83
:102210008DE597E00E948B08C82FD6CF84E597E024
:10222000F9CFC0911E01C1111EC06091F50620E1D9
:10223000620F08F46FEF8091C4069091C5060E946A
:102240007A0765E070E00E944F35892B09F033CFA3
:102250000E94073664E370E00E94633560911D01BF
:102260000E94810FB1CFC0911C018BE0C89FC02D8F
:1022700011240BE00C0F802F053308F084E3D0E02D
:10228000E82EF12CCE15DF050CF038CF60911D0142
:10229000CE010E94810F2196F5CF40911B045091F1
:1022A0001C0460911D0470911E048091C4069091DD
:1022B000C506A091C606B091C70684179507A60764
:1022C000B70708F4F8CE80911E01811121C0C0919A
:1022D0001C018BE0C89FC02D11240BE00C0FD02EE9
:1022E000053310F024E3D22EEC2EF12C83E0C89FAE
:1022F000E0011124C158DC4FED1408F442C0EFE7AF
:10230000F3E088E194E0043308F054C0C1E05CCF0E
:1023100040E060E080E00E945F079FE7E92E93E0E5
:10232000F92ED0E0C0E00FE70E94650781FF0CC0E6
:10233000F7011082118212822196F3E0EF0EF11C58
:10234000C433D10589F7C3CF0E946507B82E0E9418
:1023500065078695782F700F08F47FEF6E01CC0C1F
:10236000DD1CCC0EDD1E960121583C4F69016B2D02
:102370008091F4060E948407F60160837183828352
:10238000DBCFF701E95CFD4F808190911D0189232E
:1023900031F02A8148816981C7010E946207239632
:1023A0002FEFE21AF20AA8CF2381348145812193CD
:1023B000319341938E179F07B9F70E94650781FFFC
:1023C0002BC0109218041092190410921A04209134
:1023D000F50630E1230F08F42FEF60E1822F90E043
:1023E0000E947A07BC0188EB9BE00E944F358091E8
:1023F000C4069091C506A091C606B091C706860F87
:10240000971FA11DB11D80931B0490931C04A093E2
:102410001D04B0931E044FCE0E946507C82F0E9472
:1024200065078695782F2FE7720F08F47FEF6C2FE2
:102430008091F4060E948407609318047093190435
:1024400080931A04C4CF8DE497E00E941808E4CE6C
:1024500087E497E0FACF10931301832F8370809362
:1024600012010E94AB0CC0CE80911F0481110E940A
:10247000A50F4091C4065091C5066091C6067091A3
:10248000C7062FB7F89480918C0690918D06A09185
:102490008E06B0918F062FBF841B950BA60BB70B32
:1024A0004097A105B10508F4ABCD10921401A8CD59
:1024B000E1EFF6E081E1808380911F01909120019E
:1024C000A091210181839283A3838FE784838FEF7F
:1024D00085830E94A50F08954F925F927F928F92FD
:1024E0009F92AF92BF92CF92DF92EF92FF920F93A3
:1024F0001F93CF93DF93CDB7DEB72A970FB6F8942B
:10250000DEBF0FBECDBF8E010F5F1F4F8AE0F80107
:1025100011928A95E9F72BE5E22E21E0F22E37E6BB
:10252000832E31E0932ECC24C394D12CAA24A394DF
:10253000B12CF70181917F018F3F09F44FC0F894CE
:10254000E82FE295EF70F0E021A18F70A50102C0A5
:10255000440F551F8A95E2F7CA01922F982B91A339
:1025600092A18095892382A3789400C097E6492E92
:1025700091E0592ED801B60160957095F2017190E5
:102580002F018D919D91AD0142505109FFEF7F16B2
:1025900009F463C0272D22952F7030E0F90120A1A6
:1025A00030E0F72DFF7002C035952795FA95E2F7D8
:1025B00020FD53C08C299D29FA0191838083FCE67C
:1025C0004F16F1E05F06D1F6F701319780818F3F1A
:1025D00011F00E94D70820EA2A95F1F7CC0CDD1CF7
:1025E0008E149F0409F0A5CF4AE050E0B80180E2C4
:1025F00093E00E942036892B99F18AE0F801A0E24D
:10260000B3E001900D928A95E1F781E080931F037A
:102610000E941D0590931E0380931D0380911D034E
:1026200090911E030E9402050597F0F04AE050E0E9
:1026300060E273E088E493E00E942036892B59F130
:102640008AE0E0E2F3E0A8E4B3E001900D928A951D
:10265000E1F781E010921F0308C086239723ACCFD7
:1026600080911F038111DACF80E02A960FB6F8948B
:10267000DEBF0FBECDBFDF91CF911F910F91FF90B5
:10268000EF90DF90CF90BF90AF909F908F907F9012
:102690005F904F90089580E0DDCF809192059091FA
:1026A000F806892B80936E0280911B03882319F111
:1026B0008091B5059091B605892B29F00E94EC0A0E
:1026C00081110E94B20A80916E0290911B03892BA6
:1026D00080936E0280911B018823E1F18091900626
:1026E00087FF38C08EE1E0E7F2E090E08150A0F58E
:1026F00091110E94B20A40E250E069EF72E08EE66A
:1027000092E00E942036892B21F180E2EEE6F2E091
:10271000A9EFB2E001900D928A95E1F7E09187066A
:10272000F09188063097A9F080911B01882359F019
:102730008091900687FF07C080916E0280936F02A0
:1027400086E080936E020280F381E02D8EE692E0B7
:102750000995089586E0C7CF2191222339F29F5F22
:10276000C5CFCF93DF93EC01EA85FB85309719F055
:102770006C857D8509958B810E94D10A8C810E9490
:10278000D80A0E944D1386E0FE0111928A95E9F75E
:10279000DF91CF910895CF93DF93EC018D8181FD7F
:1027A00015C082608D838091F8069B81892B809370
:1027B000F8068C810E94DF0A0E944D13E885F98596
:1027C000309721F06C857D85CE01099510928406A5
:1027D000109283068D8180FD03C0CE010E94B1134B
:1027E000DF91CF91089580911901877F809319011E
:1027F00082E00E94D10A8091190184FF06C08F7E79
:102800008093190182E00E94DF0A8091190185FFFF
:1028100006C08F7D8093190180E20E94DF0A0E942A
:102820004D13089590E080E00E94690590E080E0FB
:102830000E9453051092F8060E944D13089580934C
:10284000F7060E94121408958091F706982F96704B
:10285000963021F488600E941F140895877FFBCF73
:1028600021E030E001C0220F8A95EAF7209580919F
:10287000F70682230E941F1408959091F802809514
:1028800089238093F802282F277091F4282F082E8F
:10289000000C330B9217130659F09091910692FF9A
:1028A00007C08595859585950E9430140E94E50A9C
:1028B00008959091910692FB222720F9281769F03C
:1028C00080FB92F9909391068091900690919106E9
:1028D0000E94FD0E82E00E943D14089521E030E048
:1028E00001C0220F8A95EAF78091F706822B0E9499
:1028F0001F1408959091910692FF10C098E0899F4F
:1029000090011124622B6093F8020E946E140E94C1
:102910001D059093F7028093F60208950E946E14AD
:10292000089580931C030E9412140895109292053A
:1029300080911B01E0E7F2E0882361F0809190062E
:1029400087FF08C08EE1DF011D928A95E9F70E949A
:102950001214089586E0F7CFAAE2B0E0E2EBF4E1CA
:102960000C9493358CEB96E02091F100DC012D93D3
:10297000CD01B6E0843C9B07B9F78091BD0683305A
:1029800009F472C0B8F4813009F449C0823009F406
:10299000B3C08091E80083FF96C28091BC069091FD
:1029A000BD069A3008F08FC2E92FF0E0EB5EF84CDC
:1029B0000C9477358A3009F48EC08B3009F471C0DD
:1029C000893039F78091BC06813219F78091C006B1
:1029D0009091C106009711F00297D9F68091E80016
:1029E000877F8093E8008091E80082FF38C0909153
:1029F000F3008091F200029731F48091F100813070
:102A000011F0863021F48091F10080939706809137
:102A1000E8008B778093E8000E94F303BACF80919F
:102A2000BC06813A09F0B5CF8091E800877F80939A
:102A3000E8008091C0069091C106892B61F460E2A4
:102A400088E996E070E00E949F048091E8008B770F
:102A50008093E8009ECF60E090E080E0F3CF80912B
:102A6000BA068111C0CF95CF8091BC06813A09F09A
:102A700090CF8091C0069091C106892B09F089CF33
:102A80008091E800877F8093E8008091E80080FFD4
:102A9000FCCF80911B018093F1008091E8008E773C
:102AA000B9CF8091BC06813209F073CF8091C00606
:102AB0009091C106892B09F06CCF8091E800877F47
:102AC0008093E8000E94F3038091BE0680931B016F
:102AD0000E9496145ECF8091BC06813209F059CFD6
:102AE0008091E800877F8093E8000E94F303809143
:102AF000BF06809396064DCF8091BC06813A09F0BF
:102B000048CF8091E800877F8093E8008091E800BB
:102B100080FFFCCF80919606BECF803899F0823836
:102B200009F0D1C18091C0068F70873008F0CBC109
:102B30008093E9008091EB0085FB882780F9109253
:102B4000E90006C08091B8069091B90691118260A3
:102B50009091E800977F9093E8008093F1001092A5
:102B6000F1008091E8008E77AAC1882309F498C10A
:102B7000823009F0A8C18091BE0681119BC180916D
:102B8000C0068F702FEF280F263008F09CC180936D
:102B9000E9002091EB0020FF8DC1933031F480914A
:102BA000EB0080628093EB0085C19091EB00906117
:102BB0009093EB0021E030E001C0220F8A95EAF704
:102BC0002093EA001092EA008091EB008860EACF3F
:102BD000811179C11091BE061F778091E300807842
:102BE000812B8093E3008091E800877F8093E80049
:102BF0000E94F3038091E80080FFFCCF8091E30006
:102C000080688093E30082E0111183E08093BA062C
:102C10005AC18058823008F056C12091BE063091CA
:102C2000BF062C3DE3E03E07A1F583E08A838AE2FC
:102C300089834FB7F894DE01139620E03EE051E21D
:102C4000E32FF0E050935700E49120FF03C0E2959A
:102C5000EF703F5FEF708E2F90E0EA30C0F0C796C4
:102C60008D939D932F5F243159F74FBF8091E800DA
:102C7000877F8093E8006AE270E0CE0101960E94AF
:102C80009F048091E8008B778093E8001CC1C09678
:102C9000E7CF8091C0069091C106432F552743305E
:102CA000510509F44AC078F54130510509F485C051
:102CB0008BE590E0E7E1F5E04230510509F003C112
:102CC0002091E800277F2093E8002091C2063091F0
:102CD000C3068217930708F49C0140E021153105D3
:102CE00009F070C041116EC08091E80082FDC9CF2B
:102CF0008091BA06882329F2853019F28091E80084
:102D000083FFF2CFBECF4132510509F447C04232B2
:102D1000510509F0D8C08330910508F0D4C0FC01FA
:102D2000EE0FFF1FE957FE4F0190F081E02D8C5709
:102D30009E4FDC018C9190E01DC03327213031057E
:102D4000E9F02115310579F022303105F9F0233011
:102D5000310509F0B8C0E4E8F5E0E4918E2F90E089
:102D6000E4E8F5E007C0EAECF5E0E4918E2F90E0AE
:102D7000EAECF5E0009709F4A6C0A2CFE4EBF5E099
:102D8000E4918E2F90E0E4EBF5E0F4CFE2EAF5E099
:102D9000E4918E2F90E0E2EAF5E0ECCF83309105EC
:102DA00008F091C0880F991FFC01E357FE4F019076
:102DB000F081E02D89E090E083CF82E190E0E2E7CE
:102DC000F5E07ECF8091BA06882309F45ACF85308A
:102DD00009F457CF8091E80083FD53CF8091E8003C
:102DE00082FD82CF8091E80080FF78CF9091F30040
:102DF0008091F2002115310519F08830910550F0CD
:102E000041E0089709F040E08091E8008E778093D8
:102E1000E80064CF44914093F1003196215031098C
:102E20000196E8CF803809F04EC08091E800877F96
:102E30008093E8008091BB068093F10092CE8111CF
:102E400042C01091BE061230F0F58091E800877FF5
:102E50008093E8001093BB060E94F303112311F046
:102E600084E005C08091E30087FDFACF81E0809384
:102E7000BA0642E061EC81E00E94120442E261EC99
:102E800084E00E94120442E261EC82E00E9412049B
:102E900042E260EC83E00E9412048091BA0613C003
:102EA0008091BE06813079F481E0933009F080E0B2
:102EB0008093B9061092E9008091E800877F8093A3
:102EC000E8000E94F3038091E80083FF0AC080912C
:102ED000E800877F8093E8008091EB008062809318
:102EE000EB00AA96E3E00C94AF35E3EBF5E0128E2D
:102EF000138E8FEA90E09183808385E0848F28E8A9
:102F000033E13383228322E330E0378B268B28ECB6
:102F100030E0318F208F158E178E168E20E530E031
:102F200031A320A382A30E944B0E0E9496141092FC
:102F3000910610929006E1E9F6E08081846080833A
:102F400080919006909191060E94FD0E0E94D20CF5
:102F50000895A4E1B0E0EFEAF7E10C9487356090C2
:102F600015017090160181E090E090931601809316
:102F7000150110E000E02BE0A22E24E0B22E3DE08F
:102F8000832E34E0932E8FE0C82E84E0D82E512C6F
:102F90001EC001151105F1F4F701EE0FFF1FEC0D36
:102FA000FD1D259134914E2D652D80E00E94BE0EB1
:102FB0008FEFE81AF80AECE0EE16F10451F7F8E1A9
:102FC000CF0ED11C539485E0581609F459C0F12C4A
:102FD000E12CDFCF21E030E04E2D652D802FE6CFB4
:102FE000F5012591349141E060E080E00E94930E6C
:102FF000F4012591349140E060E080E00E94930E5E
:103000000F5F1F4F0430110509F0BDCF0E947517E7
:103010001A8219821C821B821E821D8218861F82C0
:1030200088EC90E09A8789870BE312E04AE050E051
:10303000B801CE0101960E948F36065F1F4F0B38F4
:10304000E2E01E0799F77E01FBE0EF0EF11C8AE03B
:10305000F70111928A95E9F74AE050E0B801C701FB
:103060000E948F36065F1F4F0B3DF2E01F07A1F74E
:1030700070921601609215016496EFE00C94A335EE
:103080000115110509F4ACCF21E030E041E060E02A
:10309000802F0E94930E21E030E040E060E0802F1E
:1030A000ADCF80E00E94E40E60E086E290E00E94F6
:1030B0006B360E94A9170E94830E81E00E94E40EE5
:1030C0000895CF92DF92EF92FF928FEF9FEF4430FF
:1030D000510508F46AC0FB01C080D180E280F38012
:1030E0000E94961480919006C0FA80F9B701A6015B
:1030F000769567955795479540FB81F9B701A601ED
:1031000022E076956795579547952A95D1F740FB2C
:1031100082F9B701A60133E07695679557954795F3
:103120003A95D1F740FB83F9B701A601E4E0769523
:10313000679557954795EA95D1F740FB84F9B70114
:10314000A601F5E07695679557954795FA95D1F7DD
:1031500040FB85F9B701A601A6E0769567955795DE
:103160004795AA95D1F740FB86F9B701A601B7E0CC
:103170007695679557954795BA95D1F740FB87F9AE
:103180008093900680919106D0FA80F9D1FACC24F0
:10319000C0F8C0FA81F980939106809190069091D1
:1031A00091060E94FD0E90E080E0FF90EF90DF908E
:1031B000CF9008950E9496142FEF84E39CE0215055
:1031C00080409040E1F700C0000088E19CE00FB62D
:1031D000F894A895809360000FBE90936000FFCF95
:1031E000882321F00E94D10A0E944D13089588235C
:1031F00039F09091F806982B9093F8060E944D13A1
:103200000895882321F00E94D80A0E944D13089542
:10321000882321F00E94DF0A0E944D13089588231D
:1032200051F19CEF980F913A40F4682F8EE692E0AE
:103230000E9429050E944D13089590E2980F98303E
:1032400050F4877091E001C0990F8A95EAF7892FB1
:103250000E94D80AEFCF9BE5980F933028F490E0B6
:1032600080E00E9469050895885A873120F490E033
:1032700080E00E9453050895CF93DF93EC010E94F4
:103280000F19CE010E94D80B9E01205E3109283013
:10329000310510F0CD2B29F40E940119DF91CF9157
:1032A00008950E94F018FACFCF93C82F882309F40D
:1032B00045C08CEF8C0F813A08F068C080911B01EB
:1032C0008823F1F18091900687FF3AC0EC2FE695B4
:1032D000E695E695F0E0E259FD4F828190E04C2FB3
:1032E000477021E030E002C0220F331F4A95E2F719
:1032F00082239323892B61F06C2F8EE692E00E944B
:1033000029050E944D1326C08091900687FF26C094
:10331000AC2FA695A695A695B0E0A259BD4FC77053
:1033200021E030E001C0220FCA95EAF712968C9195
:103330001297822B12968C930E944D13CF91089571
:10334000E0E7F2E086E792E02191C217A9F28E173A
:103350009F07D1F780911B018111D6CFA0E7B2E082
:10336000EFEF80E09D91C91739F3EF3F19F4911108
:1033700001C0E82F8F5F8630A9F7EF3FE9F20E2EEC
:10338000000CFF0BE259FD4FC283D6CF80E28C0FB9
:10339000883048F4C77081E001C0880FCA95EAF709
:1033A0000E94DF0AC9CFEBE5EC0FE33040F4F0E018
:1033B000E65DFE4F808190E00E946905BFCFC85A4C
:1033C000C73108F0BBCFEC2FF0E0EE0FFF1FE35D3D
:1033D000FE4F808191810E945305B0CF1F93CF9300
:1033E000DF93182FC091D305D091D405893321F0F4
:1033F000C091D105D091D205812F0E9454192097F8
:1034000039F4812F0E940F19DF91CF911F910895F8
:103410008FE99FE00197F1F700C000002197EFCFFF
:10342000B0E0A0E0E6E1FAE10C948C35EC018AE032
:10343000A82E2881222309F48FC02130C9F5998153
:103440008A81913021F422960E94EE1905C09230B3
:1034500029F422960E9454192196EBCF933021F43F
:1034600022960E940F19F8CF943011F02196F4CFD4
:10347000229630E020E0AE014F5F5F4F8053990B02
:103480008A30910550F02150310930F38FE99FE0E7
:103490000197F1F700C00000F6CFA29EB001A39EF5
:1034A000700D11249C01260F371F8981EA01E3CF9B
:1034B000E22FF0E0E250FA4FB490822F8695869585
:1034C000869590E0FC01E251FA4FE4902770F12CD0
:1034D000022E02C0F594E7940A94E2F731E0E32269
:1034E000FF24FC01E252FA4FC490D12C022E02C0FC
:1034F000D594C7940A94E2F731E0C322DD24FC019D
:10350000E253FA4F049110E002C0159507952A95F1
:10351000E2F701701127E114F10419F081EE0E9425
:103520005419C114D10419F086EE0E9454198B2D40
:103530000E94EE19C114D10419F086EE0E940F19F1
:10354000E114F10419F081EE0E940F190115110523
:1035500009F482CF8CE278CFCDB7DEB7EAE00C94E5
:10356000A835CF93DF93EC010E94D80B9E01205E1B
:1035700031092830310510F0209741F40E940819D4
:103580008C2F0E945419DF91CF9108950E94F71853
:10359000F7CF662329F02091F80622602093F806E1
:1035A0009C013056211540E2340720F0305E211591
:1035B000304108F499270E94B11A0895B0E0A0E0C4
:1035C000E4EEFAE10C948F357C018B01D42E8091CE
:1035D000190182FF8CC0C091D905D091DA05CE15B2
:1035E000DF0521F0E114F10409F081C08091190197
:1035F0008B7F8093190181FD73C08091D7059091D5
:10360000D805A801481B590B81E020911701309182
:1036100018014217530708F480E08170F82E80915A
:103620001901F0FA81F980931901FE0183E0F69502
:10363000E7958A95E1F7EE71FF27ED56FA4F208165
:103640003181AE014F70552781E090E002C0880FB4
:10365000991F4A95E2F7FF2009F444C0822B932B6F
:10366000918380838091920581FF08C08091190128
:1036700080618093190182E00E94D80A80919205AE
:1036800085FF08C08091190180628093190180E252
:103690000E94D80A6F2DCE010E94C91ADD2031F098
:1036A0008091CE0585FF02C086FF3BC08091D10589
:1036B0009091D2050E94A10C8091D9059091DA05D4
:1036C0009C013056211540E2340720F0305E211570
:1036D000304108F499270E943C190E94F3131DC041
:1036E00081E09BCF8095909582239323B9CFC7012A
:1036F000992797013056211540E2340728F0305EB3
:103700002115304108F0C7010E943C198091D9056C
:103710009091DA058E159F0501F31093D80500935B
:10372000D705CDB7DEB7E7E00C94AB3590E080E08D
:103730000E945536883E9E4F19F40E940E0E089541
:1037400080E0089568EE7EEF90E080E00E94893688
:1037500060E082E090E00E946B3660E083E090E001
:103760000E946B3610921C0360E084E090E00E949F
:103770006B3664E082E290E00E946B3660E085E0A8
:1037800090E00E946B3660E086E090E00E946B362D
:103790006FEF87E090E00E946B3640E050E0BA01A6
:1037A00088E090E00E947D3660E08DE090E00E942D
:1037B0006B3640E050E0BA0188E190E00E947D362F
:1037C00060E087E190E00E946B3640E050E0BA0193
:1037D0008CE190E00E947D3670E060E080E290E055
:1037E0000E94893640E050E0BA0188E190E00E94F2
:1037F0007D3680E00E94E40E0E94511840E050E0C7
:10380000BA018FE090E00E947D3640E050E0BA01BE
:1038100083E190E00E947D360895A4E0B0E0E3E10A
:10382000FCE10C948B357C01DC0113964D915C918D
:10383000149711966C9111978C910E948C058111AF
:10384000EDC061E0C7010E94000E8C01F70182818A
:103850008823E1F080918306909184060097B1F06F
:103860000817190799F0FEE08F9FC0011124FC0191
:10387000ED52FB4F20812460208382539B4FDC015B
:103880000D931C930E94CB131092F806F7018281CE
:10389000882309F4C3C7980122513F4520313105DF
:1038A00008F02DC78FEF93E00E944D368111A6C01E
:1038B0006EEED62ED00E0BED12E0D11036C019826E
:1038C0001A821B821C8299249A9468012FEFC21AD3
:1038D000D20AC8010E944D3689831A82882309F4CE
:1038E0008DC0813009F07FC0580132E0A30EB11CB9
:1038F000C6010E944D36C82E8A83882309F47EC0F3
:10390000C5010E944D36D82E8FEF8C0D8330D8F430
:10391000580143E0A40EB11CDB82DD2021F0CE0172
:1039200001960E94101A8501D0CF0115F4E01F07FF
:1039300009F464C0C8010E944D36811101C0DA94B7
:103940000F5F1F4FBACF8BEF8C0D833030F5C8015E
:103950000396DB825C01DD2031F3580154E0A50EB3
:10396000B11C0E944D368C838823E9F28B819C81A7
:103970008130AFEF9A0710F0982F8827B6E0CB166A
:1039800031F0E7E0CE1631F00E949E2ACCCF0E94A3
:10399000782AC9CF0E94FF29C6CFF4E0CF12C3CF47
:1039A000580124E0A20EB11CC80103960E944D36B6
:1039B000DD2021F1882311F18150990B989E90010F
:1039C000999E300D11244D2D4150550BCA01820F87
:1039D000931F019708F4A7CFAFE9BFE01197F1F764
:1039E00000C00000F6CFCE0101960E94101A5601C9
:1039F0009ACF81E00E946E140E9424148091F802F4
:103A0000877061F0D70112968C91882339F08091EC
:103A1000910682FF03C082E00E943D142496EBE0F1
:103A20000C94A73581E00E943014E6CF82E0E2CF0B
:103A3000823009F0A5C68091C8049091C904892BF1
:103A400009F49EC62EE02C9DC0012D9D900D1124E1
:103A5000FC01ED52FB4F20812E7F208382539B4F30
:103A60000E94CB138DC62FEFC216D10409F008F4C3
:103A700087C68091CE0580FF39C00E941D056C016C
:103A8000D70112968C91882309F490C08091190176
:103A900082FF08C029E333E040E0B60190E080E017
:103AA0000E94DE1A0B31BCE51B0709F471C00C3112
:103AB000ECE51E0709F472C090911901892F8E7FE1
:103AC00090FF81600A31FCE51F0709F46AC0C80154
:103AD0009056811520E2920728F0905E8115904162
:103AE00008F072C01092DA051092D905F7018281B0
:103AF000882309F49CC20330FDE51F0708F05BC171
:103B00000A3F2CE5120730F4C80182509C454497C7
:103B100008F05CC10E94270E909391068093900656
:103B200002318CE5180709F458C208F0A4C1093025
:103B3000ACE51A0709F42FC208F06EC10530ECE5B8
:103B40001E0709F418C208F05AC103302CE5120709
:103B500009F409C208F00BC280919006816002301E
:103B60004CE5140709F484C1809190069091910668
:103B70000E94FD0E0E94961441CF902F812F49C6BE
:103B8000F601858181FF75CFC6010E94B11371CF07
:103B90008091190181608093190199CF8091190159
:103BA0008E7F809319010E94F31391CF80911901A8
:103BB0008F7E013E110531F0053E1105C9F480915B
:103BC00019018F7D809319018091190180FF8ECF9B
:103BD000D70112968C910832110528F50E31110586
:103BE00008F072C00430110580F581117BCF7ECFC3
:103BF000C8019056811540E2940720F0905E81152F
:103C0000904110F78091190182FF70CF8091D0050B
:103C100081FD6CCF29E333E040E0B60190E080E025
:103C20000E94DE1A63CF0933110558F40D321105D5
:103C300018F40B321105C9F69091CE0592FDD5CF3F
:103C400008C004361105C1F3D0CF9091CE0594FD84
:103C5000CCCF882309F4A8C080911B0390919205D2
:103C6000892B8D7FB1F11092DA051092D9058091E0
:103C7000CE0581FD2EC0F80143E0F695E7954A9503
:103C8000E1F7EE71FF27ED56FA4F98012F703327B9
:103C900081E090E002C0880F991F2A95E2F7809595
:103CA000909520813181822393239183808360E0EA
:103CB000C8010E94C91A80911B038D7F0E94BD0A12
:103CC00082E00E943D149ACE9091CE0593FD8DCF57
:103CD000C0CF88E0F701A9E3B3E001900D928A9587
:103CE000E1F710923B0310923D0310923C03809148
:103CF000D9059091DA0508171907D1F52091CE055D
:103D000025FF36C03091190131FF02C026FF30C0B7
:103D10002091D7053091D8055601A21AB30AB701F0
:103D20000E941F0FA816B90618F58091920581FF11
:103D300008C08091190180618093190182E00E947E
:103D4000D80A8091920585FF08C080911901806290
:103D50008093190180E20E94D80A6091190166954A
:103D600061708091D9059091DA050E94C91A46CEFA
:103D700080911B0390919205982B2091190191FB42
:103D800021F9209319018D7F0E94BD0A1093DA0555
:103D90000093D905D092D805C092D705809119011A
:103DA0008460809319018CCF970140E0B601C8016F
:103DB0000E94DE1A23CE053A3DE5130709F4AACE88
:103DC000C0F401365DE5150709F4A4CE0A358DE58A
:103DD000180709F420C208F0FCC10115ACE51A0768
:103DE00009F402C20E3D1C4509F03EC10E94A21B0F
:103DF000F9C1C8018D5A9D45039740F78BCE80913C
:103E00009006806207305CE5150791F108F4BFC0A9
:103E10008091900680642CC00D309CE5190709F450
:103E2000C4C090F4809190068E7F0B30BCE51B07D8
:103E3000F9F0809190068C600C30ECE51E07C0F024
:103E4000809190068D7F14C00F30FCE51F0709F4A8
:103E5000BCC008F4AEC000313CE5130709F4B9C09A
:103E6000809190068F7B01314CE5140709F07CCEE0
:103E70008093900679CE0F3F5CE5150709F4B7C033
:103E8000A8F50A3F9CE5190709F479C0C0F404318C
:103E9000BCE51B0709F4B9C008F4A5C00531FCE571
:103EA0001F0709F061CE8091900682FB992790F957
:103EB00021E0922790FB82F990FB83F9D9CF0C3F48
:103EC0002CE5120709F479C008F45DC00D3F4CE5FC
:103ED000140709F476C08091910683600E3F5CE57B
:103EE000150709F041CE809391063ECE01368DE54F
:103EF000180709F495C090F40130ADE51A0709F4EC
:103F00008DC008F478C060E00230EDE51E0709F0CE
:103F10002BCE8EE090E00E946B3626CE0D3AFDE56A
:103F20001F07E9F060F490919006892F8E7F90FF33
:103F30008160053A3DE5130709F49ACF15CE0E3A94
:103F40004DE5140771F10F3A5DE5150709F00CCE48
:103F500090919106892F877F93FF8860C4CF8091CD
:103F600091068860C0CF80919006826081CF809159
:103F7000900684607DCF80919006886079CF809193
:103F800091068160B0CF809191068260ACCF809124
:103F9000900680616DCF0E94961480919006806893
:103FA00067CF80919106877F9ECF809190068B7F0F
:103FB0005FCF80919006877F5BCF809191068E7F47
:103FC00092CF809191068D7F8ECF809190068F7ECB
:103FD0004FCF809190068F7D4BCF0E949614809199
:103FE00090068F7745CF80919006837F41CF809157
:103FF00091068C7F78CF80919106982F9095917043
:104000008E7F892B90FB81F96ECF0E949614909140
:104010009006892F97FB87F980582ACF61E079CFE6
:1040200090919006892F8F7E94FF806121CF80919F
:10403000920582720A3C9CE5190709F4BDC008F09C
:1040400066C0053CBCE51B0709F4A2C008F047C0E8
:10405000033CFCE51F0709F491C008F094C0023C42
:104060003CE5130709F47CC0F7018681978100972E
:1040700009F4D5C00E943109182F092FF701C28019
:10408000D580D2943FE0D3228091F8028770C1F0AE
:10409000AC2CCC20B1F0892F807F803421F080E2DD
:1040A000810F883068F08091910682FF09C082E01C
:1040B0000E943D148091F8028770AA24A394811174
:1040C000A12C902E92942FE09222FBE0F91508F497
:1040D00033C1E92DF0E0E15EF84C0C947735073CF4
:1040E0004CE5140709F45EC008F457C0083C9CE591
:1040F000190709F45CC049EC56E067ED76E0093C2D
:10410000ACE51A0709F0B0CF0E947E0677CC0E3CD2
:10411000BCE51B0709F45AC080F40C3CFCE51F0702
:1041200009F44FC04AE956E068EA76E00D3C2CE518
:10413000120750F361E081E00BC0063D3CE5130738
:1041400050F461E084E0003D4CE5140708F056CCE3
:104150000E94170753CC0D35100709F44FCC84CFBC
:104160008091F10691E089278093F1061092140165
:1041700080911F04816080931F0440CC40E357E08E
:104180006BE377E0C1CF4BE357E060E377E0BCCF70
:1041900041E057E06CE077E0B7CF4CE057E061E0FA
:1041A00077E0B2CF45EE56E063EF76E0ADCF43EF78
:1041B00056E065EE76E0A8CF47ED56E069EC76E094
:1041C000A3CF48EA56E06AE976E09ECF61E082E05C
:1041D000BFCF0C35EDE51E07A1F0F8F0073A1D45FD
:1041E00009F042CF0E94DA180E9496143FEF44E390
:1041F0005CE0315040405040E1F700C000000E94B8
:104200007D0C8091910682FB882780F991E08927B7
:104210000E94591429CF81E0FBCF80E0F9CF828141
:1042200000811181882369F0C8010E94840DD82E75
:10423000682FC8010E94A10BB8018D2D0E945A0D54
:1042400019CFC8010E94570BD82EF6CF202F2F7000
:10425000B22E802F807F19F0B29490EFB922CC203B
:10426000A9F0BB2059F080E2810F883010F01111C5
:1042700007C08B2D0E94DF0A0E944D13812F5AC068
:104280008091F806B82AB092F806F6CF812F0E94E6
:104290000F19BB2009F450C080E2810F883010F064
:1042A000111104C08B2D0E94D80A03C08B2D0E94CF
:1042B000D10A0E944D1340C0302F3F70B32E802F83
:1042C000807F803219F0B29480EFB822112321F15F
:1042D000113009F4AEC0CC2009F4B7C0DD2009F4D8
:1042E0007FC020E0D7014C9111965C9111971296F6
:1042F0006C91129713967C91139714968C910E944F
:10430000DD0D8091D00581FDB9CFF701858180FF5A
:10431000B5CF8F70858364C08091910682FD40C0C7
:10432000CC20C1F1BB2029F08B2D0E94DF0A0E9416
:104330004D1380E00E945419A92DA850BB0B14976F
:1043400010F40E947F05812F902F0E94BD0B8111D8
:10435000B7C11092900210928F02AA20B1F0809102
:10436000F80280FD12C0D70112961C9285958595A2
:1043700085950E946E14C7010E940D1C8091F80261
:104380008595859585950E94301460E0C7010E944F
:10439000000E44CB80E00E940F19BB2069F282CF4F
:1043A000CC2011F1D11004C080911B038B2919C0BE
:1043B00041E0D41206C080911B038B290E94BD0AE4
:1043C000BBCF8091CF05823078F3D812EDCF0E9419
:1043D000B20A90918E028B2D892B891380938E02C5
:1043E0008B2D0E940819A8CFD11003C00E94B20AD9
:1043F00017C08091CF0551E0D51216C0823008F465
:104400009BCF809192058B2109F496CF0E94B20A2E
:1044100090918E028B2D80958923891380938E0233
:104420008B2D0E94011988CF823000F3D812DECF85
:1044300083CF8091D505CC2021F08D1508F47CCF59
:10444000CFCFD81608F078CFEBCFDD2049F380919D
:10445000D3059091D405193321F08091D105909125
:10446000D2050E94A10C812F0E940F1965CF802FC9
:1044700086958695837069F0813009F05DCF812F34
:10448000902F9370C11002C090E080E00E9453050D
:1044900053CF812F902F9370C11002C090E080E025
:1044A0000E94690549CF802F837091F5C11044CFD8
:1044B000412F429546954770440F440F812F8F70CE
:1044C000042E01C0880F0A94EAF7212F207114FFEF
:1044D00007C02FE030E001C0220F4A95EAF720958F
:1044E000302F369536953370323069F050F4409164
:1044F0001C03313029F0822B84230E9491141CCF9D
:10450000842B822BFACF282B80911C038227F5CF96
:104510008695CC2011F0802F8170882309F40CCF70
:10452000412F429546954770440F440F812F8F705D
:10453000042E01C0880F0A94EAF7212F207114FF7E
:1045400007C02FE030E001C0220F4A95EAF720951E
:10455000302F369536953370323069F050F44091F3
:10456000F706313029F0822B84230E941F14E4CEF9
:10457000842B822BFACF282B8091F7068227F5CF48
:10458000F02FFF70BF2ECC2029F08F2F0E946E14C9
:10459000812F27CF812F0E9401198B2D0E9430146B
:1045A000CBCE123F89F160F4103FB9F0113F81F09A
:1045B000CC2009F480C0D11061CE802F8F7128C02B
:1045C000133F49F1143FA1F78091910682FD2FC05E
:1045D000802F8F71CC2011F31BC08091D505CC208A
:1045E00079F0D81608F0A8CE202F2F7181E090E046
:1045F00001C0880F2A95EAF79091F7068927B5CF71
:104600008D1508F499CEF0CF802F8F71C110C6CFD1
:104610000E946E1491CE80E0CC2009F4A6CF81E0F8
:10462000902F9F7101C0880F9A95EAF79ECF8091D5
:10463000CF05823040F1CC20D1F09091F8029770F4
:10464000943041F40E94E50A802F8F710E9430144B
:10465000A12C72CED816E0F7202F2F71B22E822F08
:104660000E946E1463E08B2D0E947A14F1CFD8164D
:1046700030F00E94E50A64E0802F8F71F5CF81E071
:104680000E943D14E5CFCC2059F0302F3F71B32E5E
:10469000832F0E946E1463E08B2D0E947A144CCEFF
:1046A00081E00E943D1441E04D1508F045CE82E0C6
:1046B0000E943D1441CED110CACE802F8F716ECF93
:1046C000CC2019F0D11045CE48CED11042CE20E0FA
:1046D000F701408151816281738184810E94DD0DE7
:1046E0008091D00583FF35CE80918F02909190020A
:1046F000029709F02ECE812F0E94EE192ACE0031AA
:10470000BFE51B0709F475C90131EFE51E0709F480
:104710008DC96801E7E5DE1A8111A5C9FFEFCF1643
:10472000D10411F008F0A5C964EC74E08C2D0E944E
:104730000B0F892B29F58EE08C9DF0018D9DF00DDE
:104740001124E253FB4F8281813009F071C98091BD
:10475000C4049091C504892B99F08091C60490916E
:10476000C704892B69F08091C8049091C9042091F5
:10477000CA043091CB04822B932B892B09F462C994
:104780005801BB243EE0039FF0011124AF014253C6
:104790005B4F6A01D70112968C91ED52FB4F9081CD
:1047A00080FB90F99083882309F4EAC90E941D05D3
:1047B0009093380380933703D60112968C91129709
:1047C0008F5F12968C9312978091F80690919205C4
:1047D000892B13968C93139780911B0314968C93BB
:1047E00014971696ED91FC911797309729F01C9627
:1047F0006D917C91C60109958EE08A9DF0018B9D9B
:10480000F00D1124E253FB4F858181FFB6C990E082
:1048100080E090938306809384062BC90031FFE5E6
:104820001F0709F4FFC801312FE5120709F071CF06
:1048300082E0F9C8B0E0A0E0E0E2F4E20C948E354A
:104840008091B102807F31F48091AE02C091F50277
:10485000811107C0CDB7DEB7E8E00C94AA352196E8
:10486000C7708091B4028C17A9F3F090AC02E0906D
:10487000AD02C090AF02D090B002A6016E2D8F2D78
:104880000E948C05D0E08111EACF8E0183E0000FF9
:10489000111F8A95E1F7F801EB54FD4F81818E11CC
:1048A000DECF80818F11DBCF82818111D8CFE38071
:1048B000F480EC18FD0860E08CEA92E00E94000EA3
:1048C0006CEA72E00E941F0FE816F90640F680912C
:1048D000B1028F7080618093B102F801E654FD4F00
:1048E00080818F70806180838CEA92E00E940D1C31
:1048F0000E94260BAFCFA5E1B0E0E1E8F4E20C9412
:1049000087358C0185E0F801DE01519601900D920A
:104910008A95E1F7D8015C9011966C9011971296E8
:10492000EC9012971396CD90DC9060E08CEA92E0C8
:104930000E94000E8CEAA82E82E0B82E8090AF0272
:104940009090B002A4016091AD028091AC020E94EF
:104950008C058111A8C1F090AE02F601E819F909A1
:104960004F0160E0FF2009F44BC1C5010E94000E19
:10497000B5010E941F0F7090B1028816990608F0C9
:10498000F2C04091AF025091B002B090AC02A09042
:10499000AD02872D807F6A2D09F08CC08B2D0E947F
:1049A0008C05FE2C811127C0D80111968C9111978E
:1049B0008A1121C08C918B111EC02091B2023091BE
:1049C000B30216968D919C9128173907A1F4E11036
:1049D00012C0872D8F7080618093B1028CEA92E0C3
:1049E0000E940D1C8091B102F80185838F2D659680
:1049F000EFE00C94A335A601662D852D0E948C0551
:104A0000D82E81E08E25D11080E080FF18C04E2D79
:104A1000662D852D0E94060B882389F08091D00594
:104A200080FF0DC08CEA92E00E940D1C88E0ECEA49
:104A3000F2E0DF011D928A95E9F7F12CD7CF81E0F2
:104A40008E25D11080E0B82FB170CB2E80FF29C009
:104A50004E2D662D852D0E94060BD82E811121C06A
:104A6000598A6A8A89899A890E94B30D292F2295C9
:104A70002F70223050F0243078F49F7051F0F801FC
:104A80009581907F31F4FD2CB1CF9F7011F0882378
:104A9000D1F3805E8830B8F3C8010E940D1CDC2C75
:104AA000F2CFEE2009F4A2CF8091B1028160809311
:104AB000B102C3CF8B2D0E948C05811124C0D80177
:104AC00011968C9111978A111EC08C918B111BC06D
:104AD0002091B2023091B30216968D919C91179756
:104AE0002817390781F4E1100EC015967C92C80191
:104AF0000E940D1C88E0F801ACEAB2E001900D9232
:104B00008A95E1F773CFC8010E94C00D882339F15F
:104B1000EE2029F18091B1028032A0F02091AC0208
:104B20003091AD023A8729871B86DD86CC868E8739
:104B30008091B2029091B302988B8F87CE01099633
:104B40000E940D1C88E0F801ACEAB2E001900D92E1
:104B50008A95E1F70E941A24FF24F39447CFC801F5
:104B60000E940D1CF9CF872D807F09F45BCF9090B8
:104B7000AC028090AD024091AF025091B002682D1E
:104B8000892D0E948C0581111CC0F801818188113A
:104B900018C08081891115C02091B2023091B302F2
:104BA000868197812817390761F4E1100AC0758260
:104BB000C8010E940D1C88E0D5011D928A95E9F775
:104BC00015CFC8010E94C00D882349F2EE2039F2AA
:104BD0008091B102803208F4B5CF2091AC023091BF
:104BE000AD023A8329831B82DD82CC828E83809141
:104BF000B2029091B30298878F83CE010196A0CF25
:104C00008CEA92E00E94000E6CEA72E00E941F0F94
:104C10008816990680F6FE2CEE2009F4A0CFE090CD
:104C2000AC02D090AD024091AF025091B0026D2D18
:104C30008E2D0E948C05811128C0F80181818D1173
:104C400024C080818E1121C02091B2023091B30224
:104C50008681978128173907C1F48091D00582FD9C
:104C600049CF9091B10290FD45CF907F09F442CF9A
:104C70008091B1028583903F09F439CF982F907FBE
:104C8000905F8F70892B858332CFC8010E94C00D41
:104C9000811158CF8091B10281608093B102C80127
:104CA0000E940D1CA3CEEE2009F459CFC8010E942A
:104CB000C00DF82E882309F452CF88E0F801ACEA41
:104CC000B2E001900D928A95E1F78091AC0290914B
:104CD000AD020E94B30D0E941A2488CEA0E1B0E07C
:104CE000E4E7F6E20C94943529873A874B875C8792
:104CF0006D877E878F87988BCE0109960E947B24D3
:104D000081112FC088E0FE013996DE0111960190D5
:104D10000D928A95E1F74C855D856A8589850E94AB
:104D20008C0581111EC0A091B402B0E0CD010196A6
:104D3000877099272091F50228171906E1F093E072
:104D4000AA0FBB1F9A95E1F7AB54BD4F98E0FE0147
:104D5000319601900D929A95E1F78093B4020E94EA
:104D6000260B8091F5029091B402891312C06096CF
:104D7000E2E00C94B0350E9496141092B4021092A6
:104D8000F50288E0ECEAF2E0DF011D928A95E9F78E
:104D9000E8CFB8E08B9FC00111248B549D4F0E9437
:104DA0007B24882321F38091F50290E0019687709F
:104DB00099278093F502D5CFEF92FF920F931F931F
:104DC000CF93DF938091DE05882361F0C091DD05EC
:104DD0008CE0F82E8091DE05C81748F01092DE05B1
:104DE0001092DD05CDB7DEB7E6E00C94AC35EE24CD
:104DF000E394EC0EE092DD050C2F10E0CF9DE00176
:104E00001124C152DA4F4B815C81698188810E94F3
:104E10008C0581111DC08E819F81892B21F488858D
:104E20009985019651F4288139814A815B816C8191
:104E30007D818E819F810E946E26F09EF001F19E01
:104E4000F00D1124E152FA4F148213821092F806E9
:104E5000CE2DC0CF109282061092810610921A01B8
:104E60008091800680937F060E94C5050E94DC2603
:104E70000895B0E0A0E0EFE3F7E20C948535C0912F
:104E80007F0697E0892E01E010E02CE0322E3EEF05
:104E9000932E44244394809180068C1309C00E9471
:104EA000DC260E94C505CDB7DEB7E1E10C94A13543
:104EB000D0E0FE01EE0FFF1FE958F94F808191818C
:104EC000889ED001899EB00D1124A15CB94F149623
:104ED0002C911497211158C05090DE05EFEDF5E0AC
:104EE00030E020E0712C5D01251508F04BC0E28414
:104EF000F384D501CD90DC906FEF7FEF612C462DD0
:104F000050E0DA01AA0FBB1FAC0DBD1D0D90BC9186
:104F1000A02D109731F0EA16FB0609F4BA0163944C
:104F2000EECF6F3F7607A9F1D80102C0AA0FBB1FD1
:104F30006A95E2F77A2AB801062C02C0660F771F3D
:104F40000A94E2F7AB014150510974161506F9F4C1
:104F5000329EF001339EF00D1124E152FA4F889EEB
:104F6000D001899EB00D1124A15CB94F12962D91EC
:104F70003C91139737832683908291829187808713
:104F800015964C920E9497052196C37084CF148287
:104F900013822F5F3F4F3C96A7CFA9E1B0E0E3ED2E
:104FA000F7E20C948435942F498B252F5A8B6B8B09
:104FB0007C8B8D8B4C895D89622F892F0E948C059B
:104FC000811109C080918F02909190020196909377
:104FD000900280938F028B8981111092F8061D86B2
:104FE0001E861F86188A85E0FE017196DE011996DD
:104FF00001900D928A95E1F78091910682FF1EC083
:105000008091B5059091B605892BC1F00E941D05D0
:105010002091F6023091F702821B930B2091B50587
:105020003091B6058217930720F08091F80282FF35
:10503000E2C10E94EC0A81110E94B20A4C855D8592
:105040006A8589850E948C05811111C061E0CE01BD
:1050500009960E94000E6C018B8527EFC2162CE585
:10506000D20681F4882321F181E080931A012985F9
:105070003A854B855C856D857E858F8598890E94F4
:105080006E26C6C038EFC3163CE5D30629F4882344
:1050900079F00E942A27EBCF49EFC4164CE5D406DD
:1050A00039F4882329F080911A018111F2CFDCCFE5
:1050B0000FE316E0512CB12CA12C22242394312C87
:1050C0002EEF422EF8014081518188248A94982C39
:1050D00020E0822F90E0FC01EE0FFF1FE40FF51F90
:1050E000608171816115710531F0C616D70609F42A
:1050F0004C012F5FEECFF12CFFEF8F169F0609F4C6
:1051000049C0F8014481F0901A018F2D411180E0CF
:10511000F82FF170FF2EF801E58086819B85992399
:1051200009F4F8C0FF2009F4F5C06090C90570903B
:10513000CA05E11013C0A101082C01C0440F0A9454
:10514000EAF7842B86838091DB059091DC05861538
:10515000970520F47092DC056092DB05C10102C066
:10516000880F991F2A95E2F70197F80126812817E1
:10517000190681F48091810690918206009709F4C6
:105180004BC00E9402056816790608F045C021E070
:10519000F80124835F28FFEFAF1ABF0A095F1F4F92
:1051A00028E0A216B10409F08DCF8B85882309F47D
:1051B0000DC1552009F40AC10E941D059093820675
:1051C000809381068091DE05883010F591E0980F7C
:1051D0009093DE0598E0FE013996DE01119601906C
:1051E0000D929A95E1F73CE0839FC0011124815212
:1051F0009A4F28E0FE013196DC0101900D922A952C
:10520000E1F72FEF3FEFFC0131872087D386C2867D
:105210006996E2E10C94A03580917F06509180065A
:10522000982FF0E0E0E0851314C090937F06E0171C
:10523000F10709F4AFCF90E0FC01EE0FFF1FE95832
:10524000F94FB182A08201968370992780938006DE
:10525000A1CF682E712CF301EE0FFF1FE958F94F13
:105260002081318147E0429FD001439FB00D11243E
:10527000A15CB94F6D917C911197798F688F40E057
:1052800020E030E0E32FF0E0EE0FFF1F688D798D16
:10529000E60FF71F8080918081149104E1F0F801FE
:1052A0000190F081E02DFF8BEE8B20E005C086168B
:1052B000970609F44F2D2F5FE22FF0E0EE0FFF1F4E
:1052C0006E897F89E60FF71F608171816115710515
:1052D00071F73F5FD7CF4423D1F0F801231708F0CF
:1052E000FD0121E024830E171F0721F490937F0610
:1052F000F42E50CF981305C0AE17BF0711F49F5F6F
:10530000937093012F5F3F4F822F83708CCFF0E01B
:10531000E0E0F7CF90E0E11020C0B10102C0660FDD
:10532000771F2A95E2F79B012150310982179307D5
:1053300031F4442309F448C0C5010E949705C10116
:10534000082C01C0880F0A94EAF7982F9095F8016D
:10535000868189238683FE2C1DCF9C01082C02C0E8
:10536000359527950A94E2F7A90141705527BC01AC
:105370006150710986239723892B11F5452B01F183
:10538000F80182819381892BC1F01B821C821D82CE
:105390001E8249824A820E941D058160582F9D838A
:1053A0008C83F801828193818F83988729813A8148
:1053B0004B816D817E810E946E26F8011582BFCFE0
:1053C000F22FF170EF2EBBCFEF2CB9CF90917F066B
:1053D00080918006981731F00E943927552009F4F2
:1053E00046CE16CF0E94DC261092820610928106CD
:1053F0000E94C505F3CF82E00E943D141ACEA5E0BD
:10540000B0E0E5E0FAE20C94943590938F05809338
:105410008E05811520E2920730F40E943C192596F2
:10542000E2E00C94B03580EF89838A831B820E946E
:105430001D058160782F9D838C8349815A816B8102
:105440008D810E94CD27EBCF0F931F93CF93DF93D6
:105450008C01EB0164EC74E08C2F0E940B0F892B04
:10546000A1F48091D1059091D2050E94A10CDD2775
:10547000C454DB4F8881F801128218828330F1F026
:1054800048F4813059F0823081F0DF91CF911F9143
:105490000F9108958430B9F08530B9F78091C40434
:1054A0009091C504009789F306C08091C60490913D
:1054B000C704009799F30E94FF29E7CF8091C804A1
:1054C0009091C904F6CF8091CA049091CB040097C3
:1054D00091F72091C4043091C5048091C604909145
:1054E000C70421153105F1F2009729F7C901E3CF6F
:1054F000A5E0B0E0EEE7FAE20C94943590938F05C6
:1055000080938E05811520E2920730F40E94B11A33
:105510002596E2E00C94B03580EF89838A8381E0A0
:105520008B830E941D058160782F9D838C83498128
:105530005A816B818D810E94CD27EACFCF93DF9373
:10554000EC010E94782A8091D1059091D2050E94A9
:10555000A10CCE010E94FF29DF91CF9108950F93F6
:105560001F93CF93DF938C01862F64EC74E00E942D
:105570000B0F892BB1F4C091C404D091C5042097BE
:1055800081F0F8018281833051F4CE010E949E2A7D
:10559000CE010E949E2ACE010E949E2A02C0843023
:1055A000D0F7DF91CF911F910F9108950F931F9323
:1055B000CF93DF938C01EB0164EC74E08C2F0E949D
:1055C0000B0F892B09F05CC0FE01FF27D801129652
:1055D0008C911297E454FB4F8130B9F415969C914D
:1055E00092FF02C080830AC090FFFCCF82E08083DC
:1055F0008091C6049091C7040097B9F48091C404C7
:105600009091C5040097E1F110C08230B9F515966C
:105610008C9182FD28C080FD0BC083E08083809147
:10562000C8049091C904009701F10E94782A28C00B
:1056300084E080838091CA049091CB040097A9F7FD
:105640008091C4049091C5040097F9F00E949E2AAD
:105650008091C6049091C704009739F78091C404E3
:105660009091C504E2CF85E080838091C40490913D
:10567000C504009729F00E949E2AF0CF86E080831F
:10568000DF91CF911F910F9108958091C604909161
:10569000C704B8CF1F920F920FB60F9211242F9309
:1056A0003F934F935F936F937F938F939F93AF93AA
:1056B000BF93CF93DF93EF93FF93D091E900DF7017
:1056C0008091EC00C82FC17080FDC0E81092E90005
:1056D0008091F000877F8093F00078940E94AC1452
:1056E0001092E9008091F00088608093F000CD2B4B
:1056F000CF70C093E900FF91EF91DF91CF91BF91FF
:10570000AF919F918F917F916F915F914F913F9159
:105710002F910F900FBE0F901F9018951F920F9210
:105720000FB60F9211242F933F934F935F936F9374
:105730007F938F939F93AF93BF93EF93FF9380914A
:10574000E10082FF09C08091E20082FF05C08091E4
:10575000E1008B7F8093E1008091DA0080FF24C01C
:105760008091D80080FF20C08091DA008E7F8093E6
:10577000DA008091D90080FF9DC080E189BD82E17F
:1057800089BD09B400FEFDCF81E08093BA06809107
:105790009506811109C00E9479030E9444048091FA
:1057A000E20084608093E2008091E10080FF17C0F6
:1057B0008091E20080FF13C08091E2008E7F809391
:1057C000E2008091E20080618093E2008091D80045
:1057D00080628093D80019BC85E08093BA068091DE
:1057E000E10084FF2BC08091E20084FF27C080E1AC
:1057F00089BD82E189BD89B5982F917080FFFBCF6B
:105800008091D8008F7D8093D8008091E1008F7EB9
:105810008093E1008091E2008F7E8093E20080918E
:10582000E20081608093E2008091BB06882309F446
:1058300047C084E08093BA068091BA068091E10067
:1058400083FF27C08091E20083FF23C08091E100A5
:10585000877F8093E10082E08093BA061092BB06B6
:105860008091E1008E7F8093E1008091E2008E7F45
:105870008093E2008091E20080618093E20042E048
:1058800060E080E00E9412048091F00088608093C4
:10589000F000FF91EF91BF91AF919F918F917F9118
:1058A0006F915F914F913F912F910F900FBE0F908D
:1058B0001F90189519BC1092BA061092950674CFD5
:1058C0008091E30087FD93E09093BA06B5CF78947A
:1058D0001F921FB61F9211248F939F93AF93BF9374
:1058E00080918C0690918D06A0918E06B0918F06C6
:1058F0000196A11DB11D80938C0690938D06A093F7
:105900008E06B0938F06BF91AF919F918F911F909C
:105910001FBE1F9018951F921FB61F9211248F93C0
:105920009F93AF93BF9380918B06811113C0809199
:105930008C0690918D06A0918E06B0918F064196AF
:10594000A11DB11D80938C0690938D06A0938E06A9
:10595000B0938F06BF91AF919F918F911F901FBE03
:105960001F901895CDB7DEB7C755D1090FB6F8947B
:10597000DEBF0FBECDBF85B7806885BF85B78068A5
:1059800085BF84B7877F84BF0FB6F894A8958091B0
:105990006000886180936000109260000FBE80E814
:1059A00090E00FB6F89480936100909361000FBE71
:1059B00085ED98E090936D0280936C020E945906E9
:1059C0000E943D0F0E94D20C0E9479030E94440461
:1059D0008091E20084608093E20078948091BA061E
:1059E0008823A1F01091E9001F709091EC00892F9D
:1059F000817090FD80E8182B1092E9008091E800FA
:105A000083FD0E94AC141F701093E90082E084BDF6
:105A100093E095BD9AEF97BD80936E000E940E0EA5
:105A2000811102C00E9451180BE511E0D8018D913F
:105A30008D018F3F11F00E94D708B1E007361B0798
:105A4000A9F707E611E0F80181918F018F3F11F06E
:105A50000E94D708F1E00C361F07A9F78AE0E8E4B6
:105A6000F3E0DF01282F1D922A95E9F7E0E2F3E049
:105A7000DF011D928A95E9F70E94961B811102C0F1
:105A80000E94A21B82E090E00E944D3680932C037E
:105A90000E94270E90939106809390060E946C12AC
:105AA000BFEFE6E7F1E0B150E040F040E1F700C0C1
:105AB00000000E946C128091480381FF08C06FEFC4
:105AC0007FEF90E080E00E9489360E947D0C83E0A9
:105AD00090E00E944D360E9491141092C8068FEFFC
