:100000000C9488030C94CF030C94CF030C94CF036F
:100010000C94CF030C94CF030C94CF030C94CF0318
:100020000C94CF030C94CF030C9444270C9400271A
:100030000C943F280C94CF030C94CF030C94CF0363
:100040000C94CF030C94CF030C94CF030C94CF03E8
:100050000C94CF030C941B280C94CF030C94CF0367
:100060000C94CF030C94CF030C94CF030C94CF03C8
:100070000C94CF030C94CF030C94CF030C94CF03B8
:100080000C94CF030C94CF030C94CF030C94CF03A8
:100090000C94CF030C94CF030C94CF030C94CF0398
:1000A0000C94CF030C94CF030C94CF0305010902E9
:1000B000A10185020901A100050919012905150001
:1000C00025019505750181029501750381010501E1
:1000D000093009311581257F950275088106093897
:1000E0001581257F950175088106050C0A380215D2
:1000F00081257F950175088106C0C005010980A191
:1001000001850319012AB700150126B7009501756D
:10011000108100C0050C0901A101850419012AA064
:1001200002150126A002950175108100C005010984
:1001300006A1018505050719E029E71500250195A8
:1001400008750181020507190029EF1500250195A1
:10015000F0750181020508190129059505750191C0
:1001600002950175039101C00660FF0961A10109B3
:1001700062150026FF0095207508810209631500AD
:1001800026FF00952075089102C005010906A1010E
:10019000050719E029E71500250195087501810279
:1001A0009501750881010507190029FF150026FF33
:1001B0000095067508810005081901290595057542
:1001C000019102950175039101C00000000000003B
:1001D000000000000000000000000000000000001F
:1001E00000000000000000000000000000007E0F82
:1001F00000D4FFFFFFC700000078000000000000EF
:1002000000002A2B28000000000000000000000071
:10021000000000000029000000002C1E34202122D4
:1002200024342627252E362D3738271E1F2021223D
:10023000232425263333362E37381F0405060708B6
:10024000090A0B0C0D0E0F101112131415161718A6
:10025000191A1B1C1D2F3130232D350405060708E4
:10026000090A0B0C0D0E0F10111213141516171886
:10027000191A1B1C1D2F3130354CFD377A585A0086
:100280000004E6D6B4460200210116000000742FD7
:10029000E5A3E0028E011A5D003D8889C65436C38D
:1002A000174FE4E2A4210AE132892B7209DFEE172D
:1002B0001C5BACD9BBE7441CDCB1C12EF110015969
:1002C00018129BB87423356097A5BCF5BA530A4A37
:1002D0006A10E0C781BF08A9EA75A34CCF495498BA
:1002E0005B5F0B9CF68DB6C66182779D906407A21A
:1002F000F6A65D43DCE082A96099B361ABB14C5BCB
:1003000089E28F63697DB684E80975FC083616C8F2
:10031000288E9C54820E1CFB1A207A788EB4899702
:100320008DAB41B3AE8DA3D2897B45F0277DBF4213
:1003300037AC5C418A7A9CD0D4DE0181C0182D0292
:10034000053FF64212323E96AFF8232683B3A53A14
:10035000DCD84A06837A37BA0CDC5C065B79C64B7C
:10036000EDEE9C190E956A37519A43EFBFA46F3793
:100370007B3F8BD624B1CBD7CCDB40180B6F2F0E35
:10038000A26B28E6614D23F64CACDC2804289D972F
:10039000CFDE56A122213298BD6E2B9BD10645C9D6
:1003A00060F1832F9F03C0439E92DAF7FE2AC5F2C5
:1003B000DFB600000000C8D7D30A734132930001B2
:1003C000B6028F0500005313F7C6B1C467FB0200E5
:1003D00000000004595A1E001F00200021002200C6
:1003E00023000000000000000000000000002900C1
:1003F00014001A000800150017001C0018000C005B
:10040000120013002A00E000040016000700090093
:100410000A000B000D000E000F0034002800E10060
:100420001D001B0006001900050011001000360019
:1004300037003800E5002B00E300E20000002C004C
:100440000000015100000251500051004F00010016
:100450000100010001000100010000000000000097
:1004600000000000000035021E001F0020002100D7
:100470002200230024002500260027004C00010054
:100480002D002E00330001002F0230022100220037
:1004900023003400010001000100010001000100FF
:1004A0000100010001006B006C00380064000100D5
:1004B0000100010000000100000001000000010037
:1004C0006D006E006F0001000100010001000100DD
:1004D00001000000000000000000000000003A00E1
:1004E0003B003C003D003E003F0040004100420018
:1004F000430044004500010001000100010001002B
:1005000001000100010001000100010001000100E3
:1005100001000100010001000100010001000100D3
:1005200001004B0001000100035101000000010027
:1005300000000100000001004A004E004D000100D3
:1005400001000100010001000100000000000000A6
:1005500000000000000007001100145CC25C0100F4
:10056000010001000100010001000100005C3900F0
:100570000100680069006A0001000100010001003B
:100580000100010001000100010001000100010063
:100590000100010001000100010001000100010053
:1005A0000100010000000100000001000000010046
:1005B000010001000100010001001504000002001B
:1005C00002001104000003000100160400000400F2
:1005D0000200FB037F06050001001704000006006F
:1005E0000200FD03000007000200130400000800E1
:1005F00001001804000009000200FF035A060A0067
:10060000020001045A060B00020003045A060C0003
:10061000020005045A060D00020007045A060E00E7
:10062000020009045A060F0002000B045A061000CB
:1006300002000D045A06110002000F045A061200AF
:10064000020019040000130002001B04000009024C
:100650005B00030100A0FA0904000001030101008E
:100660000921110100012240000705810308000152
:100670000904010002030000000921110100012208
:100680002200070582032000010705030320000163
:1006900009040200010300000009211101000122E8
:1006A000BC000705840320000112010002000000C5
:1006B000088C5403000100010203011C0376006949
:1006C0000061006C003A00660036003400630032BE
:1006D00000620033006300000010034D0065006DF0
:1006E000006F0072006900610000001E034D006190
:1006F00000790061006E006F0020005300680069FF
:10070000006E006B00610069000000040309040032
:1007100011241FBECFEFDAE0DEBFCDBF04B603FE6B
:1007200027C08091610490916204A0916304B0910C
:1007300064048730904BA740B04BD1F41092610411
:1007400010926204109263041092640414BE84B781
:10075000877F84BF0FB6F894A89580916000886168
:1007600080936000109260000FBEE0E0F8E309950E
:1007700011E0A0E0B1E0E0E1FFE502C005900D92DC
:10078000A437B107D9F724E0A4E7B1E001C01D9276
:10079000A136B207E1F70E9466280C94542F0C94FE
:1007A0000000E8EDF0E080818E7F80831092E2000F
:1007B0001092DA001092E100A0EEB0E08C9181601E
:1007C0008C9380818F77808319BCA7EDB0E08C91EA
:1007D0008E7F8C9380818F7E808310923104089568
:1007E0002091E4003091E50095E6A9012091EC000C
:1007F000822F817020FF06C08091E80080FF06C034
:1008000080E008952091E80022FD1AC080915604EE
:10081000882389F0853089F08091EB0085FD0FC039
:100820002091E4003091E50042175307F9F291500E
:10083000E1F684E0089582E0089583E0089581E080
:100840000895EF92FF920F931F93CF937C018B013A
:100850000E94F003C82F811117C08091E80085FD28
:100860000BC08091E8008E778093E8000E94F0032F
:10087000882399F3C82F08C0F70181917F018093E5
:10088000F1000150110949F78C2FCF911F910F9161
:10089000FF90EF9008958091580487FF13C08091D6
:1008A000E80082FF06C08091E8008B778093E80023
:1008B00004C0809156048111F2CF089580915604AE
:1008C0008823D9F38091E80080FFF8CF8091E80079
:1008D0008E77ECCF982F9093E900242F762F50E05D
:1008E000891731F07091EC002091ED005091F000EB
:1008F00021FD07C09F5F973071F78093E90081E089
:1009000008953091EB003E7F3093EB003091ED0085
:100910003D7F3093ED003091EB0031603093EB0080
:100920007093EC002093ED005093F0002091EE00C6
:1009300027FDE0CF80E00895CF92DF92EF92FF9203
:100940000F931F93CF93DF93C8EDD0E088818F7E04
:100950008883E7EDF0E080818160808384E082BF5E
:1009600081E08093310488818E7F888302EE10E0DD
:10097000F80110821092DA0081EEC82ED12CF60117
:10098000108288818F7788838881806888838881B6
:100990008F7D888319BC10925604109257041092D0
:1009A00055041092540490EEE92EF12CF701808149
:1009B0008B7F808388818160888342E060E080E073
:1009C0000E946A04F60180818E7F8083F801808115
:1009D00081608083808188608083F70180818E7F41
:1009E0008083888180618883DF91CF911F910F91EF
:1009F000FF90EF90DF90CF900895FC0180915E040E
:100A000090915F0486179707A0F06115710529F48E
:100A10009091E8009E779093E80090E06115710551
:100A200051F4911108C08091E80082FF34C080E049
:100A30000895BC01F2CF809156048823C1F185301E
:100A4000C1F18091E80083FD30C08091E80082FD13
:100A5000EACF8091E80080FFE1CF8091F300209100
:100A6000F200382F6115710519F02830310558F062
:100A700091E02830310509F090E02091E8002E77D0
:100A80002093E800CBCF81918093F10061507109F0
:100A90002F5F3F4FE7CF80915604882341F0853088
:100AA00041F08091E80083FFBECF81E0089582E0AD
:100AB000089583E008958091330408959C014FB711
:100AC000F8948091280490912904A0912A04B0916F
:100AD0002B044FBF821B930B08952FB7F89480917E
:100AE000280490912904A0912A04B0912B042FBFCF
:100AF0000895209119012223C9F020912C0427FF89
:100B000015C0E62FE695E695E695EE31D8F4E80FA8
:100B1000F92FF11D677021E030E001C0220F6A95C6
:100B2000EAF720958281282322830895FC013296DA
:100B300008962191621303C0DF0111971C92E817F8
:100B4000F907B9F70895209119012223C1F02091E6
:100B50002C0427FF14C0E62FE695E695E695EE31C6
:100B6000F8F4E80FF92FF11D677021E030E001C0C3
:100B7000220F6A95EAF78281822B82830895FC0115
:100B800032962FEF30E04191641751F02F3F19F466
:100B9000411101C0232F3F5F3630A9F72F3F09F4E1
:100BA0000895820F911D27FD9A95FC016283089597
:100BB00020912504309126042817390771F090936D
:100BC000260480932504E0912304F09124043097B7
:100BD00021F00084F185E02D0994089520912104ED
:100BE000309122042817390771F0909322048093E2
:100BF0002104E0912304F0912404309721F0068031
:100C0000F781E02D09940895E0912304F0912404E4
:100C1000309721F00190F081E02D099480E0089553
:100C2000452B39F0682381E06F3F09F080E0817047
:100C3000089581E0FCCFDC0160914303809144037F
:100C4000962F891301C00895292F30E0F901EE0F86
:100C5000FF1FE55CFC4F408151814A175B07A1F4FF
:100C600087E08A9FA0018B9F500D11244D5F5C4F40
:100C700081E0FA0184839613E6CF2F5F3F4F237004
:100C800033272093430308952F5F3F4F922F937094
:100C9000D8CF1092A00210929F02E3E0F3E085818A
:100CA000811102C014821682379683E0EB33F80775
:100CB000B1F70895EBEFF3E0848195812AE030E00D
:100CC000B9010E949F2E60931401868180931301C5
:100CD0008285809312018485809311018685978592
:100CE000B9010E949F2E60931001808980930F01AB
:100CF000828980930E01848980930D0108958091EB
:100D0000FB039091FC0390931701809316010895C3
:100D10000E946D059C019091320280913302982BC4
:100D200021F030932F0220932E0290913402809173
:100D30003502982B21F030932D0220932C02E09164
:100D40002304F0912404309749F082E0809330022C
:100D50000480F581E02D80E392E00994089590915C
:100D60003202803F59F48091330287FF0DC0109208
:100D7000330291110BC010922A0208C0813F81F406
:100D80008091330218169CF3992381F080913402EC
:100D900090913502892B09F064C0109229020895C0
:100DA000823F49F497FFF0CF1092320280913302D4
:100DB0008111ECCFE0CF833F19F41916ACF3E4CFE7
:100DC00020913402893F29F41216F4F6109234026D
:100DD000DBCF8A3F19F427FFD7CFF8CF2091350218
:100DE0008B3F29F427FFD0CF10923502CDCF8C3F17
:100DF00019F41216CCF3C8CF843F31F4809131023C
:100E00008E7F80933102C0CF853F21F480913102E3
:100E10008D7FF7CF863F21F4809131028B7FF1CF18
:100E2000873F21F480913102877FEBCF883F21F407
:100E3000809131028F7EE5CF8D3F31F480912B027E
:100E40008E7F80932B02A0CF8E3F21F480912B02C6
:100E50008D7FF7CF8F3F09F097CF80912B028B7F4B
:100E6000F0CF089580912B0280FF0CC060910E019D
:100E700070E075956795759567956115710549F1F0
:100E8000862F089581FF06C060910E0170E0759570
:100E90006795F3CF60910E0182FD0BC090912902FE
:100EA0009923A1F060910D0180910E01961738F001
:100EB000682F70E06038710500F38FE70895899F0F
:100EC000C001112470E00E94B32EF4CF61E070E005
:100ED000D7CF81E0089580912B0260910304709137
:100EE000040480FF16C020911201269FC001279F95
:100EF000900D1124BC0176956795769567956038BD
:100F0000710508F043C06115710509F441C0862FD1
:100F1000089581FF0BC020911201269FC001279FD9
:100F2000900D1124BC0176956795E9CF82FF09C029
:100F3000809112019B01829FB001839F700D11244B
:100F4000DECF20912A022223D1F2909111018091CB
:100F50001201482F50E0291748F0CB01849FB001BF
:100F6000859F700D949F700D1124C9CF289F90010B
:100F70001124269FA001279F500D369F500D11244C
:100F8000692F70E0CA010E949F2EB9CF8FE70895A4
:100F900081E00895803F31F40E946B078195809332
:100FA00033020895813F19F40E946B07F8CF823F06
:100FB00031F40E946B078195809332020895833F3C
:100FC00019F40E946B07F8CF893F29F40E94320779
:100FD0008093340208958A3F21F40E94320781955C
:100FE000F7CF8B3F31F40E94320781958093350211
:100FF00008958C3F19F40E943207F8CF843F31F4F2
:10100000809131028160809331020895853F21F4FF
:10101000809131028260F7CF863F21F480913102C6
:101020008460F1CF873F21F4809131028860EBCF5B
:10103000883F21F4809131028061E5CF8D3F31F40A
:1010400080912B02816080932B0208958E3F21F4C2
:1010500080912B028260F7CF8F3FB9F780912B02EE
:101060008460F1CF80E00895F894E82FE295EF7066
:10107000F0E031A1282F2F7081E090E001C0880FAF
:101080002A95EAF7982F9095932391A392A1892B03
:1010900082A37894089590912C0492FF06C0282F83
:1010A00028712830F9F4877F846093FF06C0282FC9
:1010B00028712831F1F4877E846120912D0420FF6E
:1010C00006C0382F38713830D9F4877F816021FF0E
:1010D00006C0282F28712831D1F4877E816194FDC4
:1010E000877E0895282F24712430F9F68B7F88603D
:1010F000DCCF282F2471243101F78B7E8861DDCF6E
:10110000382F3171313019F78E7F8860E0CF282F6A
:101110002171213121F78E7E8861E1CFCF93DF935A
:10112000EC0182389105A9F1D8F58133910509F4D4
:1011300096C048F58932910509F48AC08A9709F466
:1011400095C0C11521E5D20708F0BCC0C11530E536
:10115000D30708F014C1C83ED10508F09CC0C03EBA
:10116000D10560F5C83AD10508F087C0C53AD10568
:1011700008F0FDC0C130D10509F12097F9F0C43065
:10118000D105E0F440C08533910509F45AC0C997F0
:10119000C1F680912C04837089F0C0EED0E00EC0BF
:1011A000833E910599F170F4803E910501F1823EF4
:1011B000910539F680912C0482FD21C0CE01DF918A
:1011C000CF910895863E910561F1873E910571F1B9
:1011D000843E910509F0B5CF80912D0481FFEECFBB
:1011E00080912C04C7EED0E084FD0DC0E7CF809144
:1011F0002C0480FD12C190912D0490FFDFCFC3EE2F
:10120000D0E084FFDBCFD0E0C0E0D8CF80912C04C9
:1012100082FD06C190912D0490FDBFCF84FFCECFFB
:10122000F2CF80912C0483FDDDCFC8CF80912C04B8
:1012300083FDF9C090912D0491FFF0CFC4EED0E072
:10124000BDCF80912C0485FFB9CFC9E2D0E0B6CFE5
:1012500080912C0485FFB2CFC5E3D0E0AFCF809161
:101260002C0486FFABCFCAE2D0E0A8CF80912C043B
:1012700086FFA4CFC1E3D0E0A1CFCF3BD10518F6C4
:10128000C85AD0E0CC0FDD1FCB5DDE4F0990D8816E
:10129000C02DD46493CFC11540E2D40758F4C115D2
:1012A00081E0D80708F08ACFC03FD10508F4ABCF62
:1012B000D06584CFC11590E4D90708F4A4CFDF70BE
:1012C000D06A7CCFC11525E5D20700F5C11534E5FC
:1012D000D30708F08AC0C11543E5D40708F071C0F0
:1012E000C11582E5D80708F467C0CE01837099273D
:1012F00021E030E002C0220F331F8A95E2F7C69545
:10130000C69580E2C89FE001112452C0C11599E53D
:10131000D907A8F4C11528E5D20708F06BC0C1159C
:1013200036E5D30708F06FCF8C2F0E944B08C82FEB
:10133000D0E0DC2FCC27CC27DF71D0623FCFC115A6
:101340004AE5D40708F45BC0CE019056811590425F
:1013500008F059CF8D2F8F710E944B0890E0982F85
:10136000882788279F719C012C2BE901E6CFC55A5D
:10137000D0E0CE5DDE4FC881D0E0D0641FCFCE017B
:10138000E4E096958795EA95E1F783702C2F2695F2
:101390002695237040E2249F90011124382B8C2F36
:1013A0008370C1E0D0E002C0CC0FDD1F8A95E2F768
:1013B000C22BD32BDC6802CFDC2FCC27C16FD06AC5
:1013C000FDCECE018370992721E030E002C0220FCC
:1013D000331F8A95E2F7C695C69590E2C99FE00152
:1013E0001124C22BD32BDA68E9CEDC2FCC27C46FB3
:1013F000D06AE4CEDC2FCC27C06FD06ADFCE8C2F32
:101400008F700E944B0834E0D695C7953A95E1F766
:10141000CF709C2FEC01D069D1CEC9E3D0E0CECE05
:10142000C2EED0E0CBCEC6EED0E0C8CE80910202B4
:10143000882331F0109202021092010210920002F1
:10144000089580959091FA0398239093FA03089554
:1014500080959091470398239093470308951092A5
:10146000FE011092FD011092FC0108958091FD0390
:101470009091FE03892B89F00E946D052091000256
:1014800030910102AC01421B530B81E02091FD031E
:101490003091FE034217530708F480E081700895ED
:1014A000809147039091FA03892B9091FF01892B3A
:1014B0008093760180910202882319F18091FD03C7
:1014C0009091FE03892B29F00E94360A81110E9417
:1014D000160A8091760190910202892B8093760101
:1014E00080911901882341F180912C0487FF24C049
:1014F0008EE1E8E7F1E090E0815000F591110E9463
:10150000160AE0912304F09124043097E1F08091D1
:101510001901882359F080912C0487FF07C080911E
:1015200076018093770185E0809376010280F381D4
:10153000E02D86E791E0099486E0DBCF219122231C
:10154000D9F29F5FD9CF0895EF92FF920F931F9327
:10155000CF93DF93EC018A85811134C0EB80FC804E
:1015600087E5F81A26E12E9DC0012F9D900D1124CC
:10157000DC01A65BBC4F1496ED91FC91159730975A
:1015800031F054966D917C91805B9C4F099586E17A
:101590008E9D80018F9D100D1124065B1C4FF8015C
:1015A00087810E94280AF80180850E94210A0E94F2
:1015B000500A188219861B861E821D8210924903CA
:1015C00010924803DF91CF911F910F91FF90EF9000
:1015D0000895CF93DF93EC01898981111BC081E0CD
:1015E000898B809147039F81892B8093470380914A
:1015F000FA039885892B8093FA030E94500AEA81A6
:10160000FB81309739F06C897D89CE010696DF9198
:10161000CF910994DF91CF9108958091FB018111C1
:101620001092FB0108952091FA019091B9012913BC
:1016300002C080E0089530E0F90153E0EE0FFF1F93
:101640005A95E1F7E654FE4F5181561306C050817A
:10165000581303C05281541304C02F5F3F4F2770AB
:10166000E6CF81E008958091FA019091B901981335
:1016700001C008958F5F8770FACF9E3F49F1E82F30
:101680002CE0929FE00D11249E2F9770E695E69531
:10169000E69583E0E89FF0011124E756FE4F50E005
:1016A00040E080E0219130E0092E02C03695279578
:1016B0000A94E2F721703327042E01C0220F0A9406
:1016C000EAF7822B4F5F5F4F4330510559F708957A
:1016D00080E008959E3F69F1E82F2CE0929FE00D95
:1016E00011248E2F877041E001C0440F8A95EAF7DC
:1016F000E695E695E69583E0E89FF0011124E7562C
:10170000FE4F30E020E070E05191DF011197CB01F6
:10171000022E02C0969587950A94E2F78170819512
:101720008527842385278C932F5F3F4F23303105F6
:1017300059F70895E92FE295EF70E250EE3070F41A
:10174000F0E0EA5AF04D0C94C72E803F19F020F4D7
:10175000883E20F481E00895843FE1F380E008951D
:10176000883EC0F3813FD1F7F5CF93FB882780F9FE
:10177000089590E080E00E94EE0590E080E00E94F5
:10178000D8051092FA031092FF010E94500A86E0D9
:10179000E0E3F2E0DF011D928A95E9F710922A0258
:1017A0001092290210922B020C9488068093030257
:1017B0000C94B90B882321F00E94210A0C94500A42
:1017C0000895882339F09091FA03982B9093FA03A7
:1017D0000C94500A0895882321F00E94280A0C9442
:1017E000500A0895882339F090914703982B9093DD
:1017F00047030C94500A0895882379F19CEF980FC1
:10180000913A38F4682F86E791E00E9479050C94AC
:10181000500A90E2980F983050F4877091E001C020
:10182000990F8A95EAF7892F0E94280AF0CF9BE545
:10183000980F933020F490E080E00C94EE0598E54A
:10184000980F973120F490E080E00C94D805803F09
:1018500020F00E94AF060C9488060895CF93C82FFD
:10186000882309F46FC08CEF8C0F813AC0F580910A
:101870001901882311F180912C0487FF1EC0EC2FE1
:10188000E695E695E695F0E0EA58FE4F828190E015
:101890004C2F477021E030E002C0220F331F4A95E1
:1018A000E2F782239323892B91F06C2F86E791E056
:1018B0000E9479050E94500A0AC0E8E7F1E08EE72D
:1018C00091E02191C21789F38E179F07D1F76C2FF2
:1018D00086E791E00E94A305CF910C94500A80E224
:1018E0008C0F883068F4C77021E030E001C0220F0F
:1018F000CA95EAF780914703822B80934703ECCF88
:10190000EBE5EC0FE33040F4F0E0EE5DFE4F80815C
:1019100090E0CF910C94EE05E8E5EC0FE73150F440
:10192000F0E0EE0FFF1FEB5DFE4F80819181CF91C4
:101930000C94D805C03F30F08C2F0E94CA07CF917D
:101940000C948806CF910895982F92959F7011F06E
:10195000892F94E0282F2695269511F09E5F822FDF
:10196000869509F09F5F892F08959C013A9521156E
:101970003F4150F5FC01EE27F170BC016627727003
:10198000AC01442754709C012227387094FF0EC08C
:1019900080E1EF2B09F480E0672B09F08062452B92
:1019A00009F08064232B89F08068089581E0EF2B93
:1019B00009F480E0672B09F08260452B09F0846010
:1019C000232B19F08860089580E00895CF93C82FE5
:1019D0007698889889980E94A40C823041F08330D0
:1019E00041F0813009F4769A8C2FCF910895889A2E
:1019F000FBCF899AF9CF0E94E60C809360040C9487
:101A0000B90B80916004982F9670963019F4886015
:101A10000C94FB0C877FFCCF21E030E001C0220F4B
:101A20008A95EAF720958091600482230C94FB0C40
:101A30009091FE01809589238093FE01282F2770C5
:101A400039F4282F082E000C330B9217130621F4BB
:101A500090912D0492FF07C08595859585950E94EC
:101A60000C0D0C942F0A089521E030E001C0220FE4
:101A70008A95EAF780916004822B0C94FB0C90917C
:101A80002D0492FD10C098E0899F90011124622BD3
:101A90006093FE010E94340D0E946D059093FD013C
:101AA0008093FC0108950C94340D90915604943069
:101AB00029F580932E047093300460932F04909343
:101AC000E9008FEF9091E800815095FD06C095EDFB
:101AD0009A95F1F700008111F5CF8091E80085FF1C
:101AE0000DC050E040E063E070E08EE294E00E94C0
:101AF00021048091E8008E778093E8000895BC016E
:101B000084E00C94550DBC0183E00C94550D9C01B0
:101B100084E08093E9009FEF8091E800915085FD7B
:101B200006C085ED8A95F1F700009111F5CF8091FF
:101B3000E80085FF0CC050E040E066E070E0C901BD
:101B40000E9421048091E8008E778093E800089538
:101B5000CF93DF93EC01809119018823B1F180913B
:101B60002C0487FF32C060E284E08093E9008FEFAD
:101B70009091E800815095FD06C095ED9A95F1F79A
:101B800000008111F5CF8091E80085FF1BC0809196
:101B9000190170E050E040E0811104C050E040E0E5
:101BA00068E070E0CE010E9421048091E8008E7709
:101BB0008093E80080E2FE01A4E3B4E001900D927E
:101BC0008A95E1F7DF91CF91089568E081E0CDCF6C
:101BD00081E08093E00080E28093D8001092C900F9
:101BE0008FE19EE40197F1F700C0000087E090EBE1
:101BF000DC018093610490936204A0936304B0932A
:101C0000640488E19CE00FB6F894A8958093600086
:101C10000FBE90936000FFCF019708F40895EFE99D
:101C2000FFE03197F1F700C00000F6CFFF920F936D
:101C30001F93CF93DF938C01EB01F42E8091180159
:101C400082FF43C08B7F8093180180911D042091F7
:101C50001F0430912004AB01421B530B9A014091A9
:101C600016015091170124173507A8F40E942E0C75
:101C7000809118018D7F80931801809119049091B3
:101C80001A040E940C0E80911D040E94FC0B82E03D
:101C90000E94210A24C09091FA0392609093FA0363
:101CA0000E942E0C8091180182608093180180910F
:101CB000160485FFE2CF86FDE0CFFF20F1F2DF9131
:101CC000CF911F910F91FF900895802F0E94FC0BE0
:101CD00080911D0490911E0480179107C1F20E940B
:101CE000500AD0932004C0931F04E9CF1F93CF93D1
:101CF000DF93182FC0911B04D0911C04893321F06D
:101D0000C0911904D0911A04812F0E942E0C2097A3
:101D100031F4812FDF91CF911F910C94FC0B8FE94F
:101D20009FE00197F1F700C000002197F0CF0F93DB
:101D30001F93CF93DF93C42FD22FFC01828188237E
:101D4000A1F040939E020E946D0590939D028093A6
:101D50009C02C77081E001C0880FCA95EAF7DF9145
:101D6000CF911F910F910C94F20B10919E021413BE
:101D700039C080919C0290919D020E945E05209145
:101D80001304309114048217930760F5C0E2CD0F5D
:101D90001D17B9F080E2810F883040F4177081E0A0
:101DA00001C0880F1A95EAF70E94EB0BC83048F47F
:101DB00081E09D2F977001C0880F9A95EAF70E94E5
:101DC000F20B802F0E94760EC83098F4D77081E015
:101DD00001C0880FDA95EAF7DF91CF911F910F913B
:101DE0000C94EB0BC77081E001C0880FCA95EAF72D
:101DF000F3CFDF91CF911F910F910895AF92BF92D2
:101E0000CF92DF92EF92FF920F931F93CF93DF93C6
:101E1000EC018AE0A82E2881222309F48CC021300D
:101E2000C9F599818A81913021F422960E94760E1B
:101E300005C0923029F422960E942E0C2196EBCFF9
:101E4000933021F422960E94FC0BF8CF943011F0CD
:101E50002196F4CF229630E020E0AE014F5F5F4F35
:101E60008053990B8A30910550F02150310930F39D
:101E70008FE99FE00197F1F700C00000F6CFA29E26
:101E8000B001A39E700D11249C01260F371F89817C
:101E9000EA01E3CFE22FF0E0E650FE4FB490822F4C
:101EA00086958695869590E0FC01E651FE4FE4907C
:101EB0002770F12C022E02C0F594E7940A94E2F701
:101EC00031E0E322FF24FC01E652FE4FC490D12C06
:101ED000022E02C0D594C7940A94E2F731E0C322DF
:101EE000DD24FC01E653FE4F049110E002C015957D
:101EF00007952A95E2F701701127E114F10419F012
:101F000081EE0E942E0CC114D10419F086EE0E94BD
:101F10002E0C8B2D0E94760ECD2819F086EE0E9495
:101F2000FC0BEF2819F081EE0E94FC0B012B09F449
:101F300085CF8CE27BCFDF91CF911F910F91FF90E6
:101F4000EF90DF90CF90BF90AF9008950F931F93C5
:101F5000CF93DF930BEF13E0C7E0D2E0CE010E94F6
:101F60000A2FF80181938F012196C932F2E0DF0731
:101F7000A9F7CCEBD5E0FE0185919491009711F083
:101F8000FC0109952896F6E0C435DF07A1F7DF913B
:101F9000CF911F910F9108950F931F93CF93DF93CC
:101FA000843030F5653020F54C3010F5C42FD0E08A
:101FB000CC0FDD1F28E1629FC00DD11D112438E731
:101FC000839FC00DD11D1124CE0187960E940A2F38
:101FD000082F10E0102F0027CE0188960E940A2FAC
:101FE0009801282BC901DF91CF911F910F9108957E
:101FF00090E080E0F8CF462F20919A0230919B022A
:10200000232B91F47E3F39F46E3F71F48091980256
:10201000909199020895843038F4753028F46C302A
:1020200018F4672F0C94CC0F90E080E00895CF92C5
:10203000DF92FF920F931F93CF93DF936C01009178
:10204000600480910302082BC7E0D0E010E0FC2E72
:10205000C8010C2E02C0959587950A94E2F780FD81
:102060000CC02197A0F7F12C8F2DDF91CF911F91FC
:102070000F91FF90DF90CF900895B6018C2F0E94B2
:10208000FB0F0E948E08019761F3EECFCF93DF9391
:10209000EC010E941710BE010E94FB0FDF91CF914F
:1020A0000C948E08FC0186819781009721F00E9494
:1020B0008E080C949A0B808191810E944610F9CF72
:1020C0001F93CF93DF9300D000D00F92CDB7DEB730
:1020D00049835A8389819A816623B9F02223A9F022
:1020E0000E941710182F682F89819A810E946A0B0D
:1020F00069817A81812F0F900F900F900F900F9030
:10210000DF91CF911F910C94FB0F0E943D0B182F74
:10211000EFCFFC01262F86819781009739F440810B
:1021200051816281738184810C946010089583E2EF
:1021300090E00E940A2F873089F484E290E00E94A8
:102140000A2F813D59F485E290E00E940A2F91E028
:102150008F3109F090E0892F8170089580E0FCCFE5
:10216000CF9384E090E00E940A2FC82F82E290E093
:102170000E940A2F982F8C2FCF9108950F931F93B1
:10218000CF93DF930BEF13E0C7E0D2E0CE010E94C4
:102190000A2FF80161918F01681719F0CE010E9492
:1021A000182F2196C932F2E0DF0781F7DF91CF9136
:1021B0001F910F910895EBEFF3E0128E138E8FEACB
:1021C00090E09183808385E0848F88E893E1938316
:1021D00082834CE251E05583448322E330E037832D
:1021E000268385E090E0918780878AE090E093875E
:1021F000828764E170E0758764875787468744E685
:1022000050E0518B408B48E050E0538B428B48E2CA
:1022100050E0558B448B378B268B28EC30E0318F88
:10222000208F158E978F868F80E590E091A380A3F5
:102230000E94BE100C94A60FCF93DF93C9ECD2E09E
:1022400060E0CE010E94182F2196C11584E0D807C6
:10225000B9F7DF91CF9108950F931F93CF93DF9339
:102260008901843048F5653038F54C3028F5211562
:102270003C4531F420910B0130910C01232BE1F00E
:10228000C42FD0E0CC0FDD1F98E1699FC00DD11D98
:10229000112498E7899FC00DD11D1124612FCE0113
:1022A00087960E94182F602FCE018896DF91CF91DC
:1022B0001F910F910C94182FDF91CF911F910F91C7
:1022C0000895CF93C82F6FEF811167E083E290E00C
:1022D0000E94182F6FEFC11161ED84E290E00E941F
:1022E000182F6FEFC1116FE185E290E0CF910C9450
:1022F000182FCF93C0912D04C2FB992790F99817FE
:1023000081F080FBC2F9C0932D0460912C0484E01D
:1023100090E00E94182F6C2F82E290E0CF910C94F5
:10232000182FCF9108957F928F929F92AF92BF9274
:10233000CF92DF92EF92FF920F931F93CF93DF9391
:10234000CDB7DEB764970FB6F894DEBF0FBECDBF32
:10235000A0900B01B0900C0181E090E090930C01F3
:1023600080930B0186EDC82E83E0D82E00E0760125
:1023700010E015C0F40125913491472D612F802F75
:102380000E942C1182E0880E911C7394ECE07E1266
:10239000F1CFF8E1EF0EF11C1F5F153019F0470186
:1023A000712CE8CF0F5F88E7C80ED11C0430F9F616
:1023B0000E94DB101A8219821C821B821E821D82DF
:1023C00018861F8288EC90E09A87898709E212E0DC
:1023D0004AE050E0B801CE0101960E943C2F065F12
:1023E0001F4F0937E2E01E0799F77E01FBE0EF0E71
:1023F000F11C8AE0F70111928A95E9F74AE050E072
:10240000B801C7010E943C2F065F1F4F093CF2E054
:102410001F07A1F7B0920C01A0920B0164960FB6B2
:10242000F894DEBF0FBECDBFDF91CF911F910F910A
:10243000FF90EF90DF90CF90BF90AF909F908F90E4
:102440007F90089580E00E94611160E086E290E054
:102450000E94182F0E9493110E941C1181E00C947D
:1024600061119B01883070F49AE0899FB0011124BA
:10247000675D7D4F4AE050E0C9010E94FA2E90E06E
:1024800080E008958FEF9FEF08958F929F92AF9213
:10249000BF92CF92DF92EF92FF920F931F93CF9351
:1024A000DF93CDB7DEB72A970FB6F894DEBF0FBE25
:1024B000CDBF0AE413E0F12CE12C8AE5C82E86E2B8
:1024C000D82E94E8A92E96E2B92E2AEA822E25E289
:1024D000922EF801D182C082B382A2829582848238
:1024E000F58AE48ABE016F5F7F4F8E2D0E94311204
:1024F000892B29F489859A85F801938B828BFFEFCC
:10250000EF1AFF0A0A5E1F4F88E0E816F10409F788
:102510002A960FB6F894DEBF0FBECDBFDF91CF91E4
:102520001F910F91FF90EF90DF90CF90BF90AF90F1
:102530009F908F900895CF92DF92EF92FF920F932A
:102540001F93CF93DF93CDB7DEB72A970FB6F894DA
:10255000DEBF0FBECDBFE8E4F2E080E5DF011D92F3
:102560008A95E9F7E3E0F3E088E3DF011D928A95BD
:10257000E9F788E4C82E82E0D82E7F0109E712E04F
:10258000F701D182C0824AE050E0B801CE01019645
:102590000E94FA2E88E0FE013196D60101900D923C
:1025A0008A95E1F789859A85D70113969C938E9336
:1025B0001297BAE0CB0ED11CE7E0EE0EF11C065FDD
:1025C0001F4F093CF2E01F07D9F62A960FB6F89480
:1025D000DEBF0FBECDBFDF91CF911F910F91FF9056
:1025E000EF90DF90CF9008951092470380911901EA
:1025F000E8E7F1E0882359F080912C0487FF07C0B9
:102600008EE1DF011D928A95E9F70C94B90B86E003
:10261000F8CF1F93CF93DF93CDB7DEB7AA970FB64E
:10262000F894DEBF0FBECDBF88E594E02091F100A5
:10263000DC012D93CD01B4E080369B07B9F7809182
:102640005904833009F471C0B8F4813009F448C0EA
:10265000823009F4B2C08091E80083FF3AC18091D2
:102660005804909159049A3008F033C1E92FF0E0F2
:10267000EC59F04D0C94C72E8A3009F48DC08B3084
:1026800009F470C0893039F780915804813219F704
:1026900080915C0490915D04009711F00297D9F647
:1026A0008091E800877F8093E8008091E80082FFB6
:1026B00037C09091F3008091F200029729F4809145
:1026C000F1008B7F813021F48091F10080933304FD
:1026D0008091E8008B778093E8000E944B04BBCF89
:1026E00080915804813A09F0B6CF8091E800877F45
:1026F0008093E80080915C0490915D04892B61F4E3
:1027000060E284E394E070E00E94FD048091E800C0
:102710008B778093E8009FCF60E090E080E0F3CF7C
:10272000809156048111C1CF96CF80915804813A8F
:1027300009F091CF80915C0490915D04892B09F0A0
:102740008ACF8091E800877F8093E8008091E8003D
:1027500080FFFCCF809119018093F1008091E80007
:102760008E77B9CF80915804813209F074CF80916F
:102770005C0490915D04892B09F06DCF8091E80095
:10278000877F8093E8000E944B0480915A048093D5
:1027900019010E94F4125FCF80915804813209F030
:1027A0005ACF8091E800877F8093E8000E944B0415
:1027B00080915B04809332044ECF80915804813A1B
:1027C00009F049CF8091E800877F8093E8008091ED
:1027D000E80080FFFCCF80913204BECF803899F0B2
:1027E000823809F076C080915C048F70873008F0E1
:1027F00070C08093E9008091EB0085FB882780F909
:102800001092E90006C080915404909155049111F2
:1028100082609091E800977F9093E8008093F100A8
:102820001092F1008091E8008E77C0C1882309F4EE
:10283000ADC1823009F04DC080915A048111B1C1FF
:1028400080915C048F702FEF280F263008F041C074
:102850008093E9002091EB0020FFA3C1933031F475
:102860008091EB0080628093EB009BC19091EB0024
:1028700090619093EB0021E030E001C0220F8A9537
:10288000EAF72093EA001092EA008091EB0088605A
:10289000EACF81111EC010915A041F778091E30086
:1028A0008078812B8093E3008091E800877F80937C
:1028B000E8000E944B048091E80080FFFCCF8091EB
:1028C000E30080688093E30082E0111183E080934D
:1028D00056048091E80083FF0AC08091E800877F5A
:1028E0008093E8008091EB0080628093EB00AA96D1
:1028F0000FB6F894DEBF0FBECDBFDF91CF911F9111
:1029000008958058823028F720915A0430915B0452
:102910002C3DE3E03E07A1F583E08A838AE28983C8
:102920004FB7F894DE01139620E03EE051E2E32F2A
:10293000F0E050935700E49120FF03C0E295EF7060
:102940003F5FEF708E2F90E0EA30C0F0C7968D9316
:102950009D932F5F243159F74FBF8091E800877F07
:102960008093E8006AE270E0CE0101960E94FD04C7
:102970008091E8008B778093E800ABCFC096E7CFDB
:1029800080915C0490915D04432F5527433051059D
:1029900009F44AC078F54130510509F485C08BE54A
:1029A00090E0EEE4F6E04230510509F092CF20913C
:1029B000E800277F2093E80020915E0430915F04B7
:1029C0008217930708F49C0140E02115310509F0B6
:1029D00070C041116EC08091E80082FDC9CF809126
:1029E0005604882329F2853019F28091E80083FF8C
:1029F000F2CFBECF4132510509F447C042325105F2
:102A000009F067CF8330910508F063CFFC01EE0F2A
:102A1000FF1FE959FE4F0190F081E02D8C599E4F28
:102A2000DC018C9190E01DC0332721303105E9F0A5
:102A30002115310579F022303105F9F023303105C7
:102A400009F047CFEBEBF6E0E4918E2F90E0EBEB53
:102A5000F6E007C0EBE0F7E0E4918E2F90E0EBE0CA
:102A6000F7E0009709F435CFA2CFEBEEF6E0E49162
:102A70008E2F90E0EBEEF6E0F4CFE9EDF6E0E49196
:102A80008E2F90E0E9EDF6E0ECCF8330910508F071
:102A900020CF880F991FFC01E359FE4F0190F08170
:102AA000E02D89E090E083CF82E190E0E9EAF6E072
:102AB0007ECF80915604882309F45ACF853009F4DB
:102AC00057CF8091E80083FD53CF8091E80082FDCD
:102AD00082CF8091E80080FF78CF9091F3008091C1
:102AE000F2002115310519F08830910550F041E0D0
:102AF000089709F040E08091E8008E778093E80025
:102B000064CF44914093F1003196215031090196F0
:102B1000E8CF803809F0DDCE8091E800877F809390
:102B2000E800809157048093F1007CCE8111D1CED2
:102B300010915A04123008F0CCCE8091E800877FC3
:102B40008093E800109357040E944B04112311F066
:102B500084E005C08091E30087FDFACF81E0809397
:102B6000560442E061EC81E00E946A0442E261ECBA
:102B700084E00E946A0442E261EC82E00E946A04FE
:102B800042E260EC83E00E946A04A3CE80915A0482
:102B9000813009F09ECE81E0933009F080E080938F
:102BA00055041092E9008091E800877F8093E80047
:102BB0000E944B048ECE6AEE7EEF90E080E00E9491
:102BC000362F60E082E090E00E94182F60E083E002
:102BD00090E00E94182F1092030260E084E090E0E1
:102BE0000E94182F60E082E290E00E94182F60E0BF
:102BF00085E090E00E94182F60E086E090E00E945F
:102C0000182F6FEF87E090E00E94182F40E050E00F
:102C1000BA0188E090E00E942A2F60E08DE090E009
:102C20000E94182F40E050E0BA0188E190E00E9435
:102C30002A2F60E087E190E00E94182F40E050E0EA
:102C4000BA018CE190E00E942A2F70E060E080E2FF
:102C500090E00E94362F40E050E0BA0188E190E019
:102C60000E942A2F80E00E9461110E94221240E0FF
:102C700050E0BA018FE090E00E942A2F40E050E03F
:102C8000BA0183E190E00C942A2F8F929F92AF9229
:102C9000BF92CF92DF92EF92FF920F931F93CF9349
:102CA000DF9300D000D0CDB7DEB77C01DC011396F6
:102CB0004D915C91149711966C9111978C910E9493
:102CC0001006811174C061E0C7010E9489108C0157
:102CD000F7018281811111C0D70112968C91811167
:102CE00048C00031FFE51F0709F4E8C001312FE5B6
:102CF000120709F007C682E0E2C0809100018F3F11
:102D000059F35AE4C52E53E0D52EB12CA12C9924A9
:102D1000939480910001082E000C990B8A159B0555
:102D2000DCF2F60186818823E9F081859285081717
:102D3000190739F48091480390914903081719073E
:102D400089F0D6011F969C921F971C961C930E9398
:102D50001B97C6010E94E90AC60106960E94A40AB2
:102D60001092FA03BFEFAB1ABB0AE6E1CE0ED11CFC
:102D7000D0CF980122513F452031310508F0B8C528
:102D80008FEF93E00E940A2F4EEED42ED00E09EC66
:102D900012E0882349F18091FE01877041F0D7014C
:102DA00012968C91882319F082E00E94180D0F90E2
:102DB0000F900F900F90DF91CF911F910F91FF9087
:102DC000EF90DF90CF90BF90AF909F908F9008953D
:102DD0000115F4E01F07F9F2C8010E940A2F8111C2
:102DE00001C0DA940F5F1F4FD110F2CF19821A82FF
:102DF0001B821C82CC24CA9448012FEF821A920AAB
:102E0000C8010E940A2F89831A82882321F2813007
:102E100009F048C0580132E0A30EB11CC4010E9461
:102E20000A2F982E8A83882309F4B5CFC5010E9402
:102E30000A2FD82E8FEF890D833068F4580143E0B4
:102E4000A40EB11CDB82DD2021F0CE0101960E9490
:102E5000FE0E8501D1CF54E09512FBCF580184E0DE
:102E6000A80EB11CC80103960E940A2FDD2009F4A8
:102E700092CF882309F48FCF8150990BC89E90017F
:102E8000C99E300D1124AD2DA150BB0BCD01820F79
:102E9000931F0197F0F2EFE9FFE03197F1F700C0DF
:102EA0000000F7CFCE0101960E94FE0E5401D1CF53
:102EB00081E00E94340D0E94010D6DCF81E00E94DF
:102EC0000C0DF9CF82E0F5CF4FEFC416D10411F00D
:102ED00008F024C56EE372E08C2D0E943112892B1C
:102EE00029F586E18C9DF0018D9DF00D1124E65BA6
:102EF000FC4F8681813009F061C080913E02909143
:102F00003F02892B99F08091400290914102892BD8
:102F100069F08091420290914302209144023091E5
:102F20004502822B932B892B09F452C0809100011A
:102F3000082E000C990B8C159D0514F4C09200010D
:102F4000F701828196E19C9D50019D9DB00C11245A
:102F50009501265B3C4F6901D90150968C9350979F
:102F6000928116968C911697992309F43FC01A9670
:102F70001C930E9319978F5F16968C930E946D0584
:102F8000F601968785878091020287838091FA03F4
:102F900090914703892B80870190F081E02D309735
:102FA00041F0D60154966D917C91C501805B9C4F98
:102FB00009951093490300934803B0C4823009F087
:102FC000B5CF8091420290914302892B09F4AECF94
:102FD00026E12C9DC0012D9D900D1124865B9C4FF8
:102FE000DC0150961C920E94E90AA0CF882309F4C4
:102FF00095C4F9018189882309F490C4C501805BD7
:103000009C4F0E94A40A8AC4809118018160809319
:103010001801F7013281332309F4D9C410929E02BA
:103020000230FCE51F0708F406C506312CE512073F
:1030300030F0C8018A5F9C45099708F0FCC40E94E3
:10304000B01090932D0480932C0400313CE51307BD
:1030500009F473C108F006C108305CE5150709F4EE
:1030600062C108F0D5C004309CE5190709F453C1CA
:1030700008F0BBC00230BCE51B0709F446C18091D3
:103080002C04826003301C4509F442C160912C0479
:1030900010912D0484E090E00E94182F612F82E2AD
:1030A00090E00E94182F0E94F41275CE80911801B2
:1030B0008E7F8093180182E00E94210AAACF0933F3
:1030C000110560F40D32110520F40B32110509F0E1
:1030D0005FC48091160482FD5BC408C004361105EC
:1030E000C1F356C48091160484FD52C4D7011296D0
:1030F0008C91882309F445C08091180180FF48C451
:103100009091160491FD04C020914703211140C401
:1031100095FF26C096FD02C081FD22C020911F04AC
:1031200030912004F601E21BF30BE83CF105C0F4FA
:1031300020911D0430911E040217130789F481FDAC
:1031400009C0802F0E942E0C26CE8091160483FD8C
:103150001FC4CCCF8091FA0382608093FA03F1CF31
:1031600010931E0400931D04D0922004C0921F04EB
:103170008091180184608093180182E00E94180DEC
:103180000ACE40E0B601C8010E94160E04CE053FEB
:103190008CE51807F1F0B8F0063FACE51A0709F026
:1031A00038CF07E225EE46EE66EF7CE50CC407E279
:1031B00025EE45EE68ED7CE506C406E221EE40EE24
:1031C00063EF7CE500C407E225EE44EE64EF7CE5A6
:1031D000FAC306E221EE42EE65EF7CE5F4C308E2B5
:1031E00021E045EE69ED7CE5EEC380912C04806121
:1031F0000630FCE51F0709F48BC080912C04886021
:1032000007301C4508F484C080912C04806280C083
:1032100080912C048D7F0C303CE5130709F478C0B5
:1032200070F480912C048C600A305CE5150709F479
:103230006FC008F47CC080912C048E7F69C080919F
:103240002C04877F0E309CE5190709F461C080913A
:103250002C048B7F0F301C4508F45AC080912C043D
:103260008F7E56C00B3FBCE51B0709F458C030F5F4
:103270000331FCE51F0709F468C078F401313CE52F
:10328000130709F45EC002311C4509F0FFCE0E940D
:10329000F41280912C048F773BC005315CE5150753
:1032A00009F45BC008F46FC080912D0481600A3F6F
:1032B0001C4509F0EBCE80932D04E8CE0F3FACE522
:1032C0001A0709F446C088F480912D048D7F0D3FC4
:1032D000ECE51E0781F380912D048E7F0E3F1C4587
:1032E00050F380912D048360E6CF01302DE5120765
:1032F00009F452C0F0F160E002301D4509F0C6CE7D
:103300008EE090E00E94182FC1CE80912C04816045
:1033100080932C04BBCE80912C048460F9CF8091E3
:103320002D048260C8CF80912C048064F1CF0E946C
:10333000F41280912C048068EBCF80912C048F7D57
:10334000E7CF80912C048F7BE3CF80912C04837F87
:10335000DFCF80912D048C7FAECF80912C0482FB37
:10336000992790F921E0922790FB82F990FB83F94D
:10337000CFCF80912D04982F909591708E7F892BBF
:1033800090FB81F998CF0E94F41290912C04892F20
:1033900097FB87F98058BCCF61E0B2CF809196014E
:1033A00069E2811165E386E791E00E94790540C3F7
:1033B0000B35BDE51B0701F10C351D4509F04FC369
:1033C00080912D0482FB882780F991E089270E9453
:1033D000791145C30E94F412FFEF24E33CE0F15061
:1033E00020403040E1F700C000000E94E80D0E943C
:1033F000DB15D1CC81E0EBCF80E0E9CF8281008189
:103400001181882369F0C8010E941710D82E682FF7
:10341000C8010E946A0BB8018D2D0E94FB0F25C3C5
:10342000C8010E943D0BD82EF6CF202F2F70B22E50
:10343000802F807F19F0B29490EFB922CC20C9F090
:10344000BB2069F080E2810F883010F011110BC0B1
:1034500080914703B82AB09247030E94500A812FF7
:103460000E942E0C16C08091FA03B82AB092FA037B
:10347000F4CF812F0E94FC0BBB2059F080E2810F1A
:10348000883010F0111133C08B2D0E94280A0E9441
:10349000500AA92DA850BB0B149710F40E940406E3
:1034A000812F902F0E949A0B811103C210929801D4
:1034B00010929701AA20B1F08091FE0180FD12C008
:1034C000D70112961C928595859585950E94340D9D
:1034D000C7010E9445168091FE01859585958595C9
:1034E0000E940C0D60E0C7010E94891060CC8B2DFA
:1034F0000E94210ACCCF302F3F70B32E802F807FC7
:10350000803219F0B29480EFB822112321F11130EA
:1035100009F46DC0CC2009F476C0DD2009F448C060
:1035200020E0D7014C9111965C91119712966C9105
:10353000129713967C91139714968C910E946010A9
:103540008091180481FD8BCFF701858180FF87CFA3
:103550008F7085832DC0CC2069F1D11006C0809179
:1035600002028B290E94F20B94CF41E0D41213C0C7
:1035700080912D0482FD8DCF80910202B82AB81669
:1035800009F487CF0E946D05909301028093000299
:10359000B09202027ECF80911704823000F3D812DD
:1035A000DECF0E94160A8091FB01B812B092FB0197
:1035B0008B2DD8CFD11006C00E94160A8B2D0E94E9
:1035C000EB0B67CF8091170451E0D5120BC082300E
:1035D00008F45FCF809147038B2109F45ACF0E94F2
:1035E0000D0BEACF823040F3D812E6CF52CFCC2079
:1035F00029F085E08D1508F44CCFDACF94E09D15C5
:1036000008F447CFDBCFDD20C9F280911B049091F5
:103610001C04193321F08091190490911A040E941E
:103620000C0E812F0E94FC0B34CF802F869586953F
:10363000837069F0813009F02CCF812F902F937027
:10364000C11002C090E080E00E94D80522CF812FF7
:10365000902F9370C11002C090E080E00E94EE05B0
:1036600018CF812FCC2039F00E94CA070E9488060B
:103670000E9488060ECF0E94AF06FACF802F83707B
:1036800091F5C11006CF412F429546954770440FE2
:10369000440F812F8F70042E01C0880F0A94EAF71F
:1036A000212F207114FF07C02FE030E001C0220F4E
:1036B0004A95EAF72095302F36953695337032309B
:1036C00069F050F440910302313029F0822B8423B9
:1036D0000E94D60BDECE842B822BFACF282B809132
:1036E00003028227F5CF8695CC2011F0802F8170C0
:1036F000882309F4CECE412F429546954770440F5A
:10370000440F812F8F70042E01C0880F0A94EAF7AE
:10371000212F207114FF07C02FE030E001C0220FDD
:103720004A95EAF72095302F36953695337032302A
:1037300069F050F440916004313029F0822B8423E9
:103740000E94FB0CA6CE842B822BFACF282B8091D3
:1037500060048227F5CFF02FFF70BF2ECC2029F018
:103760008F2F0E94340D812FFDCE812F0E94EB0BF5
:103770008B2D0E940C0D8DCE123F09F44AC060F4CF
:10378000103F41F1113FE9F1CC2009F48DC0D11077
:1037900066CE802F8F713AC0133F09F43FC0143FAB
:1037A00099F720911704223008F466C08091FB013C
:1037B000CC2009F44EC00E94280A8091FE01877037
:1037C0008430C1F50E942F0A802F8F710E940C0D4A
:1037D000A12C5FCECC2081F024E02D1508F459CE29
:1037E000202F2F7181E090E001C0880F2A95EAF721
:1037F000909160048927A4CF35E03D1508F449CEA7
:10380000EFCF802F8F71CC2009F4B3CF0E94340DFD
:1038100040CE802F8F71CC20C9F3ABCF80E0CC207D
:1038200009F48ECF81E0902F9F7101C0880F9A9587
:10383000EAF786CF80911704D81650F6402F4F71C3
:10384000B42E842F0E94340D63E08B2D0E943F0D17
:10385000BFCF90914703982B90934703D21640F027
:103860000E942F0A0E940D0B64E0802F8F71EECF13
:1038700081E00E94180DACCFCC2059F0502F5F7121
:10388000B52E852F0E94340D63E08B2D0E943F0DD5
:1038900000CE81E00E94180D81E08D1508F0F9CD71
:1038A00082E00E94180DF5CDD110AFCE802F8F7120
:1038B00060CFCC2019F0D110F9CDFCCDD110F6CDD0
:1038C00020E0F701408151816281738184810E94EF
:1038D00060108091180483FFE9CD80919701909149
:1038E0009801029709F0E2CD812F0E94760EDECD7D
:1038F0000031BFE51B0709F4DBCA0131EFE51E0704
:1039000009F4E0CA680127E5D21A882309F4DCCA61
:103910003FEFC316D10409F008F408CB80911604D8
:1039200080FF36C00E946D056C01D70112968C9104
:10393000882311F18091180182FF06C040E0B60192
:1039400090E080E00E94160E82E00E94210A0B3176
:10395000BCE51B0709F458CB0C31ECE51E0709F454
:10396000A5CB90911801892F8E7F90FF81600A313D
:10397000FCE51F0709F49DCB0832110508F09FCB29
:103980000E31110508F0E1CB0430110508F0AACB87
:10399000033FFCE51F0709F410CC08F0F8CB083D05
:1039A0003CE5130709F403CC093D4CE5140709F481
:1039B00016CC073D5CE5150709F02BCB06E221EE9E
:1039C00041EE67ED7CE5C7010E94970EE4C9063120
:1039D0001C4509F044C080914703982F9A7A2091A2
:1039E000150420FF04C0482F447409F090E021FF23
:1039F00004C0482F417109F090E022FF04C0482F15
:103A0000487809F090E023FF03C0827209F090E04B
:103A1000332309F4C3CC81E0911101C080E080938D
:103A2000960169E2911165E386E791E00E94A305A2
:103A30000E94500AB0C906315CE5150761F20A35EB
:103A40005DE5150709F4D6CC08F0B2CC01159CE56C
:103A5000190709F4BFCC0E3D1C4509F4C8CCF70189
:103A600086819781009709F4C9CC0E948E08182F8F
:103A7000092FF701C280D580D2943FE0D3228091F4
:103A8000FE018770A1F0AC2CCC2091F0892F807FB3
:103A9000803421F080E2810F883048F082E00E947B
:103AA000180D8091FE018770AA24A3948111A12C86
:103AB000902E92942FE09222FBE0F91508F4E9CCC5
:103AC000E92DF0E0E259F04D0C94C72ECF92DF9231
:103AD000EF92FF920F931F93CF93DF938091B601E4
:103AE000807F31F48091B301C091FA0181110BC044
:103AF000DF91CF911F910F91FF90EF90DF90CF90CA
:103B000008952196C7708091B9018C1789F3F090C0
:103B1000B101E090B201C090B401D090B501A6010E
:103B20006E2D8F2D0E941006D0E08111EACF8E01FC
:103B300083E0000F111F8A95E1F7F801E654FE4F6C
:103B400081818E11DECF80818F11DBCF8281811147
:103B5000D8CFE380F480EC18FD0860E081EB91E0C1
:103B60000E9489108091130490911404E816F906BC
:103B700040F68091B6018F7080618093B601F801A4
:103B8000E154FE4F80818F708061808381EB91E0F2
:103B90000E944516DF91CF911F910F91FF90EF90FA
:103BA000DF90CF900C94330B5F926F927F928F9245
:103BB0009F92AF92BF92CF92DF92EF92FF920F93BC
:103BC0001F93CF93DF93CDB7DEB765970FB6F89409
:103BD000DEBF0FBECDBF8C0185E0F801DE0151963E
:103BE00001900D928A95E1F7D8011296EC9081EB45
:103BF000A82E81E0B82E8090B4019090B501A40168
:103C00006091B2018091B1010E9410068111EAC158
:103C1000F801C380D480F090B301C60188199909D6
:103C20004C01FF2009F47AC15080618060E0C50139
:103C30000E94891080911304909114047090B60131
:103C40008816990608F01DC14091B4015091B50144
:103C5000B090B101A090B201872D807F6A2D09F04C
:103C6000B7C08B2D0E941006FE2C811139C0D801DF
:103C700011968C9111978A1133C08C918B1130C0A1
:103C80002091B7013091B80116968D919C9128171B
:103C9000390731F5E11024C0872D8F708061809342
:103CA000B60181EB91E00E9445168091B601F801C2
:103CB00085838F2D65960FB6F894DEBF0FBECDBFFE
:103CC000DF91CF911F910F91FF90EF90DF90CF90F8
:103CD000BF90AF909F908F907F906F905F9008956E
:103CE00060E081EB91E00E94891080911304909133
:103CF0001404843F9140F8F0A601662D852D0E94A2
:103D0000100681114CC081E08E2580FF1DC04E2D14
:103D1000662D852D0E94130B8823B1F081EB91E075
:103D20000E94451688E0E1EBF1E0DF011D928A95E3
:103D3000E9F7F12CBECF60E081EB91E00E948910A1
:103D40008091180480FDD8CFA601662D852D0E9494
:103D50001006811126C081E08E25B82FB170CB2EC0
:103D600080FF2DC04E2D662D852D0E94130BD82E61
:103D7000811125C0598A6A8A89899A890E944610C8
:103D8000292F22952F70223070F0243098F49F70E4
:103D900071F0F8019581907F51F4FD2C8ACF80E07D
:103DA000B4CF80E0DACF9F7011F08823B1F3805E4A
:103DB000883098F3C8010E944516DC2CEECFEE2027
:103DC00009F477CF8091B60181608093B601B1CFBD
:103DD0008B2D0E941006811124C0D80111968C9160
:103DE00011978A111EC08C918B111BC02091B701B5
:103DF0003091B80116968D919C9117972817390725
:103E000081F4E1100EC015967C92C8010E944516FF
:103E100088E0F801A1EBB1E001900D928A95E1F7FD
:103E200048CFC8010E945210882339F1EE2029F1B1
:103E30008091B6018032A0F02091B1013091B201A1
:103E40003A8729871B86DD86CC868E878091B701CD
:103E50009091B801988B8F87CE0109960E944516E4
:103E600088E0F801A1EBB1E001900D928A95E1F7AD
:103E70000E94661DFF24F3941CCFC8010E944516C2
:103E8000F9CF872D807F09F449CF9090B1018090C0
:103E9000B2014091B4015091B501682D892D0E9465
:103EA000100681111CC0F8018181881118C0808121
:103EB000891115C02091B7013091B8018681978191
:103EC0002817390761F4E1100AC07582C8010E9401
:103ED000451688E0D5011D928A95E9F7EACEC8011A
:103EE0000E945210882349F2EE2039F28091B601E7
:103EF000803208F4B5CF2091B1013091B2013A83FC
:103F000029831B82DD82CC828E838091B7019091C0
:103F1000B80198878F83CE010196A0CF60E081EB36
:103F200091E00E94891080911304909114048816E6
:103F3000990608F051C0FE2CEE2009F49ECFE090C7
:103F4000B101D090B2014091B4015091B5016D2DF5
:103F50008E2D0E941006811131C0F80181818D11D2
:103F60002DC080818E112AC02091B7013091B801F7
:103F7000868197812817390709F560E081EB91E088
:103F80000E9489108091180482FD42CF9091B60161
:103F900090FD3ECF907F09F43BCF8091B601D801D0
:103FA00015968C931597903F09F42FCF982F907FFB
:103FB000905F8F70892B15968C9327CFC8010E9434
:103FC000521081114DCF8091B60181608093B6016E
:103FD000C8010E9445166DCE88E0F50111928A95C0
:103FE000E9F767CEEE2009F448CFC8010E945210CD
:103FF000F82E882309F441CF88E0F801A1EBB1E065
:1040000001900D928A95E1F78091B1019091B201F2
:104010000E9446100E94661D4CCECF93DF93CDB711
:10402000DEB760970FB6F894DEBF0FBECDBF29870D
:104030003A874B875C876D877E878F87988BCE0109
:1040400009960E94D41D81112FC088E0FE01399687
:10405000DE01119601900D928A95E1F74C855D8500
:104060006A8589850E94100681111EC0A091B90140
:10407000B0E0CD010196877099272091FA012817A9
:10408000190609F193E0AA0FBB1F9A95E1F7A65410
:10409000BE4F98E0FE01319601900D929A95E1F79E
:1040A0008093B9010E94330B8091FA019091B9017C
:1040B000891317C060960FB6F894DEBF0FBECDBF50
:1040C000DF91CF9108950E94F4121092B9011092DD
:1040D000FA0188E0E1EBF1E0DF011D928A95E9F752
:1040E000E3CFB8E08B9FC001112486549E4F0E94FD
:1040F000D41D8823F9F28091FA0190E0019687702F
:1041000099278093FA01D0CFEF92FF920F931F93DC
:10411000CF93DF938091A202882361F0C091A10226
:104120008CE0F82E8091A202C81758F01092A202DB
:104130001092A102DF91CF911F910F91FF90EF900C
:104140000895EE24E394EC0EE092A1020C2F10E00F
:10415000CF9DE0011124CD55DD4F4B815C816981FC
:1041600088810E94100681111BC08E819F81892B3E
:1041700021F488859985019651F4288139814A81F5
:104180005B816C817D818E819F810E940D20F09EDC
:10419000F001F19EF00D1124ED55FD4F14821382B4
:1041A000CE2DC0CF109246031092450310921501F8
:1041B00080914403809343030E9449060C94842019
:1041C0003F924F925F926F927F928F929F92AF92A7
:1041D000BF92CF92DF92EF92FF920F931F93CF93F4
:1041E000DF93C091430397E0892E01E010E02CE0BB
:1041F000322E3EEF932E44244394809144038C133B
:1042000015C00E948420DF91CF911F910F91FF90E4
:10421000EF90DF90CF90BF90AF909F908F907F9066
:104220006F905F904F903F900C944906D0E0FE0154
:10423000EE0FFF1FE55CFC4F80819181889ED001CD
:10424000899EB00D1124AD5FBC4F14962C9114972C
:10425000211157C05090A202E3EAF2E030E020E0E2
:10426000712C5D01251508F04AC0E284F384D50164
:10427000CD90DC906FEF7FEF612C462D50E0DA019E
:10428000AA0FBB1FAC0DBD1D0D90BC91A02D1097AA
:1042900031F0EA16FB0609F4BA016394EECF6F3FE2
:1042A0007607A1F1D80102C0AA0FBB1F6A95E2F7F9
:1042B0007A2AB80102C0660F771F6A94E2F7AB0151
:1042C0004150510974161506F9F4329EF001339EDF
:1042D000F00D1124ED55FD4F889ED001899EB00D43
:1042E0001124AD5FBC4F12962D913C9113973783EB
:1042F0002683908291829187808715964C920E94A6
:104300001B062196C37079CF148213822F5F3F4F13
:104310003C96A8CF8F929F92AF92BF92CF92DF929E
:10432000EF92FF920F931F93CF93DF93CDB7DEB73A
:104330002A970FB6F894DEBF0FBECDBF8E010F5F78
:104340001F4F8AE0F80111928A95E9F783E5E82E7C
:1043500081E0F82E6801AA24A394B12CF701819181
:104360007F018F3F09F44BC0F894E82FE295EF707E
:10437000F0E021A18F70A50102C0440F551F8A955E
:10438000E2F7CA01922F982B91A392A180958923DD
:1043900082A3789400C0E8E5F1E030E020E0912CC1
:1043A000812C81918F3F09F486C0A82FA295AF7010
:1043B000B0E090964C9150E08F7002C055954795B3
:1043C0008A95E2F740FD77C0C501022E02C0880F32
:1043D000991F0A94E2F7882A992A2F5F3F4F2C30C1
:1043E0003105F9F6F701319780818F3F11F00E9476
:1043F000340850EA5A95F1F7F60191828082F2E092
:10440000CF0ED11C48E5E41641E0F40609F0A6CF32
:104410004AE050E0B80187E092E00E94DD2EDD2402
:10442000D394009709F4D12C892B09F447C08AE072
:10443000F801A7E0B2E001900D928A95E1F781E0E2
:10444000809306020E946D059093050280930402FA
:1044500080910402909105020E945E05059790F1FB
:1044600080910702909108029093200280931F028E
:104470008091090290910A02909322028093210276
:1044800080910B0290910C0290932402809323025E
:1044900080910D0290910E02909326028093250246
:1044A00080910F029091100290932802809327022E
:1044B0001092060207C090E080E08DCF8091060246
:1044C0008111C6CF8091000110E006E18F3F09F015
:1044D00067C08091150181116EC08091160480FF24
:1044E0001CC08091180182FF18C00E946D052091A8
:1044F0001F0430912004AC01421B530B2091160184
:10450000309117014217530740F041E0BC01809100
:104510001D0490911E040E94160E8D2D2A960FB632
:10452000F894DEBF0FBECDBFDF91CF911F910F91E9
:10453000FF90EF90DF90CF90BF90AF909F908F90C3
:104540000895029FF001039FF00D1124E65BFC4FDC
:10455000E288F388E114F10421F4E0901304F09070
:104560001404029FF001039FF00D1124E65BFC4F41
:1045700086818823A1F0858596850E945E05E816D0
:10458000F90668F4109F70011124C701865B9C4FE7
:104590000E94E90AC701805B9C4F0E94A40A1F5F2A
:1045A000212F30E080910001082E000C990B82171A
:1045B00093073CF68ECF8091450390914603009778
:1045C00009F48BCF0E945E0520919F023091A002DA
:1045D0002817390708F081CF909143038091440355
:1045E000981759F00E94E0201092A00210929F02AA
:1045F000109246031092450370CF0E9484201092BF
:104600004603109245030E94490667CF2F923F92BE
:104610004F925F926F927F928F929F92AF92BF92D2
:10462000CF92DF92EF92FF920F931F93CF93DF937E
:10463000CDB7DEB769970FB6F894DEBF0FBECDBF1A
:10464000942F498B252F5A8B6B8B7C8B8D8B4C89B0
:104650005D89622F892F0E941006811109C0809107
:1046600097019091980101969093980180939701FA
:104670008B8981111092FA031D861E861F86188A67
:1046800085E0FE017196DE01199601900D928A95E2
:10469000E1F78091FD039091FE03892BC1F00E9408
:1046A0006D052091FC013091FD01821B930B20913F
:1046B000FD033091FE038217930720F08091FE01E5
:1046C00082FFF5C10E94360A81110E94160A4C85AC
:1046D0005D856A8589850E941006811111C061E09F
:1046E000CE0109960E9489106C018B8527EFC216B6
:1046F0002CE5D20681F4882321F181E08093150115
:1047000029853A854B855C856D857E858F85988961
:104710000E940D20C5C038EFC3163CE5D30629F42E
:10472000882379F00E94D220EBCF49EFC4164CE5E4
:10473000D40639F4882329F0809115018111F2CF34
:10474000DCCF03E013E0512CB12CA12C22242394C4
:10475000312C2EEF422EF8014081518188248A9419
:10476000982C20E0822F90E0FC01EE0FFF1FE40F59
:10477000F51F608171816115710531F0C616D7068C
:1047800009F44C012F5FEECFF12CFFEF8F169F063F
:1047900009F448C0F8014481F09015018F2D4111B2
:1047A00080E0F82FF170FF2EF801E58086819B856F
:1047B000992309F40CC1FF2009F409C16090110488
:1047C00070901204E11012C0A10101C0440F8A943C
:1047D000EAF7842B868380919F029091A002861530
:1047E000970520F47092A00260929F02C10102C05E
:1047F000880F991F2A95E2F70197F801268128175B
:10480000190681F48091450390914603009709F4BD
:1048100060C00E945E056816790608F05AC021E063
:10482000F80124835F28FFEFAF1ABF0A095F1F4F0B
:1048300028E0A216B10409F08ECF8B85882309F4F5
:1048400021C1552009F41EC10E946D0590934603B5
:10485000809345038091A202883010F591E0980F73
:104860009093A20298E0FE013996DE011196019024
:104870000D929A95E1F73CE0839FC00111248D557C
:104880009D4F28E0FE013196DC0101900D922A95A2
:10489000E1F72FEF3FEFFC0131872087D386C286F7
:1048A00069960FB6F894DEBF0FBECDBFDF91CF91F2
:1048B0001F910F91FF90EF90DF90CF90BF90AF903E
:1048C0009F908F907F906F905F904F903F902F9030
:1048D00008958091430350914403982FF0E0E0E065
:1048E000851314C090934303E017F10709F49ACF9E
:1048F00090E0FC01EE0FFF1FE55CFC4FB182A0824F
:10490000019683709927809344038CCF682E712C75
:10491000F301EE0FFF1FE55CFC4F2081318147E082
:10492000429FD001439FB00D1124AD5FBC4F6D91EC
:104930007C911197798F688F40E020E030E0E32F81
:10494000F0E0EE0FFF1F688D798DE60FF71F808076
:10495000918081149104E1F0F8010190F081E02D43
:10496000FF8BEE8B20E005C08616970609F44F2DCD
:104970002F5FE22FF0E0EE0FFF1F6E897F89E60FB9
:10498000F71F608171816115710571F73F5FD7CFA6
:104990004423D1F0F801231708F0FD0121E024831E
:1049A0000E171F0721F490934303F42E3BCF981367
:1049B00005C0AE17BF0711F49F5F937093012F5F7F
:1049C0003F4F822F83708CCFF0E0E0E0F7CF90E094
:1049D000E1101FC0B10102C0660F771F2A95E2F7F0
:1049E0009B01215031098217930731F4442309F4C4
:1049F00047C0C5010E941B06C10101C0880F8A94EF
:104A0000EAF7982F9095F801868189238683FE2CFA
:104A100009CF9C01082C02C0359527950A94E2F72E
:104A2000A90141705527BC01615071098623972364
:104A3000892B11F5452B01F1F80182819381892B96
:104A4000C1F01B821C821D821E8249824A820E9402
:104A50006D058160582F9D838C83F801828193813D
:104A60008F83988729813A814B816D817E810E9455
:104A70000D20F8011582C0CFF22FF170EF2EBCCFC0
:104A8000EF2CBACF9091430380914403981731F0F3
:104A90000E94E020552009F433CE02CF0E948420EA
:104AA00010924603109245030E944906F3CF82E01C
:104AB0000E94180D07CE0F931F93CF93DF9300D062
:104AC00000D00F92CDB7DEB78C01909399028093FE
:104AD0009802011580E2180720F5802F0E94FC0B38
:104AE000C8010E94B50C9801205E310928303105BB
:104AF00010F0012B59F40F900F900F900F900F9022
:104B0000DF91CF911F910F910C94EB0B0F900F90B1
:104B10000F900F900F90DF91CF911F910F910C94F8
:104B2000DA0B8EEF89838A831B820E946D05816078
:104B3000782F9D838C8349815A816B818D810F9061
:104B40000F900F900F900F90DF91CF911F910F91C9
:104B50000C9406230F931F93CF93DF938C01EB01EB
:104B60006EE372E08C2F0E943112892BA1F48091A8
:104B7000190490911A040E940C0EDD27CA5CDD4FC7
:104B80008881F80110821882833009F148F481305D
:104B900059F0823081F0DF91CF911F910F910895EC
:104BA0008430D1F08530B9F780913E0290913F0278
:104BB000009789F306C080914002909141020097CE
:104BC00099F3DF91CF911F910F910C945B25809108
:104BD000420290914302F3CF8091440290914502AA
:104BE000009779F720913E0230913F028091400278
:104BF0009091410221153105D9F2009711F7C901B1
:104C0000E0CF0F931F93CF93DF9300D000D00F928C
:104C1000CDB7DEB78C01909399028093980201156D
:104C200080E21807E8F4C8010E94B50C9801205EE4
:104C300031092830310518F00115110571F40E9471
:104C4000F20B802F0F900F900F900F900F90DF912D
:104C5000CF911F910F910C942E0C0E94E10BF1CF7C
:104C60008EEF89838A8381E08B830E946D0581604A
:104C7000782F9D838C8349815A816B818D810F9020
:104C80000F900F900F900F90DF91CF911F910F9188
:104C90000C940623CF93DF93EC010E9401268091B0
:104CA000190490911A040E940C0ECE01DF91CF914D
:104CB0000C945B250F931F93CF93DF938C01862F6A
:104CC0006EE372E00E943112892BC9F4C0913E025A
:104CD000D0913F02209799F0F8018081833069F4E8
:104CE000CE010E944A26CE010E944A26CE01DF91C3
:104CF000CF911F910F910C944A268430B8F7DF9121
:104D0000CF911F910F9108950F931F93CF93DF932E
:104D10008C01EB016EE372E08C2F0E943112892B23
:104D200009F064C0FE01FF27D8018C91EA5CFD4FB9
:104D30008130D9F419969C911997992311F08083A9
:104D40000CC01A969C919923D1F382E080838091C4
:104D50004002909141020097D9F480913E029091D7
:104D60003F02009709F442C013C08230E9F519965A
:104D70008C91199781112DC01A968C9181110EC0BA
:104D800083E080838091420290914302009719F161
:104D9000DF91CF911F910F910C94012684E08083C5
:104DA0008091440290914502009791F780913E02D4
:104DB00090913F020097F9F00E944A2680914002AC
:104DC00090914102009721F780913E0290913F021D
:104DD000DFCF85E0808380913E0290913F02009773
:104DE00029F00E944A26F0CF86E08083DF91CF91A0
:104DF0001F910F9108958091400290914102B1CF8F
:104E00001F920F920FB60F9211242F933F934F933F
:104E10005F936F937F938F939F93AF93BF93CF9342
:104E2000DF93EF93FF93D091E900DF708091EC0066
:104E3000C82FC17080FDC0E81092E9008091F00099
:104E4000877F8093F00078940E9409131092E90004
:104E50008091F00088608093F000CD2BCF70C093DC
:104E6000E900FF91EF91DF91CF91BF91AF919F91B9
:104E70008F917F916F915F914F913F912F910F9003
:104E80000FBE0F901F9018951F920F920FB60F92A2
:104E900011242F933F934F935F936F937F938F933F
:104EA0009F93AF93BF93EF93FF938091E10082FFB5
:104EB00009C08091E20082FF05C08091E1008B7FF4
:104EC0008093E1008091DA0080FF24C08091D800B7
:104ED00080FF20C08091DA008E7F8093DA0080917D
:104EE000D90080FF9BC080E189BD82E189BD09B402
:104EF00000FEFDCF81E08093560480913104811142
:104F000009C00E94D1030E949C048091E200846049
:104F10008093E2008091E10080FF17C08091E20061
:104F200080FF13C08091E2008E7F8093E200809129
:104F3000E20080618093E2008091D80080628093DB
:104F4000D80019BC85E0809356048091E10084FF6D
:104F500029C08091E20084FF25C080E189BD82E103
:104F600089BD89B5982F917080FFFBCF8091D800C3
:104F70008F7D8093D8008091E1008F7E8093E10047
:104F80008091E2008F7E8093E2008091E200816058
:104F90008093E20080915704882309F445C084E09F
:104FA000809356048091E10083FF27C08091E20046
:104FB00083FF23C08091E100877F8093E10082E03E
:104FC00080935604109257048091E1008E7F809365
:104FD000E1008091E2008E7F8093E2008091E20008
:104FE00080618093E20042E060E080E00E946A0419
:104FF0008091F00088608093F000FF91EF91BF9165
:10500000AF919F918F917F916F915F914F913F9160
:105010002F910F900FBE0F901F90189519BC1092F2
:1050200056041092310476CF8091E30087FD93E01F
:1050300090935604B7CF78941F921FB61F921124F5
:105040008F939F93AF93BF938091280490912904ED
:10505000A0912A04B0912B040196A11DB11D80934B
:10506000280490932904A0932A04B0932B04BF91A1
:10507000AF919F918F911F901FBE1F9018951F9207
:105080001FB61F9211248F939F93AF93BF9380916C
:105090002704811113C08091280490912904A091C4
:1050A0002A04B0912B044196A11DB11D80932804C0
:1050B00090932904A0932A04B0932B04BF91AF913D
:1050C0009F918F911F901FBE1F901895CDB7DEB78F
:1050D000E4970FB6F894DEBF0FBECDBF84B7877FCD
:1050E00084BF0FB6F894A895809160008861809382
:1050F0006000109260000FBE80E890E00FB6F89458
:1051000080936100909361000FBE85B7806885BF72
:1051100085B7806885BF82E398E09093750180939E
:1051200074010E9445120E949B120E94A60F0E94C9
:10513000D1030E949C048091E20084608093E2008D
:105140007894809156048823A1F01091E9001F7093
:105150009091EC00892F817090FD80E8182B1092BF
:10516000E9008091E80083FD0E9409131F701093ED
:10517000E90082E084BD93E095BD9AEF97BD8093EE
:105180006E000E949710811102C00E94221203E556
:1051900011E0D8018D918D018F3F11F00E943408EC
:1051A000B1E008351B07A9F708E511E0F801819186
:1051B0008F018F3F11F00E943408F1E004361F0781
:1051C000A9F7109208021092070210922002109282
:1051D0001F0210920A0210920902109222021092EB
:1051E000210210920C0210920B02109224021092D3
:1051F000230210920E0210920D02109226021092BB
:1052000025021092100210920F02109228021092A2
:10521000270290E080E00E94122F8A3E9E4F21F4E8
:105220000E949710811102C00E94DB1582E090E07D
:105230000E940A2F809312020E94B01090932D04B6
:1052400080932C040E948A218FE39CE90197F1F757
:1052500000C000000E948A2180911F0280FF08C0C8
:105260006FEF7FEF90E080E00E94362F0E94E80D04
:1052700083E090E00E940A2F0E94D60B8091600488
:105280000E94E60C6E9A7698809A8898819A8998FE
:1052900081E091E0909324048093230410E4212E74
:1052A0008E010F5F1F4F80915604A0E1EA2EB2E1FC
:1052B000FB2E853009F449C10E948A21882359F0C8
:1052C0008FB7F894409128045091290460912A04E2
:1052D00070912B048FBFEFE16E2EE2E07E2EF3E1A2
:1052E000EF2EF2E0FF2E512C412CD3018D909D909A
:1052F0003D01F701A080B180A814B90499F1A82458
:10530000B924312CCC24C394D12CC5018C219D21EE
:10531000892B11F13BA64CA621E0C4018C219D21D3
:10532000892B09F420E02DA70E946D058160782F5C
:105330009FA78EA74BA55CA56DA58FA50E940623F0
:10534000D7018D919C9111978C259D258D939C93D0
:105350005394BBE0B515F8F03394CC0CDD1CECE0B5
:105360003E12D3CF4394F2E0EF0EF11C25E042123F
:10537000BCCF511010C08FEF88AB89AB1AAA0E9426
:105380006D058160782F9CAB8BAB48A959A96AA9A0
:105390008CA90E94062386E0E0E3F2E0D8010190A8
:1053A0000D928A95E1F7C0903202D0903302E090DE
:1053B0003402F090350210923202109233021092B1
:1053C0003402109235028C2D8D2991F080912E029D
:1053D00090912F020E945E05AC0190912A029923C0
:1053E00009F4BDC0809113018417150608F4C5C0E7
:1053F0008E2D8F2991F080912C0290912D020E9488
:105400005E05AC0190912902992309F4F5C08091C1
:105410000F018417150608F4FDC0809132029091A7
:105420003302892B90913402892B90913502892B7C
:1054300011F00E94880686E0F801A0E3B2E0019036
:105440000D928A95E1F70E94040690911102891746
:1054500021F00E940406809311028091560484304A
:1054600009F021CF83E08093E9008091E80082FF7A
:105470001ACF8091E80090E085FF0AC00E94F003F7
:1054800050E2C52ED12C7801882309F40CC191E09B
:105490008091E8008B778093E800992309F403CF8B
:1054A000E0909A02F0909B028981E114F10409F4E2
:1054B00008C18E3F09F050C18A81833020F08550A9
:1054C000833008F049C1EA81EE3008F045C1F0E0D0
:1054D000E658F04D0C94C72E80915604843019F193
:1054E00010922704A8E1B0E00FB6F894A895A09315
:1054F00060000FBE2092600083B7817F846083BF0D
:1055000083B7816083BF7894889583B78E7F83BF8C
:105510000FB6F894A8958091600088618093600030
:10552000109260000FBE80915504882371F00E9494
:105530008A21EFE1F2E081919191892B09F0A8C3D2
:1055400029E232E02E173F07B1F7809156048530EB
:1055500009F4C2CF0E94F4120E940406ADCE20913D
:1055600014018AE0289F900111242417350708F0C0
:105570003FCF9F5F90932A0202C09F3FD1F7CC207C
:1055800059F00E946B079FEF1C140CF491E0899F67
:10559000802D112480933202DD2059F00E946B0788
:1055A0009FEF1D140CF491E0899F802D11248093AE
:1055B000330230913202332309F41ACF209133029F
:1055C000222309F415CF45EB3403C001112499239C
:1055D00059F09093320245EB2403900111243323B8
:1055E00039F03093330204CF81E080933202F3CF5D
:1055F00081E080933302FCCE209110018AE0289F45
:10560000900111242417350708F007CF9F5F90936E
:10561000290202C09F3FD1F7EE2059F00E943207C5
:105620009FEF1E140CF491E0899F802D112480932C
:105630003402FF2059F00E9432079FEF1F140CF430
:1056400091E0899F802D112480933502309134029E
:10565000332309F4E2CE20913502222309F4DDCE72
:1056600045EB3403C0011124992359F0909334027F
:1056700045EB240390011124332339F03093350294
:10568000CCCE81E080933402F3CF81E08093350269
:10569000C4CE8091F100D7018D937D01B1E0CB1A8A
:1056A000D10809F4F4CE8091E80085FDF2CF809115
:1056B000E8008B778093E8000E94F003882399F339
:1056C000E6CE8D3009F4CDC0B0F4843009F4B0C01A
:1056D00040F4823041F108F09CC0813001F18FEF3D
:1056E00003C3863009F4BAC008F4ADC08C30B9F7F2
:1056F00080E18A8331C0813109F40FC140F48F30D9
:1057000009F4DDC008F4B1C00E941C1125C083312A
:1057100009F42EC108F403C18E3F09F7D4CE1A82D2
:1057200089E08B8319C08A81823009F4FFC28330FB
:10573000E1F18130A1F62FB7F894609128047091BF
:10574000290480912A0490912B042FBF0E94CD2E12
:105750006B837C838D839E8380915604843009F013
:10576000A2CDF090E9002F2D2F70F22E9091EC0039
:10577000892F817090FD80E8F82A82E08093E9000B
:105780008091E80080FF0CC050E040E060E270E0F3
:10579000C8010E9421048091E8008E778093E80080
:1057A0008F2D8F708093E9007ECD80910B019091B9
:1057B0000C01892B89F280911F0290912002982779
:1057C000892798279C838B838091210290912202C4
:1057D0009827892798279E838D8380912302909113
:1057E000240298278927982798878F8380912502FC
:1057F000909126029827892798279A8789878091F0
:105800002702909128029827892798279C878B87C1
:10581000A3CF8A81823009F062CF6B817C818D8138
:105820009E810E94CD2E86E290E00E94182F94CF98
:105830004C816B818A810E94CC0F982789279827F9
:105840009E838D8389CF2D813E8132272327322766
:105850004C816B818A810E942C117ECF0E94931112
:105860007BCF81E08A8387E35CCFEC80F12CEDE194
:10587000EE16F10408F070CFCA80DB80DC24CD2462
:10588000DC245801E00EF11EC60187539D4FEA1437
:10589000FB0409F461CFF7E3CF16F1E0DF0660F413
:1058A0000E940A2FD50114968C93FFEFCF1ADF0ABE
:1058B0002FEFA21AB20AE8CFF5011482F6CF809139
:1058C0000B0190910C01892B09F446CFCC80D12C8F
:1058D0003DE1C316D10408F03FCFEA80FB80FE24EF
:1058E000EF24FE245801CE0CDF1CC70187539D4FC7
:1058F000CE14DF0409F430CF47E3E41641E0F406A8
:1059000028F4D50114966C910E94182FBFEFAB1AA2
:10591000BB0AEFEFEE1AFE0AE8CF84E0EACEEC8095
:10592000F12CFDE1EF16F10408F016CFCA80DB8000
:10593000DC24CD24DC245801E00EF11EC60187963C
:10594000AE14BF0409F408CF20EEC21621E0D2063F
:1059500060F40E940A2FD50114968C93FFEFCF1AA2
:10596000DF0A2FEFA21AB20AE9CFF5011482F6CFAF
:10597000CC80D12C3DE1C316D10408F0EDCEEA80F5
:10598000FB80FE24EF24FE2440EEE41641E0F40602
:1059900008F0E2CE80EE91E08E199F098C159D05EE
:1059A00008F4DACE5801CE0CDF1CC7018796EC1440
:1059B000FD0409F4D1CEA0EEEA16A1E0FA0620F427
:1059C000F50164810E94182FFFEFAF1ABF0A2FEF75
:1059D000E21AF20AEACF88E0EAE1F1E0DE0191960C
:1059E00001900D928A95E1F780E2D8011D928A9587
:1059F000E9F784E0898388E0FE01B196DE0115961F
:105A000001900D928A95E1F7A7CE8CE5898381E01C
:105A10008A831B821C82A0CE8C81682F70E0762F37
:105A200066278B81860F972F911D092E000CAA0BDC
:105A3000BB0B45E0880F991FAA1FBB1F4A95D1F7E2
:105A4000AC01BD01405E5F4F6F4F7F4F4817590754
:105A50006A077B0708F480CE8C35E1E09E07A1053C
:105A6000B10508F079CE4D35F1E05F0761057105AC
:105A700020F04CE551E060E070E0481B590BBC01A0
:105A800066587D4FC8010E94D42E66CE4EE150E08C
:105A90006FEF70E0CE0103960E94F32E80910B0110
:105AA0008983EA8259CE81E090E090939B028093B3
:105AB0009A0282E390E090931E0280931D020E945E
:105AC0006D054ACE80910B018983EA8280911D0287
:105AD00028CEEB80FC8040E250E06FEF70E0C80120
