:100000000C94F1030C9429040C9429040C942904F5
:100010000C9429040C9429040C9429040C942904AC
:100020000C9429040C9429040C94682B0C94242B14
:100030000C94652C0C9429040C9429040C94290428
:100040000C9429040C9429040C9429040C9429047C
:100050000C9429040C94412C0C9429040C9429042C
:100060000C9429040C9429040C9429040C9429045C
:100070000C9429040C9429040C9429040C9429044C
:100080000C9429040C9429040C9429040C9429043C
:100090000C9429040C9429040C9429040C9429042C
:1000A0000C9429040C9429040C94290405010902D8
:1000B000A10185020901A100050919012905150001
:1000C00025019505750181029501750381010501E1
:1000D000093009311581257F950275088106093897
:1000E0001581257F950175088106050C0A380215D2
:1000F00081257F950175088106C0C005010980A191
:1001000001850319012AB700150126B7009501756D
:10011000108100C0050C0901A101850419012AA064
:1001200002150126A002950175108100C005010984
:1001300006A1018506050719E029E71500250195A7
:1001400008750181020507190029EF1500250195A1
:10015000F0750181020508190129059505750191C0
:1001600002950175039101C00660FF0961A10109B3
:1001700062150026FF0095207508810209631500AD
:1001800026FF00952075089102C005010906A1010E
:10019000050719E029E71500250195087501810279
:1001A0009501750881010507190029FF150026FF33
:1001B0000095067508810005081901290595057542
:1001C000019102950175039101C0FD377A585A00DB
:1001D0000004E6D6B4460200210116000000742F88
:1001E000E5A3E013BC03225D003D888986D3DC0AC9
:1001F000E842C324925842588FD8E75CA0D2616E7F
:1002000026E888019A676C7887BC8D3709EA0E1456
:1002100059A53C798586623CB1387CF673B05A1496
:100220004E0CE6651E71EFCA117D9B232648F88FA0
:1002300045912AEA9855C8CE8757806F027A09A857
:10024000BFA3CEA131238545CAC9715BACA9B7054F
:100250002EEA6C417608CDCD5ADF725888CE7D04E7
:10026000364AC8B1D9C02D90E05D1846E63A057807
:1002700086ECF7FEEE1BE5775E12E02B809C6FF9B3
:10028000522CA0CD0396A617FB51FDD0EB4AC78395
:100290004C4216DD51EBA409012F684C2B31F08A3A
:1002A0007A9E6D29028208395B5B28D663CC67276A
:1002B0002CD4879F6C096ED619A1495A86793B4484
:1002C00061E5125888A9078ED80D967328A4B9291C
:1002D00060ADF88135331DCE8FFBDBBFBE17A04A62
:1002E000D39A4525693E4BE302CBBE9CED0189F7CD
:1002F00054FDEE0EFD77BFA7FAC2493935BABB8E61
:10030000691C48751C416A0428C1C48876169B5E26
:100310005EEF1979DD8E3F9FDF8D28EFDDD6903DB2
:100320004041224C75C9DF9F2D8FEBDA67934C1A41
:100330002DA0E0AC65096DB8DE1C60EF1EC2EC3983
:100340001307D28C2A00375BC8EAA98D1BD6BE5C86
:10035000C1131026846C9F419482D356260B3B9385
:10036000ABC2832F9F637F83927867DE1414EC52B5
:1003700033DA0236C85778272CD0C5DDB4A8C8D2E6
:1003800001772F0D5DB2B041BAC2D2D29063B312E1
:10039000BF32AF8C65E06E4D4A7F6EA49BA0A0E596
:1003A000720ACB1C375B75DC519FB7F9C82C76F607
:1003B0003ABCCFE988C3049A36A451CDBA41DE478E
:1003C0001D1236A9B64E315E98AC9A5F093128DB12
:1003D00062745D8C73AC460D89660D2326C13E3E6A
:1003E000A289FC258DC6BA8E30BDBB594E89D7E196
:1003F0001687675B89D2E235E769A7A692D8F5A090
:100400003DA1E5F377B09E261A2B679A4E0382ED45
:1004100096F4F2A78018DFE61D79EC645B81B57471
:10042000037893097697672450D3192889075E4C7F
:10043000345F46A4D4545F3A3EADEDA44C87ED3210
:10044000CF05F7D3E8849DA87C5FD2CF6D9FB4D64B
:1004500079FA4063ACF8AA48491532F05DC2C35D31
:100460000C665AEBCE04F5E3A3518492A79D863A1D
:100470008285034D00E08E0482DADADC730294D5C3
:1004800008D1E31A14289685558660A7267669C98F
:1004900052BC061A88776056A2A7CDC8872DCFC454
:1004A00021873A9C0D5A90943A4A602521B4FA9ECD
:1004B000238D0674BF3219BD553904040D54B7EEAF
:1004C000F3F436A92BC71A678F572BEA57F8E06C5D
:1004D000E9412425B570832C24FD252B65F389A0E3
:1004E0009CED071D67AC9FEE4B0D85B105625AD29E
:1004F000A1362468B742504FE2ECA05AB08C12DC0F
:1005000077D988B612296AAB02E8A1000000993DAC
:10051000478099FA00860001BE06BD2700005A9563
:10052000CFBEB1C467FB020000000004595AA90005
:10053000AA0014001A000800150017001C0018007B
:100540000C001200130004001600070009000A0046
:100550000B000D000E000F0028001D001B00060000
:10056000190005001100100036003700E500E0001A
:10057000E300E2002B002C0001515000510052001A
:100580004F000100010004040C0F3F0F00000200A7
:10059000020000040C0F3F0F0000030001000504DF
:1005A0000C0F3F0F000004000200EA030C0F3F0F86
:1005B000A2070500010006040C0F3F0F0000060013
:1005C0000200EC030C0F3F0F0000070002000204C2
:1005D0000C0F3F0F00000800010007040C0F3F0F35
:1005E000000009000200EE030C0F3F0F7D070A0018
:1005F0000200F0030C0F3F0F7D070B000200F20317
:100600000C0F3F0F7D070C000200F4030C0F3F0F8F
:100610007D070D000200F6030C0F3F0F7D070E0053
:100620000200F8030C0F3F0F7D070F000200FA03D2
:100630000C0F3F0F7D0710000200FC030C0F3F0F53
:100640007D0711000200FE030C0F3F0F7D07120013
:10065000020008040C0F3F0F0000130002000A0400
:100660000C0F3F0F0000140001000C040C0F3F0F93
:100670000000150000000000030703170000090236
:100680005B00030100A0FA0904000001030101005E
:100690000921110100012240000705810308000122
:1006A00009040100020300000009211101000122D8
:1006B0002200070582032000010705030320000133
:1006C00009040200010300000009211101000122B8
:1006D000BC00070584032000011201000200000095
:1006E000086B7273790001010203011C0376006933
:1006F0000061006C003A006600360034006300328E
:100700000062003300630000000C035900610073B5
:100710000075006900000014037200610069006E3A
:10072000006B0065006500620073000000040309AF
:1007300004000000000000000000000000000000B5
:1007400000000000000000000000000000000000A9
:1007500000000000007E0F00D4FFFFFFC700000074
:100760007800000000000000002A2B280000000094
:100770000000000000000000000000002900000050
:10078000002C1E3420212224342627252E362D37F6
:1007900038271E1F202122232425263333362E37C7
:1007A000381F0405060708090A0B0C0D0E0F10115F
:1007B00012131415161718191A1B1C1D2F3130236C
:1007C0002D350405060708090A0B0C0D0E0F101134
:1007D00012131415161718191A1B1C1D2F3130353A
:1007E0004C0011241FBECFEFDAE0DEBFCDBF04B650
:1007F00003FE18C08091100590911105A09112057B
:10080000B09113058730904BA740B04B59F410922C
:100810001005109211051092120510921305E0E0D8
:10082000F8E3099511E0A0E0B1E0E8EFFBE602C0D3
:1008300005900D92A238B107D9F725E0A2E8B1E002
:1008400001C01D92A031B207E1F70E948C2C0C94DC
:10085000CF350C940000E8EDF0E080818E7F80833E
:100860001092E2001092DA001092E100A0EEB0E0E7
:100870008C9181608C9380818F77808319BCA7EDE8
:10088000B0E08C918E7F8C9380818F7E80831092DC
:10089000DF0408952091E4003091E50095E6A90178
:1008A0002091EC00822F817020FF06C08091E8002B
:1008B00080FF06C080E008952091E80022FD1AC064
:1008C00080910405882389F0853089F08091EB00C0
:1008D00085FD0FC02091E4003091E50042175307D9
:1008E000F9F29150E1F684E0089582E0089583E002
:1008F000089581E00895EF92FF920F931F93CF9395
:100900007C018B010E944A04C82F811117C080917D
:10091000E80085FD0BC08091E8008E778093E800A9
:100920000E944A04882399F3C82F08C0F7018191D7
:100930007F018093F1000150110949F78C2FCF916D
:100940001F910F91FF90EF9008958091060587FF0A
:1009500013C08091E80082FF06C08091E8008B7789
:100960008093E80004C0809104058111F2CF0895BE
:10097000809104058823D9F38091E80080FFF8CFA7
:100980008091E8008E77ECCF982F9093E900242F88
:10099000762F50E0891731F07091EC002091ED0036
:1009A0005091F00021FD07C09F5F973071F7809351
:1009B000E90081E008953091EB003E7F3093EB0039
:1009C0003091ED003D7F3093ED003091EB003160D0
:1009D0003093EB007093EC002093ED005093F00007
:1009E0002091EE0027FDE0CF80E00895B0E0A0E088
:1009F000ECEFF4E00C942235C8EDD0E088818F7ED6
:100A00008883E7EDF0E080818160808384E082BFAD
:100A100081E08093DF0488818E7F888302EE10E07E
:100A2000F80110821092DA0081EEC82ED12CF60166
:100A3000108288818F778883888180688883888105
:100A40008F7D888319BC10920405109205051092C1
:100A500003051092020590EEE92EF12CF70180813A
:100A60008B7F808388818160888342E060E080E0C2
:100A70000E94C404F60180818E7F8083F80180810A
:100A800081608083808188608083F70180818E7F90
:100A90008083888180618883CDB7DEB7E8E00C94DD
:100AA0003E35FC0180910C0590910D058617970746
:100AB000A0F06115710529F49091E8009E7790935C
:100AC000E80090E06115710551F4911108C0809122
:100AD000E80082FF34C080E00895BC01F2CF80912D
:100AE00004058823C1F18530C1F18091E80083FDC0
:100AF00030C08091E80082FDEACF8091E80080FF5D
:100B0000E1CF8091F3002091F200382F611571053B
:100B100019F02830310558F091E02830310509F0FE
:100B200090E02091E8002E772093E800CBCF8191D0
:100B30008093F100615071092F5F3F4FE7CF8091A3
:100B40000405882341F0853041F08091E80083FF5F
:100B5000BECF81E0089582E0089583E0089508956E
:100B60008091E10408959C014FB7F8948091D604D8
:100B70009091D704A091D804B091D9044FBF821BA3
:100B8000930B08952FB7F8946091D6047091D70411
:100B90008091D8049091D9042FBF08952FB7F8946D
:100BA0008091D6049091D704A091D804B091D90433
:100BB0002FBF089520911B012223C1F02091DA0458
:100BC00027FF14C0E62FE695E695E695EE31F8F49A
:100BD000E80FF92FF11D677021E030E001C0220F0E
:100BE0006A95EAF78281822B82830895FC0132960E
:100BF0002FEF30E04191641751F02F3F19F441116C
:100C000001C0232F3F5F3630A9F72F3F09F4089525
:100C1000820F911D27FD9A95FC0162830895209112
:100C2000D3043091D4042817390771F09093D40479
:100C30008093D304E091D104F091D204309721F055
:100C40000084F185E02D099508952091CF0430911D
:100C5000D0042817390771F09093D0048093CF0403
:100C6000E091D104F091D204309721F00680F78111
:100C7000E02D09950895E091D104F091D2043097C8
:100C800029F00190F081E02D0995089580E0089504
:100C9000CF93DF93EC014091C2045091C304609163
:100CA000C4047091C5042FB7F8948091D604909134
:100CB000D704A091D804B091D9042FBF841B950B01
:100CC000A60BB70B843F9140A105B10518F58091A3
:100CD000C2049091C304A091C404B091C504809350
:100CE000BE049093BF04A093C004B093C10484EFEA
:100CF00091E0A0E0B0E08093BA049093BB04A0938D
:100D0000BC04B093BD04D093CA04C093C904DF915E
:100D1000CF9108950E94C2056093BE047093BF04F2
:100D20008093C0049093C10482E390E0A0E0B0E01F
:100D3000E2CFFC018481862351F492819923B9F09A
:100D40006923808583FF05C081E061110FC080E0C9
:100D50000895892F8F7092959F70982B862F8F7092
:100D600062956F70682B81E09613F1CF089581E052
:100D7000FDCF452B39F0682381E06F3F09F080E01B
:100D80008170089581E0FCCFDC016091B604809110
:100D9000B704962F891301C00895292F30E0F90177
:100DA000EE0FFF1FE255FB4F408151814A175B0751
:100DB000A1F487E08A9FA0018B9F500D11244A580F
:100DC0005B4F81E0FA0184839613E6CF2F5F3F4F9C
:100DD000237033272093B60408952F5F3F4F922F3F
:100DE0009370D8CF1092130410921204E6E7F4E047
:100DF0008581811102C014821682379684E0EE3A12
:100E0000F807B1F70895B0E0A0E0E9E0F7E00C944E
:100E100020358FEF9FEF4430510508F469C04091B1
:100E2000DA0441FB882780F990E0880F991F42FB84
:100E3000002700F910E0000F111F000F111F802B79
:100E4000912B40FBCC24C0F8D12C8C299D2943FB4D
:100E5000222720F9C22FE0E0DE2F53E0CC0FDD1F68
:100E60005A95E1F78C2B9D2B44FBAA27A0F9B0E003
:100E7000E4E0AA0FBB1FEA95E1F78A2B9B2B45FB09
:100E8000EE27E0F9F0E0A5E0EE0FFF1FAA95E1F7ED
:100E90008E2B9F2B46FB222720F930E0B6E0220F55
:100EA000331FBA95E1F7822B932B47FB222720F9BA
:100EB00030E03695322F222737952795822B932BBA
:100EC0002091DB04322F3170F32EE82EF92A26957B
:100ED0002170B22EBB0CA82EBF28C501BB0CAA0BDB
:100EE000BB0BFB0180839183A283B38390E080E0FE
:100EF000CDB7DEB7EAE00C943C35EAEEF3E084814E
:100F000095812AE030E0B9010E94E3346093160134
:100F10008681809315018285809314018485809356
:100F2000130186859785B9010E94E334609312010D
:100F30008089809311018289809310018489809334
:100F40000F0108958091EA039091EB0390931801AB
:100F5000809317010895EAE7F2E090E080E069E805
:100F60007AE240EB5AE22EEF39E2778366835187CB
:100F70004087338722879587848701963E968830FD
:100F8000910599F7089581152CE5920741F4209178
:100F90000D0130910E01232B11F490E080E00895B3
:100FA0000E94CE059C019091640280916502982B6D
:100FB00021F030936102209360029091660280914B
:100FC0006702982B21F030935F0220935E02E0913C
:100FD000D104F091D204309749F082E0809362020C
:100FE0000480F581E02D82E692E0099508959091C4
:100FF0006402803F59F48091650287FF0DC0109212
:10100000650291110BC010925C0208C0813F81F40F
:101010008091650218169CF3992381F080916602F5
:1010200090916702892B09F064C010925B020895C9
:10103000823F49F497FFF0CF1092640280916502DD
:101040008111ECCFE0CF833F19F41916ACF3E4CF54
:1010500020916602893F29F41216F4F61092660276
:10106000DBCF8A3F19F427FFD7CFF8CF2091670253
:101070008B3F29F427FFD0CF10926702CDCF8C3F52
:1010800019F41216CCF3C8CF843F31F48091630277
:101090008E7F80936302C0CF853F21F480916302ED
:1010A0008D7FF7CF863F21F4809163028B7FF1CF54
:1010B000873F21F480916302877FEBCF883F21F443
:1010C000809163028F7EE5CF8D3F31F480915D0288
:1010D0008E7F80935D02A0CF8E3F21F480915D02D0
:1010E0008D7FF7CF8F3F09F097CF80915D028B7F87
:1010F000F0CF089580915D0280FF0CC060911001D7
:1011000070E075956795759567956115710549F15D
:10111000862F089581FF06C06091100170E07595DB
:101120006795F3CF6091100182FD0BC090915B0237
:101130009923A1F060910F0180911001961738F06A
:10114000682F70E06038710500F38FE70895899F7C
:10115000C001112470E00E94F734F4CF61E070E028
:10116000D7CF81E0089580915D026091F203709184
:10117000F30380FF16C020911401269FC001279F12
:10118000900D1124BC01769567957695679560382A
:10119000710508F043C06115710509F441C0862F3F
:1011A000089581FF0BC020911401269FC001279F45
:1011B000900D1124BC0176956795E9CF82FF09C097
:1011C000809114019B01829FB001839F700D1124B7
:1011D000DECF20915C022223D1F290911301809105
:1011E0001401482F50E0291748F0CB01849FB0012B
:1011F000859F700D949F700D1124C9CF289F900179
:101200001124269FA001279F500D369F500D1124B9
:10121000692F70E0CA010E94E334B9CF8FE70895C7
:1012200081E00895803F31F40E94B3088195809356
:1012300065020895813F19F40E94B308F8CF823FF8
:1012400031F40E94B3088195809364020895833F2E
:1012500019F40E94B308F8CF893F29F40E947A0854
:101260008093660208958A3F21F40E947A0881954E
:10127000F7CF8B3F31F40E947A0881958093670203
:1012800008958C3F19F40E947A08F8CF843F31F416
:10129000809163028160809363020895853F21F409
:1012A000809163028260F7CF863F21F480916302D0
:1012B0008460F1CF873F21F4809163028860EBCF97
:1012C000883F21F4809163028061E5CF8D3F31F446
:1012D00080915D02816080935D0208958E3F21F4CC
:1012E00080915D028260F7CF8F3FB9F780915D02F8
:1012F0008460F1CF80E00895F894E82FE295EF70D4
:10130000F0E031A1282F2F7081E090E001C0880F1C
:101310002A95EAF7982F9095932391A392A1892B70
:1013200082A3789408959091DA0492FF06C0282F42
:1013300028712830F9F4877F846093FF06C0282F36
:1013400028712831F1F4877E84612091DB0420FF2D
:1013500006C0382F38713830D9F4877F816021FF7B
:1013600006C0282F28712831D1F4877E816194FD31
:10137000877E0895282F24712430F9F68B7F8860AA
:10138000DCCF282F2471243101F78B7E8861DDCFDB
:10139000382F3171313019F78E7F8860E0CF282FD8
:1013A0002171213121F78E7E8861E1CFCF93DF93C8
:1013B000EC0182389105B1F108F040C0813391050C
:1013C00009F49DC048F58932910509F48DC08A97CA
:1013D00009F49CC0C11521E5D20708F0C3C0C115AE
:1013E00030E5D30708F01EC1C83ED10508F0A3C000
:1013F000C03ED10588F5C83AD10508F08EC0C53A7F
:10140000D10508F007C1C130D10531F1209721F194
:10141000C430D10508F545C08533910509F45FC096
:10142000C997C1F68091DA04837009F044C18091B4
:10143000DB0483FF11C0C9E2D0E00EC0833E9105FA
:1014400099F170F4803E910501F1823E910511F60B
:101450008091DA0482FD21C0CE01DF91CF91089501
:10146000863E910561F1873E910571F1843E9105BB
:1014700009F0B0CF8091DB0481FFEECF8091DA04D8
:10148000C7EED0E084FD0DC0E7CF8091DA0480FD87
:1014900033C09091DB0490FFDFCFC3EED0E084FF38
:1014A000DBCFD0E0C0E0D8CF8091DA0482FD00C16C
:1014B0009091DB0490FDFFC084FFCECFF2CF8091EE
:1014C000DA0483FDDDCFC8CF8091DA0483FDF6C056
:1014D0009091DB0491FFF0CFC4EED0E0BDCF8091BE
:1014E000DA0485FFB9CFA7CF8091DA0485FDE9C082
:1014F0008091DB0483FFB0CFC9E3D0E0ADCF809112
:10150000DA0486FFA9CFCAE2D0E0A6CF8091DA0440
:1015100086FFA2CFC1E3D0E09FCFCF3BD10508F635
:10152000C85AD0E0CC0FDD1FC95DDE4F0990D881CD
:10153000C02DD46491CFC11540E2D40758F4C11531
:1015400081E0D80708F088CFC03FD10508F4A9CFC3
:10155000D06582CFC11520E4D20708F4A2CFDF7096
:10156000D06A7ACFC11535E5D30718F5C11544E522
:10157000D40708F085C0C11583E5D80708F06CC012
:10158000C11522E5D20708F462C0CE018370992705
:1015900021E030E002C0220F331F8A95E2F7C695A2
:1015A000C69580E2C89FE0011124C22BD32BDC68D2
:1015B00053CFC11539E5D307A8F4C11548E5D407C1
:1015C00008F063C0C11586E5D80708F06ACF8C2FF4
:1015D0000E949309C82FD0E0DC2FCC27CC27DF71E5
:1015E000D0623ACFC1152AE5D20708F453C0CE0124
:1015F00090568115904208F054CF8D2F8F710E9424
:10160000930990E0982F882788279F719C012C2BA5
:10161000E901E6CFC55AD0E0CC5DDE4FC881D0E00D
:10162000D0641ACF2C2F26952695237040E2249F54
:10163000900111248C2F8370C1E0D0E002C0CC0F48
:10164000DD1F8A95E2F7C22BD32BDD6805CFDC2F97
:10165000CC27C16FD06A00CFCE018370992721E0DB
:1016600030E002C0220F331F8A95E2F7C695C69577
:1016700040E2C49FE0011124C22BD32BDA68ECCEE8
:10168000DC2FCC27C46FD06AE7CEDC2FCC27C06F0D
:10169000D06AE2CE8C2F8F700E94930934E0D695E9
:1016A000C7953A95E1F7CF709C2FEC01D069D4CE65
:1016B000C2EED0E0D1CEC0EED0E0CECEC6EED0E0CD
:1016C000CBCEC5E3D0E0C8CE80912A02882331F08A
:1016D00010922A0210922902109228020895CF93A4
:1016E000C82F8091DB0482FF0CC080912A028C17E6
:1016F00041F00E94CE059093290280932802C09366
:101700002A02CF910895809590910F059823909388
:101710000F05089580959091C90398239093C9036C
:1017200008959091C903892B8093C903089510925D
:101730000702109206021092050208958091EC03B0
:101740009091ED03892B89F00E94CE05209128020B
:1017500030912902AC01421B530B81E02091EC0334
:101760003091ED034217530708F480E0817008952B
:1017700090911B019923D1F09091DA0497FF16C044
:10178000E82FE695E695E695EE31E0F4F0E0EC57CB
:10179000FE4F282F277081E090E001C0880F2A9526
:1017A000EAF780959281892382830895E6E8F1E043
:1017B0009191891303C0DF0111971C9291E0EC38DD
:1017C000F907B1F70895209104029091C3012913FC
:1017D00002C080E0089530E0F90153E0EE0FFF1FF2
:1017E0005A95E1F7EC53FE4F5181561306C05081D4
:1017F000581303C05281541304C02F5F3F4F27700A
:10180000E6CF81E00895809104029091C30198137E
:1018100001C008958F5F8770FACFA82FA77023E0CB
:10182000969587952A95E1F7FC01EE0FFF1FE80FCB
:10183000F91FE60FF71F50E040E080E0219130E013
:101840000A2E02C0369527950A94E2F721703327B5
:10185000042E01C0220F0A94EAF7822B4F5F5F4FDC
:101860004330510559F70895903FC9F0943080F402
:101870008A30A8F4282F30E06CEA71E0A901EAE090
:101880009E9F400D511D1124CA010E940D0C089508
:101890009C5F923020F469EA71E090E0F6CF80E03E
:1018A0000895262F277091E001C0990F2A95EAF735
:1018B00023E0769567952A95E1F7FB01EE0FFF1F70
:1018C000E60FF71FE40FF51F50E040E0682F70E0CF
:1018D0008191DF0111979B01042E02C03695279557
:1018E0000A94E2F7217021952827292328272C9391
:1018F0004F5F5F4F4330510559F70895282F862FCA
:10190000903F79F0943070F42A3058F4622F70E0F0
:101910002AE0929F600D711D11244CEA51E00E9453
:10192000510C08959C5F9230E0F7622F70E049EA15
:1019300051E0F5CF92959F70963091F058F4925FF8
:101940009F70923058F4803F19F030F4883E30F4A4
:1019500081E008959A5FF4CF843FD1F380E0089549
:10196000883EB0F3813FD1F7F3CF9C013A95211522
:101970003F4150F5FC01EE27F170BC016627727003
:10198000AC01442754709C012227387094FF0EC08C
:1019900080E1EF2B09F480E0672B09F08062452B92
:1019A00009F08064232B89F08068089581E0EF2B93
:1019B00009F480E0672B09F08260452B09F0846010
:1019C000232B19F08860089580E008958093DC044B
:1019D0007093DE046093DD04809104058430F9F493
:1019E0008093E9008FEF9091E800815095FD06C04B
:1019F00095ED9A95F1F700008111F5CF8091E800FF
:101A000085FF0DC050E040E063E070E08CED94E0B5
:101A10000E947B048091E8008E778093E80008950F
:101A2000BC0184E00E94E60C0895BC0183E00E94A2
:101A3000E60C08959C0184E08093E9009FEF80917B
:101A4000E800915085FD06C085ED8A95F1F700000C
:101A50009111F5CF8091E80085FF0CC050E040E087
:101A600066E070E0C9010E947B048091E8008E77F7
:101A70008093E8000895CF93DF93EC0180911B01E0
:101A80008823B1F18091DA0487FF32C060E284E0FC
:101A90008093E9008FEF9091E800815095FD06C09A
:101AA00095ED9A95F1F700008111F5CF8091E8004E
:101AB00085FF1BC080911B0170E050E040E0811168
:101AC00004C050E040E068E070E0CE010E947B047A
:101AD0008091E8008E778093E80080E2FE01A2EE1C
:101AE000B4E001900D928A95E1F7DF91CF910895CE
:101AF00068E081E0CDCF81E08093E00080E28093D8
:101B0000D8001092C9008FE19EE40197F1F700C060
:101B1000000087E090EBDC018093100590931105A5
:101B2000A0931205B093130588E19CE00FB6F894DA
:101B3000A895809360000FBE90936000FFCF01973F
:101B400008F40895EFE9FFE03197F1F700C00000D5
:101B5000F6CF0F931F93CF93DF930AEE13E0C7E7FF
:101B6000D1E0CE010E948535F80181938F01219645
:101B7000CB39F1E0DF07A9F7CCE8D5E0FE0185918C
:101B80009491009711F0FC0109952C96F6E0C83865
:101B9000DF07A1F7DF91CF911F910F910895FF9279
:101BA0000F931F93CF93DF93F42E843040F5611190
:101BB00026C024E0829F8001112409591E4F82E033
:101BC00090E0442311F090E080E0800F911F0E948C
:101BD0008535C82FD0E0DC2FCC2783E090E0FF20B4
:101BE00011F081E090E0800F911F0E9485359E01E9
:101BF000282BC901CDB7DEB7E5E00C94413590E064
:101C000080E0F8CF0F931F93CF93DF93843030F5AC
:101C1000643020F54A3010F5C42FD0E0CC0FDD1F22
:101C200024E1629FC00DD11D112430E5839FC00DBA
:101C3000D11D1124CE0187960E948535082F10E012
:101C4000102F0027CE0188960E9485359801282BF9
:101C5000C901DF91CF911F910F91089590E080E02D
:101C6000F8CF462F672F2091C7033091C803232B4D
:101C7000F9F4703F39F4403FD9F48091C503909155
:101C8000C60308958430A0F4743028F44A3080F4F8
:101C90000E94020E08957D3F39F4411109C041E0D0
:101CA00060E00E94CF0D08957C3F11F44423C1F3FE
:101CB00090E080E00895CF92DF92FF920F931F9300
:101CC000CF93DF936C0100910E0580912B02082BBE
:101CD000C7E0D0E010E0FC2EC8010C2E02C09595A4
:101CE00087950A94E2F780FD0CC02197A0F7F12CAC
:101CF0008F2DDF91CF911F910F91FF90DF90CF90AB
:101D00000895B6018C2F0E94310E0E94D6090197CA
:101D100061F3EECFCF93DF93EC010E945B0EBE0127
:101D20000E94310E0E94D609DF91CF910895CF9382
:101D3000DF93EC014B815C81698188810E94B90647
:101D4000811110C08E819F81009739F00E94D609C1
:101D50000E949A0CDF91CF910895888199810E9409
:101D60008A0EF6CF80E0F6CFA5E0B0E0EAEBFEE029
:101D70000C94273549835A8389819A81662399F087
:101D8000222389F00E945B0E182F682F89819A8187
:101D90000E947E0C69817A81812F0E94310E2596E6
:101DA000E3E00C9443350E94340C182FF3CFFC0170
:101DB000262F86819781009739F440815181628175
:101DC000738184810E94B40E089583E290E00E94A2
:101DD0008535873489F484E290E00E948535813C22
:101DE00059F485E290E00E94853591E0843509F050
:101DF00090E0892F8170089580E0FCCFCF9384E03C
:101E000090E00E948535C82F82E290E00E948535DF
:101E1000982F8C2FCF910895DB01FC0132962591EC
:101E200034914217530758F0FC0134966591749130
:101E3000A901CD010E94653590E080E008958FEF03
:101E40009FEF08950F931F93CF93DF930AEE13E054
:101E5000C7E7D1E0CE010E948535F80161918F017D
:101E6000681719F0CE010E9493352196CB39F1E025
:101E7000DF0781F7DF91CF911F910F910895DA016C
:101E80009C012E5F3F4FF90145915491F901259135
:101E90003491A217B30758F0FC01349685919491C0
:101EA0000E9465350E94220F90E080E008958FEF38
:101EB0009FEF0895CF93DF93CBE8D2E060E0CE01AF
:101EC0000E9493352196C11584E0D807B9F7DF91B8
:101ED000CF9108950F931F93CF93DF93142F022F69
:101EE0008430F0F461111CC094E0899FE00111245A
:101EF000C959DE4F82E090E0442311F090E080E089
:101F0000632F8C0F9D1F0E94933583E090E0112377
:101F100011F081E090E0602F8C0F9D1F0E9493359F
:101F2000DF91CF911F910F9108951F93CF93DF936E
:101F3000122F8430E0F46430D0F44A30C0F4C42F5F
:101F4000D0E0CC0FDD1F94E1699FC00DD11D11249D
:101F500090E5899FC00DD11D1124632FCE01879676
:101F60000E949335612FCE0188960E949335DF91B0
:101F7000CF911F910895CF93C82F6FEF811167E420
:101F800083E290E00E9493356FEFC11161EC84E22F
:101F900090E00E9493356FEFC11164E585E290E017
:101FA0000E949335CF910895CF93C92F682F84E075
:101FB00090E00E9493356C2F82E290E00E9493356E
:101FC000CF9108959B01883070F49AE0899FB00109
:101FD000112465567E4F4AE050E0C9010E947535D4
:101FE00090E080E008958FEF9FEF0895AAE0B0E0C1
:101FF000ECEFFFE00C9428359C0137552F3F31055D
:1020000009F068F4BE016F5F7F4F0E94E20F892BD9
:1020100031F489859A852A96E2E00C9444358091C2
:10202000020490910304F7CFAAE0B0E0EAE1F0E106
:102030000C941E350DE413E08BE3C82E83E0D82EFC
:102040009BE3E92E92E0F92E27E0922E3AE3A32EAD
:1020500033E0B32E88248394D6010D931D936D0134
:102060004AE050E0B701CE0101960E947535F801B3
:102070003896DF01892D1D928A95E9F789819A8129
:10208000D80111969C938E938F8112968C93129700
:102090008D8113968C931397888514968C9314973F
:1020A000898515968C9315978B819C8117969C93A7
:1020B0008E93169718961C9218978A8587FF3CC0B6
:1020C0001E961C921E921D9780FF03C0D801189681
:1020D0008C9281FF04C0F80190859260908782FF06
:1020E00007C0D80118969C911897946018969C93F5
:1020F00083FF04C0F80190859860908784FF07C033
:10210000D80118969C911897906118969C9385FF1A
:1021100004C0F801808580628087015F1F4FFAE06C
:10212000EF0EF11C8BE8E81682E0F80609F094CF78
:102130002A96ECE00C943A35F801B686A586C4CF11
:10214000AAE0B0E0E6EAF0E10C942235EAEEF2E033
:1021500080E5DF011D928A95E9F7E6E7F4E088E380
:10216000DF011D928A95E9F78AEEC82E82E0D82E0B
:102170007F010BEE11E0F701D182C0824AE050E00E
:10218000B801CE0101960E94753588E0FE013196B6
:10219000D60101900D928A95E1F789859A85D7013C
:1021A00013969C938E931297BAE0CB0ED11CE7E066
:1021B000EE0EF11C065F1F4F0B33F2E01F07D9F63E
:1021C0002A96E8E00C943E35A8E0B0E0EAEEF0E1B3
:1021D0000C941A358E010F5F1F4F88E0F8011192A1
:1021E0008A95E9F795E5E92E91E0F92E680129E550
:1021F000422E21E0522E66246394712C43E6842EF5
:1022000041E0942EF70181917F018F3F09F445C091
:10221000F894E82FE295EF70F0E021A18F70A30110
:1022200002C0440F551F8A95E2F7CA01922F982BDE
:1022300091A392A18095892382A3789400C0E9E5B7
:10224000F1E021E030E0B12CA12C41914F3F09F4A5
:1022500064C0A42FA295AF70B0E090968C9190E0EE
:102260004F7002C0959587954A95E2F780FD55C05D
:10227000C901A82AB92A220F331F8E169F0629F7F3
:10228000F701319780818F3F11F00E947C0950EA5D
:102290005A95F1F7F601B182A082F2E0CF0ED11C7F
:1022A0004E145F0409F0AECF48E050E0B8018FE271
:1022B00092E00E945835892B99F188E0F801AFE24D
:1022C000B2E001900D928A95E1F781E080932E02B1
:1022D0000E94CE0590932D0280932C0280912C02B7
:1022E00090912D020E94B3050597F0F048E050E070
:1022F0006FE272E083E592E00E945835892BC9F0C5
:1023000088E0EFE2F2E0A3E5B2E001900D928A9559
:10231000E1F781E010922E0208C090E080E0A9CFA2
:1023200080912E028111DACF80E02896E0E10C94B2
:10233000363580E0EFCFCF938091C90390910F05A0
:10234000892B8093840180912A02882329F180912E
:10235000EC039091ED03892B29F00E949E0B8111D3
:102360000E94640B8091840190912A02892B8093B2
:10237000840180911B01882309F447C08091DA040D
:1023800087FF43C08EE1E6E8F1E090E0815008F07D
:102390003EC091110E94640BC091C604C09580910B
:1023A0008401C8238091C704C82BC093840140E2F4
:1023B00050E068E072E084E891E00E945835892B93
:1023C00011F180E2E4E8F1E0A8E0B2E001900D92C2
:1023D0008A95E1F7E091D104F091D204309799F019
:1023E00080911B01882349F08091DA0487FF05C0A2
:1023F000C093850186E0809384010280F381E02D03
:1024000084E891E00995CF91089586E0BCCF2191B1
:10241000222309F4BBCF9F5FB9CFCF93DF93EC01A9
:10242000EA85FB85309719F06C857D8509958B8150
:102430000E94830B8C810E948A0B0E949B1186E074
:10244000FE0111928A95E9F7DF91CF910895CF931C
:10245000DF93EC018D8181FD15C082608D838091B9
:102460000F059B81892B80930F058C810E94910B16
:102470000E949B11E885F985309721F06C857D8558
:10248000CE0109951092CE041092CD048D8180FD6D
:1024900003C0CE010E940D12DF91CF91089580916B
:1024A0001901877F8093190182E00E94830B80913C
:1024B000190184FF06C08F7E8093190182E00E947B
:1024C000910B8091190185FF06C08F7D80931901C2
:1024D00080E20E94910B0E949B11089590E080E0A1
:1024E0000E94250690E080E00E940F0610920F05E2
:1024F0000E949B1186E0E2E6F2E0DF011D928A95E0
:10250000E9F710925C0210925B0210925D020E9449
:10251000D007089580930E050E946E120895809151
:102520000E05982F9670963021F488600E948A12CA
:102530000895877FFBCF21E030E001C0220F8A950C
:10254000EAF7209580910E0582230E948A12089551
:10255000909107028095892380930702282F277086
:1025600091F4282F082E000C330B9217130659F004
:102570009091DB0492FF07C08595859585950E9413
:102580009B120E94970B08959091DB0492FB2227E7
:1025900020F9281769F080FB92F99093DB04809171
:1025A000DA049091DB040E94D40F82E00E94A8120A
:1025B000089521E030E001C0220F8A95EAF780916A
:1025C0000E05822B0E948A1208959091DB0492FFDF
:1025D00010C098E0899F90011124622B609307023C
:1025E0000E94D9120E94CE059093060280930502A4
:1025F00008950E94D912089580932B020E946E12B2
:1026000008951092C90380911B01E6E8F1E0882348
:1026100061F08091DA0487FF08C08EE1DF011D922E
:102620008A95E9F70E946E12089586E0F7CFAAE234
:10263000B0E0EDE1F3E10C94273586E095E02091E0
:10264000F100DC012D93CD01B5E08E309B07B9F789
:1026500080910705833009F472C0B8F4813009F421
:1026600049C0823009F4B3C08091E80083FF96C26C
:1026700080910605909107059A3008F08FC2E92FE6
:10268000F0E0EF52FA4C0C940B358A3009F48EC00E
:102690008B3009F471C0893039F780910605813299
:1026A00019F780910A0590910B05009711F0029798
:1026B000D9F68091E800877F8093E8008091E80058
:1026C00082FF38C09091F3008091F200029731F4BC
:1026D0008091F100813011F0863021F48091F10079
:1026E0008093E1048091E8008B778093E8000E945A
:1026F000A504BACF80910605813A09F0B5CF809143
:10270000E800877F8093E80080910A0590910B058F
:10271000892B61F460E282EE94E070E00E94510542
:102720008091E8008B778093E8009ECF60E090E096
:1027300080E0F3CF809104058111C0CF95CF8091C7
:102740000605813A09F090CF80910A0590910B051A
:10275000892B09F089CF8091E800877F8093E8007A
:102760008091E80080FFFCCF80911B018093F100F5
:102770008091E8008E77B9CF80910605813209F00B
:1027800073CF80910A0590910B05892B09F06CCFCE
:102790008091E800877F8093E8000E94A5048091E3
:1027A000080580931B010E9401135ECF80910605EE
:1027B000813209F059CF8091E800877F8093E8004B
:1027C0000E94A504809109058093E0044DCF80917B
:1027D0000605813A09F048CF8091E800877F809311
:1027E000E8008091E80080FFFCCF8091E004BECF3C
:1027F000803899F0823809F0D1C180910A058F7034
:10280000873008F0CBC18093E9008091EB0085FB15
:10281000882780F91092E90006C080910205909106
:102820000305911182609091E800977F9093E800F2
:102830008093F1001092F1008091E8008E77AAC198
:10284000882309F498C1823009F0A8C18091080555
:1028500081119BC180910A058F702FEF280F2630C0
:1028600008F09CC18093E9002091EB0020FF8DC10E
:10287000933031F48091EB0080628093EB0085C14E
:102880009091EB0090619093EB0021E030E001C06B
:10289000220F8A95EAF72093EA001092EA008091CD
:1028A000EB008860EACF811179C1109108051F778C
:1028B0008091E3008078812B8093E3008091E80091
:1028C000877F8093E8000E94A5048091E80080FF44
:1028D000FCCF8091E30080688093E30082E01111D7
:1028E00083E0809304055AC18058823008F056C1B5
:1028F00020910805309109052C3DE3E03E07A1F544
:1029000083E08A838AE289834FB7F894DE011396C5
:1029100020E03EE051E2E32FF0E050935700E491D5
:1029200020FF03C0E295EF703F5FEF708E2F90E0C5
:10293000EA30C0F0C7968D939D932F5F243159F7ED
:102940004FBF8091E800877F8093E8006AE270E0E3
:10295000CE0101960E9451058091E8008B7780930B
:10296000E8001CC1C096E7CF80910A0590910B0545
:10297000432F55274330510509F44AC078F54130BB
:10298000510509F485C08BE590E0EEE7F6E04230B2
:10299000510509F003C12091E800277F2093E8004A
:1029A00020910C0530910D058217930708F49C01C6
:1029B00040E02115310509F070C041116EC08091D1
:1029C000E80082FDC9CF80910405882329F2853073
:1029D00019F28091E80083FFF2CFBECF413251055A
:1029E00009F447C04232510509F0D8C0833091053F
:1029F00008F0D4C0FC01EE0FFF1FEA58FE4F019013
:102A0000F081E02D8D589E4FDC018C9190E01DC02F
:102A1000332721303105E9F02115310579F02230D5
:102A20003105F9F02330310509F0B8C0EBEEF6E0DE
:102A3000E4918E2F90E0EBEEF6E007C0EDE2F7E0D8
:102A4000E4918E2F90E0EDE2F7E0009709F4A6C044
:102A5000A2CFE7E1F7E0E4918E2F90E0E7E1F7E025
:102A6000F4CFE9E0F7E0E4918E2F90E0E9E0F7E0C1
:102A7000ECCF8330910508F091C0880F991FFC01BD
:102A8000E458FE4F0190F081E02D89E090E083CF83
:102A900082E190E0E9EDF6E07ECF809104058823A5
:102AA00009F45ACF853009F457CF8091E80083FDAF
:102AB00053CF8091E80082FD82CF8091E80080FFB3
:102AC00078CF9091F3008091F2002115310519F033
:102AD0008830910550F041E0089709F040E080917E
:102AE000E8008E778093E80064CF44914093F10032
:102AF0003196215031090196E8CF803809F04EC057
:102B00008091E800877F8093E8008091050580939D
:102B1000F10092CE811142C0109108051230F0F5FB
:102B20008091E800877F8093E800109305050E945C
:102B3000A504112311F084E005C08091E30087FD16
:102B4000FACF81E08093040542E061EC81E00E94CD
:102B5000C40442E261EC84E00E94C40442E261ECFD
:102B600082E00E94C40442E260EC83E00E94C4045C
:102B70008091040513C080910805813079F481E0CB
:102B8000933009F080E0809303051092E900809172
:102B9000E800877F8093E8000E94A5048091E80008
:102BA00083FF0AC08091E800877F8093E8008091CE
:102BB000EB0080628093EB00AA96E3E00C9443352F
:102BC000EAEEF3E0128E138E8FEA90E09183808319
:102BD00025E0248F88E893E1938382838AE090E064
:102BE0009583848344E150E05783468348E050E076
:102BF00051874087938782876EE170E0758764878D
:102C00009787868780E590E0918B808B538B428BF2
:102C100048E250E0558B448B42E350E0578B468BA3
:102C200048EC50E0518F408F158E178E168E91A371
:102C300080A322A30E94220F0E9401131092DB04A2
:102C40001092DA04EBEDF4E080818460808380915F
:102C5000DA049091DB040E94D40F0E94A90D08951C
:102C6000AEE1B0E0E6E3F6E10C941B3560900D01B7
:102C700070900E0181E090E090930E0180930D0121
:102C800010E000E02EE2A22E25E0B22E30E3832EEB
:102C900035E0932E82E3C82E85E0D82E512C1EC03D
:102CA00001151105F1F4F701EE0FFF1FEC0DFD1DED
:102CB000259134914E2D652D80E00E94950F8FEF68
:102CC000E81AF80AEAE0EE16F10451F7F4E1CF0E43
:102CD000D11C539484E0581609F474C0F12CE12CF3
:102CE000DFCF21E030E04E2D652D802FE6CFF501BE
:102CF0002591349141E060E080E00E946A0FF40188
:102D00002591349140E060E080E00E946A0F0F5FFF
:102D10001F4F0430110509F0BDCF0E94E0151A8243
:102D200019821C821B821E821D8218861F8288ECDB
:102D300090E09A8789870BE911E04AE050E0B801FA
:102D4000CE0101960E94B735065F1F4F0B3EE1E0B2
:102D50001E0799F77E01FBE0EF0EF11C8AE0F701F8
:102D600011928A95E9F74AE050E0B801C7010E9444
:102D7000B735065F1F4F0B33F2E01F07A1F77E0147
:102D800085E1E80EF11C8AE0F70111928A95E9F7D6
:102D90008FEF9FEF9A8F898F87E08E8F4AE050E008
:102DA000B801C7010E94B735065F1F4F0B38F2E02C
:102DB0001F07A1F770920E0160920D016E96EFE071
:102DC0000C9437350115110509F491CF21E030E05D
:102DD00041E060E0802F0E946A0F21E030E040E097
:102DE00060E0802F92CF80E00E94BB0F60E086E21F
:102DF00090E00E9493350E9430160E945A0F81E0A5
:102E00000E94BB0F0895CF92DF92EF92FF928FEF57
:102E10009FEF4430510508F46AC0FB01C080D180A7
:102E2000E280F3800E9401138091DA04C0FA80F9F5
:102E3000B701A601769567955795479540FB81F9AF
:102E4000B701A60122E076956795579547952A9593
:102E5000D1F740FB82F9B701A60133E0769567957B
:102E6000579547953A95D1F740FB83F9B701A601ED
:102E7000E4E07695679557954795EA95D1F740FB3D
:102E800084F9B701A601F5E07695679557954795C2
:102E9000FA95D1F740FB85F9B701A601A6E0769532
:102EA000679557954795AA95D1F740FB86F9B701E5
:102EB000A601B7E07695679557954795BA95D1F7EE
:102EC00040FB87F98093DA048091DB04D0FA80F923
:102ED000D1FACC24C0F8C0FA81F98093DB04809148
:102EE000DA049091DB040E94D40F90E080E0FF9020
:102EF000EF90DF90CF9008950E9401132FEF84E3AD
:102F00009CE0215080409040E1F700C0000088E143
:102F10009CE00FB6F894A895809360000FBE909344
:102F20006000FFCF882321F00E94830B0E949B1139
:102F30000895882339F090910F05982B90930F05F1
:102F40000E949B110895882321F00E948A0B0E9401
:102F50009B110895882321F00E94910B0E949B11E0
:102F60000895882379F19CEF980F913A28F40E94F4
:102F7000B80B0E949B11089590E2980F983050F47E
:102F8000877091E001C0990F8A95EAF7892F0E9416
:102F90008A0BEFCF9BE5980F933028F490E080E008
:102FA0000E942506089598E5980F973128F490E03F
:102FB00080E00E940F060895803F20F00E94F707EE
:102FC0000E94D0070895FF920F931F93CF93DF9332
:102FD000F82E0091CB041091CC040115110509F4D1
:102FE00049C01092CA041092C9041092C6041092EB
:102FF000C704D8011696CD91DC919E013A95211512
:103000003F4108F4D07ED1E0C11101C0D0E0D80129
:103010001996ED91FC911A97309731F01B966D91AE
:103020007C9180E00995D823DD2339F08CEF8C0F5B
:10303000813A30F58C2F0E94B80BFF2099F0E09177
:10304000CB04F091CC04808584FD0CC08091C80431
:10305000882341F0808191819C0121503109203BDE
:103060003D45A0F00E949B111092CC041092CB041D
:103070001092C804C801CDB7DEB7E5E00C94413525
:103080000E949B118C2F0E94B117D7CF0E94480637
:10309000E9CFCF93DF93EC010E94B117CE010E94DC
:1030A000B50C9E01205E31092830310510F0CD2B82
:1030B00029F40E94A317DF91CF9108950E949217DF
:1030C000FACFCF93C82F8823C1F18CEF8C0F813AB0
:1030D000B0F580911B01882301F18091DA0487FF0C
:1030E0001CC0EC2FE695E695E695F0E0EC57FE4F18
:1030F000828190E04C2F477021E030E002C0220F27
:10310000331F4A95E2F782239323892B79F08C2F82
:103110000E94B80B0E949B1109C0E6E8F1E0819182
:10312000C817A9F381E0EC38F807C9F76C2F84E8D9
:1031300091E00E94DA050E949B11CF91089580E2F0
:103140008C0F883048F4C77081E001C0880FCA95A1
:10315000EAF70E94910BEFCFEBE5EC0FE33040F480
:10316000F0E0EC5DFE4F808190E00E942506E5CF07
:10317000E8E5EC0FE73150F4F0E0EE0FFF1FE95DFA
:10318000FE4F808191810E940F06D7CFC03FA8F2E9
:103190008C2F0E9412090E94D007CFCF1F93CF938C
:1031A000DF93182FC0910A04D0910B04893321F0CA
:1031B000C0910804D0910904812F0E9461182097C2
:1031C00039F4812F0E94B117DF91CF911F9108959B
:1031D0008FE99FE00197F1F700C000002197EFCF42
:1031E000B0E0A0E0E6EFF8E10C942035EC018AE0D5
:1031F000A82E2881222309F48FC02130C9F5998196
:103200008A81913021F422960E94CE1805C0923016
:1032100029F422960E9461182196EBCF933021F475
:1032200022960E94B117F8CF943011F02196F4CF76
:10323000229630E020E0AE014F5F5F4F8053990B44
:103240008A30910550F02150310930F38FE99FE029
:103250000197F1F700C00000F6CFA29EB001A39E37
:10326000700D11249C01260F371F8981EA01E3CFDD
:10327000E22FF0E0EF59F84FB490822F86958695B3
:10328000869590E0FC01EF5AF84FE4902770F12CFE
:10329000022E02C0F594E7940A94E2F731E0E322AB
:1032A000FF24FC01EF5BF84FC490D12C022E02C02A
:1032B000D594C7940A94E2F731E0C322DD24FC01DF
:1032C000EF5CF84F049110E002C0159507952A9520
:1032D000E2F701701127E114F10419F081EE0E9468
:1032E0006118C114D10419F086EE0E9461188B2D6B
:1032F0000E94CE18C114D10419F086EE0E94B117B5
:10330000E114F10419F081EE0E94B11701151105C5
:1033100009F482CF8CE278CFCDB7DEB7EAE00C9427
:103320003C35CF93DF93EC010E94B50C9E01205EEB
:1033300031092830310510F0209741F40E94AA1776
:103340008C2F0E946118DF91CF9108950E949917E8
:10335000F7CF662329F020910F05226020930F05F7
:103360009C013056211540E2340720F0305E2115D3
:10337000304108F499270E9491190895B0E0A0E027
:10338000E4ECF9E10C9423357C018B01D42E80917F
:10339000190182FF8CC0C0911004D0911104CE1588
:1033A000DF0521F0E114F10409F081C080911901D9
:1033B0008B7F8093190181FD73C080910E049091E1
:1033C0000F04A801481B590B81E02091170130918F
:1033D00018014217530708F480E08170F82E80919D
:1033E0001901F0FA81F980931901FE0183E0F69545
:1033F000E7958A95E1F7EE71FF27E653FC4F2081B0
:103400003181AE014F70552781E090E002C0880FF6
:10341000991F4A95E2F7FF2009F444C0822B932BB1
:10342000918380838091C90381FF08C08091190135
:1034300080618093190182E00E948A0B8091C90308
:1034400085FF08C08091190180628093190180E294
:103450000E948A0B6F2DCE010E94A919DD2031F048
:103460008091050485FF02C086FF3BC0809108045F
:10347000909109040E949F0D809110049091110475
:103480009C013056211540E2340720F0305E2115B2
:10349000304108F499270E9449180E944F121DC01C
:1034A00081E09BCF8095909582239323B9CFC7016C
:1034B000992797013056211540E2340728F0305EF5
:1034C0002115304108F0C7010E944918809110046D
:1034D000909111048E159F0501F310930F04009332
:1034E0000E04CDB7DEB7E7E00C943F3568EE7EEF13
:1034F00090E080E00E94B13560E082E090E00E94C0
:10350000933560E083E090E00E94933510922B02A7
:1035100060E084E090E00E94933564E082E290E015
:103520000E94933560E085E090E00E94933560E072
:1035300086E090E00E9493356FEF87E090E00E9474
:10354000933540E050E0BA0188E090E00E94A53554
:1035500060E08DE090E00E94933540E050E0BA01D9
:1035600088E190E00E94A53560E087E190E00E944C
:10357000933540E050E0BA018CE190E00E94A5351F
:1035800070E060E080E290E00E94B13540E050E001
:10359000BA0188E190E00E94A53580E00E94BB0F4F
:1035A0000E94F31640E050E0BA018FE090E00E94E4
:1035B000A53540E050E0BA0183E190E00E94A535D6
:1035C0000895A7E0B0E0E7EEFAE10C9418357C012D
:1035D000DC0113964D915C91149711966C911197A3
:1035E0008C910E94B9068111EEC061E0C7010E9472
:1035F000D70E8C01F70182818823E1F08091CD0400
:103600009091CE040097B1F00817190799F0FEE0E9
:103610008F9FC0011124FC01E158FD4F20812460DF
:10362000208386589D4FDC010D931C930E94271226
:1036300010920F05F7018281882311F40C943E2328
:10364000C80182519F45409710F00C9432238FEFB0
:1036500093E00E9485358111A6C07EEED72ED00E54
:103660000BE812E0D11036C019821A821B821C822C
:1036700099249A9468012FEFC21AD20AC8010E94B5
:10368000853589831A82882309F48DC0813009F039
:103690007FC0580132E0A30EB11CC6010E948535DF
:1036A000C82E8A83882309F47EC0C5010E9485350F
:1036B000D82E8FEF8C0D8330D8F4580143E0A40E40
:1036C000B11CDB82DD2021F0CE0101960E94F018B2
:1036D0008501D0CF0115F4E01F0709F464C0C801CB
:1036E0000E948535811101C0DA940F5F1F4FBACF58
:1036F0008BEF8C0D833030F5C8010396DB825C01C3
:10370000DD2031F3580154E0A50EB11C0E9485352F
:103710008C838823E9F28B819C818130AFEF9A07FB
:1037200010F0982F8827B6E0CB1631F0E7E0CE16E0
:1037300031F00E94782ACCCF0E94522AC9CF0E9431
:10374000D929C6CFF4E0CF12C3CF580124E0A20E8E
:10375000B11CC80103960E948535DD2021F1882324
:1037600011F18150990B989E9001999E300D112472
:103770004D2D4150550BCA01820F931F019708F43C
:10378000A7CFAFE9BFE01197F1F700C00000F6CF77
:10379000CE0101960E94F01856019ACF81E00E9456
:1037A000D9120E948F1280910702877061F0D701B1
:1037B00012968C91882339F08091DB0482FF03C03C
:1037C00082E00E94A8122796E2E10C94343581E051
:1037D0000E949B12E6CF82E0FBCF823009F08CC7BB
:1037E0008091740290917502892B09F485C72EE0AF
:1037F0002C9DC0012D9D900D1124FC01E158FD4F21
:1038000020812E7F208386589D4F0E94271274C7E7
:1038100081E080930001C7CF80910001882309F4E3
:1038200025C6480120EE821A910840902A02809114
:10383000A601482A8091C903482A38E083169104DA
:1038400008F086C098012770332781E090E001C01E
:10385000880F2A95EAF7552009F477C0482AD7013E
:103860008D919C910E94340C21E030E0F90102C05E
:10387000EE0FFF1F8A95E2F7FF83EE832090CB04C3
:103880003090CC046090A4017090A5011D822D8120
:10389000E22FF0E0EE0FFF1FE55CFC4FC080D1800F
:1038A000C114D10409F446C6411005C0D6011296D0
:1038B0008C91811189C0F601838190E02E813F8136
:1038C00082239323892B09F47FC08085982F9770DA
:1038D00009F487E038E08316910408F053C05520BE
:1038E00009F44CC086958170882309F46DC0D60117
:1038F000AD90BC900A151B0519F4552009F464C05D
:10390000C214D30409F460C0D6011D96ED91FC9158
:10391000309721F08081882309F456C0642DC601B8
:103920000E949906882309F44FC00A151B0509F067
:1039300002C70115110509F403C7511003C7A614E6
:10394000B70409F041C0512CFDC68095482287CFAD
:10395000552009F4D8C51093A5010093A4010E9435
:10396000C2056093C2047093C3048093C40490930F
:10397000C5041092CA041092C90471CF82FB882733
:1039800080F9B2CF552001F18170AECF0E94B117FE
:10399000F7C60497813A910558F46A2D84E891E0BE
:1039A0000E94DA05552009F461C50E949B11FBCEE7
:1039B0000E949B118FE39CE90197F1F700C0000082
:1039C0008A2D0E946118EECF9D819F5F9D835FCFFE
:1039D000FC01208131810217130709F040C5511005
:1039E00040C51092C80480E00E94E3173FC5902FA5
:1039F000812F84C5F901858181FFB0C5C9010E946D
:103A00000D12ACC580911901816080931901D4C554
:103A1000809119018E7F809319010E944F12CCC5AD
:103A2000809119018F7E013E110531F0053E11058F
:103A3000C9F4809119018F7D80931901809119013A
:103A400080FFC9C5D70112968C910832110528F55F
:103A50000E31110508F072C00430110580F5811196
:103A6000B6C5B9C5C8019056811540E2940720F04B
:103A7000905E8115904110F78091190182FFABC5CE
:103A80008091070481FDA7C524E432E040E0B6013F
:103A900090E080E00E94BE199EC50933110558F4DC
:103AA0000D32110518F40B321105C9F69091050479
:103AB00092FDD5CF08C004361105C1F3D0CF909147
:103AC000050494FDCCCF882309F4A8C080912A0274
:103AD0009091C903892B8D7FB1F11092110410923E
:103AE00010048091050481FD2EC0F80143E0F69595
:103AF000E7954A95E1F7EE71FF27E653FC4F9801F1
:103B00002F70332781E090E002C0880F991F2A951B
:103B1000E2F78095909520813181822393239183D0
:103B2000808360E0C8010E94A91980912A028D7FDC
:103B30000E946F0B82E00E94A81235CE909105047E
:103B400093FD8DCFC0CF88E0F701A4E4B2E00190EF
:103B50000D928A95E1F71092460210924802109257
:103B60004702809110049091110408171907D1F5AC
:103B70002091050425FF36C03091190131FF02C0A4
:103B800026FF30C020910E0430910F045601A21A76
:103B9000B30AB7010E94F60FA816B90618F580916E
:103BA000C90381FF08C080911901806180931901C8
:103BB00082E00E948A0B8091C90385FF08C0809132
:103BC000190180628093190180E20E948A0B609142
:103BD00019016695617080911004909111040E9402
:103BE000A919E1CD80912A029091C903982B2091C7
:103BF000190191FB21F9209319018D7F0E946F0B10
:103C00001093110400931004D0920F04C0920E047C
:103C1000809119018460809319018CCF970140E055
:103C2000B601C8010E94BE19BECD053A3DE5130795
:103C300009F4E5C408F050C001365DE5150709F444
:103C4000DEC40A358DE5180709F48AC108F063C19E
:103C50000115ACE51A0709F469C10E3D1C4509F4CC
:103C600072C1F70186819781009709F47DC10E9496
:103C7000D609182F092FF701D280C580C2943FE0E2
:103C8000C322809107028770C1F0AD2CDD20B1F016
:103C9000892F807F803421F080E2810F883068F0A6
:103CA0008091DB0482FF09C082E00E94A81280910B
:103CB00007028770AA24A3948111A12C902E9294BC
:103CC0002FE09222FBE0F91508F4DBC1E92DF0E0CA
:103CD000E552FA4C0C940B35C8018D5A9D4503975B
:103CE00008F0AFCF8CC48091DA04806207305CE5C5
:103CF000150791F108F4BFC08091DA0480642CC0EC
:103D00000D309CE5190709F4C4C090F48091DA04E1
:103D10008E7F0B30BCE51B07F9F08091DA048C60D4
:103D20000C30ECE51E07C0F08091DA048D7F14C0E2
:103D30000F30FCE51F0709F4BCC008F4AEC0003129
:103D40003CE5130709F4B9C08091DA048F7B013197
:103D50004CE5140709F07DC48093DA047AC40F3F60
:103D60005CE5150709F4B7C0A8F50A3F9CE51907FB
:103D700009F479C0C0F40431BCE51B0709F4B9C0EB
:103D800008F4A5C00531FCE51F0709F062C4809165
:103D9000DA0482FB992790F921E0922790FB82F9BF
:103DA00090FB83F9D9CF0C3F2CE5120709F479C0B9
:103DB00008F45DC00D3F4CE5140709F476C080910E
:103DC000DB0483600E3F5CE5150709F042C4809375
:103DD000DB043FC401368DE5180709F495C090F463
:103DE0000130ADE51A0709F48DC008F478C060E031
:103DF0000230EDE51E0709F02CC48EE090E00E9431
:103E0000933527C40D3AFDE51F07E9F060F4909162
:103E1000DA04892F8E7F90FF8160053A3DE5130714
:103E200009F49ACF16C40E3A4DE5140771F10F3A12
:103E30005DE5150709F00DC49091DB04892F877F9C
:103E400093FF8860C4CF8091DB048860C0CF8091ED
:103E5000DA04826081CF8091DA0484607DCF809122
:103E6000DA04886079CF8091DB048160B0CF8091E3
:103E7000DB048260ACCF8091DA0480616DCF0E9458
:103E800001138091DA04806867CF8091DB04877F1B
:103E90009ECF8091DA048B7F5FCF8091DA04877F99
:103EA0005BCF8091DB048E7F92CF8091DB048D7F8E
:103EB0008ECF8091DA048F7E4FCF8091DA048F7D90
:103EC0004BCF0E9401138091DA048F7745CF809108
:103ED000DA04837F41CF8091DB048C7F78CF80919F
:103EE000DB04982F909591708E7F892B90FB81F940
:103EF0006ECF0E9401139091DA04892F97FB87F906
:103F000080582ACF61E079CF9091DA04892F8F7E93
:103F100094FF806121CF0C35EDE51E07B9F010F15B
:103F2000073A1D4509F09DCE0E947C170E9401139F
:103F30003FEF44E35CE0315040405040E1F700C0C7
:103F400000000E947B0D0E94761AEECF8091DB0468
:103F500082FB882780F991E089270E94C41281CED4
:103F600081E0FBCF80E0F9CF82810081118188233D
:103F700069F0C8010E945B0ED82E682FC8010E940C
:103F80007E0CB8018D2D0E94310E71CEC8010E94A9
:103F9000340CD82EF6CF202F2F70B22E802F807F9A
:103FA00019F0B29490EFB922DD20A9F0BB2059F0AE
:103FB00080E2810F883010F0111107C08B2D0E9414
:103FC000910B0E949B11812F5AC080910F05B82A36
:103FD000B0920F05F6CF812F0E94B117BB2009F4D4
:103FE00050C080E2810F883010F0111104C08B2D79
:103FF0000E948A0B03C08B2D0E94830B0E949B1191
:1040000040C0302F3F70B32E802F807F803219F058
:10401000B29480EFB822112321F1113009F4AEC01F
:10402000DD2009F4B7C0CC2009F47FC020E0D7011F
:104030004C9111965C91119712966C911297139670
:104040007C91139714968C910E94B40E8091070472
:1040500081FDB9CFF701858180FFB5CF8F70858352
:1040600064C08091DB0482FD40C0DD20C1F1BB2033
:1040700029F08B2D0E94910B0E949B1180E00E94E1
:104080006118A92DA850BB0B149710F40E943B0691
:10409000812F902F0E949A0C8111C2C11092A80109
:1040A0001092A701AA20B1F08091070280FD12C0F2
:1040B000D70112961C928595859585950E94D912F7
:1040C000C7010E94E11A8091070285958595859523
:1040D0000E949B1260E0C7010E94D70E74CB80E063
:1040E0000E94B117BB2069F282CFDD2011F1C1100F
:1040F00004C080912A028B2919C041E0C41206C075
:1041000080912A028B290E946F0BBBCF80910604FD
:10411000823078F3C812EDCF0E94640B9091A60113
:104120008B2D892B89138093A6018B2D0E94AA17B2
:10413000A8CFC11003C00E94640B17C08091060471
:1041400051E0C51216C0823008F49BCF8091C9039C
:104150008B2109F496CF0E94640B9091A6018B2DC0
:104160008095892389138093A6018B2D0E94A31724
:1041700088CF823000F3C812DECF83CF80910C0449
:10418000DD2021F08C1508F47CCFCFCFC81608F0C5
:1041900078CFEBCFCC2049F380910A0490910B04A7
:1041A000193321F080910804909109040E949F0D19
:1041B000812F0E94B11765CF802F869586958370D9
:1041C00069F0813009F05DCF812F902F9370D1106D
:1041D00002C090E080E00E940F0653CF812F902F05
:1041E0009370D11002C090E080E00E94250649CF74
:1041F000812FDD2029F00E9412090E94D00741CFB3
:104200000E94F707FACF802F837091F5D11039CF34
:10421000412F429546954770440F440F812F8F7070
:10422000042E01C0880F0A94EAF7212F207114FF91
:1042300007C02FE030E001C0220F4A95EAF7209531
:10424000302F369536953370323069F050F4409106
:104250002B02313029F0822B84230E94FC1211CFD3
:10426000842B822BFACF282B80912B028227F5CF2B
:104270008695DD2011F0802F8170882309F401CF0D
:10428000412F429546954770440F440F812F8F7000
:10429000042E01C0880F0A94EAF7212F207114FF21
:1042A00007C02FE030E001C0220F4A95EAF72095C1
:1042B000302F369536953370323069F050F4409196
:1042C0000E05313029F0822B84230E948A12D9CE28
:1042D000842B822BFACF282B80910E058227F5CFD5
:1042E000F02FFF70BF2EDD2029F08F2F0E94D912F2
:1042F000812F1CCF812F0E94A3178B2D0E949B1210
:10430000C0CE123F89F160F4103FB9F0113F81F047
:10431000DD2009F480C0C11056CE802F8F7128C0D7
:10432000133F49F1143FA1F78091DB0482FD2FC0B8
:10433000802F8F71DD2011F31BC080910C04DD20D4
:1043400079F0C81608F09DCE202F2F7181E090E003
:1043500001C0880F2A95EAF790910E058927B5CFFD
:104360008C1508F48ECEF0CF802F8F71D110C6CF70
:104370000E94D91286CE80E0DD2009F4A6CF81E02C
:10438000902F9F7101C0880F9A95EAF79ECF809178
:104390000604823040F1DD20D1F090910702977041
:1043A000943041F40E94970B802F8F710E949B12D2
:1043B000A12C67CEC816E0F7202F2F71B22E822FC6
:1043C0000E94D91263E08B2D0E94E512F1CFC8162E
:1043D00030F00E94970B64E0802F8F71F5CF81E061
:1043E0000E94A812E5CFDD2059F0302F3F71B32E87
:1043F000832F0E94D91263E08B2D0E94E51241CEDB
:1044000081E00E94A81241E04C1508F03ACE82E00B
:104410000E94A81236CEC110BFCE802F8F716ECFF2
:10442000DD2019F0C1103ACE3DCEC11037CE20E0CC
:10443000F701408151816281738184810E94B40EB1
:104440008091070483FF2ACE8091A7019091A80153
:10445000029709F023CE812F0E94CE181FCE55203F
:1044600029F0DC0118968C9185FFBDCAC8019755CB
:104470008F3F910511F008F071C05801BB24BEE0D8
:104480000B9FF00111249F0126583D4F6901D70170
:1044900012968C91E158FD4F908180FB90F99083AA
:1044A000882309F4A7CA0E94CE0590934302809303
:1044B0004202F60182818F5F828380910F05909185
:1044C000C903892B838380912A0284830680F78124
:1044D000E02D309731F0D6011C966D917C91C6018C
:1044E00009958EE08A9DF0018B9DF00D1124E65810
:1044F000FD4F858181FF7BCA90E080E09093CD04E1
:104500008093CE042BC08091A4019091A50108173F
:10451000190781F41092A5011092A4011092C2040F
:104520001092C3041092C4041092C5041092CA04DD
:104530001092C9048091CB049091CC04009709F4A7
:1045400095CFA8E08A16910408F042CA642D0E9413
:104550009906811103C081E00E94E3178091050450
:1045600080FF39C00E94CE056C01D70112968C9154
:10457000882309F455CA8091190182FF08C024E4F8
:1045800032E040E0B60190E080E00E94BE190B31BD
:10459000BCE51B0709F436CA0C31ECE51E0709F42B
:1045A00037CA90911901892F8E7F90FF81600A315F
:1045B000FCE51F0709F42FCAC8019056811520E2B7
:1045C000920728F0905E8115904108F037CA10924A
:1045D000110410921004F7018281882309F441CB61
:1045E0000330FDE51F0708F020CB0A3F2CE512073A
:1045F00030F4C80182509C45449708F022CB0E94B9
:10460000FE0E9093DB048093DA0402318CE51807E8
:1046100009F457CC08F0A3CB0930ACE51A0709F42C
:104620002ECC08F06DCB0530ECE51E0709F417CC55
:1046300008F059CB03302CE5120709F408CC08F038
:104640000ACC8091DA04816002304CE5140709F449
:1046500083CB8091DA049091DB040E94D40F0E94F6
:104660000113A1C80031FFE51F0709F497C8013104
:104670002FE5120709F040C082E091C800313FE504
:10468000130709F4A4C801314FE5140709F4A3C8BE
:104690006801E7E5DE1AFFEFCF16D10409F060F5F7
:1046A00060E772E08C2D0E94E20F892B29F58EE0E5
:1046B0008C9DF0018D9DF00D1124E658FD4F8281F7
:1046C000813009F08AC88091700290917102892B23
:1046D00099F08091720290917302892B69F0809118
:1046E0007402909175022091760230917702822BAC
:1046F000932B892B09F47BC8D70112965C90552027
:1047000009F48AC80F35BDE51B0709F481C80036D6
:10471000EDE51E0751F00E35FDE51F0709F07CC8D9
:1047200080910001882309F473C81092000180E091
:104730000E94E31738C8A114B10409F000C9512C34
:10474000B12CA12C80E00E94E317D092CC04C0923F
:10475000CB0481E08093C804F60185818093C60470
:1047600051100EC0AB2861F0F601808191819C014F
:1047700024503109213A310508F008C90E94B80BCC
:10478000D6011696AD90BC90C5019A9581159F41B2
:1047900010F4E0EEBE2277247394C5010197803BAC
:1047A0009D4508F0712CD6011996ED91FC911A9750
:1047B000309731F01B966D917C9181E009957822BC
:1047C000772079F0F601868197810E94B50C80935D
:1047D000C704C501F8E08F16910408F0DAC80E94FA
:1047E00048060E949B11DEC8B0E0A0E0EAEFF3E2C9
:1047F0000C9422358091C001807F31F48091BD01FD
:10480000C0910402811107C0CDB7DEB7E8E00C9477
:104810003E352196C7708091C3018C17A9F3F090A3
:10482000BB01E090BC01C090BE01D090BF01A601C9
:104830006E2D8F2D0E94B906D0E08111EACF8E0136
:1048400083E0000F111F8A95E1F7F801EC53FE4F4A
:1048500081818E11DECF80818F11DBCF828181112A
:10486000D8CFE380F480EC18FD0860E08BEB91E09A
:104870000E94D70E6BEB71E00E94F60FE816F90666
:1048800040F68091C0018F7080618093C001F80173
:10489000E753FE4F80818F70806180838BEB91E0C6
:1048A0000E94E11A0E94030CAFCFA5E1B0E0EBE556
:1048B000F4E20C941B358C0185E0F801DE01519681
:1048C00001900D928A95E1F7D8015C9011966C9059
:1048D00011971296EC9012971396CD90DC9060E0B1
:1048E0008BEB91E00E94D70E8BEBA82E81E0B82EC7
:1048F0008090BE019090BF01A4016091BC018091A5
:10490000BB010E94B9068111A8C1F090BD01F6015A
:10491000E819F9094F0160E0FF2009F44BC1C50116
:104920000E94D70EB5010E94F60F7090C001881644
:10493000990608F0F2C04091BE015091BF01B090BD
:10494000BB01A090BC01872D807F6A2D09F08CC02F
:104950008B2D0E94B906FE2C811127C0D80111961B
:104960008C9111978A1121C08C918B111EC02091BE
:10497000C1013091C20116968D919C91281739077B
:10498000A1F4E11012C0872D8F7080618093C00167
:104990008BEB91E00E94E11A8091C001F8018583C0
:1049A0008F2D6596EFE00C943735A601662D852D89
:1049B0000E94B906D82E81E08E25D11080E080FFBC
:1049C00018C04E2D662D852D0E94E30B882389F09B
:1049D0008091070480FF0DC08BEB91E00E94E11AEB
:1049E00088E0EBEBF1E0DF011D928A95E9F7F12C0D
:1049F000D7CF81E08E25D11080E0B82FB170CB2EBB
:104A000080FF29C04E2D662D852D0E94E30BD82EE8
:104A1000811121C0598A6A8A89899A890E948A0EDD
:104A2000292F22952F70223050F0243078F49F7077
:104A300051F0F8019581907F31F4FD2CB1CF9F703A
:104A400011F08823D1F3805E8830B8F3C8010E944A
:104A5000E11ADC2CF2CFEE2009F4A2CF8091C00144
:104A600081608093C001C3CF8B2D0E94B906811154
:104A700024C0D80111968C9111978A111EC08C9177
:104A80008B111BC02091C1013091C20116968D91EE
:104A90009C9117972817390781F4E1100EC01596DD
:104AA0007C92C8010E94E11A88E0F801ABEBB1E00A
:104AB00001900D928A95E1F773CFC8010E94970E7D
:104AC000882339F1EE2029F18091C0018032A0F0D5
:104AD0002091BB013091BC013A8729871B86DD8676
:104AE000CC868E878091C1019091C201988B8F876F
:104AF000CE0109960E94E11A88E0F801ABEBB1E023
:104B000001900D928A95E1F70E94F423FF24F3941B
:104B100047CFC8010E94E11AF9CF872D807F09F4A1
:104B20005BCF9090BB018090BC014091BE01509141
:104B3000BF01682D892D0E94B90681111CC0F801A2
:104B40008181881118C08081891115C02091C1010F
:104B50003091C201868197812817390761F4E110ED
:104B60000AC07582C8010E94E11A88E0D5011D9231
:104B70008A95E9F715CFC8010E94970E882349F25C
:104B8000EE2039F28091C001803208F4B5CF209137
:104B9000BB013091BC013A8329831B82DD82CC8228
:104BA0008E838091C1019091C20198878F83CE013D
:104BB0000196A0CF8BEB91E00E94D70E6BEB71E0DA
:104BC0000E94F60F8816990680F6FE2CEE2009F456
:104BD000A0CFE090BB01D090BC014091BE015091AC
:104BE000BF016D2D8E2D0E94B906811128C0F801DC
:104BF00081818D1124C080818E1121C02091C1013D
:104C00003091C2018681978128173907C1F48091BC
:104C1000070482FD49CF9091C00190FD45CF907F60
:104C200009F442CF8091C0018583903F09F439CFC8
:104C3000982F907F905F8F70892B858332CFC8012A
:104C40000E94970E811158CF8091C001816080939E
:104C5000C001C8010E94E11AA3CEEE2009F459CF89
:104C6000C8010E94970EF82E882309F452CF88E0DD
:104C7000F801ABEBB1E001900D928A95E1F78091DC
:104C8000BB019091BC010E948A0E0E94F42388CE41
:104C9000A0E1B0E0EEE4F6E20C94283529873A87EB
:104CA0004B875C876D877E878F87988BCE010996AF
:104CB0000E94552481112FC088E0FE013996DE0143
:104CC000119601900D928A95E1F74C855D856A8574
:104CD00089850E94B90681111EC0A091C301B0E070
:104CE000CD01019687709927209104022817190693
:104CF000E1F093E0AA0FBB1F9A95E1F7AC53BE4FCA
:104D000098E0FE01319601900D929A95E1F780931B
:104D1000C3010E94030C809104029091C301891386
:104D200012C06096E2E00C9444350E940113109288
:104D3000C3011092040288E0EBEBF1E0DF011D9269
:104D40008A95E9F7E8CFB8E08B9FC00111248C5316
:104D50009E4F0E945524882321F38091040290E005
:104D600001968770992780930402D5CFEF92FF9226
:104D70000F931F93CF93DF9380911504882361F0E5
:104D8000C09114048CE0F82E80911504C81748F0E7
:104D90001092150410921404CDB7DEB7E6E00C941F
:104DA0004035EE24E394EC0EE09214040C2F10E056
:104DB000CF9DE0011124CA5EDB4F4B815C8169818C
:104DC00088810E94B90681111DC08E819F81892B27
:104DD00021F488859985019651F4288139814A8189
:104DE0005B816C817D818E819F810E944826F09E2F
:104DF000F001F19EF00D1124EA5EFB4F1482138244
:104E000010920F05CE2DC0CF1092B9041092B804A5
:104E100010921A018091B7048093B6040E94F206A2
:104E20000E94B6260895B0E0A0E0E9E1F7E20C9414
:104E30001935C091B60497E0892E01E010E02CE00E
:104E4000322E3EEF932E442443948091B7048C136A
:104E500009C00E94B6260E94F206CDB7DEB7E1E196
:104E60000C943535D0E0FE01EE0FFF1FE255FB4FED
:104E700080819181889ED001899EB00D1124AA580D
:104E8000BB4F14962C911497211158C050901504C3
:104E9000E6E1F4E030E020E0712C5D01251508F03A
:104EA0004BC0E284F384D501CD90DC906FEF7FEFAF
:104EB000612C462D50E0DA01AA0FBB1FAC0DBD1DC1
:104EC0000D90BC91A02D109731F0EA16FB0609F465
:104ED000BA016394EECF6F3F7607A9F1D80102C003
:104EE000AA0FBB1F6A95E2F77A2AB801062C02C006
:104EF000660F771F0A94E2F7AB014150510974160F
:104F00001506F9F4329EF001339EF00D1124EA5E8D
:104F1000FB4F889ED001899EB00D1124AA58BB4F2B
:104F200012962D913C91139737832683908291821C
:104F30009187808715964C920E94C4062196C37073
:104F400084CF148213822F5F3F4F3C96A7CFA9E1F5
:104F5000B0E0EDEAF7E20C941835942F498B252F39
:104F60005A8B6B8B7C8B8D8B4C895D89622F892F43
:104F70000E94B906811109C08091A7019091A801F2
:104F800001969093A8018093A7018B8981111092BB
:104F90000F051D861E861F86188A85E0FE01719604
:104FA000DE01199601900D928A95E1F78091DB045C
:104FB00082FF1EC08091EC039091ED03892BC1F01C
:104FC0000E94CE052091050230910602821B930BB0
:104FD0002091EC033091ED038217930720F080912C
:104FE000070282FFE2C10E949E0B81110E94640BA6
:104FF0004C855D856A8589850E94B906811111C03D
:1050000061E0CE0109960E94D70E6C018B8527EFD7
:10501000C2162CE5D20681F4882321F181E0809329
:105020001A0129853A854B855C856D857E858F853E
:1050300098890E944826C6C038EFC3163CE5D306BF
:1050400029F4882379F00E940427EBCF49EFC41696
:105050004CE5D40639F4882329F080911A01811196
:10506000F2CFDCCF06E714E0512CB12CA12C222486
:105070002394312C2EEF422EF80140815181882457
:105080008A94982C20E0822F90E0FC01EE0FFF1F05
:10509000E40FF51F608171816115710531F0C6164D
:1050A000D70609F44C012F5FEECFF12CFFEF8F16DE
:1050B0009F0609F449C0F8014481F0901A018F2D30
:1050C000411180E0F82FF170FF2EF801E580868114
:1050D0009B85992309F4F8C0FF2009F4F5C060907E
:1050E000000470900104E11013C0A101082C01C05C
:1050F000440F0A94EAF7842B8683809112049091DE
:1051000013048615970520F470921304609212041C
:10511000C10102C0880F991F2A95E2F70197F80193
:1051200026812817190681F48091B8049091B9045A
:10513000009709F44BC00E94B3056816790608F081
:1051400045C021E0F80124835F28FFEFAF1ABF0AB2
:10515000095F1F4F28E0A216B10409F08DCF8B859F
:10516000882309F40DC1552009F40AC10E94CE0517
:105170009093B9048093B80480911504883010F599
:1051800091E0980F9093150498E0FE013996DE01A6
:10519000119601900D929A95E1F73CE0839FC00132
:1051A00011248A5E9B4F28E0FE013196DC010190BC
:1051B0000D922A95E1F72FEF3FEFFC013187208711
:1051C000D386C2866996E2E10C9434358091B604A8
:1051D0005091B704982FF0E0E0E0851314C090934D
:1051E000B604E017F10709F4AFCF90E0FC01EE0F31
:1051F000FF1FE255FB4FB182A08201968370992771
:105200008093B704A1CF682E712CF301EE0FFF1F1E
:10521000E255FB4F2081318147E0429FD001439FFF
:10522000B00D1124AA58BB4F6D917C911197798FC5
:10523000688F40E020E030E0E32FF0E0EE0FFF1F4A
:10524000688D798DE60FF71F80809180811491041D
:10525000E1F0F8010190F081E02DFF8BEE8B20E072
:1052600005C08616970609F44F2D2F5FE22FF0E058
:10527000EE0FFF1F6E897F89E60FF71F6081718136
:105280006115710571F73F5FD7CF4423D1F0F80165
:10529000231708F0FD0121E024830E171F0721F4D6
:1052A0009093B604F42E50CF981305C0AE17BF07E5
:1052B00011F49F5F937093012F5F3F4F822F837094
:1052C0008CCFF0E0E0E0F7CF90E0E11020C0B1013A
:1052D00002C0660F771F2A95E2F79B012150310922
:1052E0008217930731F4442309F448C0C5010E9492
:1052F000C406C101082C01C0880F0A94EAF7982F50
:105300009095F801868189238683FE2C1DCF9C0110
:10531000082C02C0359527950A94E2F7A90141703F
:105320005527BC016150710986239723892B11F5FC
:10533000452B01F1F80182819381892BC1F01B82F9
:105340001C821D821E8249824A820E94CE05816093
:10535000582F9D838C83F801828193818F83988756
:1053600029813A814B816D817E810E944826F80116
:105370001582BFCFF22FF170EF2EBBCFEF2CB9CF3C
:105380009091B6048091B704981731F00E941327CA
:10539000552009F446CE16CF0E94B6261092B904C5
:1053A0001092B8040E94F206F3CF82E00E94A81285
:1053B0001ACEA5E0B0E0EFEDF9E20C942835909319
:1053C000C6038093C503811520E2920730F40E9442
:1053D00049182596E2E00C94443580EF89838A834E
:1053E0001B820E94CE058160782F9D838C8349812A
:1053F0005A816B818D810E94A727EBCF0F931F935A
:10540000CF93DF938C01EB0160E772E08C2F0E9459
:10541000E20F892BA1F480910804909109040E9465
:105420009F0DDD27C859DD4F8881F801128218824F
:105430008330F1F048F4813059F0823081F0DF910F
:10544000CF911F910F9108958430B9F08530B9F74D
:105450008091700290917102009789F306C080914B
:10546000720290917302009799F30E94D929E7CFB5
:105470008091740290917502F6CF8091760290919E
:105480007702009791F7209170023091710280911C
:1054900072029091730221153105F1F2009729F7FC
:1054A000C901E3CFA5E0B0E0E8E5FAE20C942835C5
:1054B0009093C6038093C503811520E2920730F4D0
:1054C0000E9491192596E2E00C94443580EF89837F
:1054D0008A8381E08B830E94CE058160782F9D8333
:1054E0008C8349815A816B818D810E94A727EACFE5
:1054F000CF93DF93EC010E94522A8091080490918F
:1055000009040E949F0DCE010E94D929DF91CF91FD
:1055100008950F931F93CF93DF938C01862F60E73D
:1055200072E00E94E20F892BB1F4C0917002D09119
:105530007102209781F0F8018281833051F4CE010D
:105540000E94782ACE010E94782ACE010E94782AF1
:1055500002C08430D0F7DF91CF911F910F91089551
:105560000F931F93CF93DF938C01EB0160E772E001
:105570008C2F0E94E20F892B09F05CC0FE01FF27EF
:10558000D80112968C911297E859FD4F8130B9F4E9
:1055900015969C9192FF02C080830AC090FFFCCFB9
:1055A00082E0808380917202909173020097B9F437
:1055B00080917002909171020097E1F110C08230E9
:1055C000B9F515968C9182FD28C080FD0BC083E053
:1055D00080838091740290917502009701F10E947E
:1055E000522A28C084E080838091760290917702CD
:1055F0000097A9F780917002909171020097F9F0DD
:105600000E94782A8091720290917302009739F774
:105610008091700290917102E2CF85E08083809149
:10562000700290917102009729F00E94782AF0CFC1
:1056300086E08083DF91CF911F910F910895809133
:10564000720290917302B8CF1F920F920FB60F9211
:1056500011242F933F934F935F936F937F938F9377
:105660009F93AF93BF93CF93DF93EF93FF93D0912B
:10567000E900DF708091EC00C82FC17080FDC0E8A8
:105680001092E9008091F000877F8093F000789479
:105690000E9417131092E9008091F00088608093B7
:1056A000F000CD2BCF70C093E900FF91EF91DF9117
:1056B000CF91BF91AF919F918F917F916F915F91AA
:1056C0004F913F912F910F900FBE0F901F90189503
:1056D0001F920F920FB60F9211242F933F934F9367
:1056E0005F936F937F938F939F93AF93BF93EF934A
:1056F000FF938091E10082FF09C08091E20082FF68
:1057000005C08091E1008B7F8093E1008091DA00F9
:1057100080FF24C08091D80080FF20C08091DA00F3
:105720008E7F8093DA008091D90080FF9DC080E158
:1057300089BD82E189BD09B400FEFDCF81E080937F
:1057400004058091DF04811109C00E942B040E948E
:10575000F6048091E20084608093E2008091E10091
:1057600080FF17C08091E20080FF13C08091E200AB
:105770008E7F8093E2008091E20080618093E2005E
:105780008091D80080628093D80019BC85E0809316
:1057900004058091E10084FF2BC08091E20084FF2A
:1057A00027C080E189BD82E189BD89B5982F9170BC
:1057B00080FFFBCF8091D8008F7D8093D8008091AF
:1057C000E1008F7E8093E1008091E2008F7E8093E4
:1057D000E2008091E20081608093E2008091050503
:1057E000882309F447C084E0809304058091040570
:1057F0008091E10083FF27C08091E20083FF23C0F6
:105800008091E100877F8093E10082E0809304052E
:10581000109205058091E1008E7F8093E1008091D8
:10582000E2008E7F8093E2008091E20080618093AD
:10583000E20042E060E080E00E94C4048091F00059
:1058400088608093F000FF91EF91BF91AF919F919D
:105850008F917F916F915F914F913F912F910F9019
:105860000FBE0F901F90189519BC1092040510924E
:10587000DF0474CF8091E30087FD93E090930405EB
:10588000B5CF78941F921FB61F9211248F939F93C8
:10589000AF93BF938091D6049091D704A091D80480
:1058A000B091D9040196A11DB11D8093D6049093A7
:1058B000D704A093D804B093D904BF91AF919F911E
:1058C0008F911F901FBE1F9018951F921FB61F9299
:1058D00011248F939F93AF93BF938091D50481112F
:1058E00013C08091D6049091D704A091D804B091B0
:1058F000D9044196A11DB11D8093D6049093D7047D
:10590000A093D804B093D904BF91AF919F918F9188
:105910001F901FBE1F901895CDB7DEB7C055D10997
:105920000FB6F894DEBF0FBECDBF85B7806885BFC8
:1059300085B7806885BF84B7877F84BF0FB6F8942A
:10594000A89580916000886180936000109260004B
:105950000FBE80E890E00FB6F894809361009093BA
:1059600061000FBE8AE799E09093830180938201E2
:105970000E94AB070E94A0100E9414100E94A90D63
:105980000E942B040E94F6048091E20084608093C0
:10599000E2007894809104058823A1F01091E90039
:1059A0001F709091EC00892F817090FD80E8182B7A
:1059B0001092E9008091E80083FD0E9417131F7088
:1059C0001093E90082E084BD93E095BD9AEF97BD06
:1059D00080936E000E94E50E811102C00E94F316B2
:1059E00084E90E947C0986E60E947C0985E30E9486
:1059F0007C0986EC0E947C0909E511E0D8018D91B3
:105A00008D018F3F11F00E947C09B1E003361B0726
:105A1000A9F788E0E3E5F2E0DF01282F1D922A953F
:105A2000E9F7EFE2F2E0DF011D928A95E9F790E0F5
:105A300080E00E948D35883E9E4F21F40E94E50E45
:105A4000811102C00E94761A82E090E00E948535A2
:105A5000809339020E94FE0E9093DB048093DA0457
:105A60000E94E410EFEFF6E721E0E150F040204023
:105A7000E1F700C000000E94E4108091530280FF13
:105A800008C06FEF7FEF90E080E00E94B1350E9488
:105A90007B0D83E090E00E9485350E94FC1281E03E
:105AA00080934E0253985B9A52985A9A8FE891E0ED
:105AB0000197F1F700C0000020914E024FE452E040
:105AC000FA018E2F841B821708F48BC08091DA04B0
:105AD00080688093DA048091DA049091DB040E945C
