:100000000C94DA030C9412040C9412040C94120451
:100010000C9412040C9412040C9412040C94120408
:100020000C9412040C9412040C94342C0C94F02BA9
:100030000C94312D0C9412040C9412040C941204A0
:100040000C9412040C9412040C9412040C941204D8
:100050000C9412040C940D2D0C9412040C941204A4
:100060000C9412040C9412040C9412040C941204B8
:100070000C9412040C9412040C9412040C941204A8
:100080000C9412040C9412040C9412040C94120498
:100090000C9412040C9412040C9412040C94120488
:1000A0000C9412040C9412040C941204050109809F
:1000B000A101850319012AB700150126B700950192
:1000C00075108100C0050C0901A101850419012AE0
:1000D000A002150126A002950175108100C005013E
:1000E0000906A1018506050719E029E71500250184
:1000F0009508750181020507190029EF15002501F2
:1001000095F075018102050819012905950575010C
:100110009102950175039101C00660FF0961A1017B
:100120000962150026FF00952075088102096315F4
:100130000026FF00952075089102C005010906A15F
:1001400001050719E029E7150025019508750181CA
:10015000029501750881010507190029FF15002680
:10016000FF00950675088100050819012905950508
:1001700075019102950175039101C0FD377A585AB6
:10018000000004E6D6B44602002101160000007407
:100190002FE5A3E0028801175D003D888986D3DC46
:1001A0000AE842C324925842588FD8E75CA0D26133
:1001B0006E26E888019A676C7887BC8D3709EA1E3D
:1001C000B48DA53C798586633FDCC445A3F020FF50
:1001D00020B3687235CC77FE57F71DCDC486FDE598
:1001E000E8F629B306CB2F6EAEAFE01E70F839F9F2
:1001F0003F8C544E6C3443695CC3B1E42AC971E04E
:10020000B2C773BBF0A79EBDE61D9F8AB4A2892228
:100210008055C2CA343E399482ACD1AE33814BDFB3
:10022000E73F8EEE28D4692889D2723D7D09823B52
:1002300076E04B82A6CFD1CB9848DB4A16B9B4A161
:10024000E2EE06348BDBF22FFD7BA23C83407D9EE9
:1002500041EA5469A1B8938B6FBC2D438E3A243484
:100260001A6492F6EC290BDE416B82E0B529F3E1CA
:1002700042AD4A8C214E7DDC66FEB259049074A4D6
:10028000CDD1BDDD4AE05061B7B12D05B807374388
:1002900062203A9A57672C2899A79A6613BC2D9F1B
:1002A00007BBDF28A08E960AFEF524DC459AA263E0
:1002B00078000059E39C571FA20C730001B3028918
:1002C0000500003CDD51B3B1C467FB020000000033
:1002D00004595A0001010101010101010102020258
:1002E00002020202020203030303030303030404E2
:1002F00004040404040505050505060606060607AC
:100300000707070708080808090909090A0A0A0B64
:100310000B0B0C0C0C0D0D0D0E0E0E0F0F0F101005
:10032000111111121213131414151516161717188C
:100330001819191A1A1B1B1C1D1D1E1E1F202021F7
:100340002222232424252626272829292A2B2C2D3E
:100350002D2E2F30313232333435363738393A3B5F
:100360003C3D3E3F404142434445464748494A4C54
:100370004D4E4F50515354555658595A5B5D5E5F20
:10038000616264656668696B6C6D6F7072737577B6
:10039000787A7B7D7E8082838587888A8C8E8F9118
:1003A000939596989A9C9EA0A2A3A5A7A9ABADAF42
:1003B000B1B3B5B7BABCBEC0C2C4C6C9CBCDCFD12C
:1003C000D4D6D8DBDDDFE2E4E7E9EBEEF0F3F5F8D5
:1003D000FAFDFF00001E001F002000210022002364
:1003E0000000000000000000000000290014001AB6
:1003F000000800150017001C0018000C0012001364
:10040000002A002B0004001600070009000A000B58
:10041000000D000E000F0033002800E1001D001B3E
:1004200000060019000500110010003600370052C8
:1004300000E500E000E300E200000000002C000006
:100440000000000000500051004F000000010001BA
:100450000001000100010001000000000000000098
:100460000000000100010001000100010001000185
:100470000001000100010001000100010001000174
:100480000001000100010001000100010001000164
:100490000001000100010001000100010001000154
:1004A0000001000100010001000100010001000144
:1004B0000000000000010000000000000001000139
:1004C0000001000000010001000100010001000125
:1004D0000000000000000000000000010001000119
:1004E0000001000100010001000100010001000104
:1004F00000010001000100010001000100010001F4
:1005000000010001000100010001000100010001E3
:1005100000010001000100010001000100010001D3
:1005200000010001000100010000000000010000C6
:1005300000000000000100010001000000010001B6
:1005400000010001000100010000000000000000A7
:100550000000000100010001000100010001000194
:100560000001000100010001000100010001000183
:100570000001000100010001000100010001000173
:100580000001000100010001000100010001000163
:100590000001000100010001000100010001000153
:1005A0000000000000010000000000000001000148
:1005B0000001000100010055047D0DB00D00000296
:1005C00000020051047D0DB00D0000030001005633
:1005D000047D0DB00D0000040002003B047D0DB051
:1005E0000D67070500010057047D0DB00D000006E2
:1005F0000002003D047D0DB00D0000070002005315
:10060000047D0DB00D00000800010058047D0DB000
:100610000D00001200020059047D0DB00D00001302
:100620000002005B047D0DB00D0000140001005DB0
:10063000047D0DB00D0000150000000000ED0699CE
:1006400016000009025B00030100A0FA0904000083
:1006500001030101000921110100012240000705E9
:1006600081030800010904010002030000000921C0
:100670001101000122220007058203200001070565
:100680000303200001090402000103000000092106
:1006900011010001226D00070584032000011201F1
:1006A0000002000000088C54030010010102030145
:1006B0001C037600690061006C003A006600360099
:1006C0003400630032006200330063000000100356
:1006D0004D0065006D006F00720069006100000050
:1006E0001E035300680069006E006B006100690022
:1006F00020004D006100790061006E006F00000075
:1007000004030904000000000000000000000000D5
:1007100000000000000000000000000000000000D9
:1007200000000000000000007E0F00D4FFFFFFC7A4
:100730000000007800000000000000002A2B2800C4
:100740000000000000000000000000000000002980
:10075000000000002C1E3420212224342627252EC0
:10076000362D3738271E1F202122232425263333F8
:10077000362E37381F0405060708090A0B0C0D0E24
:100780000F101112131415161718191A1B1C1D2FF0
:100790003130232D350405060708090A0B0C0D0E10
:1007A0000F101112131415161718191A1B1C1D2FD0
:1007B0003130354C11241FBECFEFDAE0DEBFCDBFA4
:1007C00004B603FE18C08091640590916505A09160
:1007D0006605B09167058730904BA740B04B59F440
:1007E00010926405109265051092660510926705D7
:1007F000E0E0F8E3099511E0A0E0B1E0E6E6FAE612
:1008000002C005900D92A03CB107D9F725E0A0ECFD
:10081000B1E001C01D92A436B207E1F70E94582D45
:100820000C9406350C940000E8EDF0E080818E7F9A
:1008300080831092E2001092DA001092E100A0EEA4
:10084000B0E08C9181608C9380818F77808319BC1C
:10085000A7EDB0E08C918E7F8C9380818F7E80831A
:100860001092330508952091E4003091E50095E65B
:10087000A9012091EC00822F817020FF06C0809199
:10088000E80080FF06C080E008952091E80022FD86
:100890001AC080915805882389F0853089F08091AD
:1008A000EB0085FD0FC02091E4003091E500421778
:1008B0005307F9F29150E1F684E0089582E008953B
:1008C00083E0089581E00895EF92FF920F931F93C4
:1008D000CF937C018B010E943304C82F811117C074
:1008E0008091E80085FD0BC08091E8008E778093B1
:1008F000E8000E943304882399F3C82F08C0F70149
:1009000081917F018093F1000150110949F78C2FEB
:10091000CF911F910F91FF90EF90089580915A050C
:1009200087FF13C08091E80082FF06C08091E80035
:100930008B778093E80004C0809158058111F2CF35
:100940000895809158058823D9F38091E80080FFAD
:10095000F8CF8091E8008E77ECCF982F9093E90044
:10096000242F762F50E0891731F07091EC00209100
:10097000ED005091F00021FD07C09F5F973071F7A7
:100980008093E90081E008953091EB003E7F309341
:10099000EB003091ED003D7F3093ED003091EB00A6
:1009A00031603093EB007093EC002093ED00509396
:1009B000F0002091EE0027FDE0CF80E00895B0E048
:1009C000A0E0E5EEF4E00C944934C8EDD0E0888175
:1009D0008F7E8883E7EDF0E080818160808384E012
:1009E00082BF81E08093330588818E7F888302EE09
:1009F00010E0F80110821092DA0081EEC82ED12C9E
:100A0000F601108288818F77888388818068888347
:100A100088818F7D888319BC1092580510925905E2
:100A2000109257051092560590EEE92EF12CF70121
:100A300080818B7F808388818160888342E060E051
:100A400080E00E94AD04F60180818E7F8083F801F2
:100A5000808181608083808188608083F7018081CC
:100A60008E7F8083888180618883CDB7DEB7E8E0A0
:100A70000C946534FC0180916005909161058617A6
:100A80009707A0F06115710529F49091E8009E7711
:100A90009093E80090E06115710551F4911108C040
:100AA0008091E80082FF34C080E00895BC01F2CF5D
:100AB000809158058823C1F18530C1F18091E8000B
:100AC00083FD30C08091E80082FDEACF8091E8008C
:100AD00080FFE1CF8091F3002091F200382F611563
:100AE000710519F02830310558F091E028303105B2
:100AF00009F090E02091E8002E772093E800CBCF1A
:100B000081918093F100615071092F5F3F4FE7CFD2
:100B100080915805882341F0853041F08091E800AC
:100B200083FFBECF81E0089582E0089583E00895B9
:100B3000089508958091350508959C014FB7F89464
:100B400080912A0590912B05A0912C05B0912D053F
:100B50004FBF821B930B08952FB7F89460912A051D
:100B600070912B0580912C0590912D052FBF089534
:100B70002FB7F89480912A0590912B05A0912C0510
:100B8000B0912D052FBF0895209119012223C1F0A6
:100B900020912E0527FF14C0E62FE695E695E695F1
:100BA000EE31F8F4E80FF92FF11D677021E030E025
:100BB00001C0220F6A95EAF78281822B8283089511
:100BC000FC0132962FEF30E04191641751F02F3F36
:100BD00019F4411101C0232F3F5F3630A9F72F3F91
:100BE00009F40895820F911D27FD9A95FC016283F7
:100BF000089520912705309128052817390771F0AD
:100C00009093280580932705E0912505F09126050E
:100C1000309721F00084F185E02D09950895209109
:100C20002305309124052817390771F09093240586
:100C300080932305E0912505F0912605309721F05A
:100C40000680F781E02D09950895E0912505F09142
:100C50002605309729F00190F081E02D099508953F
:100C600080E00895CF93DF93EC01409113055091FC
:100C7000140560911505709116052FB7F8948091B1
:100C80002A0590912B05A0912C05B0912D052FBF21
:100C9000841B950BA60BB70B843F9140A105B105B2
:100CA00018F58091130590911405A0911505B09148
:100CB000160580930F0590931005A0931105B0932E
:100CC000120584EF91E0A0E0B0E080930B059093D3
:100CD0000C05A0930D05B0930E05D0931B05C09392
:100CE0001A05DF91CF9108950E94AC0560930F051E
:100CF00070931005809311059093120582E390E0A4
:100D0000A0E0B0E0E2CFFC018481862351F492811F
:100D10009923B9F06923808583FF05C081E06111C3
:100D20000FC080E00895892F8F7092959F70982B47
:100D3000862F8F7062956F70682B81E09613F1CFCC
:100D4000089581E0FDCF452B39F0682381E06F3FA6
:100D500009F080E08170089581E0FCCFDC016091B2
:100D6000070580910805962F891301C00895292F42
:100D700030E0F901EE0FFF1FE150FB4F4081518140
:100D80004A175B07A1F487E08A9FA0018B9F500D53
:100D9000112449535B4F81E0FA0184839613E6CF17
:100DA0002F5F3F4F237033272093070508952F5F50
:100DB0003F4F922F9370D8CF109264041092630427
:100DC000E7ECF4E08581811102C014821682379627
:100DD00084E0EF3FF807B1F70895B0E0A0E0E3EF5B
:100DE000F6E00C9447348FEF9FEF4430510508F440
:100DF00069C040912E0541FB882780F990E0880F5B
:100E0000991F42FB002700F910E0000F111F000F8F
:100E1000111F802B912B40FBCC24C0F8D12C8C29A6
:100E20009D2943FB222720F9C22FE0E0DE2F53E06B
:100E3000CC0FDD1F5A95E1F78C2B9D2B44FBAA2785
:100E4000A0F9B0E0E4E0AA0FBB1FEA95E1F78A2B16
:100E50009B2B45FBEE27E0F9F0E0A5E0EE0FFF1F2E
:100E6000AA95E1F78E2B9F2B46FB222720F930E035
:100E7000B6E0220F331FBA95E1F7822B932B47FB85
:100E8000222720F930E03695322F222737952795F3
:100E9000822B932B20912F05322F3170F32EE82EC9
:100EA000F92A26952170B22EBB0CA82EBF28C501A9
:100EB000BB0CAA0BBB0BFB0180839183A283B38382
:100EC00090E080E0CDB7DEB7EAE00C946334809127
:100ED0003B0490913C049093160180931501089572
:100EE000EBECF2E090E080E065E57BE24CE75BE272
:100EF0002AEC3AE2778366835187408733872287DB
:100F00009587848701963E968830910599F70895D4
:100F100081152CE5920741F42091130130911401C1
:100F2000232B11F490E080E00895FA01811101C0B3
:100F3000FB0109950895E0EBF2E081836083428331
:100F40008483638345838783668340870895FC0198
:100F5000EE0FFF1FE80FF91FE055FD4F618340833F
:100F600022830895EAEAF2E0248130E1231B08F4A9
:100F700020E024838091A90281608093A9020895D2
:100F8000EAEAF2E0248130E1230F08F42FEF248312
:100F90008091A90281608093A90208959091AA028C
:100FA000937071F08093AB026093AC02453608F009
:100FB00044E64093AD028091A902822B8093A9025E
:100FC0000895EAEAF2E0438120E1421B08F440E0A0
:100FD000818121E0628190E00E94CE070895EAEAD3
:100FE000F2E0438120E1420F08F44FEF818121E0DC
:100FF000628190E00E94CE070895EAEAF2E0628101
:1010000020E1621B08F460E0818121E0438190E0EF
:101010000E94CE070895EAEAF2E0628120E1620FC1
:1010200008F46FEF818121E0438190E00E94CE07B8
:101030000895EAEAF2E0818121E0438162818850EB
:10104000990B0E94CE070895EAEAF2E0818190E0D0
:1010500021E04381628108960E94CE070895809125
:10106000AA02837051F084608093AA021092120148
:101070008091A902862B8093A90208958091AA02EB
:1010800086958695815009F481E061E00E942F08E1
:10109000089561E081E00E942F0808950E949B0757
:1010A00008950E94A707089580E00895F894E82F16
:1010B000E295EF70F0E031A1282F2F7081E090E0F1
:1010C00001C0880F2A95EAF7982F9095932391A352
:1010D00092A1892B82A37894089590912E0592FF76
:1010E00006C0282F28712830F9F4877F846093FF89
:1010F00006C0282F28712831F1F4877E8461209161
:101100002F0520FF06C0382F38713830D9F4877F7B
:10111000816021FF06C0282F28712831D1F4877EF5
:10112000816194FD877E0895282F24712430F9F67B
:101130008B7F8860DCCF282F2471243101F78B7ED0
:101140008861DDCF382F3171313019F78E7F88609B
:10115000E0CF282F2171213121F78E7E8861E1CFE8
:10116000CF93DF93EC0182389105B1F108F040C0D4
:101170008133910509F49DC048F58932910509F440
:101180008DC08A9709F49CC0C11522E5D20708F0EA
:10119000BDC0C11531E5D30708F025C1C83ED10552
:1011A00008F0A3C0C13ED10588F5C83AD10508F0C2
:1011B0008EC0C53AD10508F0F6C0C130D10531F175
:1011C000209721F1C430D10508F545C0853391053C
:1011D00009F45FC0C997C1F680912E05837009F0AC
:1011E00037C180912F0583FF11C0C9E2D0E00EC046
:1011F000833E910599F170F4803E910501F1823EA4
:10120000910511F680912E0582FD21C0CE01DF915E
:10121000CF910895863E910561F1873E910571F168
:10122000843E910509F0B0CF80912F0581FFEECF6C
:1012300080912E05C7EED0E084FD0DC0E7CF8091F0
:101240002E0580FD33C090912F0590FFDFCFC3EEB8
:10125000D0E084FFDBCFD0E0C0E0D8CF80912E0576
:1012600082FDF3C090912F0590FDF2C084FFCECF98
:10127000F2CF80912E0583FDDDCFC8CF80912E0562
:1012800083FDE9C090912F0591FFF0CFC4EED0E02F
:10129000BDCF80912E0585FFB9CFA7CF80912E05B8
:1012A00085FDDCC080912F0583FFB0CFC9E3D0E07E
:1012B000ADCF80912E0586FFA9CFCAE2D0E0A6CFA0
:1012C00080912E0586FFA2CFC1E3D0E09FCFCF3B18
:1012D000D10508F6C85AD0E0CC0FDD1FC85DDE4F3F
:1012E0000990D881C02DD46491CFC11540E5D407B1
:1012F00008F064C0C11580E4D80708F05CC0CE01D6
:101300009A9581159F4108F481CFA5CFC11536E587
:10131000D30718F5C11545E5D40708F07DC0C11500
:1013200084E5D80708F073C09C2F969596959E018A
:1013300023703327C115D34508F45AC0C1E0D0E06B
:1013400002C0CC0FDD1F2A95E2F730E2939FC00167
:101350001124C82BD92BDA6859CFC1158AE5D807D3
:1013600078F4C11529E5D20708F061C0C11538E548
:10137000D30708F470CFDC2FCC27C06FD06A46CFDC
:10138000CE0190568115904208F065CF8D2F8F7158
:101390000E946D0890E0982F882788279F719C01F4
:1013A0002C2BE90142C0C55AD0E0CB5DDE4FC8818D
:1013B000D0E0D0642BCFDF70D06A28CF2C2F2695B9
:1013C0002695237080E2289F900111248C2F837032
:1013D000C1E0D0E002C0CC0FDD1F8A95E2F7C22B3E
:1013E000D32BDD6813CFDC2FCC27C16FD06A0ECF93
:1013F000C1E0D0E002C0CC0FDD1F2A95E2F720E269
:10140000929FC0011124C82BD92BDC68FFCEDC2FA2
:10141000CC27C46FD06AFACE8C2F0E946D08C82FDB
:10142000D0E0DC2FCC27CC27DF71D062EFCE8C2F21
:101430008F700E946D0834E0D695C7953A95E1F714
:10144000CF709C2FEC01D069E1CEC2EED0E0DECEB1
:10145000C0EED0E0DBCEC6EED0E0D8CEC5E3D0E023
:10146000D5CE80916E02882331F010926E021092D8
:101470006D0210926C020895CF93C82F80912F05B2
:1014800082FF0CC080916E028C1741F00E94B8055B
:1014900090936D0280936C02C0936E02CF91089579
:1014A00080959091630598239093630508958095A6
:1014B00090911A04982390931A04089590911A0415
:1014C000892B80931A04089510924B0210924A02BD
:1014D00010924902089580913D0490913E04892B19
:1014E00089F00E94B80520916C0230916D02AC0128
:1014F000421B530B81E020913D0430913E04421782
:10150000530708F480E081700895909119019923A0
:10151000D1F090912E0597FF16C0E82FE695E6953D
:10152000E695EE31E0F4F0E0EE53FE4F282F277001
:1015300081E090E001C0880F2A95EAF780959281BA
:10154000892382830895E4ECF1E09191891303C02B
:10155000DF0111971C9291E0EA3CF907B1F7089579
:101560002091480290910702291302C080E008955B
:1015700030E0F90153E0EE0FFF1F5A95E1F7E85F05
:10158000FD4F5181561306C05081581303C052813C
:10159000541304C02F5F3F4F2770E6CF81E00895BA
:1015A0008091480290910702981301C008958F5FBF
:1015B0008770FACF292F953078F58C3068F590E058
:1015C0003CE0239F800D911D1124682F677023E05C
:1015D000969587952A95E1F7FC01EE0FFF1FE80F1E
:1015E000F91FE951FE4F50E040E080E0219130E0EA
:1015F000062E02C0369527950A94E2F7217033270C
:10160000042E01C0220F0A94EAF7822B4F5F5F4F2E
:101610004330510559F7089580E00895292F9530FA
:1016200098F58C3088F590E03CE0239F800D911D6B
:101630001124282F277041E001C0440F2A95EAF7B2
:1016400023E0969587952A95E1F7FC01EE0FFF1FA1
:10165000E80FF91FE951FE4F30E020E070E05191B2
:10166000DF011197CB01022E02C0969587950A944F
:10167000E2F7817081958527842385278C932F5FDE
:101680003F4F2330310559F7089592959F7096305A
:1016900091F058F4925F9F70923058F4803F19F0A7
:1016A00030F4883E30F481E008959A5FF4CF843FAF
:1016B000D1F380E00895883EB0F3813FD1F7F3CFB6
:1016C0009C013A9521153F4150F5FC01EE27F17040
:1016D000BC0166277270AC01442754709C0122271C
:1016E000387094FF0EC080E1EF2B09F480E0672B87
:1016F00009F08062452B09F08064232B89F0806813
:10170000089581E0EF2B09F480E0672B09F08260F7
:10171000452B09F08460232B19F08860089580E040
:101720000895809330057093320560933105809160
:1017300058058430F9F48093E9008FEF9091E80028
:10174000815095FD06C095ED9A95F1F70000811145
:10175000F5CF8091E80085FF0DC050E040E063E0E8
:1017600070E080E395E00E9464048091E8008E7749
:101770008093E8000895BC0184E00E94910B0895D5
:10178000BC0183E00E94910B0895CF93DF93EC019D
:10179000809119018823B1F180912E0587FF32C015
:1017A00060E284E08093E9008FEF9091E80081503F
:1017B00095FD06C095ED9A95F1F700008111F5CFE2
:1017C0008091E80085FF1BC08091190170E050E016
:1017D00040E0811104C050E040E068E070E0CE01DC
:1017E0000E9464048091E8008E778093E80080E294
:1017F000FE01A6E3B5E001900D928A95E1F7DF9135
:10180000CF91089568E081E0CDCF81E08093E00042
:1018100080E28093D8001092C9008FE19EE4019786
:10182000F1F700C0000087E090EBDC0180936405D5
:1018300090936505A0936605B093670588E19CE0E9
:101840000FB6F894A895809360000FBE9093600047
:10185000FFCF019708F40895EFE9FFE03197F1F722
:1018600000C00000F6CF519A3BB13D7F2BB1226002
:101870004FB7F89480EB92E0FC015191CF0168E002
:101880002BB9000000C057FF3BB9550F000000C046
:1018900000C000C03BB900C06A9591F7F2E0893BF7
:1018A0009F0751F74FBF8FE594E00197F1F700C014
:1018B000000008950F931F93CF93DF930BE314E081
:1018C000C7E0D2E0CE010E94AC34F80181938F01D1
:1018D0002196CB32F2E0DF07A9F7CDEBD5E0FE0190
:1018E00085919491009711F0FC0109952C96F6E0F2
:1018F000CD34DF07A1F7DF91CF911F910F910895AC
:101900000F931F93CF93DF93843030F5653020F52C
:101910004C3010F5C42FD0E0CC0FDD1F28E1629FC2
:10192000C00DD11D112438E7839FC00DD11D112496
:10193000CE0187960E94AC34082F10E0102F0027AC
:10194000CE0188960E94AC349801282BC901DF9102
:10195000CF911F910F91089590E080E0F8CF462F2E
:101960002091180430911904232B99F4703F39F415
:10197000603F79F4809116049091170408958430A3
:1019800040F4753030F46C3020F4672F0E94800CE6
:10199000089590E080E00895CF92DF92FF920F9338
:1019A0001F93CF93DF936C010091620580916F02CA
:1019B000082BC7E0D0E010E0FC2EC8010C2E02C0BE
:1019C000959587950A94E2F780FD0CC02197A0F7C2
:1019D000F12C8F2DDF91CF911F910F91FF90DF9010
:1019E000CF900895B6018C2F0E94AF0C0E94B008D2
:1019F000019761F3EECFCF93DF93EC010E94CC0C03
:101A0000BE010E94AF0C0E94B008DF91CF910895F3
:101A1000CF93DF93EC014B815C81698188810E94C7
:101A2000A306811110C08E819F81009739F00E941A
:101A3000B0080E94450BDF91CF910895888199816C
:101A40000E94FB0CF6CF80E0F6CFA5E0B0E0EBE221
:101A5000FDE00C944E3449835A8389819A81662330
:101A600099F0222389F00E94CC0C182F682F8981CD
:101A70009A810E940E0B69817A81812F0E94AF0C9E
:101A80002596E3E00C946A340E94DA0A182FF3CF0B
:101A9000FC01262F86819781009739F4408151817E
:101AA0006281738184810E94250D089583E290E014
:101AB0000E94AC348F3889F484E290E00E94AC3408
:101AC000823059F485E290E00E94AC3491E0863F88
:101AD00009F090E0892F8170089580E0FCCFCF93CA
:101AE00084E090E00E94AC34C82F82E290E00E9433
:101AF000AC34982F8C2FCF910895DB01FC013296E6
:101B0000259134914217530758F0FC0134966591A2
:101B10007491A901CD010E948C3490E080E0089579
:101B20008FEF9FEF08950F931F93CF93DF930BE3F6
:101B300014E0C7E0D2E0CE010E94AC34F80161911C
:101B40008F01681719F0CE010E94CA342196CB325A
:101B5000F2E0DF0781F7DF91CF911F910F91089598
:101B6000DA019C012E5F3F4FF90145915491F90133
:101B700025913491A217B30758F0FC013496859152
:101B800094910E948C340E94930D90E080E008951F
:101B90008FEF9FEF0895CF93DF93CBE1D3E060E029
:101BA000CE010E94CA342196C11584E0D807B9F746
:101BB000DF91CF9108951F93CF93DF93122F84303D
:101BC000E0F46530D0F44C30C0F4C42FD0E0CC0F3A
:101BD000DD1F98E1699FC00DD11D112498E7899FF1
:101BE000C00DD11D1124632FCE0187960E94CA34E7
:101BF000612FCE0188960E94CA34DF91CF911F9148
:101C00000895CF93C82F6FEF81116FE883E290E0C2
:101C10000E94CA346FEFC11162E084E290E00E943A
:101C2000CA346FEFC11166EF85E290E00E94CA34BA
:101C3000CF910895CF93C92F682F84E090E00E9440
:101C4000CA346C2F82E290E00E94CA34CF9108958A
:101C50009B01883070F49AE0899FB0011124655D82
:101C60007D4F4AE050E0C9010E949C3490E080E042
:101C700008958FEF9FEF0895AAE0B0E0E2E4FEE060
:101C80000C944F349C0137552F3F310509F068F40F
:101C9000BE016F5F7F4F0E94280E892B31F489852A
:101CA0009A852A96E2E00C946B34809153049091CB
:101CB0005404F7CFAAE0B0E0E0E6FEE00C9445342F
:101CC0000EE913E08CE8C82E83E0D82E9BECE92EB9
:101CD00092E0F92E27E0922E3BE8A32E33E0B32EBC
:101CE00088248394D6010D931D936D014AE050E042
:101CF000B701CE0101960E949C34F8013896DF01AD
:101D0000892D1D928A95E9F789819A81D8011196CA
:101D10009C938E938F8112968C9312978D8113963C
:101D20008C931397888514968C93149789851596B0
:101D30008C9315978B819C8117969C938E93169705
:101D400018961C9218978A8587FF3CC01E961C9295
:101D50001E921D9780FF03C0D80118968C9281FFB8
:101D600004C0F80190859260908782FF07C0D80177
:101D700018969C911897946018969C9383FF04C0C2
:101D8000F80190859860908784FF07C0D801189665
:101D90009C911897906118969C9385FF04C0F80158
:101DA000808580628087015F1F4FFAE0EF0EF11C93
:101DB0008BE1E81683E0F80609F094CF2A96ECE070
:101DC0000C946134F801B686A586C4CFAAE0B0E0D1
:101DD000ECEEFEE00C944934EBE3F3E080E5DF0148
:101DE0001D928A95E9F7E7ECF4E088E3DF011D92A4
:101DF0008A95E9F78BE3C82E83E0D82E7F010BE7A5
:101E000012E0F701D182C0824AE050E0B801CE0171
:101E100001960E949C3488E0FE013196D601019023
:101E20000D928A95E1F789859A85D70113969C933F
:101E30008E931297BAE0CB0ED11CE7E0EE0EF11CA8
:101E4000065F1F4F0B3CF2E01F07D9F62A96E8E029
:101E50000C94653446E050E06CE170E08AEA92E070
:101E60000E94BA341092A9020895B0E0A0E0EBE31A
:101E7000FFE00C9444340E94AC056093A10270937F
:101E8000A2028093A3029093A4023091AA02D32FBE
:101E9000D37019F0D32FD695D69520911201213009
:101EA000D9F0222359F0223009F445C1233009F436
:101EB0004CC1CDB7DEB7EDE00C94603410920F0149
:101EC0006093A5027093A6028093A7029093A80244
:101ED00081E080931201EDCF90910E0181E0D91342
:101EE0000BC0832F837020910D0130E091E08217A9
:101EF000130609F490E0892F81708093110180917D
:101F0000AF0290911001981739F08093100140E0D2
:101F100060E080E00E944E08DD2321F0D13061F0C6
:101F200080E029C080911101882329F140E060E020
:101F300080E00E944E08F4CF90900F0101E0090D5F
:101F4000802E043010F023E0822E4091AB02D0901E
:101F5000AC02E091AD02F0E0ED52FD4FD1102BC08C
:101F6000F4901F2DCF2DC92CD12CC81408F497C084
:101F700081E00330A8F6C0910F0191E09C0F90938F
:101F80000F0181119EC082E08093120180911101A6
:101F9000811197C0DD2309F4D6C0809162058111BB
:101FA00094C0C1119AC020E040E060E090E080E081
:101FB0000E94510892C0ED2CF12CC4917C2EEC2F84
:101FC000F0E026E0429FC00111242FEF30E0B9017C
:101FD0000E941E34842F90E0880F991FA5E5A69FCC
:101FE000A001A79F500D1124841B950BC82ECC0C6B
:101FF000C80ED901AE19BF09AE9FA001AF9F500D09
:10200000BE9F500D1124152FDC9CD0011124AB2F45
:10201000BB27C9018A1B9B0B8E9FD0018F9FB00DE0
:102020009E9FB00D11245901AC18B108AE9C6001FF
:10203000AF9CD00CBE9CD00C1124CD2CDD242C19CF
:102040003D092E9FC0012F9F900D3E9F900D1124A2
:10205000F92E62307105A1F050F46115710509F493
:1020600082CF6130710581F0F52E1B2F7CCF64305B
:10207000710569F080F06630710509F474CFF4CF12
:10208000FC2EC52F192F6FCFFC2ECB2F6CCFF52E2A
:102090001C2FC92F68CFC52F172DFB2E64CFF6013B
:1020A000E355FE4F808190911001892331F0212F5B
:1020B0004F2D6C2FC6010E9451088FEFC81AD80A05
:1020C00054CFDD2309F4F5CE68CF81FF6ACF2FE02E
:1020D0004FE06CE3CC2309F469CF8091620588233B
:1020E000C9F082FF17C02FE04CE36FE0C230B8F0B8
:1020F00080916205C1508823B9F083FF15C02CE39D
:102100004FE06FE0C23008F0D4CE82E090E00E9451
:102110005108CFCEC23060F720E040E060E081E0BF
:1021200090E00E945108E4CFC23008F0C2CE20E017
:1021300040E060E0EACFD0930E01832F837080935C
:102140000D010E94330C83E0C4CE8091A90281115D
:102150000E942A0F4091A5025091A6026091A70209
:102160007091A8022FB7F89480912A0590912B05C1
:10217000A0912C05B0912D052FBF841B950BA60BAC
:10218000B70B4097A105B10508F493CE1092120148
:1021900090CEEAEAF2E085E0808380911A01909186
:1021A0001B01A0911C0181839283A3838FE7848309
:1021B0008FEF85830E942A0F0895AAE0B0E0E3EE36
:1021C000F0E10C9441348E010F5F1F4F8AE0F8015B
:1021D00011928A95E9F796E5E92E91E0F92E6801CA
:1021E0002BE5422E21E0522E66246394712C47E6A3
:1021F000842E41E0942EF70181917F018F3F09F4F5
:1022000045C0F894E82FE295EF70F0E021A18F70BF
:10221000A30102C0440F551F8A95E2F7CA01922F0D
:10222000982B91A392A18095892382A3789400C0D2
:10223000EBE5F1E021E030E0B12CA12C41914F3FE2
:1022400009F464C0A42FA295AF70B0E090968C9171
:1022500090E04F7002C0959587954A95E2F780FD12
:1022600055C0C901A82AB92A220F331F8E169F060E
:1022700029F7F701319780818F3F11F00E945608AE
:1022800050EA5A95F1F7F601B182A082F2E0CF0E42
:10229000D11C4E145F0409F0AECF4AE050E0B80103
:1022A00083E792E00E947F34892B99F18AE0F8015C
:1022B000A3E7B2E001900D928A95E1F781E0809367
:1022C00072020E94B805909371028093700280910F
:1022D0007002909171020E949D050597F0F04AE00E
:1022E00050E063E772E087E992E00E947F34892B37
:1022F000C9F08AE0E3E7F2E0A7E9B2E001900D92CD
:102300008A95E1F781E01092720208C090E080E0C7
:10231000A9CF809172028111DACF80E02A96E0E1A4
:102320000C945D3480E0EFCFCF9380911A049091AC
:102330006305892B8093C20180916E02882329F165
:1023400080913D0490913E04892B29F00E946B0AF4
:1023500081110E94310A8091C20190916E02892BF5
:102360008093C20180911901882309F447C08091AC
:102370002E0587FF43C08EE1E4ECF1E090E0815050
:1023800008F03EC091110E94310AC0911705C09516
:102390008091C201C82380911805C82BC093C20147
:1023A00040E250E06CE472E082EC91E00E947F3405
:1023B000892B11F180E2E2ECF1E0ACE4B2E00190B3
:1023C0000D928A95E1F7E0912505F0912605309769
:1023D00099F080911901882349F080912E0587FF9B
:1023E00005C0C093C30186E08093C2010280F381DF
:1023F000E02D82EC91E00995CF91089586E0BCCF65
:102400002191222309F4BBCF9F5FB9CFCF93DF93F4
:10241000EC01EA85FB85309719F06C857D8509957F
:102420008B810E94500A8C810E94570A0E9494114D
:1024300086E0FE0111928A95E9F7DF91CF91089528
:10244000CF93DF93EC018D8181FD15C082608D8378
:10245000809163059B81892B809363058C810E9409
:102460005E0A0E949411E885F985309721F06C8509
:102470007D85CE01099510922205109221058D814E
:1024800080FD03C0CE010E940612DF91CF91089516
:1024900080911701877F8093170182E00E94500A84
:1024A0008091170184FF06C08F7E8093170182E020
:1024B0000E945E0A8091170185FF06C08F7D809380
:1024C000170180E20E945E0A0E949411089590E034
:1024D00080E00E940F0690E080E00E94F9051092D3
:1024E00063050E9494110895809362050E9467120B
:1024F000089580916205982F9670963021F4886037
:102500000E9474120895877FFBCF21E030E001C064
:10251000220F8A95EAF720958091620582230E9416
:102520007412089590914B028095892380934B02F9
:10253000282F277091F4282F082E000C330B9217A8
:10254000130659F090912F0592FF07C08595859548
:1025500085950E9485120E94640A089590912F0526
:1025600092FB222720F9281769F080FB92F99093BB
:102570002F0580912E0590912F050E941A0E82E062
:102580000E949212089521E030E001C0220F8A9546
:10259000EAF780916205822B0E947412089590914F
:1025A0002F0592FF10C098E0899F90011124622BA3
:1025B00060934B020E94C3120E94B80590934A0296
:1025C0008093490208950E94C312089580936F0278
:1025D0000E946712089510921A0480911901E4EC88
:1025E000F1E0882361F080912E0587FF08C08EE11D
:1025F000DF011D928A95E9F70E946712089586E02F
:10260000F7CFAAE2B0E0E7E0F3E10C944E348AE5BC
:1026100095E02091F100DC012D93CD01B5E08236EB
:102620009B07B9F780915B05833009F472C0B8F459
:10263000813009F449C0823009F4B3C08091E800C8
:1026400083FF96C280915A0590915B059A3008F0FD
:102650008FC2E92FF0E0E85FFA4C0C9432348A30F4
:1026600009F48EC08B3009F471C0893039F780913C
:102670005A05813219F780915E0590915F050097A8
:1026800011F00297D9F68091E800877F8093E800E7
:102690008091E80082FF38C09091F3008091F200B1
:1026A000029731F48091F100813011F0863021F4ED
:1026B0008091F100809335058091E8008B778093BD
:1026C000E8000E948E04BACF80915A05813A09F041
:1026D000B5CF8091E800877F8093E80080915E0508
:1026E00090915F05892B61F460E286E395E070E0EC
:1026F0000E943A058091E8008B778093E8009ECF96
:1027000060E090E080E0F3CF809158058111C0CF68
:1027100095CF80915A05813A09F090CF80915E055E
:1027200090915F05892B09F089CF8091E800877F20
:102730008093E8008091E80080FFFCCF8091190130
:102740008093F1008091E8008E77B9CF80915A058F
:10275000813209F073CF80915E0590915F05892BDE
:1027600009F06CCF8091E800877F8093E8000E9499
:102770008E0480915C05809319010E94EB125ECF5C
:1027800080915A05813209F059CF8091E800877F06
:102790008093E8000E948E0480915D05809334054B
:1027A0004DCF80915A05813A09F048CF8091E800D9
:1027B000877F8093E8008091E80080FFFCCF8091C4
:1027C0003405BECF803899F0823809F0D1C18091AC
:1027D0005E058F70873008F0CBC18093E90080914F
:1027E000EB0085FB882780F91092E90006C08091F4
:1027F000560590915705911182609091E800977F5E
:102800009093E8008093F1001092F1008091E8002D
:102810008E77AAC1882309F498C1823009F0A8C133
:1028200080915C0581119BC180915E058F702FEFB7
:10283000280F263008F09CC18093E9002091EB001E
:1028400020FF8DC1933031F48091EB008062809342
:10285000EB0085C19091EB0090619093EB0021E03B
:1028600030E001C0220F8A95EAF72093EA00109227
:10287000EA008091EB008860EACF811179C1109164
:102880005C051F778091E3008078812B8093E300C3
:102890008091E800877F8093E8000E948E048091F9
:1028A000E80080FFFCCF8091E30080688093E30024
:1028B00082E0111183E0809358055AC1805882301C
:1028C00008F056C120915C0530915D052C3DE3E098
:1028D0003E07A1F583E08A838AE289834FB7F894A3
:1028E000DE01139620E03EE051E2E32FF0E050934A
:1028F0005700E49120FF03C0E295EF703F5FEF7057
:102900008E2F90E0EA30C0F0C7968D939D932F5F95
:10291000243159F74FBF8091E800877F8093E8000A
:102920006AE270E0CE0101960E943A058091E800CB
:102930008B778093E8001CC1C096E7CF80915E053D
:1029400090915F05432F55274330510509F44AC044
:1029500078F54130510509F485C08BE590E0E3E45A
:10296000F6E04230510509F003C12091E800277FCD
:102970002093E8002091600530916105821793074C
:1029800008F49C0140E02115310509F070C04111A7
:102990006EC08091E80082FDC9CF809158058823E0
:1029A00029F2853019F28091E80083FFF2CFBECF83
:1029B0004132510509F447C04232510509F0D8C0EF
:1029C0008330910508F0D4C0FC01EE0FFF1FED54D9
:1029D000FE4F0190F081E02D80559E4FDC018C91DF
:1029E00090E01DC0332721303105E9F02115310574
:1029F00079F022303105F9F02330310509F0B8C003
:102A0000E0EBF6E0E4918E2F90E0E0EBF6E007C01B
:102A1000E0E0F7E0E4918E2F90E0E0E0F7E000974F
:102A200009F4A6C0A2CFE0EEF6E0E4918E2F90E08C
:102A3000E0EEF6E0F4CFEEECF6E0E4918E2F90E0DD
:102A4000EEECF6E0ECCF8330910508F091C0880FF2
:102A5000991FFC01E754FE4F0190F081E02D89E0C1
:102A600090E083CF82E190E0EEE9F6E07ECF8091C6
:102A70005805882309F45ACF853009F457CF80913F
:102A8000E80083FD53CF8091E80082FD82CF8091E2
:102A9000E80080FF78CF9091F3008091F20021153B
:102AA000310519F08830910550F041E0089709F0A0
:102AB00040E08091E8008E778093E80064CF4491F5
:102AC0004093F1003196215031090196E8CF8038CA
:102AD00009F04EC08091E800877F8093E8008091E4
:102AE00059058093F10092CE811142C010915C058E
:102AF0001230F0F58091E800877F8093E800109312
:102B000059050E948E04112311F084E005C08091C4
:102B1000E30087FDFACF81E08093580542E061EC45
:102B200081E00E94AD0442E261EC84E00E94AD04C9
:102B300042E261EC82E00E94AD0442E260EC83E09C
:102B40000E94AD048091580513C080915C058130CE
:102B500079F481E0933009F080E08093570510927A
:102B6000E9008091E800877F8093E8000E948E044E
:102B70008091E80083FF0AC08091E800877F8093FE
:102B8000E8008091EB0080628093EB00AA96E3E07E
:102B90000C946A34EBE3F4E0128E138E8FEA90E02B
:102BA0009183808385E0848F28E833E13383228317
:102BB00022E330E0378B268B28EC30E0318F208FFA
:102BC000158E178E168E20E530E031A320A382A348
:102BD0000E94930D0E94EB1210922F0510922E0569
:102BE000EFE2F5E080818460808380912E059091F2
:102BF0002F050E941A0E0E945A0C0895AEE1B0E013
:102C0000E4E0F6E10C944434A0901301B090140178
:102C100081E090E0909314018093130183EDC82E1E
:102C200083E0D82E00E0760110E015C0F401259174
:102C30003491472D612F802F0E94DB0D82E0880E9A
:102C4000911C7394ECE07E12F1CFF8E1EF0EF11CD1
:102C50001F5F153019F04701712CE8CF0F5F88E72F
:102C6000C80ED11C0430F9F60E94CA151A821982C6
:102C70001C821B821E821D8218861F8288EC90E0B7
:102C80009A8789870BE212E04AE050E0B801CE0152
:102C900001960E94EE34065F1F4F0B37E2E01E07DD
:102CA00099F77E01FBE0EF0EF11C8AE0F70111922B
:102CB0008A95E9F74AE050E0B801C7010E94EE3476
:102CC000065F1F4F0B3CF2E01F07A1F77E0185E175
:102CD000E80EF11C8AE0F70111928A95E9F78FEF6F
:102CE0009FEF9A8F898F87E08E8F4AE050E0B8017E
:102CF000C7010E94EE34065F1F4F0B31F3E01F0740
:102D0000A1F7B0921401A09213016E96EDE00C941D
:102D1000603480E00E94010E60E086E290E00E9454
:102D2000CA340E94FE150E94CB0D81E00E94010E64
:102D30000895CF92DF92EF92FF928FEF9FEF443092
:102D4000510508F46AC0FB01C080D180E280F380A5
:102D50000E94EB1280912E05C0FA80F9B701A601FE
:102D6000769567955795479540FB81F9B701A60180
:102D700022E076956795579547952A95D1F740FBC0
:102D800082F9B701A60133E0769567955795479587
:102D90003A95D1F740FB83F9B701A601E4E07695B7
:102DA000679557954795EA95D1F740FB84F9B701A8
:102DB000A601F5E07695679557954795FA95D1F771
:102DC00040FB85F9B701A601A6E076956795579572
:102DD0004795AA95D1F740FB86F9B701A601B7E060
:102DE0007695679557954795BA95D1F740FB87F942
:102DF00080932E0580912F05D0FA80F9D1FACC244A
:102E0000C0F8C0FA81F980932F0580912E0590912A
:102E10002F050E941A0E90E080E0FF90EF90DF9067
:102E2000CF9008950E94EB122FEF84E39CE0215095
:102E300080409040E1F700C0000088E19CE00FB6C0
:102E4000F894A895809360000FBE90936000FFCF28
:102E5000882321F00E94500A0E949411089588232B
:102E600039F090916305982B909363050E9494111B
:102E70000895882321F00E94570A0E949411089512
:102E8000882321F00E945E0A0E94941108958823ED
:102E900039F19CEF980F913A28F40E94850A0E941C
:102EA0009411089590E2980F983050F4877091E053
:102EB00001C0990F8A95EAF7892F0E94570AEFCF30
:102EC0009BE5980F933028F490E080E00E940F0675
:102ED0000895885A873120F490E080E00E94F90537
:102EE0000895FF920F931F93CF93DF93F82E0091D5
:102EF0001C0510911D050115110509F449C010921A
:102F00001B0510921A051092170510921805D8018A
:102F10001696CD91DC919E013A9521153F4108F41A
:102F2000D07ED1E0C11101C0D0E0D8011996ED9159
:102F3000FC911A97309731F01B966D917C9180E04F
:102F40000995D823DD2339F08CEF8C0F813A30F5C9
:102F50008C2F0E94850AFF2099F0E0911C05F091CA
:102F60001D05808584FD0CC080911905882341F0E2
:102F7000808191819C0121503109203B3D45A0F089
:102F80000E94941110921D0510921C0510921905B3
:102F9000C801CDB7DEB7E5E00C9468340E94941107
:102FA0008C2F0E944717D7CF0E943206E9CFCF93CC
:102FB000DF93EC010E944717CE010E94600B9E0137
:102FC000205E31092830310510F0CD2B29F40E9404
:102FD0003917DF91CF9108950E942817FACFCF9328
:102FE000C82F8823C9F18CEF8C0F813AB8F58091F6
:102FF0001901882301F180912E0587FF1CC0EC2F59
:10300000E695E695E695F0E0EE53FE4F828190E07E
:103010004C2F477021E030E002C0220F331F4A9549
:10302000E2F782239323892B81F08C2F0E94850A5B
:103030000E9494110AC0E4ECF1E08AEC91E0219145
:10304000C21799F38E179F07D1F76C2F82EC91E08E
:103050000E94C4050E949411CF91089580E28C0FC4
:10306000883048F4C77081E001C0880FCA95EAF73C
:103070000E945E0AEFCFEBE5EC0FE33040F4F0E0A6
:10308000EB5DFE4F808190E00E940F06E5CFC85AAD
:10309000C73110F7EC2FF0E0EE0FFF1FE85DFE4F99
:1030A000808191810E94F905D7CF1F93CF93DF9341
:1030B000182FC0915B04D0915C04893321F0C0913A
:1030C0005904D0915A04812F0E94EF17209739F4A8
:1030D000812F0E944717DF91CF911F9108958FE9AB
:1030E0009FE00197F1F700C000002197EFCFB0E01B
:1030F000A0E0EDE7F8E10C944734EC018AE0A82E5B
:103100002881222309F48FC02130C9F599818A8151
:10311000913021F422960E94551805C0923029F46E
:1031200022960E94EF172196EBCF933021F422963E
:103130000E944717F8CF943011F02196F4CF2296D1
:1031400030E020E0AE014F5F5F4F8053990B8A3033
:10315000910550F02150310930F38FE99FE001973C
:10316000F1F700C00000F6CFA29EB001A39E700D43
:1031700011249C01260F371F8981EA01E3CFE22F3A
:10318000F0E0EC5CF84FB490822F8695869586959A
:1031900090E0FC01EC5DF84FE4902770F12C022EDA
:1031A00002C0F594E7940A94E2F731E0E322FF24A9
:1031B000FC01EC5EF84FC490D12C022E02C0D594D5
:1031C000C7940A94E2F731E0C322DD24FC01EC5FEE
:1031D000F84F049110E002C0159507952A95E2F783
:1031E00001701127E114F10419F081EE0E94EF172C
:1031F000C114D10419F086EE0E94EF178B2D0E94A6
:103200005518C114D10419F086EE0E944717E11435
:10321000F10419F081EE0E9447170115110509F418
:1032200082CF8CE278CFCDB7DEB7EAE00C9463347E
:10323000B0E0A0E0EEE1F9E10C9447347C015B01E1
:10324000C42FD22FFC0182818823A9F0409320054E
:103250000E94B80590931F0580931E05C77081E0FA
:1032600001C0880FCA95EAF70E944017CDB7DEB7B4
:10327000EAE00C94633410912005141338C0809157
:103280001E0590911F050E949D056C01B701C501A7
:103290000E943C0EC816D90650F5C0E2CD0F1D178E
:1032A000C1F080E2810F883048F4177081E0012E70
:1032B00001C0880F0A94EAF70E943917C83048F411
:1032C00081E09D2F977001C0880F9A95EAF70E94C0
:1032D0004017802F0E945518C83040F6D77081E003
:1032E00001C0880FDA95EAF70E943917BFCFC7707F
:1032F00081E001C0880FCA95EAF7F6CFCF93DF933C
:10330000EC010E94600B9E01205E310928303105DE
:1033100010F0209741F40E9440178C2F0E94EF1765
:10332000DF91CF9108950E942F17F7CF662329F0E0
:10333000209163052260209363059C01305621157E
:1033400040E2340720F0305E2115304108F499271F
:103350000E947E190895B0E0A0E0E1EBF9E10C9441
:103360004A347C018B01D42E8091170182FF8CC0DE
:10337000C0916104D0916204CE15DF0521F0E11403
:10338000F10409F081C0809117018B7F80931701B0
:1033900081FD73C080915F0490916004A801481B77
:1033A000590B81E020911501309116014217530706
:1033B00008F480E08170F82E80911701F0FA81F90D
:1033C00080931701FE0183E0F695E7958A95E1F772
:1033D000EE71FF27E55EFB4F20813181AE014F701A
:1033E000552781E090E002C0880F991F4A95E2F7C7
:1033F000FF2009F444C0822B932B9183808380911A
:103400001A0481FF08C08091170180618093170121
:1034100082E00E94570A80911A0485FF08C08091BB
:10342000170180628093170180E20E94570A6F2D76
:10343000CE010E949619DD2031F08091560485FF5F
:1034400002C086FF3BC08091590490915A040E94AB
:10345000290C80916104909162049C0130562115E1
:1034600040E2340720F0305E2115304108F49927FE
:103470000E94D7170E9448121DC081E09BCF809503
:10348000909582239323B9CFC7019927970130568E
:10349000211540E2340728F0305E2115304108F054
:1034A000C7010E94D71780916104909162048E1524
:1034B0009F0501F31093600400935F04CDB7DEB75E
:1034C000E7E00C94663490E080E00E94B434883EDB
:1034D0009E4F19F40E94560D089580E0089568EEFD
:1034E0007EEF90E080E00E94E83460E082E090E0CF
:1034F0000E94CA3460E083E090E00E94CA341092D7
:103500006F0260E084E090E00E94CA3464E082E2EE
:1035100090E00E94CA3460E085E090E00E94CA34E6
:1035200060E086E090E00E94CA346FEF87E090E0B0
:103530000E94CA3440E050E0BA0188E090E00E9466
:10354000DC3460E08DE090E00E94CA3440E050E05E
:10355000BA0188E190E00E94DC3460E087E190E00D
:103560000E94CA3440E050E0BA018CE190E00E9431
:10357000DC3470E060E080E290E00E94E83440E0FB
:1035800050E0BA0188E190E00E94DC3480E00E94C3
:10359000010E0E94891640E050E0BA018FE090E0F1
:1035A0000E94DC3440E050E0BA0183E190E00E94E8
:1035B000DC340895A7E0B0E0E0EEFAE10C943F348B
:1035C0007C01DC0113964D915C91149711966C91DE
:1035D00011978C910E94A3068111EEC061E0C70192
:1035E0000E94480D8C01F70182818823E1F08091CF
:1035F0002105909122050097B1F00817190799F05D
:10360000FEE08F9FC0011124FC01E053FD4F20819B
:103610002460208385539D4FDC010D931C930E94F1
:10362000201210926305F7018281882311F40C9413
:10363000A123C80182519F45409710F00C94952317
:103640008FEF93E00E94AC348111A6C07EEED72E9E
:10365000D00E0BE113E0D11036C019821A821B8202
:103660001C8299249A9468012FEFC21AD20AC801C9
:103670000E94AC3489831A82882309F48DC081307A
:1036800009F07FC0580132E0A30EB11CC6010E94B0
:10369000AC34C82E8A83882309F47EC0C5010E94F9
:1036A000AC34D82E8FEF8C0D8330D8F4580143E022
:1036B000A40EB11CDB82DD2021F0CE0101960E9418
:1036C00077188501D0CF0115F4E01F0709F464C015
:1036D000C8010E94AC34811101C0DA940F5F1F4F02
:1036E000BACF8BEF8C0D833030F5C8010396DB82A7
:1036F0005C01DD2031F3580154E0A50EB11C0E949D
:10370000AC348C838823E9F28B819C818130AFEFCC
:103710009A0710F0982F8827B6E0CB1631F0E7E033
:10372000CE1631F00E94442BCCCF0E941E2BC9CF65
:103730000E94A52AC6CFF4E0CF12C3CF580124E0DF
:10374000A20EB11CC80103960E94AC34DD2021F109
:10375000882311F18150990B989E9001999E300D0C
:1037600011244D2D4150550BCA01820F931F019713
:1037700008F4A7CFAFE9BFE01197F1F700C0000050
:10378000F6CFCE0101960E94771856019ACF81E0BC
:103790000E94C3120E94791280914B02877061F0DF
:1037A000D70112968C91882339F080912F0582FFE2
:1037B00003C082E00E9492122796E2E10C945B34EF
:1037C00081E00E948512E6CF82E0FBCF823011F0CB
:1037D0000C94E0238091C5029091C602892B11F4CC
:1037E0000C94E0232EE02C9DC0012D9D900D112402
:1037F000FC01E053FD4F20812E7F208385539D4F98
:103800000E942012DDC781E080930001C5CF809126
:103810000001882309F4B5C6480120EE821A9108F8
:1038200040906E028091E401482A80911A04482A4F
:1038300038E08316910408F086C09801277033277A
:1038400081E090E001C0880F2A95EAF7552009F43D
:1038500077C0482AD7018D919C910E94DA0A21E015
:1038600030E0F90102C0EE0FFF1F8A95E2F7FF83F7
:10387000EE8320901C0530901D056090E201709051
:10388000E3011D822D81E22FF0E0EE0FFF1FE457D0
:10389000FC4FC080D180C114D10409F4D6C64110B8
:1038A00005C0D60112968C91811189C0F6018381E1
:1038B00090E02E813F8182239323892B09F47FC0DE
:1038C0008085982F977009F487E038E0831691047B
:1038D00008F053C0552009F44CC0869581708823A8
:1038E00009F46DC0D601AD90BC900A151B0519F402
:1038F000552009F464C0C214D30409F460C0D60191
:103900001D96ED91FC91309721F08081882309F478
:1039100056C0642DC6010E948306882309F44FC057
:103920000A151B0509F0D1C70115110509F4D2C705
:103930005110D2C7A614B70409F041C0512CCCC70E
:103940008095482287CF552009F468C61093E3017B
:103950000093E2010E94AC05609313057093140577
:10396000809315059093160510921B0510921A0569
:1039700071CF82FB882780F9B2CF552001F1817089
:10398000AECF0E944717C6C70497813A910558F4F5
:103990006A2D82EC91E00E94C405552009F4F1C51E
:1039A0000E949411F9CE0E9494118FE39CE9019733
:1039B000F1F700C000008A2D0E94EF17EECF9D8125
:1039C0009F5F9D835FCFFC01208131810217130728
:1039D00009F0D0C55110D0C51092190580E00E94A1
:1039E0007117CFC5902F812F14C6F901858181FFF2
:1039F00040C6C9010E9406123CC680911701816031
:103A00008093170164C6809117018E7F8093170100
:103A10000E9448125CC6809117018F7E013E1105FD
:103A200031F0053E1105C9F4809117018F7D809317
:103A300017018091170180FF59C6D70112968C910A
:103A40000832110528F50E31110508F072C0043056
:103A5000110580F5811146C649C6C80190568115E9
:103A600040E2940720F0905E8115904110F780911C
:103A7000170182FF3BC68091580481FD37C62CE8B0
:103A800032E040E0B60190E080E00E94AB192EC623
:103A90000933110558F40D32110518F40B321105D4
:103AA000C9F69091560492FDD5CF08C00436110591
:103AB000C1F3D0CF9091560494FDCCCF882309F464
:103AC000A8C080916E0290911A04892B8D7FB1F16C
:103AD00010926204109261048091560481FD2EC000
:103AE000F80143E0F695E7954A95E1F7EE71FF2777
:103AF000E55EFB4F98012F70332781E090E002C014
:103B0000880F991F2A95E2F7809590952081318141
:103B1000822393239183808360E0C8010E949619D9
:103B200080916E028D7F0E943C0A82E00E94921278
:103B300033CE9091560493FD8DCFC0CF88E0F7012E
:103B4000ACE8B2E001900D928A95E1F710928E02F6
:103B50001092900210928F02809161049091620401
:103B600008171907D1F52091560425FF36C030916A
:103B7000170131FF02C026FF30C020915F04309151
:103B800060045601A21AB30AB7010E943C0EA8169F
:103B9000B90618F580911A0481FF08C080911701B9
:103BA00080618093170182E00E94570A80911A0475
:103BB00085FF08C08091170180628093170180E221
:103BC0000E94570A609117016695617080916104A7
:103BD000909162040E949619DFCD80916E029091BF
:103BE0001A04982B2091170191FB21F920931701BA
:103BF0008D7F0E943C0A1093620400936104D0926E
:103C00006004C0925F048091170184608093170163
:103C10008CCF970140E0B601C8010E94AB19BCCD22
:103C2000053F4CE5140709F463C008F45BC0063F88
:103C30008CE5180709F462C0D70112968C9188238D
:103C400009F4E0C5109220050330BDE51B0708F01C
:103C500061C00A3FECE51E0730F4C80182509C4564
:103C6000449708F063C00E946F0D90932F058093D6
:103C70002E0502314CE5140709F499C108F0E9C09A
:103C800009308CE5180709F470C108F0B3C005309D
:103C9000ACE51A0709F45DC108F09AC00330ECE501
:103CA0001E0709F44EC108F050C180912E058160B5
:103CB00002302CE5120709F4C9C080912E059091BD
:103CC0002F050E941A0E0E94EB1266CD07E225EE28
:103CD00045EE68ED7CE525C506E221EE40EE63EF9A
:103CE0007CE51FC507E225EE44EE64EF7CE519C5CF
:103CF00006E221EE42EE65EF7CE513C507E225EE14
:103D000046EE66EF7CE50DC508E221E045EE69ED83
:103D10007CE507C5053AFDE51F0709F4A4CF08F0C7
:103D200050C001363DE5130709F49DCF0A354DE536
:103D3000140709F4ABC108F084C101158CE518071C
:103D400009F48AC10E3D1C4509F493C1F70186812F
:103D50009781009709F49EC10E94B008182F092F7F
:103D6000F701C280D580D2943FE0D32280914B02EC
:103D70008770C1F0AC2CCC20B1F0892F807F8034CB
:103D800021F080E2810F883068F080912F0582FF5A
:103D900009C082E00E94921280914B028770AA248F
:103DA000A3948111A12C902E92942FE09222FBE0FB
:103DB000F91508F4FCC1E92DF0E0EE5EFA4C0C9424
:103DC0003234C8018D5A9D45039708F0AFCF4BCFD1
:103DD00080912E05806207303CE51307B9F1809190
:103DE0002E05806108304CE5140780F180912E0586
:103DF00080642CC00D305CE5150709F4C0C090F458
:103E000080912E058E7F0B309CE51907F9F080918B
:103E10002E058C600C30ACE51A07C0F080912E05A1
:103E20008D7F14C00F30BCE51B0709F4B8C008F43F
:103E3000AAC00031FCE51F0709F4B5C080912E052A
:103E40008F7B01312CE5120709F037CF80932E05C7
:103E500034CF0F3F3CE5130709F4B3C0A8F50A3F80
:103E60005CE5150709F479C0C0F404319CE5190735
:103E700009F4B5C008F4A1C00531BCE51B0709F081
:103E80001CCF80912E0582FB992790F921E0922783
:103E900090FB82F990FB83F9D9CF0C3FECE51E072C
:103EA00009F475C008F45DC00D3F2CE5120709F454
:103EB00072C080912F0583600E3F3CE5130709F027
:103EC000FCCE80932F05F9CE01364DE5140709F499
:103ED00091C090F401308DE5180709F489C008F409
:103EE00074C060E00230ADE51A0709F0E6CE8EE05E
:103EF00090E00E94CA34E1CE0D3ABDE51B07E9F01F
:103F000060F490912E05892F8E7F90FF8160053A95
:103F1000FDE51F0709F49ACFD0CE0E3A2DE5120722
:103F200051F10F3A3DE5130709F0C7CE90912F05E7
:103F3000892F877F93FF8860C4CF80912F05886089
:103F4000C0CF80912E05826081CF80912E05846044
:103F50007DCF80912E05886079CF80912F0581607B
:103F6000B0CF80912F058260ACCF0E94EB12809180
:103F70002E0580686BCF80912F05877FA2CF80911F
:103F80002E058B7F63CF80912E05877F5FCF809139
:103F90002F058E7F96CF80912F058D7F92CF8091B8
:103FA0002E058F7E53CF80912E058F7D4FCF0E949F
:103FB000EB1280912E058F7749CF80912E05837F5C
:103FC00045CF80912F058C7F7CCF80912F05982F36
:103FD000909591708E7F892B90FB81F972CF0E9412
:103FE000EB1290912E05892F97FB87F980582ECFE1
:103FF00061E07DCF90912E05892F8F7E94FF8061A7
:1040000025CF4EE358E069E478E00E949507C4CBE1
:1040100049E458E06EE378E0F8CF49E158E064E223
:1040200078E0F3CF44E258E069E178E0EECF41EE8A
:1040300057E06FEE77E0E9CF61E081E00E942F0862
:10404000ABCB0C35ADE51A07B9F010F1073A1D45B9
:1040500009F07CCE0E9412170E94EB12FFEF24E3BE
:104060003CE0F15020403040E1F700C000000E94E9
:10407000050C0E946F1AEECF80912F0582FB8827D6
:1040800080F991E089270E94AE1260CE81E0FBCFDB
:1040900080E0F9CF828100811181882369F0C80115
:1040A0000E94CC0CD82E682FC8010E940E0BB801BC
:1040B0008D2D0E94AF0C50CEC8010E94DA0AD82E76
:1040C000F6CF202F2F70B22E802F807F19F0B29460
:1040D00090EFB922CC20A9F0BB2059F080E2810FEB
:1040E000883010F0111107C08B2D0E945E0A0E94CB
:1040F0009411812F5AC080916305B82AB09263054C
:10410000F6CF812F0E944717BB2009F450C080E2F0
:10411000810F883010F0111104C08B2D0E94570AB6
:1041200003C08B2D0E94500A0E94941140C0302F72
:104130003F70B32E802F807F803219F0B29480EFD1
:10414000B822112321F1113009F4AEC0CC2009F4BA
:10415000B7C0DD2009F47FC020E0D7014C91119653
:104160005C91119712966C91129713967C9113970C
:1041700014968C910E94250D8091580481FDB9CF31
:10418000F701858180FFB5CF8F70858364C08091F2
:104190002F0582FD40C0CC20C1F1BB2029F08B2D22
:1041A0000E945E0A0E94941180E00E94EF17A92DE0
:1041B000A850BB0B149710F40E942506812F902F56
:1041C0000E94450B8111B7C11092E6011092E501E2
:1041D000AA20B1F080914B0280FD12C0D701129647
:1041E0001C928595859585950E94C312C7010E94F2
:1041F000DA1A80914B028595859585950E948512E6
:1042000060E0C7010E94480DD7CA80E00E944717AE
:10421000BB2069F282CFCC2011F1D11004C0809173
:104220006E028B2919C041E0D41206C080916E0243
:104230008B290E943C0ABBCF80915704823078F3CF
:10424000D812EDCF0E94310A9091E4018B2D892B79
:1042500089138093E4018B2D0E944017A8CFD110C1
:1042600003C00E94310A17C08091570451E0D51253
:1042700016C0823008F49BCF80911A048B2109F478
:1042800096CF0E94310A9091E4018B2D809589236D
:1042900089138093E4018B2D0E94391788CF8230D7
:1042A00000F3D812DECF83CF80915D04CC2021F0C3
:1042B0008D1508F47CCFCFCFD81608F078CFEBCF90
:1042C000DD2049F380915B0490915C04193321F067
:1042D0008091590490915A040E94290C812F0E94C8
:1042E000471765CF802F86958695837069F081305A
:1042F00009F05DCF812F902F9370C11002C090E024
:1043000080E00E94F90553CF812F902F9370C11048
:1043100002C090E080E00E940F0649CF802F83709A
:1043200091F5C11044CF412F429546954770440FF7
:10433000440F812F8F70042E01C0880F0A94EAF772
:10434000212F207114FF07C02FE030E001C0220FA1
:104350004A95EAF72095302F3695369533703230EE
:1043600069F050F440916F02313029F0822B8423A0
:104370000E94E6121CCF842B822BFACF282B80912F
:104380006F028227F5CF8695CC2011F0802F8170A7
:10439000882309F40CCF412F429546954770440F6E
:1043A000440F812F8F70042E01C0880F0A94EAF702
:1043B000212F207114FF07C02FE030E001C0220F31
:1043C0004A95EAF72095302F36953695337032307E
:1043D00069F050F440916205313029F0822B84233A
:1043E0000E947412E4CE842B822BFACF282B80916A
:1043F00062058227F5CFF02FFF70BF2ECC2029F069
:104400008F2F0E94C312812F27CF812F0E9439172F
:104410008B2D0E948512CBCE123F89F160F4103FA4
:10442000B9F0113F81F0CC2009F480C0D11061CEE9
:10443000802F8F7128C0133F49F1143FA1F780915D
:104440002F0582FD2FC0802F8F71CC2011F31BC050
:1044500080915D04CC2079F0D81608F0A8CE202FEA
:104460002F7181E090E001C0880F2A95EAF79091C2
:1044700062058927B5CF8D1508F499CEF0CF802F2E
:104480008F71C110C6CF0E94C31291CE80E0CC20A4
:1044900009F4A6CF81E0902F9F7101C0880F9A95F3
:1044A000EAF79ECF80915704823040F1CC20D1F0C2
:1044B00090914B029770943041F40E94640A802FCF
:1044C0008F710E948512A12C72CED816E0F7202F92
:1044D0002F71B22E822F0E94C31263E08B2D0E9497
:1044E000CF12F1CFD81630F00E94640A64E0802F1A
:1044F0008F71F5CF81E00E949212E5CFCC2059F068
:10450000302F3F71B32E832F0E94C31263E08B2D97
:104510000E94CF124CCE81E00E94921241E04D15D4
:1045200008F045CE82E00E94921241CED110CACE50
:10453000802F8F716ECFCC2019F0D11045CE48CE90
:10454000D11042CE20E0F701408151816281738118
:1045500084810E94250D8091580483FF35CE80917F
:10456000E5019091E601029709F02ECE812F0E947D
:1045700055182ACE552029F0DC0118968C9185FF1C
:104580002DCAC80197558F3F910511F008F071C0F1
:104590005801BB24BEE00B9FF00111249F0125535D
:1045A0003D4F6901D70112968C91E053FD4F9081E8
:1045B00080FB90F99083882309F417CA0E94B805FC
:1045C00090938B0280938A02F60182818F5F8283AF
:1045D0008091630590911A04892B838380916E02E8
:1045E00084830680F781E02D309731F0D6011C9648
:1045F0006D917C91C60109958EE08A9DF0018B9D9D
:10460000F00D1124E553FD4F858181FFEBC990E04A
:1046100080E090932105809322052BC08091E201D8
:104620009091E3010817190781F41092E3011092A9
:10463000E2011092130510921405109215051092C4
:10464000160510921B0510921A0580911C05909179
:104650001D05009709F495CFA8E08A16910408F08B
:10466000B2C9642D0E948306811103C081E00E94BB
:1046700071178091560480FF39C00E94B8056C0103
:10468000D70112968C91882309F4C5C9809117012E
:1046900082FF08C02CE832E040E0B60190E080E004
:1046A0000E94AB190B31BCE51B0709F4A6C90C31FC
:1046B000ECE51E0709F4A7C990911701892F8E7F99
:1046C00090FF81600A31FCE51F0709F49FC9C8010A
:1046D0009056811520E2920728F0905E8115904156
:1046E00008F0A7C91092620410926104033FBCE570
:1046F0001B0709F4F1CA08F093CA083DFCE51F073F
:1047000009F4E4CA093D2CE5120709F4FDCA073D86
:104710003CE5130709F090CA06E221EE41EE67ED91
:104720007CE5C7010E94181937C80031FFE51F0753
:1047300009F42DC801312FE5120709F041C082E0CC
:1047400027C800313FE5130709F43AC801314FE5A6
:10475000140709F439C86801E7E5DE1AFFEFCF1640
:10476000D10409F068F561EC72E08C2D0E94280EEE
:10477000892B31F58EE08C9DF0018D9DF00D11247B
:10478000E553FD4F8281813009F020C88091C1023C
:104790009091C202892BA1F08091C3029091C40232
:1047A000892B71F08091C5029091C6022091C702B9
:1047B0003091C802822B932B892B11F40C94F21B9D
:1047C000D70112965C90552009F421C80F35BDE53C
:1047D0001B0709F418C80036EDE51E0761F00E3519
:1047E000FDE51F0711F00C94071C80910001882340
:1047F00011F40C94031C1092000180E00E947117C8
:104800000C94CC1B80911A048272093C5CE515075C
:1048100009F40DCC88F5053CACE51A0709F4FDCB8D
:10482000D8F4033CECE51E0709F4EBCB08F0F0CB21
:10483000023C2CE5120709F089CA8091AA0291E096
:1048400089278093AA02109212018091A9028160A7
:104850008093A9020C94CC1B4DEF57E06BE078E0FD
:10486000073C3CE5130709F4D0CB08F4DBCB4BE065
:1048700058E06DEF77E0C9CB0D3C5CE5150709F416
:10488000DBCBB8F442EB57E060EC77E00B3CACE5F7
:104890001A0709F4BACB4FEE57E061EE77E00C3C13
:1048A000BCE51B0708F4B1CB40EC57E062EB77E0C6
:1048B000ACCB063DECE51E0710F40C94CC1B0D357B
:1048C000100711F40C94CC1B41CAA114B10409F0D7
:1048D00031C8512CB12CA12C80E00E947117D092CC
:1048E0001D05C0921C0581E080931905F6018581A4
:1048F0008093170551100EC0AB2861F0F60180813E
:1049000091819C0124503109213A310508F039C8C0
:104910000E94850AD6011696AD90BC90C5019A9565
:1049200081159F4110F4E0EEBE2277247394C501F7
:104930000197803B9D4508F0712CD6011996ED91A9
:10494000FC911A97309731F01B966D917C9181E024
:1049500009957822772081F0F601868197810E945F
:10496000600B80931805C501F8E08F16910410F0D4
:104970000C94C41C0E9432060E9494110C94CD1C0D
:10498000B0E0A0E0E6ECF4E20C944934809104023B
:10499000807F31F480910102C0914802811107C0EB
:1049A000CDB7DEB7E8E00C9465342196C7708091EE
:1049B00007028C17A9F3F090FF01E0900002C0906D
:1049C0000202D0900302A6016E2D8F2D0E94A30635
:1049D000D0E08111EACF8E0183E0000F111F8A958C
:1049E000E1F7F801E85FFD4F81818E11DECF808114
:1049F0008F11DBCF82818111D8CFE380F480EC1856
:104A0000FD0860E08FEF91E00E94480D6FEF71E0CC
:104A10000E943C0EE816F90640F6809104028F7061
:104A2000806180930402F801E35FFD4F80818F7005
:104A3000806180838FEF91E00E94DA1A0E94D00A91
:104A4000AFCFA5E1B0E0E7E2F5E20C9442348C018F
:104A500085E0F801DE01519601900D928A95E1F70B
:104A6000D8015C9011966C9011971296EC90129769
:104A70001396CD90DC9060E08FEF91E00E94480D9E
:104A80008FEFA82E81E0B82E809002029090030252
:104A9000A401609100028091FF010E94A306811190
:104AA000A8C1F0900102F601E819F9094F0160E090
:104AB000FF2009F44BC1C5010E94480DB5010E94B9
:104AC0003C0E709004028816990608F0F2C04091DE
:104AD000020250910302B090FF01A0900002872DC6
:104AE000807F6A2D09F08CC08B2D0E94A306FE2CBE
:104AF000811127C0D80111968C9111978A1121C07C
:104B00008C918B111EC020910502309106021696E1
:104B10008D919C9128173907A1F4E11012C0872DBF
:104B20008F708061809304028FEF91E00E94DA1A07
:104B300080910402F80185838F2D6596EFE00C9437
:104B40005E34A601662D852D0E94A306D82E81E035
:104B50008E25D11080E080FF18C04E2D662D852D4A
:104B60000E94B00A882389F08091580480FF0DC00C
:104B70008FEF91E00E94DA1A88E0EFEFF1E0DF01B9
:104B80001D928A95E9F7F12CD7CF81E08E25D110BF
:104B900080E0B82FB170CB2E80FF29C04E2D662D3E
:104BA000852D0E94B00AD82E811121C0598A6A8AA7
:104BB00089899A890E94FB0C292F22952F70223017
:104BC00050F0243078F49F7051F0F8019581907F77
:104BD00031F4FD2CB1CF9F7011F08823D1F3805EAA
:104BE0008830B8F3C8010E94DA1ADC2CF2CFEE202C
:104BF00009F4A2CF80910402816080930402C3CFA4
:104C00008B2D0E94A306811124C0D80111968C918E
:104C100011978A111EC08C918B111BC02091050227
:104C20003091060216968D919C9117972817390797
:104C300081F4E1100EC015967C92C8010E94DA1A28
:104C400088E0F801AFEFB1E001900D928A95E1F7AD
:104C500073CFC8010E94080D882339F1EE2029F195
:104C6000809104028032A0F02091FF013091000277
:104C70003A8729871B86DD86CC868E878091050240
:104C800090910602988B8F87CE0109960E94DA1ABE
:104C900088E0F801AFEFB1E001900D928A95E1F75D
:104CA0000E94C024FF24F39447CFC8010E94DA1A5F
:104CB000F9CF872D807F09F45BCF9090FF01809022
:104CC00000024091020250910302682D892D0E943A
:104CD000A30681111CC0F8018181881118C0808150
:104CE000891115C0209105023091060286819781B5
:104CF0002817390761F4E1100AC07582C8010E94C3
:104D0000DA1A88E0D5011D928A95E9F715CFC80116
:104D10000E94080D882349F2EE2039F280910402A6
:104D2000803208F4B5CF2091FF01309100023A8320
:104D300029831B82DD82CC828E8380910502909133
:104D4000060298878F83CE010196A0CF8FEF91E066
:104D50000E94480D6FEF71E00E943C0E8816990684
:104D600080F6FE2CEE2009F4A0CFE090FF01D09059
:104D7000000240910202509103026D2D8E2D0E947F
:104D8000A306811128C0F80181818D1124C0808182
:104D90008E1121C0209105023091060286819781F3
:104DA00028173907C1F48091580482FD49CF9091AA
:104DB000040290FD45CF907F09F442CF8091040218
:104DC0008583903F09F439CF982F907F905F8F7043
:104DD000892B858332CFC8010E94080D811158CFDD
:104DE00080910402816080930402C8010E94DA1A53
:104DF000A3CEEE2009F459CFC8010E94080DF82E69
:104E0000882309F452CF88E0F801AFEFB1E00190B8
:104E10000D928A95E1F78091FF01909100020E9426
:104E2000FB0C0E94C02488CEA0E1B0E0EAE1F7E2EA
:104E30000C944F3429873A874B875C876D877E8730
:104E40008F87988BCE0109960E94212581112FC052
:104E500088E0FE013996DE01119601900D928A9547
:104E6000E1F74C855D856A8589850E94A3068111DD
:104E70001EC0A0910702B0E0CD010196877099276E
:104E80002091480228171906E1F093E0AA0FBB1FF2
:104E90009A95E1F7A85FBD4F98E0FE013196019029
:104EA0000D929A95E1F7809307020E94D00A8091B3
:104EB000480290910702891312C06096E2E00C94B8
:104EC0006B340E94EB12109207021092480288E0A5
:104ED000EFEFF1E0DF011D928A95E9F7E8CFB8E046
:104EE0008B9FC0011124885F9D4F0E94212588233C
:104EF00021F38091480290E0019687709927809372
:104F00004802D5CFEF92FF920F931F93CF93DF9379
:104F100080916604882361F0C09165048CE0F82ECE
:104F200080916604C81748F01092660410926504D8
:104F3000CDB7DEB7E6E00C946734EE24E394EC0ED4
:104F4000E09265040C2F10E0CF9DE0011124C959B7
:104F5000DB4F4B815C81698188810E94A3068111AE
:104F60001DC08E819F81892B21F4888599850196AA
:104F700051F4288139814A815B816C817D818E81E8
:104F80009F810E941427F09EF001F19EF00D1124E4
:104F9000E959FB4F1482138210926305CE2DC0CFC6
:104FA00010920A05109209051092180180910805C7
:104FB000809307050E94DC060E9482270895B0E0D6
:104FC000A0E0E5EEF7E20C944034C091070597E0CD
:104FD000892E01E010E02CE0322E3EEF932E442487
:104FE0004394809108058C1309C00E9482270E9477
:104FF000DC06CDB7DEB7E1E10C945C34D0E0FE0115
:10500000EE0FFF1FE150FB4F80819181889ED00100
:10501000899EB00D1124A953BB4F14962C9114975F
:10502000211158C050906604E7E6F4E030E020E03B
:10503000712C5D01251508F04BC0E284F384D50185
:10504000CD90DC906FEF7FEF612C462D50E0DA01C0
:10505000AA0FBB1FAC0DBD1D0D90BC91A02D1097CC
:1050600031F0EA16FB0609F4BA016394EECF6F3F04
:105070007607A9F1D80102C0AA0FBB1F6A95E2F713
:105080007A2AB801062C02C0660F771F0A94E2F74D
:10509000AB014150510974161506F9F4329EF00126
:1050A000339EF00D1124E959FB4F889ED001899E53
:1050B000B00D1124A953BB4F12962D913C9113971B
:1050C00037832683908291829187808715964C92B0
:1050D0000E94AE062196C37084CF148213822F5F84
:1050E0003F4F3C96A7CFA9E1B0E0E9E7F8E20C9486
:1050F0003F34942F498B252F5A8B6B8B7C8B8D8B58
:105100004C895D89622F892F0E94A306811109C0F5
:105110008091E5019091E60101969093E6018093DC
:10512000E5018B898111109263051D861E861F86FD
:10513000188A85E0FE017196DE01199601900D92A4
:105140008A95E1F780912F0582FF1EC080913D0472
:1051500090913E04892BC1F00E94B805209149022C
:1051600030914A02821B930B20913D0430913E0402
:105170008217930720F080914B0282FFE2C10E94C8
:105180006B0A81110E94310A4C855D856A8589858B
:105190000E94A306811111C061E0CE0109960E9410
:1051A000480D6C018B8527EFC2162CE5D20681F4E1
:1051B000882321F181E08093180129853A854B8568
:1051C0005C856D857E858F8598890E941427C6C071
:1051D00038EFC3163CE5D30629F4882379F00E9402
:1051E000D027EBCF49EFC4164CE5D40639F4882319
:1051F00029F0809118018111F2CFDCCF07EC14E087
:10520000512CB12CA12C22242394312C2EEF422E90
:10521000F8014081518188248A94982C20E0822FC3
:1052200090E0FC01EE0FFF1FE40FF51F608171811C
:105230006115710531F0C616D70609F44C012F5FD0
:10524000EECFF12CFFEF8F169F0609F449C0F8014D
:105250004481F09018018F2D411180E0F82FF170FA
:10526000FF2EF801E58086819B85992309F4F8C01B
:10527000FF2009F4F5C06090510470905204E110D1
:1052800013C0A101082C01C0440F0A94EAF7842B33
:10529000868380916304909164048615970520F4B9
:1052A0007092640460926304C10102C0880F991F68
:1052B0002A95E2F70197F80126812817190681F44B
:1052C0008091090590910A05009709F44BC00E944E
:1052D0009D056816790608F045C021E0F801248391
:1052E0005F28FFEFAF1ABF0A095F1F4F28E0A21621
:1052F000B10409F08DCF8B85882309F40DC15520A9
:1053000009F40AC10E94B80590930A058093090523
:1053100080916604883010F591E0980F90936604B0
:1053200098E0FE013996DE01119601900D929A9552
:10533000E1F73CE0839FC001112489599B4F28E08D
:10534000FE013196DC0101900D922A95E1F72FEFD5
:105350003FEFFC0131872087D386C2866996E2E160
:105360000C945B348091070550910805982FF0E06C
:10537000E0E0851314C090930705E017F10709F4E6
:10538000AFCF90E0FC01EE0FFF1FE150FB4FB18269
:10539000A08201968370992780930805A1CF682E7B
:1053A000712CF301EE0FFF1FE150FB4F2081318183
:1053B00047E0429FD001439FB00D1124A953BB4F3A
:1053C0006D917C911197798F688F40E020E030E0FB
:1053D000E32FF0E0EE0FFF1F688D798DE60FF71FCA
:1053E0008080918081149104E1F0F8010190F081B6
:1053F000E02DFF8BEE8B20E005C08616970609F4A2
:105400004F2D2F5FE22FF0E0EE0FFF1F6E897F8997
:10541000E60FF71F608171816115710571F73F5FBC
:10542000D7CF4423D1F0F801231708F0FD0121E084
:1054300024830E171F0721F490930705F42E50CFF5
:10544000981305C0AE17BF0711F49F5F93709301C7
:105450002F5F3F4F822F83708CCFF0E0E0E0F7CFDB
:1054600090E0E11020C0B10102C0660F771F2A95BD
:10547000E2F79B01215031098217930731F444234D
:1054800009F448C0C5010E94AE06C101082C01C044
:10549000880F0A94EAF7982F9095F801868189235E
:1054A0008683FE2C1DCF9C01082C02C035952795C4
:1054B0000A94E2F7A90141705527BC0161507109B6
:1054C00086239723892B11F5452B01F1F801828161
:1054D0009381892BC1F01B821C821D821E8249820E
:1054E0004A820E94B8058160582F9D838C83F80101
:1054F000828193818F83988729813A814B816D8145
:105500007E810E941427F8011582BFCFF22FF1701F
:10551000EF2EBBCFEF2CB9CF9091070580910805F6
:10552000981731F00E94DF27552009F446CE16CF98
:105530000E94822710920A05109209050E94DC063B
:10554000F3CF82E00E9492121ACEA5E0B0E0EBEA1F
:10555000FAE20C944F34909317048093160481154B
:1055600020E2920730F40E94D7172596E2E00C94CF
:105570006B3480EF89838A831B820E94B805816027
:10558000782F9D838C8349815A816B818D810E9404
:105590007328EBCF0F931F93CF93DF938C01EB0115
:1055A00061EC72E08C2F0E94280E892BA1F480916F
:1055B000590490915A040E94290CDD27C754DD4FED
:1055C0008881F801128218828330F1F048F481302A
:1055D00059F0823081F0DF91CF911F910F910895A2
:1055E0008430B9F08530B9F78091C1029091C20240
:1055F000009789F306C08091C3029091C40200977E
:1056000099F30E94A52AE7CF8091C5029091C60226
:10561000F6CF8091C7029091C802009791F7209130
:10562000C1023091C2028091C3029091C40221153F
:105630003105F1F2009729F7C901E3CFA5E0B0E009
:10564000E4E2FBE20C944F34909317048093160429
:10565000811520E2920730F40E947E192596E2E03F
:105660000C946B3480EF89838A8381E08B830E9462
:10567000B8058160782F9D838C8349815A816B8125
:105680008D810E947328EACFCF93DF93EC010E94B3
:105690001E2B8091590490915A040E94290CCE012E
:1056A0000E94A52ADF91CF9108950F931F93CF9366
:1056B000DF938C01862F61EC72E00E94280E892B0B
:1056C000B1F4C091C102D091C202209781F0F801DB
:1056D0008281833051F4CE010E94442BCE010E947E
:1056E000442BCE010E94442B02C08430D0F7DF91BE
:1056F000CF911F910F9108950F931F93CF93DF9335
:105700008C01EB0161EC72E08C2F0E94280E892B3A
:1057100009F05CC0FE01FF27D80112968C91129708
:10572000E754FD4F8130B9F415969C9192FF02C069
:1057300080830AC090FFFCCF82E080838091C30207
:105740009091C4020097B9F48091C1029091C20275
:105750000097E1F110C08230B9F515968C9182FD69
:1057600028C080FD0BC083E080838091C5029091AA
:10577000C602009701F10E941E2B28C084E080839E
:105780008091C7029091C8020097A9F78091C10249
:105790009091C2020097F9F00E94442B8091C302BD
:1057A0009091C402009739F78091C1029091C20292
:1057B000E2CF85E080838091C1029091C202009780
:1057C00029F00E94442BF0CF86E08083DF91CF91B7
:1057D0001F910F9108958091C3029091C402B8CF98
:1057E0001F920F920FB60F9211242F933F934F9356
:1057F0005F936F937F938F939F93AF93BF93CF9359
:10580000DF93EF93FF93D091E900DF708091EC007C
:10581000C82FC17080FDC0E81092E9008091F000AF
:10582000877F8093F00078940E9401131092E90022
:105830008091F00088608093F000CD2BCF70C093F2
:10584000E900FF91EF91DF91CF91BF91AF919F91CF
:105850008F917F916F915F914F913F912F910F9019
:105860000FBE0F901F9018951F920F920FB60F92B8
:1058700011242F933F934F935F936F937F938F9355
:105880009F93AF93BF93EF93FF938091E10082FFCB
:1058900009C08091E20082FF05C08091E1008B7F0A
:1058A0008093E1008091DA0080FF24C08091D800CD
:1058B00080FF20C08091DA008E7F8093DA00809193
:1058C000D90080FF9DC080E189BD82E189BD09B416
:1058D00000FEFDCF81E08093580580913305811152
:1058E00009C00E9414040E94DF048091E2008460D9
:1058F0008093E2008091E10080FF17C08091E20078
:1059000080FF13C08091E2008E7F8093E20080913F
:10591000E20080618093E2008091D80080628093F1
:10592000D80019BC85E0809358058091E10084FF80
:105930002BC08091E20084FF27C080E189BD82E115
:1059400089BD89B5982F917080FFFBCF8091D800D9
:105950008F7D8093D8008091E1008F7E8093E1005D
:105960008091E2008F7E8093E2008091E20081606E
:105970008093E20080915905882309F447C084E0B0
:1059800080935805809158058091E10083FF27C0DE
:105990008091E20083FF23C08091E100877F8093A4
:1059A000E10082E080935805109259058091E10052
:1059B0008E7F8093E1008091E2008E7F8093E200F1
:1059C0008091E20080618093E20042E060E080E04C
:1059D0000E94AD048091F00088608093F000FF91F8
:1059E000EF91BF91AF919F918F917F916F915F9157
:1059F0004F913F912F910F900FBE0F901F901895D0
:105A000019BC109258051092330574CF8091E300B1
:105A100087FD93E090935805B5CF78941F921FB6F9
:105A20001F9211248F939F93AF93BF9380912A0568
:105A300090912B05A0912C05B0912D050196A11DEB
:105A4000B11D80932A0590932B05A0932C05B0934C
:105A50002D05BF91AF919F918F911F901FBE1F90F9
:105A600018951F921FB61F9211248F939F93AF9387
:105A7000BF9380912905811113C080912A059091CF
:105A80002B05A0912C05B0912D054196A11DB11DAE
:105A900080932A0590932B05A0932C05B0932D0598
:105AA000BF91AF919F918F911F901FBE1F9018952E
:105AB000CDB7DEB7EC970FB6F894DEBF0FBECDBF03
:105AC00085B7806885BF85B7806885BF84B7877FC5
:105AD00084BF0FB6F894A895809160008861809388
