:100000000C9484030C94BC030C94BC030C94BC03AC
:100010000C94BC030C94BC030C94BC030C94BC0364
:100020000C94BC030C94BC030C94732D0C942F2DD6
:100030000C94702E0C94BC030C94BC030C94BC0365
:100040000C94BC030C94BC030C94BC030C94BC0334
:100050000C94BC030C944C2E0C94BC030C94BC0369
:100060000C94BC030C94BC030C94BC030C94BC0314
:100070000C94BC030C94BC030C94BC030C94BC0304
:100080000C94BC030C94BC030C94BC030C94BC03F4
:100090000C94BC030C94BC030C94BC030C94BC03E4
:1000A0000C94BC030C94BC030C94BC030501090222
:1000B000A10185020901A100050919012905150001
:1000C00025019505750181029501750381010501E1
:1000D000093009311581257F950275088106093897
:1000E0001581257F950175088106050C0A380215D2
:1000F00081257F950175088106C0C005010980A191
:1001000001850319012AB700150126B7009501756D
:10011000108100C0050C0901A101850419012AA064
:1001200002150126A002950175108100C005010984
:1001300006A1018506050719E029E71500250195A7
:1001400008750181020507190029EF1500250195A1
:10015000F0750181020508190129059505750191C0
:1001600002950175039101C00660FF0961A10109B3
:1001700062150026FF0095207508810209631500AD
:1001800026FF00952075089102C005010906A1010E
:10019000050719E029E71500250195087501810279
:1001A0009501750881010507190029FF150026FF33
:1001B0000095067508810005081901290595057542
:1001C000019102950175039101C0FD377A585A00DB
:1001D0000004E6D6B4460200210116000000742F88
:1001E000E5A3E0028801165D003D888986D3DC0A1C
:1001F000E842C324925842588FD8E75CA0D2616E7F
:1002000026E888019A676C7887BC8D3709EA1EB4A6
:100210008DA53C798586633FDCC445A3F020FF2093
:10022000B3687235CC77FE57F71DCDC486FDE5E87F
:10023000F629B306CB2F6EAEAFE01E70F839F93F4A
:100240008C544E6C3443695CC3B1E42AC971E0B28A
:10025000C773BBF0A79EBDE61D9F8AB4A28922800A
:1002600055C2CA343E399482ACD1AE33814BDE9D47
:10027000E5B100824EB434A30060A59DE7CA1E22FA
:10028000A557AFE84F224E0EF2AB32B0C8BAE4DF4A
:10029000C0FF5E067977299CD7A2A7887DE312FC70
:1002A000FC5B6017C041E10F608B7C056C3B47BF76
:1002B0002F4FA3991C9A6519E73A1B32777B4DB9EA
:1002C0005E4D81357DFF3D23002BB0DFB7B01B377E
:1002D0002A6932F3B42A71B92FF21A1BD993C28D4D
:1002E00011C759A0932D6A9A31F06C87A5EBBA1902
:1002F000BCD8A02183639394ECFE3AACF77700005E
:100300000000036ED6A93A4959110001B2028905CD
:100310000000990E0D78B1C467FB020000000004D4
:10032000595A000101010101010101010202020209
:10033000020202020203030303030303030404048F
:100340000404040405050505050606060606070758
:1003500007070708080808090909090A0A0A0B0B10
:100360000B0C0C0C0D0D0D0E0E0E0F0F0F101011AF
:100370001111121213131414151516161717181835
:1003800019191A1A1B1B1C1D1D1E1E1F202021229D
:1003900022232424252626272829292A2B2C2D2DE3
:1003A0002E2F30313232333435363738393A3B3C00
:1003B0003D3E3F404142434445464748494A4C4DF3
:1003C0004E4F50515354555658595A5B5D5E5F61BC
:1003D0006264656668696B6C6D6F7072737577784F
:1003E0007A7B7D7E8082838587888A8C8E8F9193AD
:1003F0009596989A9C9EA0A2A3A5A7A9ABADAFB1D4
:10040000B3B5B7BABCBEC0C2C4C6C9CBCDCFD1D4B8
:10041000D6D8DBDDDFE2E4E7E9EBEEF0F3F5F8FA5E
:10042000FDFF1E001F00200021002200230000000D
:1004300000000000000000000000290014001A0065
:100440000800150017001C0018000C001200130013
:100450002A002B0004001600070009000A000B0008
:100460000D000E000F0033002800E1001D001B00EE
:100470000600190005001100100036003700520078
:10048000E500E000E300E200000000002C000000B6
:1004900000000000500051004F00010001006A04FC
:1004A000230F560F0000020002006604230F560FB0
:1004B0000000030001006B04230F560F000004002E
:1004C00002005004230F560F3507050001006C048D
:1004D000230F560F0000060002005204230F560F90
:1004E0000000070002006804230F560F00000800F8
:1004F00001006D04230F560F000009000200540490
:10050000230F560F10070A0002005604230F560F40
:1005100010070B0002005804230F560F10070C00A1
:1005200002005A04230F560F10070D0002005C044E
:10053000230F560F10070E0002005E04230F560F04
:1005400010070F0002006004230F560F1007100061
:1005500002006204230F560F10071100020064040A
:10056000230F560F1007120002006E04230F560FC0
:100570000000130002007004230F560F0000140047
:1005800001007204230F560F000015000000000048
:1005900096067718000009025B00030100A0FA0923
:1005A00004000001030101000921110100012240A2
:1005B000000705810308000109040100020300008F
:1005C00000092111010001222200070582032000F9
:1005D00001070503032000010904020001030000D4
:1005E0000009211101000122BC000705840320003D
:1005F0000112010002000000088C540300100101E8
:100600000203011C037600690061006C003A006679
:1006100000360034006300320062003300630000E3
:100620000010034D0065006D006F007200690061ED
:100630000000001E035300680069006E006B00613B
:1006400000690020004D006100790061006E006FBC
:100650000000000403090400000000000000000086
:10066000000000000000000000000000000000008A
:1006700000000000000000000000007E0F00D4FF1A
:10068000FFFFC70000007800000000000000002A03
:100690002B28000000000000000000000000000007
:1006A000000029000000002C1E34202122243426C2
:1006B00027252E362D3738271E1F202122232425BB
:1006C000263333362E37381F0405060708090A0B70
:1006D0000C0D0E0F101112131415161718191A1BE2
:1006E0001C1D2F3130232D350405060708090A0B80
:1006F0000C0D0E0F101112131415161718191A1BC2
:100700001C1D2F3130354C0011241FBECFEFDAE015
:10071000DEBFCDBF04B603FE18C080917605909170
:100720007705A0917805B09179058730904BA74067
:10073000B04B59F410927605109277051092780517
:1007400010927905E0E0F8E3099511E0A0E0B1E04E
:10075000E2E1FFE602C005900D92A83CB107D9F78F
:1007600025E0A8ECB1E001C01D92A637B207E1F781
:100770000E94972E0C945C370C940000E8EDF0E09A
:1007800080818E7F80831092E2001092DA001092B6
:10079000E100A0EEB0E08C9181608C9380818F7736
:1007A000808319BCA7EDB0E08C918E7F8C93808103
:1007B0008F7E80831092450508952091E40030914A
:1007C000E50095E6A9012091EC00822F817020FFC1
:1007D00006C08091E80080FF06C080E00895209167
:1007E000E80022FD1AC080916A05882389F08530CF
:1007F00089F08091EB0085FD0FC02091E4003091DD
:10080000E50042175307F9F29150E1F684E00895AC
:1008100082E0089583E0089581E00895EF92FF92C9
:100820000F931F93CF937C018B010E94DD03C82F90
:10083000811117C08091E80085FD0BC08091E80010
:100840008E778093E8000E94DD03882399F3C82FF8
:1008500008C0F70181917F018093F10001501109D7
:1008600049F78C2FCF911F910F91FF90EF90089532
:1008700080916C0587FF13C08091E80082FF06C05D
:100880008091E8008B778093E80004C080916A052E
:100890008111F2CF089580916A058823D9F3809160
:1008A000E80080FFF8CF8091E8008E77ECCF982F9A
:1008B0009093E900242F762F50E0891731F0709142
:1008C000EC002091ED005091F00021FD07C09F5FEA
:1008D000973071F78093E90081E008953091EB0043
:1008E0003E7F3093EB003091ED003D7F3093ED0083
:1008F0003091EB0031603093EB007093EC0020936B
:10090000ED005093F0002091EE0027FDE0CF80E055
:100910000895B0E0A0E0EFE8F4E00C949F36C8ED55
:10092000D0E088818F7E8883E7EDF0E08081816070
:10093000808384E082BF81E08093450588818E7F3B
:10094000888302EE10E0F80110821092DA0081EE46
:10095000C82ED12CF601108288818F7788838881F8
:100960008068888388818F7D888319BC10926A058E
:1009700010926B05109269051092680590EEE92EB1
:10098000F12CF70180818B7F80838881816088834F
:1009900042E060E080E00E945704F60180818E7F93
:1009A0008083F8018081816080838081886080837A
:1009B000F70180818E7F8083888180618883CDB7B5
:1009C000DEB7E8E00C94BB36FC0180917205909193
:1009D000730586179707A0F06115710529F49091AA
:1009E000E8009E779093E80090E06115710551F45E
:1009F000911108C08091E80082FF34C080E0089522
:100A0000BC01F2CF80916A058823C1F18530C1F124
:100A10008091E80083FD30C08091E80082FDEACF3C
:100A20008091E80080FFE1CF8091F3002091F200F7
:100A3000382F6115710519F02830310558F091E013
:100A40002830310509F090E02091E8002E772093BE
:100A5000E800CBCF81918093F100615071092F5F45
:100A60003F4FE7CF80916A05882341F0853041F000
:100A70008091E80083FFBECF81E0089582E0089571
:100A800083E0089508958091470508959C014FB72C
:100A9000F89480913C0590913D05A0913E05B09160
:100AA0003F054FBF821B930B08952FB7F8946091B9
:100AB0003C0570913D0580913E0590913F052FBF0B
:100AC00008952FB7F89480913C0590913D05A09131
:100AD0003E05B0913F052FBF0895209121012223AB
:100AE000C1F02091400527FF14C0E62FE695E6955A
:100AF000E695EE31F8F4E80FF92FF11D677021E06B
:100B000030E001C0220F6A95EAF78281822B82834E
:100B10000895FC0132962FEF30E04191641751F0B7
:100B20002F3F19F4411101C0232F3F5F3630A9F741
:100B30002F3F09F40895820F911D27FD9A95FC011E
:100B4000628308952091390530913A0528173907B5
:100B500071F090933A0580933905E0913705F09153
:100B60003805309721F00084F185E02D099508952E
:100B700020913505309136052817390771F090938B
:100B8000360580933505E0913705F09138053097AB
:100B900021F00680F781E02D09950895E091370551
:100BA000F0913805309729F00190F081E02D0995FA
:100BB000089580E00895CF93DF93EC0140912805DC
:100BC0005091290560912A0570912B052FB7F89453
:100BD00080913C0590913D05A0913E05B0913F0567
:100BE0002FBF841B950BA60BB70B843F9140A1052B
:100BF000B10518F58091280590912905A0912A0545
:100C0000B0912B058093240590932505A09326058C
:100C1000B093270584EF91E0A0E0B0E08093200539
:100C200090932105A0932205B0932305D09330051E
:100C3000C0932F05DF91CF9108950E9455056093D1
:100C4000240570932505809326059093270582E35C
:100C500090E0A0E0B0E0E2CFFC018481862351F473
:100C600092819923B9F06923808583FF05C081E0D3
:100C700061110FC080E00895892F8F7092959F7049
:100C8000982B862F8F7062956F70682B81E096137A
:100C9000F1CF089581E0FDCF452B39F0682381E045
:100CA0006F3F09F080E08170089581E0FCCFDC01A6
:100CB00060911C0580911D05962F891301C0089530
:100CC000292F30E0F901EE0FFF1FEC5EFA4F408153
:100CD00051814A175B07A1F487E08A9FA0018B9F8F
:100CE000500D112444525B4F81E0FA018483961326
:100CF000E6CF2F5F3F4F2370332720931C050895C5
:100D00002F5F3F4F922F9370D8CF1092790410929B
:100D10007804ECEDF4E08581811102C01482168222
:100D2000379685E0E431F807B1F70895B0E0A0E028
:100D3000ECE9F6E00C949D368FEF9FEF44305105BF
:100D400008F469C04091400541FB882780F990E094
:100D5000880F991F42FB002700F910E0000F111FB8
:100D6000000F111F802B912B40FBCC24C0F8D12CFD
:100D70008C299D2943FB222720F9C22FE0E0DE2F9A
:100D800053E0CC0FDD1F5A95E1F78C2B9D2B44FBD4
:100D9000AA27A0F9B0E0E4E0AA0FBB1FEA95E1F7AB
:100DA0008A2B9B2B45FBEE27E0F9F0E0A5E0EE0F48
:100DB000FF1FAA95E1F78E2B9F2B46FB222720F9D8
:100DC00030E0B6E0220F331FBA95E1F7822B932B68
:100DD00047FB222720F930E03695322F222737951E
:100DE0002795822B932B20914105322F3170F32EC2
:100DF000E82EF92A26952170B22EBB0CA82EBF280A
:100E0000C501BB0CAA0BBB0BFB0180839183A283A2
:100E1000B38390E080E0CDB7DEB7EAE00C94B9365A
:100E2000E0E5F4E0848195812AE030E0B9010E9498
:100E3000603660931C01868180931B0182858093BC
:100E40001A0184858093190186859785B9010E94CE
:100E5000603660931801808980931701828980939E
:100E60001601848980931501089580915004909112
:100E7000510490931E0180931D010895E0EEF2E06D
:100E800090E080E064E97CE24BEB5CE229E03CE24C
:100E90007783668351874087338722879587848746
:100EA00001963E968830910599F7089581152CE5B5
:100EB000920741F42091130130911401232B11F476
:100EC00090E080E00895FA01811101C0FB010995CD
:100ED0000895E5ECF2E08183608342838483638339
:100EE00045838783668340870895FC01EE0FFF1FCB
:100EF000E80FF91FEB53FD4F618340832283089570
:100F0000EFEBF2E0248130E1231B08F420E024839E
:100F10008091BE0281608093BE020895EFEBF2E003
:100F2000248130E1230F08F42FEF24838091BE0247
:100F300081608093BE0208959091BF02937071F01A
:100F40008093C0026093C102453608F044E64093A6
:100F5000C2028091BE02822B8093BE020895EFEB05
:100F6000F2E0438120E1421B08F440E0818121E06E
:100F7000628190E00E949C070895EFEBF2E04381CC
:100F800020E1420F08F44FEF818121E0628190E07F
:100F90000E949C070895EFEBF2E0628120E1621B62
:100FA00008F460E0818121E0438190E00E949C0789
:100FB0000895EFEBF2E0628120E1620F08F46FEF39
:100FC000818121E0438190E00E949C070895EFEB2E
:100FD000F2E0818121E0438162818850990B0E9477
:100FE0009C070895EFEBF2E0818190E021E04381DE
:100FF000628108960E949C0708958091BF028370C9
:1010000051F084608093BF02109212018091BE0261
:10101000862B8093BE0208958091BF0286958695A7
:10102000815009F481E061E00E94FD07089561E0CC
:1010300081E00E94FD0708950E94690708950E94BB
:10104000750708950E9461059C019091B2028091FC
:10105000B302982B21F03093AF022093AE0290910F
:10106000B4028091B502982B21F03093AD02209309
:10107000AC02E0913705F0913805309749F082E0F5
:101080008093B0020480F581E02D80EB92E0099519
:1010900008959091B202803F59F48091B30287FF86
:1010A0000DC01092B30291110BC01092AA0208C099
:1010B000813F81F48091B30218169CF3992381F04B
:1010C0008091B4029091B502892B09F064C010920E
:1010D000A9020895823F49F497FFF0CF1092B2021F
:1010E0008091B3028111ECCFE0CF833F19F4191640
:1010F000ACF3E4CF2091B402893F29F41216F4F640
:101100001092B402DBCF8A3F19F427FFD7CFF8CF74
:101110002091B5028B3F29F427FFD0CF1092B50262
:10112000CDCF8C3F19F41216CCF3C8CF843F31F4E5
:101130008091B1028E7F8093B102C0CF853F21F4B0
:101140008091B1028D7FF7CF863F21F48091B1026B
:101150008B7FF1CF873F21F48091B102877FEBCF66
:10116000883F21F48091B1028F7EE5CF8D3F31F42D
:101170008091AB028E7F8093AB02A0CF8E3F21F493
:101180008091AB028D7FF7CF8F3F09F097CF809191
:10119000AB028B7FF0CF08958091AB0280FF0CC033
:1011A0006091160170E07595679575956795611565
:1011B000710549F1862F089581FF06C060911601DF
:1011C00070E075956795F3CF6091160182FD0BC0B5
:1011D0009091A9029923A1F06091150180911601C7
:1011E000961738F0682F70E06038710500F38FE7CC
:1011F0000895899FC001112470E00E947436F4CFD5
:1012000061E070E0D7CF81E008958091AB026091FA
:1012100058047091590480FF16C020911A01269F2E
:10122000C001279F900D1124BC0176956795769596
:1012300067956038710508F043C06115710509F4C0
:1012400041C0862F089581FF0BC020911A01269F6F
:10125000C001279F900D1124BC0176956795E9CFB9
:1012600082FF09C080911A019B01829FB001839F78
:10127000700D1124DECF2091AA022223D1F2909189
:10128000190180911A01482F50E0291748F0CB012D
:10129000849FB001859F700D949F700D1124C9CF5C
:1012A000289F90011124269FA001279F500D369F53
:1012B000500D1124692F70E0CA010E946036B9CF29
:1012C0008FE7089581E00895803F31F40E94050979
:1012D00081958093B3020895813F19F40E94050916
:1012E000F8CF823F31F40E94050981958093B202C4
:1012F0000895833F19F40E940509F8CF893F29F426
:101300000E94CC088093B40208958A3F21F40E9481
:10131000CC088195F7CF8B3F31F40E94CC088195A2
:101320008093B50208958C3F19F40E94CC08F8CF41
:10133000843F31F48091B10281608093B1020895BD
:10134000853F21F48091B1028260F7CF863F21F47E
:101350008091B1028460F1CF873F21F48091B10286
:101360008860EBCF883F21F48091B1028061E5CFA6
:101370008D3F31F48091AB0281608093AB02089580
:101380008E3F21F48091AB028260F7CF8F3FB9F797
:101390008091AB028460F1CF80E00895F894E82F4B
:1013A000E295EF70F0E031A1282F2F7081E090E0FE
:1013B00001C0880F2A95EAF7982F9095932391A35F
:1013C00092A1892B82A3789408959091400592FF71
:1013D00006C0282F28712830F9F4877F846093FF96
:1013E00006C0282F28712831F1F4877E846120916E
:1013F000410520FF06C0382F38713830D9F4877F77
:10140000816021FF06C0282F28712831D1F4877E02
:10141000816194FD877E0895282F24712430F9F688
:101420008B7F8860DCCF282F2471243101F78B7EDD
:101430008861DDCF382F3171313019F78E7F8860A8
:10144000E0CF282F2171213121F78E7E8861E1CFF5
:10145000CF93DF93EC0182389105B1F108F040C0E1
:101460008133910509F49DC048F58932910509F44D
:101470008DC08A9709F49CC0C11521E5D20708F0F8
:10148000C3C0C11530E5D30708F01EC1C83ED10561
:1014900008F0A3C0C03ED10588F5C83AD10508F0D0
:1014A0008EC0C53AD10508F007C1C130D10531F170
:1014B000209721F1C430D10508F545C08533910549
:1014C00009F45FC0C997C1F680914005837009F0A7
:1014D00044C18091410583FF11C0C9E2D0E00EC034
:1014E000833E910599F170F4803E910501F1823EB1
:1014F000910511F68091400582FD21C0CE01DF915A
:10150000CF910895863E910561F1873E910571F175
:10151000843E910509F0B0CF8091410581FFEECF67
:1015200080914005C7EED0E084FD0DC0E7CF8091EB
:10153000400580FD33C09091410590FFDFCFC3EEA1
:10154000D0E084FFDBCFD0E0C0E0D8CF8091400571
:1015500082FD00C19091410590FDFFC084FFCECF78
:10156000F2CF8091400583FDDDCFC8CF809140054B
:1015700083FDF6C09091410591FFF0CFC4EED0E01D
:10158000BDCF8091400585FFB9CFA7CF80914005A1
:1015900085FDE9C08091410583FFB0CFC9E3D0E06C
:1015A000ADCF8091400586FFA9CFCAE2D0E0A6CF9B
:1015B0008091400586FFA2CFC1E3D0E09FCFCF3B13
:1015C000D10508F6C85AD0E0CC0FDD1FC05DDE4F54
:1015D0000990D881C02DD46491CFC11540E2D407C1
:1015E00058F4C11581E0D80708F088CFC03FD10575
:1015F00008F4A9CFD06582CFC11520E4D20708F442
:10160000A2CFDF70D06A7ACFC11535E5D30718F5C0
:10161000C11544E5D40708F085C0C11583E5D80796
:1016200008F06CC0C11522E5D20708F462C0CE01F3
:101630008370992721E030E002C0220F331F8A9582
:10164000E2F7C695C69580E2C89FE0011124C22B3F
:10165000D32BDC6853CFC11539E5D307A8F4C115E6
:1016600048E5D40708F063C0C11586E5D80708F03F
:101670006ACF8C2F0E94E509C82FD0E0DC2FCC2741
:10168000CC27DF71D0623ACFC1152AE5D20708F422
:1016900053C0CE0190568115904208F054CF8D2F43
:1016A0008F710E94E50990E0982F882788279F7105
:1016B0009C012C2BE901E6CFC55AD0E0C35DDE4F7B
:1016C000C881D0E0D0641ACF2C2F269526952370A0
:1016D00040E2249F900111248C2F8370C1E0D0E060
:1016E00002C0CC0FDD1F8A95E2F7C22BD32BDD6839
:1016F00005CFDC2FCC27C16FD06A00CFCE0183701D
:10170000992721E030E002C0220F331F8A95E2F7CB
:10171000C695C69540E2C49FE0011124C22BD32B8D
:10172000DA68ECCEDC2FCC27C46FD06AE7CEDC2F92
:10173000CC27C06FD06AE2CE8C2F8F700E94E50953
:1017400034E0D695C7953A95E1F7CF709C2FEC0120
:10175000D069D4CEC2EED0E0D1CEC0EED0E0CECEB5
:10176000C6EED0E0CBCEC5E3D0E0C8CE8091760205
:10177000882331F010927602109275021092740252
:101780000895CF93C82F8091410582FF0CC08091AE
:1017900076028C1741F00E94610590937502809348
:1017A0007402C0937602CF9108958095909175054B
:1017B0009823909375050895809590912F04982310
:1017C00090932F04089590912F04892B80932F04D8
:1017D00008951092530210925202109251020895ED
:1017E0008091520490915304892B89F00E946105E5
:1017F0002091740230917502AC01421B530B81E0C1
:1018000020915204309153044217530708F480E0AA
:1018100081700895909121019923D1F09091400514
:1018200097FF16C0E82FE695E695E695EE31E0F4D1
:10183000F0E0E653FE4F282F277081E090E001C0D2
:10184000880F2A95EAF780959281892382830895EB
:10185000ECECF1E09191891303C0DF0111971C9228
:1018600091E0E23DF907B1F708952091500290917F
:101870000F02291302C080E0089530E0F90153E01F
:10188000EE0FFF1F5A95E1F7E05FFD4F51815613B0
:1018900006C05081581303C05281541304C02F5FF7
:1018A0003F4F2770E6CF81E00895809150029091DC
:1018B0000F02981301C008958F5F8770FACF292F08
:1018C000953078F58C3068F590E03CE0239F800DF2
:1018D000911D1124682F677023E0969587952A95AE
:1018E000E1F7FC01EE0FFF1FE80FF91FE151FE4F7A
:1018F00050E040E080E0219130E0062E02C03695B5
:1019000027950A94E2F721703327042E01C0220F95
:101910000A94EAF7822B4F5F5F4F4330510559F726
:10192000089580E00895292F953098F58C3088F53A
:1019300090E03CE0239F800D911D1124282F2770FB
:1019400041E001C0440F2A95EAF723E09695879578
:101950002A95E1F7FC01EE0FFF1FE80FF91FE15197
:10196000FE4F30E020E070E05191DF011197CB0194
:10197000022E02C0969587950A94E2F781708195B0
:101980008527842385278C932F5F3F4F2330310594
:1019900059F7089592959F70963091F058F4925FA0
:1019A0009F70923058F4803F19F030F4883E30F444
:1019B00081E008959A5FF4CF843FD1F380E00895E9
:1019C000883EB0F3813FD1F7F3CF9C013A952115C2
:1019D0003F4150F5FC01EE27F170BC0166277270A3
:1019E000AC01442754709C012227387094FF0EC02C
:1019F00080E1EF2B09F480E0672B09F08062452B32
:101A000009F08064232B89F08068089581E0EF2B32
:101A100009F480E0672B09F08260452B09F08460AF
:101A2000232B19F08860089580E008958093420583
:101A3000709344056093430580916A058430F9F4FE
:101A40008093E9008FEF9091E800815095FD06C0EA
:101A500095ED9A95F1F700008111F5CF8091E8009E
:101A600085FF0DC050E040E063E070E082E495E067
:101A70000E940E048091E8008E778093E80008951C
:101A8000BC0184E00E94160D0895BC0183E00E9411
:101A9000160D08959C0184E08093E9009FEF8091EA
:101AA000E800915085FD06C085ED8A95F1F70000AC
:101AB0009111F5CF8091E80085FF0CC050E040E027
:101AC00066E070E0C9010E940E048091E8008E7704
:101AD0008093E8000895CF93DF93EC01809121017A
:101AE0008823B1F18091400587FF32C060E284E035
:101AF0008093E9008FEF9091E800815095FD06C03A
:101B000095ED9A95F1F700008111F5CF8091E800ED
:101B100085FF1BC08091210170E050E040E0811101
:101B200004C050E040E068E070E0CE010E940E0486
:101B30008091E8008E778093E80080E2FE01A8E4BF
:101B4000B5E001900D928A95E1F7DF91CF9108956C
:101B500068E081E0CDCF81E08093E00080E2809377
:101B6000D8001092C9008FE19EE40197F1F700C000
:101B7000000087E090EBDC01809376059093770579
:101B8000A0937805B093790588E19CE00FB6F894AE
:101B9000A895809360000FBE90936000FFCF0197DF
:101BA00008F40895EFE9FFE03197F1F700C0000075
:101BB000F6CF519A3BB13D7F2BB122604FB7F894DD
:101BC00085EC92E0FC015191CF0168E02BB9000057
:101BD00000C057FF3BB9550F000000C000C000C057
:101BE0003BB900C06A9591F7F2E08E3C9F0751F730
:101BF0004FBF8FE594E00197F1F700C00000089512
:101C00000F931F93CF93DF9300E514E0C7E0D2E07A
:101C1000CE010E940237F80181938F012196CB32C9
:101C2000F2E0DF07A9F7C4EAD4E0FE0185919491C0
:101C3000009711F0FC0109952C96F5E0C03ADF07FA
:101C4000A1F7DF91CF911F910F9108950F931F93EB
:101C5000CF93DF93843030F5653020F54C3010F5AC
:101C6000C42FD0E0CC0FDD1F28E1629FC00DD11D35
:101C7000112438E7839FC00DD11D1124CE01879612
:101C80000E940237082F10E0102F0027CE018896FF
:101C90000E9402379801282BC901DF91CF911F9133
:101CA0000F91089590E080E0F8CF462F20912D0409
:101CB00030912E04232B99F4703F39F4603F79F46E
:101CC00080912B0490912C040895843040F4753059
:101CD00030F46C3020F4672F0E94260E089590E0B7
:101CE00080E00895CF92DF92FF920F931F93CF93DE
:101CF000DF936C010091740580917702082BC7E097
:101D0000D0E010E0FC2EC8010C2E02C095958795FE
:101D10000A94E2F780FD0CC02197A0F7F12C8F2DDB
:101D2000DF91CF911F910F91FF90DF90CF90089599
:101D3000B6018C2F0E94550E0E94280A019761F36C
:101D4000EECFCF93DF93EC010E94720EBE010E9492
:101D5000550E0E94280ADF91CF910895CF93DF930B
:101D6000EC014B815C81698188810E944C06811164
:101D700010C08E819F81009739F00E94280A0E942E
:101D8000CA0CDF91CF910895888199810E94A10E9C
:101D9000F6CF80E0F6CFA5E0B0E0E1EDFEE00C94F8
:101DA000A43649835A8389819A81662399F0222334
:101DB00089F00E94720E182F682F89819A810E94E3
:101DC000930C69817A81812F0E94550E2596E3E05C
:101DD0000C94C0360E945F0C182FF3CFFC01262F05
:101DE00086819781009739F44081518162817381A6
:101DF00084810E94CB0E089583E290E00E94023716
:101E00008D3489F484E290E00E940237863B59F4D5
:101E100085E290E00E94023791E0833309F090E080
:101E2000892F8170089580E0FCCFCF9384E090E00B
:101E30000E940237C82F82E290E00E940237982F5A
:101E40008C2FCF910895DB01FC01329625913491BE
:101E50004217530758F0FC01349665917491A9011B
:101E6000CD010E94E23690E080E008958FEF9FEF71
:101E700008950F931F93CF93DF9300E514E0C7E01D
:101E8000D2E0CE010E940237F80161918F016817FC
:101E900019F0CE010E9420372196CB32F2E0DF0705
:101EA00081F7DF91CF911F910F910895DA019C0185
:101EB0002E5F3F4FF90145915491F90125913491DD
:101EC000A217B30758F0FC013496859194910E94B3
:101ED000E2360E94390F90E080E008958FEF9FEF87
:101EE0000895CF93DF93CBE1D3E060E0CE010E9471
:101EF00020372196C11584E0D807B9F7DF91CF913B
:101F000008951F93CF93DF93122F8430E0F4653050
:101F1000D0F44C30C0F4C42FD0E0CC0FDD1F98E1DA
:101F2000699FC00DD11D112498E7899FC00DD11D57
:101F30001124632FCE0187960E942037612FCE0196
:101F400088960E942037DF91CF911F910895CF93FB
:101F5000C82F6FEF81116DE483E290E00E9420377B
:101F60006FEFC11166EB84E290E00E9420376FEFC3
:101F7000C11163E385E290E00E942037CF9108957C
:101F8000CF93C92F682F84E090E00E9420376C2FF8
:101F900082E290E00E942037CF9108959B01883023
:101FA00070F49AE0899FB0011124655D7D4F4AE08D
:101FB00050E0C9010E94F23690E080E008958FEF72
:101FC0009FEF0895AAE0B0E0E8EEFFE00C94A5369C
:101FD0009C0137552F3F310509F068F4BE016F5F52
:101FE0007F4F0E94CE0F892B31F489859A852A96DE
:101FF000E2E00C94C1368091680490916904F7CFB7
:10200000AAE0B0E0E6E0F0E10C949B3603EB13E0CD
:1020100081EAC82E83E0D82E9BECE92E92E0F92EBF
:1020200027E0922E30EAA32E33E0B32E8824839447
:10203000D6010D931D936D014AE050E0B701CE012A
:1020400001960E94F236F8013896DF01892D1D9223
:102050008A95E9F789819A81D80111969C938E938C
:102060008F8112968C9312978D8113968C93139770
:10207000888514968C931497898515968C9315975B
:102080008B819C8117969C938E93169718961C9221
:1020900018978A8587FF3CC01E961C921E921D973A
:1020A00080FF03C0D80118968C9281FF04C0F8010C
:1020B00090859260908782FF07C0D80118969C9106
:1020C0001897946018969C9383FF04C0F80190853C
:1020D0009860908784FF07C0D80118969C91189744
:1020E000906118969C9385FF04C0F80180858062FA
:1020F0008087015F1F4FFAE0EF0EF11C8BE1E816BD
:1021000083E0F80609F094CF2A96ECE00C94B736F9
:10211000F801B686A586C4CFAAE0B0E0E2E9F0E116
:102120000C949F36E0E5F3E080E5DF011D928A958F
:10213000E9F7ECEDF4E088E3DF011D928A95E9F719
:1021400080E5C82E83E0D82E7F010BE712E0F7016F
:10215000D182C0824AE050E0B801CE0101960E94CF
:10216000F23688E0FE013196D60101900D928A95F3
:10217000E1F789859A85D70113969C938E931297E0
:10218000BAE0CB0ED11CE7E0EE0EF11C065F1F4F4C
:102190000B3CF2E01F07D9F62A96E8E00C94BB3618
:1021A00046E050E06CE170E08FEB92E00E94103767
:1021B0001092BE020895B0E0A0E0E1EEF0E10C94D0
:1021C0009A360E9455056093B6027093B7028093C9
:1021D000B8029093B9023091BF02D32FD37019F097
:1021E000D32FD695D695209112012130D9F02223F4
:1021F00059F0223009F445C1233009F44CC1CDB760
:10220000DEB7EDE00C94B63610920F016093BA027F
:102210007093BB028093BC029093BD0281E08093D7
:102220001201EDCF90910E0181E0D9130BC0832FE5
:10223000837020910D0130E091E08217130609F4BC
:1022400090E0892F8170809311018091C402909158
:102250001001981739F08093100140E060E080E0B1
:102260000E941C08DD2321F0D13061F080E029C0FC
:1022700080911101882329F140E060E080E00E9414
:102280001C08F4CF90900F0101E0090D802E04305E
:1022900010F023E0822E4091C002D090C102E09164
:1022A000C202F0E0EE5DFC4FD1102BC0F4901F2D68
:1022B000CF2DC92CD12CC81408F497C081E003306D
:1022C000A8F6C0910F0191E09C0F90930F0181112E
:1022D0009EC082E08093120180911101811197C00C
:1022E000DD2309F4D6C080917405811194C0C11119
:1022F0009AC020E040E060E090E080E00E941F088B
:1023000092C0ED2CF12CC4917C2EEC2FF0E026E055
:10231000429FC00111242FEF30E0B9010E946036C6
:10232000842F90E0880F991FA5E5A69FA001A79F85
:10233000500D1124841B950BC82ECC0CC80ED9014E
:10234000AE19BF09AE9FA001AF9F500DBE9F500DAB
:102350001124152FDC9CD0011124AB2FBB27C90100
:102360008A1B9B0B8E9FD0018F9FB00D9E9FB00D3F
:1023700011245901AC18B108AE9C6001AF9CD00C7F
:10238000BE9CD00C1124CD2CDD242C193D092E9F90
:10239000C0012F9F900D3E9F900D1124F92E6230A9
:1023A0007105A1F050F46115710509F482CF613017
:1023B000710581F0F52E1B2F7CCF6430710569F01B
:1023C00080F06630710509F474CFF4CFFC2EC52F70
:1023D000192F6FCFFC2ECB2F6CCFF52E1C2FC92FB2
:1023E00068CFC52F172DFB2E64CFF601EB54FE4F9F
:1023F000808190911001892331F0212F4F2D6C2F76
:10240000C6010E941F088FEFC81AD80A54CFDD23D7
:1024100009F4F5CE68CF81FF6ACF2FE04FE06CE37F
:10242000CC2309F469CF809174058823C9F082FF19
:1024300017C02FE04CE36FE0C230B8F08091740514
:10244000C1508823B9F083FF15C02CE34FE06FE043
:10245000C23008F0D4CE82E090E00E941F08CFCEB8
:10246000C23060F720E040E060E081E090E00E9450
:102470001F08E4CFC23008F0C2CE20E040E060E0A8
:10248000EACFD0930E01832F837080930D010E94B9
:10249000D90D83E0C4CE8091BE0281110E94D0107C
:1024A0004091BA025091BB026091BC027091BD0292
:1024B0002FB7F89480913C0590913D05A0913E0581
:1024C000B0913F052FBF841B950BA60BB70B409710
:1024D000A105B10508F493CE1092120190CEEFEB56
:1024E000F2E085E080838091220190912301A09108
:1024F000240181839283A3838FE784838FEF858375
:102500000E94D0100895AAE0B0E0E9E8F2E10C944E
:1025100097368E010F5F1F4F8AE0F80111928A955E
:10252000E9F79EE5E92E91E0F92E680123E6422EB7
:1025300021E0522E66246394712C4FE6842E41E0F4
:10254000942EF70181917F018F3F09F445C0F894E3
:10255000E82FE295EF70F0E021A18F70A30102C097
:10256000440F551F8A95E2F7CA01922F982B91A329
:1025700092A18095892382A3789400C0E3E6F1E0DC
:1025800021E030E0B12CA12C41914F3F09F464C00F
:10259000A42FA295AF70B0E090968C9190E04F7010
:1025A00002C0959587954A95E2F780FD55C0C9010F
:1025B000A82AB92A220F331F8E169F0629F7F70182
:1025C000319780818F3F11F00E94CE0950EA5A95D1
:1025D000F1F7F601B182A082F2E0CF0ED11C4E14C9
:1025E0005F0409F0AECF4AE050E0B8018BE792E01B
:1025F0000E94D536892B99F18AE0F801ABE7B2E069
:1026000001900D928A95E1F781E080937A020E9411
:10261000610590937902809378028091780290917D
:1026200079020E9446050597F0F04AE050E06BE71A
:1026300072E08FE992E00E94D536892BC9F08AE0DA
:10264000EBE7F2E0AFE9B2E001900D928A95E1F795
:1026500081E010927A0208C090E080E0A9CF8091DA
:102660007A028111DACF80E02A96E0E10C94B33649
:1026700080E0EFCFCF9380912F0490917505892B47
:102680008093CA0180917602882329F180915204B7
:1026900090915304892B29F00E94F00B81110E9424
:1026A000B60B8091CA0190917602892B8093CA0162
:1026B00080912101882309F447C08091400587FF5C
:1026C00043C08EE1ECECF1E090E0815008F03EC0B8
:1026D00091110E94B60BC0912C05C0958091CA0142
:1026E000C82380912D05C82BC093CA0140E250E059
:1026F00064E572E08AEC91E00E94D536892B11F1F5
:1027000080E2EAECF1E0A4E5B2E001900D928A9556
:10271000E1F7E0913705F0913805309799F0809115
:102720002101882349F08091400587FF05C0C093AF
:10273000CB0186E08093CA010280F381E02D8AEC10
:1027400091E00995CF91089586E0BCCF2191222395
:1027500009F4BBCF9F5FB9CFCF93DF93EC01EA853C
:10276000FB85309719F06C857D8509958B810E94DA
:10277000D50B8C810E94DC0B0E943A1386E0FE018F
:1027800011928A95E9F7DF91CF910895CF93DF9366
:10279000EC018D8181FD15C082608D83809175056E
:1027A0009B81892B809375058C810E94E30B0E948D
:1027B0003A13E885F985309721F06C857D85CE0147
:1027C000099510923405109233058D8180FD03C068
:1027D000CE010E94AC13DF91CF91089580911F012B
:1027E000877F80931F0182E00E94D50B80911F019B
:1027F00084FF06C08F7E80931F0182E00E94E30B5E
:1028000080911F0185FF06C08F7D80931F0180E2AC
:102810000E94E30B0E943A13089590E080E00E942A
:10282000B80590E080E00E94A205109275050E9414
:102830003A1386E0E0EBF2E0DF011D928A95E9F7BA
:102840001092AA021092A9021092AB020E942208D2
:102850000895809374050E940D1408958091740565
:10286000982F9670963021F488600E94291408955C
:10287000877FFBCF21E030E001C0220F8A95EAF785
:1028800020958091740582230E94291408959091C7
:1028900053028095892380935302282F277091F447
:1028A000282F082E000C330B9217130659F0909125
:1028B000410592FF07C08595859585950E943A143C
:1028C0000E94E90B08959091410592FB222720F97F
:1028D000281769F080FB92F990934105809140059B
:1028E000909141050E94C00F82E00E944714089514
:1028F00021E030E001C0220F8A95EAF7809174054B
:10290000822B0E94291408959091410592FF10C0D6
:1029100098E0899F90011124622B609353020E94DA
:1029200078140E9461059093520280935102089599
:102930000E9478140895809377020E940D140895E0
:1029400010922F0480912101ECECF1E0882361F0DA
:102950008091400587FF08C08EE1DF011D928A95B6
:10296000E9F70E940D14089586E0F7CFAAE2B0E0DF
:10297000ECEBF4E10C94A4368CE695E02091F100A8
:10298000DC012D93CD01B5E084379B07B9F7809129
:102990006D05833009F472C0B8F4813009F449C080
:1029A000823009F4B3C08091E80083FF96C2809121
:1029B0006C0590916D059A3008F08FC2E92FF0E018
:1029C000E25AF84C0C9488368A3009F48EC08B3069
:1029D00009F471C0893039F780916C05813219F79B
:1029E0008091700590917105009711F00297D9F6CA
:1029F0008091E800877F8093E8008091E80082FF63
:102A000038C09091F3008091F200029731F48091E8
:102A1000F100813011F0863021F48091F100809333
:102A200047058091E8008B778093E8000E94380486
:102A3000BACF80916C05813A09F0B5CF8091E8005A
:102A4000877F8093E8008091700590917105892BB4
:102A500061F460E288E495E070E00E94E404809113
:102A6000E8008B778093E8009ECF60E090E080E004
:102A7000F3CF80916A058111C0CF95CF80916C050D
:102A8000813A09F090CF8091700590917105892B62
:102A900009F089CF8091E800877F8093E8008091DA
:102AA000E80080FFFCCF809121018093F1008091AC
:102AB000E8008E77B9CF80916C05813209F073CF31
:102AC0008091700590917105892B09F06CCF8091F0
:102AD000E800877F8093E8000E94380480916E05AB
:102AE000809321010E94A0145ECF80916C058132F9
:102AF00009F059CF8091E800877F8093E8000E9419
:102B0000380480916F05809346054DCF80916C0508
:102B1000813A09F048CF8091E800877F8093E800F0
:102B20008091E80080FFFCCF80914605BECF8038C1
:102B300099F0823809F0D1C1809170058F7087308B
:102B400008F0CBC18093E9008091EB0085FB8827DA
:102B500080F91092E90006C080916805909169059E
:102B6000911182609091E800977F9093E8008093A4
:102B7000F1001092F1008091E8008E77AAC18823BD
:102B800009F498C1823009F0A8C180916E058111C5
:102B90009BC1809170058F702FEF280F263008F0B1
:102BA0009CC18093E9002091EB0020FF8DC1933000
:102BB00031F48091EB0080628093EB0085C19091AD
:102BC000EB0090619093EB0021E030E001C0220F18
:102BD0008A95EAF72093EA001092EA008091EB00D0
:102BE0008860EACF811179C110916E051F778091BD
:102BF000E3008078812B8093E3008091E800877F59
:102C00008093E8000E9438048091E80080FFFCCFA8
:102C10008091E30080688093E30082E0111183E0FB
:102C200080936A055AC18058823008F056C12091BD
:102C30006E0530916F052C3DE3E03E07A1F583E082
:102C40008A838AE289834FB7F894DE01139620E0E5
:102C50003EE051E2E32FF0E050935700E49120FF73
:102C600003C0E295EF703F5FEF708E2F90E0EA3087
:102C7000C0F0C7968D939D932F5F243159F74FBFB6
:102C80008091E800877F8093E8006AE270E0CE01DF
:102C900001960E94E4048091E8008B778093E8001D
:102CA0001CC1C096E7CF8091700590917105432FAC
:102CB00055274330510509F44AC078F54130510594
:102CC00009F485C08BE590E0E6E9F5E04230510576
:102CD00009F003C12091E800277F2093E8002091AC
:102CE0007205309173058217930708F49C0140E048
:102CF0002115310509F070C041116EC08091E800C6
:102D000082FDC9CF80916A05882329F2853019F2A6
:102D10008091E80083FFF2CFBECF4132510509F424
:102D200047C04232510509F0D8C08330910508F000
:102D3000D4C0FC01EE0FFF1FE554FE4F0190F0815F
:102D4000E02D88549E4FDC018C9190E01DC033270C
:102D500021303105E9F02115310579F022303105B6
:102D6000F9F02330310509F0B8C0E3E0F6E0E49172
:102D70008E2F90E0E3E0F6E007C0E3E5F6E0E491B3
:102D80008E2F90E0E3E5F6E0009709F4A6C0A2CF0D
:102D9000E3E3F6E0E4918E2F90E0E3E3F6E0F4CF96
:102DA000E1E2F6E0E4918E2F90E0E1E2F6E0ECCF94
:102DB0008330910508F091C0880F991FFC01EF53F3
:102DC000FE4F0190F081E02D89E090E083CF82E119
:102DD00090E0E1EFF5E07ECF80916A05882309F469
:102DE0005ACF853009F457CF8091E80083FD53CF47
:102DF0008091E80082FD82CF8091E80080FF78CF4B
:102E00009091F3008091F2002115310519F088307E
:102E1000910550F041E0089709F040E08091E8000A
:102E20008E778093E80064CF44914093F10031960F
:102E3000215031090196E8CF803809F04EC08091C9
:102E4000E800877F8093E80080916B058093F10014
:102E500092CE811142C010916E051230F0F5809132
:102E6000E800877F8093E80010936B050E94380488
:102E7000112311F084E005C08091E30087FDFACFB3
:102E800081E080936A0542E061EC81E00E94570492
:102E900042E261EC84E00E94570442E261EC82E08D
:102EA0000E94570442E260EC83E00E945704809144
:102EB0006A0513C080916E05813079F481E093300A
:102EC00009F080E0809369051092E9008091E800A4
:102ED000877F8093E8000E9438048091E80083FF98
:102EE0000AC08091E800877F8093E8008091EB0022
:102EF00080628093EB00AA96E3E00C94C036E0E594
:102F0000F4E0128E138E8FEA90E09183808325E0A7
:102F1000248F88E893E1938382838AE090E095830D
:102F2000848344E150E05783468348E050E0518772
:102F30004087938782876EE170E075876487978703
:102F4000868780E590E0918B808B538B428B48E2A3
:102F500050E0558B448B42E350E0578B468B48EC56
:102F600050E0518F408F158E178E168E91A380A33F
:102F700022A30E94390F0E94A014109241051092C2
:102F80004005E1E4F5E08081846080838091400524
:102F9000909141050E94C00F0E94000E0895AEE17D
:102FA000B0E0E5EDF7E10C949C36C0901301D090B1
:102FB000140181E090E09093140180931301F12CAF
:102FC000E12C82E2A82E84E0B82E912C1BC0E114E3
:102FD000F104D9F4F801EE0FFF1FEA0DFB1D259156
:102FE0003491402F692D80E00E94810F0F5F1F4FA9
:102FF0000C30110561F788E1A80EB11C9394E5E04F
:103000009E1649F010E000E0E2CF21E030E0402FD2
:10301000692D8E2DE9CFFFEFEF1AFF0A84E0E81645
:10302000F10479F60E947F171A8219821C821B8292
:103030001E821D8218861F8288EC90E09A878987FD
:103040000BE212E04AE050E0B801CE0101960E9486
:103050004437065F1F4F0B37E2E01E0799F77E01EA
:10306000FBE0EF0EF11C8AE0F70111928A95E9F777
:103070004AE050E0B801C7010E944437065F1F4F85
:103080000B3CF2E01F07A1F77E0185E1E80EF11C81
:103090008AE0F70111928A95E9F78FEF9FEF9A8FF7
:1030A000898F87E08E8F4AE050E0B801C7010E9407
:1030B0004437065F1F4F0B31F3E01F07A1F7D09293
:1030C0001401C09213016E96EBE00C94B83680E0C8
:1030D0000E94A70F60E086E290E00E9420370E94E5
:1030E000CF170E94710F81E00E94A70F0895CF9221
:1030F000DF92EF92FF928FEF9FEF4430510508F47B
:103100006AC0FB01C080D180E280F3800E94A014DD
:1031100080914005C0FA80F9B701A60176956795C0
:103120005795479540FB81F9B701A60122E07695B6
:103130006795579547952A95D1F740FB82F9B701D6
:10314000A60133E076956795579547953A95D1F75F
:1031500040FB83F9B701A601E4E0769567955795A2
:103160004795EA95D1F740FB84F9B701A601F5E050
:103170007695679557954795FA95D1F740FB85F970
:10318000B701A601A6E07695679557954795AA954C
:10319000D1F740FB86F9B701A601B7E076956795B0
:1031A00057954795BA95D1F740FB87F9809340052D
:1031B00080914105D0FA80F9D1FACC24C0F8C0FA48
:1031C00081F98093410580914005909141050E94CD
:1031D000C00F90E080E0FF90EF90DF90CF900895D7
:1031E0000E94A0142FEF84E39CE021508040904087
:1031F000E1F700C0000088E19CE00FB6F894A895C4
:10320000809360000FBE90936000FFCF882321F071
:103210000E94D50B0E943A130895882339F09091AB
:103220007505982B909375050E943A13089588238D
:1032300021F00E94DC0B0E943A130895882321F0AC
:103240000E94E30B0E943A130895882379F19CEFC2
:10325000980F913A28F40E940A0C0E943A1308959C
:1032600090E2980F983050F4877091E001C0990F68
:103270008A95EAF7892F0E94DC0BEFCF9BE5980F28
:10328000933028F490E080E00E94B805089598E516
:10329000980F973128F490E080E00E94A2050895ED
:1032A000803F20F00E9449080E9422080895FF9262
:1032B0000F931F93CF93DF93F82E00913105109158
:1032C00032050115110509F449C01092300510921C
:1032D0002F0510922C0510922D05D8011696CD9130
:1032E000DC919E013A9521153F4108F4D07ED1E052
:1032F000C11101C0D0E0D8011996ED91FC911A9747
:10330000309731F01B966D917C9180E00995D82320
:10331000DD2339F08CEF8C0F813A30F58C2F0E9431
:103320000A0CFF2099F0E0913105F091320580857B
:1033300084FD0CC080912E05882341F0808191810D
:103340009C0121503109203B3D45A0F00E943A13D9
:10335000109232051092310510922E05C801CDB79A
:10336000DEB7E5E00C94BE360E943A138C2F0E9423
:103370002519D7CF0E94DB05E9CFCF93DF93EC016E
:103380000E942519CE010E94E50C9E01205E3109A4
:103390002830310510F0CD2B29F40E941719DF9148
:1033A000CF9108950E940619FACFCF93C82F882392
:1033B000C1F18CEF8C0F813AB0F580912101882307
:1033C00001F18091400587FF1CC0EC2FE695E69542
:1033D000E695F0E0E653FE4F828190E04C2F477077
:1033E00021E030E002C0220F331F4A95E2F782232A
:1033F0009323892B79F08C2F0E940A0C0E943A1398
:1034000009C0ECECF1E08191C817A9F381E0E23D3D
:10341000F807C9F76C2F8AEC91E00E946D050E94B5
:103420003A13CF91089580E28C0F883048F4C7702A
:1034300081E001C0880FCA95EAF70E94E30BEFCF45
:10344000EBE5EC0FE33040F4F0E0E35DFE4F80810C
:1034500090E00E94B805E5CFE8E5EC0FE73150F4C5
:10346000F0E0EE0FFF1FE05DFE4F808191810E9432
:10347000A205D7CFC03FA8F28C2F0E9464090E94FA
:103480002208CFCF1F93CF93DF93182FC0917004E2
:10349000D0917104893321F0C0916E04D0916F04F2
:1034A000812F0E94D519209739F4812F0E94251968
:1034B000DF91CF911F9108958FE99FE00197F1F778
:1034C00000C000002197EFCFB0E0A0E0EAE6FAE10B
:1034D0000C949D36EC018AE0A82E2881222309F461
:1034E0008FC02130C9F599818A81913021F42296CB
:1034F0000E94421A05C0923029F422960E94D519E2
:103500002196EBCF933021F422960E942519F8CF13
:10351000943011F02196F4CF229630E020E0AE01F5
:103520004F5F5F4F8053990B8A30910550F02150C7
:10353000310930F38FE99FE00197F1F700C00000F7
:10354000F6CFA29EB001A39E700D11249C01260F00
:10355000371F8981EA01E3CFE22FF0E0E957F94F05
:10356000B490822F86958695869590E0FC01E95867
:10357000F94FE4902770F12C022E02C0F594E794E5
:103580000A94E2F731E0E322FF24FC01E959F94F04
:10359000C490D12C022E02C0D594C7940A94E2F7AD
:1035A00031E0C322DD24FC01E95AF94F049110E017
:1035B00002C0159507952A95E2F701701127E114CD
:1035C000F10419F081EE0E94D519C114D10419F04B
:1035D00086EE0E94D5198B2D0E94421AC114D10487
:1035E00019F086EE0E942519E114F10419F081EE1C
:1035F0000E9425190115110509F482CF8CE278CFBC
:10360000CDB7DEB7EAE00C94B936CF93DF93EC0187
:103610000E94E50C9E01205E31092830310510F032
:10362000209741F40E941E198C2F0E94D519DF911A
:10363000CF9108950E940D19F7CF662329F02091AC
:1036400075052260209375059C013056211540E2D6
:10365000340720F0305E2115304108F499270E948C
:10366000051B0895B0E0A0E0E8E3FBE10C94A03670
:103670007C018B01D42E80911F0182FF8CC0C091F0
:103680007604D0917704CE15DF0521F0E114F10422
:1036900009F081C080911F018B7F80931F0181FD04
:1036A00073C08091740490917504A801481B590B54
:1036B00081E020911D0130911E014217530708F44B
:1036C00080E08170F82E80911F01F0FA81F98093DB
:1036D0001F01FE0183E0F695E7958A95E1F7EE710B
:1036E000FF27E05DFB4F20813181AE014F705527F0
:1036F00081E090E002C0880F991F4A95E2F7FF2011
:1037000009F444C0822B932B9183808380912F04F2
:1037100081FF08C080911F01806180931F0182E0BA
:103720000E94DC0B80912F0485FF08C080911F014F
:10373000806280931F0180E20E94DC0B6F2DCE011E
:103740000E941D1BDD2031F080916B0485FF02C0BB
:1037500086FF3BC080916E0490916F040E94CF0D54
:1037600080917604909177049C013056211540E2B7
:10377000340720F0305E2115304108F499270E946B
:10378000BD190E94EE131DC081E09BCF80959095DE
:1037900082239323B9CFC70199279701305621156A
:1037A00040E2340728F0305E2115304108F0C701AF
:1037B0000E94BD1980917604909177048E159F0523
:1037C00001F31093750400937404CDB7DEB7E7E0FE
:1037D0000C94BC3690E080E00E940A37883E9E4FF1
:1037E00019F40E94FC0E089580E0089568EE7EEFC3
:1037F00090E080E00E943E3760E082E090E00E942E
:10380000203760E083E090E00E942037109277023A
:1038100060E084E090E00E94203764E082E290E083
:103820000E94203760E085E090E00E94203760E051
:1038300086E090E00E9420376FEF87E090E00E94E2
:10384000203740E050E0BA0188E090E00E94323733
:1038500060E08DE090E00E94203740E050E0BA0147
:1038600088E190E00E94323760E087E190E00E94BA
:10387000203740E050E0BA018CE190E00E943237FE
:1038800070E060E080E290E00E943E3740E050E06F
:10389000BA0188E190E00E94323780E00E94A70FD1
:1038A0000E94671840E050E0BA018FE090E00E946B
:1038B000323740E050E0BA0183E190E00E943237B5
:1038C0000895A7E0B0E0E7E6FCE10C9495367C01B2
:1038D000DC0113964D915C91149711966C911197A0
:1038E0008C910E944C068111EEC061E0C7010E94DC
:1038F000EE0E8C01F70182818823E1F0809133057F
:10390000909134050097B1F00817190799F0FEE07F
:103910008F9FC0011124FC01EB51FD4F20812460D9
:10392000208380529D4FDC010D931C930E94C6138F
:1039300010927505F7018281882311F40C944225B9
:10394000C80182519F45409710F00C9434258FEFA9
:1039500093E00E9402378111A6C07EEED72ED00ED2
:103960000BE113E0D11036C019821A821B821C822F
:1039700099249A9468012FEFC21AD20AC8010E94B2
:10398000023789831A82882309F48DC0813009F0B7
:103990007FC0580132E0A30EB11CC6010E9402375D
:1039A000C82E8A83882309F47EC0C5010E9402378D
:1039B000D82E8FEF8C0D8330D8F4580143E0A40E3D
:1039C000B11CDB82DD2021F0CE0101960E94641A39
:1039D0008501D0CF0115F4E01F0709F464C0C801C8
:1039E0000E940237811101C0DA940F5F1F4FBACFD6
:1039F0008BEF8C0D833030F5C8010396DB825C01C0
:103A0000DD2031F3580154E0A50EB11C0E940237AD
:103A10008C838823E9F28B819C818130AFEF9A07F8
:103A200010F0982F8827B6E0CB1631F0E7E0CE16DD
:103A300031F00E94832CCCCF0E945D2CC9CF0E9414
:103A4000E42BC6CFF4E0CF12C3CF580124E0A20E7E
:103A5000B11CC80103960E940237DD2021F18823A2
:103A600011F18150990B989E9001999E300D11246F
:103A70004D2D4150550BCA01820F931F019708F439
:103A8000A7CFAFE9BFE01197F1F700C00000F6CF74
:103A9000CE0101960E94641A56019ACF81E00E94DD
:103AA00078140E942E1480915302877061F0D70120
:103AB00012968C91882339F08091410582FF03C0D2
:103AC00082E00E9447142796E2E10C94B13681E02F
:103AD0000E943A14E6CF82E0FBCF823011F00C94C2
:103AE00082258091DA029091DB02892B11F40C94EB
:103AF00082252EE02C9DC0012D9D900D1124FC01EE
:103B0000EB51FD4F20812E7F208380529D4F0E94DC
:103B1000C6130C94822581E080930001C4CF80916C
:103B20000001882309F4A4C6480120EE821A9108F6
:103B3000409076028091EC01482A80912F04482A17
:103B400038E08316910408F086C098012770332767
:103B500081E090E001C0880F2A95EAF7552009F42A
:103B600077C0482AD7018D919C910E945F0C21E07B
:103B700030E0F90102C0EE0FFF1F8A95E2F7FF83E4
:103B8000EE8320903105309032056090EA0170900C
:103B9000EB011D822D81E22FF0E0EE0FFF1FEF55AC
:103BA000FC4FC080D180C114D10409F4C5C64110B6
:103BB00005C0D60112968C91811189C0F6018381CE
:103BC00090E02E813F8182239323892B09F47FC0CB
:103BD0008085982F977009F487E038E08316910468
:103BE00008F053C0552009F44CC086958170882395
:103BF00009F46DC0D601AD90BC900A151B0519F4EF
:103C0000552009F464C0C214D30409F460C0D6017D
:103C10001D96ED91FC91309721F08081882309F465
:103C200056C0642DC6010E942C06882309F44FC09B
:103C30000A151B0509F08AC70115110509F48BC780
:103C400051108BC7A614B70409F041C0512C85C789
:103C50008095482287CF552009F457C61093EB0171
:103C60000093EA010E945505609328057093290589
:103C700080932A0590932B051092300510922F0502
:103C800071CF82FB882780F9B2CF552001F1817076
:103C9000AECF0E9425197FC70497813A910558F449
:103CA0006A2D8AEC91E00E946D05552009F4E0C56B
:103CB0000E943A13F8CE0E943A138FE39CE90197D1
:103CC000F1F700C000008A2D0E94D519EECF9D812A
:103CD0009F5F9D835FCFFC01208131810217130715
:103CE00009F0BFC55110BFC510922E0580E00E949B
:103CF0005719BEC5902F812F03C6F901858181FF19
:103D00002FC6C9010E94AC132BC680911F01816090
:103D100080931F0153C680911F018E7F80931F01E6
:103D20000E94EE134BC680911F018F7E013E11054C
:103D300031F0053E1105C9F480911F018F7D8093FC
:103D40001F0180911F0180FF48C6D70112968C91F8
:103D50000832110528F50E31110508F072C0043043
:103D6000110580F5811135C638C6C80190568115F8
:103D700040E2940720F0905E8115904110F7809109
:103D80001F0182FF2AC680916D0481FD26C624E9A9
:103D900032E040E0B60190E080E00E94321B1DC698
:103DA0000933110558F40D32110518F40B321105C1
:103DB000C9F690916B0492FDD5CF08C00436110569
:103DC000C1F3D0CF90916B0494FDCCCF882309F43C
:103DD000A8C08091760290912F04892B8D7FB1F13C
:103DE000109277041092760480916B0481FD2EC0AE
:103DF000F80143E0F695E7954A95E1F7EE71FF2764
:103E0000E05DFB4F98012F70332781E090E002C006
:103E1000880F991F2A95E2F780959095208131812E
:103E2000822393239183808360E0C8010E941D1B3D
:103E3000809176028D7F0E94C10B82E00E94471420
:103E400032CE90916B0493FD8DCFC0CF88E0F70107
:103E5000A4E9B2E001900D928A95E1F710929602E2
:103E600010929802109297028091760490917704B4
:103E700008171907D1F520916B0425FF36C0309142
:103E80001F0131FF02C026FF30C020917404309121
:103E900075045601A21AB30AB7010E94E20FA816D0
:103EA000B90618F580912F0481FF08C080911F0189
:103EB000806180931F0182E00E94DC0B80912F04BF
:103EC00085FF08C080911F01806280931F0180E2FE
:103ED0000E94DC0B60911F016695617080917604F1
:103EE000909177040E941D1BDECD80917602909107
:103EF0002F04982B20911F0191FB21F920931F0182
:103F00008D7F0E94C10B1093770400937604D092AA
:103F10007504C092740480911F01846080931F0116
:103F20008CCF970140E0B601C8010E94321BBBCD87
:103F3000053A3DE5130709F464C5C0F401365DE5B3
:103F4000150709F45EC50A353DE5130709F40AC2F1
:103F500008F0E6C101155CE5150709F4ECC10E3D5A
:103F60001C4509F03EC10E94F61BE3C1C8018D5AF1
:103F70009D45039740F745C5809140058062073015
:103F80005CE5150791F108F4BFC08091400580649D
:103F90002CC00D309CE5190709F4C4C090F4809141
:103FA00040058E7F0B30BCE51B07F9F08091400582
:103FB0008C600C30ECE51E07C0F0809140058D7FD1
:103FC00014C00F30FCE51F0709F4BCC008F4AEC0F4
:103FD00000313CE5130709F4B9C0809140058F7B9F
:103FE00001314CE5140709F036C58093400533C50F
:103FF0000F3F5CE5150709F4B7C0A8F50A3F9CE53B
:10400000190709F479C0C0F40431BCE51B0709F4B1
:10401000B9C008F4A5C00531FCE51F0709F01BC5B0
:104020008091400582FB992790F921E0922790FB2F
:1040300082F990FB83F9D9CF0C3F2CE5120709F4E4
:1040400079C008F45DC00D3F4CE5140709F476C053
:104050008091410583600E3F5CE5150709F0FBC4C4
:1040600080934105F8C401368DE5180709F495C021
:1040700090F40130ADE51A0709F48DC008F478C05A
:1040800060E00230EDE51E0709F0E5C48EE090E047
:104090000E942037E0C40D3AFDE51F07E9F060F407
:1040A00090914005892F8E7F90FF8160053A3DE514
:1040B000130709F49ACFCFC40E3A4DE5140771F1F6
:1040C0000F3A5DE5150709F0C6C490914105892FA7
:1040D000877F93FF8860C4CF809141058860C0CFFF
:1040E00080914005826081CF8091400584607DCFC2
:1040F00080914005886079CF809141058160B0CF83
:10410000809141058260ACCF8091400580616DCF88
:104110000E94A01480914005806867CF809141057E
:10412000877F9ECF809140058B7F5FCF8091400538
:10413000877F5BCF809141058E7F92CF8091410533
:104140008D7F8ECF809140058F7E4FCF809140052F
:104150008F7D4BCF0E94A014809140058F7745CF73
:1041600080914005837F41CF809141058C7F78CF3E
:1041700080914105982F909591708E7F892B90FBAF
:1041800081F96ECF0E94A01490914005892F97FB72
:1041900087F980582ACF61E079CF90914005892F27
:1041A0008F7E94FF806121CF80912F048272093C21
:1041B0009CE5190709F4AAC008F05AC0053CBCE503
:1041C0001B0709F494C008F047C0033CFCE51F0737
:1041D00009F481C008F086C0023C3CE5130709F4ED
:1041E0006CC0F70186819781009709F4BFC00E94D7
:1041F000280A182F092FF701D280C580C2943FE00A
:10420000C322809153028770C1F0AD2CDD20B1F044
:10421000892F807F803421F080E2810F883068F020
:104220008091410582FF09C082E00E94471480917D
:1042300053028770AA24A3948111A12C902E9294EA
:104240002FE09222FBE0F91508F41DC1E92DF0E002
:10425000E859F84C0C948836073C4CE5140709F4EF
:1042600050C008F449C049ED57E06BEC77E037C027
:104270000D3C9CE5190709F44EC0A8F440E857E04E
:104280006EE877E00B3CBCE51B0749F14DEB57E0CE
:104290006FEA77E00C3CECE51E0708F14EE857E0CA
:1042A00060E877E01CC0063DFCE51F0708F4FBCB87
:1042B0000D35100709F4F7CB94CF8091BF0291E040
:1042C00089278093BF02109212018091BE02816003
:1042D0008093BE02E8CB4CE058E067E178E00E94B2
:1042E0006307E1CB47E158E06CE078E0F8CF47EEB8
:1042F00057E062EF77E0F3CF42EF57E067EE77E009
:10430000EECF4BEC57E069ED77E0E9CF4FEA57E0AD
:104310006DEB77E0E4CF61E081E00E94FD07C3CB65
:104320000C359DE51907A1F0F8F0073A1D4509F095
:1043300058CF0E94F0180E94A014EFEFF4E32CE095
:10434000E150F0402040E1F700C000000E94AB0DBA
:104350008091410582FB882780F991E089270E949E
:1043600063143FCF81E0FBCF80E0F9CF82810081F1
:104370001181882369F0C8010E94720ED82E682F1F
:10438000C8010E94930CB8018D2D0E94550E2FCFAD
:10439000C8010E945F0CD82EF6CF202F2F70B22EAE
:1043A000802F807F19F0B29490EFB922DD20A9F020
:1043B000BB2059F080E2810F883010F0111107C046
:1043C0008B2D0E94E30B0E943A13812F5AC08091DB
:1043D0007505B82AB0927505F6CF812F0E94251970
:1043E000BB2009F450C080E2810F883010F0111119
:1043F00004C08B2D0E94DC0B03C08B2D0E94D50BBB
:104400000E943A1340C0302F3F70B32E802F807F20
:10441000803219F0B29480EFB822112321F11130CB
:1044200009F4AEC0DD2009F4B7C0CC2009F47FC088
:1044300020E0D7014C9111965C91119712966C91E6
:10444000129713967C91139714968C910E94CB0E21
:1044500080916D0481FDB9CFF701858180FFB5CFD3
:104460008F70858364C08091410582FD40C0DD204E
:10447000C1F1BB2029F08B2D0E94E30B0E943A135F
:1044800080E00E94D519A92DA850BB0B149710F4F9
:104490000E94CE05812F902F0E94CA0C8111C2C1AB
:1044A0001092EE011092ED01AA20B1F0809153021A
:1044B00080FD12C0D70112961C9285958595859531
:1044C0000E947814C7010E94611C80915302859557
:1044D000859585950E943A1460E0C7010E94EE0E12
:1044E000F2CA80E00E942519BB2069F282CFDD204C
:1044F00011F1C11004C0809176028B2919C041E0EE
:10450000C41206C0809176028B290E94C10BBBCFDA
:1045100080916C04823078F3C812EDCF0E94B60B04
:104520009091EC018B2D892B89138093EC018B2DBD
:104530000E941E19A8CFC11003C00E94B60B17C05D
:1045400080916C0451E0C51216C0823008F49BCFF4
:1045500080912F048B2109F496CF0E94B60B909185
:10456000EC018B2D8095892389138093EC018B2D91
:104570000E94171988CF823000F3C812DECF83CF94
:1045800080917204DD2021F08C1508F47CCFCFCF10
:10459000C81608F078CFEBCFCC2049F38091700497
:1045A00090917104193321F080916E0490916F0401
:1045B0000E94CF0D812F0E94251965CF802F8695EF
:1045C0008695837069F0813009F05DCF812F902F3F
:1045D0009370D11002C090E080E00E94A20553CFFA
:1045E000812F902F9370D11002C090E080E00E9444
:1045F000B80549CF812FDD2029F00E9464090E946F
:10460000220841CF0E944908FACF802F837091F58C
:10461000D11039CF412F429546954770440F440F32
:10462000812F8F70042E01C0880F0A94EAF7212F82
:10463000207114FF07C02FE030E001C0220F4A951F
:10464000EAF72095302F369536953370323069F081
:1046500050F440917702313029F0822B84230E945C
:104660009B1411CF842B822BFACF282B80917702B9
:104670008227F5CF8695DD2011F0802F8170882369
:1046800009F401CF412F429546954770440F440FDE
:10469000812F8F70042E01C0880F0A94EAF7212F12
:1046A000207114FF07C02FE030E001C0220F4A95AF
:1046B000EAF72095302F369536953370323069F011
:1046C00050F440917405313029F0822B84230E94EC
:1046D0002914D9CE842B822BFACF282B80917405F4
:1046E0008227F5CFF02FFF70BF2EDD2029F08F2F0E
:1046F0000E947814812F1CCF812F0E9417198B2DB7
:104700000E943A14C0CE123F89F160F4103FB9F014
:10471000113F81F0DD2009F480C0C11056CE802FFA
:104720008F7128C0133F49F1143FA1F780914105D3
:1047300082FD2FC0802F8F71DD2011F31BC080916F
:104740007204DD2079F0C81608F09DCE202F2F715D
:1047500081E090E001C0880F2A95EAF790917405F6
:104760008927B5CF8C1508F48ECEF0CF802F8F71AE
:10477000D110C6CF0E94781486CE80E0DD2009F4E7
:10478000A6CF81E0902F9F7101C0880F9A95EAF71C
:104790009ECF80916C04823040F1DD20D1F0909169
:1047A00053029770943041F40E94E90B802F8F716F
:1047B0000E943A14A12C67CEC816E0F7202F2F7163
:1047C000B22E822F0E94781463E08B2D0E948414F5
:1047D000F1CFC81630F00E94E90B64E0802F8F7192
:1047E000F5CF81E00E944714E5CFDD2059F0302F4E
:1047F0003F71B32E832F0E94781463E08B2D0E94AB
:10480000841441CE81E00E94471441E04C1508F029
:104810003ACE82E00E94471436CEC110BFCE802F20
:104820008F716ECFDD2019F0C1103ACE3DCEC11090
:1048300037CE20E0F701408151816281738184810C
:104840000E94CB0E80916D0483FF2ACE8091ED01F2
:104850009091EE01029709F023CE812F0E94421A17
:104860001FCE552029F0DC0118968C9185FF3ECA99
:10487000C80197558F3F910511F008F071C058019C
:10488000BB24BEE00B9FF00111249F0120523D4F3D
:104890006901D70112968C91EB51FD4F908180FBFD
:1048A00090F99083882309F428CA0E9461059093A7
:1048B000930280939202F60182818F5F82838091BE
:1048C000750590912F04892B8383809176028483D0
:1048D0000680F781E02D309731F0D6011C966D915E
:1048E0007C91C60109958EE08A9DF0018B9DF00DAB
:1048F0001124E052FD4F858181FFFCC990E080E0EA
:1049000090933305809334052BC08091EA019091F8
:10491000EB010817190781F41092EB011092EA01DC
:10492000109228051092290510922A0510922B0545
:104930001092300510922F0580913105909132052B
:10494000009709F495CFA8E08A16910408F0C3C92E
:10495000642D0E942C06811103C081E00E9457192A
:1049600080916B0480FF39C00E9461056C01D70102
:1049700012968C91882309F4D6C980911F0182FF79
:1049800008C024E932E040E0B60190E080E00E94F7
:10499000321B0B31BCE51B0709F4B7C90C31ECE540
:1049A0001E0709F4B8C990911F01892F8E7F90FFCF
:1049B00081600A31FCE51F0709F4B0C9C8019056AF
:1049C000811520E2920728F0905E8115904108F051
:1049D000B8C91092770410927604F7018281882377
:1049E00009F4E2CB0330FDE51F0708F0A1CA0A3F36
:1049F0002CE5120730F4C80182509C45449708F01A
:104A0000A2CA0E94150F9093410580934005023180
:104A10008CE5180709F49ECB08F0EACA0930ACE52A
:104A20001A0709F475CB08F0B4CA0530ECE51E0787
:104A300009F45ECB08F0A0CA03302CE5120709F494
:104A40004FCB08F051CB80914005816002304CE59E
:104A5000140709F4CACA80914005909141050E944B
:104A6000C00F0E94A0141FC80031FFE51F0711F4FA
:104A70000C944E1D01312FE5120709F043C082E06E
:104A80000C944F1D00313FE5130709F420C8013194
:104A90004FE5140709F41FC86801E7E5DE1AFFEFC8
:104AA000CF16D10409F070F566ED72E08C2D0E94EE
:104AB000CE0F892B39F58EE08C9DF0018D9DF00D88
:104AC0001124E052FD4F8281813011F00C946D1D54
:104AD0008091D6029091D702892BA1F08091D802C3
:104AE0009091D902892B71F08091DA029091DB02CA
:104AF0002091DC023091DD02822B932B892B11F463
:104B00000C94791DD70112965C90552011F40C94E9
:104B10008F1D0F35BDE51B0711F40C948B1D00365E
:104B2000EDE51E0761F00E35FDE51F0711F00C9451
:104B30008F1D80910001882311F40C948B1D10921D
:104B4000000180E00E9457190C94531DA114B10478
:104B500009F078C8512CB12CA12C80E00E94571983
:104B6000D0923205C092310581E080932E05F60186
:104B7000858180932C0551100EC0AB2861F0F601A1
:104B8000808191819C0124503109213A310508F03E
:104B900080C80E940A0CD6011696AD90BC90C50143
:104BA0009A9581159F4110F4E0EEBE22772473940C
:104BB000C5010197803B9D4508F0712CD6011996DF
:104BC000ED91FC911A97309731F01B966D917C9185
:104BD00081E009957822772079F0F6018681978126
:104BE0000E94E50C80932D05C501F8E08F16910415
:104BF00008F052C80E94DB050E943A1356C8B0E084
:104C0000A0E0E5E0F6E20C949F3680910C02807FF4
:104C100031F480910902C0915002811107C0CDB7D3
:104C2000DEB7E8E00C94BB362196C77080910F0286
:104C30008C17A9F3F0900702E0900802C0900A02D6
:104C4000D0900B02A6016E2D8F2D0E944C06D0E055
:104C50008111EACF8E0183E0000F111F8A95E1F7E1
:104C6000F801E05FFD4F81818E11DECF80818F11D1
:104C7000DBCF82818111D8CFE380F480EC18FD086E
:104C800060E087E092E00E94EE0E67E072E00E9432
:104C9000E20FE816F90640F680910C028F708061F1
:104CA00080930C02F801EB5EFD4F80818F70806174
:104CB000808387E092E00E94611C0E94550CAFCF78
:104CC000A5E1B0E0E6E6F6E20C9498368C0185E0CA
:104CD000F801DE01519601900D928A95E1F7D80115
:104CE0005C9011966C9011971296EC901297139617
:104CF000CD90DC9060E087E092E00E94EE0E87E0CD
:104D0000A82E82E0B82E80900A0290900B02A40197
:104D100060910802809107020E944C068111A8C18F
:104D2000F0900902F601E819F9094F0160E0FF204F
:104D300009F44BC1C5010E94EE0EB5010E94E20FBD
:104D400070900C028816990608F0F2C040910A0291
:104D500050910B02B0900702A0900802872D807F2F
:104D60006A2D09F08CC08B2D0E944C06FE2C8111FF
:104D700027C0D80111968C9111978A1121C08C916E
:104D80008B111EC020910D0230910E0216968D914E
:104D90009C9128173907A1F4E11012C0872D8F705C
:104DA000806180930C0287E092E00E94611C8091F8
:104DB0000C02F80185838F2D6596EFE00C94B436D4
:104DC000A601662D852D0E944C06D82E81E08E25E9
:104DD000D11080E080FF18C04E2D662D852D0E94D9
:104DE000350C882389F080916D0480FF0DC087E029
:104DF00092E00E94611C88E0E7E0F2E0DF011D9292
:104E00008A95E9F7F12CD7CF81E08E25D11080E08B
:104E1000B82FB170CB2E80FF29C04E2D662D852D69
:104E20000E94350CD82E811121C0598A6A8A89893D
:104E30009A890E94A10E292F22952F70223050F0BE
:104E4000243078F49F7051F0F8019581907F31F40F
:104E5000FD2CB1CF9F7011F08823D1F3805E883094
:104E6000B8F3C8010E94611CDC2CF2CFEE2009F4DB
:104E7000A2CF80910C02816080930C02C3CF8B2D56
:104E80000E944C06811124C0D80111968C91119773
:104E90008A111EC08C918B111BC020910D02309184
:104EA0000E0216968D919C9117972817390781F459
:104EB000E1100EC015967C92C8010E94611C88E02A
:104EC000F801A7E0B2E001900D928A95E1F773CF67
:104ED000C8010E94AE0E882339F1EE2029F180919D
:104EE0000C028032A0F020910702309108023A872C
:104EF00029871B86DD86CC868E8780910D02909156
:104F00000E02988B8F87CE0109960E94611C88E063
:104F1000F801A7E0B2E001900D928A95E1F70E94B6
:104F2000FF25FF24F39447CFC8010E94611CF9CFED
:104F3000872D807F09F45BCF909007028090080254
:104F400040910A0250910B02682D892D0E944C0657
:104F500081111CC0F8018181881118C080818911DC
:104F600015C020910D0230910E028681978128177D
:104F7000390761F4E1100AC07582C8010E94611C02
:104F800088E0D5011D928A95E9F715CFC8010E94E6
:104F9000AE0E882349F2EE2039F280910C02803265
:104FA00008F4B5CF20910702309108023A83298393
:104FB0001B82DD82CC828E8380910D0290910E0245
:104FC00098878F83CE010196A0CF87E092E00E9460
:104FD000EE0E67E072E00E94E20F8816990680F6F6
:104FE000FE2CEE2009F4A0CFE0900702D09008023A
:104FF00040910A0250910B026D2D8E2D0E944C069D
:10500000811128C0F80181818D1124C080818E1109
:1050100021C020910D0230910E02868197812817C0
:105020003907C1F480916D0482FD49CF90910C0243
:1050300090FD45CF907F09F442CF80910C0285838B
:10504000903F09F439CF982F907F905F8F70892B14
:10505000858332CFC8010E94AE0E811158CF809156
:105060000C02816080930C02C8010E94611CA3CED7
:10507000EE2009F459CFC8010E94AE0EF82E882305
:1050800009F452CF88E0F801A7E0B2E001900D9258
:105090008A95E1F780910702909108020E94A10E83
:1050A0000E94FF2588CEA0E1B0E0E9E5F8E20C948B
:1050B000A53629873A874B875C876D877E878F87E0
:1050C000988BCE0109960E94602681112FC088E03E
:1050D000FE013996DE01119601900D928A95E1F755
:1050E0004C855D856A8589850E944C0681111EC0AC
:1050F000A0910F02B0E0CD01019687709927209111
:10510000500228171906E1F093E0AA0FBB1F9A95E9
:10511000E1F7A05FBD4F98E0FE01319601900D923E
:105120009A95E1F780930F020E94550C80915002EE
:1051300090910F02891312C06096E2E00C94C13680
:105140000E94A01410920F021092500288E0E7E033
:10515000F2E0DF011D928A95E9F7E8CFB8E08B9F76
:10516000C0011124805F9D4F0E946026882321F397
:105170008091500290E001968770992780935002A9
:10518000D5CFEF92FF920F931F93CF93DF93809130
:105190007B04882361F0C0917A048CE0F82E809122
:1051A0007B04C81748F010927B0410927A04CDB7A4
:1051B000DEB7E6E00C94BD36EE24E394EC0EE0920C
:1051C0007A040C2F10E0CF9DE0011124C458DB4F6E
:1051D0004B815C81698188810E944C0681111DC0D0
:1051E0008E819F81892B21F488859985019651F4C0
:1051F000288139814A815B816C817D818E819F818B
:105200000E945328F09EF001F19EF00D1124E45805
:10521000FB4F1482138210927505CE2DC0CF1092D1
:105220001F0510921E051092200180911D0580938C
:105230001C050E9485060E94C1280895B0E0A0E0E8
:10524000E4E2F9E20C949636C0911C0597E0892EB1
:1052500001E010E02CE0322E3EEF932E44244394E4
:1052600080911D058C1309C00E94C1280E948506EB
:10527000CDB7DEB7E1E10C94B236D0E0FE01EE0F1F
:10528000FF1FEC5EFA4F80819181889ED001899E3C
:10529000B00D1124A452BB4F14962C9114972111D8
:1052A00058C050907B04ECE7F4E030E020E0712C33
:1052B0005D01251508F04BC0E284F384D501CD9043
:1052C000DC906FEF7FEF612C462D50E0DA01AA0FE2
:1052D000BB1FAC0DBD1D0D90BC91A02D109731F0E2
:1052E000EA16FB0609F4BA016394EECF6F3F760726
:1052F000A9F1D80102C0AA0FBB1F6A95E2F77A2A6A
:10530000B801062C02C0660F771F0A94E2F7AB01C2
:105310004150510974161506F9F4329EF001339E7E
:10532000F00D1124E458FB4F889ED001899EB00DEA
:105330001124A452BB4F12962D913C9113973783A1
:105340002683908291829187808715964C920E9445
:1053500057062196C37084CF148213822F5F3F4F6C
:105360003C96A7CFA9E1B0E0E8EBF9E20C949536C2
:10537000942F498B252F5A8B6B8B7C8B8D8B4C8973
:105380005D89622F892F0E944C06811109C080918E
:10539000ED019091EE0101969093EE018093ED0165
:1053A0008B898111109275051D861E861F86188AAD
:1053B00085E0FE017196DE01199601900D928A95A5
:1053C000E1F78091410582FF1EC0809152049091C7
:1053D0005304892BC1F00E94610520915102309144
:1053E0005202821B930B2091520430915304821776
:1053F000930720F08091530282FFE2C10E94F00BDC
:1054000081110E94B60B4C855D856A8589850E9455
:105410004C06811111C061E0CE0109960E94EE0E8A
:105420006C018B8527EFC2162CE5D20681F4882308
:1054300021F181E08093200129853A854B855C85A7
:105440006D857E858F8598890E945328C6C038EF68
:10545000C3163CE5D30629F4882379F00E940F296E
:10546000EBCF49EFC4164CE5D40639F4882329F074
:10547000809120018111F2CFDCCF0CED14E0512C92
:10548000B12CA12C22242394312C2EEF422EF80192
:105490004081518188248A94982C20E0822F90E0CA
:1054A000FC01EE0FFF1FE40FF51F60817181611594
:1054B000710531F0C616D70609F44C012F5FEECF07
:1054C000F12CFFEF8F169F0609F449C0F8014481C3
:1054D000F09020018F2D411180E0F82FF170FF2E08
:1054E000F801E58086819B85992309F4F8C0FF20A7
:1054F00009F4F5C06090660470906704E11013C071
:10550000A101082C01C0440F0A94EAF7842B86837A
:1055100080917804909179048615970520F4709213
:10552000790460927804C10102C0880F991F2A95FE
:10553000E2F70197F80126812817190681F4809176
:105540001E0590911F05009709F44BC00E94460567
:105550006816790608F045C021E0F80124835F2829
:10556000FFEFAF1ABF0A095F1F4F28E0A216B10470
:1055700009F08DCF8B85882309F40DC1552009F4DE
:105580000AC10E94610590931F0580931E058091BA
:105590007B04883010F591E0980F90937B0498E09D
:1055A000FE013996DE01119601900D929A95E1F770
:1055B0003CE0839FC001112484589B4F28E0FE01EA
:1055C0003196DC0101900D922A95E1F72FEF3FEF24
:1055D000FC0131872087D386C2866996E2E10C946C
:1055E000B13680911C0550911D05982FF0E0E0E048
:1055F000851314C090931C05E017F10709F4AFCF91
:1056000090E0FC01EE0FFF1FEC5EFA4FB182A0822A
:1056100001968370992780931D05A1CF682E712C68
:10562000F301EE0FFF1FEC5EFA4F2081318147E05E
:10563000429FD001439FB00D1124A452BB4F6D91E6
:105640007C911197798F688F40E020E030E0E32F64
:10565000F0E0EE0FFF1F688D798DE60FF71F808059
:10566000918081149104E1F0F8010190F081E02D26
:10567000FF8BEE8B20E005C08616970609F44F2DB0
:105680002F5FE22FF0E0EE0FFF1F6E897F89E60F9C
:10569000F71F608171816115710571F73F5FD7CF89
:1056A0004423D1F0F801231708F0FD0121E0248301
:1056B0000E171F0721F490931C05F42E50CF98135A
:1056C00005C0AE17BF0711F49F5F937093012F5F62
:1056D0003F4F822F83708CCFF0E0E0E0F7CF90E077
:1056E000E11020C0B10102C0660F771F2A95E2F7D2
:1056F0009B01215031098217930731F4442309F4A7
:1057000048C0C5010E945706C101082C01C0880F7E
:105710000A94EAF7982F9095F80186818923868369
:10572000FE2C1DCF9C01082C02C0359527950A94AC
:10573000E2F7A90141705527BC0161507109862328
:105740009723892B11F5452B01F1F8018281938173
:10575000892BC1F01B821C821D821E8249824A82D3
:105760000E9461058160582F9D838C83F80182819E
:1057700093818F83988729813A814B816D817E81C6
:105780000E945328F8011582BFCFF22FF170EF2E3F
:10579000BBCFEF2CB9CF90911C0580911D059817B8
:1057A00031F00E941E29552009F446CE16CF0E94E2
:1057B000C12810921F0510921E050E948506F3CF86
:1057C00082E00E9447141ACEA5E0B0E0EAEEFBE2C8
:1057D0000C94A53690932C0480932B04811520E221
:1057E000920730F40E94BD192596E2E00C94C13670
:1057F00080EF89838A831B820E9461058160782FF4
:105800009D838C8349815A816B818D810E94B2294D
:10581000EBCF0F931F93CF93DF938C01EB0166EDDA
:1058200072E08C2F0E94CE0F892BA1F480916E0420
:1058300090916F040E94CF0DDD27C253DD4F888108
:10584000F801128218828330F1F048F4813059F067
:10585000823081F0DF91CF911F910F9108958430B4
:10586000B9F08530B9F78091D6029091D7020097B0
:1058700089F306C08091D8029091D902009799F3DC
:105880000E94E42BE7CF8091DA029091DB02F6CF01
:105890008091DC029091DD02009791F72091D60271
:1058A0003091D7028091D8029091D902211531050B
:1058B000F1F2009729F7C901E3CFA5E0B0E0E3E6F4
:1058C000FCE20C94A53690932C0480932B04811554
:1058D00020E2920730F40E94051B2596E2E00C942A
:1058E000C13680EF89838A8381E08B830E946105C2
:1058F0008160782F9D838C8349815A816B818D8152
:105900000E94B229EACFCF93DF93EC010E945D2C75
:1059100080916E0490916F040E94CF0DCE010E9481
:10592000E42BDF91CF9108950F931F93CF93DF93D3
:105930008C01862F66ED72E00E94CE0F892BB1F4A8
:10594000C091D602D091D702209781F0F8018281D0
:10595000833051F4CE010E94832CCE010E94832C0F
:10596000CE010E94832C02C08430D0F7DF91CF910A
:105970001F910F9108950F931F93CF93DF938C0185
:10598000EB0166ED72E08C2F0E94CE0F892B09F09F
:105990005CC0FE01FF27D80112968C911297E2534A
:1059A000FD4F8130B9F415969C9192FF02C080831F
:1059B0000AC090FFFCCF82E080838091D802909152
:1059C000D9020097B9F48091D6029091D70200973E
:1059D000E1F110C08230B9F515968C9182FD28C096
:1059E00080FD0BC083E080838091DA029091DB021E
:1059F000009701F10E945D2C28C084E08083809193
:105A0000DC029091DD020097A9F78091D602909177
:105A1000D7020097F9F00E94832C8091D8029091D0
:105A2000D902009739F78091D6029091D702E2CF40
:105A300085E080838091D6029091D702009729F06B
:105A40000E94832CF0CF86E08083DF91CF911F915D
:105A50000F9108958091D8029091D902B8CF1F92EA
:105A60000F920FB60F9211242F933F934F935F9392
:105A70006F937F938F939F93AF93BF93CF93DF9356
:105A8000EF93FF93D091E900DF708091EC00C82F75
:105A9000C17080FDC0E81092E9008091F000877F1E
:105AA0008093F00078940E94B6141092E9008091DF
:105AB000F00088608093F000CD2BCF70C093E90098
:105AC000FF91EF91DF91CF91BF91AF919F918F9116
:105AD0007F916F915F914F913F912F910F900FBEEA
