:100000000C9466030C949E030C949E030C949E0324
:100010000C949E030C949E030C949E030C949E03DC
:100020000C949E030C949E030C94E22B0C949E2B38
:100030000C94DF2C0C949E030C949E030C949E0352
:100040000C949E030C949E030C949E030C949E03AC
:100050000C949E030C94BB2C0C949E030C949E0356
:100060000C949E030C949E030C949E030C949E038C
:100070000C949E030C949E030C949E030C949E037C
:100080000C949E030C949E030C949E030C949E036C
:100090000C949E030C949E030C949E030C949E035C
:1000A0000C949E030C949E030C949E03050109027C
:1000B000A10185020901A100050919012905150001
:1000C00025019505750181029501750381010501E1
:1000D000093009311581257F950275088106093897
:1000E0001581257F950175088106050C0A380215D2
:1000F00081257F950175088106C0C005010980A191
:1001000001850319012AB700150126B7009501756D
:10011000108100C0050C0901A101850419012AA064
:1001200002150126A002950175108100C005010984
:1001300006A1018506050719E029E71500250195A7
:1001400008750181020507190029EF1500250195A1
:10015000F0750181020508190129059505750191C0
:1001600002950175039101C00660FF0961A10109B3
:1001700062150026FF0095207508810209631500AD
:1001800026FF00952075089102C005010906A1010E
:10019000050719E029E71500250195087501810279
:1001A0009501750881010507190029FF150026FF33
:1001B0000095067508810005081901290595057542
:1001C000019102950175039101C0FD377A585A00DB
:1001D0000004E6D6B4460200210116000000742F88
:1001E000E5A3E0075E01E05D003D888986D3DC0A77
:1001F000E842C324925842588FD8E75CA0D2616E7F
:1002000026E888019A676C7887BC8D3709EA0E1456
:1002100059A53C79858663BA247445A3F020FF2054
:10022000B3687235CC77FE57F71DCDC486FDE5E87F
:10023000F629B306CB2F59E1A1FB913030AC24CA8B
:1002400060854F77B24958D13A7250E3B0FB58D627
:10025000634A215F7CBCD52A778BF625E6D2071648
:10026000F0323BCC4D128131DDE9480E34D0781D9F
:10027000EC8AE6E6E57EE87461BB53514D9572EC7D
:10028000F7840E13D7BB676E2B8D0848CA299F8D44
:100290007A4FDAAE434BD3172964EE91A3BFEA7CC1
:1002A000651FE29D229E29B96D39030D3F37A86273
:1002B00053094AE6384CE1E3A8DD506449B38AE8C3
:1002C000398696A7C8FFCB069CE096E6916CC1EEF6
:1002D000D433EAC7B560043C6097DF2DD5B504F68A
:1002E00002B89D14986489932EA69253EF81441608
:1002F00036D904953EB2114E62A60C3D0376305CB1
:1003000011940067554B70982C6B709C708B0DF896
:10031000AAB7B10EFFEC2E330EC92E59A9C2FAE2CC
:10032000FBFD3DD8EF2AD9E3EF9767BE24EF76F0C7
:10033000AD71C924969D5DB3F6BD04CF27A2467664
:1003400090227C7968D29F2352F7AEEAF17D9F5EBE
:10035000A0EBA131B86B1517A834A92B33338F4804
:10036000CD905546393DAD378663F7097DD7ECFC16
:1003700055540BF0AE9C6D2C11B23027B14F288430
:100380006E355A8F95A7095C99C120A14BCD56F3C4
:10039000AC63697EC66318A0E0FE4F7205162B4160
:1003A000A200B7FD56292FCB8D1104006D012C152D
:1003B000263CCB5A0D54EDE71DBD9ACEC33846CE30
:1003C000E975F5A04D950EBFE20077032EF28FA5DB
:1003D00070FE0001FC03DF0E0000AAF30C92B1C412
:1003E00067FB020000000004595AA900AA00290076
:1003F00014001A000800150017001C0018000C005B
:10040000120013002A004C002B0004001600070005
:1004100009000A000B000D000E000F003300280039
:100420000000E1001D001B0006001900050011007E
:100430001000360037000000E5000000E00000007A
:10044000E200000000002C000000E60000000000B8
:10045000E40000000000010001000F04810EB40E52
:100460000000020002000B04810EB40E0000030025
:1004700001001004810EB40E000004000200F50318
:10048000810EB40E1707050001001104810EB40E91
:10049000000006000200F703810EB40E0000070002
:1004A00002000D04810EB40E0000080001001204C9
:1004B000810EB40E000009000200F903810EB40E93
:1004C000F2060A000200FB03810EB40EF2060B00D6
:1004D0000200FD03810EB40EF2060C000200FF03C1
:1004E000810EB40EF2060D0002000104810EB40E5E
:1004F000F2060E0002000304810EB40EF2060F0095
:1005000002000504810EB40EF2061000020007047A
:10051000810EB40EF206110002000904810EB40E21
:10052000F206120002001304810EB40E0000130044
:1005300002001504810EB40E00001400010017041F
:10054000810EB40E0000150000000000780674163D
:10055000000009025B00030100A0FA090400000189
:10056000030101000921110100012240000705815A
:100570000308000109040100020300000009211121
:100580000100012222000705820320000107050364
:1005900003200001090402000103000000092111E9
:1005A00001000122BC0007058403200001120100A4
:1005B00002000000088C5409000001010203011C24
:1005C000037600690061006C003A00660036003472
:1005D00000630032006200330063000000180374FF
:1005E0000074006F00630079006F0062006900749E
:1005F000006E00410000001E035300680069006E99
:10060000006B006100690020004D0061007900610D
:10061000006E006F000000040309040000000000E9
:1006200000000000000000000000000000000000CA
:100630000000000000000000000000000000007E3C
:100640000F00D4FFFFFFC70000007800000000008B
:100650000000002A2B28000000000000000000001D
:1006600000000000000029000000002C1E342021A2
:100670002224342627252E362D3738271E1F2021E9
:1006800022232425263333362E37381F0405060748
:1006900008090A0B0C0D0E0F101112131415161762
:1006A00018191A1B1C1D2F3130232D350405060780
:1006B00008090A0B0C0D0E0F101112131415161742
:1006C00018191A1B1C1D2F3130354C0011241FBE68
:1006D000CFEFDAE0DEBFCDBF04B603FE18C08091D5
:1006E0001E0590911F05A0912005B091210587302E
:1006F000904BA740B04B59F410921E0510921F0565
:100700001092200510922105E0E0F8E3099511E030
:10071000A0E0B1E0E6EDFCE602C005900D92A6383F
:10072000B107D9F725E0A6E8B1E001C01D92AE31CE
:10073000B207E1F70E94062D0C943E360C9400009F
:10074000E8EDF0E080818E7F80831092E2001092CD
:10075000DA001092E100A0EEB0E08C9181608C9301
:1007600080818F77808319BCA7EDB0E08C918E7F5C
:100770008C9380818F7E80831092ED040895209168
:10078000E4003091E50095E6A9012091EC00822F6C
:10079000817020FF06C08091E80080FF06C080E0E5
:1007A00008952091E80022FD1AC080911205882347
:1007B00089F0853089F08091EB0085FD0FC0209194
:1007C000E4003091E50042175307F9F29150E1F649
:1007D00084E0089582E0089583E0089581E008951B
:1007E000EF92FF920F931F93CF937C018B010E9496
:1007F000BF03C82F811117C08091E80085FD0BC091
:100800008091E8008E778093E8000E94BF038823E0
:1008100099F3C82F08C0F70181917F018093F100FF
:100820000150110949F78C2FCF911F910F91FF9023
:10083000EF9008958091140587FF13C08091E80020
:1008400082FF06C08091E8008B778093E80004C0A7
:10085000809112058111F2CF0895809112058823AD
:10086000D9F38091E80080FFF8CF8091E8008E777F
:10087000ECCF982F9093E900242F762F50E0891722
:1008800031F07091EC002091ED005091F00021FDCD
:1008900007C09F5F973071F78093E90081E008956A
:1008A0003091EB003E7F3093EB003091ED003D7FC7
:1008B0003093ED003091EB0031603093EB0070939A
:1008C000EC002093ED005093F0002091EE0027FD06
:1008D000E0CF80E00895B0E0A0E0E1E7F4E00C9420
:1008E0009135C8EDD0E088818F7E8883E7EDF0E018
:1008F00080818160808384E082BF81E08093ED0409
:1009000088818E7F888302EE10E0F80110821092B9
:10091000DA0081EEC82ED12CF601108288818F7703
:10092000888388818068888388818F7D888319BCCB
:1009300010921205109213051092110510921005D5
:1009400090EEE92EF12CF70180818B7F80838881E6
:100950008160888342E060E080E00E943904F60113
:1009600080818E7F8083F801808181608083808197
:1009700088608083F70180818E7F80838881806199
:100980008883CDB7DEB7E8E00C94AD35FC018091EB
:100990001A0590911B0586179707A0F06115710540
:1009A00029F49091E8009E779093E80090E061151B
:1009B000710551F4911108C08091E80082FF34C0A4
:1009C00080E00895BC01F2CF809112058823C1F127
:1009D0008530C1F18091E80083FD30C08091E8004E
:1009E00082FDEACF8091E80080FFE1CF8091F300A3
:1009F0002091F200382F6115710519F0283031056A
:100A000058F091E02830310509F090E02091E8009D
:100A10002E772093E800CBCF81918093F100615035
:100A200071092F5F3F4FE7CF80911205882341F076
:100A3000853041F08091E80083FFBECF81E00895CA
:100A400082E0089583E0089508958091EF04089569
:100A50009C014FB7F8948091E4049091E504A09133
:100A6000E604B091E7044FBF821B930B08952FB7A4
:100A7000F8946091E4047091E5048091E60490910B
:100A8000E7042FBF08952FB7F8948091E404909164
:100A9000E504A091E604B091E7042FBF08952091EA
:100AA0001B012223C1F02091E80427FF14C0E62F88
:100AB000E695E695E695EE31F8F4E80FF92FF11D8D
:100AC000677021E030E001C0220F6A95EAF7828169
:100AD000822B82830895FC0132962FEF30E0419102
:100AE000641751F02F3F19F4411101C0232F3F5FCC
:100AF0003630A9F72F3F09F40895820F911D27FD85
:100B00009A95FC01628308952091E1043091E204FA
:100B10002817390771F09093E2048093E104E09183
:100B2000DF04F091E004309721F00084F185E02D9E
:100B3000099508952091DD043091DE0428173907C6
:100B400071F09093DE048093DD04E091DF04F09176
:100B5000E004309721F00680F781E02D0995089593
:100B6000E091DF04F091E004309729F00190F081EA
:100B7000E02D0995089580E00895CF93DF93EC016F
:100B80004091CD045091CE046091CF047091D00477
:100B90002FB7F8948091E4049091E504A091E604C5
:100BA000B091E7042FBF841B950BA60BB70B843FB6
:100BB0009140A105B10518F58091CD049091CE0426
:100BC000A091CF04B091D0048093C9049093CA043B
:100BD000A093CB04B093CC0484EF91E0A0E0B0E00C
:100BE0008093C5049093C604A093C704B093C8042F
:100BF000D093D504C093D404DF91CF9108950E947F
:100C000037056093C9047093CA048093CB04909312
:100C1000CC0482E390E0A0E0B0E0E2CFFC0184816C
:100C2000862351F492819923B9F06923808583FF4B
:100C300005C081E061110FC080E00895892F8F7099
:100C400092959F70982B862F8F7062956F70682B8E
:100C500081E09613F1CF089581E0FDCF452B39F067
:100C6000682381E06F3F09F080E08170089581E0A2
:100C7000FCCFDC016091C1048091C204962F8913DE
:100C800001C00895292F30E0F901EE0FFF1FE7544E
:100C9000FB4F408151814A175B07A1F487E08A9F8F
:100CA000A0018B9F500D11244F575B4F81E0FA013B
:100CB00084839613E6CF2F5F3F4F23703327209313
:100CC000C10408952F5F3F4F922F9370D8CF109299
:100CD0001E0410921D04E1E8F4E08581811102C038
:100CE00014821682379684E0E93BF807B1F708953D
:100CF000B0E0A0E0EEE7F6E00C948F358FEF9FEFC9
:100D00004430510508F469C04091E80441FB88274C
:100D100080F990E0880F991F42FB002700F910E04E
:100D2000000F111F000F111F802B912B40FBCC24B3
:100D3000C0F8D12C8C299D2943FB222720F9C22FF2
:100D4000E0E0DE2F53E0CC0FDD1F5A95E1F78C2B4E
:100D50009D2B44FBAA27A0F9B0E0E4E0AA0FBB1F3B
:100D6000EA95E1F78A2B9B2B45FBEE27E0F9F0E0B3
:100D7000A5E0EE0FFF1FAA95E1F78E2B9F2B46FBF8
:100D8000222720F930E0B6E0220F331FBA95E1F7B1
:100D9000822B932B47FB222720F930E03695322F08
:100DA000222737952795822B932B2091E904322F08
:100DB0003170F32EE82EF92A26952170B22EBB0C45
:100DC000A82EBF28C501BB0CAA0BBB0BFB0180835F
:100DD0009183A283B38390E080E0CDB7DEB7EAE0F1
:100DE0000C94AB35E5EFF3E0848195812AE030E0A7
:100DF000B9010E94523560931601868180931501D6
:100E0000828580931401848580931301868597855C
:100E1000B9010E94523560931201808980931101BB
:100E2000828980931001848980930F0108958091B5
:100E3000F5039091F603909318018093170108959C
:100E4000E5E8F2E090E080E063E07BE24AE25BE22A
:100E500028E73AE277836683518740873387228782
:100E60009587848701963E968830910599F7089575
:100E700081152CE5920741F420910D0130910E016E
:100E8000232B11F490E080E008950E9443059C011B
:100E900090916F0280917002982B21F030936C0238
:100EA00020936B029091710280917202982B21F035
:100EB00030936A0220936902E091DF04F091E0042C
:100EC000309749F082E080936D020480F581E02D37
:100ED0008DE692E00995089590916F02803F59F454
:100EE0008091700287FF0DC01092700291110BC0AB
:100EF0001092670208C0813F81F480917002181639
:100F00009CF3992381F08091710290917202892B58
:100F100009F064C0109266020895823F49F497FF79
:100F2000F0CF10926F02809170028111ECCFE0CF70
:100F3000833F19F41916ACF3E4CF20917102893F75
:100F400029F41216F4F610927102DBCF8A3F19F4DD
:100F500027FFD7CFF8CF209172028B3F29F427FFCC
:100F6000D0CF10927202CDCF8C3F19F41216CCF371
:100F7000C8CF843F31F480916E028E7F80936E02E1
:100F8000C0CF853F21F480916E028D7FF7CF863FE1
:100F900021F480916E028B7FF1CF873F21F4809105
:100FA0006E02877FEBCF883F21F480916E028F7EA7
:100FB000E5CF8D3F31F4809168028E7F8093680287
:100FC000A0CF8E3F21F4809168028D7FF7CF8F3FB5
:100FD00009F097CF809168028B7FF0CF08958091C0
:100FE000680280FF0CC06091100170E075956795F4
:100FF000759567956115710549F1862F089581FFF3
:1010000006C06091100170E075956795F3CF60910F
:10101000100182FD0BC0909166029923A1F06091AE
:101020000F0180911001961738F0682F70E060383A
:10103000710500F38FE70895899FC001112470E0C6
:101040000E946635F4CF61E070E0D7CF81E008956B
:10105000809168026091FD037091FE0380FF16C0CD
:1010600020911401269FC001279F900D1124BC01DF
:1010700076956795769567956038710508F043C059
:101080006115710509F441C0862F089581FF0BC0D9
:1010900020911401269FC001279F900D1124BC01AF
:1010A00076956795E9CF82FF09C0809114019B0175
:1010B000829FB001839F700D1124DECF20916702C3
:1010C0002223D1F29091130180911401482F50E016
:1010D000291748F0CB01849FB001859F700D949F24
:1010E000700D1124C9CF289F90011124269FA001C3
:1010F000279F500D369F500D1124692F70E0CA01B3
:101100000E945235B9CF8FE7089581E00895803F5E
:1011100031F40E9428088195809370020895813FE0
:1011200019F40E942808F8CF823F31F40E94280861
:10113000819580936F020895833F19F40E942808D7
:10114000F8CF893F29F40E94EF0780937102089538
:101150008A3F21F40E94EF078195F7CF8B3F31F44E
:101160000E94EF0781958093720208958C3F19F4D5
:101170000E94EF07F8CF843F31F480916E028160C6
:1011800080936E020895853F21F480916E02826003
:10119000F7CF863F21F480916E028460F1CF873FC4
:1011A00021F480916E028860EBCF883F21F480911A
:1011B0006E028061E5CF8D3F31F4809168028160DD
:1011C0008093680208958E3F21F4809168028260C6
:1011D000F7CF8F3FB9F7809168028460F1CF80E04C
:1011E0000895F894E82FE295EF70F0E031A1282FF0
:1011F0002F7081E090E001C0880F2A95EAF7982FC0
:101200009095932391A392A1892B82A3789408951A
:101210009091E80492FF06C0282F28712830F9F435
:10122000877F846093FF06C0282F28712831F1F44E
:10123000877E84612091E90420FF06C0382F387131
:101240003830D9F4877F816021FF06C0282F2871AC
:101250002831D1F4877E816194FD877E0895282FFF
:1012600024712430F9F68B7F8860DCCF282F24711D
:10127000243101F78B7E8861DDCF382F3171313019
:1012800019F78E7F8860E0CF282F2171213121F757
:101290008E7E8861E1CFCF93DF93EC018238910598
:1012A000B1F108F040C08133910509F49DC048F5C3
:1012B0008932910509F48DC08A9709F49CC0C11543
:1012C00021E5D20708F0C3C0C11530E5D30708F007
:1012D0001EC1C83ED10508F0A3C0C03ED10588F5A7
:1012E000C83AD10508F08EC0C53AD10508F007C14B
:1012F000C130D10531F1209721F1C430D10508F575
:1013000045C08533910509F45FC0C997C1F6809146
:10131000E804837009F044C18091E90483FF11C09F
:10132000C9E2D0E00EC0833E910599F170F4803E91
:10133000910501F1823E910511F68091E80482FD4C
:1013400021C0CE01DF91CF910895863E910561F1D4
:10135000873E910571F1843E910509F0B0CF8091EF
:10136000E90481FFEECF8091E804C7EED0E084FD70
:101370000DC0E7CF8091E80480FD33C09091E9046F
:1013800090FFDFCFC3EED0E084FFDBCFD0E0C0E042
:10139000D8CF8091E80482FD00C19091E90490FDCE
:1013A000FFC084FFCECFF2CF8091E80483FDDDCF74
:1013B000C8CF8091E80483FDF6C09091E90491FFC5
:1013C000F0CFC4EED0E0BDCF8091E80485FFB9CF67
:1013D000A7CF8091E80485FDE9C08091E90483FFEF
:1013E000B0CFC9E3D0E0ADCF8091E80486FFA9CFAC
:1013F000CAE2D0E0A6CF8091E80486FFA2CFC1E385
:10140000D0E09FCFCF3BD10508F6C85AD0E0CC0F33
:10141000DD1FC95DDE4F0990D881C02DD46491CF06
:10142000C11540E2D40758F4C11581E0D80708F08F
:1014300088CFC03FD10508F4A9CFD06582CFC115B0
:1014400020E4D20708F4A2CFDF70D06A7ACFC115AA
:1014500035E5D30718F5C11544E5D40708F085C074
:10146000C11583E5D80708F06CC0C11522E5D20785
:1014700008F462C0CE018370992721E030E002C0F9
:10148000220F331F8A95E2F7C695C69580E2C89F62
:10149000E0011124C22BD32BDC6853CFC11539E5F1
:1014A000D307A8F4C11548E5D40708F063C0C115F7
:1014B00086E5D80708F06ACF8C2F0E940809C82F4C
:1014C000D0E0DC2FCC27CC27DF71D0623ACFC1151A
:1014D0002AE5D20708F453C0CE01905681159042F8
:1014E00008F054CF8D2F8F710E94080990E0982F3B
:1014F000882788279F719C012C2BE901E6CFC55ACC
:10150000D0E0CC5DDE4FC881D0E0D0641ACF2C2F64
:1015100026952695237040E2249F900111248C2F5C
:101520008370C1E0D0E002C0CC0FDD1F8A95E2F7E6
:10153000C22BD32BDD6805CFDC2FCC27C16FD06A3F
:1015400000CFCE018370992721E030E002C0220F46
:10155000331F8A95E2F7C695C69540E2C49FE00125
:101560001124C22BD32BDA68ECCEDC2FCC27C46F2E
:10157000D06AE7CEDC2FCC27C06FD06AE2CE8C2FAA
:101580008F700E94080934E0D695C7953A95E1F727
:10159000CF709C2FEC01D069D4CEC2EED0E0D1CE7A
:1015A000C0EED0E0CECEC6EED0E0CBCEC5E3D0E0EC
:1015B000C8CE80913502882331F010923502109206
:1015C0003402109233020895CF93C82F8091E9041A
:1015D00082FF0CC0809135028C1741F00E944305B8
:1015E0009093340280933302C0933502CF910895D3
:1015F000809590911D05982390931D0508958095E1
:101600009091D40398239093D40308959091D40398
:10161000892B8093D4030895109212021092110224
:101620001092100208958091F7039091F803892B8E
:1016300089F00E9443052091330230913402AC01BD
:10164000421B530B81E02091F7033091F8034217BE
:10165000530708F480E08170089590911B0199234D
:10166000D1F09091E80497FF16C0E82FE695E69533
:10167000E695EE31E0F4F0E0E857FE4F282F2770B2
:1016800081E090E001C0880F2A95EAF78095928169
:10169000892382830895EAE8F1E09191891303C0D8
:1016A000DF0111971C9291E0E039F907B1F7089535
:1016B00020910F029091CE01291302C080E008957D
:1016C00030E0F90153E0EE0FFF1F5A95E1F7E153C7
:1016D000FE4F5181561306C05081581303C05281EA
:1016E000541304C02F5F3F4F2770E6CF81E0089569
:1016F00080910F029091CE01981301C008958F5FE1
:101700008770FACFA82FA77023E0969587952A9522
:10171000E1F7FC01EE0FFF1FE80FF91FE60FF71FBF
:1017200050E040E080E0219130E00A2E02C0369582
:1017300027950A94E2F721703327042E01C0220F67
:101740000A94EAF7822B4F5F5F4F4330510559F7F8
:101750000895903FC9F0943080F48D30A8F4282F7C
:1017600030E061EB71E0A901EDE09E9F400D511D5D
:101770001124CA010E94820B08959C5F923020F4CC
:101780006EEA71E090E0F6CF80E00895262F277092
:1017900091E001C0990F2A95EAF723E076956795C5
:1017A0002A95E1F7FB01EE0FFF1FE60FF71FE40F8D
:1017B000F51F50E040E0682F70E08191DF01119744
:1017C0009B01042E02C0369527950A94E2F72170FA
:1017D00021952827292328272C934F5F5F4F4330DB
:1017E000510559F70895282F862F903F79F09430AE
:1017F00070F42D3058F4622F70E02DE0929F600D50
:10180000711D112441EB51E00E94C60B08959C5FAD
:101810009230E0F7622F70E04EEA51E0F5CF9295FA
:101820009F70963091F058F4925F9F70923058F408
:10183000803F19F030F4883E30F481E008959A5FDB
:10184000F4CF843FD1F380E00895883EB0F3813F28
:10185000D1F7F3CF9C013A9521153F4150F5FC019A
:10186000EE27F170BC0166277270AC0144275470FA
:101870009C012227387094FF0EC080E1EF2B09F401
:1018800080E0672B09F08062452B09F08064232BF0
:1018900089F08068089581E0EF2B09F480E0672BE0
:1018A00009F08260452B09F08460232B19F08860D1
:1018B000089580E008958093EA047093EC046093A7
:1018C000EB04809112058430F9F48093E9008FEFE6
:1018D0009091E800815095FD06C095ED9A95F1F73D
:1018E00000008111F5CF8091E80085FF0DC050E028
:1018F00040E063E070E08AEE94E00E94F0038091A3
:10190000E8008E778093E8000895BC0184E00E948F
:101910005B0C0895BC0183E00E945B0C08959C0160
:1019200084E08093E9009FEF8091E800915085FD6D
:1019300006C085ED8A95F1F700009111F5CF8091F1
:10194000E80085FF0CC050E040E066E070E0C901AF
:101950000E94F0038091E8008E778093E80008955C
:10196000CF93DF93EC0180911B018823B1F180912B
:10197000E80487FF32C060E284E08093E9008FEFE3
:101980009091E800815095FD06C095ED9A95F1F78C
:1019900000008111F5CF8091E80085FF1BC0809188
:1019A0001B0170E050E040E0811104C050E040E0D5
:1019B00068E070E0CE010E94F0038091E8008E772D
:1019C0008093E80080E2FE01A0EFB4E001900D9268
:1019D0008A95E1F7DF91CF91089568E081E0CDCF5E
:1019E00081E08093E00080E28093D8001092C900EB
:1019F0008FE19EE40197F1F700C0000087E090EBD3
:101A0000DC0180931E0590931F05A0932005B093E1
:101A1000210588E19CE00FB6F894A89580936000BA
:101A20000FBE90936000FFCF019708F40895EFE98F
:101A3000FFE03197F1F700C00000F6CF0F931F933E
:101A4000CF93DF9305EF13E0C7EDD1E0CE010E9405
:101A5000F435F80181938F012196CB3FF1E0DF0748
:101A6000A9F7C0E6D4E0FE0185919491009711F0AA
:101A7000FC0109952C96F5E0CC35DF07A1F7DF9145
:101A8000CF911F910F910895FF920F931F93CF93C2
:101A9000DF93F42E843040F5611126C024E0829F4C
:101AA0008001112409531E4F82E090E0442311F07D
:101AB00090E080E0800F911F0E94F435C82FD0E0A5
:101AC000DC2FCC2783E090E0FF2011F081E090E054
:101AD000800F911F0E94F4359E01282BC901CDB7BC
:101AE000DEB7E5E00C94B03590E080E0F8CF0F93DE
:101AF0001F93CF93DF93843030F5643020F54D3061
:101B000010F5C42FD0E0CC0FDD1F2AE1629FC00D7D
:101B1000D11D112438E6839FC00DD11D1124CE01A3
:101B200087960E94F435082F10E0102F0027CE0171
:101B300088960E94F4359801282BC901DF91CF9136
:101B40001F910F91089590E080E0F8CF462F672F06
:101B50002091D2033091D303232BF9F4703F39F451
:101B6000403FD9F48091D0039091D10308958430FF
:101B7000A0F4743028F44D3080F40E94770D08955D
:101B80007D3F39F4411109C041E060E00E94440DFD
:101B900008957C3F11F44423C1F390E080E0089560
:101BA000CF92DF92FF920F931F93CF93DF936C013D
:101BB00000911C0580913602082BC7E0D0E010E0B0
:101BC000FC2EC8010C2E02C0959587950A94E2F769
:101BD00080FD0CC02197A0F7F12C8F2DDF91CF91C4
:101BE0001F910F91FF90DF90CF900895B6018C2F39
:101BF0000E94A60D0E944B09019761F3EECFCF938F
:101C0000DF93EC010E94D00DBE010E94A60D0E9440
:101C10004B09DF91CF910895CF93DF93EC014B8176
:101C20005C81698188810E942E06811110C08E819D
:101C30009F81009739F00E944B090E940F0CDF91A1
:101C4000CF910895888199810E94FF0DF6CF80E0A1
:101C5000F6CFA5E0B0E0EFE2FEE00C9496354983C4
:101C60005A8389819A81662399F0222389F00E9400
:101C7000D00D182F682F89819A810E94F30B6981FA
:101C80007A81812F0E94A60D2596E3E00C94B2354F
:101C90000E94A90B182FF3CFFC01262F8681978174
:101CA000009739F4408151816281738184810E945F
:101CB000290E089583E290E00E94F435803289F481
:101CC00084E290E00E94F435843459F485E290E097
:101CD0000E94F43591E0883D09F090E0892F8170F1
:101CE000089580E0FCCFCF9384E090E00E94F4352B
:101CF000C82F82E290E00E94F435982F8C2FCF916C
:101D00000895DB01FC013296259134914217530767
:101D100058F0FC01349665917491A901CD010E949F
:101D2000D43590E080E008958FEF9FEF08950F93F2
:101D30001F93CF93DF9305EF13E0C7EDD1E0CE0102
:101D40000E94F435F80161918F01681719F0CE01F6
:101D50000E9402362196CB3FF1E0DF0781F7DF9149
:101D6000CF911F910F910895DA019C012E5F3F4F93
:101D7000F90145915491F90125913491A217B307C6
:101D800058F0FC013496859194910E94D4350E94BC
:101D9000970E90E080E008958FEF9FEF0895CF9326
:101DA000DF93CBEED2E060E0CE010E9402362196B6
:101DB000C11584E0D807B9F7DF91CF9108950F934B
:101DC0001F93CF93DF93142F022F8430F0F461110F
:101DD0001CC094E0899FE0011124C953DE4F82E0CA
:101DE00090E0442311F090E080E0632F8C0F9D1F62
:101DF0000E94023683E090E0112311F081E090E030
:101E0000602F8C0F9D1F0E940236DF91CF911F9192
:101E10000F9108951F93CF93DF93122F8430E0F436
:101E20006430D0F44D30C0F4C42FD0E0CC0FDD1FAF
:101E30009AE1699FC00DD11D112498E6899FC00DBC
:101E4000D11D1124632FCE0187960E940236612F87
:101E5000CE0188960E940236DF91CF911F9108959E
:101E6000CF93C82F6FEF811160E283E290E00E9470
:101E700002366FEFC11164E484E290E00E94023602
:101E80006FEFC11168ED85E290E00E940236CF91BC
:101E90000895CF93C92F682F84E090E00E94023606
:101EA0006C2F82E290E00E940236CF9108959B0150
:101EB000883070F49AE0899FB001112465507E4FFC
:101EC0004AE050E0C9010E94E43590E080E00895C6
:101ED0008FEF9FEF0895AAE0B0E0E1E7FFE00C94F8
:101EE00097359C0137552F3F310509F068F4BE0145
:101EF0006F5F7F4F0E94570F892B31F489859A8538
:101F00002A96E2E00C94B33580910D0490910E0472
:101F1000F7CFAAE0B0E0EFE8FFE00C948D3508E5DC
:101F200013E086E4C82E83E0D82E9BE9E92E92E0E8
:101F3000F92E27E0922E35E4A32E33E0B32E882429
:101F40008394D6010D931D936D014AE050E0B701D3
:101F5000CE0101960E94E435F8013896DF01892D03
:101F60001D928A95E9F789819A81D80111969C93EF
:101F70008E938F8112968C9312978D8113968C93EA
:101F80001397888514968C931497898515968C934E
:101F900015978B819C8117969C938E931697189614
:101FA0001C9218978A8587FF3CC01E961C921E9231
:101FB0001D9780FF03C0D80118968C9281FF04C042
:101FC000F80190859260908782FF07C0D80118962B
:101FD0009C911897946018969C9383FF04C0F80115
:101FE00090859860908784FF07C0D80118969C91CF
:101FF0001897906118969C9385FF04C0F80180851E
:1020000080628087015F1F4FFAE0EF0EF11C8BEEBC
:10201000E81682E0F80609F094CF2A96ECE00C94DA
:10202000A935F801B686A586C4CFAAE0B0E0EBE1F9
:10203000F0E10C949135E5EFF2E080E5DF011D92CF
:102040008A95E9F7E1E8F4E088E3DF011D928A95DB
:10205000E9F785EFC82E82E0D82E7F010BE412E06D
:10206000F701D182C0824AE050E0B801CE0101966A
:102070000E94E43588E0FE013196D60101900D9270
:102080008A95E1F789859A85D70113969C938E935B
:102090001297BAE0CB0ED11CE7E0EE0EF11C065F02
:1020A0001F4F0B39F2E01F07D9F62A96E8E00C948F
:1020B000AD35A8E0B0E0EFE5F0E10C9489358E0194
:1020C0000F5F1F4F88E0F80111928A95E9F795E5B7
:1020D000E92E91E0F92E680129E5422E21E0522EE9
:1020E00066246394712C46E6842E41E0942EF70119
:1020F00081917F018F3F09F445C0F894E82FE29564
:10210000EF70F0E021A18F70A30102C0440F551FB2
:102110008A95E2F7CA01922F982B91A392A18095FC
:10212000892382A3789400C0E9E5F1E021E030E062
:10213000B12CA12C41914F3F09F464C0A42FA2956A
:10214000AF70B0E090968C9190E04F7002C0959582
:1021500087954A95E2F780FD55C0C901A82AB92A9A
:10216000220F331F8E169F0629F7F70131978081C2
:102170008F3F11F00E94F10850EA5A95F1F7F601ED
:10218000B182A082F2E0CF0ED11C4E145F0409F0A0
:10219000AECF48E050E0B8018AE392E00E94C73534
:1021A000892B99F188E0F801AAE3B2E001900D9241
:1021B0008A95E1F781E0809339020E94430590936C
:1021C00038028093370280913702909138020E9442
:1021D00028050597F0F048E050E06AE372E08EE5EC
:1021E00092E00E94C735892BC9F088E0EAE3F2E06B
:1021F000AEE5B2E001900D928A95E1F781E0109290
:10220000390208C090E080E0A9CF809139028111A5
:10221000DACF80E02896E0E10C94A53580E0EFCF9E
:10222000CF938091D40390911D05892B80938801D1
:1022300080913502882329F18091F7039091F8036A
:10224000892B29F00E94130B81110E94D90A8091D9
:10225000880190913502892B8093880180911B0120
:10226000882309F447C08091E80487FF43C08EE1CA
:10227000EAE8F1E090E0815008F03EC091110E9440
:10228000D90AC091D104C09580918801C82380915A
:10229000D204C82BC093880140E250E063E172E0B1
:1022A00088E891E00E94C735892B11F180E2E8E8C7
:1022B000F1E0A3E1B2E001900D928A95E1F7E0919F
:1022C000DF04F091E004309799F080911B0188239E
:1022D00049F08091E80487FF05C0C093890186E03A
:1022E000809388010280F381E02D88E891E00995D0
:1022F000CF91089586E0BCCF2191222309F4BBCF72
:102300009F5FB9CFCF93DF93EC01EA85FB853097D0
:1023100019F06C857D8509958B810E94F80A8C8166
:102320000E94FF0A0E94101186E0FE0111928A9518
:10233000E9F7DF91CF910895CF93DF93EC018D8181
:1023400081FD15C082608D8380911D059B81892B45
:1023500080931D058C810E94060B0E941011E88558
:10236000F985309721F06C857D85CE010995109215
:10237000DC041092DB048D8180FD03C0CE010E943D
:102380008211DF91CF91089580911901877F809309
:10239000190182E00E94F80A8091190184FF06C0A9
:1023A0008F7E8093190182E00E94060B80911901B3
:1023B00085FF06C08F7D8093190180E20E94060B85
:1023C0000E941011089590E080E00E949A0590E02C
:1023D00080E00E94840510921D050E94101186E085
:1023E000EDE6F2E0DF011D928A95E9F710926702AF
:1023F00010926602109268020E9445070895809329
:102400001C050E94E311089580911C05982F967079
:10241000963021F488600E94FF110895877FFBCFDA
:1024200021E030E001C0220F8A95EAF720958091E3
:102430001C0582230E94FF1108959091120280953D
:10244000892380931202282F277091F4282F082EB9
:10245000000C330B9217130659F09091E90492FF88
:1024600007C08595859585950E9410120E940C0BDA
:1024700008959091E90492FB222720F9281769F02A
:1024800080FB92F99093E9048091E8049091E9042B
:102490000E94490F82E00E941D12089521E030E061
:1024A00001C0220F8A95EAF780911C05822B0E94B9
:1024B000FF1108959091E90492FF10C098E0899F60
:1024C00090011124622B609312020E944E120E940E
:1024D0004305909311028093100208950E944E12BA
:1024E0000895809336020E94E31108951092D40358
:1024F00080911B01EAE8F1E0882361F08091E80413
:1025000087FF08C08EE1DF011D928A95E9F70E94DE
:10251000E311089586E0F7CFAAE2B0E0E2E9F2E144
:102520000C94963584E195E02091F100DC012D9327
:10253000CD01B5E08C319B07B9F78091150583304B
:1025400009F472C0B8F4813009F449C0823009F44A
:10255000B3C08091E80083FF96C2809114059091EA
:1025600015059A3008F08FC2E92FF0E0E05CF94CD5
:102570000C947A358A3009F48EC08B3009F471C01E
:10258000893039F780911405813219F78091180547
:1025900090911905009711F00297D9F68091E80003
:1025A000877F8093E8008091E80082FF38C0909197
:1025B000F3008091F200029731F48091F1008130B4
:1025C00011F0863021F48091F1008093EF04809126
:1025D000E8008B778093E8000E941A04BACF8091BC
:1025E0001405813A09F0B5CF8091E800877F809388
:1025F000E8008091180590911905892B61F460E23B
:1026000080EF94E070E00E94C6048091E8008B7730
:102610008093E8009ECF60E090E080E0F3CF80916F
:1026200012058111C0CF95CF80911405813A09F030
:1026300090CF8091180590911905892B09F089CFC9
:102640008091E800877F8093E8008091E80080FF18
:10265000FCCF80911B018093F1008091E8008E7780
:10266000B9CF80911405813209F073CF809118059C
:1026700090911905892B09F06CCF8091E800877F34
:102680008093E8000E941A048091160580931B0134
:102690000E9476125ECF80911405813209F059CFE5
:1026A0008091E800877F8093E8000E941A0480915F
:1026B00017058093EE044DCF80911405813A09F0FF
:1026C00048CF8091E800877F8093E8008091E80000
:1026D00080FFFCCF8091EE04BECF803899F0823825
:1026E00009F0D1C1809118058F70873008F0CBC1F7
:1026F0008093E9008091EB0085FB882780F9109298
:10270000E90006C080911005909111059111826039
:102710009091E800977F9093E8008093F1001092E9
:10272000F1008091E8008E77AAC1882309F498C14E
:10273000823009F0A8C18091160581119BC180915A
:1027400018058F702FEF280F263008F09CC180935A
:10275000E9002091EB0020FF8DC1933031F480918E
:10276000EB0080628093EB0085C19091EB0090615B
:102770009093EB0021E030E001C0220F8A95EAF748
:102780002093EA001092EA008091EB008860EACF83
:10279000811179C1109116051F778091E30080782F
:1027A000812B8093E3008091E800877F8093E8008D
:1027B0000E941A048091E80080FFFCCF8091E30022
:1027C00080688093E30082E0111183E0809312051A
:1027D0005AC18058823008F056C1209116053091B8
:1027E00017052C3DE3E03E07A1F583E08A838AE2EA
:1027F00089834FB7F894DE01139620E03EE051E262
:10280000E32FF0E050935700E49120FF03C0E295DE
:10281000EF703F5FEF708E2F90E0EA30C0F0C79608
:102820008D939D932F5F243159F74FBF8091E8001E
:10283000877F8093E8006AE270E0CE0101960E94F3
:10284000C6048091E8008B778093E8001CC1C09695
:10285000E7CF8091180590911905432F55274330F4
:10286000510509F44AC078F54130510509F485C095
:102870008BE590E0E2E5F5E04230510509F003C157
:102880002091E800277F2093E80020911A053091DD
:102890001B058217930708F49C0140E021153105C0
:1028A00009F070C041116EC08091E80082FDC9CF6F
:1028B00080911205882329F2853019F28091E80071
:1028C00083FFF2CFBECF4132510509F447C04232F7
:1028D000510509F0D8C08330910508F0D4C0FC013F
:1028E000EE0FFF1FE758FE4F0190F081E02D8A5850
:1028F0009E4FDC018C9190E01DC0332721303105C3
:10290000E9F02115310579F022303105F9F0233055
:10291000310509F0B8C0EFEBF5E0E4918E2F90E0BF
:10292000EFEBF5E007C0E7E1F6E0E4918E2F90E0F1
:10293000E7E1F6E0009709F4A6C0A2CFE7EFF5E0E3
:10294000E4918E2F90E0E7EFF5E0F4CFEDEDF5E0C8
:10295000E4918E2F90E0EDEDF5E0ECCF8330910522
:1029600008F091C0880F991FFC01E158FE4F0190BB
:10297000F081E02D89E090E083CF82E190E0EDEA04
:10298000F5E07ECF80911205882309F45ACF853077
:1029900009F457CF8091E80083FD53CF8091E80080
:1029A00082FD82CF8091E80080FF78CF9091F30084
:1029B0008091F2002115310519F08830910550F011
:1029C00041E0089709F040E08091E8008E7780931D
:1029D000E80064CF44914093F100319621503109D1
:1029E0000196E8CF803809F04EC08091E800877FDB
:1029F0008093E800809113058093F10092CE8111BD
:102A000042C0109116051230F0F58091E800877FE2
:102A10008093E800109313050E941A04112311F00B
:102A200084E005C08091E30087FDFACF81E08093C8
:102A3000120542E061EC81E00E94390442E261EC5F
:102A400084E00E94390442E261EC82E00E94390491
:102A500042E260EC83E00E9439048091120513C0C9
:102A600080911605813079F481E0933009F080E09F
:102A7000809311051092E9008091E800877F809390
:102A8000E8000E941A048091E80083FF0AC0809148
:102A9000E800877F8093E8008091EB00806280935C
:102AA000EB00AA96E3E00C94B235E5EFF3E0128E6A
:102AB000138E8FEA90E09183808325E0248F88E84D
:102AC00093E1938382838AE090E09583848344E159
:102AD00050E05783468348E050E051874087938712
:102AE00082876EE170E0758764879787868780E5C7
:102AF00090E0918B808B538B428B48E250E0558B5A
:102B0000448B42E350E0578B468B48EC50E0518FAA
:102B1000408F158E178E168E91A380A322A30E943C
:102B2000970E0E9476121092E9041092E804E9EEE2
:102B3000F4E08081846080838091E8049091E904CE
:102B40000E94490F0E941E0D0895AEE1B0E0EBEA2D
:102B5000F5E10C94893560900D0170900E0181E0D3
:102B600090E090930E0180930D0110E000E09AEE4A
:102B7000A92E93E0B92E2CEE822E23E0922E8EEE1B
:102B8000E82E83E0F82E512C1AC001151105D1F45E
:102B9000F60125913491442D652D80E00E940A0FA5
:102BA00082E0C80ED11C4394EDE04E12EECF539458
:102BB000FAE1EF0EF11C84E0581609F474C06701C5
:102BC000412CE3CF21E030E0442D652D802FE6CF6E
:102BD000F5012591349141E060E080E00E94DF0E34
:102BE000F4012591349140E060E080E00E94DF0E26
:102BF0000F5F1F4F0430110509F0C1CF0E9455151A
:102C00001A8219821C821B821E821D8218861F82D4
:102C100088EC90E09A8789870BEF11E04AE050E05A
:102C2000B801CE0101960E942636065F1F4F0B3475
:102C3000E2E01E0799F77E01FBE0EF0EF11C8AE04F
:102C4000F70111928A95E9F74AE050E0B801C7010F
:102C50000E942636065F1F4F0B39F2E01F07A1F7CF
:102C60007E0185E1E80EF11C8AE0F70111928A9558
:102C7000E9F78FEF9FEF9A8F898F87E08E8F4AE079
:102C800050E0B801C7010E942636065F1F4F0B3E79
:102C9000F2E01F07A1F770920E0160920D016E968F
:102CA000E0E10C94A5350115110509F491CF21E05F
:102CB00030E041E060E0802F0E94DF0E21E030E054
:102CC00040E060E0802F92CF80E00E94300F60E013
:102CD00086E290E00E9402360E94A5150E94CF0E67
:102CE00081E00E94300F0895CF92DF92EF92FF9221
:102CF0008FEF9FEF4430510508F46AC0FB01C0809C
:102D0000D180E280F3800E9476128091E804C0FABC
:102D100080F9B701A601769567955795479540FBD1
:102D200081F9B701A60122E07695679557954795F9
:102D30002A95D1F740FB82F9B701A60133E07695D9
:102D40006795579547953A95D1F740FB83F9B701B9
:102D5000A601E4E07695679557954795EA95D1F7F2
:102D600040FB84F9B701A601F5E076956795579584
:102D70004795FA95D1F740FB85F9B701A601A6E082
:102D80007695679557954795AA95D1F740FB86F9B3
:102D9000B701A601B7E07695679557954795BA951F
:102DA000D1F740FB87F98093E8048091E904D0FAD9
:102DB00080F9D1FACC24C0F8C0FA81F98093E904F3
:102DC0008091E8049091E9040E94490F90E080E02E
:102DD000FF90EF90DF90CF9008950E9476122FEF32
:102DE00084E39CE0215080409040E1F700C0000067
:102DF00088E19CE00FB6F894A895809360000FBE20
:102E000090936000FFCF882321F00E94F80A0E946F
:102E100010110895882339F090911D05982B9093F7
:102E20001D050E9410110895882321F00E94FF0AB9
:102E30000E9410110895882321F00E94060B0E9421
:102E400010110895882379F19CEF980F913A28F496
:102E50000E942D0B0E941011089590E2980F983057
:102E600050F4877091E001C0990F8A95EAF7892F95
:102E70000E94FF0AEFCF9BE5980F933028F490E073
:102E800080E00E949A05089598E5980F973128F4FC
:102E900090E080E00E9484050895803F20F00E9429
:102EA0006C070E9445070895FF920F931F93CF93DD
:102EB000DF93F82E0091D6041091D7040115110567
:102EC00009F449C01092D5041092D4041092D10490
:102ED0001092D204D8011696CD91DC919E013A95BC
:102EE00021153F4108F4D07ED1E0C11101C0D0E0EE
:102EF000D8011996ED91FC911A97309731F01B96F5
:102F00006D917C9180E00995D823DD2339F08CEF19
:102F10008C0F813A30F58C2F0E942D0BFF2099F0F9
:102F2000E091D604F091D704808584FD0CC0809197
:102F3000D304882341F0808191819C012150310983
:102F4000203B3D45A0F00E9410111092D704109232
:102F5000D6041092D304C801CDB7DEB7E5E00C94D7
:102F6000B0350E9410118C2F0E942217D7CF0E94DB
:102F7000BD05E9CFCF93DF93EC010E942217CE016C
:102F80000E942A0C9E01205E31092830310510F084
:102F9000CD2B29F40E941417DF91CF9108950E9440
:102FA0000317FACFCF93C82F8823C1F18CEF8C0F72
:102FB000813AB0F580911B01882301F18091E804EA
:102FC00087FF1CC0EC2FE695E695E695F0E0E85704
:102FD000FE4F828190E04C2F477021E030E002C02C
:102FE000220F331F4A95E2F782239323892B79F02E
:102FF0008C2F0E942D0B0E94101109C0EAE8F1E00D
:103000008191C817A9F381E0E039F807C9F76C2F5F
:1030100088E891E00E944F050E941011CF91089519
:1030200080E28C0F883048F4C77081E001C0880FBF
:10303000CA95EAF70E94060BEFCFEBE5EC0FE33001
:1030400040F4F0E0EC5DFE4F808190E00E949A0534
:10305000E5CFE8E5EC0FE73150F4F0E0EE0FFF1FAD
:10306000E95DFE4F808191810E948405D7CFC03FEA
:10307000A8F28C2F0E9487080E944507CFCF1F938C
:10308000CF93DF93182FC0911504D0911604893384
:1030900021F0C0911304D0911404812F0E94D21703
:1030A000209739F4812F0E942217DF91CF911F9131
:1030B00008958FE99FE00197F1F700C00000219784
:1030C000EFCFB0E0A0E0E7E6F8E10C948F35EC013B
:1030D0008AE0A82E2881222309F48FC02130C9F567
:1030E00099818A81913021F422960E943F1805C06F
:1030F000923029F422960E94D2172196EBCF93307A
:1031000021F422960E942217F8CF943011F02196D4
:10311000F4CF229630E020E0AE014F5F5F4F805346
:10312000990B8A30910550F02150310930F38FE925
:103130009FE00197F1F700C00000F6CFA29EB0011A
:10314000A39E700D11249C01260F371F8981EA016F
:10315000E3CFE22FF0E0E55BF94FB490822F869544
:103160008695869590E0FC01E55CF94FE490277028
:10317000F12C022E02C0F594E7940A94E2F731E0B4
:10318000E322FF24FC01E55DF94FC490D12C022E0F
:1031900002C0D594C7940A94E2F731E0C322DD243B
:1031A000FC01E55EF94F049110E002C0159507950A
:1031B0002A95E2F701701127E114F10419F081EE6C
:1031C0000E94D217C114D10419F086EE0E94D217C2
:1031D0008B2D0E943F18C114D10419F086EE0E9475
:1031E0002217E114F10419F081EE0E942217011553
:1031F000110509F482CF8CE278CFCDB7DEB7EAE0D3
:103200000C94AB35B0E0A0E0E8E0F9E10C948F3528
:103210007C015B01C42FD22FFC0182818823A9F09D
:103220004093DA040E9443059093D9048093D80414
:10323000C77081E001C0880FCA95EAF70E941B178A
:10324000CDB7DEB7EAE00C94AB351091DA04141375
:1032500038C08091D8049091D9040E9428056C014F
:10326000B701C5010E946B0FC816D90650F5C0E220
:10327000CD0F1D17C1F080E2810F883048F4177020
:1032800081E0012E01C0880F0A94EAF70E9414170A
:10329000C83048F481E09D2F977001C0880F9A953F
:1032A000EAF70E941B17802F0E943F18C83040F693
:1032B000D77081E001C0880FDA95EAF70E941417F1
:1032C000BFCFC77081E001C0880FCA95EAF7F6CF7B
:1032D000CF93DF93EC010E942A0C9E01205E3109FE
:1032E0002830310510F0209741F40E941B178C2FD5
:1032F0000E94D217DF91CF9108950E940A17F7CF4D
:10330000662329F020911D05226020931D059C0154
:103310003056211540E2340720F0305E211530414F
:1033200008F499270E9468190895B0E0A0E0EBE93D
:10333000F9E10C9492357C018B01D42E8091190116
:1033400082FF8CC0C0911B04D0911C04CE15DF05F8
:1033500021F0E114F10409F081C0809119018B7F03
:103360008093190181FD73C08091190490911A0412
:10337000A801481B590B81E02091170130911801D9
:103380004217530708F480E08170F82E80911901EC
:10339000F0FA81F980931901FE0183E0F695E79533
:1033A0008A95E1F7EE71FF27EB52FC4F20813181C6
:1033B000AE014F70552781E090E002C0880F991F41
:1033C0004A95E2F7FF2009F444C0822B932B9183A6
:1033D00080838091D40381FF08C0809119018061AE
:1033E0008093190182E00E94FF0A8091D40385FF37
:1033F00008C08091190180628093190180E20E94C7
:10340000FF0A6F2DCE010E948019DD2031F08091DE
:10341000100485FF02C086FF3BC080911304909189
:1034200014040E94140D80911B0490911C049C01B3
:103430003056211540E2340720F0305E211530412E
:1034400008F499270E94BA170E94C4111DC081E098
:103450009BCF8095909582239323B9CFC70199275D
:1034600097013056211540E2340728F0305E2115CF
:10347000304108F0C7010E94BA1780911B04909157
:103480001C048E159F0501F310931A040093190470
:10349000CDB7DEB7E7E00C94AE3568EE7EEF90E096
:1034A00080E00E94203660E082E090E00E940236D8
:1034B00060E083E090E00E9402361092360260E005
:1034C00084E090E00E94023664E082E290E00E9494
:1034D000023660E085E090E00E94023660E086E01F
:1034E00090E00E9402366FEF87E090E00E94023683
:1034F00040E050E0BA0188E090E00E94143660E0BD
:103500008DE090E00E94023640E050E0BA0188E190
:1035100090E00E94143660E087E190E00E9402365D
:1035200040E050E0BA018CE190E00E94143670E077
:1035300060E080E290E00E94203640E050E0BA0176
:1035400088E190E00E94143680E00E94300F0E94D3
:10355000641640E050E0BA018FE090E00E9414361B
:1035600040E050E0BA0183E190E00E9414360895F3
:10357000A7E0B0E0EEEBFAE10C9487357C01DC01CA
:1035800013964D915C91149711966C9111978C91B3
:103590000E942E068111EEC061E0C7010E944C0E10
:1035A0008C01F70182818823E1F08091DB04909106
:1035B000DC040097B1F00817190799F0FEE08F9F1F
:1035C000C0011124FC01E657FD4F208124602083B7
:1035D0008B579D4FDC010D931C930E949C11109200
:1035E0001D05F7018281882311F40C94A923C801D9
:1035F00082519F45409710F00C949B238FEF93E0EE
:103600000E94F4358111A6C07EEED72ED00E0BEEAF
:1036100012E0D11036C019821A821B821C829924B2
:103620009A9468012FEFC21AD20AC8010E94F43599
:1036300089831A82882309F48DC0813009F07FC004
:10364000580132E0A30EB11CC6010E94F435C82E09
:103650008A83882309F47EC0C5010E94F435D82EE0
:103660008FEF8C0D8330D8F4580143E0A40EB11CC9
:10367000DB82DD2021F0CE0101960E9461188501D8
:10368000D0CF0115F4E01F0709F464C0C8010E94FF
:10369000F435811101C0DA940F5F1F4FBACF8BEF61
:1036A0008C0D833030F5C8010396DB825C01DD2090
:1036B00031F3580154E0A50EB11C0E94F4358C83FF
:1036C0008823E9F28B819C818130AFEF9A0710F05B
:1036D000982F8827B6E0CB1631F0E7E0CE1631F010
:1036E0000E94F22ACCCF0E94CC2AC9CF0E94532A32
:1036F000C6CFF4E0CF12C3CF580124E0A20EB11C14
:10370000C80103960E94F435DD2021F1882311F1D0
:103710008150990B989E9001999E300D11244D2D4A
:103720004150550BCA01820F931F019708F4A7CF90
:10373000AFE9BFE01197F1F700C00000F6CFCE016E
:1037400001960E94611856019ACF81E00E944E12A4
:103750000E94041280911202877061F0D7011296C4
:103760008C91882339F08091E90482FF03C082E0C4
:103770000E941D122796E2E10C94A33581E00E947D
:103780001012E6CF82E0FBCF823011F00C94EB23D5
:1037900080917F0290918002892B11F40C94EB238D
:1037A0002EE02C9DC0012D9D900D1124FC01E657AB
:1037B000FD4F20812E7F20838B579D4F0E949C11AF
:1037C0000C94EB2381E080930001C4CF8091000131
:1037D000882309F4DBC6480120EE821A9108409044
:1037E00035028091AB01482A8091D403482A38E001
:1037F0008316910408F086C098012770332781E072
:1038000090E001C0880F2A95EAF7552009F477C0A7
:10381000482AD7018D919C910E94A90B21E030E0AC
:10382000F90102C0EE0FFF1F8A95E2F7FF83EE83D6
:103830002090D6043090D7046090A8017090A90120
:103840001D822D81E22FF0E0EE0FFF1FEA5BFC4F9F
:10385000C080D180C114D10409F4FCC6411005C058
:10386000D60112968C91811189C0F601838190E076
:103870002E813F8182239323892B09F47FC0808589
:10388000982F977009F487E038E08316910408F0C8
:1038900053C0552009F44CC086958170882309F4E3
:1038A0006DC0D601AD90BC900A151B0519F45520CA
:1038B00009F464C0C214D30409F460C0D6011D9693
:1038C000ED91FC91309721F08081882309F456C056
:1038D000642DC6010E940E06882309F44FC00A1504
:1038E0001B0509F09CC70115110509F49DC751106E
:1038F0009DC7A614B70409F041C0512C97C7809505
:10390000482287CF552009F48EC61093A901009351
:10391000A8010E9437056093CD047093CE04809374
:10392000CF049093D0041092D5041092D40471CF98
:1039300082FB882780F9B2CF552001F18170AECF8C
:103940000E94221791C70497813A910558F46A2D75
:1039500088E891E00E944F05552009F417C60E949F
:103960001011F8CE0E9410118FE39CE90197F1F736
:1039700000C000008A2D0E94D217EECF9D819F5F6C
:103980009D835FCFFC01208131810217130709F06D
:10399000F6C55110F6C51092D30480E00E9454176A
:1039A000F5C5902F812F3AC6F901858181FF66C642
:1039B000C9010E94821162C68091190181608093C1
:1039C00019018AC6809119018E7F809319010E9486
:1039D000C41182C6809119018F7E013E110531F01C
:1039E000053E1105C9F4809119018F7D809319015D
:1039F0008091190180FF7FC6D70112968C91083201
:103A0000110528F50E31110508F072C004301105BA
:103A100080F581116CC66FC6C8019056811540E2D1
:103A2000940720F0905E8115904110F78091190164
:103A300082FF61C68091120481FD5DC62FE432E0F1
:103A400040E0B60190E080E00E94951954C6093329
:103A5000110558F40D32110518F40B321105C9F691
:103A60009091100492FDD5CF08C004361105C1F322
:103A7000D0CF9091100494FDCCCF882309F4A8C036
:103A8000809135029091D403892B8D7FB1F11092F2
:103A90001C0410921B048091100481FD2EC0F801BB
:103AA00043E0F695E7954A95E1F7EE71FF27EB5273
:103AB000FC4F98012F70332781E090E002C0880FFF
:103AC000991F2A95E2F78095909520813181822374
:103AD00093239183808360E0C8010E9480198091C4
:103AE00035028D7F0E94E40A82E00E941D1232CED0
:103AF0009091100493FD8DCFC0CF88E0F701AFE423
:103B0000B2E001900D928A95E1F710925102109265
:103B100053021092520280911B0490911C040817CA
:103B20001907D1F52091100425FF36C030911901F5
:103B300031FF02C026FF30C02091190430911A04D1
:103B40005601A21AB30AB7010E946B0FA816B90654
:103B500018F58091D40381FF08C08091190180611C
:103B60008093190182E00E94FF0A8091D40385FFAF
:103B700008C08091190180628093190180E20E943F
:103B8000FF0A609119016695617080911B04909104
:103B90001C040E948019DECD809135029091D403DF
:103BA000982B2091190191FB21F9209319018D7F08
:103BB0000E94E40A10931C0400931B04D0921A0480
:103BC000C0921904809119018460809319018CCFEF
:103BD000970140E0B601C8010E949519BBCD053F91
:103BE0004CE5140709F463C008F45BC0063F8CE59C
:103BF000180709F462C0D70112963C91332309F4E7
:103C000067C61092DA040330BDE51B0708F061C0F7
:103C10000A3FECE51E0730F4C80182509C454497EA
:103C200008F062C00E94730E9093E9048093E80448
:103C300002315CE5150709F47FC108F0CFC00930F7
:103C40009CE5190709F456C108F099C00530BCE598
:103C50001B0709F443C108F080C00330FCE51F07CF
:103C600009F434C108F036C18091E8048160023063
:103C70003CE5130709F4AFC08091E8049091E90492
:103C80000E94490F0E94761265CD07E225EE45EEAF
:103C900068ED7CE54BC506E221EE40EE63EF7CE586
:103CA00045C507E225EE44EE64EF7CE53FC506E23C
:103CB00021EE42EE65EF7CE539C507E225EE46EEE2
:103CC00066EF7CE533C508E221E045EE69ED7CE571
:103CD0002DC5053AFDE51F0709F4A4CFC0F501364F
:103CE0004DE5140709F49ECF06315CE5150709F090
:103CF00057C18091D403982F9A7A20910F0420FF06
:103D000004C0482F447409F090E021FF04C0482FFC
:103D1000417109F090E022FF04C0482F487809F073
:103D200090E023FF03C0827209F090E0332309F48E
:103D30002DC181E0911101C080E08093AA0169E268
:103D4000911165E388E891E00E944F0508CEC80113
:103D50008D5A9D45039740F665CF8091E8048062B7
:103D600007304CE51407B9F18091E8048061083010
:103D70005CE5150780F18091E80480642CC00D306B
:103D80008CE5180709F4C0C090F48091E8048E7F98
:103D90000B30ACE51A07F9F08091E8048C600C3028
:103DA000BCE51B07C0F08091E8048D7F14C00F3084
:103DB000ECE51E0709F4B8C008F4AAC000312CE5F0
:103DC000120709F4B5C08091E8048F7B01313CE50E
:103DD000130709F051CF8093E8044ECF0F3F4CE515
:103DE000140709F4B3C0A8F50A3F8CE5180709F4D5
:103DF00079C0C0F40431ACE51A0709F4B5C008F481
:103E0000A1C00531ECE51E0709F036CF8091E8042A
:103E100082FB992790F921E0922790FB82F990FB91
:103E200083F9D9CF0C3FFCE51F0709F475C008F4EE
:103E30005DC00D3F3CE5130709F472C08091E904B1
:103E400083600E3F4CE5140709F016CF8093E90418
:103E500013CF01365DE5150709F491C090F40130E8
:103E60009DE5190709F489C008F474C060E00230C8
:103E7000BDE51B0709F000CF8EE090E00E940236FE
:103E8000FBCE0D3AEDE51E07E9F060F49091E804F1
:103E9000892F8E7F90FF8160053A2DE5120709F486
:103EA0009ACFEACE0E3A3DE5130751F10F3A4DE5B0
:103EB000140709F0E1CE9091E904892F877F93FFE1
:103EC0008860C4CF8091E9048860C0CF8091E80405
:103ED000826081CF8091E80484607DCF8091E80486
:103EE000886079CF8091E9048160B0CF8091E90446
:103EF0008260ACCF0E9476128091E80480686BCF1C
:103F00008091E904877FA2CF8091E8048B7F63CF03
:103F10008091E804877F5FCF8091E9048E7F96CF00
:103F20008091E9048D7F92CF8091E8048F7E53CFFA
:103F30008091E8048F7D4FCF0E9476128091E80433
:103F40008F7749CF8091E804837F45CF8091E90442
:103F50008C7F7CCF8091E904982F909591708E7F13
:103F6000892B90FB81F972CF0E9476129091E80420
:103F7000892F97FB87F980582ECF61E07DCF9091F4
:103F8000E804892F8F7E94FF806125CF8091AA015C
:103F9000811104C089E20E942D0BE1CC85E3FBCFA7
:103FA0000A355DE5150709F46BC008F044C001153A
:103FB0009CE5190709F44AC00E3D1C4509F453C09D
:103FC000F70186819781009709F45EC00E944B0932
:103FD000182F092FF701D280C580C2943FE0C32279
:103FE000809112028770C1F0AD2CDD20B1F0892FD5
:103FF000807F803421F080E2810F883068F08091EA
:10400000E90482FF09C082E00E941D128091120221
:104010008770AA24A3948111A12C902E92942FE052
:104020009222FBE0F91508F4BCC0E92DF0E0E65B54
:10403000F94C0C947A350C35BDE51B07B9F010F13D
:10404000073A1D4509F0BCCF0E94ED160E9476127A
:104050002FEF34E34CE0215030404040E1F700C006
:1040600000000E94F00C0E944D1AEECF8091E904EE
:1040700082FB882780F991E089270E943912A0CF1E
:1040800081E0FBCF80E0F9CF82810081118188231C
:1040900069F0C8010E94D00DD82E682FC8010E9477
:1040A000F30BB8018D2D0E94A60D90CFC8010E9480
:1040B000A90BD82EF6CF202F2F70B22E802F807F05
:1040C00019F0B29490EFB922DD20A9F0BB2059F08D
:1040D00080E2810F883010F0111107C08B2D0E94F3
:1040E000060B0E941011812F5AC080911D05B82A1D
:1040F000B0921D05F6CF812F0E942217BB2009F434
:1041000050C080E2810F883010F0111104C08B2D57
:104110000E94FF0A03C08B2D0E94F80A0E94101112
:1041200040C0302F3F70B32E802F807F803219F037
:10413000B29480EFB822112321F1113009F4AEC0FE
:10414000DD2009F4B7C0CC2009F47FC020E0D701FE
:104150004C9111965C91119712966C91129713964F
:104160007C91139714968C910E94290E80911204D1
:1041700081FDB9CFF701858180FFB5CF8F70858331
:1041800064C08091E90482FD40C0DD20C1F1BB2004
:1041900029F08B2D0E94060B0E94101180E00E94D6
:1041A000D217A92DA850BB0B149710F40E94B0058C
:1041B000812F902F0E940F0C8111C2C11092AD016E
:1041C0001092AC01AA20B1F08091120280FD12C0C1
:1041D000D70112961C928595859585950E944E1261
:1041E000C7010E94B81A8091120285958595859520
:1041F0000E94101260E0C7010E944C0EBBCA80E012
:104200000E942217BB2069F282CFDD2011F1C1107C
:1042100004C0809135028B2919C041E0C41206C048
:10422000809135028B290E94E40ABBCF8091110452
:10423000823078F3C812EDCF0E94D90A9091AB0179
:104240008B2D892B89138093AB018B2D0E941B171B
:10425000A8CFC11003C00E94D90A17C080911104D1
:1042600051E0C51216C0823008F49BCF8091D40370
:104270008B2109F496CF0E94D90A9091AB018B2D26
:104280008095892389138093AB018B2D0E9414178D
:1042900088CF823000F38C11DECF83CF809117045A
:1042A000DD2021F08C1508F47CCFCFCFC81608F0A4
:1042B00078CFEBCFCC2049F3809115049091160470
:1042C000193321F080911304909114040E94140D6D
:1042D000812F0E94221765CF802F86958695837047
:1042E00069F0813009F05DCF812F902F9370D1104C
:1042F00002C090E080E00E94840553CF812F902F70
:104300009370D11002C090E080E00E949A0549CFDE
:10431000812FDD2029F00E9487080E94450741CFA8
:104320000E946C07FACF802F837091F5D11039CF9E
:10433000412F429546954770440F440F812F8F704F
:10434000042E01C0880F0A94EAF7212F207114FF70
:1043500007C02FE030E001C0220F4A95EAF7209510
:10436000302F369536953370323069F050F44091E5
:104370003602313029F0822B84230E94711211CF32
:10438000842B822BFACF282B809136028227F5CFFF
:104390008695DD2011F0802F8170882309F401CFEC
:1043A000412F429546954770440F440F812F8F70DF
:1043B000042E01C0880F0A94EAF7212F207114FF00
:1043C00007C02FE030E001C0220F4A95EAF72095A0
:1043D000302F369536953370323069F050F4409175
:1043E0001C05313029F0822B84230E94FF11D9CE85
:1043F000842B822BFACF282B80911C058227F5CFA6
:10440000F02FFF70BF2EDD2029F08F2F0E944E125B
:10441000812F1CCF812F0E9414178B2D0E94101208
:10442000C0CE123F89F160F4103FB9F0113F81F026
:10443000DD2009F480C0C11056CE802F8F7128C0B6
:10444000133F49F1143FA1F78091E90482FD2FC089
:10445000802F8F71DD2011F31BC080911704DD20A8
:1044600079F0C81608F09DCE202F2F7181E090E0E2
:1044700001C0880F2A95EAF790911C058927B5CFCE
:104480008C1508F48ECEF0CF802F8F71D110C6CF4F
:104490000E944E1286CE80E0DD2009F4A6CF81E096
:1044A000902F9F7101C0880F9A95EAF79ECF809157
:1044B0001104823040F1DD20D1F09091120297700A
:1044C000943041F40E940C0B802F8F710E941012C7
:1044D000A12C67CEC816E0F7202F2F71B22E822FA5
:1044E0000E944E1263E08B2D0E945A12F1CFC81623
:1044F00030F00E940C0B64E0802F8F71F5CF81E0CB
:104500000E941D12E5CFDD2059F0302F3F71B32EF0
:10451000832F0E944E1263E08B2D0E945A1241CECF
:1045200081E00E941D1241E04C1508F03ACE82E075
:104530000E941D1236CEC110BFCE802F8F716ECF5C
:10454000DD2019F0C1103ACE3DCEC11037CE20E0AB
:10455000F701408151816281738184810E94290E1B
:104560008091120483FF2ACE8091AC019091AD011D
:10457000029709F023CE812F0E943F181FCE5520AD
:1045800029F0DC0118968C9185FF07CAC801975560
:104590008F3F910511F008F071C05801BB24BEE0B7
:1045A0000B9FF00111249F012B573D4F6901D7014B
:1045B00012968C91E657FD4F908180FB90F9908385
:1045C000882309F4F1C90E94430590934E02809319
:1045D0004D02F60182818F5F828380911D0590914B
:1045E000D403892B83838091350284830680F781ED
:1045F000E02D309731F0D6011C966D917C91C6016B
:1046000009958EE08A9DF0018B9DF00D1124EB57EA
:10461000FD4F858181FFC5C990E080E09093DB0468
:104620008093DC042BC08091A8019091A901081708
:10463000190781F41092A9011092A8011092CD04DB
:104640001092CE041092CF041092D0041092D50490
:104650001092D4048091D6049091D704009709F465
:1046600095CFA8E08A16910408F08CC9642D0E94A9
:104670000E06811103C081E00E945417809110043E
:1046800080FF39C00E9443056C01D70112968C91BE
:10469000882309F49FC98091190182FF08C02FE483
:1046A00032E040E0B60190E080E00E9495190B31C5
:1046B000BCE51B0709F480C90C31ECE51E0709F4C1
:1046C00081C990911901892F8E7F90FF81600A31F5
:1046D000FCE51F0709F479C9C8019056811520E24D
:1046E000920728F0905E8115904108F081C91092E0
:1046F0001C0410921B04033FBCE51B0709F4CBCA42
:1047000008F06DCA083DFCE51F0709F4BECA093D63
:104710002CE5120709F4D7CA073D3CE5130709F059
:104720006ACA06E221EE41EE67ED7CE5C7010E9410
:1047300002190C94AA1B0031FFE51F0711F40C9419
:10474000A51B01312FE5120709F045C082E00C944A
:10475000A61B00313FE5130711F40C94BE1B013179
:104760004FE5140711F40C94C21B6801E7E5DE1A4B
:10477000FFEFCF16D10409F070F56BE772E08C2DD6
:104780000E94570F892B39F58EE08C9DF0018D9D8D
:10479000F00D1124EB57FD4F8281813011F00C9404
:1047A000C41B80917B0290917C02892BA1F08091A7
:1047B0007D0290917E02892B71F080917F02909111
:1047C00080022091810230918202822B932B892BCF
:1047D00011F40C94D01BD70112965C90552011F463
:1047E0000C94E61B0F35BDE51B0711F40C94E21B7E
:1047F0000036EDE51E0761F00E35FDE51F0711F0EF
:104800000C94E61B80910001882311F40C94E21BA8
:104810001092000180E00E9454170C94AA1BA1146E
:10482000B10409F066C8512CB12CA12C80E00E9483
:104830005417D092D704C092D60481E08093D30459
:10484000F60185818093D10451100EC0AB2861F030
:10485000F601808191819C0124503109213A310572
:1048600008F06EC80E942D0BD6011696AD90BC9034
:10487000C5019A9581159F4110F4E0EEBE22772480
:104880007394C5010197803B9D4508F0712CD601BA
:104890001996ED91FC911A97309731F01B966D9116
:1048A0007C9181E009957822772079F0F601868164
:1048B00097810E942A0C8093D204C501F8E08F16DC
:1048C000910408F040C80E94BD050E94101144C820
:1048D00006318CE5180709F073CB0BCAB0E0A0E0F5
:1048E000E4E7F4E20C9491358091CB01807F31F4C0
:1048F0008091C801C0910F02811107C0CDB7DEB70A
:10490000E8E00C94AD352196C7708091CE018C17EC
:10491000A9F3F090C601E090C701C090C901D09002
:10492000CA01A6016E2D8F2D0E942E06D0E08111A6
:10493000EACF8E0183E0000F111F8A95E1F7F8019D
:10494000E153FE4F81818E11DECF80818F11DBCF4D
:1049500082818111D8CFE380F480EC18FD0860E0FB
:1049600086EC91E00E944C0E66EC71E00E946B0FA9
:10497000E816F90640F68091CB018F708061809334
:10498000CB01F801EC52FE4F80818F7080618083F3
:1049900086EC91E00E94B81A0E94780BAFCFA5E197
:1049A000B0E0E5EDF4E20C948A358C0185E0F80185
:1049B000DE01519601900D928A95E1F7D8015C9045
:1049C00011966C9011971296EC9012971396CD90C9
:1049D000DC9060E086EC91E00E944C0E86ECA82E04
:1049E00081E0B82E8090C9019090CA01A401609125
:1049F000C7018091C6010E942E068111A8C1F090C6
:104A0000C801F601E819F9094F0160E0FF2009F437
:104A10004BC1C5010E944C0EB5010E946B0F7090F6
:104A2000CB018816990608F0F2C04091C901509157
:104A3000CA01B090C601A090C701872D807F6A2D62
:104A400009F08CC08B2D0E942E06FE2C811127C0F0
:104A5000D80111968C9111978A1121C08C918B11DC
:104A60001EC02091CC013091CD0116968D919C9164
:104A700028173907A1F4E11012C0872D8F708061CB
:104A80008093CB0186EC91E00E94B81A8091CB0113
:104A9000F80185838F2D6596EFE00C94A635A6016D
:104AA000662D852D0E942E06D82E81E08E25D110F0
:104AB00080E080FF18C04E2D662D852D0E94580B7A
:104AC000882389F08091120480FF0DC086EC91E06C
:104AD0000E94B81A88E0E6ECF1E0DF011D928A95A9
:104AE000E9F7F12CD7CF81E08E25D11080E0B82FE7
:104AF000B170CB2E80FF29C04E2D662D852D0E94D2
:104B0000580BD82E811121C0598A6A8A89899A89BD
:104B10000E94FF0D292F22952F70223050F0243053
:104B200078F49F7051F0F8019581907F31F4FD2C5D
:104B3000B1CF9F7011F08823D1F3805E8830B8F335
:104B4000C8010E94B81ADC2CF2CFEE2009F4A2CFE3
:104B50008091CB0181608093CB01C3CF8B2D0E94CC
:104B60002E06811124C0D80111968C9111978A11BB
:104B70001EC08C918B111BC02091CC013091CD01B6
:104B800016968D919C9117972817390781F4E1109B
:104B90000EC015967C92C8010E94B81A88E0F801F0
:104BA000A6ECB1E001900D928A95E1F773CFC801B0
:104BB0000E940C0E882339F1EE2029F18091CB015F
:104BC0008032A0F02091C6013091C7013A87298731
:104BD0001B86DD86CC868E878091CC019091CD019D
:104BE000988B8F87CE0109960E94B81A88E0F80149
:104BF000A6ECB1E001900D928A95E1F70E946E2437
:104C0000FF24F39447CFC8010E94B81AF9CF872D2B
:104C1000807F09F45BCF9090C6018090C7014091DE
:104C2000C9015091CA01682D892D0E942E0681115B
:104C30001CC0F8018181881118C08081891115C0BC
:104C40002091CC013091CD018681978128173907B9
:104C500061F4E1100AC07582C8010E94B81A88E0A8
:104C6000D5011D928A95E9F715CFC8010E940C0E57
:104C7000882349F2EE2039F28091CB01803208F48A
:104C8000B5CF2091C6013091C7013A8329831B8299
:104C9000DD82CC828E838091CC019091CD0198876A
:104CA0008F83CE010196A0CF86EC91E00E944C0E3E
:104CB00066EC71E00E946B0F8816990680F6FE2C58
:104CC000EE2009F4A0CFE090C601D090C70140913A
:104CD000C9015091CA016D2D8E2D0E942E068111A1
:104CE00028C0F80181818D1124C080818E1121C0DE
:104CF0002091CC013091CD01868197812817390709
:104D0000C1F48091120482FD49CF9091CB0190FDB6
:104D100045CF907F09F442CF8091CB018583903FAE
:104D200009F439CF982F907F905F8F70892B8583FE
:104D300032CFC8010E940C0E811158CF8091CB0157
:104D400081608093CB01C8010E94B81AA3CEEE20E7
:104D500009F459CFC8010E940C0EF82E882309F4DB
:104D600052CF88E0F801A6ECB1E001900D928A954F
:104D7000E1F78091C6019091C7010E94FF0D0E944A
:104D80006E2488CEA0E1B0E0E8ECF6E20C94973512
:104D900029873A874B875C876D877E878F87988BBB
:104DA000CE0109960E94CF2481112FC088E0FE0118
:104DB0003996DE01119601900D928A95E1F74C85A6
:104DC0005D856A8589850E942E0681111EC0A0918D
:104DD000CE01B0E0CD0101968770992720910F0296
:104DE00028171906E1F093E0AA0FBB1F9A95E1F787
:104DF000A153BE4F98E0FE01319601900D929A9515
:104E0000E1F78093CE010E94780B80910F02909180
:104E1000CE01891312C06096E2E00C94B3350E9473
:104E200076121092CE0110920F0288E0E6ECF1E0CB
:104E3000DF011D928A95E9F7E8CFB8E08B9FC001AA
:104E4000112481539E4F0E94CF24882321F3809107
:104E50000F0290E001968770992780930F02D5CFBB
:104E6000EF92FF920F931F93CF93DF9380912004D3
:104E7000882361F0C0911F048CE0F82E80912004FB
:104E8000C81748F01092200410921F04CDB7DEB767
:104E9000E6E00C94AF35EE24E394EC0EE0921F04B0
:104EA0000C2F10E0CF9DE0011124CF5DDB4F4B8133
:104EB0005C81698188810E942E0681111DC08E81CE
:104EC0009F81892B21F488859985019651F4288149
:104ED00039814A815B816C817D818E819F810E94B5
:104EE000C226F09EF001F19EF00D1124EF5DFB4F04
:104EF0001482138210921D05CE2DC0CF1092C404CF
:104F00001092C30410921A018091C2048093C104CC
:104F10000E9467060E9430270895B0E0A0E0E3E910
:104F2000F7E20C948835C091C10497E0892E01E026
:104F300010E02CE0322E3EEF932E442443948091D7
:104F4000C2048C1309C00E9430270E946706CDB7A7
:104F5000DEB7E1E10C94A435D0E0FE01EE0FFF1FB7
:104F6000E754FB4F80819181889ED001899EB00DCE
:104F70001124AF57BB4F14962C911497211158C090
:104F800050902004E1E2F4E030E020E0712C5D017B
:104F9000251508F04BC0E284F384D501CD90DC9058
:104FA0006FEF7FEF612C462D50E0DA01AA0FBB1F97
:104FB000AC0DBD1D0D90BC91A02D109731F0EA16DF
:104FC000FB0609F4BA016394EECF6F3F7607A9F1AF
:104FD000D80102C0AA0FBB1F6A95E2F77A2AB8016E
:104FE000062C02C0660F771F0A94E2F7AB0141500E
:104FF000510974161506F9F4329EF001339EF00D36
:105000001124EF5DFB4F889ED001899EB00D1124C5
:10501000AF57BB4F12962D913C9113973783268340
:10502000908291829187808715964C920E943906D2
:105030002196C37084CF148213822F5F3F4F3C961A
:10504000A7CFA9E1B0E0E7E2F8E20C948735942F0E
:10505000498B252F5A8B6B8B7C8B8D8B4C895D8973
:10506000622F892F0E942E06811109C08091AC0108
:105070009091AD0101969093AD018093AC018B8925
:10508000811110921D051D861E861F86188A85E0D7
:10509000FE017196DE01199601900D928A95E1F755
:1050A0008091E90482FF1EC08091F7039091F8037C
:1050B000892BC1F00E94430520911002309111020A
:1050C000821B930B2091F7033091F803821793070B
:1050D00020F08091120282FFE2C10E94130B811125
:1050E0000E94D90A4C855D856A8589850E942E06B5
:1050F000811111C061E0CE0109960E944C0E6C0135
:105100008B8527EFC2162CE5D20681F4882321F186
:1051100081E080931A0129853A854B855C856D85F0
:105120007E858F8598890E94C226C6C038EFC31637
:105130003CE5D30629F4882379F00E947E27EBCF43
:1051400049EFC4164CE5D40639F4882329F0809140
:105150001A018111F2CFDCCF01E814E0512CB12CFF
:10516000A12C22242394312C2EEF422EF8014081D1
:10517000518188248A94982C20E0822F90E0FC01B1
:10518000EE0FFF1FE40FF51F60817181611571053E
:1051900031F0C616D70609F44C012F5FEECFF12C83
:1051A000FFEF8F169F0609F449C0F8014481F09083
:1051B0001A018F2D411180E0F82FF170FF2EF801B8
:1051C000E58086819B85992309F4F8C0FF2009F4C6
:1051D000F5C060900B0470900C04E11013C0A101A5
:1051E000082C01C0440F0A94EAF7842B868380912F
:1051F0001D0490911E048615970520F470921E04DC
:1052000060921D04C10102C0880F991F2A95E2F720
:105210000197F80126812817190681F48091C304AB
:105220009091C404009709F44BC00E9428056816A9
:10523000790608F045C021E0F80124835F28FFEFDC
:10524000AF1ABF0A095F1F4F28E0A216B10409F088
:105250008DCF8B85882309F40DC1552009F40AC12F
:105260000E9443059093C4048093C304809120045A
:10527000883010F591E0980F9093200498E0FE019B
:105280003996DE01119601900D929A95E1F73CE076
:10529000839FC00111248F5D9B4F28E0FE01319652
:1052A000DC0101900D922A95E1F72FEF3FEFFC0111
:1052B00031872087D386C2866996E2E10C94A335B4
:1052C0008091C1045091C204982FF0E0E0E0851372
:1052D00014C09093C104E017F10709F4AFCF90E038
:1052E000FC01EE0FFF1FE754FB4FB182A082019635
:1052F000837099278093C204A1CF682E712CF3018B
:10530000EE0FFF1FE754FB4F2081318147E0429FA2
:10531000D001439FB00D1124AF57BB4F6D917C91CD
:105320001197798F688F40E020E030E0E32FF0E0C4
:10533000EE0FFF1F688D798DE60FF71F808091803B
:1053400081149104E1F0F8010190F081E02DFF8BD0
:10535000EE8B20E005C08616970609F44F2D2F5FCF
:10536000E22FF0E0EE0FFF1F6E897F89E60FF71F37
:10537000608171816115710571F73F5FD7CF44235B
:10538000D1F0F801231708F0FD0121E024830E1766
:105390001F0721F49093C104F42E50CF981305C039
:1053A000AE17BF0711F49F5F937093012F5F3F4FBC
:1053B000822F83708CCFF0E0E0E0F7CF90E0E11037
:1053C00020C0B10102C0660F771F2A95E2F79B014A
:1053D000215031098217930731F4442309F448C05E
:1053E000C5010E943906C101082C01C0880F0A942A
:1053F000EAF7982F9095F801868189238683FE2C01
:105400001DCF9C01082C02C0359527950A94E2F720
:10541000A90141705527BC0161507109862397236A
:10542000892B11F5452B01F1F80182819381892B9C
:10543000C1F01B821C821D821E8249824A820E9408
:1054400043058160582F9D838C83F801828193816D
:105450008F83988729813A814B816D817E810E945B
:10546000C226F8011582BFCFF22FF170EF2EBBCF0D
:10547000EF2CB9CF9091C1048091C204981731F0FC
:105480000E948D27552009F446CE16CF0E94302762
:105490001092C4041092C3040E946706F3CF82E006
:1054A0000E941D121ACEA5E0B0E0E9E5FAE20C94E4
:1054B00097359093D1038093D003811520E2920712
:1054C00030F40E94BA172596E2E00C94B33580EFD1
:1054D00089838A831B820E9443058160782F9D8384
:1054E0008C8349815A816B818D810E942128EBCF69
:1054F0000F931F93CF93DF938C01EB016BE772E067
:105500008C2F0E94570F892BA1F480911304909146
:1055100014040E94140DDD27CD58DD4F8881F80159
:10552000128218828330F1F048F4813059F08230D1
:1055300081F0DF91CF911F910F9108958430B9F0E0
:105540008530B9F780917B0290917C02009789F3B6
:1055500006C080917D0290917E02009799F30E948F
:10556000532AE7CF80917F0290918002F6CF8091FD
:10557000810290918202009791F720917B023091F5
:105580007C0280917D0290917E0221153105F1F21D
:10559000009729F7C901E3CFA5E0B0E0E2EDFAE218
:1055A0000C9497359093D1038093D003811520E21A
:1055B000920730F40E9468192596E2E00C94B33506
:1055C00080EF89838A8381E08B830E944305816019
:1055D000782F9D838C8349815A816B818D810E94B4
:1055E0002128EACFCF93DF93EC010E94CC2A80914F
:1055F0001304909114040E94140DCE010E94532AAA
:10560000DF91CF9108950F931F93CF93DF938C0178
:10561000862F6BE772E00E94570F892BB1F4C0917F
:105620007B02D0917C02209781F0F8018281833047
:1056300051F4CE010E94F22ACE010E94F22ACE013C
:105640000E94F22A02C08430D0F7DF91CF911F91DF
:105650000F9108950F931F93CF93DF938C01EB016C
:105660006BE772E08C2F0E94570F892B09F05CC00A
:10567000FE01FF27D80112968C911297ED58FD4F2D
:105680008130B9F415969C9192FF02C080830AC0C4
:1056900090FFFCCF82E0808380917D0290917E021A
:1056A0000097B9F480917B0290917C020097E1F120
:1056B00010C08230B9F515968C9182FD28C080FD0E
:1056C0000BC083E0808380917F02909180020097DD
:1056D00001F10E94CC2A28C084E08083809181025D
:1056E000909182020097A9F780917B0290917C02B1
:1056F0000097F9F00E94F22A80917D0290917E023B
:10570000009739F780917B0290917C02E2CF85E08F
:10571000808380917B0290917C02009729F00E9407
:10572000F22AF0CF86E08083DF91CF911F910F9115
:10573000089580917D0290917E02B8CF1F920F92C2
:105740000FB60F9211242F933F934F935F936F9354
:105750007F938F939F93AF93BF93CF93DF93EF93F9
:10576000FF93D091E900DF708091EC00C82FC170E9
:1057700080FDC0E81092E9008091F000877F80935F
:10578000F00078940E948C121092E9008091F00051
:1057900088608093F000CD2BCF70C093E900FF911B
:1057A000EF91DF91CF91BF91AF919F918F917F91B9
:1057B0006F915F914F913F912F910F900FBE0F907E
:1057C0001F9018951F920F920FB60F9211242F93CE
:1057D0003F934F935F936F937F938F939F93AF9379
:1057E000BF93EF93FF938091E10082FF09C0809106
:1057F000E20082FF05C08091E1008B7F8093E10091
:105800008091DA0080FF24C08091D80080FF20C002
:105810008091DA008E7F8093DA008091D90080FF3A
:105820009DC080E189BD82E189BD09B400FEFDCF44
:1058300081E0809312058091ED04811109C00E94DE
:10584000A0030E946B048091E20084608093E200D8
:105850008091E10080FF17C08091E20080FF13C0BB
:105860008091E2008E7F8093E2008091E20080616F
:105870008093E2008091D80080628093D80019BCA8
:1058800085E0809312058091E10084FF2BC0809118
:10589000E20084FF27C080E189BD82E189BD89B52E
:1058A000982F917080FFFBCF8091D8008F7D8093DF
:1058B000D8008091E1008F7E8093E1008091E2002A
:1058C0008F7E8093E2008091E20081608093E2000D
:1058D00080911305882309F447C084E08093120562
:1058E000809112058091E10083FF27C08091E20042
:1058F00083FF23C08091E100877F8093E10082E0F5
:1059000080931205109213058091E1008E7F8093A1
:10591000E1008091E2008E7F8093E2008091E200BE
:1059200080618093E20042E060E080E00E94390400
:105930008091F00088608093F000FF91EF91BF911B
:10594000AF919F918F917F916F915F914F913F9117
:105950002F910F900FBE0F901F90189519BC1092A9
:1059600012051092ED0474CF8091E30087FD93E05F
:1059700090931205B5CF78941F921FB61F921124F1
:105980008F939F93AF93BF938091E4049091E5042C
:10599000A091E604B091E7040196A11DB11D80938A
:1059A000E4049093E504A093E604B093E704BF9168
:1059B000AF919F918F911F901FBE1F9018951F92BE
:1059C0001FB61F9211248F939F93AF93BF93809123
:1059D000E304811113C08091E4049091E504A09147
:1059E000E604B091E7044196A11DB11D8093E40443
:1059F0009093E504A093E604B093E704BF91AF91C0
:105A00009F918F911F901FBE1F901895CDB7DEB745
:105A1000C055D1090FB6F894DEBF0FBECDBF85B714
:105A2000806885BF85B7806885BF84B7877F84BF5E
:105A30000FB6F894A895809160008861809360000B
:105A4000109260000FBE80E890E00FB6F89480934B
:105A50006100909361000FBE8FEE98E090938701F4
:105A6000809386010E9420070E9415100E94890FD2
:105A70000E941E0D0E94A0030E946B048091E20010
:105A800084608093E2007894809112058823A1F0CD
:105A90001091E9001F709091EC00892F817090FDAA
:105AA00080E8182B1092E9008091E80083FD0E94A5
:105AB0008C121F701093E90082E084BD93E095BDC5
:105AC0009AEF97BD80936E000E945A0E811102C01A
:105AD0000E94641684EF0E94F10880EF0E94F10892
