:100000000C9496030C94CE030C94CE030C94CE0364
:100010000C94CE030C94CE030C94CE030C94CE031C
:100020000C94CE030C94CE030C94662B0C94222BD0
:100030000C94632C0C94CE030C94CE030C94CE033E
:100040000C94CE030C94CE030C94CE030C94CE03EC
:100050000C94CE030C943F2C0C94CE030C94CE0342
:100060000C94CE030C94CE030C94CE030C94CE03CC
:100070000C94CE030C94CE030C94CE030C94CE03BC
:100080000C94CE030C94CE030C94CE030C94CE03AC
:100090000C94CE030C94CE030C94CE030C94CE039C
:1000A0000C94CE030C94CE030C94CE0305010902EC
:1000B000A10185020901A100050919012905150001
:1000C00025019505750181029501750381010501E1
:1000D000093009311581257F950275088106093897
:1000E0001581257F950175088106050C0A380215D2
:1000F00081257F950175088106C0C005010980A191
:1001000001850319012AB700150126B7009501756D
:10011000108100C0050C0901A101850419012AA064
:1001200002150126A002950175108100C005010984
:1001300006A1018506050719E029E71500250195A7
:1001400008750181020507190029EF1500250195A1
:10015000F0750181020508190129059505750191C0
:1001600002950175039101C00660FF0961A10109B3
:1001700062150026FF0095207508810209631500AD
:1001800026FF00952075089102C005010906A1010E
:10019000050719E029E71500250195087501810279
:1001A0009501750881010507190029FF150026FF33
:1001B0000095067508810005081901290595057542
:1001C000019102950175039101C0FD377A585A00DB
:1001D0000004E6D6B4460200210116000000742F88
:1001E000E5A3E0037701365D003D888986D3DC0A0C
:1001F000E842C324925842588FD8E75CA0D2616E7F
:1002000026E888019A676C7887BC8D3709EA0E1456
:1002100059A53C798586633FDCC445A3F020FF20C7
:10022000B3687235CC77FE57F71DCDC486FDE5E87F
:10023000F629B306CB2F776E71ABDCD022B17C668A
:10024000C5D27380C2B35B0923D69073362735C7F6
:10025000BCFD903B3FC66B8C0F57FE628B8AEA90C9
:10026000817A2D39AB60AB5E17C4F8165911606204
:10027000E21FA99A3579FF3309BD8DDFEFD0D30591
:1002800065D54F2B79A0123B4801CDF47C61977B5B
:10029000902C6739183A1E3EDD4E79B1A3A3483F32
:1002A0005DA920976ED31A67A62BA0D85904B3A1D5
:1002B00062897F37D4820A2BAAFB961C8BC40AD290
:1002C0004FCDAF70CDA225A4C12A8EA60E048B0AF5
:1002D000B2B4552C7C22B7C90AE8FC1AA1DA8D3BCE
:1002E000EF53FF2CDBB0F88E8B0A6F271DF47D9E39
:1002F000946644334446EFA88B4E4E3DC1CEB0E7E2
:100300009EE8B7ECD81504E7776E3DCC123DCB3CA8
:10031000BCFAE5A63B583E02E2B1550932A2000004
:100320000000833D1CDA38D12D2A0001D202F806E4
:10033000000063783CA1B1C467FB02000000000428
:10034000595A290014001A000800150017001C0053
:1003500018000C00120013002A002B0004001600E5
:10036000070009000A000B000D000E000F0033000B
:100370002800E1001D001B00060019000500110007
:100380001000360037003800E100E000E200E30032
:10039000025100002C0000002C000151E700E60093
:1003A000E4003500AC00AE00AB000100010001002C
:1003B000010052002F00300001000100AA00A90036
:1003C000A800010001000100500051004F00010091
:1003D00034000100010001000100010001000100E2
:1003E00001002D002E003800010001000100010075
:1003F00001000000010000000100010001000100F7
:10040000010001001E001F00200021002200230027
:100410002400250026002700010001000100010042
:1004200001000100010001000100010001000100C4
:1004300001000100010001000100010001000100B4
:100440000100010001003100010001000100010074
:100450000100000001000000010001000100010096
:100460000100010001000100010001000100010084
:100470000100010001000100010001000100010074
:100480000100010001000100010001000100010064
:100490000100010001000100010001000100010054
:1004A0000100010001003100010001000100010014
:1004B0000100000001000000010001000100010036
:1004C000010001000100F503760EA90E00000200F4
:1004D0000200F103760EA90E000003000100F603EE
:1004E000760EA90E000004000200DB03760EA90EB2
:1004F0006F0705000100F703760EA90E0000060045
:100500000200DD03760EA90E000007000200F303CF
:10051000760EA90E000008000100F803760EA90E61
:10052000000009000200DF03760EA90E4A070A0048
:100530000200E103760EA90E4A070B000200E30356
:10054000760EA90E4A070C000200E503760EA90EEE
:100550004A070D000200E703760EA90E4A070E00B7
:100560000200E903760EA90E4A070F000200EB0312
:10057000760EA90E4A0710000200ED03760EA90EB2
:100580004A0711000200EF03760EA90E4A07120077
:100590000200F903760EA90E000013000200FB030F
:1005A000760EA90E000014000100FD03760EA90EC0
:1005B0000000150000000000D0060316000009022C
:1005C0005B00030100A0FA0904000001030101001F
:1005D00009211101000122400007058103080001E3
:1005E0000904010002030000000921110100012299
:1005F00022000705820320000107050303200001F4
:100600000904020001030000000921110100012278
:10061000BC00070584032000011201000200000055
:1006200008646D766D0100010203011C0376006908
:100630000061006C003A006600360034006300324E
:1006400000620033006300000010034D006F00647F
:100650000065006C002D00560000001A034D00617B
:100660000074007400680065007700200044006991
:100670000061007300000004030904000000000092
:10068000000000000000000000000000000000006A
:100690000000000000000000000000000000007EDC
:1006A0000F00D4FFFFFFC70000007800000000002B
:1006B0000000002A2B2800000000000000000000BD
:1006C00000000000000029000000002C1E34202142
:1006D0002224342627252E362D3738271E1F202189
:1006E00022232425263333362E37381F04050607E8
:1006F00008090A0B0C0D0E0F101112131415161702
:1007000018191A1B1C1D2F3130232D35040506071F
:1007100008090A0B0C0D0E0F1011121314151617E1
:1007200018191A1B1C1D2F3130354C0011241FBE07
:10073000CFEFDAE0DEBFCDBF04B603FE18C0809174
:10074000040590910505A0910605B0910705873035
:10075000904BA740B04B59F4109204051092050538
:100760001092060510920705E0E0F8E3099511E004
:10077000A0E0B1E0ECE9FAE602C005900D92A237E4
:10078000B107D9F725E0A2E7B1E001C01D92A4307E
:10079000B207E1F70E948A2C0C9421350C940000DA
:1007A000E8EDF0E080818E7F80831092E20010926D
:1007B000DA001092E100A0EEB0E08C9181608C93A1
:1007C00080818F77808319BCA7EDB0E08C918E7FFC
:1007D0008C9380818F7E80831092D3040895209122
:1007E000E4003091E50095E6A9012091EC00822F0C
:1007F000817020FF06C08091E80080FF06C080E085
:1008000008952091E80022FD1AC0809101058823F7
:1008100089F0853089F08091EB0085FD0FC0209133
:10082000E4003091E50042175307F9F29150E1F6E8
:1008300084E0089582E0089583E0089581E00895BA
:10084000EF92FF920F931F93CF937C018B010E9435
:10085000EF03C82F811117C08091E80085FD0BC000
:100860008091E8008E778093E8000E94EF03882350
:1008700099F3C82F08C0F70181917F018093F1009F
:100880000150110949F78C2FCF911F910F91FF90C3
:10089000EF900895CF93FC0180910105843001F51C
:1008A000C091E900CF702091EC00922F917020FD53
:1008B00090E8C92B82E08093E9008091E80080FFF6
:1008C0000CC050E040E060E270E0CF010E942004E4
:1008D0008091E8008E778093E800CF70C093E900A4
:1008E000CF9108958091F90487FF13C08091E800AB
:1008F00082FF06C08091E8008B778093E80004C0F7
:10090000809101058111F2CF08958091010588231E
:10091000D9F38091E80080FFF8CF8091E8008E77CE
:10092000ECCF982F9093E900242F762F50E0891771
:1009300031F07091EC002091ED005091F00021FD1C
:1009400007C09F5F973071F78093E90081E00895B9
:100950003091EB003E7F3093EB003091ED003D7F16
:100960003093ED003091EB0031603093EB007093E9
:10097000EC002093ED005093F0002091EE0027FD55
:10098000E0CF80E00895B0E0A0E0E9ECF4E00C9462
:100990007434C8EDD0E088818F7E8883E7EDF0E085
:1009A00080818160808384E082BF81E08093D30472
:1009B00088818E7F888302EE10E0F8011082109209
:1009C000DA0081EEC82ED12CF601108288818F7753
:1009D000888388818068888388818F7D888319BC1B
:1009E000109201051092F8041092F7041092F60488
:1009F00090EEE92EF12CF70180818B7F8083888136
:100A00008160888342E060E080E00E949104F6010A
:100A100080818E7F8083F8018081816080838081E6
:100A200088608083F70180818E7F808388818061E8
:100A30008883CDB7DEB7E8E00C949034FC01809158
:100A4000FF049091000586179707A0F061157105C6
:100A500029F49091E8009E779093E80090E061156A
:100A6000710551F4911108C08091E80082FF34C0F3
:100A700080E00895BC01F2CF809101058823C1F187
:100A80008530C1F18091E80083FD30C08091E8009D
:100A900082FDEACF8091E80080FFE1CF8091F300F2
:100AA0002091F200382F6115710519F028303105B9
:100AB00058F091E02830310509F090E02091E800ED
:100AC0002E772093E800CBCF81918093F100615085
:100AD00071092F5F3F4FE7CF80910105882341F0D7
:100AE000853041F08091E80083FFBECF81E008951A
:100AF00082E0089583E0089508958091D5040895D3
:100B00009C014FB7F8948091CA049091CB04A091B6
:100B1000CC04B091CD044FBF821B930B08952FB727
:100B2000F8946091CA047091CB048091CC049091A8
:100B3000CD042FBF08952FB7F8948091CA049091E7
:100B4000CB04A091CC04B091CD042FBF0895209187
:100B500019012223C1F02091CE0427FF14C0E62FF3
:100B6000E695E695E695EE31F8F4E80FF92FF11DDC
:100B7000677021E030E001C0220F6A95EAF78281B8
:100B8000822B82830895FC0132962FEF30E0419151
:100B9000641751F02F3F19F4411101C0232F3F5F1B
:100BA0003630A9F72F3F09F40895820F911D27FDD4
:100BB0009A95FC01628308952091C7043091C8047E
:100BC0002817390771F09093C8048093C704E09107
:100BD000C504F091C604309721F00084F185E02D22
:100BE000099508952091C3043091C404281739074A
:100BF00071F09093C4048093C304E091C504F09114
:100C0000C604309721F00680F781E02D09950895FC
:100C1000E091C504F091C604309729F00190F0816D
:100C2000E02D0995089580E00895CF93DF93EC01BE
:100C30004091B3045091B4046091B5047091B6042E
:100C40002FB7F8948091CA049091CB04A091CC0462
:100C5000B091CD042FBF841B950BA60BB70B843F1F
:100C60009140A105B10518F58091B3049091B404A9
:100C7000A091B504B091B6048093AF049093B004F2
:100C8000A093B104B093B20484EF91E0A0E0B0E08F
:100C90008093AB049093AC04A093AD04B093AE04E6
:100CA000D093BB04C093BA04DF91CF9108950E9402
:100CB0008F056093AF047093B0048093B104909358
:100CC000B20482E390E0A0E0B0E0E2CFFC018481D6
:100CD000862351F492819923B9F06923808583FF9B
:100CE00005C081E061110FC080E00895892F8F70E9
:100CF00092959F70982B862F8F7062956F70682BDE
:100D000081E09613F1CF089581E0FDCF452B39F0B6
:100D1000682381E06F3F09F080E08170089581E0F1
:100D2000FCCFDC016091A7048091A804962F891361
:100D300001C00895292F30E0F901EE0FFF1FE156A1
:100D4000FB4F408151814A175B07A1F487E08A9FDE
:100D5000A0018B9F500D112449595B4F81E0FA018E
:100D600084839613E6CF2F5F3F4F23703327209362
:100D7000A70408952F5F3F4F922F9370D8CF109202
:100D8000040410920304E7E6F4E08581811102C0B7
:100D900014821682379684E0EF39F807B1F7089588
:100DA000B0E0A0E0E6EDF6E00C9472348FEF9FEF38
:100DB0004430510508F469C04091CE0441FB8827B6
:100DC00080F990E0880F991F42FB002700F910E09E
:100DD000000F111F000F111F802B912B40FBCC2403
:100DE000C0F8D12C8C299D2943FB222720F9C22F42
:100DF000E0E0DE2F53E0CC0FDD1F5A95E1F78C2B9E
:100E00009D2B44FBAA27A0F9B0E0E4E0AA0FBB1F8A
:100E1000EA95E1F78A2B9B2B45FBEE27E0F9F0E002
:100E2000A5E0EE0FFF1FAA95E1F78E2B9F2B46FB47
:100E3000222720F930E0B6E0220F331FBA95E1F700
:100E4000822B932B47FB222720F930E03695322F57
:100E5000222737952795822B932B2091CF04322F71
:100E60003170F32EE82EF92A26952170B22EBB0C94
:100E7000A82EBF28C501BB0CAA0BBB0BFB018083AE
:100E80009183A283B38390E080E0CDB7DEB7EAE040
:100E90000C948E34EBEDF3E0848195812AE030E010
:100EA000B9010E9435346093140186818093130147
:100EB00082858093120184858093110186859785B0
:100EC000B9010E94353460931001808980930F012D
:100ED000828980930E01848980930D010895809109
:100EE000DB039091DC039093160180931501089524
:100EF000E9E6F2E090E080E067E87AE24EEA5AE262
:100F00002CEF39E2778366835187408733872287C6
:100F10009587848701963E968830910599F70895C4
:100F200081152CE5920741F42091B4033091B5036B
:100F3000232B11F490E080E008950E949B059C0112
:100F40009091530280915402982B21F030935002DB
:100F500020934F029091550280915602982B21F0D8
:100F600030934E0220934D02E091C504F091C604E7
:100F7000309749F082E0809351020480F581E02DA2
:100F800081E592E00995089590915302803F59F4CC
:100F90008091540287FF0DC01092540291110BC032
:100FA00010924B0208C0813F81F4809154021816C0
:100FB0009CF3992381F08091550290915602892BE0
:100FC00009F064C010924A020895823F49F497FFE5
:100FD000F0CF10925302809154028111ECCFE0CFF8
:100FE000833F19F41916ACF3E4CF20915502893FE1
:100FF00029F41216F4F610925502DBCF8A3F19F449
:1010000027FFD7CFF8CF209156028B3F29F427FF37
:10101000D0CF10925602CDCF8C3F19F41216CCF3DC
:10102000C8CF843F31F4809152028E7F8093520268
:10103000C0CF853F21F4809152028D7FF7CF863F4C
:1010400021F4809152028B7FF1CF873F21F4809170
:101050005202877FEBCF883F21F4809152028F7E2E
:10106000E5CF8D3F31F480914C028E7F80934C020E
:10107000A0CF8E3F21F480914C028D7FF7CF8F3F20
:1010800009F097CF80914C028B7FF0CF089580912B
:101090004C0280FF0CC060910E0170E07595679561
:1010A000759567956115710549F1862F089581FF42
:1010B00006C060910E0170E075956795F3CF609161
:1010C0000E0182FD0BC090914A029923A1F060911C
:1010D0000D0180910E01961738F0682F70E060388E
:1010E000710500F38FE70895899FC001112470E016
:1010F0000E944934F4CF61E070E0D7CF81E00895D9
:1011000080914C026091E3037091E40380FF16C06C
:1011100020911201269FC001279F900D1124BC0130
:1011200076956795769567956038710508F043C0A8
:101130006115710509F441C0862F089581FF0BC028
:1011400020911201269FC001279F900D1124BC0100
:1011500076956795E9CF82FF09C0809112019B01C6
:10116000829FB001839F700D1124DECF20914B022E
:101170002223D1F29091110180911201482F50E069
:10118000291748F0CB01849FB001859F700D949F73
:10119000700D1124C9CF289F90011124269FA00112
:1011A000279F500D369F500D1124692F70E0CA0102
:1011B0000E943534B9CF8FE7089581E00895803FCC
:1011C00031F40E9480088195809354020895813FF4
:1011D00019F40E948008F8CF823F31F40E94800801
:1011E0008195809353020895833F19F40E948008EB
:1011F000F8CF893F29F40E9447088093550208954B
:101200008A3F21F40E9447088195F7CF8B3F31F444
:101210000E94470881958093560208958C3F19F4E7
:101220000E944708F8CF843F31F4809152028160D8
:10123000809352020895853F21F48091520282608A
:10124000F7CF863F21F4809152028460F1CF873F2F
:1012500021F4809152028860EBCF883F21F4809185
:1012600052028061E5CF8D3F31F480914C02816064
:1012700080934C0208958E3F21F480914C0282604D
:10128000F7CF8F3FB9F780914C028460F1CF80E0B7
:101290000895F894E82FE295EF70F0E031A1282F3F
:1012A0002F7081E090E001C0880F2A95EAF7982F0F
:1012B0009095932391A392A1892B82A3789408956A
:1012C0009091CE0492FF06C0282F28712830F9F49F
:1012D000877F846093FF06C0282F28712831F1F49E
:1012E000877E84612091CF0420FF06C0382F38719B
:1012F0003830D9F4877F816021FF06C0282F2871FC
:101300002831D1F4877E816194FD877E0895282F4E
:1013100024712430F9F68B7F8860DCCF282F24716C
:10132000243101F78B7E8861DDCF382F3171313068
:1013300019F78E7F8860E0CF282F2171213121F7A6
:101340008E7E8861E1CFCF93DF93EC0182389105E7
:10135000B1F108F040C08133910509F49DC048F512
:101360008932910509F48DC08A9709F49CC0C11592
:1013700021E5D20708F0C3C0C11530E5D30708F056
:101380001EC1C83ED10508F0A3C0C13ED10588F5F5
:10139000C83AD10508F08EC0C53AD10508F007C19A
:1013A000C130D10531F1209721F1C430D10508F5C4
:1013B00045C08533910509F45FC0C997C1F6809196
:1013C000CE04837009F043C18091CF0483FF11C024
:1013D000C9E2D0E00EC0833E910599F170F4803EE1
:1013E000910501F1823E910511F68091CE0482FDB6
:1013F00021C0CE01DF91CF910895863E910561F124
:10140000873E910571F1843E910509F0B0CF80913E
:10141000CF0481FFEECF8091CE04C7EED0E084FDF3
:101420000DC0E7CF8091CE0480FD33C09091CF04F2
:1014300090FFDFCFC3EED0E084FFDBCFD0E0C0E091
:10144000D8CF8091CE0482FDFFC09091CF0490FD53
:10145000FEC084FFCECFF2CF8091CE0483FDDDCFDE
:10146000C8CF8091CE0483FDF5C09091CF0491FF49
:10147000F0CFC4EED0E0BDCF8091CE0485FFB9CFD0
:10148000A7CF8091CE0485FDE8C08091CF0483FF73
:10149000B0CFC9E3D0E0ADCF8091CE0486FFA9CF15
:1014A000CAE2D0E0A6CF8091CE0486FFA2CFC1E3EE
:1014B000D0E09FCFCF3BD10508F6C85AD0E0CC0F83
:1014C000DD1FCB5DDE4F0990D881C02DD46491CF54
:1014D000C11540E2D40758F4C11581E0D80708F0DF
:1014E00088CFC03FD10508F4A9CFD06582CFC11500
:1014F00020E4D20708F4A2CFDF70D06A7ACFC115FA
:1015000035E5D30718F5C11544E5D40708F084C0C4
:10151000C11583E5D80708F06BC0C11522E5D207D5
:1015200008F461C0CE018370992721E030E002C049
:10153000220F331F8A95E2F7C695C69580E2C89FB1
:10154000E0011124C22BD32BDC6853CFC11539E540
:10155000D307A8F4C11548E5D40708F062C0C11547
:1015600086E5D80708F06ACF8C2F0E946009C82F43
:10157000D0E0DC2FCC27CC27DF71D0623ACFC11569
:101580002AE5D20708F452C0CE0190568115904248
:1015900008F054CF8D2F8F710E94600990E0982F32
:1015A000882788279F719C012C2BE901E6CFC55A1B
:1015B000D0E0CE5DDE4FC881D0E0D0641ACFCE013E
:1015C0008370992721E030E002C0220F331F8A95F3
:1015D000E2F7C695C69540E2C49FE0011124C22BF4
:1015E000D32BDD6806CFDC2FCC27C16FD06A01CFAB
:1015F000CE018370992721E030E002C0220F331F13
:101600008A95E2F7C695C69540E2C49FE001112491
:10161000C22BD32BDA68EDCEDC2FCC27C46FD06A77
:10162000E8CEDC2FCC27C06FD06AE3CE8C2F8F7032
:101630000E94600934E0D695C7953A95E1F7CF70DE
:101640009C2FEC01D069D5CEC2EED0E0D2CEC0EE58
:10165000D0E0CFCEC6EED0E0CCCEC5E3D0E0C9CE50
:1016600080911B02882331F010921B0210921A0203
:10167000109219020895CF93C82F8091CF0482FF52
:101680000CC080911B028C1741F00E949B05909327
:101690001A0280931902C0931B02CF91089580957E
:1016A0009091030598239093030508958095909158
:1016B000BA0398239093BA0308959091BA03892BA3
:1016C0008093BA0308951092F8011092F7011092D6
:1016D000F60108958091DD039091DE03892B89F056
:1016E0000E949B052091190230911A02AC01421B05
:1016F000530B81E02091DD033091DE034217530745
:1017000008F480E081700895909119019923D1F037
:101710009091CE0497FF16C0E82FE695E695E695E2
:10172000EE31E0F4F0E0EC58FE4F282F277081E016
:1017300090E001C0880F2A95EAF78095928189236D
:1017400082830895E6E7F1E09191891303C0DF01F8
:1017500011971C9291E0EC37F907B1F708952091A9
:10176000F5019091B401291302C080E0089530E0A2
:10177000F90153E0EE0FFF1F5A95E1F7EB54FE4FCE
:101780005181561306C05081581303C0528154131F
:1017900004C02F5F3F4F2770E6CF81E0089580910E
:1017A000F5019091B401981301C008958F5F87707F
:1017B000FACF292F943078F58C3068F590E03CE032
:1017C000239F800D911D1124682F677023E096954B
:1017D00087952A95E1F7FC01EE0FFF1FE80FF91F2F
:1017E000E656FE4F50E040E080E0219130E0062ECA
:1017F00002C0369527950A94E2F721703327042E0C
:1018000001C0220F0A94EAF7822B4F5F5F4F4330EB
:10181000510559F7089580E00895292F943098F5DF
:101820008C3088F590E03CE0239F800D911D1124C1
:10183000282F277041E001C0440F2A95EAF723E0E2
:10184000969587952A95E1F7FC01EE0FFF1FE80FAB
:10185000F91FE656FE4F30E020E070E05191DF01C5
:101860001197CB01022E02C0969587950A94E2F754
:10187000817081958527842385278C932F5F3F4F27
:101880002330310559F7089592959F70963091F065
:1018900058F4925F9F70923058F4803F19F030F402
:1018A000883E30F481E008959A5FF4CF843FD1F30D
:1018B00080E00895883EB0F3813FD1F7F3CF9C01DB
:1018C0003A9521153F4150F5FC01EE27F170BC011E
:1018D00066277270AC01442754709C01222738702F
:1018E00094FF0EC080E1EF2B09F480E0672B09F034
:1018F0008062452B09F08064232B89F0806808956D
:1019000081E0EF2B09F480E0672B09F08260452B22
:1019100009F08460232B19F08860089580E0089511
:101920008093D0047093D2046093D1048091010518
:101930008430F9F48093E9008FEF9091E8008150B2
:1019400095FD06C095ED9A95F1F700008111F5CF50
:101950008091E80085FF0DC050E040E063E070E05A
:1019600080ED94E00E9420048091E8008E778093BF
:10197000E8000895BC0184E00E94900C0895BC0129
:1019800083E00E94900C08959C0184E08093E9001C
:101990009FEF8091E800915085FD06C085ED8A9506
:1019A000F1F700009111F5CF8091E80085FF0CC0A0
:1019B00050E040E066E070E0C9010E9420048091A0
:1019C000E8008E778093E8000895CF93DF93EC01D1
:1019D000809119018823B1F18091CE0487FF32C034
:1019E00060E284E08093E9008FEF9091E8008150FD
:1019F00095FD06C095ED9A95F1F700008111F5CFA0
:101A00008091E80085FF1BC08091190170E050E0D3
:101A100040E0811104C050E040E068E070E0CE0199
:101A20000E9420048091E8008E778093E80080E295
:101A3000FE01A6EDB4E001900D928A95E1F7DF91E9
:101A4000CF91089568E081E0CDCF81E08093E00000
:101A500080E28093D8001092C9008FE19EE4019744
:101A6000F1F700C0000087E090EBDC0180930405F3
:101A700090930505A0930605B093070588E19CE0C7
:101A80000FB6F894A895809360000FBE9093600005
:101A9000FFCF019708F40895EFE9FFE03197F1F7E0
:101AA00000C00000F6CF0F931F93CF93DF930BED91
:101AB00013E0C7EAD1E0CE010E94D734F801819348
:101AC0008F012196CB3CF1E0DF07A9F7CCECD4E005
:101AD000FE0185919491009711F0FC0109952C96D7
:101AE000F5E0C83CDF07A1F7DF91CF911F910F917F
:101AF00008950F931F93CF93DF93843030F56430B4
:101B000020F54C3010F5C42FD0E0CC0FDD1F28E1BC
:101B1000629FC00DD11D112430E6839FC00DD11DE1
:101B20001124CE0187960E94D734082F10E0102F81
:101B30000027CE0188960E94D7349801282BC9012E
:101B4000DF91CF911F910F91089590E080E0F8CF41
:101B5000462F2091B8033091B903232B99F4703F9D
:101B600039F4603F79F48091B6039091B7030895FA
:101B7000843040F4743030F46C3020F4672F0E94CD
:101B8000790D089590E080E00895CF92DF92FF9262
:101B90000F931F93CF93DF936C0100910205809107
:101BA0001C02082BC7E0D0E010E0FC2EC8010C2E70
:101BB00002C0959587950A94E2F780FD0CC02197A5
:101BC000A0F7F12C8F2DDF91CF911F910F91FF90F6
:101BD000DF90CF900895B6018C2F0E94A80D0E942F
:101BE000A309019761F3EECFCF93DF93EC010E943D
:101BF000C50DBE010E94A80D0E94A309DF91CF91DF
:101C00000895CF93DF93EC014B815C8169818881DA
:101C10000E948606811110C08E819F81009739F045
:101C20000E94A3090E94440CDF91CF9108958881FE
:101C300099810E94F40DF6CF80E0F6CFA5E0B0E0E8
:101C4000E4E2FEE00C94793449835A8389819A81D5
:101C5000662399F0222389F00E94C50D182F682F62
:101C600089819A810E940D0C69817A81812F0E945D
:101C7000A80D2596E3E00C9495340E94D90B182FFB
:101C8000F3CFFC01262F86819781009739F440819C
:101C900051816281738184810E941E0E089583E2C6
:101CA00090E00E94D7348F3F89F484E290E00E9454
:101CB000D734863059F485E290E00E94D73491E021
:101CC000833F09F090E0892F8170089580E0FCCF78
:101CD000CF9384E090E00E94D734C82F82E290E056
:101CE0000E94D734982F8C2FCF910895DB01FC01EF
:101CF0003296259134914217530758F0FC013496DF
:101D000065917491A901CD010E94B73490E080E003
:101D100008958FEF9FEF08950F931F93CF93DF9355
:101D20000BED13E0C7EAD1E0CE010E94D734F801F1
:101D300061918F01681719F0CE010E94E534219658
:101D4000CB3CF1E0DF0781F7DF91CF911F910F913D
:101D50000895DA019C012E5F3F4FF901459154919E
:101D6000F90125913491A217B30758F0FC0134967C
:101D7000859194910E94B7340E948C0E90E080E08F
:101D800008958FEF9FEF0895CF93DF93CBEBD2E0D1
:101D900060E0CE010E94E5342196C11584E0D807A9
:101DA000B9F7DF91CF9108951F93CF93DF93122F4F
:101DB0008430E0F46430D0F44C30C0F4C42FD0E070
:101DC000CC0FDD1F98E1699FC00DD11D112490E655
:101DD000899FC00DD11D1124632FCE0187960E94CB
:101DE000E534612FCE0188960E94E534DF91CF91D2
:101DF0001F910895CF93C82F6FEF83E290E00E9468
:101E0000E5346FEFC11166E084E290E00E94E534B2
:101E10006FEFC11163EF85E290E00E94E534CF914E
:101E20000895CF93C92F682F84E090E00E94E53495
:101E30006C2F82E290E00E94E534CF9108959B01DF
:101E4000883070F49AE0899FB001112465537E4F69
:101E50004AE050E0C9010E94C73490E080E0089554
:101E60008FEF9FEF0895AAE0B0E0E9E3FFE00C9464
:101E70007A349C0137552F3F310509F068F4BE01D3
:101E80006F5F7F4F0E941F0F892B31F489859A85E0
:101E90002A96E2E00C9496348091F3039091F40337
:101EA000F7CFAAE0B0E0E7E5FFE00C9470340CE374
:101EB00013E08AE2C82E83E0D82E9BE6E92E92E05A
:101EC000F92E27E0922E39E2A32E33E0B32E882498
:101ED0008394D6010D931D936D014AE050E0B70144
:101EE000CE0101960E94C734F8013896DF01892D92
:101EF0001D928A95E9F789819A81D80111969C9360
:101F00008E938F8112968C9312978D8113968C935A
:101F10001397888514968C931497898515968C93BE
:101F200015978B819C8117969C938E931697189684
:101F30001C9218978A8587FF3CC01E961C921E92A1
:101F40001D9780FF03C0D80118968C9281FF04C0B2
:101F5000F80190859260908782FF07C0D80118969B
:101F60009C911897946018969C9383FF04C0F80185
:101F700090859860908784FF07C0D80118969C913F
:101F80001897906118969C9385FF04C0F80180858E
:101F900080628087015F1F4FFAE0EF0EF11C8BEB30
:101FA000E81682E0F80609F094CF2A96ECE00C944B
:101FB0008C34F801B686A586C4CFAAE0B0E0E3EE83
:101FC000FFE00C947434E9EDF2E080E5DF011D924E
:101FD0008A95E9F7E7E6F4E088E3DF011D928A9548
:101FE000E9F789EDC82E82E0D82E7F010BE112E0DF
:101FF000F701D182C0824AE050E0B801CE010196DB
:102000000E94C73488E0FE013196D60101900D92FE
:102010008A95E1F789859A85D70113969C938E93CB
:102020001297BAE0CB0ED11CE7E0EE0EF11C065F72
:102030001F4F0B36F2E01F07D9F62A96E8E00C9402
:102040009034A8E0B0E0E7E2F0E10C9470348E0147
:102050000F5F1F4F88E0F80111928A95E9F793E529
:10206000E92E91E0F92E6801AA24A394B12CF7017E
:1020700081917F018F3F09F446C0F894E82FE295E3
:10208000EF70F0E021A18F70A50102C0440F551F31
:102090008A95E2F7CA01922F982B91A392A180957D
:1020A000892382A3789400C0E7E5F1E021E030E0E5
:1020B000912C812C41914F3F09F467C0A42FA29528
:1020C000AF70B0E090968C9190E04F7002C0959503
:1020D00087954A95E2F780FD58C0C901882A992A58
:1020E000220F331F51E0E336F50721F7F70131974F
:1020F00080818F3F11F00E94490980EA8A95F1F7AB
:10210000F60191828082F2E0CF0ED11C47E5E41601
:1021100041E0F40609F0ABCF48E050E0B80180E2BE
:1021200092E00E94AA34892B99F188E0F801A0E29C
:10213000B2E001900D928A95E1F781E080931F0251
:102140000E949B0590931E0280931D0280911D02A8
:1021500090911E020E9480050597F0F048E050E043
:1021600060E272E082E492E00E94AA34892BC9F016
:1021700088E0E0E2F2E0A2E4B2E001900D928A95FC
:10218000E1F781E010921F0208C090E080E0A6CF46
:1021900080911F028111DACF80E02896ECE00C9448
:1021A0008C3480E0EFCFCF938091BA0390910305F8
:1021B000892B8093740180911B02882329F18091DF
:1021C000DD039091DE03892B29F00E946A0B8111B7
:1021D0000E94300B8091740190911B02892B809397
:1021E000740180911901882309F447C08091CE04BD
:1021F00087FF43C08EE1E6E7F1E090E0815008F010
:102200003EC091110E94300BC091B704C0958091DF
:102210007401C8238091B804C82BC093740140E2B4
:1022200050E069EF71E084E791E00E94AA34892BC5
:1022300011F180E2E4E7F1E0A9EFB1E001900D9245
:102240008A95E1F7E091C504F091C604309799F0C2
:1022500080911901882349F08091CE0487FF05C041
:10226000C093750186E0809374010280F381E02DB4
:1022700084E791E00995CF91089586E0BCCF219144
:10228000222309F4BBCF9F5FB9CFCF93DF93EC013B
:10229000EA85FB85309719F06C857D8509958B81E2
:1022A0000E944F0B8C810E94560B0E94D31086E037
:1022B000FE0111928A95E9F7DF91CF910895CF93AE
:1022C000DF93EC018D8181FD15C082608D8380914B
:1022D00003059B81892B809303058C810E945D0BF4
:1022E0000E94D310E885F985309721F06C857D85B3
:1022F000CE0109951092C2041092C1048D8180FD17
:1023000003C0CE010E944511DF91CF9108958091C5
:102310001701877F8093170182E00E944F0B809105
:10232000170184FF06C08F7E8093170182E00E9410
:102330005D0B8091170185FF06C08F7D809317018B
:1023400080E20E945D0B0E94D310089590E080E02F
:102350000E94F20590E080E00E94DC0510920305E7
:102360000E94D31086E0E1E5F2E0DF011D928A953C
:10237000E9F710924B0210924A0210924C020E940E
:102380009D070895809302050E94A61108958091EB
:102390000205982F9670963021F488600E94C21131
:1023A0000895877FFBCF21E030E001C0220F8A959E
:1023B000EAF720958091020582230E94C2110895B8
:1023C0009091F801809589238093F801282F277038
:1023D00091F4282F082E000C330B9217130659F096
:1023E0009091CF0492FF07C08595859585950E94B1
:1023F000D3110E94630B08959091CF0492FB222782
:1024000020F9281769F080FB92F99093CF0480910E
:10241000CE049091CF040E94110F82E00E94E0113F
:10242000089521E030E001C0220F8A95EAF78091FB
:102430000205822B0E94C21108959091CF0492FF51
:1024400010C098E0899F90011124622B6093F801DD
:102450000E9411120E949B059093F7018093F60150
:1024600008950E941112089580931C020E94A611E3
:1024700008951092BA0380911901E6E7F1E08823EC
:1024800061F08091CE0487FF08C08EE1DF011D92CC
:102490008A95E9F70E94A611089586E0F7CFAAE28F
:1024A000B0E0E5E5F2E10C94793489EF94E0209115
:1024B000F100DC012D93CD01B5E081309B07B9F728
:1024C0008091FA04833009F472C0B8F4813009F4C1
:1024D00049C0823009F4B3C08091E80083FF96C2FE
:1024E0008091F9049091FA049A3008F08FC2E92F94
:1024F000F0E0ED5DFA4C0C945D348A3009F48EC046
:102500008B3009F471C0893039F78091F904813238
:1025100019F78091FD049091FE04009711F0029745
:10252000D9F68091E800877F8093E8008091E800E9
:1025300082FF38C09091F3008091F200029731F44D
:102540008091F100813011F0863021F48091F1000A
:102550008093D5048091E8008B778093E8000E94F7
:102560007204BACF8091F904813A09F0B5CF809115
:10257000E800877F8093E8008091FD049091FE043D
:10258000892B61F460E286ED94E070E00E941E0504
:102590008091E8008B778093E8009ECF60E090E028
:1025A00080E0F3CF809101058111C0CF95CF80915C
:1025B000F904813A09F090CF8091FD049091FE04D6
:1025C000892B09F089CF8091E800877F8093E8000C
:1025D0008091E80080FFFCCF809119018093F10089
:1025E0008091E8008E77B9CF8091F904813209F0AB
:1025F00073CF8091FD049091FE04892B09F06CCF7C
:102600008091E800877F8093E8000E9472048091A7
:10261000FB04809319010E9439125ECF8091F90466
:10262000813209F059CF8091E800877F8093E800DC
:102630000E9472048091FC048093D4044DCF809159
:10264000F904813A09F048CF8091E800877F8093B0
:10265000E8008091E80080FFFCCF8091D404BECFD9
:10266000803899F0823809F0D1C18091FD048F70D3
:10267000873008F0CBC18093E9008091EB0085FBA7
:10268000882780F91092E90006C08091F6049091A5
:10269000F704911182609091E800977F9093E80091
:1026A0008093F1001092F1008091E8008E77AAC12A
:1026B000882309F498C1823009F0A8C18091FB04F5
:1026C00081119BC18091FD048F702FEF280F263060
:1026D00008F09CC18093E9002091EB0020FF8DC1A0
:1026E000933031F48091EB0080628093EB0085C1E0
:1026F0009091EB0090619093EB0021E030E001C0FD
:10270000220F8A95EAF72093EA001092EA0080915E
:10271000EB008860EACF811179C11091FB041F772B
:102720008091E3008078812B8093E3008091E80022
:10273000877F8093E8000E9472048091E80080FF08
:10274000FCCF8091E30080688093E30082E0111168
:1027500083E0809301055AC18058823008F056C149
:102760002091FB043091FC042C3DE3E03E07A1F5F1
:1027700083E08A838AE289834FB7F894DE01139657
:1027800020E03EE051E2E32FF0E050935700E49167
:1027900020FF03C0E295EF703F5FEF708E2F90E057
:1027A000EA30C0F0C7968D939D932F5F243159F77F
:1027B0004FBF8091E800877F8093E8006AE270E075
:1027C000CE0101960E941E058091E8008B778093D0
:1027D000E8001CC1C096E7CF8091FD049091FE04F3
:1027E000432F55274330510509F44AC078F541304D
:1027F000510509F485C08BE590E0EEEBF5E0423041
:10280000510509F003C12091E800277F2093E800DB
:102810002091FF04309100058217930708F49C0172
:1028200040E02115310509F070C041116EC0809162
:10283000E80082FDC9CF80910105882329F2853007
:1028400019F28091E80083FFF2CFBECF41325105EB
:1028500009F447C04232510509F0D8C083309105D0
:1028600008F0D4C0FC01EE0FFF1FEA59FE4F0190A3
:10287000F081E02D8D599E4FDC018C9190E01DC0C0
:10288000332721303105E9F02115310579F0223067
:102890003105F9F02330310509F0B8C0EBE2F6E07C
:1028A000E4918E2F90E0EBE2F6E007C0E7E7F6E078
:1028B000E4918E2F90E0E7E7F6E0009709F4A6C0D8
:1028C000A2CFEBE5F6E0E4918E2F90E0EBE5F6E0A9
:1028D000F4CFE9E4F6E0E4918E2F90E0E9E4F6E04D
:1028E000ECCF8330910508F091C0880F991FFC014F
:1028F000E459FE4F0190F081E02D89E090E083CF14
:1029000082E190E0E9E1F6E07ECF80910105882345
:1029100009F45ACF853009F457CF8091E80083FD40
:1029200053CF8091E80082FD82CF8091E80080FF44
:1029300078CF9091F3008091F2002115310519F0C4
:102940008830910550F041E0089709F040E080910F
:10295000E8008E778093E80064CF44914093F100C3
:102960003196215031090196E8CF803809F04EC0E8
:102970008091E800877F8093E8008091F80480933D
:10298000F10092CE811142C01091FB041230F0F59B
:102990008091E800877F8093E8001093F8040E94FC
:1029A0007204112311F084E005C08091E30087FDDB
:1029B000FACF81E08093010542E061EC81E00E9462
:1029C000910442E261EC84E00E94910442E261ECF5
:1029D00082E00E94910442E260EC83E00E94910454
:1029E0008091010513C08091FB04813079F481E06E
:1029F000933009F080E08093F7041092E900809111
:102A0000E800877F8093E8000E9472048091E800CC
:102A100083FF0AC08091E800877F8093E80080915F
:102A2000EB0080628093EB00AA96E3E00C9495346F
:102A3000EBEDF3E0128E138E8FEA90E091838083AA
:102A400025E0248F88E893E1938382838AE090E0F5
:102A50009583848344E150E05783468348E050E007
:102A600051874087938782876EE170E0758764871E
:102A70009787868780E590E0918B808B538B428B84
:102A800048E250E0558B448B42E350E0578B468B35
:102A900048EC50E0518F408F158E178E168E91A303
:102AA00080A322A30E948C0E0E9439121092CF04A0
:102AB0001092CE04EFECF4E08081846080838091FA
:102AC000CE049091CF040E94110F0E94530D0895DF
:102AD000AEE1B0E0EEE6F5E10C946F34A090B40303
:102AE000B090B50381E090E09093B5038093B40378
:102AF00082E4C82E83E0D82E00E0760110E015C0F5
:102B0000F40125913491472D612F802F0E94D40E1E
:102B100082E0880E911C7394ECE07E12F1CFF8E114
:102B2000EF0EF11C1F5F143019F04701712CE8CF34
:102B30000F5F80E6C80ED11C0430F9F60E9418150C
:102B40001A8219821C821B821E821D8218861F8295
:102B500088EC90E09A8789870BEC11E04AE050E01E
:102B6000B801CE0101960E940935065F1F4F0B3157
:102B7000E2E01E0799F77E01FBE0EF0EF11C8AE010
:102B8000F70111928A95E9F74AE050E0B801C701D0
:102B90000E940935065F1F4F0B36F2E01F07A1F7B1
:102BA0007E0185E1E80EF11C8AE0F70111928A9519
:102BB000E9F78FEF9FEF9A8F898F87E08E8F4AE03A
:102BC00050E0B801C7010E940935065F1F4F0B3B5B
:102BD000F2E01F07A1F7B092B503A092B4036E967E
:102BE000EDE00C948B3480E00E94FA0E60E086E207
:102BF00090E00E94E5340E9468150E94C40E81E0B6
:102C00000E94FA0E0895CF92DF92EF92FF928FEF1B
:102C10009FEF4430510508F46AC0FB01C080D180A9
:102C2000E280F3800E9439128091CE04C0FA80F9CC
:102C3000B701A601769567955795479540FB81F9B1
:102C4000B701A60122E076956795579547952A9595
:102C5000D1F740FB82F9B701A60133E0769567957D
:102C6000579547953A95D1F740FB83F9B701A601EF
:102C7000E4E07695679557954795EA95D1F740FB3F
:102C800084F9B701A601F5E07695679557954795C4
:102C9000FA95D1F740FB85F9B701A601A6E0769534
:102CA000679557954795AA95D1F740FB86F9B701E7
:102CB000A601B7E07695679557954795BA95D1F7F0
:102CC00040FB87F98093CE048091CF04D0FA80F93D
:102CD000D1FACC24C0F8C0FA81F98093CF04809156
:102CE000CE049091CF040E94110F90E080E0FF90FD
:102CF000EF90DF90CF9008950E9439122FEF84E378
:102D00009CE0215080409040E1F700C0000088E145
:102D10009CE00FB6F894A895809360000FBE909346
:102D20006000FFCF882321F00E944F0B0E94D31038
:102D30000895882339F090910305982B909303050B
:102D40000E94D3100895882321F00E94560B0E9400
:102D5000D3100895882321F00E945D0B0E94D310A8
:102D60000895882379F19CEF980F913A28F40E94F6
:102D7000840B0E94D310089590E2980F983050F47D
:102D8000877091E001C0990F8A95EAF7892F0E9418
:102D9000560BEFCF9BE5980F933028F490E080E03E
:102DA0000E94F205089598E5980F973128F490E075
:102DB00080E00E94DC050895803F20F00E94C40757
:102DC0000E949D070895FF920F931F93CF93DF9367
:102DD000F82E0091BC041091BD040115110509F4F1
:102DE00049C01092BB041092BA041092B70410921A
:102DF000B804D8011696CD91DC919E013A95211523
:102E00003F4108F4D07ED1E0C11101C0D0E0D8012B
:102E10001996ED91FC911A97309731F01B966D91B0
:102E20007C9180E00995D823DD2339F08CEF8C0F5D
:102E3000813A30F58C2F0E94840BFF2099F0E091AD
:102E4000BC04F091BD04808584FD0CC08091B90460
:102E5000882341F0808191819C0121503109203BE0
:102E60003D45A0F00E94D3101092BD041092BC0406
:102E70001092B904C801CDB7DEB7E5E00C949334E5
:102E80000E94D3108C2F0E94B116D7CF0E94150636
:102E9000E9CFCF93DF93EC010E94B116CE010E94DF
:102EA0005F0C9E01205E31092830310510F0CD2BDA
:102EB00029F40E94A316DF91CF9108950E949216E3
:102EC000FACFCF93C82F8823C1F18CEF8C0F813AB2
:102ED000B0F580911901882301F18091CE0487FF1C
:102EE0001CC0EC2FE695E695E695F0E0EC58FE4F19
:102EF000828190E04C2F477021E030E002C0220F29
:102F0000331F4A95E2F782239323892B79F08C2F84
:102F10000E94840B0E94D31009C0E6E7F1E0819182
:102F2000C817A9F381E0EC37F807C9F76C2F84E7DD
:102F300091E00E94A7050E94D310CF91089580E2EE
:102F40008C0F883048F4C77081E001C0880FCA95A3
:102F5000EAF70E945D0BEFCFEBE5EC0FE33040F4B6
:102F6000F0E0EE5DFE4F808190E00E94F205E5CF3B
:102F7000E8E5EC0FE73150F4F0E0EE0FFF1FEB5DFA
:102F8000FE4F808191810E94DC05D7CFC03FA8F21F
:102F90008C2F0E94DF080E949D07CFCF1F93CF93F5
:102FA000DF93182FC091FB03D091FC03893321F0EC
:102FB000C091F903D091FA03812F0E9461172097E5
:102FC00039F4812F0E94B116DF91CF911F9108959E
:102FD0008FE99FE00197F1F700C000002197EFCF44
:102FE000B0E0A0E0E6EFF7E10C947234EC018AE087
:102FF000A82E2881222309F48FC02130C9F5998198
:103000008A81913021F422960E94CE1705C0923019
:1030100029F422960E9461172196EBCF933021F478
:1030200022960E94B116F8CF943011F02196F4CF79
:10303000229630E020E0AE014F5F5F4F8053990B46
:103040008A30910550F02150310930F38FE99FE02B
:103050000197F1F700C00000F6CFA29EB001A39E39
:10306000700D11249C01260F371F8981EA01E3CFDF
:10307000E22FF0E0E555F94FB490822F86958695C2
:10308000869590E0FC01E556F94FE4902770F12C0D
:10309000022E02C0F594E7940A94E2F731E0E322AD
:1030A000FF24FC01E557F94FC490D12C022E02C039
:1030B000D594C7940A94E2F731E0C322DD24FC01E1
:1030C000E558F94F049110E002C0159507952A952F
:1030D000E2F701701127E114F10419F081EE0E946A
:1030E0006117C114D10419F086EE0E9461178B2D6F
:1030F0000E94CE17C114D10419F086EE0E94B116B9
:10310000E114F10419F081EE0E94B11601151105C8
:1031100009F482CF8CE278CFCDB7DEB7EAE00C9429
:103120008E34B0E0A0E0E7E9F8E10C9472347C0161
:103130005B01C42FD22FFC0182818823A9F0409328
:10314000C0040E949B059093BF048093BE04C77087
:1031500081E001C0880FCA95EAF70E94AA16CDB790
:10316000DEB7EAE00C948E341091C004141338C01A
:103170008091BE049091BF040E9480056C01B7014C
:10318000C5010E94330FC816D90650F5C0E2CD0F15
:103190001D17C1F080E2810F883048F4177081E07C
:1031A000012E01C0880F0A94EAF70E94A316C830C6
:1031B00048F481E09D2F977001C0880F9A95EAF737
:1031C0000E94AA16802F0E94CE17C83040F6D770F2
:1031D00081E001C0880FDA95EAF70E94A316BFCFFD
:1031E000C77081E001C0880FCA95EAF7F6CFCF9388
:1031F000DF93EC010E945F0C9E01205E31092830B4
:10320000310510F0209741F40E94AA168C2F0E94DD
:103210006117DF91CF9108950E949916F7CF662329
:1032200029F0209103052260209303059C0130566C
:10323000211540E2340720F0305E2115304108F4BA
:1032400099270E94F7180895B0E0A0E0EAE2F9E1BA
:103250000C9475347C018B01D42E8091170182FF70
:103260008CC0C0910104D0910204CE15DF0521F07D
:10327000E114F10409F081C0809117018B7F8093E4
:10328000170181FD73C08091FF0390910004A80194
:10329000481B590B81E0209115013091160142170E
:1032A000530708F480E08170F82E80911701F0FA3E
:1032B00081F980931701FE0183E0F695E7958A95E1
:1032C000E1F7EE71FF27E554FC4F20813181AE011B
:1032D0004F70552781E090E002C0880F991F4A95F2
:1032E000E2F7FF2009F444C0822B932B9183808363
:1032F0008091BA0381FF08C080911701806180939B
:10330000170182E00E94560B8091BA0385FF08C026
:103310008091170180628093170180E20E94560B12
:103320006F2DCE010E940F19DD2031F08091F60340
:1033300085FF02C086FF3BC08091F9039091FA039C
:103340000E94490D80910104909102049C01305625
:10335000211540E2340720F0305E2115304108F499
:1033600099270E9449170E9487111DC081E09BCFB9
:103370008095909582239323B9CFC7019927970110
:103380003056211540E2340728F0305E21153041D7
:1033900008F0C7010E94491780910104909102042E
:1033A0008E159F0501F3109300040093FF03CDB722
:1033B000DEB7E7E00C94913468EE7EEF90E080E0B9
:1033C0000E94033560E082E090E00E94E53460E016
:1033D00083E090E00E94E53410921C0260E084E0FB
:1033E00090E00E94E53464E082E290E00E94E534DF
:1033F00060E085E090E00E94E53460E086E090E0E7
:103400000E94E5346FEF87E090E00E94E53440E0F1
:1034100050E0BA0188E090E00E94F73460E08DE06F
:1034200090E00E94E53440E050E0BA0188E190E08D
:103430000E94F73460E087E190E00E94E53440E0CC
:1034400050E0BA018CE190E00E94F73470E060E057
:1034500080E290E00E94033540E050E0BA0188E14C
:1034600090E00E94F73480E00E94FA0E0E94F3156B
:1034700040E050E0BA018FE090E00E94F73440E075
:1034800050E0BA0183E190E00E94F7340895A7E08C
:10349000B0E0EDE4FAE10C946A347C01DC011396AF
:1034A0004D915C91149711966C9111978C910E949B
:1034B00086068111EEC061E0C7010E94410E8C01B9
:1034C000F70182818823E1F08091C1049091C204C8
:1034D0000097B1F00817190799F0FEE08F9FC0011F
:1034E0001124FC01E259FD4F20812460208387597B
:1034F0009D4FDC010D931C930E945F1110920305F8
:10350000F7018281882311F40C940723C8018251AA
:103510009F45409710F00C94FB228FEF93E00E94A0
:10352000D7348111A6C07EEED72ED00E0BEB12E061
:10353000D11036C019821A821B821C8299249A9457
:1035400068012FEFC21AD20AC8010E94D7348983BA
:103550001A82882309F48DC0813009F07FC0580198
:1035600032E0A30EB11CC6010E94D734C82E8A8354
:10357000882309F47EC0C5010E94D734D82E8FEF6E
:103580008C0D8330D8F4580143E0A40EB11CDB82CB
:10359000DD2021F0CE0101960E94F0178501D0CFE9
:1035A0000115F4E01F0709F464C0C8010E94D73474
:1035B000811101C0DA940F5F1F4FBACF8BEF8C0DD2
:1035C000833030F5C8010396DB825C01DD2031F3E6
:1035D000580154E0A50EB11C0E94D7348C83882377
:1035E000E9F28B819C818130AFEF9A0710F0982F20
:1035F0008827B6E0CB1631F0E7E0CE1631F00E9416
:10360000762ACCCF0E94502AC9CF0E94D729C6CF94
:10361000F4E0CF12C3CF580124E0A20EB11CC801C0
:1036200003960E94D734DD2021F1882311F18150C7
:10363000990B989E9001999E300D11244D2D41506B
:10364000550BCA01820F931F019708F4A7CFAFE96A
:10365000BFE01197F1F700C00000F6CFCE01019650
:103660000E94F01756019ACF81E00E9411120E9429
:10367000C7118091F801877061F0D70112968C9183
:10368000882339F08091CF0482FF03C082E00E943A
:10369000E0112796E2E10C94863481E00E94D31178
:1036A000E6CF82E0FBCF823011F00C94452380916D
:1036B000630290916402892B09F4E7C72EE02C9DE8
:1036C000C0012D9D900D1124FC01E259FD4F208178
:1036D0002E7F208387599D4F0E945F11D6C781E0BE
:1036E00080930001C6CF80910001882309F4AFC602
:1036F000480120EE821A910840901B0280919701A8
:10370000482A8091BA03482A38E08316910408F0C9
:1037100086C098012770332781E090E001C0880FB0
:103720002A95EAF7552009F477C0482AD7018D91E8
:103730009C910E94D90B21E030E0F90102C0EE0F0C
:10374000FF1F8A95E2F7FF83EE832090BC04309040
:10375000BD0460909401709095011D822D81E22F2F
:10376000F0E0EE0FFF1FE65DFC4FC080D180C1147A
:10377000D10409F4D0C6411005C0D60112968C912F
:10378000811189C0F601838190E02E813F818223DF
:103790009323892B09F47FC08085982F977009F4B3
:1037A00087E038E08316910408F053C0552009F4EF
:1037B0004CC086958170882309F46DC0D601AD9008
:1037C000BC900A151B0519F4552009F464C0C214F5
:1037D000D30409F460C0D6011D96ED91FC91309799
:1037E00021F08081882309F456C0642DC6010E940F
:1037F0006606882309F44FC00A151B0509F099C70E
:103800000115110509F49AC751109AC7A614B704F7
:1038100009F041C0512C94C78095482287CF55208C
:1038200009F462C610939501009394010E948F05DC
:103830006093B3047093B4048093B5049093B6047A
:103840001092BB041092BA0471CF82FB882780F9D2
:10385000B2CF552001F18170AECF0E94B1168EC754
:103860000497813A910558F46A2D84E791E00E940B
:10387000A705552009F4EBC50E94D310FACE0E948B
:10388000D3108FE39CE90197F1F700C000008A2D67
:103890000E946117EECF9D819F5F9D835FCFFC01EA
:1038A000208131810217130709F0CAC55110CAC51A
:1038B0001092B90480E00E94E316C9C5902F812FB1
:1038C0000EC6F901858181FF3AC6C9010E944511E2
:1038D00036C6809117018160809317015EC6809182
:1038E00017018E7F809317010E94871156C6809121
:1038F00017018F7E013E110531F0053E1105C9F417
:10390000809117018F7D809317018091170180FFAF
:1039100053C6D70112968C910832110528F50E3145
:10392000110508F072C00430110580F5811140C600
:1039300043C6C8019056811540E2940720F0905E7E
:103940008115904110F78091170182FF35C6809153
:10395000F80381FD31C625E332E040E0B60190E096
:1039600080E00E94241928C60933110558F40D324D
:10397000110518F40B321105C9F69091F60392FD6A
:10398000D5CF08C004361105C1F3D0CF9091F6030E
:1039900094FDCCCF882309F4A8C080911B0290919C
:1039A000BA03892B8D7FB1F11092020410920104A9
:1039B0008091F60381FD2EC0F80143E0F695E7956E
:1039C0004A95E1F7EE71FF27E554FC4F98012F70FF
:1039D000332781E090E002C0880F991F2A95E2F713
:1039E00080959095208131818223932391838083D8
:1039F00060E0C8010E940F1980911B028D7F0E9418
:103A00003B0B82E00E94E01134CE9091F60393FDCF
:103A10008DCFC0CF88E0F701A5E3B2E001900D9211
:103A20008A95E1F71092370210923902109238020B
:103A3000809101049091020408171907D1F5209193
:103A4000F60325FF36C03091170131FF02C026FF73
:103A500030C02091FF03309100045601A21AB30A2E
:103A6000B7010E94330FA816B90618F58091BA0362
:103A700081FF08C08091170180618093170182E067
:103A80000E94560B8091BA0385FF08C080911701F0
:103A900080628093170180E20E94560B60911701AB
:103AA0006695617080910104909102040E940F1943
:103AB000E0CD80911B029091BA03982B20911701C1
:103AC00091FB21F9209317018D7F0E943B0B1093EE
:103AD000020400930104D0920004C092FF0380917D
:103AE00017018460809317018CCF970140E0B601E5
:103AF000C8010E942419BDCD053F4CE5140709F407
:103B000063C008F45BC0063F8CE5180709F462C087
:103B1000D70112963C91332309F4D8C51092C00402
:103B20000330BDE51B0708F061C00A3FECE51E0746
:103B300030F4C80182509C45449708F063C00E944D
:103B4000680E9093CF048093CE0402315CE5150794
:103B500009F49EC108F0EEC009309CE5190709F48C
:103B600075C108F0B8C00530BCE51B0709F462C197
:103B700008F09FC00330FCE51F0709F453C108F0AB
:103B800055C18091CE04816002303CE5130709F4F1
:103B9000CEC08091CE049091CF040E94110F0E945C
:103BA000391267CD07E225EE45EE68ED7CE51FC5CD
:103BB00006E221EE40EE63EF7CE519C507E225EE53
:103BC00044EE64EF7CE513C506E221EE42EE65EFBC
:103BD0007CE50DC507E225EE46EE66EF7CE507C500
:103BE00008E221E045EE69ED7CE501C5053AFDE519
:103BF0001F0709F4A4CF08F055C001364DE514079E
:103C000009F49DCF06318CE5180709F464C50A351F
:103C10005DE5150709F495C108F06EC101159CE535
:103C2000190709F474C10E3D1C4509F47DC1F70163
:103C300086819781009709F488C10E94A309182FF3
:103C4000092FF701D280C580C2943FE0C322809142
:103C5000F8018770C1F0AD2CDD20B1F0892F807F95
:103C6000803421F080E2810F883068F08091CF04A9
:103C700082FF09C082E00E94E0118091F801877004
:103C8000AA24A3948111A12C902E92942FE0922229
:103C9000FBE0F91508F4E6C1E92DF0E0E35DFA4C2C
:103CA0000C945D34C8018D5A9D45039708F0AACF46
:103CB00046CF8091CE04806207304CE51407B9F1FD
:103CC0008091CE04806108305CE5150780F1809119
:103CD000CE0480642CC00D308CE5180709F4C0C0F8
:103CE00090F48091CE048E7F0B30ACE51A07F9F08A
:103CF0008091CE048C600C30BCE51B07C0F0809135
:103D0000CE048D7F14C00F30ECE51E0709F4B8C057
:103D100008F4AAC000312CE5120709F4B5C080915F
:103D2000CE048F7B01313CE5130709F032CF80933D
:103D3000CE042FCF0F3F4CE5140709F4B3C0A8F50C
:103D40000A3F8CE5180709F479C0C0F40431ACE5EA
:103D50001A0709F4B5C008F4A1C00531ECE51E0747
:103D600009F017CF8091CE0482FB992790F921E0CA
:103D7000922790FB82F990FB83F9D9CF0C3FFCE5A9
:103D80001F0709F475C008F45DC00D3F3CE513073B
:103D900009F472C08091CF0483600E3F4CE5140794
:103DA00009F0F7CE8093CF04F4CE01365DE5150718
:103DB00009F491C090F401309DE5190709F489C018
:103DC00008F474C060E00230BDE51B0709F0E1CEE5
:103DD0008EE090E00E94E534DCCE0D3AEDE51E0762
:103DE000E9F060F49091CE04892F8E7F90FF81607E
:103DF000053A2DE5120709F49ACFCBCE0E3A3DE5F0
:103E0000130751F10F3A4DE5140709F0C2CE909116
:103E1000CF04892F877F93FF8860C4CF8091CF0420
:103E20008860C0CF8091CE04826081CF8091CE0423
:103E300084607DCF8091CE04886079CF8091CF045B
:103E40008160B0CF8091CF048260ACCF0E943912E4
:103E50008091CE0480686BCF8091CF04877FA2CF02
:103E60008091CE048B7F63CF8091CE04877F5FCF1C
:103E70008091CF048E7F96CF8091CF048D7F92CF9B
:103E80008091CE048F7E53CF8091CE048F7D4FCF13
:103E90000E9439128091CE048F7749CF8091CE0451
:103EA000837F45CF8091CF048C7F7CCF8091CF04DE
:103EB000982F909591708E7F892B90FB81F972CF0E
:103EC0000E9439129091CE04892F97FB87F9805870
:103ED0002ECF61E07DCF9091CE04892F8F7E94FF0D
:103EE000806125CF80919601811104C089E20E94F2
:103EF000840BC2CC85E3FBCF0C35BDE51B07B9F0C5
:103F000010F1073A1D4509F092CE0E947C160E94DE
:103F100039122FEF34E34CE0215030404040E1F7BC
:103F200000C000000E94250D0E94DC19EECF809198
:103F3000CF0482FB882780F991E089270E94FC1139
:103F400076CE81E0FBCF80E0F9CF828100811181C4
:103F5000882369F0C8010E94C50DD82E682FC801BA
:103F60000E940D0CB8018D2D0E94A80D66CEC801CF
:103F70000E94D90BD82EF6CF202F2F70B22E802F73
:103F8000807F19F0B29490EFB922DD20A9F0BB2018
:103F900059F080E2810F883010F0111107C08B2D8D
:103FA0000E945D0B0E94D310812F5AC0809103059F
:103FB000B82AB0920305F6CF812F0E94B116BB201C
:103FC00009F450C080E2810F883010F0111104C054
:103FD0008B2D0E94560B03C08B2D0E944F0B0E940D
:103FE000D31040C0302F3F70B32E802F807F80329F
:103FF00019F0B29480EFB822112321F1113009F4A5
:10400000AEC0DD2009F4B7C0CC2009F47FC020E0A9
:10401000D7014C9111965C91119712966C91129761
:1040200013967C91139714968C910E941E0E80918A
:10403000F80381FDB9CFF701858180FFB5CF8F707F
:10404000858364C08091CF0482FD40C0DD20C1F132
:10405000BB2029F08B2D0E945D0B0E94D31080E0C5
:104060000E946117A92DA850BB0B149710F40E9451
:104070000806812F902F0E94440C8111C2C110921A
:10408000990110929801AA20B1F08091F80180FD69
:1040900012C0D70112961C928595859585950E9430
:1040A0001112C7010E94471A8091F80185958595E4
:1040B00085950E94D31160E0C7010E94410EE9CAB4
:1040C00080E00E94B116BB2069F282CFDD2011F1A1
:1040D000C11004C080911B028B2919C041E0C41299
:1040E00006C080911B028B290E943B0BBBCF8091A5
:1040F000F703823078F3C812EDCF0E94300B909115
:1041000097018B2D892B8913809397018B2D0E940A
:10411000AA16A8CFC11003C00E94300B17C080910F
:10412000F70351E0C51216C0823008F49BCF80918E
:10413000BA038B2109F496CF0E94300B909197011E
:104140008B2D809589238913809397018B2D0E9455
:10415000A31688CF823000F3C812DECF83CF8091C0
:10416000FD03DD2021F08C1508F47CCFCFCFC816DD
:1041700008F078CFEBCFCC2049F38091FB039091EE
:10418000FC03193321F08091F9039091FA030E9406
:10419000490D812F0E94B11665CF802F8695869597
:1041A000837069F0813009F05DCF812F902F93707B
:1041B000D11002C090E080E00E94DC0553CF812F37
:1041C000902F9370D11002C090E080E00E94F20521
:1041D00049CF812FDD2029F00E94DF080E949D0732
:1041E00041CF0E94C407FACF802F837091F5D11080
:1041F00039CF412F429546954770440F440F812F88
:104200008F70042E01C0880F0A94EAF7212F2071C5
:1042100014FF07C02FE030E001C0220F4A95EAF7F3
:104220002095302F369536953370323069F050F442
:1042300040911C02313029F0822B84230E943412D9
:1042400011CF842B822BFACF282B80911C0282273E
:10425000F5CF8695DD2011F0802F8170882309F439
:1042600001CF412F429546954770440F440F812F4F
:104270008F70042E01C0880F0A94EAF7212F207155
:1042800014FF07C02FE030E001C0220F4A95EAF783
:104290002095302F369536953370323069F050F4D2
:1042A00040910205313029F0822B84230E94C211F3
:1042B000D9CE842B822BFACF282B8091020582271E
:1042C000F5CFF02FFF70BF2EDD2029F08F2F0E9439
:1042D0001112812F1CCF812F0E94A3168B2D0E94BB
:1042E000D311C0CE123F89F160F4103FB9F0113FF5
:1042F00081F0DD2009F480C0C11056CE802F8F716F
:1043000028C0133F49F1143FA1F78091CF0482FDEB
:104310002FC0802F8F71DD2011F31BC08091FD0312
:10432000DD2079F0C81608F09DCE202F2F7181E096
:1043300090E001C0880F2A95EAF79091020589273D
:10434000B5CF8C1508F48ECEF0CF802F8F71D110A1
:10435000C6CF0E94111286CE80E0DD2009F4A6CFE0
:1043600081E0902F9F7101C0880F9A95EAF79ECF48
:104370008091F703823040F1DD20D1F09091F80177
:104380009770943041F40E94630B802F8F710E94CC
:10439000D311A12C67CEC816E0F7202F2F71B22EB3
:1043A000822F0E94111263E08B2D0E941D12F1CF0B
:1043B000C81630F00E94630B64E0802F8F71F5CF38
:1043C00081E00E94E011E5CFDD2059F0302F3F71F0
:1043D000B32E832F0E94111263E08B2D0E941D12B9
:1043E00041CE81E00E94E01141E04C1508F03ACE48
:1043F00082E00E94E01136CEC110BFCE802F8F71B7
:104400006ECFDD2019F0C1103ACE3DCEC11037CEAF
:1044100020E0F701408151816281738184810E9493
:104420001E0E8091F80383FF2ACE8091980190910F
:104430009901029709F023CE812F0E94CE171FCE3B
:10444000552029F0DC0118968C9185FF33CAC801EC
:1044500097558F3F910511F008F071C05801BB24AA
:10446000BEE00B9FF00111249F0127593D4F6901C8
:10447000D70112968C91E259FD4F908180FB90F903
:104480009083882309F41DCA0E949B0590933402EF
:1044900080933302F60182818F5F828380910305CE
:1044A0009091BA03892B838380911B0284830680B9
:1044B000F781E02D309731F0D6011C966D917C91FB
:1044C000C60109958EE08A9DF0018B9DF00D1124A7
:1044D000E759FD4F858181FFF1C990E080E090931D
:1044E000C1048093C2042BC08091940190919501E6
:1044F0000817190781F410929501109294011092F7
:10450000B3041092B4041092B5041092B604109241
:10451000BB041092BA048091BC049091BD04009732
:1045200009F495CFA8E08A16910408F0B8C9642D63
:104530000E946606811103C081E00E94E31680910B
:10454000F60380FF39C00E949B056C01D7011296CB
:104550008C91882309F4CBC98091170182FF08C090
:1045600025E332E040E0B60190E080E00E942419AB
:104570000B31BCE51B0709F4ACC90C31ECE51E0797
:1045800009F4ADC990911701892F8E7F90FF81604A
:104590000A31FCE51F0709F4A5C9C8019056811529
:1045A00020E2920728F0905E8115904108F0ADC995
:1045B0001092020410920104033FBCE51B0709F4AA
:1045C000F7CA08F099CA083DFCE51F0709F4EACAD2
:1045D000093D2CE5120709F403CB073D3CE5130721
:1045E00009F096CA06E221EE41EE67ED7CE5C701CF
:1045F0000E9491183EC80031FFE51F0709F434C836
:1046000001312FE5120709F040C082E02EC80031C9
:104610003FE5130709F441C801314FE5140709F4D8
:1046200040C86801E7E5DE1AFFEFCF16D10409F0B4
:1046300060F56FE572E08C2D0E941F0F892B29F524
:104640008EE08C9DF0018D9DF00D1124E759FD4FFA
:104650008281813009F027C880915F0290916002C9
:10466000892B99F08091610290916202892B69F007
:1046700080916302909164022091650230916602FC
:10468000822B932B892B09F419C8D70112965C90C1
:10469000552009F428C80F35BDE51B0709F41FC8CC
:1046A0000036EDE51E0759F00E35FDE51F0709F050
:1046B0001AC880910001882311F40C946F1B10928A
:1046C000000180E00E94E3160C94391B06315CE582
:1046D000150709F0ACCA8091BA03982F9A7A2091F5
:1046E000F50320FF04C0482F447409F090E021FF37
:1046F00004C0482F417109F090E022FF04C0482F08
:10470000487809F090E023FF03C0827209F090E03E
:10471000332309F4E7CB81E0911101C080E080935D
:10472000960169E2911165E384E791E00E94A70593
:10473000A3C8A114B10409F069C8512CB12CA12C53
:1047400080E00E94E316D092BD04C092BC0481E0D8
:104750008093B904F60185818093B70451100EC08F
:10476000AB2861F0F601808191819C0124503109D0
:10477000213A310508F071C80E94840BD6011696C3
:10478000AD90BC90C5019A9581159F4110F4E0EE63
:10479000BE2277247394C5010197803B9D4508F0A4
:1047A000712CD6011996ED91FC911A97309731F042
:1047B0001B966D917C9181E009957822772079F0A4
:1047C000F601868197810E945F0C8093B804C50131
:1047D000F8E08F16910408F043C80E9415060E9465
:1047E000D31047C8B0E0A0E0E8EFF3E20C947434D3
:1047F0008091B101807F31F48091AE01C091F501CB
:10480000811107C0CDB7DEB7E8E00C949034219653
:10481000C7708091B4018C17A9F3F090AC01E090BF
:10482000AD01C090AF01D090B001A6016E2D8F2DCB
:104830000E948606D0E08111EACF8E0183E0000F4E
:10484000111F8A95E1F7F801EB54FE4F81818E111B
:10485000DECF80818F11DBCF82818111D8CFE380C1
:10486000F480EC18FD0860E08CEA91E00E94410EB3
:104870006CEA71E00E94330FE816F90640F6809169
:10488000B1018F7080618093B101F801E654FE4F51
:1048900080818F70806180838CEA91E00E94471A4A
:1048A0000E94CF0BAFCFA5E1B0E0E9E5F4E20C94B4
:1048B0006D348C0185E0F801DE01519601900D9276
:1048C0008A95E1F7D8015C9011966C901197129639
:1048D000EC9012971396CD90DC9060E08CEA91E01A
:1048E0000E94410E8CEAA82E81E0B82E8090AF0184
:1048F0009090B001A4016091AD018091AC010E9443
:1049000086068111A8C1F090AE01F601E819F909F7
:104910004F0160E0FF2009F44BC1C5010E94410E28
:10492000B5010E94330F7090B1018816990608F006
:10493000F2C04091AF015091B001B090AC01A09095
:10494000AD01872D807F6A2D09F08CC08B2D0E94D0
:104950008606FE2C811127C0D80111968C911197E3
:104960008A1121C08C918B111EC02091B20130910F
:10497000B30116968D919C9128173907A1F4E11087
:1049800012C0872D8F7080618093B1018CEA91E015
:104990000E94471A8091B101F80185838F2D659699
:1049A000EFE00C948934A601662D852D0E948606C1
:1049B000D82E81E08E25D11080E080FF18C04E2DCA
:1049C000662D852D0E94AF0B882389F08091F80316
:1049D00080FF0DC08CEA91E00E94471A88E0ECEA63
:1049E000F1E0DF011D928A95E9F7F12CD7CF81E044
:1049F0008E25D11080E0B82FB170CB2E80FF29C05A
:104A00004E2D662D852D0E94AF0BD82E811121C011
:104A1000598A6A8A89899A890E94F40D292F2295D8
:104A20002F70223050F0243078F49F7051F0F8014C
:104A30009581907F31F4FD2CB1CF9F7011F08823C8
:104A4000D1F3805E8830B8F3C8010E94471ADC2C8D
:104A5000F2CFEE2009F4A2CF8091B1018160809362
:104A6000B101C3CF8B2D0E948606811124C0D801CD
:104A700011968C9111978A111EC08C918B111BC0BD
:104A80002091B2013091B30116968D919C911797A8
:104A90002817390781F4E1100EC015967C92C801E1
:104AA0000E94471A88E0F801ACEAB1E001900D924B
:104AB0008A95E1F773CFC8010E94010E882339F16E
:104AC000EE2029F18091B1018032A0F02091AC015B
:104AD0003091AD013A8729871B86DD86CC868E878B
:104AE0008091B2019091B301988B8F87CE01099686
:104AF0000E94471A88E0F801ACEAB1E001900D92FB
:104B00008A95E1F70E94F223FF24F39447CFC8016E
:104B10000E94471AF9CF872D807F09F45BCF9090D0
:104B2000AC018090AD014091AF015091B001682D72
:104B3000892D0E94860681111CC0F801818188118F
:104B400018C08081891115C02091B2013091B30144
:104B5000868197812817390761F4E1100AC07582B0
:104B6000C8010E94471A88E0D5011D928A95E9F78D
:104B700015CFC8010E94010E882349F2EE2039F2B8
:104B80008091B101803208F4B5CF2091AC01309111
:104B9000AD013A8329831B82DD82CC828E83809192
:104BA000B2019091B30198878F83CE010196A0CF77
:104BB0008CEA91E00E94410E6CEA71E00E94330F92
:104BC0008816990680F6FE2CEE2009F4A0CFE0901E
:104BD000AC01D090AD014091AF015091B0016D2D6D
:104BE0008E2D0E948606811128C0F80181818D11C9
:104BF00024C080818E1121C02091B2013091B30177
:104C00008681978128173907C1F48091F80382FDC6
:104C100049CF9091B10190FD45CF907F09F442CFEB
:104C20008091B1018583903F09F439CF982F907F0F
:104C3000905F8F70892B858332CFC8010E94010E4F
:104C4000811158CF8091B10181608093B101C80179
:104C50000E94471AA3CEEE2009F459CFC8010E9442
:104C6000010EF82E882309F452CF88E0F801ACEA4F
:104C7000B1E001900D928A95E1F78091AC0190919D
:104C8000AD010E94F40D0E94F22388CEA0E1B0E0B5
:104C9000ECE4F6E20C947A3429873A874B875C87F8
:104CA0006D877E878F87988BCE0109960E9453244B
:104CB00081112FC088E0FE013996DE011196019026
:104CC0000D928A95E1F74C855D856A8589850E94FC
:104CD000860681111EC0A091B401B0E0CD010196FD
:104CE000877099272091F50128171906E1F093E0C4
:104CF000AA0FBB1F9A95E1F7AB54BE4F98E0FE0197
:104D0000319601900D929A95E1F78093B4010E943B
:104D1000CF0B8091F5019091B401891312C0609678
:104D2000E2E00C9496340E9439121092B401109271
:104D3000F50188E0ECEAF1E0DF011D928A95E9F7E0
:104D4000E8CFB8E08B9FC00111248B549E4F0E9486
:104D50005324882321F38091F50190E00196877018
:104D600099278093F501D5CFEF92FF920F931F9370
:104D7000CF93DF9380910604882361F0C0910504EE
:104D80008CE0F82E80910604C81748F010920604B3
:104D900010920504CDB7DEB7E6E00C949234EE2411
:104DA000E394EC0EE09205040C2F10E0CF9DE0019F
:104DB0001124C95FDB4F4B815C81698188810E942E
:104DC000860681111DC08E819F81892B21F48885E3
:104DD0009985019651F4288139814A815B816C81E2
:104DE0007D818E819F810E944626F09EF001F19E7A
:104DF000F00D1124E95FFB4F14821382109203051A
:104E0000CE2DC0CF1092AA041092A90410921801BE
:104E10008091A8048093A7040E94BF060E94B42634
:104E20000895B0E0A0E0E7E1F7E20C946B34C091A4
:104E3000A70497E0892E01E010E02CE0322E3EEF2F
:104E4000932E442443948091A8048C1309C00E949B
:104E5000B4260E94BF06CDB7DEB7E1E10C948734DB
:104E6000D0E0FE01EE0FFF1FE156FB4F80819181E4
:104E7000889ED001899EB00D1124A959BB4F14966C
:104E80002C911497211158C050900604E7E0F4E0EB
:104E900030E020E0712C5D01251508F04BC0E28464
:104EA000F384D501CD90DC906FEF7FEF612C462D20
:104EB00050E0DA01AA0FBB1FAC0DBD1D0D90BC91D7
:104EC000A02D109731F0EA16FB0609F4BA0163949D
:104ED000EECF6F3F7607A9F1D80102C0AA0FBB1F22
:104EE0006A95E2F77A2AB801062C02C0660F771F8E
:104EF0000A94E2F7AB014150510974161506F9F412
:104F0000329EF001339EF00D1124E95FFB4F889E25
:104F1000D001899EB00D1124A959BB4F12962D9135
:104F20003C91139737832683908291829187808763
:104F300015964C920E9491062196C37084CF1482DC
:104F400013822F5F3F4F3C96A7CFA9E1B0E0EBEA79
:104F5000F7E20C946A34942F498B252F5A8B6B8B74
:104F60007C8B8D8B4C895D89622F892F0E948606F0
:104F7000811109C0809198019091990101969093B7
:104F80009901809398018B898111109203051D86E8
:104F90001E861F86188A85E0FE017196DE0119962D
:104FA00001900D928A95E1F78091CF0482FF1EC097
:104FB0008091DD039091DE03892BC1F00E949B0557
:104FC0002091F6013091F701821B930B2091DD03B4
:104FD0003091DE038217930720F08091F80182FF61
:104FE000E2C10E946A0B81110E94300B4C855D85E5
:104FF0006A8589850E948606811111C061E0CE0113
:1050000009960E94410E6C018B8527EFC2162CE594
:10501000D20681F4882321F181E08093180129854B
:105020003A854B855C856D857E858F8598890E9444
:105030004626C6C038EFC3163CE5D30629F48823BC
:1050400079F00E940227EBCF49EFC4164CE5D40655
:1050500039F4882329F0809118018111F2CFDCCF37
:1050600007E614E0512CB12CA12C22242394312CDE
:105070002EEF422EF8014081518188248A94982C89
:1050800020E0822F90E0FC01EE0FFF1FE40FF51FE0
:10509000608171816115710531F0C616D70609F47A
:1050A0004C012F5FEECFF12CFFEF8F169F0609F416
:1050B00049C0F8014481F09018018F2D411180E022
:1050C000F82FF170FF2EF801E58086819B859923EA
:1050D00009F4F8C0FF2009F4F5C06090F103709066
:1050E000F203E11013C0A101082C01C0440F0A947F
:1050F000EAF7842B8683809103049091040486153B
:10510000970520F47092040460920304C10102C068
:10511000880F991F2A95E2F70197F8012681281731
:10512000190681F48091A9049091AA04009709F4CA
:105130004BC00E9480056816790608F045C021E042
:10514000F80124835F28FFEFAF1ABF0A095F1F4FE2
:1051500028E0A216B10409F08DCF8B85882309F4CD
:105160000DC1552009F40AC10E949B059093AA0421
:105170008093A90480910604883010F591E0980F7F
:105180009093060498E0FE013996DE011196019095
:105190000D929A95E1F73CE0839FC0011124895F4D
:1051A0009B4F28E0FE013196DC0101900D922A957B
:1051B000E1F72FEF3FEFFC0131872087D386C286CE
:1051C0006996E2E10C9486348091A7045091A8047A
:1051D000982FF0E0E0E0851314C09093A704E01747
:1051E000F10709F4AFCF90E0FC01EE0FFF1FE1568D
:1051F000FB4FB182A0820196837099278093A80407
:10520000A1CF682E712CF301EE0FFF1FE156FB4F6B
:105210002081318147E0429FD001439FB00D11248E
:10522000A959BB4F6D917C911197798F688F40E0A0
:1052300020E030E0E32FF0E0EE0FFF1F688D798D66
:10524000E60FF71F8080918081149104E1F0F8014E
:105250000190F081E02DFF8BEE8B20E005C08616DB
:10526000970609F44F2D2F5FE22FF0E0EE0FFF1F9E
:105270006E897F89E60FF71F608171816115710565
:1052800071F73F5FD7CF4423D1F0F801231708F01F
:10529000FD0121E024830E171F0721F49093A7043A
:1052A000F42E50CF981305C0AE17BF0711F49F5FBF
:1052B000937093012F5F3F4F822F83708CCFF0E06C
:1052C000E0E0F7CF90E0E11020C0B10102C0660F2E
:1052D000771F2A95E2F79B01215031098217930726
:1052E00031F4442309F448C0C5010E949106C1016C
:1052F000082C01C0880F0A94EAF7982F9095F801BE
:10530000868189238683FE2C1DCF9C01082C02C038
:10531000359527950A94E2F7A90141705527BC01FC
:105320006150710986239723892B11F5452B01F1D3
:10533000F80182819381892BC1F01B821C821D821E
:105340001E8249824A820E949B058160582F9D835C
:105350008C83F801828193818F83988729813A8198
:105360004B816D817E810E944626F8011582BFCF58
:10537000F22FF170EF2EBBCFEF2CB9CF9091A70495
:105380008091A804981731F00E941127552009F444
:1053900046CE16CF0E94B4261092AA041092A904F9
:1053A0000E94BF06F3CF82E00E94E0111ACEA5E072
:1053B000B0E0EDEDF9E20C947A349093B70380936A
:1053C000B603811520E2920730F40E944917259612
:1053D000E2E00C94963480EF89838A831B820E94DA
:1053E0009B058160782F9D838C8349815A816B81D5
:1053F0008D810E94A527EBCF0F931F93CF93DF934F
:105400008C01EB016FE572E08C2F0E941F0F892B3E
:10541000A1F48091F9039091FA030E94490DDD27D0
:10542000C95ADD4F8881F801128218828330F1F069
:1054300048F4813059F0823081F0DF91CF911F9193
:105440000F9108958430B9F08530B9F780915F02EB
:1054500090916002009789F306C08091610290915B
:105460006202009799F30E94D729E7CF80916302E7
:1054700090916402F6CF8091650290916602009748
:1054800091F720915F0230916002809161029091CA
:10549000620221153105F1F2009729F7C901E3CF26
:1054A000A5E0B0E0E6E5FAE20C947A349093B70315
:1054B0008093B603811520E2920730F40E94F7181A
:1054C0002596E2E00C94963480EF89838A8381E00C
:1054D0008B830E949B058160782F9D838C834981FB
:1054E0005A816B818D810E94A527EACFCF93DF93EC
:1054F000EC010E94502A8091F9039091FA030E94D6
:10550000490DCE010E94D729DF91CF9108950F93C5
:105510001F93CF93DF938C01862F6FE572E00E947B
:105520001F0F892BB1F4C0915F02D09160022097C8
:1055300081F0F8018281833051F4CE010E94762AF5
:10554000CE010E94762ACE010E94762A02C08430C3
:10555000D0F7DF91CF911F910F9108950F931F9373
:10556000CF93DF938C01EB016FE572E08C2F0E94EB
:105570001F0F892B09F05CC0FE01FF27D80112968E
:105580008C911297E95AFD4F8130B9F415969C9190
:1055900092FF02C080830AC090FFFCCF82E080832C
:1055A00080916102909162020097B9F480915F024C
:1055B000909160020097E1F110C08230B9F5159624
:1055C0008C9182FD28C080FD0BC083E08083809198
:1055D000630290916402009701F10E94502A28C052
:1055E00084E0808380916502909166020097A9F71C
:1055F00080915F02909160020097F9F00E94762AF4
:105600008091610290916202009739F780915F0268
:1056100090916002E2CF85E0808380915F0290915B
:105620006002009729F00E94762AF0CF86E08083FE
:10563000DF91CF911F910F91089580916102909118
:105640006202B8CF1F920F920FB60F9211242F93C0
:105650003F934F935F936F937F938F939F93AF93FA
:10566000BF93CF93DF93EF93FF93D091E900DF7067
:105670008091EC00C82FC17080FDC0E81092E90055
:105680008091F000877F8093F00078940E944F1201
:105690001092E9008091F00088608093F000CD2B9B
:1056A000CF70C093E900FF91EF91DF91CF91BF914F
:1056B000AF919F918F917F916F915F914F913F91AA
:1056C0002F910F900FBE0F901F9018951F920F9261
:1056D0000FB60F9211242F933F934F935F936F93C5
:1056E0007F938F939F93AF93BF93EF93FF9380919B
:1056F000E10082FF09C08091E20082FF05C0809135
:10570000E1008B7F8093E1008091DA0080FF24C06C
:105710008091D80080FF20C08091DA008E7F809336
:10572000DA008091D90080FF9DC080E189BD82E1CF
:1057300089BD09B400FEFDCF81E080930105809111
:10574000D304811109C00E94D0030E94C304809138
:10575000E20084608093E2008091E10080FF17C046
:105760008091E20080FF13C08091E2008E7F8093E1
:10577000E2008091E20080618093E2008091D80095
:1057800080628093D80019BC85E0809301058091E8
:10579000E10084FF2BC08091E20084FF27C080E1FC
:1057A00089BD82E189BD89B5982F917080FFFBCFBB
:1057B0008091D8008F7D8093D8008091E1008F7E0A
:1057C0008093E1008091E2008F7E8093E2008091DF
:1057D000E20081608093E2008091F804882309F45C
:1057E00047C084E080930105809101058091E1002C
:1057F00083FF27C08091E20083FF23C08091E100F6
:10580000877F8093E10082E0809301051092F80485
:105810008091E1008E7F8093E1008091E2008E7F95
:105820008093E2008091E20080618093E20042E098
:1058300060E080E00E9491048091F0008860809395
:10584000F000FF91EF91BF91AF919F918F917F9168
:105850006F915F914F913F912F910F900FBE0F90DD
:105860001F90189519BC109201051092D30474CFA3
:105870008091E30087FD93E090930105B5CF789484
:105880001F921FB61F9211248F939F93AF93BF93C4
:105890008091CA049091CB04A091CC04B091CD0426
:1058A0000196A11DB11D8093CA049093CB04A093CF
:1058B000CC04B093CD04BF91AF919F918F911F9075
:1058C0001FBE1F9018951F921FB61F9211248F9311
:1058D0009F93AF93BF938091C904811113C08091AE
:1058E000CA049091CB04A091CC04B091CD04419610
:1058F000A11DB11D8093CA049093CB04A093CC0446
:10590000B093CD04BF91AF919F918F911F901FBE17
:105910001F901895CDB7DEB7EE970FB6F894DEBF9F
:105920000FBECDBF85B7806885BF85B7806885BF4E
:1059300084B7877F84BF0FB6F894A89580916000E4
:10594000886180936000109260000FBE80E890E054
:105950000FB6F89480936100909361000FBE87E4C6
:1059600099E090937301809372010E9478070E94DE
:10597000DD0F0E94510F0E94530D0E94D0030E9420
:10598000C3048091E20084608093E2007894809167
:1059900001058823A1F01091E9001F709091EC009F
:1059A000892F817090FD80E8182B1092E90080917A
:1059B000E80083FD0E944F121F701093E90082E0FF
:1059C00084BD93E095BD9AEF97BD80936E000E94D1
:1059D0004F0E811102C00E94F31583E90E9449090C
:1059E00085E90E94490986E90E94490984E90E94E3
:1059F000490907E511E0B3E6EB2EB1E0FB2ED80133
:105A00008D918D018F3F11F00E944909E016F1063A
:105A1000B1F788E0E2E4F2E0DF01282F1D922A9539
:105A2000E9F7E0E2F2E0DF011D928A95E9F790E004
:105A300080E00E94DF34883E9E4F21F40E944F0E8A
:105A4000811102C00E94DC1982E090E00E94D734EC
:105A500080932A020E94680E9093CF048093CE0414
:105A60000E942110EFEFF6E721E0E150F0402040E6
:105A7000E1F700C000000E9421108091420280FFE7
:105A800008C06FEF7FEF90E080E00E9403350E9436
:105A9000250D83E090E00E94D7340E94341281E00B
:105AA00091E09093C6048093C5041E013BE2230E4F
:105AB000311C8091010500E112E1853009F490C0AC
:105AC0000E942110FBE2AF2EF2E0BF2EA2E48A2E4C
:105AD000A2E09A2ED401F501219131918D919D91F1
