:100000000C94F8020C9430030C9430030C943003DD
:100010000C9430030C9430030C9430030C94300394
:100020000C9430030C9430030C94C02A0C947C2A5A
:100030000C94BD2B0C9430030C9430030C943003BF
:100040000C9430030C9430030C9430030C94300364
:100050000C9430030C94992B0C9430030C943003C3
:100060000C9430030C9430030C9430030C94300344
:100070000C9430030C9430030C9430030C94300334
:100080000C9430030C9430030C9430030C94300324
:100090000C9430030C9430030C9430030C94300314
:1000A0000C9430030C9430030C94300305010902C6
:1000B000A10185020901A100050919012905150001
:1000C00025019505750181029501750381010501E1
:1000D000093009311581257F950275088106093897
:1000E0001581257F950175088106050C0A380215D2
:1000F00081257F950175088106C0C005010980A191
:1001000001850319012AB700150126B7009501756D
:10011000108100C0050C0901A101850419012AA064
:1001200002150126A002950175108100C005010984
:1001300006A1018506050719E029E71500250195A7
:1001400008750181020507190029EF1500250195A1
:10015000F0750181020508190129059505750191C0
:1001600002950175039101C00660FF0961A10109B3
:1001700062150026FF0095207508810209631500AD
:1001800026FF00952075089102C005010906A1010E
:10019000050719E029E71500250195087501810279
:1001A0009501750881010507190029FF150026FF33
:1001B0000095067508810005081901290595057542
:1001C000019102950175039101C0FD377A585A00DB
:1001D0000004E6D6B4460200210116000000742F88
:1001E000E5A3E002CD01195D003D888986D3DC0AD4
:1001F000E842C324925842588FD8E75CA0D2616E7F
:1002000026E888019A676C7887BC8D3709EA0E1456
:1002100059A53C798586633FDCC445A3F020FF20C7
:10022000B3687235CC77FE57F71DCDC486FDE5E87F
:10023000F629B306CB2F6EAEAFE01E70F839F93F4A
:100240008C550AE237DC3A1FC42FB478D68E0A13D5
:10025000B76D33F6BE730C2666F874FC378E7039B2
:100260005AB8D0FCA9727A76FBCAD1D5E778421485
:1002700073AFF07110EB64D8DA93B0A67B7991B6C6
:1002800022F3DF1FB3F727C5ACF2F0E7A831E2C0D5
:10029000B4DEC80A7E2DAF42BC8EA7030BF6322F08
:1002A0000F772F4BB972D6155E62174C5131291C4E
:1002B0004C32D6A03582FBF54883BEBAFF13C4E8A2
:1002C0006E0A840184A1A9F79FD7A024F15D7EE482
:1002D00032C85BC84D156C44E0EFB14BDA2E91F19A
:1002E000565D1C20417E97C7AEAAD9CE0D45177228
:1002F00067AC6A92AB8DD9C0C7879BE786474F73BF
:100300007B00000000007B3C97F513B214E900016C
:10031000B502CE050000A55ECB63B1C467FB020049
:1003200000000004595A0000000000000000000016
:1003300000000000000000000000000000000000BD
:1003400000000000000000000000000000000000AD
:10035000000000000000000000000000000000009D
:10036000000000000000000000000000000000008D
:10037000000000000000000000000000000000007D
:1003800000000000000001000100F303B10DE40DC6
:10039000000002000200EF03B10DE40D00000300B5
:1003A0000100F403B10DE40D000004000200D903C4
:1003B000B10DE40DA90605000100F503B10DE40D32
:1003C000000006000200DB03B10DE40D0000070091
:1003D0000200F103B10DE40D000008000100F60376
:1003E000B10DE40D000009000200DD03B10DE40DC4
:1003F00084060A000200DF03B10DE40D84060B0041
:100400000200E103B10DE40D84060C000200E303D9
:10041000B10DE40D84060D000200E503B10DE40DFD
:1004200084060E000200E703B10DE40D84060F0000
:100430000200E903B10DE40D840610000200EB0395
:10044000B10DE40D840611000200ED03B10DE40DC1
:10045000840612000200F703B10DE40D0000130042
:100460000200F903B10DE40D000014000100FB03CC
:10047000B10DE40D00001500000000000A06521541
:10048000000009025B00030100A0FA09040000015A
:10049000030101000921110100012240000705812B
:1004A00003080001090401000203000000092111F2
:1004B0000100012222000705820320000107050335
:1004C00003200001090402000103000000092111BA
:1004D00001000122BC000705840320000112010075
:1004E0000200000008646D766D0001010203011C2A
:1004F000037600690061006C003A00660036003443
:100500000063003200620033006300000010034DFE
:10051000006F00640065006C002D00560000001A9A
:10052000034D0061007400740068006500770020CE
:100530000044006900610073000000040309040026
:1005400000000000000000000000000000000000AB
:10055000000000000000000000000000000000009B
:100560000000007E0F00D4FFFFFFC70000007800EE
:10057000000000000000002A2B28000000000000FE
:100580000000000000000000000029000000002C16
:100590001E3420212224342627252E362D373827B5
:1005A0001E1F202122232425263333362E37381FC1
:1005B0000405060708090A0B0C0D0E0F1011121383
:1005C0001415161718191A1B1C1D2F3130232D3521
:1005D0000405060708090A0B0C0D0E0F1011121363
:1005E0001415161718191A1B1C1D2F3130354C0005
:1005F00011241FBECFEFDAE0DEBFCDBF04B603FE8D
:1006000018C08091020590910305A0910405B09156
:1006100005058730904BA740B04B59F41092020566
:10062000109203051092040510920505E0E0F8E32E
:10063000099511E0A0E0B1E0E0E5F8E602C0059020
:100640000D92A437B107D9F725E0A4E7B1E001C0C6
:100650001D92A230B207E1F70E94E42B0C94FB3309
:100660000C940000E8EDF0E080818E7F8083109292
:10067000E2001092DA001092E100A0EEB0E08C915E
:1006800081608C9380818F77808319BCA7EDB0E067
:100690008C918E7F8C9380818F7E80831092D10489
:1006A00008952091E4003091E50095E6A90120919C
:1006B000EC00822F817020FF06C08091E80080FF4F
:1006C00006C080E008952091E80022FD1AC08091C4
:1006D000F604882389F0853089F08091EB0085FD50
:1006E0000FC02091E4003091E50042175307F9F262
:1006F0009150E1F684E0089582E0089583E0089542
:1007000081E00895EF92FF920F931F93CF937C01A6
:100710008B010E945103C82F811117C08091E800FE
:1007200085FD0BC08091E8008E778093E8000E94E1
:100730005103882399F3C82F08C0F70181917F01E5
:100740008093F1000150110949F78C2FCF911F912F
:100750000F91FF90EF9008958091F80487FF13C0E8
:100760008091E80082FF06C08091E8008B7780933B
:10077000E80004C08091F6048111F2CF08958091C1
:10078000F6048823D9F38091E80080FFF8CF8091A8
:10079000E8008E77ECCF982F9093E900242F762FE6
:1007A00050E0891731F07091EC002091ED005091EC
:1007B000F00021FD07C09F5F973071F78093E9003B
:1007C00081E008953091EB003E7F3093EB00309153
:1007D000ED003D7F3093ED003091EB0031603093C0
:1007E000EB007093EC002093ED005093F00020910B
:1007F000EE0027FDE0CF80E00895B0E0A0E0E3E068
:10080000F4E00C944E33C8EDD0E088818F7E88836D
:10081000E7EDF0E080818160808384E082BF81E049
:100820008093D10488818E7F888302EE10E0F801E6
:1008300010821092DA0081EEC82ED12CF6011082BF
:1008400088818F77888388818068888388818F7D7D
:10085000888319BC1092F6041092F7041092F504E4
:100860001092F40490EEE92EF12CF70180818B7F39
:10087000808388818160888342E060E080E00E941C
:10088000CB03F60180818E7F8083F80180818160B7
:100890008083808188608083F70180818E7F808360
:1008A000888180618883CDB7DEB7E8E00C946A3335
:1008B000FC018091FE049091FF0486179707A0F039
:1008C0006115710529F49091E8009E779093E800F6
:1008D00090E06115710551F4911108C08091E80014
:1008E00082FF34C080E00895BC01F2CF8091F6040D
:1008F0008823C1F18530C1F18091E80083FD30C0CB
:100900008091E80082FDEACF8091E80080FFE1CF8E
:100910008091F3002091F200382F6115710519F0D4
:100920002830310558F091E02830310509F090E089
:100930002091E8002E772093E800CBCF819180931F
:10094000F100615071092F5F3F4FE7CF8091F604AE
:10095000882341F0853041F08091E80083FFBECFCD
:1009600081E0089582E0089583E0089508958091DC
:10097000D30408959C014FB7F8948091C8049091D6
:10098000C904A091CA04B091CB044FBF821B930B42
:1009900008952FB7F8946091C8047091C9048091AC
:1009A000CA049091CB042FBF08952FB7F89480917B
:1009B000C8049091C904A091CA04B091CB042FBF80
:1009C000089520911B012223C1F02091CC0427FF20
:1009D00014C0E62FE695E695E695EE31F8F4E80FBB
:1009E000F92FF11D677021E030E001C0220F6A95F8
:1009F000EAF78281822B82830895FC0132962FEFE1
:100A000030E04191641751F02F3F19F4411101C0BA
:100A1000232F3F5F3630A9F72F3F09F40895820F47
:100A2000911D27FD9A95FC01628308952091C504CC
:100A30003091C6042817390771F09093C60480934B
:100A4000C504E091C304F091C404309721F0008400
:100A5000F185E02D099508952091C1043091C204DB
:100A60002817390771F09093C2048093C104E09174
:100A7000C304F091C404309721F00680F781E02D83
:100A800009950895E091C304F091C404309729F0CA
:100A90000190F081E02D0995089580E00895CF93AD
:100AA000DF93EC014091B1045091B2046091B30422
:100AB0007091B4042FB7F8948091C8049091C90440
:100AC000A091CA04B091CB042FBF841B950BA60B39
:100AD000B70B843F9140A105B10518F58091B10491
:100AE0009091B204A091B304B091B4048093AD048A
:100AF0009093AE04A093AF04B093B00484EF91E060
:100B0000A0E0B0E08093A9049093AA04A093AB0462
:100B1000B093AC04D093B904C093B804DF91CF91E3
:100B200008950E94C9046093AD047093AE0480934D
:100B3000AF049093B00482E390E0A0E0B0E0E2CF95
:100B4000FC018481862351F492819923B9F06923B1
:100B5000808583FF05C081E061110FC080E00895AA
:100B6000892F8F7092959F70982B862F8F7062952A
:100B70006F70682B81E09613F1CF089581E0FDCF6F
:100B8000452B39F0682381E06F3F09F080E08170E8
:100B9000089581E0FCCFDC016091A5048091A6045A
:100BA000962F891301C00895292F30E0F901EE0F27
:100BB000FF1FE356FB4F408151814A175B07A1F4A9
:100BC00087E08A9FA0018B9F500D11244B595B4FEA
:100BD00081E0FA0184839613E6CF2F5F3F4F2370A5
:100BE00033272093A50408952F5F3F4F922F9370D2
:100BF000D8CF1092020410920104E5E6F4E085815A
:100C0000811102C014821682379684E0ED39F8070C
:100C1000B1F70895B0E0A0E0E0E1F6E00C944C33C9
:100C20008FEF9FEF4430510508F469C04091CC0428
:100C300041FB882780F990E0880F991F42FB00272D
:100C400000F910E0000F111F000F111F802B912BD6
:100C500040FBCC24C0F8D12C8C299D2943FB2227B2
:100C600020F9C22FE0E0DE2F53E0CC0FDD1F5A95B4
:100C7000E1F78C2B9D2B44FBAA27A0F9B0E0E4E020
:100C8000AA0FBB1FEA95E1F78A2B9B2B45FBEE27AA
:100C9000E0F9F0E0A5E0EE0FFF1FAA95E1F78E2B3B
:100CA0009F2B46FB222720F930E0B6E0220F331FAE
:100CB000BA95E1F7822B932B47FB222720F930E0EE
:100CC0003695322F222737952795822B932B20910B
:100CD000CD04322F3170F32EE82EF92A269521709B
:100CE000B22EBB0CA82EBF28C501BB0CAA0BBB0B98
:100CF000FB0180839183A283B38390E080E0CDB732
:100D0000DEB7EAE00C946833E9EDF3E08481958185
:100D10002AE030E0B9010E940F336093160186810A
:100D2000809315018285809314018485809313013B
:100D300086859785B9010E940F33609312018089DF
:100D400080931101828980931001848980930F011F
:100D500008958091D9039091DA03909318018093BC
:100D600017010895E9E6F2E090E080E061EE79E2B3
:100D700048E05AE226E539E2778366835187408767
:100D8000338722879587848701963E968830910520
:100D900099F7089581152CE5920741F420910D01F2
:100DA00030910E01232B11F490E080E008950E9411
:100DB000D5049C019091530280915402982B21F00C
:100DC0003093500220934F02909155028091560229
:100DD000982B21F030934E0220934D02E091C304F2
:100DE000F091C404309749F082E08093510204806E
:100DF000F581E02D81E592E00995089590915302E7
:100E0000803F59F48091540287FF0DC01092540224
:100E100091110BC010924B0208C0813F81F4809168
:100E2000540218169CF3992381F0809155029091F9
:100E30005602892B09F064C010924A020895823F3D
:100E400049F497FFF0CF1092530280915402811120
:100E5000ECCFE0CF833F19F41916ACF3E4CF209127
:100E60005502893F29F41216F4F610925502DBCF91
:100E70008A3F19F427FFD7CFF8CF209156028B3F36
:100E800029F427FFD0CF10925602CDCF8C3F19F412
:100E90001216CCF3C8CF843F31F4809152028E7F7A
:100EA00080935202C0CF853F21F4809152028D7F02
:100EB000F7CF863F21F4809152028B7FF1CF873F9D
:100EC00021F480915202877FEBCF883F21F48091FB
:100ED00052028F7EE5CF8D3F31F480914C028E7FA0
:100EE00080934C02A0CF8E3F21F480914C028D7FE5
:100EF000F7CF8F3F09F097CF80914C028B7FF0CFD7
:100F0000089580914C0280FF0CC06091100170E048
:100F100075956795759567956115710549F1862FEA
:100F2000089581FF06C06091100170E07595679586
:100F3000F3CF6091100182FD0BC090914A0299237A
:100F4000A1F060910F0180911001961738F0682F81
:100F500070E06038710500F38FE70895899FC00144
:100F6000112470E00E942333F4CF61E070E0D7CF0A
:100F700081E0089580914C026091E1037091E20359
:100F800080FF16C020911401269FC001279F900D5D
:100F90001124BC0176956795769567956038710543
:100FA00008F043C06115710509F441C0862F08950A
:100FB00081FF0BC020911401269FC001279F900D37
:100FC0001124BC0176956795E9CF82FF09C0809115
:100FD00014019B01829FB001839F700D1124DECF0D
:100FE00020914B022223D1F29091130180911401A0
:100FF000482F50E0291748F0CB01849FB001859F0E
:10100000700D949F700D1124C9CF289F9001112459
:10101000269FA001279F500D369F500D1124692F48
:1010200070E0CA010E940F33B9CF8FE7089581E0C5
:101030000895803F31F40E94BA078195809354024D
:101040000895813F19F40E94BA07F8CF823F31F426
:101050000E94BA078195809353020895833F19F443
:101060000E94BA07F8CF893F29F40E948107809334
:10107000550208958A3F21F40E9481078195F7CF98
:101080008B3F31F40E948107819580935602089529
:101090008C3F19F40E948107F8CF843F31F480918E
:1010A00052028160809352020895853F21F480911D
:1010B00052028260F7CF863F21F480915202846011
:1010C000F1CF873F21F4809152028860EBCF883FB7
:1010D00021F4809152028061E5CF8D3F31F48091FF
:1010E0004C02816080934C0208958E3F21F48091E0
:1010F0004C028260F7CF8F3FB9F780914C02846039
:10110000F1CF80E00895F894E82FE295EF70F0E0D9
:1011100031A1282F2F7081E090E001C0880F2A951F
:10112000EAF7982F9095932391A392A1892B82A3FC
:10113000789408959091CC0492FF06C0282F2871CE
:101140002830F9F4877F846093FF06C0282F287128
:101150002831F1F4877E84612091CD0420FF06C000
:10116000382F38713830D9F4877F816021FF06C06D
:10117000282F28712831D1F4877E816194FD877EE4
:101180000895282F24712430F9F68B7F8860DCCFF6
:10119000282F2471243101F78B7E8861DDCF382F11
:1011A0003171313019F78E7F8860E0CF282F21719F
:1011B000213121F78E7E8861E1CFCF93DF93EC015F
:1011C00082389105B1F108F040C08133910509F4EE
:1011D0009DC048F58932910509F48DC08A9709F4BC
:1011E0009CC0C11521E5D20708F0C3C0C11530E588
:1011F000D30708F01EC1C83ED10508F0A3C0C03E09
:10120000D10588F5C83AD10508F08EC0C53AD10598
:1012100008F007C1C130D10531F1209721F1C43068
:10122000D10508F545C08533910509F45FC0C9971C
:10123000C1F68091CC04837009F044C18091CD0443
:1012400083FF11C0C9E2D0E00EC0833E910599F141
:1012500070F4803E910501F1823E910511F6809176
:10126000CC0482FD21C0CE01DF91CF910895863E4E
:10127000910561F1873E910571F1843E910509F078
:10128000B0CF8091CD0481FFEECF8091CC04C7EE2A
:10129000D0E084FD0DC0E7CF8091CC0480FD33C049
:1012A0009091CD0490FFDFCFC3EED0E084FFDBCF81
:1012B000D0E0C0E0D8CF8091CC0482FD00C19091F5
:1012C000CD0490FDFFC084FFCECFF2CF8091CC043F
:1012D00083FDDDCFC8CF8091CC0483FDF6C0909113
:1012E000CD0491FFF0CFC4EED0E0BDCF8091CC040F
:1012F00085FFB9CFA7CF8091CC0485FDE9C080914F
:10130000CD0483FFB0CFC9E3D0E0ADCF8091CC0452
:1013100086FFA9CFCAE2D0E0A6CF8091CC0486FF99
:10132000A2CFC1E3D0E09FCFCF3BD10508F6C85A8A
:10133000D0E0CC0FDD1FC95DDE4F0990D881C02DF4
:10134000D46491CFC11540E2D40758F4C11581E0AF
:10135000D80708F088CFC03FD10508F4A9CFD065E1
:1013600082CFC11520E4D20708F4A2CFDF70D06A83
:101370007ACFC11535E5D30718F5C11544E5D40773
:1013800008F085C0C11583E5D80708F06CC0C11509
:1013900022E5D20708F462C0CE018370992721E0CC
:1013A00030E002C0220F331F8A95E2F7C695C6953A
:1013B00080E2C89FE0011124C22BD32BDC6853CFFD
:1013C000C11539E5D307A8F4C11548E5D40708F0DD
:1013D00063C0C11586E5D80708F06ACF8C2F0E943C
:1013E0009A08C82FD0E0DC2FCC27CC27DF71D06241
:1013F0003ACFC1152AE5D20708F453C0CE01905662
:101400008115904208F054CF8D2F8F710E949A0859
:1014100090E0982F882788279F719C012C2BE90149
:10142000E6CFC55AD0E0CC5DDE4FC881D0E0D064B5
:101430001ACF2C2F26952695237040E2249F9001E9
:1014400011248C2F8370C1E0D0E002C0CC0FDD1FCF
:101450008A95E2F7C22BD32BDD6805CFDC2FCC2792
:10146000C16FD06A00CFCE018370992721E030E0B0
:1014700002C0220F331F8A95E2F7C695C69540E257
:10148000C49FE0011124C22BD32BDA68ECCEDC2FF1
:10149000CC27C46FD06AE7CEDC2FCC27C06FD06AD0
:1014A000E2CE8C2F8F700E949A0834E0D695C795B3
:1014B0003A95E1F7CF709C2FEC01D069D4CEC2EE03
:1014C000D0E0D1CEC0EED0E0CECEC6EED0E0CBCED6
:1014D000C5E3D0E0C8CE80911D02882331F0109280
:1014E0001D0210921C0210921B020895CF93C82F68
:1014F0008091CD0482FF0CC080911D028C1741F0B9
:101500000E94D50490931C0280931B02C0931D027D
:10151000CF910895809590910105982390930105AE
:10152000089580959091B80398239093B8030895F7
:101530009091B803892B8093B80308951092FA0113
:101540001092F9011092F80108958091DB039091B7
:10155000DC03892B89F00E94D50420911B02309175
:101560001C02AC01421B530B81E02091DB03309144
:10157000DC034217530708F480E0817008959091CE
:101580001B019923D1F09091CC0497FF16C0E82F4E
:10159000E695E695E695EE31E0F4F0E0EA58FE4F88
:1015A000282F277081E090E001C0880F2A95EAF784
:1015B00080959281892382830895E8E7F1E09191F3
:1015C000891303C0DF0111971C9291E0EE37F907F0
:1015D000B1F708952091F7019091B601291302C047
:1015E00080E0089530E0F90153E0EE0FFF1F5A95B7
:1015F000E1F7E954FE4F5181561306C0508158134C
:1016000003C05281541304C02F5F3F4F2770E6CFB1
:1016100081E008958091F7019091B601981301C07F
:1016200008958F5F8770FACF292F943078F58C302A
:1016300068F590E03CE0239F800D911D1124682FF8
:10164000677023E0969587952A95E1F7FC01EE0FE8
:10165000FF1FE80FF91FE456FE4F50E040E080E026
:10166000219130E0062E02C0369527950A94E2F7C4
:1016700021703327042E01C0220F0A94EAF7822B2F
:101680004F5F5F4F4330510559F7089580E008954B
:10169000292F943098F58C3088F590E03CE0239F1A
:1016A000800D911D1124282F277041E001C0440FA7
:1016B0002A95EAF723E0969587952A95E1F7FC01AC
:1016C000EE0FFF1FE80FF91FE456FE4F30E020E059
:1016D00070E05191DF011197CB01022E02C0969567
:1016E00087950A94E2F78170819585278423852761
:1016F0008C932F5F3F4F2330310559F70895929512
:101700009F70963091F058F4925F9F70923058F429
:10171000803F19F030F4883E30F481E008959A5FFC
:10172000F4CF843FD1F380E00895883EB0F3813F49
:10173000D1F7F3CF9C013A9521153F4150F5FC01BB
:10174000EE27F170BC0166277270AC01442754701B
:101750009C012227387094FF0EC080E1EF2B09F422
:1017600080E0672B09F08062452B09F08064232B11
:1017700089F08068089581E0EF2B09F480E0672B01
:1017800009F08260452B09F08460232B19F08860F2
:10179000089580E008958093CE047093D004609300
:1017A000CF048091F6048430F9F48093E9008FEF40
:1017B0009091E800815095FD06C095ED9A95F1F75E
:1017C00000008111F5CF8091E80085FF0DC050E049
:1017D00040E063E070E08EEC94E00E948203809130
:1017E000E8008E778093E8000895BC0184E00E94B1
:1017F000CB0B0895BC0183E00E94CB0B08959C01A4
:1018000084E08093E9009FEF8091E800915085FD8E
:1018100006C085ED8A95F1F700009111F5CF809112
:10182000E80085FF0CC050E040E066E070E0C901D0
:101830000E9482038091E8008E778093E8000895EB
:10184000CF93DF93EC0180911B018823B1F180914C
:10185000CC0487FF32C060E284E08093E9008FEF20
:101860009091E800815095FD06C095ED9A95F1F7AD
:1018700000008111F5CF8091E80085FF1BC08091A9
:101880001B0170E050E040E0811104C050E040E0F6
:1018900068E070E0CE010E9482038091E8008E77BC
:1018A0008093E80080E2FE01A4EDB4E001900D9287
:1018B0008A95E1F7DF91CF91089568E081E0CDCF7F
:1018C00081E08093E00080E28093D8001092C9000C
:1018D0008FE19EE40197F1F700C0000087E090EBF4
:1018E000DC018093020590930305A0930405B09357
:1018F000050588E19CE00FB6F894A89580936000F8
:101900000FBE90936000FFCF019708F40895EFE9B0
:10191000FFE03197F1F700C00000F6CF0F931F935F
:10192000CF93DF9309ED13E0C7EAD1E0CE010E9427
:10193000B133F80181938F012196CB3CF1E0DF07B1
:10194000A9F7C0E9D3E0FE0185919491009711F0C9
:10195000FC0109952C96F4E0CC38DF07A1F7DF9164
:10196000CF911F910F9108950F931F93CF93DF9302
:10197000843030F5643020F54C3010F5C42FD0E0C1
:10198000CC0FDD1F28E1629FC00DD11D112430E670
:10199000839FC00DD11D1124CE0187960E94B133C3
:1019A000082F10E0102F0027CE0188960E94B13337
:1019B0009801282BC901DF91CF911F910F910895B4
:1019C00090E080E0F8CF462F2091B6033091B70326
:1019D000232B99F4703F39F4603F79F48091B4037C
:1019E0009091B5030895843040F4743030F46C3035
:1019F00020F4672F0E94B40C089590E080E00895D1
:101A0000CF92DF92FF920F931F93CF93DF936C01DE
:101A10000091000580911E02082BC7E0D0E010E085
:101A2000FC2EC8010C2E02C0959587950A94E2F70A
:101A300080FD0CC02197A0F7F12C8F2DDF91CF9165
:101A40001F910F91FF90DF90CF900895B6018C2FDA
:101A50000E94E30C0E94DD08019761F3EECFCF9363
:101A6000DF93EC010E94000DBE010E94E30C0E9476
:101A7000DD08DF91CF910895CF93DF93EC014B8187
:101A80005C81698188810E94C005811110C08E81AE
:101A90009F81009739F00E94DD080E947F0BDF9143
:101AA000CF910895888199810E942F0DF6CF80E013
:101AB000F6CFA5E0B0E0EFE5FDE00C9453334983A9
:101AC0005A8389819A81662399F0222389F00E94A2
:101AD000000D182F682F89819A810E94480B698117
:101AE0007A81812F0E94E30C2596E3E00C946F33FA
:101AF0000E94140B182FF3CFFC01262F86819781AB
:101B0000009739F4408151816281738184810E9400
:101B1000590D089583E290E00E94B133833D89F42A
:101B200084E290E00E94B133853A59F485E290E076
:101B30000E94B13391E0823B09F090E0892F8170DF
:101B4000089580E0FCCFCF9384E090E00E94B13311
:101B5000C82F82E290E00E94B133982F8C2FCF9152
:101B60000895DB01FC013296259134914217530709
:101B700058F0FC01349665917491A901CD010E9441
:101B8000913390E080E008958FEF9FEF08950F93D9
:101B90001F93CF93DF9309ED13E0C7EAD1E0CE01A5
:101BA0000E94B133F80161918F01681719F0CE01DD
:101BB0000E94BF332196CB3CF1E0DF0781F7DF9134
:101BC000CF911F910F910895DA019C012E5F3F4F35
:101BD000F90145915491F90125913491A217B30768
:101BE00058F0FC013496859194910E9491330E94A3
:101BF000C70D90E080E008958FEF9FEF0895CF9399
:101C0000DF93CBEBD2E060E0CE010E94BF332196A0
:101C1000C11584E0D807B9F7DF91CF9108951F93DC
:101C2000CF93DF93122F8430E0F46430D0F44C3043
:101C3000C0F4C42FD0E0CC0FDD1F98E1699FC00D28
:101C4000D11D112490E6899FC00DD11D1124632F51
:101C5000CE0187960E94BF33612FCE0188960E94E5
:101C6000BF33DF91CF911F910895CF93C82F6FEFAE
:101C7000811163ED83E290E00E94BF336FEFC111E9
:101C800065EA84E290E00E94BF336FEFC11162EB1E
:101C900085E290E00E94BF33CF910895CF93C92F82
:101CA000682F84E090E00E94BF336C2F82E290E0C6
:101CB0000E94BF33CF9108959B01883070F49AE061
:101CC000899FB001112465537E4F4AE050E0C9015D
:101CD0000E94A13390E080E008958FEF9FEF089578
:101CE000AAE0B0E0E6E7FEE00C9454339C013755DF
:101CF0002F3F310509F068F4BE016F5F7F4F0E94EE
:101D00005C0E892B31F489859A852A96E2E00C9441
:101D100070338091F1039091F203F7CFAAE0B0E025
:101D2000E4E9FEE00C944A330CE313E08AE2C82EA7
:101D300083E0D82E9BE6E92E92E0F92E27E0922E42
:101D400039E2A32E33E0B32E88248394D6010D9379
:101D50001D936D014AE050E0B701CE0101960E944B
:101D6000A133F8013896DF01892D1D928A95E9F794
:101D700089819A81D80111969C938E938F811296B6
:101D80008C9312978D8113968C9313978885149654
:101D90008C931497898515968C9315978B819C81CC
:101DA00017969C938E93169718961C9218978A856F
:101DB00087FF3CC01E961C921E921D9780FF03C099
:101DC000D80118968C9281FF04C0F801908592602A
:101DD000908782FF07C0D80118969C91189794604D
:101DE00018969C9383FF04C0F801908598609087B3
:101DF00084FF07C0D80118969C9118979061189697
:101E00009C9385FF04C0F801808580628087015F14
:101E10001F4FFAE0EF0EF11C8BEBE81682E0F8069C
:101E200009F094CF2A96ECE00C946633F801B6865C
:101E3000A586C4CFAAE0B0E0E0E2FFE00C944E3308
:101E4000E9EDF2E080E5DF011D928A95E9F7E5E62C
:101E5000F4E088E3DF011D928A95E9F789EDC82E49
:101E600082E0D82E7F010BE112E0F701D182C0821F
:101E70004AE050E0B801CE0101960E94A13388E00B
:101E8000FE013196D60101900D928A95E1F7898580
:101E90009A85D70113969C938E931297BAE0CB0E36
:101EA000D11CE7E0EE0EF11C065F1F4F0B36F2E08F
:101EB0001F07D9F62A96E8E00C946A33A8E0B0E050
:101EC000E4E6FFE00C9446338E010F5F1F4F88E07D
:101ED000F80111928A95E9F795E5E92E91E0F92E3E
:101EE000680129E5422E21E0522E66246394712C6C
:101EF00045E6842E41E0942EF70181917F018F3FCA
:101F000009F445C0F894E82FE295EF70F0E021A1C4
:101F10008F70A30102C0440F551F8A95E2F7CA01D2
:101F2000922F982B91A392A18095892382A37894D4
:101F300000C0E9E5F1E021E030E0B12CA12C4191B5
:101F40004F3F09F464C0A42FA295AF70B0E0909603
:101F50008C9190E04F7002C0959587954A95E2F775
:101F600080FD55C0C901A82AB92A220F331F8E1639
:101F70009F0629F7F701319780818F3F11F00E946A
:101F8000830850EA5A95F1F7F601B182A082F2E097
:101F9000CF0ED11C4E145F0409F0AECF48E050E0E4
:101FA000B80182E292E00E948433892B99F188E0A3
:101FB000F801A2E2B2E001900D928A95E1F781E08A
:101FC000809321020E94D5049093200280931F02E7
:101FD00080911F02909120020E94BA040597F0F0B0
:101FE00048E050E062E272E082E492E00E948433D2
:101FF000892BC9F088E0E2E2F2E0A2E4B2E00190CD
:102000000D928A95E1F781E01092210208C090E0DC
:1020100080E0A9CF809121028111DACF80E028965B
:10202000E0E10C94623380E0EFCFCF938091B8036E
:1020300090910105892B8093760180911D02882360
:1020400029F18091DB039091DC03892B29F00E9418
:10205000A50A81110E946B0A8091760190911D0260
:10206000892B8093760180911B01882309F447C056
:102070008091CC0487FF43C08EE1E8E7F1E090E077
:10208000815008F03EC091110E946B0AC091B504C6
:10209000C09580917601C8238091B604C82BC09367
:1020A000760140E250E06BEF71E086E791E00E943C
:1020B0008433892B11F180E2E6E7F1E0ABEFB1E088
:1020C00001900D928A95E1F7E091C304F091C40468
:1020D000309799F080911B01882349F08091CC04BE
:1020E00087FF05C0C093770186E080937601028068
:1020F000F381E02D86E791E00995CF91089586E080
:10210000BCCF2191222309F4BBCF9F5FB9CFCF93DE
:10211000DF93EC01EA85FB85309719F06C857D85AE
:1021200009958B810E948A0A8C810E94910A0E94E3
:10213000151086E0FE0111928A95E9F7DF91CF91A3
:102140000895CF93DF93EC018D8181FD15C08260EE
:102150008D83809101059B81892B809301058C8162
:102160000E94980A0E941510E885F985309721F0A1
:102170006C857D85CE0109951092C0041092BF0434
:102180008D8180FD03C0CE010E948710DF91CF9129
:10219000089580911901877F8093190182E00E9440
:1021A0008A0A8091190184FF06C08F7E80931901ED
:1021B00082E00E94980A8091190185FF06C08F7DF8
:1021C0008093190180E20E94980A0E9415100895D8
:1021D00090E080E00E942C0590E080E00E941605CF
:1021E000109201050E94151086E0E1E5F2E0DF01A2
:1021F0001D928A95E9F710924B0210924A021092B2
:102200004C020E94D7060895809300050E94E810B2
:10221000089580910005982F9670963021F488607B
:102220000E9404110895877FFBCF21E030E001C0B8
:10223000220F8A95EAF720958091000582230E945B
:10224000041108959091FA01809589238093FA01F1
:10225000282F277091F4282F082E000C330B92178B
:10226000130659F09091CD0492FF07C0859585958E
:1022700085950E9415110E949E0A08959091CD04A3
:1022800092FB222720F9281769F080FB92F990939E
:10229000CD048091CC049091CD040E944E0E82E03A
:1022A0000E942211089521E030E001C0220F8A959A
:1022B000EAF780910005822B0E9404110895909105
:1022C000CD0492FF10C098E0899F90011124622BE9
:1022D0006093FA010E9453110E94D5049093F90172
:1022E0008093F80108950E945311089580931E026F
:1022F0000E94E81008951092B80380911B01E8E74E
:10230000F1E0882361F08091CC0487FF08C08EE162
:10231000DF011D928A95E9F70E94E810089586E092
:10232000F7CFAAE2B0E0E7E9F1E10C94533388EF8C
:1023300094E02091F100DC012D93CD01B5E08030D7
:102340009B07B9F78091F904833009F472C0B8F49F
:10235000813009F449C0823009F4B3C08091E800AB
:1023600083FF96C28091F8049091F9049A3008F0A6
:102370008FC2E92FF0E0E350FC4C0C9437338A30E5
:1023800009F48EC08B3009F471C0893039F780911F
:10239000F804813219F78091FC049091FD040097B4
:1023A00011F00297D9F68091E800877F8093E800CA
:1023B0008091E80082FF38C09091F3008091F20094
:1023C000029731F48091F100813011F0863021F4D0
:1023D0008091F1008093D3048091E8008B77809303
:1023E000E8000E94AC03BACF8091F804813A09F06A
:1023F000B5CF8091E800877F8093E8008091FC044E
:102400009091FD04892B61F460E284ED94E070E02A
:102410000E9458048091E8008B778093E8009ECF5B
:1024200060E090E080E0F3CF8091F6048111C0CFAE
:1024300095CF8091F804813A09F090CF8091FC0407
:102440009091FD04892B09F089CF8091E800877F66
:102450008093E8008091E80080FFFCCF80911B0111
:102460008093F1008091E8008E77B9CF8091F804D5
:10247000813209F073CF8091FC049091FD04892B87
:1024800009F06CCF8091E800877F8093E8000E947C
:10249000AC038091FA0480931B010E947B115ECFF4
:1024A0008091F804813209F059CF8091E800877F4C
:1024B0008093E8000E94AC038091FB048093D204D7
:1024C0004DCF8091F804813A09F048CF8091E8001F
:1024D000877F8093E8008091E80080FFFCCF8091A7
:1024E000D204BECF803899F0823809F0D1C18091F2
:1024F000FC048F70873008F0CBC18093E900809195
:10250000EB0085FB882780F91092E90006C08091D6
:10251000F4049091F504911182609091E800977F06
:102520009093E8008093F1001092F1008091E80010
:102530008E77AAC1882309F498C1823009F0A8C116
:102540008091FA0481119BC18091FC048F702FEF60
:10255000280F263008F09CC18093E9002091EB0001
:1025600020FF8DC1933031F48091EB008062809325
:10257000EB0085C19091EB0090619093EB0021E01E
:1025800030E001C0220F8A95EAF72093EA0010920A
:10259000EA008091EB008860EACF811179C1109147
:1025A000FA041F778091E3008078812B8093E30009
:1025B0008091E800877F8093E8000E94AC038091BF
:1025C000E80080FFFCCF8091E30080688093E30007
:1025D00082E0111183E08093F6045AC18058823062
:1025E00008F056C12091FA043091FB042C3DE3E041
:1025F0003E07A1F583E08A838AE289834FB7F89486
:10260000DE01139620E03EE051E2E32FF0E050932C
:102610005700E49120FF03C0E295EF703F5FEF7039
:102620008E2F90E0EA30C0F0C7968D939D932F5F78
:10263000243159F74FBF8091E800877F8093E800ED
:102640006AE270E0CE0101960E9458048091E80091
:102650008B778093E8001CC1C096E7CF8091FC0483
:102660009091FD04432F55274330510509F44AC08A
:1026700078F54130510509F485C08BE590E0E2E83A
:10268000F4E04230510509F003C12091E800277FB2
:102690002093E8002091FE043091FF0482179307F5
:1026A00008F49C0140E02115310509F070C041118A
:1026B0006EC08091E80082FDC9CF8091F604882326
:1026C00029F2853019F28091E80083FFF2CFBECF66
:1026D0004132510509F447C04232510509F0D8C0D2
:1026E0008330910508F0D4C0FC01EE0FFF1FE859BC
:1026F000FE4F0190F081E02D8B599E4FDC018C91B3
:1027000090E01DC0332721303105E9F02115310556
:1027100079F022303105F9F02330310509F0B8C0E5
:10272000EFEEF4E0E4918E2F90E0EFEEF4E007C0DE
:10273000EBE3F5E0E4918E2F90E0EBE3F5E000971A
:1027400009F4A6C0A2CFEFE1F5E0E4918E2F90E06E
:10275000EFE1F5E0F4CFEDE0F5E0E4918E2F90E0CD
:10276000EDE0F5E0ECCF8330910508F091C0880FE3
:10277000991FFC01E259FE4F0190F081E02D89E0A4
:1027800090E083CF82E190E0EDEDF4E07ECF8091A8
:10279000F604882309F45ACF853009F457CF809185
:1027A000E80083FD53CF8091E80082FD82CF8091C5
:1027B000E80080FF78CF9091F3008091F20021151E
:1027C000310519F08830910550F041E0089709F083
:1027D00040E08091E8008E778093E80064CF4491D8
:1027E0004093F1003196215031090196E8CF8038AD
:1027F00009F04EC08091E800877F8093E8008091C7
:10280000F7048093F10092CE811142C01091FA0436
:102810001230F0F58091E800877F8093E8001093F4
:10282000F7040E94AC03112311F084E005C08091ED
:10283000E30087FDFACF81E08093F60442E061EC8B
:1028400081E00E94CB0342E261EC84E00E94CB0372
:1028500042E261EC82E00E94CB0342E260EC83E062
:102860000E94CB038091F60413C08091FA0481305A
:1028700079F481E0933009F080E08093F5041092C0
:10288000E9008091E800877F8093E8000E94AC0314
:102890008091E80083FF0AC08091E800877F8093E1
:1028A000E8008091EB0080628093EB00AA96E3E061
:1028B0000C946F33E9EDF3E0128E138E8FEA90E003
:1028C0009183808325E0248F88E893E1938382833A
:1028D0008AE090E09583848344E150E05783468307
:1028E00048E050E051874087938782876EE170E02F
:1028F000758764879787868780E590E0918B808BCA
:10290000538B428B48E250E0558B448B42E350E0BE
:10291000578B468B48EC50E0518F408F158E178EA9
:10292000168E91A380A322A30E94C70D0E947B1143
:102930001092CD041092CC04EDECF4E08081846020
:1029400080838091CC049091CD040E944E0E0E9411
:102950008E0C0895AEE1B0E0E0EBF4E10C944B3363
:10296000C0900D01D0900E0181E090E090930E0197
:1029700080930D01F12CE12C86E2A82E83E0B82E85
:10298000912C1BC0E114F104D9F4F801EE0FFF1FE4
:10299000EA0DFB1D25913491402F692D80E00E94A6
:1029A0000F0E0F5F1F4F0C30110561F788E1A80E65
:1029B000B11C9394E4E09E1649F010E000E0E2CFF1
:1029C00021E030E0402F692D8E2DE9CFFFEFEF1A87
:1029D000FF0A84E0E816F10479F60E945A141A827C
:1029E00019821C821B821E821D8218861F8288EC1F
:1029F00090E09A8789870BEC11E04AE050E0B8013B
:102A0000CE0101960E94E333065F1F4F0B31E2E0D7
:102A10001E0799F77E01FBE0EF0EF11C8AE0F7013B
:102A200011928A95E9F74AE050E0B801C7010E9487
:102A3000E333065F1F4F0B36F2E01F07A1F77E015D
:102A400085E1E80EF11C8AE0F70111928A95E9F719
:102A50008FEF9FEF9A8F898F87E08E8F4AE050E04B
:102A6000B801C7010E94E333065F1F4F0B3BF2E042
:102A70001F07A1F7D0920E01C0920D016E96EBE0F8
:102A80000C94673380E00E94350E60E086E290E0AF
:102A90000E94BF330E94AA140E94FF0D81E00E9491
:102AA000350E0895CF92DF92EF92FF928FEF9FEF56
:102AB0004430510508F46AC0FB01C080D180E28037
:102AC000F3800E947B118091CC04C0FA80F9B70199
:102AD000A601769567955795479540FB81F9B70113
:102AE000A60122E076956795579547952A95D1F7E7
:102AF00040FB82F9B701A60133E0769567955795BB
:102B000047953A95D1F740FB83F9B701A601E4E078
:102B10007695679557954795EA95D1F740FB84F9E7
:102B2000B701A601F5E07695679557954795FA9513
:102B3000D1F740FB85F9B701A601A6E07695679528
:102B400057954795AA95D1F740FB86F9B701A6019D
:102B5000B7E07695679557954795BA95D1F740FBBD
:102B600087F98093CC048091CD04D0FA80F9D1FA12
:102B7000CC24C0F8C0FA81F98093CD048091CC04B4
:102B80009091CD040E944E0E90E080E0FF90EF9077
:102B9000DF90CF9008950E947B112FEF84E39CE09B
:102BA000215080409040E1F700C0000088E19CE0A7
:102BB0000FB6F894A895809360000FBE90936000C4
:102BC000FFCF882321F00E948A0A0E9415100895E1
:102BD000882339F090910105982B909301050E946C
:102BE00015100895882321F00E94910A0E94151063
:102BF0000895882321F00E94980A0E9415100895D4
:102C0000882379F19CEF980F913A28F40E94BF0A2B
:102C10000E941510089590E2980F983050F4877034
:102C200091E001C0990F8A95EAF7892F0E94910AD5
:102C3000EFCF9BE5980F933028F490E080E00E945E
:102C40002C05089598E5980F973128F490E080E0DE
:102C50000E9416050895803F20F00E94FE060E9403
:102C6000D7060895FF920F931F93CF93DF93F82E0B
:102C70000091BA041091BB040115110509F449C073
:102C80001092B9041092B8041092B5041092B604D0
:102C9000D8011696CD91DC919E013A9521153F41C0
:102CA00008F4D07ED1E0C11101C0D0E0D80119965E
:102CB000ED91FC911A97309731F01B966D917C91B4
:102CC00080E00995D823DD2339F08CEF8C0F813A11
:102CD00030F58C2F0E94BF0AFF2099F0E091BA04D2
:102CE000F091BB04808584FD0CC08091B7048823DB
:102CF00041F0808191819C0121503109203B3D456B
:102D0000A0F00E9415101092BB041092BA04109209
:102D1000B704C801CDB7DEB7E5E00C946D330E946F
:102D200015108C2F0E940016D7CF0E944F05E9CFB7
:102D3000CF93DF93EC010E940016CE010E949A0B04
:102D40009E01205E31092830310510F0CD2B29F489
:102D50000E94F215DF91CF9108950E94E115FACFFC
:102D6000CF93C82F8823C1F18CEF8C0F813AB0F537
:102D700080911B01882301F18091CC0487FF1CC046
:102D8000EC2FE695E695E695F0E0EA58FE4F828155
:102D900090E04C2F477021E030E002C0220F331F3B
:102DA0004A95E2F782239323892B79F08C2F0E9496
:102DB000BF0A0E94151009C0E8E7F1E08191C81729
:102DC000A9F381E0EE37F807C9F76C2F86E791E0A9
:102DD0000E94E1040E941510CF91089580E28C0FAB
:102DE000883048F4C77081E001C0880FCA95EAF7BF
:102DF0000E94980AEFCFEBE5EC0FE33040F4F0E0EF
:102E0000EC5DFE4F808190E00E942C05E5CFE8E567
:102E1000EC0FE73150F4F0E0EE0FFF1FE95DFE4FDD
:102E2000808191810E941605D7CFC03FA8F28C2FD8
:102E30000E9419080E94D706CFCF1F93CF93DF932C
:102E4000182FC091F903D091FA03893321F0C09172
:102E5000F703D091F803812F0E94B016209739F420
:102E6000812F0E940016DF91CF911F9108958FE965
:102E70009FE00197F1F700C000002197EFCFB0E08D
:102E8000A0E0E5E4F7E10C944C33EC018AE0A82ED5
:102E90002881222309F48FC02130C9F599818A81C4
:102EA000913021F422960E941D1705C0923029F41A
:102EB00022960E94B0162196EBCF933021F42296F1
:102EC0000E940016F8CF943011F02196F4CF22968C
:102ED00030E020E0AE014F5F5F4F8053990B8A30A6
:102EE000910550F02150310930F38FE99FE00197AF
:102EF000F1F700C00000F6CFA29EB001A39E700DB6
:102F000011249C01260F371F8981EA01E3CFE22FAC
:102F1000F0E0E159FA4FB490822F86958695869518
:102F200090E0FC01E15AFA4FE4902770F12C022E58
:102F300002C0F594E7940A94E2F731E0E322FF241B
:102F4000FC01E15BFA4FC490D12C022E02C0D59453
:102F5000C7940A94E2F731E0C322DD24FC01E15C6E
:102F6000FA4F049110E002C0159507952A95E2F7F3
:102F700001701127E114F10419F081EE0E94B016DE
:102F8000C114D10419F086EE0E94B0168B2D0E9458
:102F90001D17C114D10419F086EE0E940016E11429
:102FA000F10419F081EE0E9400160115110509F4D3
:102FB00082CF8CE278CFCDB7DEB7EAE00C946833ED
:102FC000B0E0A0E0E6EEF7E10C944C337C015B014D
:102FD000C42FD22FFC0182818823A9F04093BE0424
:102FE0000E94D5049093BD048093BC04C77081E017
:102FF00001C0880FCA95EAF70E94F915CDB7DEB770
:10300000EAE00C9468331091BE04141338C0809128
:10301000BC049091BD040E94BA046C01B701C501C3
:103020000E94700EC816D90650F5C0E2CD0F1D17CC
:10303000C1F080E2810F883048F4177081E0012EE2
:1030400001C0880F0A94EAF70E94F215C83048F4CC
:1030500081E09D2F977001C0880F9A95EAF70E9432
:10306000F915802F0E941D17C83040F6D77081E0F7
:1030700001C0880FDA95EAF70E94F215BFCFC7703A
:1030800081E001C0880FCA95EAF7F6CFCF93DF93AE
:10309000EC010E949A0B9E01205E31092830310517
:1030A00010F0209741F40E94F9158C2F0E94B01661
:1030B000DF91CF9108950E94E815F7CF662329F09C
:1030C000209101052260209301059C0130562115B5
:1030D00040E2340720F0305E2115304108F4992792
:1030E0000E9446180895B0E0A0E0E9E7F8E10C94EA
:1030F0004F337C018B01D42E8091190182FF8CC04B
:10310000C091FF03D0910004CE15DF0521F0E1143A
:10311000F10409F081C0809119018B7F809319011E
:1031200081FD73C08091FD039091FE03A801481BAF
:10313000590B81E020911701309118014217530774
:1031400008F480E08170F82E80911901F0FA81F97D
:1031500080931901FE0183E0F695E7958A95E1F7E2
:10316000EE71FF27E754FC4F20813181AE014F7093
:10317000552781E090E002C0880F991F4A95E2F739
:10318000FF2009F444C0822B932B9183808380918C
:10319000B80381FF08C080911901806180931901F3
:1031A00082E00E94910A8091B80385FF08C0809157
:1031B000190180628093190180E20E94910A6F2DAB
:1031C000CE010E945E18DD2031F08091F40385FF6E
:1031D00002C086FF3BC08091F7039091F8030E94E4
:1031E000840C8091FF03909100049C0130562115BE
:1031F00040E2340720F0305E2115304108F4992771
:103200000E9498160E94C9101DC081E09BCF809536
:10321000909582239323B9CFC70199279701305600
:10322000211540E2340728F0305E2115304108F0C6
:10323000C7010E9498168091FF03909100048E159B
:103240009F0501F31093FE030093FD03CDB7DEB796
:10325000E7E00C946B3368EE7EEF90E080E00E9434
:10326000DD3360E082E090E00E94BF3360E083E005
:1032700090E00E94BF3310921E0260E084E090E074
:103280000E94BF3364E082E290E00E94BF3360E0BE
:1032900085E090E00E94BF3360E086E090E00E940D
:1032A000BF336FEF87E090E00E94BF3340E050E013
:1032B000BA0188E090E00E94D13360E08DE090E0B8
:1032C0000E94BF3340E050E0BA0188E190E00E94E4
:1032D000D13360E087E190E00E94BF3340E050E0EE
:1032E000BA018CE190E00E94D13370E060E080E2AE
:1032F00090E00E94DD3340E050E0BA0188E190E0C8
:103300000E94D13380E00E94350E0E94421540E0B9
:1033100050E0BA018FE090E00E94D13340E050E0ED
:10332000BA0183E190E00E94D1330895A7E0B0E0B4
:10333000ECE9F9E10C9444337C01DC0113964D91E6
:103340005C91149711966C9111978C910E94C00515
:103350008111EEC061E0C7010E947C0D8C01F70174
:1033600082818823E1F08091BF049091C00400978E
:10337000B1F00817190799F0FEE08F9FC0011124E2
:10338000FC01E259FD4F20812460208387599D4F25
:10339000DC010D931C930E94A11010920105F7010E
:1033A0008281882311F40C948722C80182519F45A1
:1033B000409710F00C9479228FEF93E00E94B13384
:1033C0008111A6C07EEED72ED00E0BEB12E0D110ED
:1033D00036C019821A821B821C8299249A94680131
:1033E0002FEFC21AD20AC8010E94B13389831A8210
:1033F000882309F48DC0813009F07FC0580132E084
:10340000A30EB11CC6010E94B133C82E8A83882343
:1034100009F47EC0C5010E94B133D82E8FEF8C0D08
:103420008330D8F4580143E0A40EB11CDB82DD20C8
:1034300021F0CE0101960E943F178501D0CF0115E2
:10344000F4E01F0709F464C0C8010E94B133811180
:1034500001C0DA940F5F1F4FBACF8BEF8C0D833012
:1034600030F5C8010396DB825C01DD2031F35801A1
:1034700054E0A50EB11C0E94B1338C838823E9F27D
:103480008B819C818130AFEF9A0710F0982F8827AD
:10349000B6E0CB1631F0E7E0CE1631F00E94D0292D
:1034A000CCCF0E94AA29C9CF0E943129C6CFF4E00F
:1034B000CF12C3CF580124E0A20EB11CC80103965D
:1034C0000E94B133DD2021F1882311F18150990B45
:1034D000989E9001999E300D11244D2D4150550B11
:1034E000CA01820F931F019708F4A7CFAFE9BFE08D
:1034F0001197F1F700C00000F6CFCE0101960E94AF
:103500003F1756019ACF81E00E9453110E94091182
:103510008091FA01877061F0D70112968C9188230F
:1035200039F08091CD0482FF03C082E00E94221115
:103530002796E2E10C94603381E00E941511E6CFFA
:1035400082E0FBCF823011F00C94C922809163029B
:1035500090916402892B11F40C94C9222EE02C9DC9
:10356000C0012D9D900D1124FC01E259FD4F2081D9
:103570002E7F208387599D4F0E94A1100C94C92251
:1035800081E080930001C4CF80910001882309F479
:10359000DBC6480120EE821A910840901D028091FE
:1035A0009901482A8091B803482A38E0831691048B
:1035B00008F086C098012770332781E090E001C0B1
:1035C000880F2A95EAF7552009F477C0482AD701D1
:1035D0008D919C910E94140B21E030E0F90102C012
:1035E000EE0FFF1F8A95E2F7FF83EE832090BA0467
:1035F0003090BB0460909601709097011D822D81E0
:10360000E22FF0E0EE0FFF1FE65DFC4FC080D1809F
:10361000C114D10409F4FCC6411005C0D6011296AC
:103620008C91811189C0F601838190E02E813F81C8
:1036300082239323892B09F47FC08085982F97706C
:1036400009F487E038E08316910408F053C0552050
:1036500009F44CC086958170882309F46DC0D601A9
:10366000AD90BC900A151B0519F4552009F464C0EF
:10367000C214D30409F460C0D6011D96ED91FC91EB
:10368000309721F08081882309F456C0642DC6014B
:103690000E94A005882309F44FC00A151B0509F0F4
:1036A0009CC70115110509F49DC751109DC7A614AB
:1036B000B70409F041C0512C97C78095482287CFA5
:1036C000552009F48EC610939701009396010E942D
:1036D000C9046093B1047093B2048093B3049093CF
:1036E000B4041092B9041092B80471CF82FB8827F9
:1036F00080F9B2CF552001F18170AECF0E94001643
:1037000091C70497813A910558F46A2D86E791E0B4
:103710000E94E104552009F417C60E941510F8CE46
:103720000E9415108FE39CE90197F1F700C000009B
:103730008A2D0E94B016EECF9D819F5F9D835FCF43
:10374000FC01208131810217130709F0F6C55110E1
:10375000F6C51092B70480E00E943216F5C5902F8E
:10376000812F3AC6F901858181FF66C6C9010E9491
:10377000871062C6809119018160809319018AC601
:10378000809119018E7F809319010E94C91082C611
:10379000809119018F7E013E110531F0053E110522
:1037A000C9F4809119018F7D8093190180911901CD
:1037B00080FF7FC6D70112968C910832110528F53B
:1037C0000E31110508F072C00430110580F5811129
:1037D0006CC66FC6C8019056811540E2940720F070
:1037E000905E8115904110F78091190182FF61C6AA
:1037F0008091F60381FD5DC627E332E040E0B6012B
:1038000090E080E00E94731854C60933110558F403
:103810000D32110518F40B321105C9F69091F4031D
:1038200092FDD5CF08C004361105C1F3D0CF9091D9
:10383000F40394FDCCCF882309F4A8C080911D0225
:103840009091B803892B8D7FB1F1109200041092F2
:10385000FF038091F40381FD2EC0F80143E0F6954B
:10386000E7954A95E1F7EE71FF27E754FC4F980181
:103870002F70332781E090E002C0880F991F2A95AE
:10388000E2F7809590952081318182239323918363
:10389000808360E0C8010E945E1880911D028D7FC8
:1038A0000E94760A82E00E94221132CE9091F403A7
:1038B00093FD8DCFC0CF88E0F701A7E3B2E0019080
:1038C0000D928A95E1F71092390210923B02109204
:1038D0003A028091FF039091000408171907D1F56F
:1038E0002091F40325FF36C03091190131FF02C049
:1038F00026FF30C02091FD033091FE035601A21A2D
:10390000B30AB7010E94700EA816B90618F5809187
:10391000B80381FF08C0809119018061809319016B
:1039200082E00E94910A8091B80385FF08C08091CF
:10393000190180628093190180E20E94910A6091CE
:103940001901669561708091FF03909100040E94B7
:103950005E18DECD80911D029091B803982B2091C6
:10396000190191FB21F9209319018D7F0E94760A9C
:10397000109300040093FF03D092FE03C092FD0356
:10398000809119018460809319018CCF970140E0E8
:10399000B601C8010E947318BBCD053F4CE5140762
:1039A00009F463C008F45BC0063F8CE5180709F40E
:1039B00062C0D70112963C91332309F467C6109276
:1039C000BE040330BDE51B0708F061C00A3FECE50B
:1039D0001E0730F4C80182509C45449708F062C02D
:1039E0000E94A30D9093CD048093CC0402315CE53A
:1039F000150709F47FC108F0CFC009309CE519070D
:103A000009F456C108F099C00530BCE51B0709F45C
:103A100043C108F080C00330FCE51F0709F434C13E
:103A200008F036C18091CC04816002303CE5130778
:103A300009F4AFC08091CC049091CD040E944E0E49
:103A40000E947B1165CD07E225EE45EE68ED7CE531
:103A50004BC506E221EE40EE63EF7CE545C507E28B
:103A600025EE44EE64EF7CE53FC506E221EE42EE32
:103A700065EF7CE539C507E225EE46EE66EF7CE5AD
:103A800033C508E221E045EE69ED7CE52DC5053A38
:103A9000FDE51F0709F4A4CFC0F501364DE5140775
:103AA00009F49ECF06315CE5150709F057C18091F6
:103AB000B803982F9A7A2091F30320FF04C0482F6F
:103AC000447409F090E021FF04C0482F417109F0CF
:103AD00090E022FF04C0482F487809F090E023FFCF
:103AE00003C0827209F090E0332309F42DC181E014
:103AF000911101C080E08093980169E2911165E322
:103B000086E791E00E94E10408CEC8018D5A9D45E8
:103B1000039740F665CF8091CC04806207304CE576
:103B20001407B9F18091CC04806108305CE5150779
:103B300080F18091CC0480642CC00D308CE5180796
:103B400009F4C0C090F48091CC048E7F0B30ACE5BA
:103B50001A07F9F08091CC048C600C30BCE51B078F
:103B6000C0F08091CC048D7F14C00F30ECE51E07AF
:103B700009F4B8C008F4AAC000312CE5120709F412
:103B8000B5C08091CC048F7B01313CE5130709F06F
:103B900051CF8093CC044ECF0F3F4CE5140709F46E
:103BA000B3C0A8F50A3F8CE5180709F479C0C0F442
:103BB0000431ACE51A0709F4B5C008F4A1C0053119
:103BC000ECE51E0709F036CF8091CC0482FB9927E3
:103BD00090F921E0922790FB82F990FB83F9D9CFED
:103BE0000C3FFCE51F0709F475C008F45DC00D3FEC
:103BF0003CE5130709F472C08091CD0483600E3F49
:103C00004CE5140709F016CF8093CD0413CF01368D
:103C10005DE5150709F491C090F401309DE51907A1
:103C200009F489C008F474C060E00230BDE51B07E8
:103C300009F000CF8EE090E00E94BF33FBCE0D3A3A
:103C4000EDE51E07E9F060F49091CC04892F8E7F9A
:103C500090FF8160053A2DE5120709F49ACFEACE6C
:103C60000E3A3DE5130751F10F3A4DE5140709F0FF
:103C7000E1CE9091CD04892F877F93FF8860C4CFD8
:103C80008091CD048860C0CF8091CC04826081CFC8
:103C90008091CC0484607DCF8091CC04886079CF02
:103CA0008091CD048160B0CF8091CD048260ACCF93
:103CB0000E947B118091CC0480686BCF8091CD04F1
:103CC000877FA2CF8091CC048B7F63CF8091CC047F
:103CD000877F5FCF8091CD048E7F96CF8091CD047A
:103CE0008D7F92CF8091CC048F7E53CF8091CC0476
:103CF0008F7D4FCF0E947B118091CC048F7749CF6D
:103D00008091CC04837F45CF8091CD048C7F7CCF84
:103D10008091CD04982F909591708E7F892B90FB88
:103D200081F972CF0E947B119091CC04892F97FB6F
:103D300087F980582ECF61E07DCF9091CC04892FF8
:103D40008F7E94FF806125CF80919801811104C0FE
:103D500089E20E94BF0AE1CC85E3FBCF0A355DE52D
:103D6000150709F46BC008F044C001159CE519075C
:103D700009F44AC00E3D1C4509F453C0F701868181
:103D80009781009709F45EC00E94DD08182F092F63
:103D9000F701D280C580C2943FE0C3228091FA012E
:103DA0008770C1F0AD2CDD20B1F0892F807F803489
:103DB00021F080E2810F883068F08091CD0482FF8D
:103DC00009C082E00E9422118091FA018770AA2422
:103DD000A3948111A12C902E92942FE09222FBE0CB
:103DE000F91508F4BCC0E92DF0E0E95FFB4C0C9438
:103DF00037330C35BDE51B07B9F010F1073A1D4507
:103E000009F0BCCF0E94CB150E947B112FEF34E349
:103E10004CE0215030404040E1F700C000000E94DB
:103E2000600C0E942B19EECF8091CD0482FB882775
:103E300080F991E089270E943E11A0CF81E0FBCF5D
:103E400080E0F9CF828100811181882369F0C80167
:103E50000E94000DD82E682FC8010E94480BB8019F
:103E60008D2D0E94E30C90CFC8010E94140BD82E18
:103E7000F6CF202F2F70B22E802F807F19F0B294B2
:103E800090EFB922DD20A9F0BB2059F080E2810F2C
:103E9000883010F0111107C08B2D0E94980A0E94E3
:103EA0001510812F5AC080910105B82AB0920105E2
:103EB000F6CF812F0E940016BB2009F450C080E28B
:103EC000810F883010F0111104C08B2D0E94910ACF
:103ED00003C08B2D0E948A0A0E94151040C0302F0B
:103EE0003F70B32E802F807F803219F0B29480EF24
:103EF000B822112321F1113009F4AEC0DD2009F4FC
:103F0000B7C0CC2009F47FC020E0D7014C911196B6
:103F10005C91119712966C91129713967C9113975E
:103F200014968C910E94590D8091F60381FDB9CFB2
:103F3000F701858180FFB5CF8F70858364C0809144
:103F4000CD0482FD40C0DD20C1F1BB2029F08B2DC6
:103F50000E94980A0E94151080E00E94B016A92DB8
:103F6000A850BB0B149710F40E944205812F902F8C
:103F70000E947F0B8111C2C110929B0110929A0185
:103F8000AA20B1F08091FA0180FD12C0D7011296EB
:103F90001C928595859585950E945311C7010E94B5
:103FA00096198091FA018595859585950E94151140
:103FB00060E0C7010E947C0DBBCA80E00E94001631
:103FC000BB2069F282CFDD2011F1C11004C08091C5
:103FD0001D028B2919C041E0C41206C080911D0248
:103FE0008B290E94760ABBCF8091F503823078F34B
:103FF000C812EDCF0E946B0A909199018B2D892BED
:104000008913809399018B2D0E94F915A8CFC110B7
:1040100003C00E946B0A17C08091F50351E0C512DE
:1040200016C0823008F49BCF8091B8038B2109F42D
:1040300096CF0E946B0A909199018B2D80958923D0
:104040008913809399018B2D0E94F21588CF8230BD
:1040500000F38C11DECF83CF8091FB03DD2021F0B4
:104060008C1508F47CCFCFCFC81608F078CFEBCFF3
:10407000CC2049F38091F9039091FA03193321F090
:104080008091F7039091F8030E94840C812F0E9485
:10409000001665CF802F86958695837069F08130F4
:1040A00009F05DCF812F902F9370D11002C090E066
:1040B00080E00E94160553CF812F902F9370D1106E
:1040C00002C090E080E00E942C0549CF812FDD20C6
:1040D00029F00E9419080E94D70641CF0E94FE06CF
:1040E000FACF802F837091F5D11039CF412F4295AF
:1040F00046954770440F440F812F8F70042E01C0E6
:10410000880F0A94EAF7212F207114FF07C02FE0CF
:1041100030E001C0220F4A95EAF72095302F3695FE
:1041200036953370323069F050F440911E023130D0
:1041300029F0822B84230E94761111CF842B822BAD
:10414000FACF282B80911E028227F5CF8695DD209D
:1041500011F0802F8170882309F401CF412F4295FF
:1041600046954770440F440F812F8F70042E01C075
:10417000880F0A94EAF7212F207114FF07C02FE05F
:1041800030E001C0220F4A95EAF72095302F36958E
:1041900036953370323069F050F44091000531307B
:1041A00029F0822B84230E940411D9CE842B822BE8
:1041B000FACF282B809100058227F5CFF02FFF70D2
:1041C000BF2EDD2029F08F2F0E945311812F1CCF8D
:1041D000812F0E94F2158B2D0E941511C0CE123F27
:1041E00089F160F4103FB9F0113F81F0DD2009F44E
:1041F00080C0C11056CE802F8F7128C0133F49F167
:10420000143FA1F78091CD0482FD2FC0802F8F71C4
:10421000DD2011F31BC08091FB03DD2079F0C8166F
:1042200008F09DCE202F2F7181E090E001C0880F13
:104230002A95EAF7909100058927B5CF8C1508F4E7
:104240008ECEF0CF802F8F71D110C6CF0E94531128
:1042500086CE80E0DD2009F4A6CF81E0902F9F710B
:1042600001C0880F9A95EAF79ECF8091F5038230BE
:1042700040F1DD20D1F09091FA019770943041F433
:104280000E949E0A802F8F710E941511A12C67CE6B
:10429000C816E0F7202F2F71B22E822F0E945311E3
:1042A00063E08B2D0E945F11F1CFC81630F00E94A1
:1042B0009E0A64E0802F8F71F5CF81E00E94221169
:1042C000E5CFDD2059F0302F3F71B32E832F0E94B0
:1042D000531163E08B2D0E945F1141CE81E00E945B
:1042E000221141E04C1508F03ACE82E00E942211E2
:1042F00036CEC110BFCE802F8F716ECFDD2019F06A
:10430000C1103ACE3DCEC11037CE20E0F70140813A
:1043100051816281738184810E94590D8091F603DD
:1043200083FF2ACE80919A0190919B01029709F018
:1043300023CE812F0E941D171FCE552029F0DC01AE
:1043400018968C9185FF07CAC80197558F3F910534
:1043500011F008F071C05801BB24BEE00B9FF001C2
:1043600011249F0127593D4F6901D70112968C9165
:10437000E259FD4F908180FB90F99083882309F4E6
:10438000F1C90E94D5049093360280933502F6015C
:1043900082818F5F8283809101059091B803892B80
:1043A000838380911D0284830680F781E02D3097FE
:1043B00031F0D6011C966D917C91C60109958EE075
:1043C0008A9DF0018B9DF00D1124E759FD4F8581E9
:1043D00081FFC5C990E080E09093BF048093C00442
:1043E0002BC080919601909197010817190781F4CD
:1043F00010929701109296011092B1041092B2049B
:104400001092B3041092B4041092B9041092B8043C
:104410008091BA049091BB04009709F495CFA8E06D
:104420008A16910408F08CC9642D0E94A0058111A0
:1044300003C081E00E9432168091F40380FF39C0EE
:104440000E94D5046C01D70112968C91882309F43F
:104450009FC98091190182FF08C027E332E040E044
:10446000B60190E080E00E9473180B31BCE51B0799
:1044700009F480C90C31ECE51E0709F481C990915B
:104480001901892F8E7F90FF81600A31FCE51F079B
:1044900009F479C9C8019056811520E2920728F0E5
:1044A000905E8115904108F081C91092000410922D
:1044B000FF03033FBCE51B0709F4CBCA08F06DCA34
:1044C000083DFCE51F0709F4BECA093D2CE51207AB
:1044D00009F4D7CA073D3CE5130709F06ACA06E2AA
:1044E00021EE41EE67ED7CE5C7010E94E0170C94D8
:1044F000881A0031FFE51F0711F40C94831A01316B
:104500002FE5120709F045C082E00C94841A0031AF
:104510003FE5130711F40C949C1A01314FE5140781
:1045200011F40C94A01A6801E7E5DE1AFFEFCF162C
:10453000D10409F070F56FE572E08C2D0E945C0EDD
:10454000892B39F58EE08C9DF0018D9DF00D1124A5
:10455000E759FD4F8281813011F00C94A21A8091AD
:104560005F0290916002892BA1F08091610290918D
:104570006202892B71F08091630290916402209114
:10458000650230916602822B932B892B11F40C94D7
:10459000AE1AD70112965C90552011F40C94C41AEF
:1045A0000F35BDE51B0711F40C94C01A0036EDE57C
:1045B0001E0761F00E35FDE51F0711F00C94C41ABB
:1045C00080910001882311F40C94C01A109200010C
:1045D00080E00E9432160C94881AA114B10409F0EC
:1045E00066C8512CB12CA12C80E00E943216D092CA
:1045F000BB04C092BA0481E08093B704F6018581C0
:104600008093B50451100EC0AB2861F0F601808193
:1046100091819C0124503109213A310508F06EC87E
:104620000E94BF0AD6011696AD90BC90C5019A951E
:1046300081159F4110F4E0EEBE2277247394C501EA
:104640000197803B9D4508F0712CD6011996ED919C
:10465000FC911A97309731F01B966D917C9181E017
:1046600009957822772079F0F601868197810E945A
:104670009A0B8093B604C501F8E08F16910408F0F8
:1046800040C80E944F050E94151044C806318CE5B1
:10469000180709F073CB0BCAB0E0A0E0E2E5F3E243
:1046A0000C944E338091B301807F31F48091B0013E
:1046B000C091F701811107C0CDB7DEB7E8E00C94D7
:1046C0006A332196C7708091B6018C17A9F3F090D8
:1046D000AE01E090AF01C090B101D090B201A6014F
:1046E0006E2D8F2D0E94C005D0E08111EACF8E0182
:1046F00083E0000F111F8A95E1F7F801E954FE4F9E
:1047000081818E11DECF80818F11DBCF828181117B
:10471000D8CFE380F480EC18FD0860E08EEA91E0E9
:104720000E947C0D6EEA71E00E94700EE816F90698
:1047300040F68091B3018F7080618093B301F801DE
:10474000E454FE4F80818F70806180838EEA91E017
:104750000E9496190E940A0BAFCFA5E1B0E0E3EBEF
:10476000F3E20C9447338C0185E0F801DE015196A9
:1047700001900D928A95E1F7D8015C9011966C90AA
:1047800011971296EC9012971396CD90DC9060E002
:104790008EEA91E00E947C0D8EEAA82E81E0B82E70
:1047A0008090B1019090B201A4016091AF0180911D
:1047B000AE010E94C0058111A8C1F090B001F601C0
:1047C000E819F9094F0160E0FF2009F44BC1C50168
:1047D0000E947C0DB5010E94700E7090B301881686
:1047E000990608F0F2C04091B1015091B201B09029
:1047F000AE01A090AF01872D807F6A2D09F08CC09B
:104800008B2D0E94C005FE2C811127C0D801119666
:104810008C9111978A1121C08C918B111EC020910F
:10482000B4013091B50116968D919C9128173907E6
:10483000A1F4E11012C0872D8F7080618093B301C5
:104840008EEA91E00E9496198091B301F801858368
:104850008F2D6596EFE00C946333A601662D852DB0
:104860000E94C005D82E81E08E25D11080E080FF07
:1048700018C04E2D662D852D0E94EA0A882389F0E6
:104880008091F60380FF0DC08EEA91E00E94961998
:1048900088E0EEEAF1E0DF011D928A95E9F7F12C5C
:1048A000D7CF81E08E25D11080E0B82FB170CB2E0C
:1048B00080FF29C04E2D662D852D0E94EA0AD82E34
:1048C000811121C0598A6A8A89899A890E942F0D8B
:1048D000292F22952F70223050F0243078F49F70C9
:1048E00051F0F8019581907F31F4FD2CB1CF9F708C
:1048F00011F08823D1F3805E8830B8F3C8010E949C
:104900009619DC2CF2CFEE2009F4A2CF8091B301EE
:1049100081608093B301C3CF8B2D0E94C0058111AC
:1049200024C0D80111968C9111978A111EC08C91C8
:104930008B111BC02091B4013091B50116968D9159
:104940009C9117972817390781F4E1100EC015962E
:104950007C92C8010E94961988E0F801AEEAB1E0A5
:1049600001900D928A95E1F773CFC8010E943C0D2A
:10497000882339F1EE2029F18091B3018032A0F033
:104980002091AE013091AF013A8729871B86DD86E1
:10499000CC868E878091B4019091B501988B8F87DA
:1049A000CE0109960E94961988E0F801AEEAB1E0BE
:1049B00001900D928A95E1F70E944C23FF24F39415
:1049C00047CFC8010E949619F9CF872D807F09F43F
:1049D0005BCF9090AE018090AF014091B1015091BA
:1049E000B201682D892D0E94C00581111CC0F801FB
:1049F0008181881118C08081891115C02091B4016E
:104A00003091B501868197812817390761F4E1104B
:104A10000AC07582C8010E94961988E0D5011D92CE
:104A20008A95E9F715CFC8010E943C0D882349F209
:104A3000EE2039F28091B301803208F4B5CF209195
:104A4000AE013091AF013A8329831B82DD82CC8293
:104A50008E838091B4019091B50198878F83CE01A8
:104A60000196A0CF8EEA91E00E947C0D6EEA71E083
:104A70000E94700E8816990680F6FE2CEE2009F42E
:104A8000A0CFE090AE01D090AF014091B101509124
:104A9000B2016D2D8E2D0E94C005811128C0F80134
:104AA00081818D1124C080818E1121C02091B4019B
:104AB0003091B5018681978128173907C1F480911B
:104AC000F60382FD49CF9091B30190FD45CF907FD1
:104AD00009F442CF8091B3018583903F09F439CF27
:104AE000982F907F905F8F70892B858332CFC8017C
:104AF0000E943C0D811158CF8091B3018160809359
:104B0000B301C8010E949619A3CEEE2009F459CF33
:104B1000C8010E943C0DF82E882309F452CF88E08A
:104B2000F801AEEAB1E001900D928A95E1F780912B
:104B3000AE019091AF010E942F0D0E944C2388CEB0
:104B4000A0E1B0E0E6EAF5E20C94543329873A8715
:104B50004B875C876D877E878F87988BCE01099600
:104B60000E94AD2381112FC088E0FE013996DE013D
:104B7000119601900D928A95E1F74C855D856A85C5
:104B800089850E94C00581111EC0A091B601B0E0C8
:104B9000CD010196877099272091F70128171906F2
:104BA000E1F093E0AA0FBB1F9A95E1F7A954BE4F1D
:104BB00098E0FE01319601900D929A95E1F780936D
:104BC000B6010E940A0B8091F7019091B6018913FA
:104BD00012C06096E2E00C9470330E947B11109238
:104BE000B6011092F70188E0EEEAF1E0DF011D92D4
:104BF0008A95E9F7E8CFB8E08B9FC001112489546A
:104C00009E4F0E94AD23882321F38091F70190E00D
:104C10000196877099278093F701D5CFEF92FF9285
:104C20000F931F93CF93DF9380910404882361F047
:104C3000C09103048CE0F82E80910404C81748F05A
:104C40001092040410920304CDB7DEB7E6E00C9492
:104C50006C33EE24E394EC0EE09203040C2F10E08E
:104C6000CF9DE0011124CB5FDB4F4B815C816981DB
:104C700088810E94C00581111DC08E819F81892B72
:104C800021F488859985019651F4288139814A81DA
:104C90005B816C817D818E819F810E94A025F09E29
:104CA000F001F19EF00D1124EB5FFB4F1482138293
:104CB00010920105CE2DC0CF1092A8041092A70427
:104CC00010921A018091A6048093A5040E94F90510
:104CD0000E940E260895B0E0A0E0E1E7F6E20C9411
:104CE0004533C091A50497E0892E01E010E02CE047
:104CF000322E3EEF932E442443948091A6048C13CD
:104D000009C00E940E260E94F905CDB7DEB7E1E189
:104D10000C946133D0E0FE01EE0FFF1FE356FB4F12
:104D200080819181889ED001899EB00D1124AB595C
:104D3000BB4F14962C911497211158C05090040425
:104D4000E5E0F4E030E020E0712C5D01251508F08D
:104D50004BC0E284F384D501CD90DC906FEF7FEF00
:104D6000612C462D50E0DA01AA0FBB1FAC0DBD1D12
:104D70000D90BC91A02D109731F0EA16FB0609F4B6
:104D8000BA016394EECF6F3F7607A9F1D80102C054
:104D9000AA0FBB1F6A95E2F77A2AB801062C02C057
:104DA000660F771F0A94E2F7AB0141505109741660
:104DB0001506F9F4329EF001339EF00D1124EB5FDD
:104DC000FB4F889ED001899EB00D1124AB59BB4F7B
:104DD00012962D913C91139737832683908291826E
:104DE0009187808715964C920E94CB052196C370BF
:104DF00084CF148213822F5F3F4F3C96A7CFA9E147
:104E0000B0E0E5E0F7E20C944433942F498B252F72
:104E10005A8B6B8B7C8B8D8B4C895D89622F892F94
:104E20000E94C005811109C080919A0190919B0157
:104E3000019690939B0180939A018B898111109226
:104E400001051D861E861F86188A85E0FE01719663
:104E5000DE01199601900D928A95E1F78091CD04BB
:104E600082FF1EC08091DB039091DC03892BC1F08F
:104E70000E94D5042091F8013091F901821B930B17
:104E80002091DB033091DC038217930720F080919F
:104E9000FA0182FFE2C10E94A50A81110E946B0AF9
:104EA0004C855D856A8589850E94C005811111C088
:104EB00061E0CE0109960E947C0D6C018B8527EF85
:104EC000C2162CE5D20681F4882321F181E080937B
:104ED0001A0129853A854B855C856D857E858F8590
:104EE00098890E94A025C6C038EFC3163CE5D306BA
:104EF00029F4882379F00E945C26EBCF49EFC41691
:104F00004CE5D40639F4882329F080911A018111E7
:104F1000F2CFDCCF05E614E0512CB12CA12C2224D9
:104F20002394312C2EEF422EF801408151818824A8
:104F30008A94982C20E0822F90E0FC01EE0FFF1F56
:104F4000E40FF51F608171816115710531F0C6169E
:104F5000D70609F44C012F5FEECFF12CFFEF8F162F
:104F60009F0609F449C0F8014481F0901A018F2D81
:104F7000411180E0F82FF170FF2EF801E580868165
:104F80009B85992309F4F8C0FF2009F4F5C06090CF
:104F9000EF037090F003E11013C0A101082C01C0D1
:104FA000440F0A94EAF7842B868380910104909140
:104FB00002048615970520F47092020460920104A1
:104FC000C10102C0880F991F2A95E2F70197F801E5
:104FD00026812817190681F48091A7049091A804CE
:104FE000009709F44BC00E94BA046816790608F0CD
:104FF00045C021E0F80124835F28FFEFAF1ABF0A04
:10500000095F1F4F28E0A216B10409F08DCF8B85F0
:10501000882309F40DC1552009F40AC10E94D50462
:105020009093A8048093A70480910404883010F51D
:1050300091E0980F9093040498E0FE013996DE0108
:10504000119601900D929A95E1F73CE0839FC00183
:1050500011248B5F9B4F28E0FE013196DC0101900B
:105060000D922A95E1F72FEF3FEFFC013187208762
:10507000D386C2866996E2E10C9460338091A504E0
:105080005091A604982FF0E0E0E0851314C09093AF
:10509000A504E017F10709F4AFCF90E0FC01EE0F93
:1050A000FF1FE356FB4FB182A082019683709927C0
:1050B0008093A604A1CF682E712CF301EE0FFF1F81
:1050C000E356FB4F2081318147E0429FD001439F4F
:1050D000B00D1124AB59BB4F6D917C911197798F15
:1050E000688F40E020E030E0E32FF0E0EE0FFF1F9C
:1050F000688D798DE60FF71F80809180811491046F
:10510000E1F0F8010190F081E02DFF8BEE8B20E0C3
:1051100005C08616970609F44F2D2F5FE22FF0E0A9
:10512000EE0FFF1F6E897F89E60FF71F6081718187
:105130006115710571F73F5FD7CF4423D1F0F801B6
:10514000231708F0FD0121E024830E171F0721F427
:105150009093A504F42E50CF981305C0AE17BF0747
:1051600011F49F5F937093012F5F3F4F822F8370E5
:105170008CCFF0E0E0E0F7CF90E0E11020C0B1018B
:1051800002C0660F771F2A95E2F79B012150310973
:105190008217930731F4442309F448C0C5010E94E3
:1051A000CB05C101082C01C0880F0A94EAF7982F9B
:1051B0009095F801868189238683FE2C1DCF9C0162
:1051C000082C02C0359527950A94E2F7A901417091
:1051D0005527BC016150710986239723892B11F54E
:1051E000452B01F1F80182819381892BC1F01B824B
:1051F0001C821D821E8249824A820E94D5048160DF
:10520000582F9D838C83F801828193818F839887A7
:1052100029813A814B816D817E810E94A025F80110
:105220001582BFCFF22FF170EF2EBBCFEF2CB9CF8D
:105230009091A5048091A604981731F00E946B26E6
:10524000552009F446CE16CF0E940E261092A804CF
:105250001092A7040E94F905F3CF82E00E94221168
:105260001ACEA5E0B0E0E7E3F9E20C945433909352
:10527000B5038093B403811520E2920730F40E94B5
:1052800098162596E2E00C94703380EF89838A8328
:105290001B820E94D5048160782F9D838C83498175
:1052A0005A816B818D810E94FF26EBCF0F931F9354
:1052B000CF93DF938C01EB016FE572E08C2F0E949E
:1052C0005C0E892BA1F48091F7039091F8030E9462
:1052D000840CDD27C95ADD4F8881F80112821882BB
:1052E0008330F1F048F4813059F0823081F0DF9161
:1052F000CF911F910F9108958430B9F08530B9F79F
:1053000080915F0290916002009789F306C08091BE
:10531000610290916202009799F30E943129E7CFD0
:105320008091630290916402F6CF80916502909122
:105330006602009791F720915F02309160028091A0
:1053400061029091620221153105F1F2009729F76F
:10535000C901E3CFA5E0B0E0E0EBF9E20C945433EF
:105360009093B5038093B403811520E2920730F443
:105370000E9446182596E2E00C94703380EF8983F2
:105380008A8381E08B830E94D5048160782F9D837E
:105390008C8349815A816B818D810E94FF26EACFDF
:1053A000CF93DF93EC010E94AA298091F70390919B
:1053B000F8030E94840CCE010E943129DF91CF9125
:1053C00008950F931F93CF93DF938C01862F6FE582
:1053D00072E00E945C0E892BB1F4C0915F02D09103
:1053E0006002209781F0F8018281833051F4CE0170
:1053F0000E94D029CE010E94D029CE010E94D0293E
:1054000002C08430D0F7DF91CF911F910F910895A2
:105410000F931F93CF93DF938C01EB016FE572E045
:105420008C2F0E945C0E892B09F05CC0FE01FF27C7
:10543000D80112968C911297E95AFD4F8130B9F438
:1054400015969C9192FF02C080830AC090FFFCCF0A
:1054500082E0808380916102909162020097B9F4AA
:1054600080915F02909160020097E1F110C082305C
:10547000B9F515968C9182FD28C080FD0BC083E0A4
:1054800080838091630290916402009701F10E94F1
:10549000AA2928C084E080838091650290916602E9
:1054A0000097A9F780915F02909160020097F9F050
:1054B0000E94D0298091610290916202009739F791
:1054C00080915F0290916002E2CF85E080838091BD
:1054D0005F0290916002009729F00E94D029F0CFDE
:1054E00086E08083DF91CF911F910F910895809185
:1054F000610290916202B8CF1F920F920FB60F9285
:1055000011242F933F934F935F936F937F938F93C8
:105510009F93AF93BF93CF93DF93EF93FF93D0917C
:10552000E900DF708091EC00C82FC17080FDC0E8F9
:105530001092E9008091F000877F8093F0007894CA
:105540000E9491111092E9008091F0008860809390
:10555000F000CD2BCF70C093E900FF91EF91DF9168
:10556000CF91BF91AF919F918F917F916F915F91FB
:105570004F913F912F910F900FBE0F901F90189554
:105580001F920F920FB60F9211242F933F934F93B8
:105590005F936F937F938F939F93AF93BF93EF939B
:1055A000FF938091E10082FF09C08091E20082FFB9
:1055B00005C08091E1008B7F8093E1008091DA004B
:1055C00080FF24C08091D80080FF20C08091DA0045
:1055D0008E7F8093DA008091D90080FF9DC080E1AA
:1055E00089BD82E189BD09B400FEFDCF81E08093D1
:1055F000F6048091D104811109C00E9432030E94F7
:10560000FD038091E20084608093E2008091E100DC
:1056100080FF17C08091E20080FF13C08091E200FC
:105620008E7F8093E2008091E20080618093E200AF
:105630008091D80080628093D80019BC85E0809367
:10564000F6048091E10084FF2BC08091E20084FF8A
:1056500027C080E189BD82E189BD89B5982F91700D
:1056600080FFFBCF8091D8008F7D8093D800809100
:10567000E1008F7E8093E1008091E2008F7E809335
:10568000E2008091E20081608093E2008091F70463
:10569000882309F447C084E08093F6048091F604DF
:1056A0008091E10083FF27C08091E20083FF23C047
:1056B0008091E100877F8093E10082E08093F6048F
:1056C0001092F7048091E1008E7F8093E100809139
:1056D000E2008E7F8093E2008091E20080618093FF
:1056E000E20042E060E080E00E94CB038091F000A5
:1056F00088608093F000FF91EF91BF91AF919F91EF
:105700008F917F916F915F914F913F912F910F906A
:105710000FBE0F901F90189519BC1092F6041092AE
:10572000D10474CF8091E30087FD93E09093F60459
:10573000B5CF78941F921FB61F9211248F939F9319
:10574000AF93BF938091C8049091C904A091CA04FB
:10575000B091CB040196A11DB11D8093C804909314
:10576000C904A093CA04B093CB04BF91AF919F9199
:105770008F911F901FBE1F9018951F921FB61F92EA
:1057800011248F939F93AF93BF938091C70481118E
:1057900013C08091C8049091C904A091CA04B0912B
:1057A000CB044196A11DB11D8093C8049093C904F8
:1057B000A093CA04B093CB04BF91AF919F918F91F6
:1057C0001F901FBE1F901895CDB7DEB7EC970FB690
:1057D000F894DEBF0FBECDBF85B7806885BF85B7A3
:1057E000806885BF84B7877F84BF0FB6F894A8957B
:1057F00080916000886180936000109260000FBE0D
:1058000080E890E00FB6F894809361009093610077
:105810000FBE81E898E090937501809374010E9417
:10582000B2060E941A0F0E948E0E0E948E0C0E94D9
:1058300032030E94FD038091E20084608093E200C5
:1058400078948091F6048823A1F01091E9001F70EC
:105850009091EC00892F817090FD80E8182B1092B8
:10586000E9008091E80083FD0E9491111F70109360
:10587000E90082E084BD93E095BD9AEF97BD8093E7
:105880006E000E948A0D811102C00E94421583E9B8
:105890000E94830885E90E94830886E90E948308A4
:1058A00084E90E94830809E511E085E6E82E81E09D
:1058B000F82ED8018D918D018F3F11F00E94830841
:1058C000E016F106B1F788E0E2E4F2E0DF01282F0C
:1058D0001D922A95E9F7E2E2F2E0DF011D928A9536
:1058E000E9F790E080E00E94B933883E9E4F21F4B2
:1058F0000E948A0D811102C00E942B1982E090E063
:105900000E94B13380932C020E94A30D9093CD048A
:105910008093CC040E945E0FEFEFF6E721E0E150A8
:10592000F0402040E1F700C000000E945E0F80912F
:10593000420280FF08C06FEF7FEF90E080E00E949E
:10594000DD330E94600C83E090E00E94B1330E943E
:1059500076118091CC0480688093CC048091CC0433
:105960009091CD040E944E0E81E091E09093C4048A
:105970008093C304B0E42B2E552453944E013BE294
:10598000830E911C8091F60400E112E1853009F448
:105990008FC00E945E0FFDE2AF2EF2E0BF2EA2E4A8
:1059A0006A2EA2E07A2E45E352E0D301F50121915F
:1059B00031918D919D914E175F0709F483C028178F
:1059C0003907A9F3412CD3010D911D913D01F5013A
:1059D000C190D1905F01C016D10659F1312CEE244F
:1059E000E394F12CC026D126C6018E219F21892B5C
:1059F000B1F038AE49AE21E0C8018E219F21892B3C
:105A000009F420E02AAF0E94D5048160782F9CAF72
:105A10008BAF48AD59AD6AAD8CAD0E94FF26339473
:105A2000EE0CFF1CFCE03F12DFCFF5013297118333
:105A30000083439424E04212C6CF0E94C90464C08C
:105A40008091F604843019F11092C70488E190E047
:105A50000FB6F894A895809360000FBE2092600066
:105A600083B7817F846083BF83B7816083BF78946D
:105A7000889583B78E7F83BF0FB6F894A8958091E1
:105A80006000886180936000109260000FBE80917A
:105A9000F504882369F00E945E0FE2E4F2E0819150
:105AA0009191892B09F06EC592E0EA34F907B9F7B4
:105AB0008091F604853009F4C3CF0E947B110E94C7
:105AC000420567CF2817390709F07CCF0E94D5041B
:105AD0008C0180912A0290912B0208171907A1F0DE
