:100000000C9406020C944D020C944D020C944D027B
:100010000C944D020C944D020C944D020C944D0224
:100020000C944D020C944D020C9477180C943318D8
:100030000C9472190C944D020C944D020C944D02C8
:100040000C944D020C944D020C944D020C944D02F4
:100050000C944D020C944E190C944D020C944D02CC
:100060000C944D020C944D020C944D020C944D02D4
:100070000C944D020C944D020C944D020C944D02C4
:100080000C944D020C944D020C944D020C944D02B4
:100090000C944D020C944D020C944D020C944D02A4
:1000A0000C944D020C944D020C944D021E001F0046
:1000B00020002100220023000000000000000000BA
:1000C00000000000290014001A00080015001700A5
:1000D0001C0018000C00120013002A002B00040062
:1000E0001600070009000A000B000D000E000F00AB
:1000F00033002800E1001D001B0006001900050068
:1001000011001000360037003800E500E000E30081
:10011000E20000002C0000000251000003515000DA
:1001200051004F0001000100010001000100010029
:1001300000000000000000000000000035001E026A
:100140001F0220022102220223022402250226028B
:1001500027024C000100310034002D002E002F003A
:1001600030005100520050004F00010001002900F2
:1001700001004600010001000100AD00AE00AC002E
:10018000AB000100010001000100000001000000BF
:100190000100000001000100010001000100010058
:1001A000010001000100010000000000000000004B
:1001B0000000000035021E001F0020002100220068
:1001C0002300240025002600270001002900310219
:1001D00034022D022E022F023002210022002300C1
:1001E00034000100010001000100010001000100D4
:1001F00027001E001F002000010001000100010077
:1002000001000000010000000100000001000100E9
:1002100001000100005C010001000100010001007B
:1002200000000000000000000000000001000100CC
:10023000010001000100010001003A003B003C0008
:100240003D00010029000100010001000100010042
:1002500001003E003F00400041000100E1000100BC
:1002600001000100010001000100420043004400C0
:10027000450001000100E200010000000100000053
:100280000100000001000100010001000501090258
:10029000A10185020901A10005091901290515001F
:1002A00025019505750181029501750381010501FF
:1002B000093009311581257F9502750881060938B5
:1002C0001581257F950175088106050C0A380215F0
:1002D00081257F950175088106C0C005010980A1AF
:1002E00001850319012AB700150126B7009501758C
:1002F000108100C0050C0901A101850419012AA083
:1003000002150126A002950175108100C0050109A2
:1003100006A1018505050719E029E71500250195C6
:1003200008750181020507190029EF1500250195BF
:10033000F0750181020508190129059505750191DE
:1003400002950175039101C005010906A101050788
:1003500019E029E71500250195087501810295012D
:10036000750881010507190029FF150026FF009572
:100370000675088100050819012905950575019183
:1003800002950175039101C009023B00020100A022
:10039000FA09040000010301010009211101000113
:1003A0002240000705810308000A09040100010337
:1003B00000000009211101000122BC000705820391
:1003C00020000A12010002000000088C5403000102
:1003D000000102000110034D0065006D006F007206
:1003E000006900610000001E034D0061007900619A
:1003F000006E006F0020005300680069006E006B03
:1004000000610069000000040309040011241FBEFC
:10041000CFEFDAE0DEBFCDBF04B603FE27C0809188
:10042000550290915602A0915702B0915802873020
:10043000904BA740B04BD1F4109255021092560247
:10044000109257021092580214BE84B7877F84BF5F
:100450000FB6F894A8958091600088618093600041
:10046000109260000FBEE0E0F8E3099511E0A0E013
:10047000B1E0EEEAF9E302C005900D92AE34B107A7
:10048000D9F722E0AEE4B1E001C01D92A535B20774
:10049000E1F70E9499190C94B11C0C940000E8ED4E
:1004A000F0E080818E7F80831092E2001092DA006B
:1004B0001092E100A0EEB0E08C9181608C9380817D
:1004C0008F77808319BCA7EDB0E08C918E7F8C93E1
:1004D00080818F7E80831092230208952091E40012
:1004E0003091E50095E6A9012091EC00822F817002
:1004F00020FF06C08091E80080FF06C080E00895DC
:100500002091E80022FD1AC080914802882389F0DA
:10051000853089F08091EB0085FD0FC02091E400CB
:100520003091E50042175307F9F29150E1F684E06B
:10053000089582E0089583E0089581E00895EF92A0
:10054000FF920F931F93CF937C018B010E946E0249
:10055000C82F811117C08091E80085FD0BC08091E4
:10056000E8008E778093E8000E946E02882399F35A
:10057000C82F08C0F70181917F018093F1000150DD
:10058000110949F78C2FCF911F910F91FF90EF9098
:10059000089580914A0287FF13C08091E80082FF8E
:1005A00006C08091E8008B778093E80004C08091BA
:1005B00048028111F2CF0895809148028823D9F32F
:1005C0008091E80080FFF8CF8091E8008E77ECCF33
:1005D000982F9093E900242F762F50E0891731F05F
:1005E0007091EC002091ED005091F00021FD07C0CA
:1005F0009F5F973071F78093E90081E00895309113
:10060000EB003E7F3093EB003091ED003D7F309367
:10061000ED003091EB0031603093EB007093EC0013
:100620002093ED005093F0002091EE0027FDE0CFE5
:1006300080E00895CF92DF92EF92FF920F931F9385
:10064000CF93DF93C8EDD0E088818F7E8883E7ED7C
:10065000F0E080818160808384E082BF81E08093CC
:10066000230288818E7F888302EE10E0F8011082D9
:100670001092DA0081EEC82ED12CF601108288810A
:100680008F77888388818068888388818F7D88833D
:1006900019BC10924802109249021092470210921F
:1006A000460290EEE92EF12CF70180818B7F80834A
:1006B00088818160888342E060E080E00E94E802F7
:1006C000F60180818E7F8083F80180818160808344
:1006D000808188608083F70180818E7F808388811C
:1006E00080618883DF91CF911F910F91FF90EF90F0
:1006F000DF90CF900895FC018091500290915102BB
:1007000086179707A0F06115710529F49091E8000C
:100710009E779093E80090E06115710551F4911176
:1007200008C08091E80082FF34C080E00895BC01D9
:10073000F2CF809148028823C1F18530C1F18091C8
:10074000E80083FD30C08091E80082FDEACF80910F
:10075000E80080FFE1CF8091F3002091F200382F74
:100760006115710519F02830310558F091E02830F5
:10077000310509F090E02091E8002E772093E80001
:10078000CBCF81918093F100615071092F5F3F4F72
:10079000E7CF80914802882341F0853041F0809175
:1007A000E80083FFBECF81E0089582E0089583E0F2
:1007B00008958091250208959C014FB7F894809187
:1007C0001A0290911B02A0911C02B0911D024FBF12
:1007D000821B930B08952FB7F89480911A02909181
:1007E0001B02A0911C02B0911D022FBF0895209101
:1007F0000A012223C9F020911E0227FF15C0E62F0F
:10080000E695E695E695EE31D8F4E80FF92FF11D5F
:10081000677021E030E001C0220F6A95EAF7209569
:100820008281282322830895FC0132960896219123
:10083000621303C0DF0111971C92E817F907B9F79B
:10084000089520910A012223C1F020911E0227FF62
:1008500014C0E62FE695E695E695EE31F8F4E80F3C
:10086000F92FF11D677021E030E001C0220F6A9579
:10087000EAF78281822B82830895FC0132962FEF62
:1008800030E04191641751F02F3F19F4411101C03C
:10089000232F3F5F3630A9F72F3F09F40895820FC9
:1008A000911D27FD9A95FC016283089520911702FE
:1008B000309118022817390771F09093180280932D
:1008C0001702E0911502F0911602309721F0008492
:1008D000F185E02D099408952091130230911402BE
:1008E0002817390771F09093140280931302E09156
:1008F0001502F0911602309721F00680F781E02D65
:1009000009940895E0911502F0911602309721F0B4
:100910000190F081E02D099480E008950E94EB039E
:100920009C0190910F0280911002982B21F030933E
:100930000C0220930B029091110280911202982BCD
:1009400021F030930A0220930902E0911502F09100
:100950001602309749F082E080930D020480F58101
:10096000E02D8DE092E00994089590910F028D3E64
:1009700059F48091100287FF0DC01092100291115E
:100980000BC01092070208C08E3E81F480911002C5
:1009900018169CF3992381F0809111029091120214
:1009A000892B09F064C01092060208958F3E49F425
:1009B00097FFF0CF10920F02809110028111ECCFBF
:1009C000E0CF803F19F41916ACF3E4CF2091110267
:1009D000893F29F41216F4F610921102DBCF8A3FF8
:1009E00019F427FFD7CFF8CF209112028B3F29F4BB
:1009F00027FFD0CF10921202CDCF8C3F19F41216E0
:100A0000CCF3C8CF813F31F480910E028E7F80936A
:100A10000E02C0CF823F21F480910E028D7FF7CF6E
:100A2000833F21F480910E028B7FF1CF843F21F42C
:100A300080910E02877FEBCF853F21F480910E02DB
:100A40008F7EE5CF8D3F31F4809108028E7F8093B9
:100A50000802A0CF8E3F21F4809108028D7FF7CF4E
:100A60008F3F09F097CF809108028B7FF0CF0895D8
:100A70008091080280FD16C081FD16C082FD16C05F
:100A8000809106028823A1F0883280F428E0829FBA
:100A9000C001112468E270E00E94341C862F672B8D
:100AA00039F0089582E0089584E0089588E008957B
:100AB00081E008958091080280FD14C081FD14C07A
:100AC00082FD16C080910702882381F0843180F472
:100AD00022E3829FC001112464E170E00E94341C73
:100AE000862F08958CE0089589E1089585E00895A2
:100AF00082E308958D3E31F40E945A0581958093DA
:100B0000100208958E3E19F40E945A05F8CF8F3EC8
:100B100031F40E945A05819580930F020895803F19
:100B200019F40E945A05F8CF893F29F40E9438052C
:100B30008093110208958A3F21F40E94380581951F
:100B4000F7CF8B3F31F40E943805819580931202D4
:100B500008958C3F19F40E943805F8CF813F31F495
:100B600080910E02816080930E020895823F21F4ED
:100B700080910E028260F7CF833F21F480910E02B4
:100B80008460F1CF843F21F480910E028860EBCF26
:100B9000853F21F480910E028061E5CF8D3F31F4D5
:100BA0008091080281608093080208958E3F21F4AD
:100BB000809108028260F7CF8F3FB9F780910802D9
:100BC0008460F1CF80E00895F894E82FE295EF700B
:100BD000F0E031A1282F2F7081E090E001C0880F54
:100BE0002A95EAF7982F9095932391A392A1892BA8
:100BF00082A37894089590911E0292FF06C0282F38
:100C000028712830F9F4877F846093FF06C0282F6D
:100C100028712831F1F4877E846120911F0220FF22
:100C200006C0382F38713830D9F4877F816021FFB2
:100C300006C0282F28712831D1F4877E816194FD68
:100C4000877E0895282F24712430F9F68B7F8860E1
:100C5000DCCF282F2471243101F78B7E8861DDCF12
:100C6000382F3171313019F78E7F8860E0CF282F0F
:100C70002171213121F78E7E8861E1CFCF93DF93FF
:100C8000EC0182389105A9F1D8F58133910509F479
:100C900096C048F58932910509F48AC08A9709F40B
:100CA00095C0C11521E5D20708F0BCC0C11530E5DB
:100CB000D30708F014C1C83ED10508F09CC0C03E5F
:100CC000D10560F5C83AD10508F087C0C53AD1050D
:100CD00008F0FDC0C130D10509F12097F9F0C4300A
:100CE000D105E0F440C08533910509F45AC0C99795
:100CF000C1F680911E02837089F0C0EED0E00EC074
:100D0000833E910599F170F4803E910501F1823E98
:100D1000910539F680911E0282FD21C0CE01DF913E
:100D2000CF910895863E910561F1873E910571F15D
:100D3000843E910509F0B5CF80911F0281FFEECF6F
:100D400080911E02C7EED0E084FD0DC0E7CF8091F8
:100D50001E0280FD12C190911F0290FFDFCFC3EEF3
:100D6000D0E084FFDBCFD0E0C0E0D8CF80911E027E
:100D700082FD06C190911F0290FDBFCF84FFCECFB0
:100D8000F2CF80911E0283FDDDCFC8CF80911E027D
:100D900083FDF9C090911F0291FFF0CFC4EED0E027
:100DA000BDCF80911E0285FFB9CFC9E2D0E0B6CF9A
:100DB00080911E0285FFB2CFC5E3D0E0AFCF809116
:100DC0001E0286FFABCFCAE2D0E0A8CF80911E0200
:100DD00086FFA4CFC1E3D0E0A1CFCF3BD10518F669
:100DE000C85AD0E0CC0FDD1FC25FDE4F0990D8811A
:100DF000C02DD46493CFC11540E2D40758F4C11577
:100E000081E0D80708F08ACFCD3ED10508F4ABCFFA
:100E1000D06584CFC11590E4D90708F4A4CFDF7062
:100E2000D06A7CCFC11525E5D20700F5C11534E5A0
:100E3000D30708F08AC0C11543E5D40708F071C094
:100E4000C11582E5D80708F467C0CE0183709927E1
:100E500021E030E002C0220F331F8A95E2F7C695E9
:100E6000C69580E2C89FE001112452C0C11599E5E2
:100E7000D907A8F4C11528E5D20708F06BC0C11541
:100E800036E5D30708F06FCF8C2F0E94FB05C82FE3
:100E9000D0E0DC2FCC27CC27DF71D0623FCFC1154B
:100EA0004AE5D40708F45BC0CE0190568115904204
:100EB00008F059CF8D2F8F710E94FB0590E0982F7D
:100EC000882788279F719C012C2BE901E6CFC55A02
:100ED000D0E0C55FDE4FC881D0E0D0641FCFCE0127
:100EE000E4E096958795EA95E1F783702C2F269597
:100EF0002695237040E2249F90011124382B8C2FDB
:100F00008370C1E0D0E002C0CC0FDD1F8A95E2F70C
:100F1000C22BD32BDC6802CFDC2FCC27C16FD06A69
:100F2000FDCECE018370992721E030E002C0220F70
:100F3000331F8A95E2F7C695C69590E2C99FE001F6
:100F40001124C22BD32BDA68E9CEDC2FCC27C46F57
:100F5000D06AE4CEDC2FCC27C06FD06ADFCE8C2FD6
:100F60008F700E94FB0534E0D695C7953A95E1F75E
:100F7000CF709C2FEC01D069D1CEC9E3D0E0CECEAA
:100F8000C2EED0E0CBCEC6EED0E0C8CE8091DA0182
:100F9000882331F01092DA011092D9011092D80111
:100FA000089580959091D70198239093D701089543
:100FB0008091D7019091D601892B9091D501892BF1
:100FC000809350018091DA01882329F10E94EB037C
:100FD0002091D8013091D901821B930B883893411D
:100FE00010F00E94C607809150019091DA01892B80
:100FF0008093500180910A01882341F180911E0263
:1010000087FF24C08EE1E2E5F1E090E0815000F539
:1010100091110E94C607E0911502F09116023097D7
:10102000E1F080910A01882359F080911E0287FF28
:1010300007C0809150018093510185E08093500159
:101040000280F381E02D80E591E0099486E0DBCF1A
:1010500021912223D9F29F5FD9CF08951092D40114
:101060001092D3011092D20108958091D101811183
:101070001092D10108958091D00190919F01981311
:1010800001C008958F5F8770FACFAF92BF92CF9261
:10109000DF92EF92FF920F931F93CF93DF93C09055
:1010A000E201D090E301E090E401F090E50140918D
:1010B000DB015091DC016091DD017091DE01C42AF9
:1010C000D52AE62AF72ACFE1D0E0082F10E02CE05D
:1010D000929F000D111D11249CE3A92EBC2ED70157
:1010E000C6010C2E04C0B695A795979587950A94CE
:1010F000D2F780FD0FC0219788F7B12C8B2DDF919F
:10110000CF911F910F91FF90EF90DF90CF90BF9004
:10111000AF900895AC9EF001AD9EF00D1124E00F4C
:10112000F11FEE0FFF1FE455FF4F859194910E9430
:101130003E06019701F3E2CFCF93DF93EC010E94CB
:101140004508EC2FF0E09CE0D99FE00DF11D112443
:101150009CE3899FE00DF11D1124EE0FFF1FE45564
:10116000FF4F85919491DF91CF910C943E062CE036
:10117000929F800D1124982F97708695869586955D
:1011800025E0829FF0011124EF58FE4F50E040E02F
:1011900080E0219130E0092E02C0369527950A940F
:1011A000E2F721703327042E01C0220F0A94EAF7D8
:1011B000822B4F5F5F4F4530510559F708952CE062
:1011C000929F800D1124982F977041E001C0440F29
:1011D0009A95EAF786958695869595E0899FF00120
:1011E0001124EF58FE4F90E080E070E05191DF0154
:1011F00011979B01082E02C0369527950A94E2F7B5
:10120000217021952527242325272C9301968530AD
:10121000910561F70895FC01808191810E949C08ED
:10122000292F2F7092959F7092509E3078F4E92F5D
:10123000F0E0ED54F34E0C94481C803F19F020F47C
:10124000883E20F481E00895843FE1F380E0089532
:10125000883EC0F3813FD1F7F5CF822F86958695E2
:101260008695089590E080E00E946C0490E080E014
:101270000E9456041092D6011092D5010E94D80700
:1012800086E0EDE0F2E0DF011D928A95E9F7109229
:10129000070210920602109208020C948E046093CA
:1012A000DB017093DC018093DD019093DE010C94EF
:1012B0003209882321F00E94D1070C94D8070895A1
:1012C000882339F09091D701982B9093D7010C94F3
:1012D000D8070895882379F19CEF980F913A38F454
:1012E000682F80E591E00E94F7030C94D80790E204
:1012F000980F983050F4877091E001C0990F8A954B
:10130000EAF7892F0E94D107F0CF9BE5980F933021
:1013100020F490E080E00C946C0498E5980F9731ED
:1013200020F490E080E00C9456048D3E20F00E9462
:10133000B5040C948E040895CF93C82F882309F424
:101340006FC08CEF8C0F813AC0F580910A01882321
:1013500011F180911E0287FF1EC0EC2FE695E695E5
:10136000E695F0E0E05BFE4F828190E04C2F477005
:1013700021E030E002C0220F331F4A95E2F78223BA
:101380009323892B91F06C2F80E591E00E94F70365
:101390000E94D8070AC0E2E5F1E088E591E02191DA
:1013A000C21789F38E179F07D1F76C2F80E591E064
:1013B0000E942104CF910C94D80780E28C0F8830D2
:1013C00068F4C77021E030E001C0220FCA95EAF747
:1013D0008091D701822B8093D701ECCFEBE5EC0F06
:1013E000E33040F4F0E0E55FFE4F808190E0CF9184
:1013F0000C946C04E8E5EC0FE73150F4F0E0EE0FEC
:10140000FF1FE25FFE4F80819181CF910C945604C3
:10141000CD3E30F08C2F0E947A05CF910C948E0433
:10142000CF910895CF92DF92EF92FF920F931F9387
:101430008B019C012C982D982E98A901662777275F
:1014400080E1411551056105710519F4B901A80143
:1014500080E0C52ED62EE72EFF24C114D104E1046E
:10146000F10419F0885FB701A6016A017B01F4E07D
:10147000F694E794D794C794FA95D1F7C114D104A0
:10148000E104F10419F08C5FB701A6016A017B0148
:10149000E2E0F694E794D794C794EA95D1F7C114A3
:1014A000D104E104F10419F08E5FB701A60176952D
:1014B000679557954795452B462B472B09F08F5F2E
:1014C000823071F0833071F0813009F42C9AC901B7
:1014D000B8011F910F91FF90EF90DF90CF9008958A
:1014E0002D9AF5CF2E9AF3CF0E94120A6093E20153
:1014F0007093E3018093E4019093E5010C94320929
:101500000F931F9341E050E060E070E004C0440F8F
:10151000551F661F771F8A95D2F7CB01BA016095D8
:101520007095809590950091E2011091E3012091D2
:10153000E4013091E50160237123822393231F91FD
:101540000F910C94740A9091D40180958923809313
:10155000D401282F277039F4282F082E000C330BC4
:101560009217130621F490911F0292FF07C08595F0
:10157000859585950E94800A0C942E0808950F93F6
:101580001F9341E050E060E070E004C0440F551F3D
:10159000661F771F8A95D2F78091E2019091E3014F
:1015A000A091E401B091E5018A019B01082B192B60
:1015B0002A2B3B2BC901B8011F910F910C94740A7F
:1015C00090911F0292FD10C098E0899F9001112414
:1015D000622B6093D4010E94BF0A0E94EB03909398
:1015E000D3018093D20108950C94BF0A1F93CF9327
:1015F000DF93C62FD42F122FFC018281882399F00C
:10160000609354020E94EB03909353028093520222
:10161000C77081E001C0880FCA95EAF7DF91CF91CA
:101620001F910C94600980915402681343C080910B
:101630005202909153020E94DC03883C9105D0F540
:10164000CD17C9F080E28C0F883040F4C77081E07C
:1016500001C0880FCA95EAF70E94590980E28D0FF0
:10166000883048F481E09D2F977001C0880F9A95CB
:10167000EAF70E946009812F0E949C098AE090E0AD
:10168000EFE9FFE03197F1F700C000000197C1F7E3
:10169000812F0E946A0980E28D0F883090F4D77004
:1016A00081E001C0880FDA95EAF7DF91CF911F91B1
:1016B0000C945909C77081E001C0880FCA95EAF7F8
:1016C000F4CFDF91CF911F9108959091480294300B
:1016D00031F580932002709322026093210282E010
:1016E0008093E9008FEF9091E800815095FD06C04E
:1016F00095ED9A95F1F700008111F5CF8091E80002
:1017000085FF0DC050E040E063E070E080E292E0D1
:101710000E949F028091E8008E778093E8000895F0
:10172000BC0184E00C94650BBC0183E00C94650B58
:101730009C0182E08093E9009FEF8091E800915046
:1017400085FD06C085ED8A95F1F700009111F5CF72
:101750008091E80085FF0CC050E040E066E070E05A
:10176000C9010E949F028091E8008E778093E80073
:101770000895CF93DF93EC0180910A018823B1F1A2
:1017800080911E0287FF32C060E282E08093E90010
:101790008FEF9091E800815095FD06C095ED9A95E8
:1017A000F1F700008111F5CF8091E80085FF1BC0A3
:1017B00080910A0170E050E040E0811104C050E0E7
:1017C00040E068E070E0CE010E949F028091E80056
:1017D0008E778093E80080E2FE01A6E2B2E00190FD
:1017E0000D928A95E1F7DF91CF91089568E081E04D
:1017F000CDCF81E08093E00080E28093D80010920A
:10180000C9008FE19EE40197F1F700C0000087E076
:1018100090EBDC018093550290935602A0935702FF
:10182000B093580288E19CE00FB6F894A895809395
:1018300060000FBE90936000FFCFCF9384E090E0F4
:101840000E94621CC82F82E290E00E94621C982FC6
:101850008C2FCF9108956F927F928F929F92AF922B
:10186000BF92CF92DF92EF92FF920F931F93CF938D
:10187000DF93CDB7DEB72A970FB6F894DEBF0FBE61
:10188000CDBF8E010F5F1F4F8AE0F80111928A953C
:10189000E9F78CE3E82E81E0F82E680191E4692EE7
:1018A00091E0792E88248394912CF70181917F0116
:1018B0008F3F09F44BC0F894E82FE295EF70F0E009
:1018C00021A18F70A40102C0440F551F8A95E2F731
:1018D000CA01922F982B91A392A18095892382A36C
:1018E000789400C0E1E4F1E030E020E0B12CA12CDC
:1018F00081918F3F09F484C0A82FA295AF70B0E00A
:1019000090964C9150E08F7002C0559547958A95FE
:10191000E2F740FD75C0C401022E02C0880F991F76
:101920000A94E2F7A82AB92A2F5F3F4F2C303105DD
:10193000F9F6F701319780818F3F11F00E94E4059D
:1019400050EA5A95F1F7F601B182A082F2E0CF0E8B
:10195000D11C6E147F0409F0A8CF4AE050E0B80112
:1019600086EE91E00E94A41CFF24F394009709F4F2
:10197000F12C892B09F447C08AE0F801A6EEB1E00A
:1019800001900D928A95E1F781E08093E1010E9438
:10199000EB039093E0018093DF018091DF01909150
:1019A000E0010E94DC03059790F18091E60190919F
:1019B000E7019093F1018093F0018091E80190910B
:1019C000E9019093F3018093F2018091EA019091F3
:1019D000EB019093F5018093F4018091EC019091DB
:1019E000ED019093F7018093F6018091EE019091C3
:1019F000EF019093F9018093F8011092E10107C083
:101A000090E080E08FCF8091E1018111C6CF8F2DD2
:101A10002A960FB6F894DEBF0FBECDBFDF91CF91EF
:101A20001F910F91FF90EF90DF90CF90BF90AF90FC
:101A30009F908F907F906F9008956AEE7EEF90E078
:101A400080E00E948E1C60E082E090E00E94701CAA
:101A500060E083E090E00E94701C1092DB01109225
:101A6000DC011092DD011092DE0160E084E090E084
:101A70000E94701C60E082E290E00E94701C60E0B6
:101A800085E090E00E94701C60E086E090E00E949B
:101A9000701C6FEF87E090E00E94701C40E050E007
:101AA000BA0188E090E00E94821C60E08DE090E046
:101AB0000E94701C40E050E0BA0188E190E00E9472
:101AC000821C60E087E190E00E94701C40E050E0E2
:101AD000BA018CE190E00E94821C70E060E080E23C
:101AE00090E00E948E1C40E050E0BA0188E190E056
:101AF0000E94821C40E050E0BA018FE090E00E941A
:101B0000821C40E050E0BA0183E190E00C94821C1A
:101B1000CF93C0911F02C2FB992790F9981781F0CB
:101B200080FBC2F9C0931F0260911E0284E090E026
:101B30000E94701C6C2F82E290E0CF910C94701C7C
:101B4000CF9108951092D70180910A01E2E5F1E06A
:101B5000882359F080911E0287FF07C08EE1DF01C4
:101B60001D928A95E9F70C94320986E0F8CF1F930D
:101B7000CF93DF93CDB7DEB7AA970FB6F894DEBF49
:101B80000FBECDBF8AE492E02091F100FC012193C9
:101B9000CF01F2E082359F07B9F780914B02833085
:101BA00009F46FC0B8F4813009F446C0823009F4FA
:101BB000B0C08091E80083FF7BC280914A0290917F
:101BC0004B029A3008F074C2E92FF0E0EF53F34E65
:101BD0000C94481C8A3009F48BC08B3009F46EC019
:101BE000893039F780914A02813219F780914E028B
:101BF00090914F020297E8F68091E800877F8093EA
:101C0000E8008091E80082FF37C09091F300809156
:101C1000F200029729F48091F1008B7F813021F44A
:101C20008091F100809325028091E8008B7780936A
:101C3000E8000E94C902BDCF80914A02813A09F0B2
:101C4000B8CF8091E800877F8093E80080914E02B2
:101C500090914F02892B61F460E286E292E070E09D
:101C60000E947B038091E8008B778093E800A1CFEE
:101C700060E090E080E0F3CF809148028111C1CF15
:101C800098CF80914A02813A09F093CF80914E0219
:101C900090914F02892B09F08CCF8091E800877FCB
:101CA0008093E8008091E80080FFFCCF80910A01DA
:101CB0008093F1008091E8008E77B9CF80914A023D
:101CC000813209F076CF80914E0290914F02892B9C
:101CD00009F06FCF8091E800877F8093E8000E9431
:101CE000C90280914C0280930A010E94A20D61CF2B
:101CF00080914A02813209F05CCF8091E800877FB1
:101D00008093E8000E94C90280914D0280932402D2
:101D100050CF80914A02813A09F04BCF8091E80080
:101D2000877F8093E8008091E80080FFFCCF80915E
:101D30002402BECF803899F0823809F0B9C1809171
:101D40004E028F70873008F0B3C18093E900809114
:101D5000EB0085FB882780F91092E90006C080918E
:101D6000460290914702911182609091E800977F1E
:101D70009093E8008093F1001092F1008091E800C8
:101D80008E7792C1882309F480C1823009F090C116
:101D900080914C02811183C180914E028F702FEF90
:101DA000280F263008F084C18093E9002091EB00D1
:101DB00020FF75C1933031F48091EB0080628093F5
:101DC000EB006DC19091EB0090619093EB0021E0EE
:101DD00030E001C0220F8A95EAF72093EA001092C2
:101DE000EA008091EB008860EACF811161C1109117
:101DF0004C021F778091E3008078812B8093E30071
:101E00008091E800877F8093E8000E94C90280915A
:101E1000E80080FFFCCF8091E30080688093E300BE
:101E200082E0111183E08093480242C180588230E1
:101E300008F03EC180914C0290914D028C3D23E010
:101E40009207A1F583E08A838AE289834FB7F894E9
:101E5000DE01139620E03EE051E2E32FF0E05093E4
:101E60005700E49120FF03C0E295EF703F5FEF70F1
:101E70008E2F90E0EA30C0F0C7968D939D932F5F30
:101E8000243159F74FBF8091E800877F8093E800A5
:101E90006AE270E0CE0101960E947B038091E80027
:101EA0008B778093E80004C1C096E7CF40914E0243
:101EB00050914F02292F33272330310509F444C0B4
:101EC00078F52130310509F46FC08BE390E0E8E844
:101ED000F3E02230310509F0EBC02091E800277FC4
:101EE0002093E8002091500230915102821793070D
:101EF00008F49C0140E02115310509F064C041114E
:101F000062C08091E80082FDC9CF80914802882399
:101F100029F2853019F28091E80083FFF2CFBECF1D
:101F200021323105A9F12232310509F0C1C0411534
:101F3000510509F443C04130510509F0B9C08CEB9B
:101F400090E0ECE8F2E0C9CF992781309105C1F02B
:101F5000009759F0029709F0ABC0E5EDF3E0E4918A
:101F60008E2F90E0E5EDF3E007C0E7E0F4E0E491C8
:101F70008E2F90E0E7E0F4E0009709F499C0ADCF30
:101F8000E7EEF3E0E4918E2F90E0E7EEF3E0F4CF9C
:101F90004115510571F04130510509F089C089E0C2
:101FA00090E0E3EBF3E099CF82E190E0E3ECF3E043
:101FB00094CF89E090E0EAE9F3E08FCF80E490E00D
:101FC000E8E4F3E08ACF80914802882309F466CFE1
:101FD000853009F463CF8091E80083FD5FCF809165
:101FE000E80082FD8ECF8091E80080FF84CF909141
:101FF000F3008091F2002115310519F08830910528
:1020000050F041E0089709F040E08091E8008E77B9
:102010008093E80070CF44914093F10031962150B5
:1020200031090196E8CF803809F042C08091E8007C
:10203000877F8093E800809149028093F1009ECED3
:10204000811136C010914C02123090F58091E80059
:10205000877F8093E800109349020E94C9021123F0
:1020600011F084E005C08091E30087FDFACF81E0A4
:102070008093480242E061EC81E00E94E80242E283
:1020800061EC82E00E94E80213C080914C02813032
:1020900079F481E0933009F080E080934702109258
:1020A000E9008091E800877F8093E8000E94C902E0
:1020B0008091E80083FF0AC08091E800877F8093C9
:1020C000E8008091EB0080628093EB00AA960FB647
:1020D000F894DEBF0FBECDBFDF91CF911F91089561
:1020E0004F925F926F927F928F929F92AF92BF9228
:1020F000CF92DF92EF92FF920F931F93CF93DF93D4
:1021000000D000D00F92CDB7DEB77C01FC018381F7
:102110009481892B39F01081D180812F8D218F3FBF
:1021200009F08EC40F900F900F900F900F90DF91D9
:10213000CF911F910F91FF90EF90DF90CF90BF90C4
:10214000AF909F908F907F906F905F904F90089589
:102150000E944508082F682F89819A810E94DF0814
:10216000E12FF0E02CE0D29EE00DF11D11243CE3C4
:10217000039FE00DF11D1124EE0FFF1FE455FF4FEB
:1021800005911491043F8CE5180709F492C0B0F54D
:10219000093DECE51E0709F488C00A3DFCE51F0770
:1021A00009F493C0083D2CE51207B1F526E241EE93
:1021B00061EEC7010E94F60A8091D401877009F48C
:1021C000B1CFF7018281882309F4ACCF82E00F9070
:1021D0000F900F900F900F90DF91CF911F910F9163
:1021E000FF90EF90DF90CF90BF90AF909F908F9037
:1021F0007F906F905F904F900C94A30A063F3CE550
:10220000130709F45EC008F458C027E245EE66EEF5
:10221000073F9CE5190769F2F7018281882309F4D9
:1022200020C4109254020230FCE51F0708F42EC1AE
:1022300006312CE5120730F0C8018B5F9C450997E9
:1022400008F024C10E941D0C90931F0280931E026F
:1022500000313CE5130709F4E8C008F076C0083007
:102260009CE5190709F4D7C008F045C00430FCE527
:102270001F0709F4C8C060F502303CE5130709F4F4
:10228000B8C003301C4509F4BAC060911E02109119
:102290001F0284E090E00E94701C612F82E290E0B7
:1022A0000E94701C0E94A20D87CF27E245EE65EECA
:1022B00080CF26E241EE60EE7CCF27E245EE64EE71
:1022C00078CF26E241EE62EE74CF28E241E0EFCF14
:1022D00080911E02806106309CE5190709F48CC0CC
:1022E00080911E02886007301C4508F485C08091EB
:1022F0001E02806281C080911E028D7F0C30FCE541
:102300001F0709F479C070F480911E028C600A30B6
:102310003CE5130709F470C008F481C080911E02E7
:102320008E7F6AC080911E02877F0E309CE5190760
:1023300009F462C080911E028B7F0F301C4508F4A7
:102340005BC080911E028F7E57C00C3FFCE51F07CB
:1023500009F45DC030F503313CE5130709F46DC0A5
:1023600078F401319CE5190709F463C002311C457A
:1023700009F08BCF0E94A20D80911E028F773CC086
:102380000531FCE51F0709F460C008F474C08091B2
:102390001F0281600B3F1C4509F077CF80931F021D
:1023A00074CF01158DE5180709F44BC088F48091AE
:1023B0001F028D7F0E3FECE51E0781F380911F0207
:1023C0008E7F0F3F1C4550F380911F028360E6CF44
:1023D00002302DE5120709F457C008F442C060E04E
:1023E00003301D4509F051CF8EE090E00E94701C33
:1023F0004CCF80911E02816080931E0246CF809157
:102400001E028260F9CF80911E028460F5CF809118
:102410001F028260C3CF80911E028064EDCF0E94B4
:10242000A20D80911E028068E7CF80911E028F7DF1
:10243000E3CF80911E028F7BDFCF80911E02837FCE
:10244000DBCF80911F028C7FA9CF80911E0282FB7F
:10245000992790F921E0922790FB82F990FB83F96C
:10246000CBCF80911F02982F909591708E7F892BF2
:1024700090FB81F993CF0E94A20D90911E02892FAB
:1024800097FB87F98058B8CF61E0AECF06319CE565
:10249000190709F0F3C28091D7018A7A91E009F413
:1024A00090E09093700169E2811165E380E591E02D
:1024B0000E9421040E94D8077FCE0E94A20DEFEF58
:1024C000F4E32CE0E150F0402040E1F700C00000D0
:1024D0000E94F90B81E0F2C280E0F0C2812F902FC0
:1024E0000E94B708D82EFDC2212F2F70D22E107F48
:1024F00019F0D29420EFD222BB20C9F0DD2069F080
:1025000080E2800F883010F081100BC08091D701DD
:10251000D82AD092D7010E94D807802F0E949C0908
:1025200015C08091D601D82AD092D601F4CF802F41
:102530000E946A09DD2051F0005E083010F0811021
:1025400043C08D2D0E94D1070E94D807E92DE85085
:10255000FF0B349710F40E948204AA20A9F0809106
:10256000D40180FD11C0F70112828595859585956E
:102570000E94BF0AC7010E9470108091D401859506
:10258000859585950E94800A85E0F701DE01119608
:1025900001900D928A95E1F789819A810E94B7088E
:1025A0009A81E981F0E02CE0929FE00DF11D112469
:1025B0003CE3839FE00DF11D1124EE0FFF1FE45556
:1025C000FF4F85919491AECDD0948091D601D822C1
:1025D000D092D601B9CF312F3F70D32E107F103259
:1025E00019F0D29490EFD922882081F081E08816EA
:1025F00009F450C0BB2009F459C0CC2079F1F7018F
:10260000858180FF8ACF8F70858328C0BB2051F1E0
:10261000C11004C08091DA018D2921C091E0C91256
:1026200013C080911F0282FD91CF8091DA01D82AD8
:10263000D81609F48BCF0E94EB039093D9018093B5
:10264000D801D092DA0182CFE5E0CE12E3CF0E942A
:10265000C6078091D101D812D092D1018D2D0E9450
:10266000600974CFC11006C00E94C6078D2D0E945C
:1026700059096CCFF1E0CF1208C08091D7018D21AC
:1026800009F464CF0E943508EFCF25E0C21609F4A3
:102690005DCFEACFBB2029F035E03C1508F456CFDA
:1026A000DDCF84E08C1508F451CFE0CFCC20F1F2DF
:1026B000F9E38F120DC02FEF37EE83E02150304049
:1026C0008040E1F700C00000802F0E946A093ECFE1
:1026D000EFE3FCE93197F1F7F5CF812F86958695E9
:1026E000837061F0813009F031CFC8019370B1106F
:1026F00002C090E080E00E94560428CFC801937089
:10270000B11002C090E080E00E946C041FCF802FC7
:10271000BB2039F00E947A050E948E040E948E042C
:1027200015CF0E94B504FACF812F837009F066C0DF
:10273000B1100CCF802F829586958770880F880FF7
:10274000602F6F70462E512C712C612C082E04C006
:10275000440C551C661C771C0A94D2F740E050E0EC
:10276000BA0104FF0FC04FE050E060E070E004C029
:10277000440F551F661F771F8A95D2F740955095D5
:1027800060957095812F869586958370823019F1BA
:10279000D8F40091DB011091DC012091DD01309132
:1027A000DE01813069F04429552966297729CB015A
:1027B000BA0160237123822393230E944F09C6CE5E
:1027C000402A512A622A732ACB01BA016429752949
:1027D00086299729F2CF442955296629772900911E
:1027E000DB011091DC012091DD013091DE01CB0194
:1027F000BA016027712782279327DFCF8695BB20F8
:1028000011F0812F8170882309F4A0CE802F82954A
:1028100086958770880F880F602F6F70462E512C19
:10282000712C612C082E04C0440C551C661C771CAE
:102830000A94D2F740E050E0BA0104FF0FC04FE025
:1028400050E060E070E004C0440F551F661F771F22
:102850008A95D2F74095509560957095812F869511
:1028600086958370823019F1D8F40091E2011091BD
:10287000E3012091E4013091E501813069F04429C0
:10288000552966297729CB01BA0160237123822358
:1028900093230E94740A5ACE402A512A622A732A2C
:1028A000CB01BA016429752986299729F2CF4429D9
:1028B0005529662977290091E2011091E3012091C1
:1028C000E4013091E501CB01BA016027712782272D
:1028D0009327DFCF1F70BB2029F0812F0E94BF0AF2
:1028E000802FBDCE802F0E945909812F0E94800A1F
:1028F0002DCE802FF2EF8F1609F455C0F81578F021
:1029000020EF821641F131EF831609F444C0BB2059
:1029100009F482C0C11001CE812F8F7141C093EFA5
:10292000891609F445C0E4EF8E12F1CF8091D101F0
:10293000BB2009F45DC00E94D1078091D40187704B
:10294000843009F048C00E942E08812F8F710E94A8
:10295000800AA12CFBCDBB20C9F0F4E0FC1508F4E3
:10296000F5CD1F7161E070E080E090E004C0660F7B
:10297000771F881F991F1A95D2F70091E2011091D5
:10298000E3012091E4013091E5019FCF25E02C1572
:1029900008F4DCCDE6CF812F8F71BB2009F4A6CFE0
:1029A0000E94BF0AD3CD812F8F71BB20C9F39ECF68
:1029B00060E070E0CB01BB2009F46BCF1F7161E0D8
:1029C00070E080E090E004C0660F771F881F991FB9
:1029D0001A95D2F75ECF34E03C1508F4BACF1F71D8
:1029E000812F0E94BF0A63E0812F0E94E00AB1CFCD
:1029F0009091D701982B9093D70184E08C1540F4E7
:102A00000E942E080E94350864E0812F8F71EDCF5F
:102A100081E00E94A30A9DCFCC2079F0893341F454
:102A20009FEFE7EEF3E09150E040F040E1F74ACE4F
:102A30008FE39CE90197F1F745CE812F8F7156CF37
:102A400085E0DE01119601900D928A95E1F7F7017C
:102A5000228189819A8121117BCB0E94B708082F9E
:102A60007FCB06311C4561F58091700169E28111CF
:102A700065E380E591E00E94F7031CCD0B352DE561
:102A8000120709F427CD58F401158CE5180709F44D
:102A900014CD0F3D1C45A1F40E941D0D8DCB0C35AE
:102AA000EDE51E0709F418CD0D351D4549F480915B
:102AB0001F0282FB882780F991E089270E94880DF8
:102AC000F701828110810181882309F407CD812FCC
:102AD000902F0E944508D82E682F812F902F0E949A
:102AE000DF08E12FF0E02CE0029FE00DF11D112442
:102AF0003CE3D39EE00DF11D1124EE0FFF1FE455C2
:102B0000FF4F859194910E943E068C01882EF7011B
:102B1000B280C580C2945FE0C5228091D4018770E5
:102B2000A1F0AB2CBB2091F0812F807F803421F06D
:102B300080E2800F883048F082E00E94A30A8091F2
:102B4000D4018770AA24A3948111A12C912E929470
:102B50003FE09322FBE0F91508F4F8CCE92DF0E012
:102B6000E553F34E0C94481C1F93CF93DF93809151
:102B70009E01807FA9F480919B01882389F0809138
:102B8000D001D0919F016091990170919A01A0911B
:102B90009C01B0919D01C62FC72316E0D81304C035
:102BA000DF91CF911F91089590E0109711F0CF3FE2
:102BB00019F401968770F2CF189F9001199F300D7C
:102BC0001124F901E056FE4F41814713F2CF4081B5
:102BD0004613EFCF42814111ECCF438154814A1B10
:102BE0005B0B483C510528F780919E018F708061F6
:102BF00080939E01F901EB55FE4F80818F708061BB
:102C0000808389E991E00E947010DF91CF911F913C
:102C10000C943B08AF92BF92CF92DF92EF92FF925B
:102C20000F931F93CF93DF93CDB7DEB761970FB6A6
:102C3000F894DEBF0FBECDBF8C0185E0F801DE0148
:102C40001D9601900D928A95E1F7F801E28089E9DD
:102C5000A82E81E0B82E60919C0170919D016115B4
:102C6000710509F432C19091990140919A01892F1F
:102C700084238F3F09F429C120813181C380D4800E
:102C8000F0909B01F601E61BF70BFF2009F4E8C06A
:102C900080919E01582F507FE83CF10508F0ABC0B1
:102CA000511177C0FE2C431321C092131FC0E110B5
:102CB0001DC08F70806180939E01C5010E947010BD
:102CC00080919E01F80185838F2D61960FB6F8944F
:102CD000DEBF0FBECDBFDF91CF911F910F91FF904F
:102CE000EF90DF90CF90BF90AF900895CD2829F05E
:102CF000822F83238F3F09F003C180E0F82FF1700A
:102D0000DF2E80FF3CC08091D00140919F0156E0B2
:102D1000841315C02D873E878D859E850E949C0853
:102D2000292F22952F702230F0F0243018F59F7053
:102D3000F1F0F8019581907FD1F4D12C1EC090E084
:102D4000589FF001599FF00D1124E056FE4F61810C
:102D5000361306C06081261303C06281E6120FC0DD
:102D600001968770D5CF9F7011F0882331F3805E74
:102D7000883018F3C8010E947010FD2CA5CFEE20FA
:102D800009F4A2CF80919E01816080939E01F12C75
:102D90009BCF431306C0921304C0F801EE2009F440
:102DA00079C0C8010E940B09882309F1EE20F9F0CF
:102DB00080919E01803270F02091990130919A01AA
:102DC00038872F831986DB86CA868C87CE010796C3
:102DD0000E94701086E0F801A9E9B1E001900D921F
:102DE0008A95E1F70E94B415FF24F3946DCFC801D2
:102DF0000E947010F9CF51110AC089E991E00E9438
:102E0000701086E0F50111928A95E9F7C0CF43135F
:102E10000FC092130DC0E1100BC0F8018583C801EB
:102E20000E94701086E0F50111928A95E9F74CCF67
:102E3000C8010E940B098823D1F2EE20C1F28091D3
:102E40009E01803238F22091990130919A013A83A3
:102E500029831B82DD82CC828E83CE010196B8CF7E
:102E6000E83CF105F8F6FE2CEE2009F243131FC0F2
:102E700092131DC080919E0180FD10C0982F907FFD
:102E800069F0F8018583903F31F0982F907F905F33
:102E90008F70892B8583C8010E94701086E0F8012D
:102EA000A9E9B1E001900D928A95E1F70DCFC80133
:102EB0000E940B0981118ECF80919E0181608093C9
:102EC0009E01C8010E947010FFCEEE2009F48FCF42
:102ED000C8010E940B09F82E882309F488CF86E0E8
:102EE000F801A9E9B1E001900D928A95E1F780918E
:102EF000990190919A010E949C080E94B415E4CE19
:102F000081E08E25FBCE1F93CF93DF93CDB7DEB745
:102F100067970FB6F894DEBF0FBECDBF4B8B5C8BAF
:102F20006D8B7E8B8F8B61111092D6011A8A198A54
:102F300085E0FE017396DE011D9601900D928A9543
:102F4000E1F70E94EB032091D2013091D301821B63
:102F5000930B8838934120F08091D40182FF7FC089
:102F60000E94EB032091D8013091D901821B930B71
:102F70008838934110F00E94C60786E0FE013D9616
:102F8000DE01179601900D928A95E1F7CE01079622
:102F90000E940A16882389F016E08091D001909152
:102FA0009F01891349C067960FB6F894DEBF0FBE24
:102FB000CDBFDF91CF911F91089586E0FE01379636
:102FC000DE01119601900D928A95E1F78A859B8525
:102FD000892B11F38F81988589238F3FE9F2209106
:102FE0009F0130E0C9010196877099274091D00177
:102FF0004817190671F40E94A20D10929F011092B9
:10300000D00186E0E9E9F1E0DF011D928A95E9F758
:10301000C3CF96E0929FD001939FB00D1124A0568C
:10302000BE4FFE01319601900D929A95E1F7809383
:103030009F010E943B08B0CF819FC00111248056A0
:103040009E4F0E940A16882309F4ADCF8091D001CB
:1030500090E00196877099278093D0019ECF82E0FF
:103060000E94A30A7DCF1F920F920FB60F921124D8
:103070002F933F934F935F936F937F938F939F9380
:10308000AF93BF93CF93DF93EF93FF93D091E9007A
:10309000DF708091EC00C82FC17080FDC0E81092F5
:1030A000E9008091F000877F8093F00078940E947F
:1030B000B70D1092E9008091F00088608093F000D5
:1030C000CD2BCF70C093E900FF91EF91DF91CF91AD
:1030D000BF91AF919F918F917F916F915F914F9130
:1030E0003F912F910F900FBE0F901F9018951F9238
:1030F0000F920FB60F9211242F933F934F935F932C
:103100006F937F938F939F93AF93BF93EF93FF93AF
:103110008091E10082FF09C08091E20082FF05C03A
:103120008091E1008B7F8093E1008091DA0080FF45
:1031300024C08091D80080FF20C08091DA008E7F6B
:103140008093DA008091D90080FF9BC080E189BD27
:1031500082E189BD09B400FEFDCF81E08093480281
:1031600080912302811109C00E944F020E941A031C
:103170008091E20084608093E2008091E10080FF12
:1031800017C08091E20080FF13C08091E2008E7F23
:103190008093E2008091E20080618093E200809160
:1031A000D80080628093D80019BC85E080934802E3
:1031B0008091E10084FF29C08091E20084FF25C056
:1031C00080E189BD82E189BD89B5982F917080FF2A
:1031D000FBCF8091D8008F7D8093D8008091E10053
:1031E0008F7E8093E1008091E2008F7E8093E200E9
:1031F0008091E20081608093E200809149028823FF
:1032000009F445C084E0809348028091E10083FF87
:1032100027C08091E20083FF23C08091E100877F77
:103220008093E10082E080934802109249028091ED
:10323000E1008E7F8093E1008091E2008E7F809399
:10324000E2008091E20080618093E20042E060E071
:1032500080E00E94E8028091F00088608093F00096
:10326000FF91EF91BF91AF919F918F917F916F915E
:103270005F914F913F912F910F900FBE0F901F9034
:10328000189519BC109248021092230276CF8091B3
:10329000E30087FD93E090934802B7CF78941F92A4
:1032A0001FB61F9211248F939F93AF93BF9380916A
:1032B0001A0290911B02A0911C02B0911D0201966E
:1032C000A11DB11D80931A0290931B02A0931C02B2
:1032D000B0931D02BF91AF919F918F911F901FBE20
:1032E0001F9018951F921FB61F9211248F939F93C2
:1032F000AF93BF9380911902811113C080911A027C
:1033000090911B02A0911C02B0911D024196A11D3B
:10331000B11D80931A0290931B02A0931C02B093DC
:103320001D02BF91AF919F918F911F901FBE1F9063
:103330001895CDB7DEB760970FB6F894DEBF0FBE15
:10334000CDBF84B7877F84BF0FB6F894A8958091CE
:103350006000886180936000109260000FBE80E87A
:1033600090E00FB6F89480936100909361000FBED7
:1033700085B7806885BF85B7806885BF82EE95E098
:1033800090934F0180934E010E944F020E941A03B6
:103390008091E20084608093E200789480914802FA
:1033A0008823A1F01091E9001F709091EC00892F03
:1033B000817090FD80E8182B1092E9008091E80060
:1033C00083FD0E94B70D1F701093E90082E084BD59
:1033D00093E095BD9AEF97BD80936E000CE311E0EA
:1033E000F80181918F018F3F11F00E94E405F1E017
:1033F00001341F07A9F701E411E0F80181918F0161
:103400008F3F11F00E94E405F1E00D341F07A9F78A
:103410001092E7011092E6011092F1011092F00172
:103420001092E9011092E8011092F3011092F2015A
:103430001092EB011092EA011092F5011092F40142
:103440001092ED011092EC011092F7011092F6012A
:103450001092EF011092EE011092F9011092F80112
:1034600090E080E00E946A1C8A3E9E4F11F00E940C
:103470001D0D82E090E00E94621C8093FB010E947F
:103480001D0C90931F0280931E020E942B0C8FE351
:103490009CE90197F1F700C000000E942B0C80917D
:1034A000F00180FF08C06FEF7FEF90E080E00E94A6
:1034B0008E1C0E94F90B83E090E00E94621C682F32
:1034C00070E090E080E00E944F096091E20170910D
:1034D000E3018091E4019091E5010E94120A249A8F
:1034E0002C98259A2D98269A2E9880E091E090931A
:1034F00016028093150258E1C52ED12C60E4962E59
:1035000070E1B72EE2E1AE2E80914802853049F499
:1035100080914802853009F423C10E94A20D0E94C7
:1035200082040E942B0C882359F08FB7F8944091A5
:103530001A0250911B0260911C0270911D028FBFF4
:10354000E0EFF1E0ACEFB1E010E000E0702F81912E
:1035500091912D913D912817390709F43EC12827F3
:10356000392760E0EE24E394F12CA7014223532392
:10357000452B09F42CC16F837887970128233923C1
:1035800091E0232B09F490E099870E94EB0381607E
:10359000782F9B878A874F81588569858B850E9404
:1035A0008317000F111FF801E450FE4F80819181B5
:1035B000E826F926F182E08286E0EDE0F2E0DE0125
:1035C000119601900D928A95E1F7F0900F02E0902C
:1035D0001002109111020091120210920F0210922B
:1035E000100210921102109212028F2D8E2909F4EE
:1035F00048C080910B0290910C020E94DC039C0158
:1036000090910702992309F42AC123333105C8F1A7
:103610009F3F19F09F5F90930702FF2059F00E948F
:103620005A059FEF1F140CF491E0899F802D1124FF
:1036300080930F02EE2059F00E945A059FEF1E144E
:103640000CF491E0899F802D112480931002309119
:103650000F023323B1F020911002222391F045EBA9
:103660003403C0011124992309F4CEC090930F02B2
:1036700045EB240390011124332309F4C9C030938E
:103680001002812F802B09F448C08091090290918B
:103690000A020E94DC039C0190910602992309F41E
:1036A000D9C025363105C8F19F3F19F09F5F90932F
:1036B0000602112359F00E9438059FEF11160CF4F1
:1036C00091E0899F802D112480931102002359F0ED
:1036D0000E9438059FEF10160CF491E0899F802D11
:1036E000112480931202309111023323B1F0209102
:1036F0001202222391F045EB3403C00111249923D7
:1037000009F48AC09093110245EB2403900111241F
:10371000332309F485C03093120280910F029091F7
:103720001002892B90911102892B90911202892B02
:1037300011F00E948E0486E0FE013196ADE0B2E009
:1037400001900D928A95E1F70E9482049091FA010E
:10375000891709F4D9CE0E9482048093FA01D4CE4D
:1037600080914802843009F1109219020FB6F89442
:10377000A895C09260000FBE9092600083B7817FD1
:10378000846083BF83B7816083BF7894889583B753
:103790008E7F83BF0FB6F894A895809160008861F2
:1037A00080936000109260000FBE809147028823D2
:1037B00009F4AECE0E942B0CE0EFF1E081919191E3
:1037C000892B91F591E0EA3FF907C1F7A1CE6F5F30
:1037D000EE0CFF1C6C3009F0C8CE0F5F1F4F053098
:1037E000110509F0B3CE8FEF8C878D871E860E945E
:1037F000EB038160782F988B8F874C855D856E8574
:1038000088890E948317D8CE81E080930F0230CF41
:1038100081E08093100235CF81E08093110274CF54
:1038200081E08093120279CFB9BCA9BC09B400FE33
:10383000FDCF8091D8008F7D8093D8008091E000EB
:1038400082608093E0008091E00081FDFCCF0E94C7
:10385000A20D5ECE2D32314008F028CF5ECF2D3242
:10386000314008F0D7CE0DCF97FB072E16F4009409
:1038700007D077FD09D00E944E1C07FC05D03EF40E
:10388000909581959F4F0895709561957F4F08950C
:10389000EE0FFF1F0590F491E02D0994AA1BBB1BAE
:1038A00051E107C0AA1FBB1FA617B70710F0A61B40
:1038B000B70B881F991F5A95A9F780959095BC0161
:1038C000CD010895F999FECF92BD81BDF89A99274F
:1038D00080B50895A8E1B0E042E050E00C94961C59
:1038E000262FF999FECF92BD81BDF89A019700B4B9
:1038F000021639F01FBA20BD0FB6F894FA9AF99A59
:103900000FBE08950396272F0E94711C0E94701C01
:10391000252F0E94711C242F0C94711C0196272FB7
:103920000E94711C0C94701CDC01CB01FC01F99904
:10393000FECF06C0F2BDE1BDF89A319600B40D92FB
:1039400041505040B8F70895FB01DC0104C08D914F
:103950000190801921F441505040C8F7881B990B01
:103960000895F894FFCF1D091D0926092609280985
:103970002609260926091D091D092D0926092609DA
:103980002D099A0EC20E5810C20E5810F50E160FC1
:1039900058101310201074127412EB12EB126D13E6
:0E39A0008713A612A61294136A1479147914D0
:1039AE00D903B90B980B940B900B01818283E20023
:1039BE00E900EA00B500B600B700CD008301CC00E7
:1039CE008A01920194012102230224022502260279
:1039DE0027022A02B300B4006F007000903331301A
:0E39EE00F7353666F667959337949697340052
:00000001FF
