:100000000C945F040C9497040C9497040C9497043C
:100010000C9497040C9497040C9497040C949704F4
:100020000C9497040C9497040C94BF2C0C947B2C88
:100030000C94BC2D0C9497040C9497040C94970486
:100040000C9497040C9497040C9497040C949704C4
:100050000C9497040C94982D0C9497040C9497048A
:100060000C9497040C9497040C9497040C949704A4
:100070000C9497040C9497040C9497040C94970494
:100080000C9497040C9497040C9497040C94970484
:100090000C9497040C9497040C9497040C94970474
:1000A0000C9497040C9497040C949704050109028E
:1000B000A10185020901A100050919012905150001
:1000C00025019505750181029501750381010501E1
:1000D000093009311581257F950275088106093897
:1000E0001581257F950175088106050C0A380215D2
:1000F00081257F950175088106C0C005010980A191
:1001000001850319012AB700150126B7009501756D
:10011000108100C0050C0901A101850419012AA064
:1001200002150126A002950175108100C005010984
:1001300006A1018506050719E029E71500250195A7
:1001400008750181020507190029EF1500250195A1
:10015000F0750181020508190129059505750191C0
:1001600002950175039101C00660FF0961A10109B3
:1001700062150026FF0095207508810209631500AD
:1001800026FF00952075089102C005010906A1010E
:10019000050719E029E71500250195087501810279
:1001A0009501750881010507190029FF150026FF33
:1001B0000095067508810005081901290595057542
:1001C000019102950175039101C0FD377A585A00DB
:1001D0000004E6D6B4460200210116000000742F88
:1001E000E5A3E0104602F25D003D888986D3DC0A73
:1001F000E842C324925842588FD8E75CA0D2616E7F
:1002000026E888019A676C7887BC8D3709EA2F54F5
:10021000C1A53C79858BB59E1F58492DD978387575
:10022000DD1B2F81077F129998C5667F1F7CE8A987
:10023000A870054BC13FD5ECBE60C58FB36E659A03
:100240009F9B40DD26BBCABEDD3CD38B3FF6AD2B6A
:10025000175258462DFB61011D2F5BDB1BFF0097DA
:1002600082CE45E0539112473FE14E328270C10980
:10027000309029316E24F5F62047BAA7E541C0E950
:1002800068F0CFDD6700C28172FEC95ABB13B9F8AE
:1002900095C5FF69870EDC7FD05F81F029EFC97AB1
:1002A0004228D671ABB66A2984AE2C4F0436E3FBE4
:1002B0001B7DB1E12ED45B9D454B99B5171D1BE508
:1002C0003F3876F9AFF415CA7D08ED85C5D1723394
:1002D0006225F6B09DB57AC6FB1F3943B4D2F03A19
:1002E00052CAD651C072213D8046AD02450A242E25
:1002F0000E0274F325EA02DFCCDF14421604C90DA6
:10030000B68EE77CFB232D24F35C7CA2AEFF6462F7
:100310000E8127316BB0B9C8B882B2B97848B782BC
:10032000EB7609F0D4A4AB0C6AC71A70549DCC15B7
:10033000FC6E4A64023A5702BFE4E201D04575D828
:10034000AC159A63A54B7F39670362E0BC8B2D75B2
:10035000511C549F437DC3AAE84BAB89452F6EBA0D
:10036000063A5A57810F5440848FA4483C398F79FC
:1003700080B2B254003C74C98414A00AE2916DFDAD
:1003800081353673D56E733C26DC8648783CC94887
:10039000FD5C1EF941EEF6D5C6943B1D2EB5D298F4
:1003A000D10D857607E8357C087F2937541B9CF9E9
:1003B000CAFADFC741BCD3BD0763F8EC5EC6842C24
:1003C000A39039449DB2ED955B2823A753715B221E
:1003D000393EE786E6C4D5868C42008151E0996DAE
:1003E0009AE84482C1C438D6103D1066868F815881
:1003F0005C82F5EE7BE6B82FA31B814193FE4A3A5F
:100400001E7B4CB226E6BA4322415384E66D94FC2F
:10041000E4F3C9514AEAB8CBCE680E6863A02465FC
:1004200079A5517AD90DD49BABAFED24F7D7CE88FF
:10043000E52B4B0150F2F21697E45DD84DE5B59DE2
:10044000B71848F5AD64D3E58B302AAA04C1D1AD05
:100450004EFEFBCB2A38D4352F21741A6B45731B03
:10046000ECBE6CA42094E1C94D1D130F84887D4916
:1004700036711000BE21865EB6012D79F9ECED4F84
:1004800013F57680158D8C074B0B916DCCD77B982F
:10049000CEC56631D58FB09CDA7D2F88A0224F055E
:1004A000B0B652A928F1798F8C2852FE56B725E7AD
:1004B000C1536445983FB54590BDDC41F1F7FD2B34
:1004C000A2A9C5DF5D69148547F5C030D61D08AA0D
:1004D0000C8858E00D9CFFC57789200000004B0870
:1004E000DE01350A8AA200018E06C72000008AC4F8
:1004F00078BBB1C467FB020000000004595A000138
:1005000001010101010101010202020202020202D3
:1005100002030303030303030304040404040404A5
:100520000505050505060606060607070707070869
:10053000080808090909090A0A0A0B0B0B0C0C0C1C
:100540000D0D0D0E0E0E0F0F0F10101111111212B6
:1005500013131414151516161717181819191A1A33
:100560001B1B1C1D1D1E1E1F202021222223242494
:10057000252626272829292A2B2C2D2D2E2F3031D0
:100580003232333435363738393A3B3C3D3E3F40E2
:100590004142434445464748494A4C4D4E4F5051CD
:1005A0005354555658595A5B5D5E5F616264656687
:1005B00068696B6C6D6F7072737577787A7B7D7E0E
:1005C0008082838587888A8C8E8F91939596989A5E
:1005D0009C9EA0A2A3A5A7A9ABADAFB1B3B5B7BA76
:1005E000BCBEC0C2C4C6C9CBCDCFD1D4D6D8DBDD4A
:1005F000DFE2E4E7E9EBEEF0F3F5F8FAFDFF0000E7
:1006000000000000000000000000000000000000EA
:1006100000000000000000000000000000000000DA
:1006200000000000000000000000000000000000CA
:1006300000000000000000000000000000000000BA
:1006400000000000000000000000000000000000AA
:100650000000000000000000000000000000010099
:1006600001007304EE0F21100000020002006F046D
:10067000EE0F21100000030001007404EE0F2110A2
:100680000000040002005904EE0F211010080500BC
:1006900001007504EE0F21100000060002005B044B
:1006A000EE0F21100000070002007104EE0F211070
:1006B0000000080001007604EE0F21100000090080
:1006C00002005D04EE0F2110EB070A0002005F0438
:1006D000EE0F2110EB070B0002006104EE0F21105A
:1006E000EB070C0002006304EE0F2110EB070D0076
:1006F00002006504EE0F2110EB070E0002006704F4
:10070000EE0F2110EB070F0002006904EE0F21101D
:10071000EB07100002006B04EE0F2110EB07110035
:1007200002006D04EE0F2110EB07120002007704A7
:10073000EE0F21100000130002007904EE0F2110CB
:100740000000140001007B04EE0F211000001500D2
:100750000000000071074319000009025B0003015B
:1007600000A0FA09040000010301010009211101A0
:10077000000122400007058103080001090401006F
:1007800002030000000921110100012222000705D7
:100790008203200001070503032000010904020071
:1007A000010300000009211101000122BC0007051E
:1007B00084032000011201000200000008AEFE4781
:1007C000891001010203011C037600690061006CBD
:1007D000003A0066003600340063003200620033E5
:1007E00000630000000C034B0065007400630068A8
:1007F00000000014035400720061007300680020C0
:10080000004D0061006E00000004030904000000B8
:1008100000000000000000000000000000000000D8
:1008200000000000000000000000000000000000C8
:10083000007E0F00D4FFFFFFC7000000780000001B
:1008400000000000002A2B2800000000000000002B
:10085000000000000000000029000000002C1E34F1
:1008600020212224342627252E362D3738271E1FF7
:10087000202122232425263333362E37381F040522
:10088000060708090A0B0C0D0E0F10111213141590
:10089000161718191A1B1C1D2F3130232D3504056E
:1008A000060708090A0B0C0D0E0F10111213141570
:1008B000161718191A1B1C1D2F3130354C00112426
:1008C0001FBECFEFDAE0DEBFCDBF04B603FE18C017
:1008D00080917F0590918005A0918105B09182055E
:1008E0008730904BA740B04B59F410927F0510927F
:1008F00080051092810510928205E0E0F8E30995E9
:1009000011E0A0E0B1E0ECE7FDE602C005900D9239
:10091000AE3CB107D9F725E0AEECB1E001C01D92C5
:10092000AF37B207E1F70E94E32D0C9491360C9497
:100930000000E8EDF0E080818E7F80831092E2007D
:100940001092DA001092E100A0EEB0E08C9181608C
:100950008C9380818F77808319BCA7EDB0E08C9158
:100960008E7F8C9380818F7E808310924E050895B8
:100970002091E4003091E50095E6A9012091EC007A
:10098000822F817020FF06C08091E80080FF06C0A2
:1009900080E008952091E80022FD1AC0809173053F
:1009A000882389F0853089F08091EB0085FD0FC0A8
:1009B0002091E4003091E50042175307F9F291507D
:1009C000E1F684E0089582E0089583E0089581E0EF
:1009D0000895EF92FF920F931F93CF937C018B01A9
:1009E0000E94B804C82F811117C08091E80085FDCE
:1009F0000BC08091E8008E778093E8000E94B804D5
:100A0000882399F3C82F08C0F70181917F01809353
:100A1000F1000150110949F78C2FCF911F910F91CF
:100A2000FF90EF9008958091750587FF13C0809126
:100A3000E80082FF06C08091E8008B778093E80091
:100A400004C0809173058111F2CF089580917305E0
:100A50008823D9F38091E80080FFF8CF8091E800E7
:100A60008E77ECCF982F9093E900242F762F50E0CB
:100A7000891731F07091EC002091ED005091F00059
:100A800021FD07C09F5F973071F78093E90081E0F7
:100A900008953091EB003E7F3093EB003091ED00F4
:100AA0003D7F3093ED003091EB0031603093EB00EF
:100AB0007093EC002093ED005093F0002091EE0035
:100AC00027FDE0CF80E00895B0E0A0E0EAE6F5E0A1
:100AD0000C94D435C8EDD0E088818F7E8883E7ED13
:100AE000F0E080818160808384E082BF81E0809338
:100AF0004E0588818E7F888302EE10E0F801108217
:100B00001092DA0081EEC82ED12CF6011082888175
:100B10008F77888388818068888388818F7D8883A8
:100B200019BC109273051092740510927205109200
:100B3000710590EEE92EF12CF70180818B7F808387
:100B400088818160888342E060E080E00E94320515
:100B5000F60180818E7F8083F801808181608083AF
:100B6000808188608083F70180818E7F8083888187
:100B700080618883CDB7DEB7E8E00C94F035FC01E6
:100B800080917B0590917C0586179707A0F06115F1
:100B9000710529F49091E8009E779093E80090E029
:100BA0006115710551F4911108C08091E80082FF30
:100BB00034C080E00895BC01F2CF80917305882392
:100BC000C1F18530C1F18091E80083FD30C0809192
:100BD000E80082FDEACF8091E80080FFE1CF8091BC
:100BE000F3002091F200382F6115710519F02830BB
:100BF000310558F091E02830310509F090E020915E
:100C0000E8002E772093E800CBCF81918093F1000C
:100C1000615071092F5F3F4FE7CF809173058823A3
:100C200041F0853041F08091E80083FFBECF81E044
:100C3000089582E0089583E0089508958091500515
:100C400008959C014FB7F894809145059091460511
:100C5000A0914705B09148054FBF821B930B0895A3
:100C60002FB7F8946091450570914605809147052E
:100C7000909148052FBF08952FB7F89480914505AE
:100C800090914605A0914705B09148052FBF089562
:100C9000209121012223C1F02091490527FF14C092
:100CA000E62FE695E695E695EE31F8F4E80FF92F94
:100CB000F11D677021E030E001C0220F6A95EAF76C
:100CC0008281822B82830895FC0132962FEF30E0DF
:100CD0004191641751F02F3F19F4411101C0232FA6
:100CE0003F5F3630A9F72F3F09F40895820F911D19
:100CF00027FD9A95FC016283089520914205309169
:100D000043052817390771F09093430580934205F6
:100D1000E0914005F0914105309721F00084F18584
:100D2000E02D0995089520913E0530913F05281743
:100D3000390771F090933F0580933E05E09140059F
:100D4000F0914105309721F00680F781E02D09955B
:100D50000895E0914005F0914105309729F0019008
:100D6000F081E02D0995089580E00895CF93DF93F9
:100D7000EC0140913105509132056091330570913D
:100D800034052FB7F8948091450590914605A091C0
:100D90004705B09148052FBF841B950BA60BB70BD9
:100DA000843F9140A105B10518F5809131059091DE
:100DB0003205A0913305B091340580932D059093B1
:100DC0002E05A0932F05B093300584EF91E0A0E0AD
:100DD000B0E08093290590932A05A0932B05B0934A
:100DE0002C05D0933905C0933805DF91CF91089534
:100DF0000E94300660932D0570932E0580932F0579
:100E00009093300582E390E0A0E0B0E0E2CFFC01F7
:100E10008481862351F492819923B9F069238085D6
:100E200083FF05C081E061110FC080E00895892F24
:100E30008F7092959F70982B862F8F7062956F7030
:100E4000682B81E09613F1CF089581E0FDCF452B0B
:100E500039F0682381E06F3F09F080E081700895E8
:100E600081E0FCCFDC016091250580912605962F5D
:100E7000891301C00895292F30E0F901EE0FFF1FFB
:100E8000E35EFA4F408151814A175B07A1F487E086
:100E90008A9FA0018B9F500D11244B515B4F81E025
:100EA000FA0184839613E6CF2F5F3F4F23703327D9
:100EB0002093250508952F5F3F4F922F9370D8CF31
:100EC0001092820410928104E5EEF4E08581811194
:100ED00002C014821682379685E0ED31F807B1F72B
:100EE0000895B0E0A0E0E7E7F7E00C94D2358FEF8B
:100EF0009FEF4430510508F469C04091490541FB1A
:100F0000882780F990E0880F991F42FB002700F99D
:100F100010E0000F111F000F111F802B912B40FBC1
:100F2000CC24C0F8D12C8C299D2943FB222720F901
:100F3000C22FE0E0DE2F53E0CC0FDD1F5A95E1F722
:100F40008C2B9D2B44FBAA27A0F9B0E0E4E0AA0F6C
:100F5000BB1FEA95E1F78A2B9B2B45FBEE27E0F9B7
:100F6000F0E0A5E0EE0FFF1FAA95E1F78E2B9F2B77
:100F700046FB222720F930E0B6E0220F331FBA9556
:100F8000E1F7822B932B47FB222720F930E036959F
:100F9000322F222737952795822B932B20914A05B4
:100FA000322F3170F32EE82EF92A26952170B22EB9
:100FB000BB0CA82EBF28C501BB0CAA0BBB0BFB01A9
:100FC00080839183A283B38390E080E0CDB7DEB7C6
:100FD000EAE00C94EE35E9E5F4E0848195812AE0BD
:100FE00030E0B9010E94953560931C0186818093A1
:100FF0001B01828580931A0184858093190186855F
:101000009785B9010E949535609318018089809376
:1010100017018289809316018489809315010895B0
:101020008091590490915A0490931E0180931D0160
:101030000895E9EEF2E090E080E060EE7BE247E0C8
:101040005CE225E53BE277836683518740873387FF
:1010500022879587848701963E968830910599F777
:10106000089581152CE5920741F4209113013091E8
:101070001401232B11F490E080E00895FA0181110E
:1010800001C0FB0109950895E9EBF2E081836083DB
:101090004283339692E0E73DF907C1F70895FC01DA
:1010A000EE0FFF1FE80FF91FE754FD4F61834083E8
:1010B00022830895E3EBF2E0248130E1231B08F45E
:1010C00020E024838091B20281608093B20208956F
:1010D000E3EBF2E0248130E1230F08F42FEF2483C7
:1010E0008091B20281608093B20208959091B30220
:1010F000937071F08093B4026093B502453608F0A6
:1011000044E64093B6028091B202822B8093B202F1
:101110000895E3EBF2E0438120E1421B08F440E054
:10112000818121E0628190E00E9476080895E3EBDE
:10113000F2E0438120E1420F08F44FEF818121E08A
:10114000628190E00E9476080895E3EBF2E062810C
:1011500020E1621B08F460E0818121E0438190E09E
:101160000E9476080895E3EBF2E0628120E1620FCD
:1011700008F46FEF818121E0438190E00E947608BE
:101180000895E3EBF2E0818121E0438162818850A0
:10119000990B0E9476080895E3EBF2E0818190E0DC
:1011A00021E04381628108960E947608089580912B
:1011B000B302837051F084608093B30210921201E5
:1011C0008091B202862B8093B20208958091B3027F
:1011D00086958695815009F481E061E00E94D708E8
:1011E000089561E081E00E94D70808950E944408B4
:1011F00008950E944F0808950E943C069C0190911A
:10120000A6028091A702982B21F03093A30220938D
:10121000A2029091A8028091A902982B21F030930C
:10122000A1022093A002E0914005F0914105309782
:1012300049F082E08093A4020480F581E02D84EAE5
:1012400092E0099508959091A602803F59F480910B
:10125000A70287FF0DC01092A70291110BC0109238
:101260009E0208C0813F81F48091A70218169CF36A
:10127000992381F08091A8029091A902892B09F00D
:1012800064C010929D020895823F49F497FFF0CF09
:101290001092A6028091A7028111ECCFE0CF833F8C
:1012A00019F41916ACF3E4CF2091A802893F29F470
:1012B0001216F4F61092A802DBCF8A3F19F427FF2A
:1012C000D7CFF8CF2091A9028B3F29F427FFD0CFA9
:1012D0001092A902CDCF8C3F19F41216CCF3C8CFCF
:1012E000843F31F48091A5028E7F8093A502C0CF08
:1012F000853F21F48091A5028D7FF7CF863F21F4B1
:101300008091A5028B7FF1CF873F21F48091A502C8
:10131000877FEBCF883F21F48091A5028F7EE5CFB8
:101320008D3F31F480919F028E7F80939F02A0CFEA
:101330008E3F21F480919F028D7FF7CF8F3F09F080
:1013400097CF80919F028B7FF0CF089580919F026D
:1013500080FF0CC06091160170E0759567957595DA
:1013600067956115710549F1862F089581FF06C0C3
:101370006091160170E075956795F3CF6091160145
:1013800082FD0BC090919D029923A1F060911501FF
:1013900080911601961738F0682F70E0603871055B
:1013A00000F38FE70895899FC001112470E00E9427
:1013B000A935F4CF61E070E0D7CF81E00895809146
:1013C0009F02609161047091620480FF16C02091B9
:1013D0001A01269FC001279F900D1124BC0176950C
:1013E0006795769567956038710508F043C061157B
:1013F000710509F441C0862F089581FF0BC020912B
:101400001A01269FC001279F900D1124BC017695DB
:101410006795E9CF82FF09C080911A019B01829FE5
:10142000B001839F700D1124DECF20919E022223F4
:10143000D1F29091190180911A01482F50E029179B
:1014400048F0CB01849FB001859F700D949F700D73
:101450001124C9CF289F90011124269FA001279F06
:10146000500D369F500D1124692F70E0CA010E9463
:101470009535B9CF8FE7089581E00895803F31F425
:101480000E94DF0981958093A7020895813F19F496
:101490000E94DF09F8CF823F31F40E94DF09819575
:1014A0008093A6020895833F19F40E94DF09F8CFC4
:1014B000893F29F40E94A6098093A80208958A3FD3
:1014C00021F40E94A6098195F7CF8B3F31F40E9449
:1014D000A60981958093A90208958C3F19F40E9472
:1014E000A609F8CF843F31F48091A50281608093F2
:1014F000A5020895853F21F48091A5028260F7CF6F
:10150000863F21F48091A5028460F1CF873F21F4CA
:101510008091A5028860EBCF883F21F48091A502DD
:101520008061E5CF8D3F31F480919F02816080938F
:101530009F0208958E3F21F480919F028260F7CF31
:101540008F3FB9F780919F028460F1CF80E00895CA
:10155000F894E82FE295EF70F0E031A1282F2F707A
:1015600081E090E001C0880F2A95EAF7982F9095C6
:10157000932391A392A1892B82A3789408959091AB
:10158000490592FF06C0282F28712830F9F4877F7B
:10159000846093FF06C0282F28712831F1F4877EDC
:1015A000846120914A0520FF06C0382F38713830F9
:1015B000D9F4877F816021FF06C0282F2871283148
:1015C000D1F4877E816194FD877E0895282F247150
:1015D0002430F9F68B7F8860DCCF282F24712431EA
:1015E00001F78B7E8861DDCF382F3171313019F7EB
:1015F0008E7F8860E0CF282F2171213121F78E7EE8
:101600008861E1CFCF93DF93EC0182389105B1F18E
:1016100008F040C08133910509F49DC048F5893236
:10162000910509F48DC08A9709F49CC0C11521E584
:10163000D20708F0C3C0C11530E5D30708F01EC1BA
:10164000C83ED10508F0A3C0C03ED10588F5C83A10
:10165000D10508F08EC0C53AD10508F007C1C130E8
:10166000D10531F1209721F1C430D10508F545C0ED
:101670008533910509F45FC0C997C1F6809149058A
:10168000837009F044C180914A0583FF11C0C9E20B
:10169000D0E00EC0833E910599F170F4803E910533
:1016A00001F1823E910511F68091490582FD21C02C
:1016B000CE01DF91CF910895863E910561F1873E7D
:1016C000910571F1843E910509F0B0CF80914A05F2
:1016D00081FFEECF80914905C7EED0E084FD0DC0BB
:1016E000E7CF8091490580FD33C090914A0590FF76
:1016F000DFCFC3EED0E084FFDBCFD0E0C0E0D8CFB7
:101700008091490582FD00C190914A0590FDFFC07E
:1017100084FFCECFF2CF8091490583FDDDCFC8CFC6
:101720008091490583FDF6C090914A0591FFF0CF65
:10173000C4EED0E0BDCF8091490585FFB9CFA7CFDA
:101740008091490585FDE9C080914A0583FFB0CFAE
:10175000C9E3D0E0ADCF8091490586FFA9CFCAE2A9
:10176000D0E0A6CF8091490586FFA2CFC1E3D0E0AB
:101770009FCFCF3BD10508F6C85AD0E0CC0FDD1F74
:10178000C05DDE4F0990D881C02DD46491CFC115C2
:1017900040E2D40758F4C11581E0D80708F088CF9B
:1017A000C03FD10508F4A9CFD06582CFC11520E490
:1017B000D20708F4A2CFDF70D06A7ACFC11535E521
:1017C000D30718F5C11544E5D40708F085C0C11545
:1017D00083E5D80708F06CC0C11522E5D20708F4EC
:1017E00062C0CE018370992721E030E002C0220F51
:1017F000331F8A95E2F7C695C69580E2C89FE0013F
:101800001124C22BD32BDC6853CFC11539E5D30784
:10181000A8F4C11548E5D40708F063C0C11586E5F2
:10182000D80708F06ACF8C2F0E94BF0AC82FD0E0DB
:10183000DC2FCC27CC27DF71D0623ACFC1152AE547
:10184000D20708F453C0CE0190568115904208F09B
:1018500054CF8D2F8F710E94BF0A90E0982F882758
:1018600088279F719C012C2BE901E6CFC55AD0E057
:10187000C35DDE4FC881D0E0D0641ACF2C2F2695EF
:101880002695237040E2249F900111248C2F8370B1
:10189000C1E0D0E002C0CC0FDD1F8A95E2F7C22B79
:1018A000D32BDD6805CFDC2FCC27C16FD06A00CFEA
:1018B000CE018370992721E030E002C0220F331F50
:1018C0008A95E2F7C695C69540E2C49FE0011124CF
:1018D000C22BD32BDA68ECCEDC2FCC27C46FD06AB6
:1018E000E7CEDC2FCC27C06FD06AE2CE8C2F8F7072
:1018F0000E94BF0A34E0D695C7953A95E1F7CF70BC
:101900009C2FEC01D069D4CEC2EED0E0D1CEC0EE97
:10191000D0E0CECEC6EED0E0CBCEC5E3D0E0C8CE90
:1019200080917602882331F010927602109275022F
:10193000109274020895CF93C82F80914A0582FFB8
:101940000CC0809176028C1741F00E943C06909367
:10195000750280937402C0937602CF9108958095AA
:1019600090917E05982390937E050895809590919F
:101970003804982390933804089590913804892B63
:1019800080933804089510925302109252021092DC
:101990005102089580915B0490915C04892B89F039
:1019A0000E943C062091740230917502AC01421BEA
:1019B000530B81E020915B0430915C044217530784
:1019C00008F480E081700895909121019923D1F06D
:1019D0009091490597FF16C0E82FE695E695E695A4
:1019E000EE31E0F4F0E0E053FE4F282F277081E065
:1019F00090E001C0880F2A95EAF7809592818923AB
:101A000082830895E2EDF1E09191891303C0DF0133
:101A100011971C9291E0E83DF907B1F708952091E4
:101A2000500290910F02291302C080E0089530E027
:101A3000F90153E0EE0FFF1F5A95E1F7E05FFD4F0C
:101A40005181561306C05081581303C0528154135C
:101A500004C02F5F3F4F2770E6CF81E0089580914B
:101A6000500290910F02981301C008958F5F877004
:101A7000FACF963080F5883070F548E0949F900159
:101A80001124820F932F911D682F677023E0969584
:101A900087952A95E1F7FC01EE0FFF1FE80FF91F6C
:101AA000EB50FE4F50E040E080E0219130E0062E08
:101AB00002C0369527950A94E2F721703327042E49
:101AC00001C0220F0A94EAF7822B4F5F5F4F433029
:101AD000510559F7089580E00895963098F58830BB
:101AE00088F548E0949F90011124820F932F911D57
:101AF000282F277041E001C0440F2A95EAF723E020
:101B0000969587952A95E1F7FC01EE0FFF1FE80FE8
:101B1000F91FEB50FE4F90E080E070E05191DF0143
:101B200011979B01082E02C0369527950A94E2F77B
:101B3000217021952527242325272C930196833076
:101B4000910561F7089592959F70963091F058F441
:101B5000925F9F70923058F4803F19F030F4883EC5
:101B600030F481E008959A5FF4CF843FD1F380E0B0
:101B70000895883EB0F3813FD1F7F3CF9C013A95A9
:101B800021153F4150F5FC01EE27F170BC0166279D
:101B90007270AC01442754709C012227387094FF66
:101BA0000EC080E1EF2B09F480E0672B09F0806222
:101BB000452B09F08064232B89F08068089581E02B
:101BC000EF2B09F480E0672B09F08260452B09F0C8
:101BD0008460232B19F08860089580E00895809335
:101BE0004B0570934D0560934C05809173058430CF
:101BF000F9F48093E9008FEF9091E800815095FD12
:101C000006C095ED9A95F1F700008111F5CF80910E
:101C1000E80085FF0DC050E040E063E070E08BE439
:101C200095E00E94E9048091E8008E778093E800B7
:101C30000895BC0184E00E94EF0D0895BC0183E08B
:101C40000E94EF0D08959C0184E08093E9009FEFCE
:101C50008091E800915085FD06C085ED8A95F1F7E9
:101C600000009111F5CF8091E80085FF0CC050E095
:101C700040E066E070E0C9010E94E9048091E8005C
:101C80008E778093E8000895CF93DF93EC018091E5
:101C900021018823B1F18091490587FF32C060E2BC
:101CA00084E08093E9008FEF9091E800815095FDEA
:101CB00006C095ED9A95F1F700008111F5CF80915E
:101CC000E80085FF1BC08091210170E050E040E0FA
:101CD000811104C050E040E068E070E0CE010E9455
:101CE000E9048091E8008E778093E80080E2FE01AD
:101CF000A1E5B5E001900D928A95E1F7DF91CF91D2
:101D0000089568E081E0CDCF81E08093E00080E23B
:101D10008093D8001092C9008FE19EE40197F1F7FB
:101D200000C0000087E090EBDC0180937F0590937A
:101D30008005A0938105B093820588E19CE00FB6F1
:101D4000F894A895809360000FBE90936000FFCF39
:101D5000019708F40895EFE9FFE03197F1F700C02B
:101D60000000F6CF849A31B33F7E21B320614FB794
:101D7000F89489EB92E0FC015191CF0168E021BB1E
:101D8000000000C057FF31BB550F000000C000C06D
:101D900000C031BB00C06A9591F7F2E0873D9F0714
:101DA00051F74FBF8FE594E00197F1F700C00000B5
:101DB00008950F931F93CF93DF9309E514E0C7EACB
:101DC000D1E0CE010E943736F80181938F01219630
:101DD000CB3CF1E0DF07A9F7C8E6D6E0FE0185912C
:101DE0009491009711F0FC0109952C96F7E0C43608
:101DF000DF07A1F7DF91CF911F910F9108950F9306
:101E00001F93CF93DF93843030F5663020F5483050
:101E100010F520E1629F8001112450E0440F551F0E
:101E2000040F151F30E6839F000D111D1124C801FA
:101E300087960E943736C82FD0E0DC2FCC27C80108
:101E400088960E9437369E01282BC901DF91CF91D9
:101E50001F910F91089590E080E0F8CF462F2091D8
:101E6000360430913704232B99F4703F39F4603FE6
:101E700079F480913404909135040895843040F4CD
:101E8000763030F4683020F4672F0E94FF0E0895FA
:101E900090E080E00895CF92DF92FF920F931F931E
:101EA000CF93DF936C0100917D0580917702082B21
:101EB000C7E0D0E010E0FC2EC8010C2E02C09595C2
:101EC00087950A94E2F780FD0CC02197A0F7F12CCA
:101ED0008F2DDF91CF911F910F91FF90DF90CF90C9
:101EE0000895B6018C2F0E942E0F0E94020B0197BD
:101EF00061F3EECFCF93DF93EC010E944B0FBE0155
:101F00000E942E0F0E94020BDF91CF910895CF9374
:101F1000DF93EC014B815C81698188810E942707F6
:101F2000811110C08E819F81009739F00E94020BB1
:101F30000E94A30DDF91CF910895888199810E941D
:101F40007A0FF6CF80E0F6CFA5E0B0E0EAEAFFE056
:101F50000C94D93549835A8389819A81662399F0F3
:101F6000222389F00E944B0F182F682F89819A81B4
:101F70000E946D0D69817A81812F0E942E0F259616
:101F8000E3E00C94F5350E94390D182FF3CFFC01D6
:101F9000262F86819781009739F440815181628193
:101FA000738184810E94A40F089583E290E00E94CF
:101FB0003736853489F484E290E00E943736873DD5
:101FC00059F485E290E00E94373691E0823709F0BB
:101FD00090E0892F8170089580E0FCCFDB01FC0147
:101FE0003296259134914217530758F0FC013496EC
:101FF00065917491A901CD010E94173690E080E0AF
:1020000008958FEF9FEF08950F931F93CF93DF9362
:1020100009E514E0C7EAD1E0CE010E943736F801A5
:1020200061918F01681719F0CE010E9455362196F3
:10203000CB3CF1E0DF0781F7DF91CF911F910F914A
:102040000895DA019C012E5F3F4FF90145915491AB
:10205000F90125913491A217B30758F0FC01349689
:10206000859194910E9417360E94041090E080E0C0
:1020700008958FEF9FEF0895CF93DF93CBEBD2E0DE
:1020800060E0CE010E9455362196C11584E0D80744
:10209000B9F7DF91CF9108951F93CF93DF93122F5C
:1020A0008430E0F46630D0F44830C0F490E1699FA9
:1020B000E001112450E0440F551FC40FD51F90E6D6
:1020C000899FC00DD11D1124632FCE0187960E94D8
:1020D0005536612FCE0188960E945536DF91CF91FB
:1020E0001F910895CF93C82F6FEF811165E483E2AC
:1020F00090E00E9455366FEFC11167ED84E290E0E9
:102100000E9455366FEFC11162E785E290E00E94B0
:102110005536CF910895CF93C92F682F84E090E072
:102120000E9455366C2F82E290E00E945536CF9186
:1021300008959B01883070F49AE0899FB0011124C2
:1021400065537E4F4AE050E0C9010E94273690E077
:1021500080E008958FEF9FEF0895AAE0B0E0E3EBF1
:10216000F0E10C94DA359C0137552F3F310509F029
:1021700068F4BE016F5F7F4F0E949910892B31F484
:1021800089859A852A96E2E00C94F635809171044F
:1021900090917204F7CFAAE0B0E0E1EDF0E10C9489
:1021A000D0350CEB13E08AEAC82E83E0D82E9BE6EC
:1021B000E92E92E0F92E27E0922E39EAA32E33E0A1
:1021C000B32E88248394D6010D931D936D014AE0AC
:1021D00050E0B701CE0101960E942736F8013896EB
:1021E000DF01892D1D928A95E9F789819A81D801AD
:1021F00011969C938E938F8112968C9312978D815A
:1022000013968C931397888514968C9314978985CD
:1022100015968C9315978B819C8117969C938E9322
:10222000169718961C9218978A8587FF3CC01E96B1
:102230001C921E921D9780FF03C0D80118968C92A5
:1022400081FF04C0F80190859260908782FF07C0EB
:10225000D80118969C911897946018969C9383FFC8
:1022600004C0F80190859860908784FF07C0D8016A
:1022700018969C911897906118969C9385FF04C0BE
:10228000F801808580628087015F1F4FFAE0EF0EC2
:10229000F11C8BEBE81682E0F80609F094CF2A9641
:1022A000ECE00C94EC35F801B686A586C4CFAAE024
:1022B000B0E0EDE5F1E10C94D435E9E5F3E080E53B
:1022C000DF011D928A95E9F7E5EEF4E088E3DF018E
:1022D0001D928A95E9F789E5C82E83E0D82E7F0103
:1022E0000BE112E0F701D182C0824AE050E0B80170
:1022F000CE0101960E94273688E0FE013196D60174
:1023000001900D928A95E1F789859A85D7011396F8
:102310009C938E931297BAE0CB0ED11CE7E0EE0EA1
:10232000F11C065F1F4F0B36F2E01F07D9F62A9605
:10233000E8E00C94F03546E050E06CE170E083EBAF
:1023400092E00E9445361092B2020895B0E0A0E0FB
:10235000ECEAF1E10C94CF350E9430066093AA02BA
:102360007093AB028093AC029093AD023091B302B4
:10237000D32FD37019F0D32FD695D6952091120173
:102380002130D9F0222359F0223009F44CC12330F6
:1023900009F453C1CDB7DEB7EDE00C94EB351092E4
:1023A0000F016093AE027093AF028093B0029093DE
:1023B000B10281E080931201EDCF90910E0181E096
:1023C000D9130BC0832F837020910D0130E091E071
:1023D0008217130609F490E0892F81708093110110
:1023E0008091B80290911001981739F080931001F4
:1023F00040E060E080E00E94F608DD2321F0D1306B
:1024000061F080E02AC080911101882331F140E021
:1024100060E080E00E94F608F4CF90900F01990CE4
:1024200002E0090D802E0B3010F02AE0822E409140
:10243000B402D090B502E091B602F0E0E250FB4F5A
:10244000D1102FC0F4901F2DCF2DC92CD12CC81422
:1024500008F49BC081E00A30A0F6C0910F0191E022
:102460009C0F90930F018111A2C082E08093120112
:102470008091110181119BC0DD2309F4DCC0CC0FD8
:1024800090917D0589EF8C0F911195C0833008F0F4
:102490009AC020E040E060E089E090E00E94F90806
:1024A00092C0ED2CF12CC4917C2EEC2FF0E026E0B4
:1024B000429FC00111242FEF30E0B9010E949535F1
:1024C000842F90E0880F991FA5E5A69FA001A79FE4
:1024D000500D1124841B950BC82ECC0CC80ED901AD
:1024E000AE19BF09AE9FA001AF9F500DBE9F500D0A
:1024F0001124152FDC9CD0011124AB2FBB27C9015F
:102500008A1B9B0B8E9FD0018F9FB00D9E9FB00D9D
:1025100011245901AC18B108AE9C6001AF9CD00CDD
:10252000BE9CD00C1124CD2CDD242C193D092E9FEE
:10253000C0012F9F900D3E9F900D1124F92E623007
:102540007105A1F050F46115710509F47ECF613079
:10255000710581F0F52E1B2F78CF6430710569F07D
:1025600080F06630710509F470CFF4CFFC2EC52FD2
:10257000192F6BCFFC2ECB2F68CFF52E1C2FC92F18
:1025800064CFC52F172DFB2E60CFF601EC54FE4F04
:10259000808190911001892331F0212F4F2D6C2FD4
:1025A000C6010E94F9088FEFC81AD80A50CFDD2360
:1025B00009F4F0CE64CF91FF69CF2FE04FE06CE3D8
:1025C000833008F469CF90917D058AEF8C0F9923B1
:1025D000C9F092FF17C02FE04CE36FE08330B8F0F2
:1025E00080917D05C5508823B9F083FF15C02CE389
:1025F0004FE06FE0C33008F0CDCE87E090E00E945E
:10260000F908C8CE833060F720E040E060E088E061
:1026100090E00E94F908E4CFC33008F0BBCE20E080
:1026200040E060E0EACFD0930E01832F8370809367
:102630000D010E94B20E83E0BDCE8091B2028111E5
:102640000E949B114091AE025091AF026091B00286
:102650007091B1022FB7F89480914505909146058D
:10266000A0914705B09148052FBF841B950BA60B81
:10267000B70B4097A105B10508F48CCE109212015A
:1026800089CEE3EBF2E085E0808380912201909196
:102690002301A091240181839283A3838FE7848304
:1026A0008FEF85830E949B110895A6E0B0E0EBE5D3
:1026B000F3E10C94CF358E010F5F1F4F86E0F801D8
:1026C00011928A95E9F78EE5C82E81E0D82EF12C7B
:1026D000E12CAA24A394B12C2CE6822E21E0922E88
:1026E000F60181916F018F3F09F442C0F894E82F01
:1026F000E295EF70F0E021A18F70A50102C0440FB8
:10270000551F8A95E2F7CA01922F982B91A392A1A7
:102710008095892382A3789400C0E4E6F1E0712CCF
:1027200031E021912F3F09F464C0A22FA295AF7030
:10273000B0E090968C9190E02F7002C095958795AF
:102740002A95E2F780FD55C0832F782A330F8E1625
:102750009F0639F7F601319780818F3F11F00E9473
:10276000A80A50EA5A95F1F7F801EE0DFF1D7082A4
:102770008FEFE81AF80AE6E0EE16F10409F0B0CFA0
:1027800046E050E0B8018BE792E00E940A36892BC0
:1027900091F186E0F801ABE7B2E001900D928A95E5
:1027A000E1F781E080937A020E943C0690937902DF
:1027B0008093780280917802909179020E9421069C
:1027C0000597E8F046E050E06BE772E087E992E0B9
:1027D0000E940A36892BC1F086E0EBE7F2E0A7E918
:1027E000B2E001900D928A95E1F781E010927A02B1
:1027F00007C080E0AACF80917A028111DBCF80E010
:102800002696EDE00C94EB3580E0F0CFCF938091ED
:10281000380490917E05892B8093D00180917602B7
:10282000882329F180915B0490915C04892B29F025
:102830000E94CA0C81110E94900C8091D00190914D
:102840007602892B8093D00180912101882309F49D
:1028500047C08091490587FF43C08EE1E2EDF1E07A
:1028600090E0815008F03EC091110E94900CC09100
:102870003505C0958091D001C82380913605C82BBD
:10288000C093D00140E250E064E572E080ED91E059
:102890000E940A36892B11F180E2E0EDF1E0A4E517
:1028A000B2E001900D928A95E1F7E0914005F09138
:1028B0004105309799F080912101882349F080915A
:1028C000490587FF05C0C093D10186E08093D00100
:1028D0000280F381E02D80ED91E00995CF9108957C
:1028E00086E0BCCF2191222309F4BBCF9F5FB9CFF3
:1028F000CF93DF93EC01EA85FB85309719F06C8567
:102900007D8509958B810E94AF0C8C810E94B60C4D
:102910000E94061486E0FE0111928A95E9F7DF9184
:10292000CF910895CF93DF93EC018D8181FD15C088
:1029300082608D8380917E059B81892B80937E05AB
:102940008C810E94BD0C0E940614E885F9853097A1
:1029500021F06C857D85CE01099510923D05109280
:102960003C058D8180FD03C0CE010E947814DF916B
:10297000CF91089580911F01877F80931F0182E08E
:102980000E94AF0C80911F0184FF06C08F7E809350
:102990001F0182E00E94BD0C80911F0185FF06C0CF
:1029A0008F7D80931F0180E20E94BD0C0E9406145F
:1029B000089590E080E00E94930690E080E00E94FD
:1029C0007D0610927E050E94061486E0E4EAF2E09D
:1029D000DF011D928A95E9F710929E0210929D02E6
:1029E00010929F020E94FC08089580937D050E942A
:1029F000D914089580917D05982F9670963021F412
:102A000088600E94F5140895877FFBCF21E030E0B5
:102A100001C0220F8A95EAF7209580917D058223D7
:102A20000E94F51408959091530280958923809314
:102A30005302282F277091F4282F082E000C330BF7
:102A40009217130659F090914A0592FF07C0859599
:102A5000859585950E9406150E94C30C0895909156
:102A60004A0592FB222720F9281769F080FB92F98A
:102A700090934A058091490590914A050E948B10D8
:102A800082E00E941315089521E030E001C0220F7A
:102A90008A95EAF780917D05822B0E94F5140895AE
:102AA00090914A0592FF10C098E0899F90011124EF
:102AB000622B609353020E9444150E943C0690933F
:102AC00052028093510208950E9444150895809304
:102AD00077020E94D9140895109238048091210140
:102AE000E2EDF1E0882361F08091490587FF08C09D
:102AF0008EE1DF011D928A95E9F70E94D9140895AD
:102B000086E0F7CFAAE2B0E0E8E8F5E10C94D93529
:102B100085E795E02091F100DC012D93CD01B5E032
:102B20008D379B07B9F780917605833009F472C021
:102B3000B8F4813009F449C0823009F4B3C08091FF
:102B4000E80083FF96C280917505909176059A30D2
:102B500008F08FC2E92FF0E0ED56F94C0C94BD352A
:102B60008A3009F48EC08B3009F471C0893039F78E
:102B700080917505813219F78091790590917A05D8
:102B8000009711F00297D9F68091E800877F809333
:102B9000E8008091E80082FF38C09091F3008091B6
:102BA000F200029731F48091F100813011F086300B
:102BB00021F48091F100809350058091E8008B779B
:102BC0008093E8000E941305BACF80917505813A81
:102BD00009F0B5CF8091E800877F8093E80080916D
:102BE000790590917A05892B61F460E281E595E0A1
:102BF00070E00E94BF058091E8008B778093E80029
:102C00009ECF60E090E080E0F3CF8091730581116A
:102C1000C0CF95CF80917505813A09F090CF809112
:102C2000790590917A05892B09F089CF8091E80088
:102C3000877F8093E8008091E80080FFFCCF80913F
:102C400021018093F1008091E8008E77B9CF8091C7
:102C50007505813209F073CF8091790590917A05DD
:102C6000892B09F06CCF8091E800877F8093E80082
:102C70000E94130580917705809321010E946C15B5
:102C80005ECF80917505813209F059CF8091E800BF
:102C9000877F8093E8000E941305809178058093D8
:102CA0004F054DCF80917505813A09F048CF80914D
:102CB000E800877F8093E8008091E80080FFFCCFE8
:102CC00080914F05BECF803899F0823809F0D1C18C
:102CD000809179058F70873008F0CBC18093E9002F
:102CE0008091EB0085FB882780F91092E90006C0EF
:102CF0008091710590917205911182609091E80028
:102D0000977F9093E8008093F1001092F1008091FA
:102D1000E8008E77AAC1882309F498C1823009F0AF
:102D2000A8C18091770581119BC1809179058F7031
:102D30002FEF280F263008F09CC18093E9002091E6
:102D4000EB0020FF8DC1933031F48091EB00806265
:102D50008093EB0085C19091EB0090619093EB0024
:102D600021E030E001C0220F8A95EAF72093EA00C3
:102D70001092EA008091EB008860EACF811179C15E
:102D8000109177051F778091E3008078812B8093E5
:102D9000E3008091E800877F8093E8000E9413059C
:102DA0008091E80080FFFCCF8091E30080688093F1
:102DB000E30082E0111183E0809373055AC18058CB
:102DC000823008F056C120917705309178052C3D6E
:102DD000E3E03E07A1F583E08A838AE289834FB767
:102DE000F894DE01139620E03EE051E2E32FF0E09C
:102DF00050935700E49120FF03C0E295EF703F5FCE
:102E0000EF708E2F90E0EA30C0F0C7968D939D93BF
:102E10002F5F243159F74FBF8091E800877F80935F
:102E2000E8006AE270E0CE0101960E94BF05809141
:102E3000E8008B778093E8001CC1C096E7CF8091B3
:102E4000790590917A05432F55274330510509F4B0
:102E50004AC078F54130510509F485C08BE590E012
:102E6000EAE5F7E04230510509F003C12091E8009E
:102E7000277F2093E80020917B0530917C05821705
:102E8000930708F49C0140E02115310509F070C05A
:102E900041116EC08091E80082FDC9CF8091730519
:102EA000882329F2853019F28091E80083FFF2CF60
:102EB000BECF4132510509F447C04232510509F0F5
:102EC000D8C08330910508F0D4C0FC01EE0FFF1F7D
:102ED000EF53FE4F0190F081E02D82549E4FDC01B4
:102EE0008C9190E01DC0332721303105E9F0211588
:102EF000310579F022303105F9F02330310509F040
:102F0000B8C0E7ECF7E0E4918E2F90E0E7ECF7E053
:102F100007C0E9E0F8E0E4918E2F90E0E9E0F8E006
:102F2000009709F4A6C0A2CFE3EFF7E0E4918E2F5B
:102F300090E0E3EFF7E0F4CFE5EEF7E0E4918E2FD9
:102F400090E0E5EEF7E0ECCF8330910508F091C01A
:102F5000880F991FFC01E953FE4F0190F081E02D8D
:102F600089E090E083CF82E190E0E5EBF7E07ECF6F
:102F700080917305882309F45ACF853009F457CF1F
:102F80008091E80083FD53CF8091E80082FD82CFDD
:102F90008091E80080FF78CF9091F3008091F2005B
:102FA0002115310519F08830910550F041E008975E
:102FB00009F040E08091E8008E778093E80064CFCC
:102FC00044914093F1003196215031090196E8CFA8
:102FD000803809F04EC08091E800877F8093E80038
:102FE000809174058093F10092CE811142C01091BE
:102FF00077051230F0F58091E800877F8093E80034
:10300000109374050E941305112311F084E005C08C
:103010008091E30087FDFACF81E08093730542E061
:1030200061EC81E00E94320542E261EC84E00E94A2
:10303000320542E261EC82E00E94320542E260EC3D
:1030400083E00E9432058091730513C0809177055B
:10305000813079F481E0933009F080E0809372054B
:103060001092E9008091E800877F8093E8000E9439
:1030700013058091E80083FF0AC08091E800877FF4
:103080008093E8008091EB0080628093EB00AA9629
:10309000E3E00C94F535E9E5F4E0128E138E8FEA47
:1030A00090E09183808325E0248F88E893E19383E7
:1030B00082838AE090E09583848344E150E05783E3
:1030C000468348E050E051874087938782876EE1CE
:1030D00070E0758764879787868780E590E0918B9D
:1030E000808B538B428B48E250E0558B448B42E3FC
:1030F00050E0578B468B48EC50E0518F408F158E37
:10310000178E168E91A380A322A30E9404100E9402
:103110006C1510924A0510924905EAE4F5E08081A9
:10312000846080838091490590914A050E948B10AC
:103130000E94D90E0895AEE1B0E0E1EAF8E10C9406
:10314000D135C0901301D090140181E090E09093AC
:10315000140180931301F12CE12C8EEFA82E85E051
:10316000B82E912C1BC0E114F104D9F4F801EE0F34
:10317000FF1FEA0DFB1D25913491402F692D80E042
:103180000E944C100F5F1F4F0830110561F780E15E
:10319000A80EB11C9394E6E09E1649F010E000E002
:1031A000E2CF21E030E0402F692D8E2DE9CFFFEFF7
:1031B000EF1AFF0A84E0E816F10479F60E944B1832
:1031C0001A8219821C821B821E821D8218861F820F
:1031D00088EC90E09A8789870BEC11E04AE050E098
:1031E000B801CE0101960E947936065F1F4F0B3160
:1031F000E2E01E0799F77E01FBE0EF0EF11C8AE08A
:10320000F70111928A95E9F74AE050E0B801C70149
:103210000E947936065F1F4F0B36F2E01F07A1F7B9
:103220007E0185E1E80EF11C8AE0F70111928A9592
:10323000E9F78FEF9FEF9A8F898F87E08E8F4AE0B3
:1032400050E0B801C7010E947936065F1F4F0B3B63
:10325000F2E01F07A1F7D0921401C09213016E96FD
:10326000EBE00C94ED3580E00E94721060E086E2A5
:1032700090E00E9455360E949B180E943C1081E00D
:103280000E9472100895CF92DF92EF92FF928FEF1B
:103290009FEF4430510508F46AC0FB01C080D18023
:1032A000E280F3800E946C1580914905C0FA80F994
:1032B000B701A601769567955795479540FB81F92B
:1032C000B701A60122E076956795579547952A950F
:1032D000D1F740FB82F9B701A60133E076956795F7
:1032E000579547953A95D1F740FB83F9B701A60169
:1032F000E4E07695679557954795EA95D1F740FBB9
:1033000084F9B701A601F5E076956795579547953D
:10331000FA95D1F740FB85F9B701A601A6E07695AD
:10332000679557954795AA95D1F740FB86F9B70160
:10333000A601B7E07695679557954795BA95D1F769
:1033400040FB87F98093490580914A05D0FA80F9BE
:10335000D1FACC24C0F8C0FA81F980934A05809153
:10336000490590914A050E948B1090E080E0FF9003
:10337000EF90DF90CF9008950E946C152FEF84E3BB
:103380009CE0215080409040E1F700C0000088E1BF
:103390009CE00FB6F894A895809360000FBE9093C0
:1033A0006000FFCF882321F00E94AF0C0E9406141A
:1033B0000895882339F090917E05982B90937E058F
:1033C0000E9406140895882321F00E94B60C0E94E2
:1033D00006140895882321F00E94BD0C0E94061453
:1033E0000895882379F19CEF980F913A28F40E9470
:1033F000E40C0E940614089590E2980F983050F45F
:10340000877091E001C0990F8A95EAF7892F0E9491
:10341000B60CEFCF9BE5980F933028F490E080E056
:103420000E949306089598E5980F973128F490E04C
:1034300080E00E947D060895803F20F00E942309CD
:103440000E94FC080895FF920F931F93CF93DF9380
:10345000F82E00913A0510913B050115110509F46C
:1034600049C0109239051092380510923505109216
:103470003605D8011696CD91DC919E013A9521151D
:103480003F4108F4D07ED1E0C11101C0D0E0D801A5
:103490001996ED91FC911A97309731F01B966D912A
:1034A0007C9180E00995D823DD2339F08CEF8C0FD7
:1034B000813A30F58C2F0E94E40CFF2099F0E091C6
:1034C0003A05F0913B05808584FD0CC0809137055D
:1034D000882341F0808191819C0121503109203B5A
:1034E0003D45A0F00E94061410923B0510923A054B
:1034F00010923705C801CDB7DEB7E5E00C94F3357F
:103500000E9406148C2F0E94F119D7CF0E94B60694
:10351000E9CFCF93DF93EC010E94F119CE010E9415
:10352000BE0D9E01205E31092830310510F0CD2BF3
:1035300029F40E94E319DF91CF9108950E94D219D6
:10354000FACFCF93C82F8823C1F18CEF8C0F813A2B
:10355000B0F580912101882301F18091490587FF11
:103560001CC0EC2FE695E695E695F0E0E053FE4FA3
:10357000828190E04C2F477021E030E002C0220FA2
:10358000331F4A95E2F782239323892B79F08C2FFE
:103590000E94E40C0E94061409C0E2EDF1E0819162
:1035A000C817A9F381E0E83DF807C9F76C2F80ED53
:1035B00091E00E9448060E940614CF91089580E28F
:1035C0008C0F883048F4C77081E001C0880FCA951D
:1035D000EAF70E94BD0CEFCFEBE5EC0FE33040F4CF
:1035E000F0E0E35DFE4F808190E00E949306E5CF1E
:1035F000E8E5EC0FE73150F4F0E0EE0FFF1FE05D7F
:10360000FE4F808191810E947D06D7CFC03FA8F2F6
:103610008C2F0E943E0A0E94FC08CFCF1F93CF93AD
:10362000DF93182FC0917904D0917A04893321F067
:10363000C0917704D0917804812F0E94A11A20971D
:1036400039F4812F0E94F119DF91CF911F910895D4
:103650008FE99FE00197F1F700C000002197EFCFBD
:10366000B0E0A0E0E6E3FBE10C94D235EC018AE0A7
:10367000A82E2881222309F48FC02130C9F5998111
:103680008A81913021F422960E940E1B05C092304F
:1036900029F422960E94A11A2196EBCF933021F4AF
:1036A00022960E94F119F8CF943011F02196F4CFB0
:1036B000229630E020E0AE014F5F5F4F8053990BC0
:1036C0008A30910550F02150310930F38FE99FE0A5
:1036D0000197F1F700C00000F6CFA29EB001A39EB3
:1036E000700D11249C01260F371F8981EA01E3CF59
:1036F000E22FF0E0E35CF74FB490822F8695869539
:10370000869590E0FC01E35DF74FE4902770F12C83
:10371000022E02C0F594E7940A94E2F731E0E32226
:10372000FF24FC01E35EF74FC490D12C022E02C0AF
:10373000D594C7940A94E2F731E0C322DD24FC015A
:10374000E35FF74F049110E002C0159507952A95A5
:10375000E2F701701127E114F10419F081EE0E94E3
:10376000A11AC114D10419F086EE0E94A11A8B2D62
:103770000E940E1BC114D10419F086EE0E94F119AB
:10378000E114F10419F081EE0E94F11901151105FF
:1037900009F482CF8CE278CFCDB7DEB7EAE00C94A3
:1037A000EE35CF93DF93EC010E94BE0D9E01205EAB
:1037B00031092830310510F0209741F40E94EA19B0
:1037C0008C2F0E94A11ADF91CF9108950E94D919E0
:1037D000F7CF662329F020917E05226020937E0595
:1037E0009C013056211540E2340720F0305E21154F
:1037F000304108F499270E94D11B0895B0E0A0E061
:10380000E4E0FCE10C94D5357C018B01D42E809151
:103810001F0182FF8CC0C0917F04D0918004CE151F
:10382000DF0521F0E114F10409F081C080911F014E
:103830008B7F80931F0181FD73C080917D049091E7
:103840007E04A801481B590B81E020911D01309195
:103850001E014217530708F480E08170F82E809112
:103860001F01F0FA81F980931F01FE0183E0F695B4
:10387000E7958A95E1F7EE71FF27E75CFB4F208122
:103880003181AE014F70552781E090E002C0880F72
:10389000991F4A95E2F7FF2009F444C0822B932B2D
:1038A000918380838091380481FF08C080911F013B
:1038B000806180931F0182E00E94B60C80913804E1
:1038C00085FF08C080911F01806280931F0180E204
:1038D0000E94B60C6F2DCE010E94E91BDD2031F055
:1038E0008091740485FF02C086FF3BC080917704FD
:1038F000909178040E94A80E80917F04909180049A
:103900009C013056211540E2340720F0305E21152D
:10391000304108F499270E94891A0E94BA141DC0E8
:1039200081E09BCF8095909582239323B9CFC701E7
:10393000992797013056211540E2340728F0305E70
:103940002115304108F0C7010E94891A80917F0437
:10395000909180048E159F0501F310937E040093CF
:103960007D04CDB7DEB7E7E00C94F13590E080E060
:103970000E943F36883E9E4F19F40E94D50F08954D
:1039800080E0089568EE7EEF90E080E00E9473365C
:1039900060E082E090E00E94553660E083E090E0D5
:1039A0000E9455361092770260E084E090E00E9419
:1039B000553664E082E290E00E94553660E085E092
:1039C00090E00E94553660E086E090E00E94553617
:1039D0006FEF87E090E00E94553640E050E0BA017A
:1039E00088E090E00E94673660E08DE090E00E9401
:1039F000553640E050E0BA0188E190E00E94673619
:103A000060E087E190E00E94553640E050E0BA0166
:103A10008CE190E00E94673670E060E080E290E028
:103A20000E94733640E050E0BA0188E190E00E94C5
:103A3000673680E00E9472100E94331940E050E027
:103A4000BA018FE090E00E94673640E050E0BA0192
:103A500083E190E00E9467360895A7E0B0E0E3E3D9
:103A6000FDE10C94CA357C01DC0113964D915C910B
:103A7000149711966C9111978C910E9427078111D0
:103A8000ECC061E0C7010E94C70F8C01F701828181
:103A90008823E1F080913C0590913D050097B1F0BD
:103AA0000817190799F0FEE08F9FC0011124FC014F
:103AB000E251FD4F20812460208387519D4FDC011E
:103AC0000D931C930E94921410927E05F70182813F
:103AD000882309F42AC7C80182519F45409708F0FE
:103AE00018C78FEF93E00E9437368111A6C07EEE93
:103AF000D72ED00E0BEB12E0D11036C019821A82ED
:103B00001B821C8299249A9468012FEFC21AD20A50
:103B1000C8010E94373689831A82882309F48DC030
:103B2000813009F07FC0580132E0A30EB11CC601FC
:103B30000E943736C82E8A83882309F47EC0C501C7
:103B40000E943736D82E8FEF8C0D8330D8F4580171
:103B500043E0A40EB11CDB82DD2021F0CE010196F2
:103B60000E94301B8501D0CF0115F4E01F0709F436
:103B700064C0C8010E943736811101C0DA940F5F1A
:103B80001F4FBACF8BEF8C0D833030F5C8010396F1
:103B9000DB825C01DD2031F3580154E0A50EB11C3D
:103BA0000E9437368C838823E9F28B819C81813097
:103BB000AFEF9A0710F0982F8827B6E0CB1631F0B8
:103BC000E7E0CE1631F00E94CF2BCCCF0E94A92B7C
:103BD000C9CF0E94302BC6CFF4E0CF12C3CF58011B
:103BE00024E0A20EB11CC80103960E943736DD20E6
:103BF00021F1882311F18150990B989E9001999E93
:103C0000300D11244D2D4150550BCA01820F931FC9
:103C1000019708F4A7CFAFE9BFE01197F1F700C013
:103C20000000F6CFCE0101960E94301B56019ACFBC
:103C300081E00E9444150E94FA148091530287701B
:103C400061F0D70112968C91882339F080914A0552
:103C500082FF03C082E00E9413152796E2E10C94D4
:103C6000E63581E00E940615E6CF82E0FBCF823088
:103C700009F099C68091E3029091E402892B09F43E
:103C800092C62EE02C9DC0012D9D900D1124FC01AB
:103C9000E251FD4F20812E7F208387519D4F0E944E
:103CA000921481C681E080930001C7CF809100010A
:103CB000882309F41DC5480120EE821A910840901E
:103CC00076028091F201482A80913804482A38E02F
:103CD0008316910408F086C098012770332781E08D
:103CE00090E001C0880F2A95EAF7552009F477C0C3
:103CF000482AD7018D919C910E94390D21E030E036
:103D0000F90102C0EE0FFF1F8A95E2F7FF83EE83F1
:103D100020903A0530903B056090F0017090F101E1
:103D20001D822D81E22FF0E0EE0FFF1FE655FC4FC4
:103D3000C080D180C114D10409F43EC5411005C032
:103D4000D60112968C91811189C0F601838190E091
:103D50002E813F8182239323892B09F47FC08085A4
:103D6000982F977009F487E038E08316910408F0E3
:103D700053C0552009F44CC086958170882309F4FE
:103D80006DC0D601AD90BC900A151B0519F45520E5
:103D900009F464C0C214D30409F460C0D6011D96AE
:103DA000ED91FC91309721F08081882309F456C071
:103DB000642DC6010E940707882309F44FC00A1525
:103DC0001B0509F00FC60115110509F410C65110A5
:103DD00010C6A614B70409F041C0512C0AC680953C
:103DE000482287CF552009F4D0C41093F1010093E5
:103DF000F0010E9430066093310570933205809384
:103E0000330590933405109239051092380571CF1F
:103E100082FB882780F9B2CF552001F18170AECFA7
:103E20000E94F11904C60497813A910558F46A2D4D
:103E300080ED91E00E944806552009F459C40E9483
:103E40000614FBCE0E9406148FE39CE90197F1F75C
:103E500000C000008A2D0E94A11AEECF9D819F5FB5
:103E60009D835FCFFC01208131810217130709F088
:103E700038C4511038C41092370580E00E94231ACC
:103E800037C4902F812F7CC4F901858181FFA8C49C
:103E9000C9010E947814A4C480911F01816080939D
:103EA0001F01CCC480911F018E7F80931F010E944F
:103EB000BA14C4C480911F018F7E013E110531F0F8
:103EC000053E1105C9F480911F018F7D80931F016C
:103ED00080911F0180FFC1C4D70112968C910832D6
:103EE000110528F50E31110508F072C004301105D6
:103EF00080F58111AEC4B1C4C8019056811540E26D
:103F0000940720F0905E8115904110F780911F0179
:103F100082FFA3C48091760481FD9FC42CE832E027
:103F200040E0B60190E080E00E94FE1B96C4093399
:103F3000110558F40D32110518F40B321105C9F6AC
:103F40009091740492FDD5CF08C004361105C1F3D9
:103F5000D0CF9091740494FDCCCF882309F4A8C0ED
:103F60008091760290913804892B8D7FB1F1109267
:103F7000800410927F048091740481FD2EC0F801AA
:103F800043E0F695E7954A95E1F7EE71FF27E75C88
:103F9000FB4F98012F70332781E090E002C0880F1B
:103FA000991F2A95E2F7809590952081318182238F
:103FB00093239183808360E0C8010E94E91B809174
:103FC00076028D7F0E949B0C82E00E94131535CEF5
:103FD0009091740493FD8DCFC0CF88E0F701ACE8D9
:103FE000B2E001900D928A95E1F710928E02109244
:103FF000900210928F0280917F04909180040817A4
:104000001907D1F52091740425FF36C030911F01A6
:1040100031FF02C026FF30C020917D0430917E0424
:104020005601A21AB30AB7010E94AD10A816B9062C
:1040300018F58091380481FF08C080911F018061CC
:1040400080931F0182E00E94B60C8091380485FFA6
:1040500008C080911F01806280931F0180E20E944E
:10406000B60C60911F016695617080917F049091FC
:1040700080040E94E91BE1CD809176029091380482
:10408000982B20911F0191FB21F920931F018D7F17
:104090000E949B0C1093800400937F04D0927E04B6
:1040A000C0927D0480911F01846080931F018CCF9A
:1040B000970140E0B601C8010E94FE1BBECD45EA53
:1040C00058E063EB78E0073CBCE51B07E9F14CECFA
:1040D00058E061EC78E0083CECE51E07A8F143EB02
:1040E00058E065EA78E030C00D3CFCE51F0709F4B4
:1040F00042C070F44AE558E068E678E00B3C3CE5E5
:10410000130711F198F148E658E06AE578E01CC021
:10411000063D5CE5150708F490CD0D35100709F450
:104120008CCDBCC38091B30291E089278093B30208
:10413000109212018091B20281608093B2027DCD13
:1041400046EE58E061EF78E00E943E0876CD41EF00
:1041500058E066EE78E0F8CF41EC58E06CEC78E09F
:10416000F3CF49E858E067E978E0EECF47E958E057
:1041700069E878E0E9CF61E081E00E94D7085DCD91
:104180000A359DE5190771F158F40115BCE51B07C7
:1041900091F00E3D1C4509F081C30E94C21C09C06C
:1041A0000C35FDE51F07A1F0F8F0073A1D4509F0B1
:1041B00075C30E94BC190E946C154FEF54E38CE04C
:1041C000415050408040E1F700C000000E94840E42
:1041D00080914A0582FB882780F991E089270E9417
:1041E0002F155CC381E0FBCF80E0F9CF8281008195
:1041F0001181882369F0C8010E944B0FD82E682FC7
:10420000C8010E946D0DB8018D2D0E942E0F4CC368
:10421000C8010E94390DD82EF6CF202F2F70B22E54
:10422000802F807F19F0B29490EFB922DD20A9F0A1
:10423000BB2059F080E2810F883010F0111107C0C7
:104240008B2D0E94BD0C0E940614812F5AC08091B4
:104250007E05B82AB0927E05F6CF812F0E94F11913
:10426000BB2009F450C080E2810F883010F011119A
:1042700004C08B2D0E94B60C03C08B2D0E94AF0C86
:104280000E94061440C0302F3F70B32E802F807FD5
:10429000803219F0B29480EFB822112321F111304D
:1042A00009F4AEC0DD2009F4B7C0CC2009F47FC00A
:1042B00020E0D7014C9111965C91119712966C9168
:1042C000129713967C91139714968C910E94A40FC9
:1042D0008091760481FDB9CFF701858180FFB5CF4C
:1042E0008F70858364C080914A0582FD40C0DD20C7
:1042F000C1F1BB2029F08B2D0E94BD0C0E94061439
:1043000080E00E94A11AA92DA850BB0B149710F4AD
:104310000E94A906812F902F0E94A30D8111C2C176
:104320001092F4011092F301AA20B1F0809153028F
:1043300080FD12C0D70112961C92859585958595B2
:104340000E944415C7010E942D1D8091530285953E
:10435000859585950E94061560E0C7010E94C70FEC
:104360007CCC80E00E94F119BB2069F282CFDD2075
:1043700011F1C11004C0809176028B2919C041E06F
:10438000C41206C0809176028B290E949B0CBBCF81
:1043900080917504823078F3C812EDCF0E94900CA2
:1043A0009091F2018B2D892B89138093F2018B2D33
:1043B0000E94EA19A8CFC11003C00E94900C17C038
:1043C0008091750451E0C51216C0823008F49BCF6D
:1043D000809138048B2109F496CF0E94900C909123
:1043E000F2018B2D8095892389138093F2018B2D07
:1043F0000E94E31988CF823000F3C812DECF83CF4A
:1044000080917B04DD2021F08C1508F47CCFCFCF88
:10441000C81608F078CFEBCFCC2049F3809179040F
:1044200090917A04193321F0809177049091780467
:104430000E94A80E812F0E94F11965CF802F8695CA
:104440008695837069F0813009F05DCF812F902FC0
:104450009370D11002C090E080E00E947D0653CF9F
:10446000812F902F9370D11002C090E080E00E94C5
:10447000930649CF812FDD2029F00E943E0A0E9439
:10448000FC0841CF0E942309FACF802F837091F559
:10449000D11039CF412F429546954770440F440FB4
:1044A000812F8F70042E01C0880F0A94EAF7212F04
:1044B000207114FF07C02FE030E001C0220F4A95A1
:1044C000EAF72095302F369536953370323069F003
:1044D00050F440917702313029F0822B84230E94DE
:1044E000671511CF842B822BFACF282B809177026E
:1044F0008227F5CF8695DD2011F0802F81708823EB
:1045000009F401CF412F429546954770440F440F5F
:10451000812F8F70042E01C0880F0A94EAF7212F93
:10452000207114FF07C02FE030E001C0220F4A9530
:10453000EAF72095302F369536953370323069F092
:1045400050F440917D05313029F0822B84230E9464
:10455000F514D9CE842B822BFACF282B80917D05A0
:104560008227F5CFF02FFF70BF2EDD2029F08F2F8F
:104570000E944415812F1CCF812F0E94E3198B2D9F
:104580000E940615C0CE123F89F160F4103FB9F0C9
:10459000113F81F0DD2009F480C0C11056CE802F7C
:1045A0008F7128C0133F49F1143FA1F780914A054C
:1045B00082FD2FC0802F8F71DD2011F31BC08091F1
:1045C0007B04DD2079F0C81608F09DCE202F2F71D6
:1045D00081E090E001C0880F2A95EAF790917D056F
:1045E0008927B5CF8C1508F48ECEF0CF802F8F7130
:1045F000D110C6CF0E94441586CE80E0DD2009F49C
:10460000A6CF81E0902F9F7101C0880F9A95EAF79D
:104610009ECF80917504823040F1DD20D1F09091E1
:1046200053029770943041F40E94C30C802F8F7115
:104630000E940615A12C67CEC816E0F7202F2F7117
:10464000B22E822F0E94441563E08B2D0E945015DC
:10465000F1CFC81630F00E94C30C64E0802F8F7138
:10466000F5CF81E00E941315E5CFDD2059F0302F02
:104670003F71B32E832F0E94441563E08B2D0E945F
:10468000501541CE81E00E94131541E04C1508F011
:104690003ACE82E00E94131536CEC110BFCE802FD5
:1046A0008F716ECFDD2019F0C1103ACE3DCEC11012
:1046B00037CE20E0F701408151816281738184818E
:1046C0000E94A40F8091760483FF2ACE8091F3018B
:1046D0009091F401029709F023CE812F0E940E1BC6
:1046E0001FCE552029F0DC0118968C9185FFC5CB93
:1046F000C80197558F3F910511F008F071C058011E
:10470000BB24BEE00B9FF00111249F0127513D4FB8
:104710006901D70112968C91E251FD4F908180FB87
:1047200090F99083882309F4AFCB0E943C069093C4
:104730008B0280938A02F60182818F5F828380914F
:104740007E0590913804892B83838091760284833F
:104750000680F781E02D309731F0D6011C966D91DF
:104760007C91C60109958EE08A9DF0018B9DF00D2C
:104770001124E751FD4F858181FF83CB90E080E0DC
:1047800090933C0580933D052BC08091F001909162
:10479000F1010817190781F41092F1011092F0014C
:1047A00010923105109232051092330510923405A3
:1047B000109239051092380580913A0590913B0589
:1047C000009709F495CFA8E08A16910408F04ACB27
:1047D000642D0E940707811103C081E00E94231A03
:1047E0008091740480FF39C00E943C066C01D7019F
:1047F00012968C91882309F45DCB80911F0182FF72
:1048000008C02CE832E040E0B60190E080E00E9471
:10481000FE1B0B31BCE51B0709F43ECB0C31ECE56C
:104820001E0709F43FCB90911F01892F8E7F90FFC7
:1048300081600A31FCE51F0709F437CBC8019056A7
:10484000811520E2920728F0905E8115904108F0D2
:104850003FCB1092800410927F04F7018281811176
:104860008FCC809138048272093CFCE51F0709F463
:1048700078CC08F039CC053C3CE5130709F46CCC46
:1048800008F01DCC033C5CE5150709F459CC08F091
:104890005ECC023CACE51A0709F444CCF7018681F2
:1048A0009781009709F4A2CC0E94020B182F092FC0
:1048B000F701D280C580C2943FE0C32280915302A9
:1048C0008770C1F0AD2CDD20B1F0892F807F80345E
:1048D00021F080E2810F883068F080914A0582FFE4
:1048E00009C082E00E941315809153028770AA24A8
:1048F000A3948111A12C902E92942FE09222FBE0A0
:10490000F91508F400CDE92DF0E0E356F94C0C94CC
:10491000BD350031FFE51F0709F48AC901312FE5D4
:10492000120709F040C082E084C900313FE5130757
:1049300009F497C901314FE5140709F496C96801D4
:10494000E7E5DE1AFFEFCF16D10409F060F56FED51
:1049500072E08C2D0E949910892B29F58EE08C9D98
:10496000F0018D9DF00D1124E751FD4F82818130C2
:1049700009F07DC98091DF029091E002892B99F0C6
:104980008091E1029091E202892B69F08091E3022B
:104990009091E4022091E5023091E602822B932B64
:1049A000892B09F46EC9D70112965C90552009F441
:1049B0007DC90F35BDE51B0709F474C90036EDE567
:1049C0001E0751F00E35FDE51F0709F06FC98091F4
:1049D0000001882309F466C91092000180E00E945A
:1049E000231A2BC9A114B10409F0F3C9512CB12C1D
:1049F000A12C80E00E94231AD0923B05C0923A0578
:104A000081E080933705F60185818093350551104B
:104A10000EC0AB2861F0F601808191819C01245089
:104A20003109213A310508F0FBC90E94E40CD60196
:104A30001696AD90BC90C5019A9581159F4110F4D2
:104A4000E0EEBE2277247394C5010197803B9D451B
:104A500008F0712CD6011996ED91FC911A973097B8
:104A600031F01B966D917C9181E009957822772039
:104A700079F0F601868197810E94BE0D80933605FC
:104A8000C501F8E08F16910408F0CDC90E94B60662
:104A90000E940614D1C9B0E0A0E0E1E5F5E20C9473
:104AA000D43580910C02807F31F480910902C0914D
:104AB0005002811107C0CDB7DEB7E8E00C94F035A5
:104AC0002196C77080910F028C17A9F3F09007020E
:104AD000E0900802C0900A02D0900B02A6016E2D51
:104AE0008F2D0E942707D0E08111EACF8E0183E04D
:104AF000000F111F8A95E1F7F801E05FFD4F8181FA
:104B00008E11DECF80818F11DBCF82818111D8CFD2
:104B1000E380F480EC18FD0860E087E092E00E94FA
:104B2000C70F67E072E00E94AD10E816F90640F684
:104B300080910C028F70806180930C02F801EB5E13
:104B4000FD4F80818F708061808387E092E00E94BA
:104B50002D1D0E942F0DAFCFA5E1B0E0E2EBF5E2F5
:104B60000C94CD358C0185E0F801DE015196019061
:104B70000D928A95E1F7D8015C9011966C9011978F
:104B80001296EC9012971396CD90DC9060E087E03F
:104B900092E00E94C70F87E0A82E82E0B82E809096
:104BA0000A0290900B02A401609108028091070212
:104BB0000E9427078111A8C1F0900902F601E819A7
:104BC000F9094F0160E0FF2009F44BC1C5010E94C3
:104BD000C70FB5010E94AD1070900C02881699069F
:104BE00008F0F2C040910A0250910B02B090070207
:104BF000A0900802872D807F6A2D09F08CC08B2D34
:104C00000E942707FE2C811127C0D80111968C9194
:104C100011978A1121C08C918B111EC020910D0219
:104C200030910E0216968D919C9128173907A1F4A8
:104C3000E11012C0872D8F70806180930C0287E095
:104C400092E00E942D1D80910C02F80185838F2D2A
:104C50006596EFE00C94E935A601662D852D0E943E
:104C60002707D82E81E08E25D11080E080FF18C064
:104C70004E2D662D852D0E940F0D882389F0809181
:104C8000760480FF0DC087E092E00E942D1D88E031
:104C9000E7E0F2E0DF011D928A95E9F7F12CD7CF2A
:104CA00081E08E25D11080E0B82FB170CB2E80FF2F
:104CB00029C04E2D662D852D0E940F0DD82E8111F5
:104CC00021C0598A6A8A89899A890E947A0F292F74
:104CD00022952F70223050F0243078F49F7051F0DC
:104CE000F8019581907F31F4FD2CB1CF9F7011F0C8
:104CF0008823D1F3805E8830B8F3C8010E942D1D4F
:104D0000DC2CF2CFEE2009F4A2CF80910C0281605E
:104D100080930C02C3CF8B2D0E942707811124C0E2
:104D2000D80111968C9111978A111EC08C918B110C
:104D30001BC020910D0230910E0216968D919C9110
:104D400017972817390781F4E1100EC015967C9249
:104D5000C8010E942D1D88E0F801A7E0B2E0019093
:104D60000D928A95E1F773CFC8010E94870F8823BF
:104D700039F1EE2029F180910C028032A0F02091CF
:104D80000702309108023A8729871B86DD86CC8688
:104D90008E8780910D0290910E02988B8F87CE01A5
:104DA00009960E942D1D88E0F801A7E0B2E001906D
:104DB0000D928A95E1F70E944B25FF24F39447CF8B
:104DC000C8010E942D1DF9CF872D807F09F45BCF8C
:104DD000909007028090080240910A0250910B02C5
:104DE000682D892D0E94270781111CC0F80181813F
:104DF000881118C08081891115C020910D02309151
:104E00000E02868197812817390761F4E1100AC0E4
:104E10007582C8010E942D1D88E0D5011D928A95DA
:104E2000E9F715CFC8010E94870F882349F2EE20C9
:104E300039F280910C02803208F4B5CF209107023C
:104E4000309108023A8329831B82DD82CC828E83D3
:104E500080910D0290910E0298878F83CE0101966A
:104E6000A0CF87E092E00E94C70F67E072E00E9447
:104E7000AD108816990680F6FE2CEE2009F4A0CF1E
:104E8000E0900702D090080240910A0250910B0274
:104E90006D2D8E2D0E942707811128C0F801818178
:104EA0008D1124C080818E1121C020910D0230917E
:104EB0000E028681978128173907C1F48091760404
:104EC00082FD49CF90910C0290FD45CF907F09F46F
:104ED00042CF80910C028583903F09F439CF982FFF
:104EE000907F905F8F70892B858332CFC8010E949D
:104EF000870F811158CF80910C02816080930C0242
:104F0000C8010E942D1DA3CEEE2009F459CFC8017F
:104F10000E94870FF82E882309F452CF88E0F80109
:104F2000A7E0B2E001900D928A95E1F78091070227
:104F3000909108020E947A0F0E944B2588CEA0E132
:104F4000B0E0E5EAF7E20C94DA3529873A874B8737
:104F50005C876D877E878F87988BCE0109960E942C
:104F6000AC2581112FC088E0FE013996DE01119633
:104F700001900D928A95E1F74C855D856A8589855A
:104F80000E94270781111EC0A0910F02B0E0CD0141
:104F90000196877099272091500228171906E1F091
:104FA00093E0AA0FBB1F9A95E1F7A05FBD4F98E071
:104FB000FE01319601900D929A95E1F780930F02D0
:104FC0000E942F0D8091500290910F02891312C000
:104FD0006096E2E00C94F6350E946C1510920F0278
:104FE0001092500288E0E7E0F2E0DF011D928A951E
:104FF000E9F7E8CFB8E08B9FC0011124805F9D4F97
:105000000E94AC25882321F38091500290E0019604
:105010008770992780935002D5CFEF92FF920F931C
:105020001F93CF93DF9380918404882361F0C09114
:1050300083048CE0F82E80918404C81748F0109205
:10504000840410928304CDB7DEB7E6E00C94F23509
:10505000EE24E394EC0EE09283040C2F10E0CF9D3D
:10506000E0011124CB57DB4F4B815C816981888142
:105070000E94270781111DC08E819F81892B21F4F9
:1050800088859985019651F4288139814A815B810F
:105090006C817D818E819F810E949F27F09EF0010F
:1050A000F19EF00D1124EB57FB4F148213821092E6
:1050B0007E05CE2DC0CF10922805109227051092A4
:1050C000200180912605809325050E9460070E949B
:1050D0000D280895B0E0A0E0E0E7F8E20C94CB35AD
:1050E000C091250597E0892E01E010E02CE0322EDA
:1050F0003EEF932E44244394809126058C1309C0DF
:105100000E940D280E946007CDB7DEB7E1E10C9444
:10511000E735D0E0FE01EE0FFF1FE35EFA4F80811E
:105120009181889ED001899EB00D1124AB51BB4F57
:1051300014962C911497211158C050908404E5E8DE
:10514000F4E030E020E0712C5D01251508F04BC043
:10515000E284F384D501CD90DC906FEF7FEF612C7A
:10516000462D50E0DA01AA0FBB1FAC0DBD1D0D90FE
:10517000BC91A02D109731F0EA16FB0609F4BA0194
:105180006394EECF6F3F7607A9F1D80102C0AA0F52
:10519000BB1F6A95E2F77A2AB801062C02C0660F97
:1051A000771F0A94E2F7AB014150510974161506B6
:1051B000F9F4329EF001339EF00D1124EB57FB4FB2
:1051C000889ED001899EB00D1124AB51BB4F129621
:1051D0002D913C91139737832683908291829187FA
:1051E000808715964C920E9432072196C37084CF17
:1051F000148213822F5F3F4F3C96A7CFA9E1B0E006
:10520000E4E0F9E20C94CA35942F498B252F5A8B90
:105210006B8B7C8B8D8B4C895D89622F892F0E94D3
:105220002707811109C08091F3019091F401019643
:105230009093F4018093F3018B89811110927E0584
:105240001D861E861F86188A85E0FE017196DE0186
:10525000199601900D928A95E1F780914A0582FF97
:105260001EC080915B0490915C04892BC1F00E9468
:105270003C062091510230915202821B930B2091E7
:105280005B0430915C048217930720F080915302F5
:1052900082FFE2C10E94CA0C81110E94900C4C85D1
:1052A0005D856A8589850E942707811111C061E0AB
:1052B000CE0109960E94C70F6C018B8527EFC2169D
:1052C0002CE5D20681F4882321F181E0809320012E
:1052D00029853A854B855C856D857E858F85988986
:1052E0000E949F27C6C038EFC3163CE5D30629F4B9
:1052F000882379F00E945B28EBCF49EFC4164CE578
:10530000D40639F4882329F0809120018111F2CF4D
:10531000DCCF05EE14E0512CB12CA12C22242394D7
:10532000312C2EEF422EF8014081518188248A943D
:10533000982C20E0822F90E0FC01EE0FFF1FE40F7D
:10534000F51F608171816115710531F0C616D706B0
:1053500009F44C012F5FEECFF12CFFEF8F169F0663
:1053600009F449C0F8014481F09020018F2D4111CA
:1053700080E0F82FF170FF2EF801E58086819B8593
:10538000992309F4F8C0FF2009F4F5C060906F0478
:1053900070907004E11013C0A101082C01C0440FEB
:1053A0000A94EAF7842B8683809181049091820489
:1053B0008615970520F47092820460928104C101E1
:1053C00002C0880F991F2A95E2F70197F8012681FC
:1053D0002817190681F480912705909128050097D8
:1053E00009F44BC00E9421066816790608F045C0F2
:1053F00021E0F80124835F28FFEFAF1ABF0A095F9D
:105400001F4F28E0A216B10409F08DCF8B858823A9
:1054100009F40DC1552009F40AC10E943C0690937D
:1054200028058093270580918404883010F591E049
:10543000980F9093840498E0FE013996DE0111964E
:1054400001900D929A95E1F73CE0839FC0011124F1
:105450008B579B4F28E0FE013196DC0101900D92A5
:105460002A95E1F72FEF3FEFFC0131872087D386A4
:10547000C2866996E2E10C94E6358091250550914B
:105480002605982FF0E0E0E0851314C090932505E1
:10549000E017F10709F4AFCF90E0FC01EE0FFF1F1A
:1054A000E35EFA4FB182A0820196837099278093C0
:1054B0002605A1CF682E712CF301EE0FFF1FE35ECE
:1054C000FA4F2081318147E0429FD001439FB00DC8
:1054D0001124AB51BB4F6D917C911197798F688FDF
:1054E00040E020E030E0E32FF0E0EE0FFF1F688D9A
:1054F000798DE60FF71F8080918081149104E1F08F
:10550000F8010190F081E02DFF8BEE8B20E005C0CB
:105510008616970609F44F2D2F5FE22FF0E0EE0F6D
:10552000FF1F6E897F89E60FF71F6081718161150A
:10553000710571F73F5FD7CF4423D1F0F8012317EE
:1055400008F0FD0121E024830E171F0721F490933A
:105550002505F42E50CF981305C0AE17BF0711F4E0
:105560009F5F937093012F5F3F4F822F83708CCF8B
:10557000F0E0E0E0F7CF90E0E11020C0B10102C020
:10558000660F771F2A95E2F79B0121503109821798
:10559000930731F4442309F448C0C5010E9432073F
:1055A000C101082C01C0880F0A94EAF7982F909542
:1055B000F801868189238683FE2C1DCF9C01082C4F
:1055C00002C0359527950A94E2F7A9014170552745
:1055D000BC016150710986239723892B11F5452B56
:1055E00001F1F80182819381892BC1F01B821C8219
:1055F0001D821E8249824A820E943C068160582F89
:105600009D838C83F801828193818F839887298180
:105610003A814B816D817E810E949F27F80115821E
:10562000BFCFF22FF170EF2EBBCFEF2CB9CF9091FF
:10563000250580912605981731F00E946A2855208B
:1056400009F446CE16CF0E940D281092280510921C
:1056500027050E946007F3CF82E00E9413151ACE3F
:10566000A5E0B0E0E6E3FBE20C94DA359093350474
:1056700080933404811520E2920730F40E94891A45
:105680002596E2E00C94F63580EF89838A831B82AD
:105690000E943C068160782F9D838C8349815A81CA
:1056A0006B818D810E94FE28EBCF0F931F93CF93C8
:1056B000DF938C01EB016FED72E08C2F0E9499104B
:1056C000892BA1F480917704909178040E94A80E10
:1056D000DD27C952DD4F8881F8011282188283309C
:1056E000F1F048F4813059F0823081F0DF91CF91B0
:1056F0001F910F9108958430B9F08530B9F78091EA
:10570000DF029091E002009789F306C08091E102E8
:105710009091E202009799F30E94302BE7CF80919D
:10572000E3029091E402F6CF8091E5029091E602C7
:10573000009791F72091DF023091E0028091E10221
:105740009091E20221153105F1F2009729F7C90184
:10575000E3CFA5E0B0E0EFEAFBE20C94DA359093FA
:10576000350480933404811520E2920730F40E94BE
:10577000D11B2596E2E00C94F63580EF89838A836D
:1057800081E08B830E943C068160782F9D838C830F
:1057900049815A816B818D810E94FE28EACFCF9387
:1057A000DF93EC010E94A92B8091770490917804FB
:1057B0000E94A80ECE010E94302BDF91CF91089558
:1057C0000F931F93CF93DF938C01862F6FED72E0C1
:1057D0000E949910892BB1F4C091DF02D091E002B0
:1057E000209781F0F8018281833051F4CE010E942C
:1057F000CF2BCE010E94CF2BCE010E94CF2B02C017
:105800008430D0F7DF91CF911F910F9108950F93BE
:105810001F93CF93DF938C01EB016FED72E08C2F20
:105820000E949910892B09F05CC0FE01FF27D80166
:1058300012968C911297E952FD4F8130B9F415966A
:105840009C9192FF02C080830AC090FFFCCF82E04F
:1058500080838091E1029091E2020097B9F48091F7
:10586000DF029091E0020097E1F110C08230B9F5BB
:1058700015968C9182FD28C080FD0BC083E080834B
:105880008091E3029091E402009701F10E94A92B1C
:1058900028C084E080838091E5029091E602009721
:1058A000A9F78091DF029091E0020097F9F00E9441
:1058B000CF2B8091E1029091E202009739F780911D
:1058C000DF029091E002E2CF85E080838091DF02E9
:1058D0009091E002009729F00E94CF2BF0CF86E054
:1058E0008083DF91CF911F910F9108958091E10204
:1058F0009091E202B8CF1F920F920FB60F9211242F
:105900002F933F934F935F936F937F938F939F93C7
:10591000AF93BF93CF93DF93EF93FF93D091E900C1
:10592000DF708091EC00C82FC17080FDC0E810923C
:10593000E9008091F000877F8093F00078940E94C6
:1059400082151092E9008091F00088608093F00049
:10595000CD2BCF70C093E900FF91EF91DF91CF91F4
:10596000BF91AF919F918F917F916F915F914F9177
:105970003F912F910F900FBE0F901F9018951F927F
:105980000F920FB60F9211242F933F934F935F9373
:105990006F937F938F939F93AF93BF93EF93FF93F7
:1059A0008091E10082FF09C08091E20082FF05C082
:1059B0008091E1008B7F8093E1008091DA0080FF8D
:1059C00024C08091D80080FF20C08091DA008E7FB3
:1059D0008093DA008091D90080FF9DC080E189BD6D
:1059E00082E189BD09B400FEFDCF81E0809373059B
:1059F00080914E05811109C00E9499040E9464059E
:105A00008091E20084608093E2008091E10080FF59
:105A100017C08091E20080FF13C08091E2008E7F6A
:105A20008093E2008091E20080618093E2008091A7
:105A3000D80080628093D80019BC85E080937305FC
:105A40008091E10084FF2BC08091E20084FF27C099
:105A500080E189BD82E189BD89B5982F917080FF71
:105A6000FBCF8091D8008F7D8093D8008091E1009A
:105A70008F7E8093E1008091E2008F7E8093E20030
:105A80008091E20081608093E20080917405882318
:105A900009F447C084E08093730580917305809179
:105AA000E10083FF27C08091E20083FF23C0809143
:105AB000E100877F8093E10082E08093730510927C
:105AC00074058091E1008E7F8093E1008091E20077
:105AD0008E7F8093E2008091E20080618093E200FB
