:100000000C9408040C9440040C9440040C94400498
:100010000C9440040C9440040C9440040C94400450
:100020000C9440040C9440040C94692C0C94252CE2
:100030000C94662D0C9440040C9440040C944004E1
:100040000C9440040C9440040C9440040C94400420
:100050000C9440040C94422D0C9440040C944004E5
:100060000C9440040C9440040C9440040C94400400
:100070000C9440040C9440040C9440040C944004F0
:100080000C9440040C9440040C9440040C944004E0
:100090000C9440040C9440040C9440040C944004D0
:1000A0000C9440040C9440040C9440040501090293
:1000B000A10185020901A100050919012905150001
:1000C00025019505750181029501750381010501E1
:1000D000093009311581257F950275088106093897
:1000E0001581257F950175088106050C0A380215D2
:1000F00081257F950175088106C0C005010980A191
:1001000001850319012AB700150126B7009501756D
:10011000108100C0050C0901A101850419012AA064
:1001200002150126A002950175108100C005010984
:1001300006A1018506050719E029E71500250195A7
:1001400008750181020507190029EF1500250195A1
:10015000F0750181020508190129059505750191C0
:1001600002950175039101C00660FF0961A10109B3
:1001700062150026FF0095207508810209631500AD
:1001800026FF00952075089102C005010906A1010E
:10019000050719E029E71500250195087501810279
:1001A0009501750881010507190029FF150026FF33
:1001B0000095067508810005081901290595057542
:1001C000019102950175039101C0FD377A585A00DB
:1001D0000004E6D6B4460200210116000000742F88
:1001E000E5A3E00D0B022F5D003D888986D3DC0A74
:1001F000E842C324925842588FD8E75CA0D2616E7F
:1002000026E888019A676C7887BC8D3709EA0E1456
:1002100059A53C798586633FDCC445A3F020FF20C7
:10022000B3687235CC77FE57F71DCDC486FDE5E87F
:10023000F629B306CB2F7770EFA85645D581BE6956
:10024000127D9DD0725EAA27394320AE7A14E90F41
:10025000F6A3921F222868C70634AE2A4189E2E33A
:10026000D3E1D4335BECE20A36C9BD7D1452DC7AAB
:1002700003B47BADB56E05D17A2FFFC4CAA08673D7
:10028000D24C078D6295C63D50F23B9065805A4036
:100290006B14A4968DBEC05A5C8130C7C1C220FDCC
:1002A00072F6C58B0D1FBF8386D5DBF179BDEE4D90
:1002B00093D064C1EC51F5271EF5C9C9B697B82D86
:1002C000DC739E96EE9FB7718AAB5CCE445599A2C3
:1002D000B32F8B21D9143F173171747EF01E397BF7
:1002E0005B60E70A0BEB17A906846CB1E0822B7EFA
:1002F0001A460F02C592C8F6212828C3A6B713F9DB
:100300005F06198A849363523217EB651F03DE7010
:10031000C9603CB27501B5F9B1212784F773AE16F7
:1003200025C426EEC6BDA479B127EB914016948270
:10033000E929C584A6087C6A8374E1F1BB95D2756E
:10034000D9A40319830C793E762474668E4960FC27
:10035000D690897AA955046478982D5C7D71F7A6AA
:10036000B9D9CA3C94EF65037F2381EF4F3F22F256
:100370009C2F06C3361C8E93EBAD12BC832E8B488C
:100380001CBCC1FAE65FEF34BA6DE8FF889BD68CDF
:100390004049A0F64E4624AE2B419BB9B045AEB0C5
:1003A0004C94E22DBB9C5948BC2F6791C432CB8B37
:1003B0007DCDBF228E18A223B2B07D2B9FA6F9D18E
:1003C0008072D4950C06AC3F0B67E59F3B8C2727CA
:1003D000200445E7C1AEC918AE91AD58239B67AB69
:1003E00071D4C7861E067E742F1C5DA26DED642736
:1003F000DF93A8FD0011271A9DBCA49F425CF482E4
:10040000A5AF3AFD9FEF9970DFC8A611CF71F51720
:10041000C92C9B1A414D69E90000A0F5494E5D08C1
:100420006DEE0001CB048C1A00004FB3C4FBB1C4C5
:1004300067FB020000000004595A0001010101019C
:10044000010101010202020202020202020303038D
:10045000030303030304040404040404050505055D
:10046000050606060606070707070708080808091D
:100470000909090A0A0A0B0B0B0C0C0C0D0D0D0EC9
:100480000E0E0F0F0F10101111111212131314145E
:10049000151516161717181819191A1A1B1B1C1DD3
:1004A0001D1E1E1F2020212222232424252626272C
:1004B0002829292A2B2C2D2D2E2F3031323233345E
:1004C00035363738393A3B3C3D3E3F404142434464
:1004D00045464748494A4C4D4E4F50515354555646
:1004E00058595A5B5D5E5F616264656668696B6CF2
:1004F0006D6F7072737577787A7B7D7E808283856D
:1005000087888A8C8E8F91939596989A9C9EA0A2AC
:10051000A3A5A7A9ABADAFB1B3B5B7BABCBEC0C2B6
:10052000C4C6C9CBCDCFD1D4D6D8DBDDDFE2E4E77A
:10053000E9EBEEF0F3F5F8FAFDFF00000000000033
:1005400000000000000000000000000000000000AB
:10055000000000000000000000000000000000009B
:10056000000000000000000000000000000000008B
:10057000000000000000000000000000000000007B
:10058000000000000000000000000000000000006B
:100590000000000000000000000001000100500405
:1005A000990FCC0F0000020002004C04990FCC0FF1
:1005B0000000030001005104990FCC0F000004005B
:1005C00002003604990FCC0FB90705000100520450
:1005D000990FCC0F0000060002003804990FCC0FD1
:1005E0000000070002004E04990FCC0F0000080025
:1005F00001005304990FCC0F0000090002003A04D7
:10060000990FCC0F94070A0002003C04990FCC0FFD
:1006100094070B0002003E04990FCC0F94070C00C6
:1006200002004004990FCC0F94070D000200420411
:10063000990FCC0F94070E0002004404990FCC0FC1
:1006400094070F0002004604990FCC0F9407100086
:1006500002004804990FCC0F9407110002004A04CD
:10066000990FCC0F9407120002005404990FCC0F7D
:100670000000130002005604990FCC0F0000140074
:1006800001005804990FCC0F000015000000000075
:100690001A07ED18000009025B00030100A0FA0927
:1006A00004000001030101000921110100012240A1
:1006B000000705810308000109040100020300008E
:1006C00000092111010001222200070582032000F8
:1006D00001070503032000010904020001030000D3
:1006E0000009211101000122BC000705840320003C
:1006F000011201000200000008AEFE448810010152
:100700000203011C037600690061006C003A006678
:1007100000360034006300320062003300630000E2
:100720000016034D0069006E006900760061006EDE
:1007300000200048005300000020035400680065BA
:1007400000560061006E004B006500790062006F8A
:1007500000610072006400730000000403090400DB
:100760000000000000000000000000000000000089
:100770000000000000000000000000000000000079
:100780000000007E0F00D4FFFFFFC70000007800CC
:10079000000000000000002A2B28000000000000DC
:1007A0000000000000000000000029000000002CF4
:1007B0001E3420212224342627252E362D37382793
:1007C0001E1F202122232425263333362E37381F9F
:1007D0000405060708090A0B0C0D0E0F1011121361
:1007E0001415161718191A1B1C1D2F3130232D35FF
:1007F0000405060708090A0B0C0D0E0F1011121341
:100800001415161718191A1B1C1D2F3130354C00E2
:1008100011241FBECFEFDAE0DEBFCDBF04B603FE6A
:1008200018C080915C0590915D05A0915E05B09126
:100830005F058730904BA740B04B59F410925C0590
:1008400010925D0510925E0510925F05E0E0F8E3FE
:10085000099511E0A0E0B1E0EEEFFCE602C00590E2
:100860000D92AA3BB107D9F725E0AAEBB1E001C090
:100870001D92AC35B207E1F70E948D2D0C945236D3
:100880000C940000E8EDF0E080818E7F8083109270
:10089000E2001092DA001092E100A0EEB0E08C913C
:1008A00081608C9380818F77808319BCA7EDB0E045
:1008B0008C918E7F8C9380818F7E808310922B050C
:1008C00008952091E4003091E50095E6A90120917A
:1008D000EC00822F817020FF06C08091E80080FF2D
:1008E00006C080E008952091E80022FD1AC08091A2
:1008F0005005882389F0853089F08091EB0085FDD3
:100900000FC02091E4003091E50042175307F9F23F
:100910009150E1F684E0089582E0089583E008951F
:1009200081E00895EF92FF920F931F93CF937C0184
:100930008B010E946104C82F811117C08091E800CB
:1009400085FD0BC08091E8008E778093E8000E94BF
:100950006104882399F3C82F08C0F70181917F01B2
:100960008093F1000150110949F78C2FCF911F910D
:100970000F91FF90EF9008958091520587FF13C06B
:100980008091E80082FF06C08091E8008B77809319
:10099000E80004C0809150058111F2CF0895809144
:1009A00050058823D9F38091E80080FFF8CF80912B
:1009B000E8008E77ECCF982F9093E900242F762FC4
:1009C00050E0891731F07091EC002091ED005091CA
:1009D000F00021FD07C09F5F973071F78093E90019
:1009E00081E008953091EB003E7F3093EB00309131
:1009F000ED003D7F3093ED003091EB00316030939E
:100A0000EB007093EC002093ED005093F0002091E8
:100A1000EE0027FDE0CF80E00895B0E0A0E0E3E144
:100A2000F5E00C949535C8EDD0E088818F7E888301
:100A3000E7EDF0E080818160808384E082BF81E027
:100A400080932B0588818E7F888302EE10E0F80169
:100A500010821092DA0081EEC82ED12CF60110829D
:100A600088818F77888388818068888388818F7D5B
:100A7000888319BC109250051092510510924F05B1
:100A800010924E0590EEE92EF12CF70180818B7FBC
:100A9000808388818160888342E060E080E00E94FA
:100AA000DB04F60180818E7F8083F8018081816084
:100AB0008083808188608083F70180818E7F80833E
:100AC000888180618883CDB7DEB7E8E00C94B135CA
:100AD000FC01809158059091590586179707A0F061
:100AE0006115710529F49091E8009E779093E800D4
:100AF00090E06115710551F4911108C08091E800F2
:100B000082FF34C080E00895BC01F2CF809150058F
:100B10008823C1F18530C1F18091E80083FD30C0A8
:100B20008091E80082FDEACF8091E80080FFE1CF6C
:100B30008091F3002091F200382F6115710519F0B2
:100B40002830310558F091E02830310509F090E067
:100B50002091E8002E772093E800CBCF81918093FD
:100B6000F100615071092F5F3F4FE7CF8091500531
:100B7000882341F0853041F08091E80083FFBECFAB
:100B800081E0089582E0089583E0089508958091BA
:100B90002D0508959C014FB7F894809122059091FE
:100BA0002305A0912405B09125054FBF821B930B0F
:100BB00008952FB7F89460912205709123058091D4
:100BC0002405909125052FBF08952FB7F8948091A3
:100BD000220590912305A0912405B09125052FBFF2
:100BE0000895209121012223C1F02091260527FF9D
:100BF00014C0E62FE695E695E695EE31F8F4E80F99
:100C0000F92FF11D677021E030E001C0220F6A95D5
:100C1000EAF78281822B82830895FC0132962FEFBE
:100C200030E04191641751F02F3F19F4411101C098
:100C3000232F3F5F3630A9F72F3F09F40895820F25
:100C4000911D27FD9A95FC016283089520911F054F
:100C5000309120052817390771F090932005809373
:100C60001F05E0911D05F0911E05309721F00084CD
:100C7000F185E02D0995089520911B0530911C0503
:100C80002817390771F090931C0580931B05E0919C
:100C90001D05F0911E05309721F00680F781E02DAB
:100CA00009950895E0911D05F0911E05309729F0F2
:100CB0000190F081E02D0995089580E00895CF938B
:100CC000DF93EC0140910E0550910F0560911005E6
:100CD000709111052FB7F89480912205909123050A
:100CE000A0912405B09125052FBF841B950BA60B61
:100CF000B70B843F9140A105B10518F580910E0511
:100D000090910F05A0911005B091110580930A05EF
:100D100090930B05A0930C05B0930D0584EF91E023
:100D2000A0E0B0E08093060590930705A093080526
:100D3000B0930905D0931605C0931505DF91CF91A7
:100D400008950E94D90560930A0570930B0580935E
:100D50000C0590930D0582E390E0A0E0B0E0E2CFB7
:100D6000FC018481862351F492819923B9F069238F
:100D7000808583FF05C081E061110FC080E0089588
:100D8000892F8F7092959F70982B862F8F70629508
:100D90006F70682B81E09613F1CF089581E0FDCF4D
:100DA000452B39F0682381E06F3F09F080E08170C6
:100DB000089581E0FCCFDC0160910205809103057C
:100DC000962F891301C00895292F30E0F901EE0F05
:100DD000FF1FE650FB4F408151814A175B07A1F48A
:100DE00087E08A9FA0018B9F500D11244E535B4FCB
:100DF00081E0FA0184839613E6CF2F5F3F4F237083
:100E000033272093020508952F5F3F4F922F937051
:100E1000D8CF10925F0410925E04E2ECF4E085817A
:100E2000811102C014821682379684E0EA3FF807E7
:100E3000B1F70895B0E0A0E0E0E2F7E00C9493355C
:100E40008FEF9FEF4430510508F469C040912605AB
:100E500041FB882780F990E0880F991F42FB00270B
:100E600000F910E0000F111F000F111F802B912BB4
:100E700040FBCC24C0F8D12C8C299D2943FB222790
:100E800020F9C22FE0E0DE2F53E0CC0FDD1F5A9592
:100E9000E1F78C2B9D2B44FBAA27A0F9B0E0E4E0FE
:100EA000AA0FBB1FEA95E1F78A2B9B2B45FBEE2788
:100EB000E0F9F0E0A5E0EE0FFF1FAA95E1F78E2B19
:100EC0009F2B46FB222720F930E0B6E0220F331F8C
:100ED000BA95E1F7822B932B47FB222720F930E0CC
:100EE0003695322F222737952795822B932B2091E9
:100EF0002705322F3170F32EE82EF92A269521701E
:100F0000B22EBB0CA82EBF28C501BB0CAA0BBB0B75
:100F1000FB0180839183A283B38390E080E0CDB70F
:100F2000DEB7EAE00C94AF35E6E3F4E08481958126
:100F30002AE030E0B9010E94563560931C01868199
:100F400080931B01828580931A0184858093190107
:100F500086859785B9010E9456356093180180896E
:100F600080931701828980931601848980931501EB
:100F70000895809136049091370490931E018093D8
:100F80001D010895E6ECF2E090E080E06AE87BE283
:100F900041EB5BE22FEF3AE277836683518740872C
:100FA000338722879587848701963E9688309105FE
:100FB00099F7089581152CE5920741F420911301CA
:100FC00030911401232B11F490E080E00895FA0190
:100FD000811101C0FB0109950895EBEAF2E08183DC
:100FE00060834283848363834583878366834087EA
:100FF0000895FC01EE0FFF1FE80FF91FE555FD4FA7
:101000006183408322830895E5EAF2E0248130E1A0
:10101000231B08F420E024838091A4028160809344
:10102000A4020895E5EAF2E0248130E1230F08F4F8
:101030002FEF24838091A40281608093A4020895FD
:101040009091A502937071F08093A6026093A7021D
:10105000453608F044E64093A8028091A402822B12
:101060008093A4020895E5EAF2E0438120E1421B67
:1010700008F440E0818121E0628190E00E94200834
:101080000895E5EAF2E0438120E1420F08F44FEFD2
:10109000818121E0628190E00E9420080895E5EAC4
:1010A000F2E0628120E1621B08F460E0818121E0CE
:1010B000438190E00E9420080895E5EAF2E0628111
:1010C00020E1620F08F46FEF818121E0438190E01D
:1010D0000E9420080895E5EAF2E0818121E0438141
:1010E00062818850990B0E9420080895E5EAF2E099
:1010F000818190E021E04381628108960E9420086E
:1011000008958091A502837051F084608093A502B8
:10111000109212018091A402862B8093A40208955C
:101120008091A50286958695815009F481E061E061
:101130000E948108089561E081E00E94810808957D
:101140000E94ED0708950E94F90708950E94E505A1
:101150009C019091980280919902982B21F03093F4
:1011600095022093940290919A0280919B02982B71
:1011700021F03093930220939202E0911D05F091AB
:101180001E05309749F082E0809396020480F58135
:10119000E02D86E992E00995089590919802803FAC
:1011A00059F48091990287FF0DC010929902911114
:1011B0000BC01092900208C0813F81F48091990287
:1011C00018169CF3992381F080919A0290919B02CA
:1011D000892B09F064C010928F020895823F49F470
:1011E00097FFF0CF10929802809199028111ECCF75
:1011F000E0CF833F19F41916ACF3E4CF20919A02A3
:10120000893F29F41216F4F610929A02DBCF8A3F36
:1012100019F427FFD7CFF8CF20919B028B3F29F4F9
:1012200027FFD0CF10929B02CDCF8C3F19F412161E
:10123000CCF3C8CF843F31F4809197028E7F8093A6
:101240009702C0CF853F21F4809197028D7FF7CF21
:10125000863F21F4809197028B7FF1CF873F21F465
:1012600080919702877FEBCF883F21F4809197028E
:101270008F7EE5CF8D3F31F4809191028E7F8093F8
:101280009102A0CF8E3F21F4809191028D7FF7CF04
:101290008F3F09F097CF809191028B7FF0CF089517
:1012A0008091910280FF0CC06091160170E07595ED
:1012B0006795759567956115710549F1862F0895B4
:1012C00081FF06C06091160170E075956795F3CFB8
:1012D0006091160182FD0BC090918F029923A1F0BD
:1012E0006091150180911601961738F0682F70E013
:1012F0006038710500F38FE70895899FC0011124BC
:1013000070E00E946A35F4CF61E070E0D7CF81E0F1
:1013100008958091910260913E0470913F0480FF96
:1013200016C020911A01269FC001279F900D1124FD
:10133000BC0176956795769567956038710508F0DC
:1013400043C06115710509F441C0862F089581FFDE
:101350000BC020911A01269FC001279F900D1124D8
:10136000BC0176956795E9CF82FF09C080911A018B
:101370009B01829FB001839F700D1124DECF2091CD
:1013800090022223D1F29091190180911A01482FE5
:1013900050E0291748F0CB01849FB001859F700D64
:1013A000949F700D1124C9CF289F90011124269F6E
:1013B000A001279F500D369F500D1124692F70E01A
:1013C000CA010E945635B9CF8FE7089581E008958C
:1013D000803F31F40E948909819580939902089594
:1013E000813F19F40E948909F8CF823F31F40E94AD
:1013F00089098195809398020895833F19F40E948A
:101400008909F8CF893F29F40E94500980939A02F4
:1014100008958A3F21F40E9450098195F7CF8B3FB0
:1014200031F40E945009819580939B0208958C3F6E
:1014300019F40E945009F8CF843F31F4809197024B
:101440008160809397020895853F21F480919702EF
:101450008260F7CF863F21F4809197028460F1CFBC
:10146000873F21F4809197028860EBCF883F21F479
:10147000809197028061E5CF8D3F31F48091910298
:1014800081608093910208958E3F21F480919102B2
:101490008260F7CF8F3FB9F7809191028460F1CFDE
:1014A00080E00895F894E82FE295EF70F0E031A124
:1014B000282F2F7081E090E001C0880F2A95EAF76D
:1014C000982F9095932391A392A1892B82A378942E
:1014D00008959091260592FF06C0282F2871283084
:1014E000F9F4877F846093FF06C0282F2871283184
:1014F000F1F4877E84612091270520FF06C0382FF4
:1015000038713830D9F4877F816021FF06C0282FD9
:1015100028712831D1F4877E816194FD877E0895FA
:10152000282F24712430F9F68B7F8860DCCF282F98
:101530002471243101F78B7E8861DDCF382F317122
:10154000313019F78E7F8860E0CF282F217121314B
:1015500021F78E7E8861E1CFCF93DF93EC01823853
:101560009105B1F108F040C08133910509F49DC0A7
:1015700048F58932910509F48DC08A9709F49CC019
:10158000C11521E5D20708F0C3C0C11530E5D30766
:1015900008F01EC1C83ED10508F0A3C0C03ED10569
:1015A00088F5C83AD10508F08EC0C53AD10508F0D3
:1015B00007C1C130D10531F1209721F1C430D105E7
:1015C00008F545C08533910509F45FC0C997C1F698
:1015D00080912605837009F044C18091270583FF1F
:1015E00011C0C9E2D0E00EC0833E910599F170F4BC
:1015F000803E910501F1823E910511F6809126050C
:1016000082FD21C0CE01DF91CF910895863E9105E4
:1016100061F1873E910571F1843E910509F0B0CFEB
:101620008091270581FFEECF80912605C7EED0E09F
:1016300084FD0DC0E7CF8091260580FD33C09091D9
:10164000270590FFDFCFC3EED0E084FFDBCFD0E0F3
:10165000C0E0D8CF8091260582FD00C1909127057A
:1016600090FDFFC084FFCECFF2CF8091260583FD91
:10167000DDCFC8CF8091260583FDF6C09091270568
:1016800091FFF0CFC4EED0E0BDCF8091260585FF5D
:10169000B9CFA7CF8091260585FDE9C080912705A8
:1016A00083FFB0CFC9E3D0E0ADCF8091260586FFA0
:1016B000A9CFCAE2D0E0A6CF8091260586FFA2CFAF
:1016C000C1E3D0E09FCFCF3BD10508F6C85AD0E0A8
:1016D000CC0FDD1FC05DDE4F0990D881C02DD464D2
:1016E00091CFC11540E2D40758F4C11581E0D80765
:1016F00008F088CFC03FD10508F4A9CFD06582CFCC
:10170000C11520E4D20708F4A2CFDF70D06A7ACFE7
:10171000C11535E5D30718F5C11544E5D40708F020
:1017200085C0C11583E5D80708F06CC0C11522E556
:10173000D20708F462C0CE018370992721E030E01F
:1017400002C0220F331F8A95E2F7C695C69580E244
:10175000C89FE0011124C22BD32BDC6853CFC115E5
:1017600039E5D307A8F4C11548E5D40708F063C0EC
:10177000C11586E5D80708F06ACF8C2F0E94690A48
:10178000C82FD0E0DC2FCC27CC27DF71D0623ACF36
:10179000C1152AE5D20708F453C0CE019056811531
:1017A000904208F054CF8D2F8F710E94690A90E00B
:1017B000982F882788279F719C012C2BE901E6CF61
:1017C000C55AD0E0C35DDE4FC881D0E0D0641ACFE7
:1017D0002C2F26952695237040E2249F90011124FA
:1017E0008C2F8370C1E0D0E002C0CC0FDD1F8A9542
:1017F000E2F7C22BD32BDD6805CFDC2FCC27C16FDE
:10180000D06A00CFCE018370992721E030E002C07A
:10181000220F331F8A95E2F7C695C69540E2C49F12
:10182000E0011124C22BD32BDA68ECCEDC2FCC27BD
:10183000C46FD06AE7CEDC2FCC27C06FD06AE2CE6F
:101840008C2F8F700E94690A34E0D695C7953A951F
:10185000E1F7CF709C2FEC01D069D4CEC2EED0E07E
:10186000D1CEC0EED0E0CECEC6EED0E0CBCEC5E33A
:10187000D0E0C8CE80916202882331F010926202DB
:1018800010926102109260020895CF93C82F809148
:10189000270582FF0CC0809162028C1741F00E94E4
:1018A000E5059093610280936002C0936202CF913C
:1018B0000895809590915B05982390935B0508951A
:1018C0008095909115049823909315040895909114
:1018D0001504892B80931504089510923F021092ED
:1018E0003E0210923D02089580913804909139048F
:1018F000892B89F00E94E5052091600230916102F8
:10190000AC01421B530B81E0209138043091390423
:101910004217530708F480E08170089590912101E7
:101920009923D1F09091260597FF16C0E82FE695F0
:10193000E695E695EE31E0F4F0E0E454FE4F282F12
:10194000277081E090E001C0880F2A95EAF7809522
:101950009281892382830895EEEBF1E091918913BE
:1019600003C0DF0111971C9291E0E43CF907B1F745
:10197000089520913C029091FB01291302C080E060
:10198000089530E0F90153E0EE0FFF1F5A95E1F79B
:10199000E450FE4F5181561306C05081581303C0C6
:1019A0005281541304C02F5F3F4F2770E6CF81E070
:1019B000089580913C029091FB01981301C0089515
:1019C0008F5F8770FACF292F943078F58C3068F5C7
:1019D00090E03CE0239F800D911D1124682F6770DB
:1019E00023E0969587952A95E1F7FC01EE0FFF1FFE
:1019F000E80FF91FEF51FE4F50E040E080E02191E9
:101A000030E0062E02C0369527950A94E2F7217041
:101A10003327042E01C0220F0A94EAF7822B4F5F6E
:101A20005F4F4330510559F7089580E00895292FFD
:101A3000943098F58C3088F590E03CE0239F800D41
:101A4000911D1124282F277041E001C0440F2A95D1
:101A5000EAF723E0969587952A95E1F7FC01EE0FCA
:101A6000FF1FE80FF91FEF51FE4F30E020E070E05C
:101A70005191DF011197CB01022E02C096958795F7
:101A80000A94E2F7817081958527842385278C93BA
:101A90002F5F3F4F2330310559F7089592959F707E
:101AA000963091F058F4925F9F70923058F4803FD6
:101AB00019F030F4883E30F481E008959A5FF4CF55
:101AC000843FD1F380E00895883EB0F3813FD1F7A1
:101AD000F3CF9C013A9521153F4150F5FC01EE27CB
:101AE000F170BC0166277270AC01442754709C01F0
:101AF0002227387094FF0EC080E1EF2B09F480E0BC
:101B0000672B09F08062452B09F08064232B89F054
:101B10008068089581E0EF2B09F480E0672B09F0DD
:101B20008260452B09F08460232B19F088600895AA
:101B300080E008958093280570932A056093290515
:101B4000809150058430F9F48093E9008FEF9091F3
:101B5000E800815095FD06C095ED9A95F1F70000DB
:101B60008111F5CF8091E80085FF0DC050E040E085
:101B700063E070E088E295E00E9492048091E800C2
:101B80008E778093E8000895BC0184E00E949A0D4E
:101B90000895BC0183E00E949A0D08959C0184E0A1
:101BA0008093E9009FEF8091E800915085FD06C089
:101BB00085ED8A95F1F700009111F5CF8091E8004D
:101BC00085FF0CC050E040E066E070E0C9010E9473
:101BD00092048091E8008E778093E8000895CF9377
:101BE000DF93EC01809121018823B1F180912605DA
:101BF00087FF32C060E284E08093E9008FEF90912C
:101C0000E800815095FD06C095ED9A95F1F700002A
:101C10008111F5CF8091E80085FF1BC080912101E3
:101C200070E050E040E0811104C050E040E068E026
:101C300070E0CE010E9492048091E8008E7780933C
:101C4000E80080E2FE01AEE2B5E001900D928A95D7
:101C5000E1F7DF91CF91089568E081E0CDCF81E099
:101C60008093E00080E28093D8001092C9008FE159
:101C70009EE40197F1F700C0000087E090EBDC01E3
:101C800080935C0590935D05A0935E05B0935F051E
:101C900088E19CE00FB6F894A895809360000FBE91
:101CA00090936000FFCF019708F40895EFE9FFE0FB
:101CB0003197F1F700C00000F6CF509A3BB13E7F5C
:101CC0002BB121604FB7F8948BEA92E0FC0151915F
:101CD000CF0168E02BB9000000C057FF3BB9550F9A
:101CE000000000C000C000C03BB900C06A9591F779
:101CF000F2E0843B9F0751F74FBF8FE594E00197D7
:101D0000F1F700C0000008950F931F93CF93DF9366
:101D100006E314E0C7EAD1E0CE010E94F835F801ED
:101D200081938F012196CB3CF1E0DF07A9F7C4EA4C
:101D3000D5E0FE0185919491009711F0FC01099581
:101D40002C96F6E0C03ADF07A1F7DF91CF911F9103
:101D50000F9108950F931F93CF93DF93843030F545
:101D6000643020F54C3010F5C42FD0E0CC0FDD1FCF
:101D700028E1629FC00DD11D112430E6839FC00D64
:101D8000D11D1124CE0187960E94F835082F10E04E
:101D9000102F0027CE0188960E94F8359801282B35
:101DA000C901DF91CF911F910F91089590E080E0DC
:101DB000F8CF462F2091130430911404232B99F46B
:101DC000703F39F4603F79F48091110490911204CE
:101DD0000895843040F4743030F46C3020F4672F70
:101DE0000E94AA0E089590E080E00895CF92DF92BD
:101DF000FF920F931F93CF93DF936C0100915A05CD
:101E000080916302082BC7E0D0E010E0FC2EC801EF
:101E10000C2E02C0959587950A94E2F780FD0CC0C0
:101E20002197A0F7F12C8F2DDF91CF911F910F916A
:101E3000FF90DF90CF900895B6018C2F0E94D90EAD
:101E40000E94AC0A019761F3EECFCF93DF93EC01D0
:101E50000E94F60EBE010E94D90E0E94AC0ADF91CC
:101E6000CF910895CF93DF93EC014B815C81698121
:101E700088810E94D006811110C08E819F810097B9
:101E800039F00E94AC0A0E944E0DDF91CF91089567
:101E9000888199810E94250FF6CF80E0F6CFA5E0DA
:101EA000B0E0E5E5FFE00C949A3549835A838981D7
:101EB0009A81662399F0222389F00E94F60E182F4A
:101EC000682F89819A810E94170D69817A81812FFB
:101ED0000E94D90E2596E3E00C94B6350E94E30CDF
:101EE000182FF3CFFC01262F86819781009739F4B4
:101EF000408151816281738184810E944F0F0895D6
:101F000083E290E00E94F835873A89F484E290E019
:101F10000E94F8358D3059F485E290E00E94F83542
:101F200091E08A3A09F090E0892F8170089580E06D
:101F3000FCCFDB01FC013296259134914217530707
:101F400058F0FC01349665917491A901CD010E946D
:101F5000D83590E080E008958FEF9FEF08950F93BC
:101F60001F93CF93DF9306E314E0C7EAD1E0CE01DD
:101F70000E94F835F80161918F01681719F0CE01C0
:101F80000E9416362196CB3CF1E0DF0781F7DF9106
:101F9000CF911F910F910895DA019C012E5F3F4F61
:101FA000F90145915491F90125913491A217B30794
:101FB00058F0FC013496859194910E94D8350E9486
:101FC000AF0F90E080E008958FEF9FEF0895CF93DB
:101FD000DF93CBEBD2E060E0CE010E941636219673
:101FE000C11584E0D807B9F7DF91CF9108951F9309
:101FF000CF93DF93122F8430E0F46430D0F44C3070
:10200000C0F4C42FD0E0CC0FDD1F98E1699FC00D54
:10201000D11D112490E6899FC00DD11D1124632F7D
:10202000CE0187960E941636612FCE0188960E94B7
:102030001636DF91CF911F910895CF93C82F6FEF80
:10204000811167EA83E290E00E9416366FEFC111BA
:102050006DE084E290E00E9416366FEFC1116AEAEB
:1020600085E290E00E941636CF910895CF93C92F54
:10207000682F84E090E00E9416366C2F82E290E098
:102080000E941636CF9108959B01883070F49AE033
:10209000899FB001112465537E4F4AE050E0C90189
:1020A0000E94E83590E080E008958FEF9FEF08955B
:1020B000AAE0B0E0EEE5F0E10C949B359C013755C9
:1020C0002F3F310509F068F4BE016F5F7F4F0E941A
:1020D0004410892B31F489859A852A96E2E00C9484
:1020E000B73580914E0490914F04F7CFAAE0B0E04D
:1020F000ECE7F0E10C94913509E913E087E8C82E8C
:1021000083E0D82E9BE6E92E92E0F92E27E0922E6E
:1021100036E8A32E33E0B32E88248394D6010D93A2
:102120001D936D014AE050E0B701CE0101960E9477
:10213000E835F8013896DF01892D1D928A95E9F777
:1021400089819A81D80111969C938E938F811296E2
:102150008C9312978D8113968C9313978885149680
:102160008C931497898515968C9315978B819C81F8
:1021700017969C938E93169718961C9218978A859B
:1021800087FF3CC01E961C921E921D9780FF03C0C5
:10219000D80118968C9281FF04C0F8019085926056
:1021A000908782FF07C0D80118969C911897946079
:1021B00018969C9383FF04C0F801908598609087DF
:1021C00084FF07C0D80118969C91189790611896C3
:1021D0009C9385FF04C0F801808580628087015F41
:1021E0001F4FFAE0EF0EF11C8BEBE81682E0F806C9
:1021F00009F094CF2A96ECE00C94AD35F801B68640
:10220000A586C4CFAAE0B0E0E8E0F1E10C949535F2
:10221000E6E3F3E080E5DF011D928A95E9F7E2EC61
:10222000F4E088E3DF011D928A95E9F786E3C82E82
:1022300083E0D82E7F010BE112E0F701D182C0824A
:102240004AE050E0B801CE0101960E94E83588E0EE
:10225000FE013196D60101900D928A95E1F78985AC
:102260009A85D70113969C938E931297BAE0CB0E62
:10227000D11CE7E0EE0EF11C065F1F4F0B36F2E0BB
:102280001F07D9F62A96E8E00C94B13546E050E0F5
:102290006CE170E085EA92E00E9406361092A4029A
:1022A0000895B0E0A0E0E7E5F1E10C9490350E94DC
:1022B000D90560939C0270939D0280939E02909337
:1022C0009F023091A502D32FD37019F0D32FD6954A
:1022D000D695209112012130D9F0222359F02230D5
:1022E00009F445C1233009F44CC1CDB7DEB7EDE0A8
:1022F0000C94AC3510920F016093A0027093A10270
:102300008093A2029093A30281E080931201EDCF0B
:1023100090910E0181E0D9130BC0832F837020911F
:102320000D0130E091E08217130609F490E0892F47
:102330008170809311018091AA02909110019817E9
:1023400039F08093100140E060E080E00E94A00836
:10235000DD2321F0D13061F080E029C080911101AE
:10236000882329F140E060E080E00E94A008F4CFDB
:1023700090900F0101E0090D802E043010F023E051
:10238000822E4091A602D090A702E091A802F0E030
:10239000E65CFB4FD1102BC0F4901F2DCF2DC92C24
:1023A000D12CC81408F497C081E00330A8F6C0917E
:1023B0000F0191E09C0F90930F0181119EC082E06C
:1023C0008093120180911101811197C0DD2309F4DE
:1023D000D6C080915A05811194C0C1119AC020E0E5
:1023E00040E060E090E080E00E94A30892C0ED2C05
:1023F000F12CC4917C2EEC2FF0E026E0429FC0012E
:1024000011242FEF30E0B9010E945635842F90E05F
:10241000880F991FA5E5A69FA001A79F500D112425
:10242000841B950BC82ECC0CC80ED901AE19BF0960
:10243000AE9FA001AF9F500DBE9F500D1124152FD0
:10244000DC9CD0011124AB2FBB27C9018A1B9B0B3D
:102450008E9FD0018F9FB00D9E9FB00D112459010A
:10246000AC18B108AE9C6001AF9CD00CBE9CD00CE7
:102470001124CD2CDD242C193D092E9FC0012F9F46
:10248000900D3E9F900D1124F92E62307105A1F040
:1024900050F46115710509F482CF6130710581F046
:1024A000F52E1B2F7CCF6430710569F080F066300B
:1024B000710509F474CFF4CFFC2EC52F192F6FCFFF
:1024C000FC2ECB2F6CCFF52E1C2FC92F68CFC52F1C
:1024D000172DFB2E64CFF601EE58FE4F86A9909182
:1024E0001001892331F0212F4F2D6C2FC6010E943E
:1024F000A3088FEFC81AD80A54CFDD2309F4F5CE0C
:1025000068CF81FF6ACF2FE04FE06CE3CC2309F462
:1025100069CF80915A058823C9F082FF17C02FE048
:102520004CE36FE0C230B8F080915A05C150882367
:10253000B9F083FF15C02CE34FE06FE0C23008F024
:10254000D4CE82E090E00E94A308CFCEC23060F7E4
:1025500020E040E060E081E090E00E94A308E4CF4A
:10256000C23008F0C2CE20E040E060E0EACFD09375
:102570000E01832F837080930D010E945D0E83E016
:10258000C4CE8091A40281110E9446114091A00204
:102590005091A1026091A2027091A3022FB7F8940A
:1025A0008091220590912305A0912405B0912505E5
:1025B0002FBF841B950BA60BB70B4097A105B10548
:1025C00008F493CE1092120190CEE5EAF2E085E095
:1025D00080838091220190912301A0912401818325
:1025E0009283A3838FE784838FEF85830E944611B4
:1025F0000895A8E0B0E0EFEFF2E10C948D358E0184
:102600000F5F1F4F88E0F80111928A95E9F79EE568
:10261000E92E91E0F92E680122E6422E21E0522EA9
:1026200066246394712C4EE6842E41E0942EF701CB
:1026300081917F018F3F09F445C0F894E82FE2951E
:10264000EF70F0E021A18F70A30102C0440F551F6D
:102650008A95E2F7CA01922F982B91A392A18095B7
:10266000892382A3789400C0E2E6F1E021E030E023
:10267000B12CA12C41914F3F09F464C0A42FA29525
:10268000AF70B0E090968C9190E04F7002C095953D
:1026900087954A95E2F780FD55C0C901A82AB92A55
:1026A000220F331F8E169F0629F7F701319780817D
:1026B0008F3F11F00E94520A50EA5A95F1F7F60145
:1026C000B182A082F2E0CF0ED11C4E145F0409F05B
:1026D000AECF48E050E0B80187E692E00E94CB35EB
:1026E000892B99F188E0F801A7E6B2E001900D92FC
:1026F0008A95E1F781E0809366020E94E505909358
:1027000065028093640280916402909165020E9448
:10271000CA050597F0F048E050E067E672E087E808
:1027200092E00E94CB35892BC9F088E0E7E6F2E021
:10273000A7E8B2E001900D928A95E1F781E010924E
:10274000660208C090E080E0A9CF80916602811106
:10275000DACF80E02896E0E10C94A93580E0EFCF55
:10276000CF938091150490915B05892B8093BC01D8
:1027700080916202882329F1809138049091390474
:10278000892B29F00E94740C81110E943A0C8091CF
:10279000BC0190916202892B8093BC018091210140
:1027A000882309F447C08091260587FF43C08EE146
:1027B000EEEBF1E090E0815008F03EC091110E94F4
:1027C0003A0CC0911205C0958091BC01C82380913C
:1027D0001305C82BC093BC0140E250E060E472E0F6
:1027E0008CEB91E00E94CB35892B11F180E2ECEB70
:1027F000F1E0A0E4B2E001900D928A95E1F7E0915A
:102800001D05F0911E05309799F0809121018823D4
:1028100049F08091260587FF05C0C093BD0186E081
:102820008093BC010280F381E02D8CEB91E009954F
:10283000CF91089586E0BCCF2191222309F4BBCF2C
:102840009F5FB9CFCF93DF93EC01EA85FB8530978B
:1028500019F06C857D8509958B810E94590C8C81BE
:102860000E94600C0E94B01386E0FE0111928A95CE
:10287000E9F7DF91CF910895CF93DF93EC018D813C
:1028800081FD15C082608D8380915B059B81892BC2
:1028900080935B058C810E94670C0E94B013E885D1
:1028A000F985309721F06C857D85CE0109951092D0
:1028B0001A05109219058D8180FD03C0CE010E947A
:1028C0002214DF91CF91089580911F01877F80931B
:1028D0001F0182E00E94590C80911F0184FF06C0F5
:1028E0008F7E80931F0182E00E94670C80911F0100
:1028F00085FF06C08F7D80931F0180E20E94670CD8
:102900000E94B013089590E080E00E943C0690E0A1
:1029100080E00E94260610925B050E94B01386E0BC
:10292000E6E9F2E0DF011D928A95E9F71092900244
:1029300010928F02109291020E94A608089580932F
:102940005A050E948314089580915A05982F967015
:10295000963021F488600E949F140895877FFBCFF2
:1029600021E030E001C0220F8A95EAF7209580919E
:102970005A0582230E949F14089590913F028095EA
:10298000892380933F02282F277091F4282F082E47
:10299000000C330B9217130659F09091270592FF04
:1029A00007C08595859585950E94B0140E946D0C91
:1029B00008959091270592FB222720F9281769F0A6
:1029C00080FB92F990932705809126059091270529
:1029D0000E94361082E00E94BD14089521E030E08C
:1029E00001C0220F8A95EAF780915A05822B0E9436
:1029F0009F1408959091270592FF10C098E0899F39
:102A000090011124622B60933F020E94EE140E94F9
:102A1000E50590933E0280933D0208950E94EE14D6
:102A20000895809363020E94831408951092150400
:102A300080912101EEEBF1E0882361F08091260581
:102A400087FF08C08EE1DF011D928A95E9F70E9499
:102A50008314089586E0F7CFAAE2B0E0E2E3F5E15F
:102A60000C949A3582E595E02091F100DC012D93DC
:102A7000CD01B5E08A359B07B9F7809153058330C6
:102A800009F472C0B8F4813009F449C0823009F405
:102A9000B3C08091E80083FF96C280915205909167
:102AA00053059A3008F08FC2E92FF0E0EC5AF94C48
:102AB0000C947E358A3009F48EC08B3009F471C0D5
:102AC000893039F780915205813219F78091560586
:102AD00090915705009711F00297D9F68091E80080
:102AE000877F8093E8008091E80082FF38C0909152
:102AF000F3008091F200029731F48091F10081306F
:102B000011F0863021F48091F10080932D058091A1
:102B1000E8008B778093E8000E94BC04BACF8091D4
:102B20005205813A09F0B5CF8091E800877F809304
:102B3000E8008091560590915705892B61F460E279
:102B40008EE295E070E00E9468058091E8008B7746
:102B50008093E8009ECF60E090E080E0F3CF80912A
:102B600050058111C0CF95CF80915205813A09F06F
:102B700090CF8091560590915705892B09F089CF08
:102B80008091E800877F8093E8008091E80080FFD3
:102B9000FCCF809121018093F1008091E8008E7735
:102BA000B9CF80915205813209F073CF80915605DB
:102BB00090915705892B09F06CCF8091E800877FB1
:102BC0008093E8000E94BC04809154058093210109
:102BD0000E9416155ECF80915205813209F059CFBF
:102BE0008091E800877F8093E8000E94BC04809178
:102BF000550580932C054DCF80915205813A09F0FF
:102C000048CF8091E800877F8093E8008091E800BA
:102C100080FFFCCF80912C05BECF803899F08238A0
:102C200009F0D1C1809156058F70873008F0CBC173
:102C30008093E9008091EB0085FB882780F9109252
:102C4000E90006C080914E0590914F059111826078
:102C50009091E800977F9093E8008093F1001092A4
:102C6000F1008091E8008E77AAC1882309F498C109
:102C7000823009F0A8C18091540581119BC18091D7
:102C800056058F702FEF280F263008F09CC18093D7
:102C9000E9002091EB0020FF8DC1933031F4809149
:102CA000EB0080628093EB0085C19091EB00906116
:102CB0009093EB0021E030E001C0220F8A95EAF703
:102CC0002093EA001092EA008091EB008860EACF3E
:102CD000811179C1109154051F778091E3008078AC
:102CE000812B8093E3008091E800877F8093E80048
:102CF0000E94BC048091E80080FFFCCF8091E3003B
:102D000080688093E30082E0111183E08093500596
:102D10005AC18058823008F056C120915405309134
:102D200055052C3DE3E03E07A1F583E08A838AE266
:102D300089834FB7F894DE01139620E03EE051E21C
:102D4000E32FF0E050935700E49120FF03C0E29599
:102D5000EF703F5FEF708E2F90E0EA30C0F0C796C3
:102D60008D939D932F5F243159F74FBF8091E800D9
:102D7000877F8093E8006AE270E0CE0101960E94AE
:102D800068058091E8008B778093E8001CC1C096AD
:102D9000E7CF8091560590915705432F5527433033
:102DA000510509F44AC078F54130510509F485C050
:102DB0008BE590E0E6E9F6E04230510509F003C109
:102DC0002091E800277F2093E8002091580530915A
:102DD00059058217930708F49C0140E0211531053D
:102DE00009F070C041116EC08091E80082FDC9CF2A
:102DF00080915005882329F2853019F28091E800EE
:102E000083FFF2CFBECF4132510509F447C04232B1
:102E1000510509F0D8C08330910508F0D4C0FC01F9
:102E2000EE0FFF1FE255FE4F0190F081E02D85551A
:102E30009E4FDC018C9190E01DC03327213031057D
:102E4000E9F02115310579F022303105F9F0233010
:102E5000310509F0B8C0E3E0F7E0E4918E2F90E08F
:102E6000E3E0F7E007C0EBE5F7E0E4918E2F90E0B8
:102E7000EBE5F7E0009709F4A6C0A2CFE9E3F7E09D
:102E8000E4918E2F90E0E9E3F7E0F4CFE1E2F7E0A0
:102E9000E4918E2F90E0E1E2F7E0ECCF83309105F2
:102EA00008F091C0880F991FFC01EC54FE4F01906F
:102EB000F081E02D89E090E083CF82E190E0E1EFC6
:102EC000F6E07ECF80915005882309F45ACF8530F3
:102ED00009F457CF8091E80083FD53CF8091E8003B
:102EE00082FD82CF8091E80080FF78CF9091F3003F
:102EF0008091F2002115310519F08830910550F0CC
:102F000041E0089709F040E08091E8008E778093D7
:102F1000E80064CF44914093F1003196215031098B
:102F20000196E8CF803809F04EC08091E800877F95
:102F30008093E800809151058093F10092CE811139
:102F400042C0109154051230F0F58091E800877F5F
:102F50008093E800109351050E94BC04112311F0E6
:102F600084E005C08091E30087FDFACF81E0809383
:102F7000500542E061EC81E00E94DB0442E261EC3A
:102F800084E00E94DB0442E261EC82E00E94DB0408
:102F900042E260EC83E00E94DB048091500513C0A4
:102FA00080915405813079F481E0933009F080E01C
:102FB00080934F051092E9008091E800877F80930D
:102FC000E8000E94BC048091E80083FF0AC0809161
:102FD000E800877F8093E8008091EB008062809317
:102FE000EB00AA96E3E00C94B635E6E3F4E0128E2B
:102FF000138E8FEA90E09183808325E0248F88E808
:1030000093E1938382838AE090E09583848344E113
:1030100050E05783468348E050E0518740879387CC
:1030200082876EE170E0758764879787868780E581
:1030300090E0918B808B538B428B48E250E0558B14
:10304000448B42E350E0578B468B48EC50E0518F65
:10305000408F158E178E168E91A380A322A30E94F7
:10306000AF0F0E9416151092270510922605E7E271
:10307000F5E080818460808380912605909127050A
:103080000E9436100E94840E0895AEE1B0E0EBE499
:10309000F8E10C949235C0901301D090140181E0B6
:1030A00090E09093140180931301F12CE12C8AE3BA
:1030B000A82E85E0B82E912C1BC0E114F104D9F4A0
:1030C000F801EE0FFF1FEA0DFB1D25913491402FF3
:1030D000692D80E00E94F70F0F5F1F4F0C30110524
:1030E00061F788E1A80EB11C9394E4E09E1649F0C4
:1030F00010E000E0E2CF21E030E0402F692D8E2D7E
:10310000E9CFFFEFEF1AFF0A84E0E816F10479F641
:103110000E94F5171A8219821C821B821E821D8250
:1031200018861F8288EC90E09A8789870BEC11E063
:103130004AE050E0B801CE0101960E943A36065F9F
:103140001F4F0B31E2E01E0799F77E01FBE0EF0E07
:10315000F11C8AE0F70111928A95E9F74AE050E004
:10316000B801C7010E943A36065F1F4F0B36F2E0E6
:103170001F07A1F77E0185E1E80EF11C8AE0F70147
:1031800011928A95E9F78FEF9FEF9A8F898F87E0E9
:103190008E8F4AE050E0B801C7010E943A36065FC0
:1031A0001F4F0B3BF2E01F07A1F7D0921401C09212
:1031B00013016E96EBE00C94AE3580E00E941D107A
:1031C00060E086E290E00E9416360E9445180E9458
:1031D000E70F81E00E941D100895CF92DF92EF92D9
:1031E000FF928FEF9FEF4430510508F46AC0FB0156
:1031F000C080D180E280F3800E9416158091260560
:10320000C0FA80F9B701A60176956795579547955D
:1032100040FB81F9B701A60122E0769567955795A5
:1032200047952A95D1F740FB82F9B701A60133E013
:1032300076956795579547953A95D1F740FB83F971
:10324000B701A601E4E07695679557954795EA950D
:10325000D1F740FB84F9B701A601F5E076956795B3
:1032600057954795FA95D1F740FB85F9B701A60127
:10327000A6E07695679557954795AA95D1F740FBB7
:1032800086F9B701A601B7E07695679557954795FA
:10329000BA95D1F740FB87F98093260580912705E1
:1032A000D0FA80F9D1FACC24C0F8C0FA81F9809321
:1032B000270580912605909127050E94361090E001
:1032C00080E0FF90EF90DF90CF9008950E94161558
:1032D0002FEF84E39CE0215080409040E1F700C054
:1032E000000088E19CE00FB6F894A89580936000F8
:1032F0000FBE90936000FFCF882321F00E94590CED
:103300000E94B0130895882339F090915B05982BA3
:1033100090935B050E94B0130895882321F00E94CA
:10332000600C0E94B0130895882321F00E94670C5E
:103330000E94B0130895882379F19CEF980F913A79
:1033400028F40E948E0C0E94B013089590E2980F0A
:10335000983050F4877091E001C0990F8A95EAF790
:10336000892F0E94600CEFCF9BE5980F933028F4D3
:1033700090E080E00E943C06089598E5980F973110
:1033800028F490E080E00E9426060895803F20F017
:103390000E94CD080E94A6080895FF920F931F93E4
:1033A000CF93DF93F82E00911705109118050115A2
:1033B000110509F449C010921605109215051092D6
:1033C000120510921305D8011696CD91DC919E013D
:1033D0003A9521153F4108F4D07ED1E0C11101C0DA
:1033E000D0E0D8011996ED91FC911A97309731F001
:1033F0001B966D917C9180E00995D823DD2339F0EF
:103400008CEF8C0F813A30F58C2F0E948E0CFF20B0
:1034100099F0E0911705F0911805808584FD0CC0A6
:1034200080911405882341F0808191819C01215075
:103430003109203B3D45A0F00E94B01310921805C1
:103440001092170510921405C801CDB7DEB7E5E05C
:103450000C94B4350E94B0138C2F0E949B19D7CFC7
:103460000E945F06E9CFCF93DF93EC010E949B1986
:10347000CE010E94690D9E01205E31092830310580
:1034800010F0CD2B29F40E948D19DF91CF91089572
:103490000E947C19FACFCF93C82F8823C1F18CEFFB
:1034A0008C0F813AB0F580912101882301F1809140
:1034B000260587FF1CC0EC2FE695E695E695F0E023
:1034C000E454FE4F828190E04C2F477021E030E0C1
:1034D00002C0220F331F4A95E2F782239323892BE0
:1034E00079F08C2F0E948E0C0E94B01309C0EEEB75
:1034F000F1E08191C817A9F381E0E43CF807C9F72E
:103500006C2F8CEB91E00E94F1050E94B013CF91DB
:10351000089580E28C0F883048F4C77081E001C0C4
:10352000880FCA95EAF70E94670CEFCFEBE5EC0F26
:10353000E33040F4F0E0E35DFE4F808190E00E94D4
:103540003C06E5CFE8E5EC0FE73150F4F0E0EE0F94
:10355000FF1FE05DFE4F808191810E942606D7CF3C
:10356000C03FA8F28C2F0E94E8090E94A608CFCF86
:103570001F93CF93DF93182FC0915604D091570417
:10358000893321F0C0915404D0915504812F0E94B9
:103590004B1A209739F4812F0E949B19DF91CF910C
:1035A0001F9108958FE99FE00197F1F700C0000097
:1035B0002197EFCFB0E0A0E0E0EEFAE10C94933574
:1035C000EC018AE0A82E2881222309F48FC0213043
:1035D000C9F599818A81913021F422960E94B81A06
:1035E00005C0923029F422960E944B1A2196EBCF07
:1035F000933021F422960E949B19F8CF943011F059
:103600002196F4CF229630E020E0AE014F5F5F4F6D
:103610008053990B8A30910550F02150310930F3D5
:103620008FE99FE00197F1F700C00000F6CFA29E5E
:10363000B001A39E700D11249C01260F371F8981B4
:10364000EA01E3CFE22FF0E0E157F84FB490822F88
:1036500086958695869590E0FC01E158F84FE490B8
:103660002770F12C022E02C0F594E7940A94E2F739
:1036700031E0E322FF24FC01E159F84FC490D12C42
:10368000022E02C0D594C7940A94E2F731E0C32217
:10369000DD24FC01E15AF84F049110E002C01595B9
:1036A00007952A95E2F701701127E114F10419F04A
:1036B00081EE0E944B1AC114D10419F086EE0E94CB
:1036C0004B1A8B2D0E94B81AC114D10419F086EE42
:1036D0000E949B19E114F10419F081EE0E949B19DC
:1036E0000115110509F482CF8CE278CFCDB7DEB792
:1036F000EAE00C94AF35CF93DF93EC010E94690DA3
:103700009E01205E31092830310510F0209741F4E8
:103710000E9494198C2F0E944B1ADF91CF9108952B
:103720000E948319F7CF662329F020915B05226060
:1037300020935B059C013056211540E2340720F0B0
:10374000305E2115304108F499270E947B1B0895B3
:10375000B0E0A0E0EEEAFBE10C9496357C018B0131
:10376000D42E80911F0182FF8CC0C0915C04D09147
:103770005D04CE15DF0521F0E114F10409F081C0EC
:1037800080911F018B7F80931F0181FD73C0809109
:103790005A0490915B04A801481B590B81E02091C9
:1037A0001D0130911E014217530708F480E081701B
:1037B000F82E80911F01F0FA81F980931F01FE011C
:1037C00083E0F695E7958A95E1F7EE71FF27EA5ECB
:1037D000FB4F20813181AE014F70552781E090E091
:1037E00002C0880F991F4A95E2F7FF2009F444C0F0
:1037F000822B932B918380838091150481FF08C0D5
:1038000080911F01806180931F0182E00E94600C03
:103810008091150485FF08C080911F01806280930C
:103820001F0180E20E94600C6F2DCE010E94931B4D
:10383000DD2031F08091510485FF02C086FF3BC03E
:1038400080915404909155040E94530E80915C0421
:1038500090915D049C013056211540E2340720F020
:10386000305E2115304108F499270E94331A0E94D6
:1038700064141DC081E09BCF809590958223932393
:10388000B9CFC701992797013056211540E2340777
:1038900028F0305E2115304108F0C7010E94331A2C
:1038A00080915C0490915D048E159F0501F3109347
:1038B0005B0400935A04CDB7DEB7E7E00C94B23551
:1038C00090E080E00E940036883E9E4F19F40E94EE
:1038D000800F089580E0089568EE7EEF90E080E02C
:1038E0000E94343660E082E090E00E94163660E08C
:1038F00083E090E00E9416361092630260E084E05C
:1039000090E00E94163664E082E290E00E94163653
:1039100060E085E090E00E94163660E086E090E08E
:103920000E9416366FEF87E090E00E94163640E066
:1039300050E0BA0188E090E00E94283660E08DE017
:1039400090E00E94163640E050E0BA0188E190E035
:103950000E94283660E087E190E00E94163640E041
:1039600050E0BA018CE190E00E94283670E060E0FF
:1039700080E290E00E94343640E050E0BA0188E1F5
:1039800090E00E94283680E00E941D100E94DD1801
:1039900040E050E0BA018FE090E00E94283640E01D
:1039A00050E0BA0183E190E00E9428360895A7E034
:1039B000B0E0EDEDFCE10C948B357C01DC0113965D
:1039C0004D915C91149711966C9111978C910E9476
:1039D000D0068111ECC061E0C7010E94720F8C011A
:1039E000F70182818823E1F08091190590911A05F1
:1039F0000097B1F00817190799F0FEE08F9FC001FA
:103A00001124FC01E553FD4F2081246020838A535B
:103A10009D4FDC010D931C930E943C1410925B059A
:103A2000F7018281882309F42AC7C80182519F4582
:103A3000409708F018C78FEF93E00E94F835811186
:103A4000A6C07EEED72ED00E0BEB12E0D11036C002
:103A500019821A821B821C8299249A9468012FEF82
:103A6000C21AD20AC8010E94F83589831A828823B3
:103A700009F48DC0813009F07FC0580132E0A30EF7
:103A8000B11CC6010E94F835C82E8A83882309F428
:103A90007EC0C5010E94F835D82E8FEF8C0D833083
:103AA000D8F4580143E0A40EB11CDB82DD2021F0E4
:103AB000CE0101960E94DA1A8501D0CF0115F4E0FB
:103AC0001F0709F464C0C8010E94F835811101C0C4
:103AD000DA940F5F1F4FBACF8BEF8C0D833030F528
:103AE000C8010396DB825C01DD2031F3580154E00C
:103AF000A50EB11C0E94F8358C838823E9F28B81D6
:103B00009C818130AFEF9A0710F0982F8827B6E09C
:103B1000CB1631F0E7E0CE1631F00E94792BCCCFF6
:103B20000E94532BC9CF0E94DA2AC6CFF4E0CF12ED
:103B3000C3CF580124E0A20EB11CC80103960E9415
:103B4000F835DD2021F1882311F18150990B989EE1
:103B50009001999E300D11244D2D4150550BCA01F5
:103B6000820F931F019708F4A7CFAFE9BFE0119729
:103B7000F1F700C00000F6CFCE0101960E94DA1ADC
:103B800056019ACF81E00E94EE140E94A414809105
:103B90003F02877061F0D70112968C91882339F02B
:103BA0008091270582FF03C082E00E94BD14279602
:103BB000E2E10C94A73581E00E94B014E6CF82E0E8
:103BC000FBCF823009F099C68091C0029091C1026A
:103BD000892B09F492C62EE02C9DC0012D9D900DDD
:103BE0001124FC01E553FD4F20812E7F20838A5351
:103BF0009D4F0E943C1481C681E080930001C7CF95
:103C000080910001882309F41DC5480120EE821A25
:103C10009108409062028091DE01482A809115044B
:103C2000482A38E08316910408F086C0980127706E
:103C3000332781E090E001C0880F2A95EAF75520EC
:103C400009F477C0482AD7018D919C910E94E30C1A
:103C500021E030E0F90102C0EE0FFF1F8A95E2F784
:103C6000FF83EE8320901705309018056090DC01EB
:103C70007090DD011D822D81E22FF0E0EE0FFF1F1D
:103C8000E957FC4FC080D180C114D10409F43EC56E
:103C9000411005C0D60112968C91811189C0F601A0
:103CA000838190E02E813F8182239323892B09F425
:103CB0007FC08085982F977009F487E038E08316DD
:103CC000910408F053C0552009F44CC086958170CA
:103CD000882309F46DC0D601AD90BC900A151B0570
:103CE00019F4552009F464C0C214D30409F460C067
:103CF000D6011D96ED91FC91309721F080818823AB
:103D000009F456C0642DC6010E94B006882309F448
:103D10004FC00A151B0509F00FC60115110509F45E
:103D200010C6511010C6A614B70409F041C0512C9A
:103D30000AC68095482287CF552009F4D0C4109335
:103D4000DD010093DC010E94D90560930E0570939C
:103D50000F0580931005909311051092160510928F
:103D6000150571CF82FB882780F9B2CF552001F16C
:103D70008170AECF0E949B1904C60497813A9105C9
:103D800058F46A2D8CEB91E00E94F105552009F45E
:103D900059C40E94B013FBCE0E94B0138FE39CE97C
:103DA0000197F1F700C000008A2D0E944B1AEECF58
:103DB0009D819F5F9D835FCFFC0120813181021730
:103DC000130709F038C4511038C41092140580E06C
:103DD0000E94CD1937C4902F812F7CC4F9018581B1
:103DE00081FFA8C4C9010E942214A4C480911F01AC
:103DF000816080931F01CCC480911F018E7F8093CE
:103E00001F010E946414C4C480911F018F7E013E73
:103E1000110531F0053E1105C9F480911F018F7D18
:103E200080931F0180911F0180FFC1C4D7011296AA
:103E30008C910832110528F50E31110508F072C079
:103E40000430110580F58111AEC4B1C4C80190568B
:103E5000811540E2940720F0905E8115904110F7A3
:103E600080911F0182FFA3C48091530481FD9FC4F0
:103E70002CE732E040E0B60190E080E00E94A81B11
:103E800096C40933110558F40D32110518F40B329C
:103E90001105C9F69091510492FDD5CF08C00436A2
:103EA0001105C1F3D0CF9091510494FDCCCF88235C
:103EB00009F4A8C08091620290911504892B8D7F2E
:103EC000B1F110925D0410925C048091510481FD67
:103ED0002EC0F80143E0F695E7954A95E1F7EE71BB
:103EE000FF27EA5EFB4F98012F70332781E090E0B7
:103EF00002C0880F991F2A95E2F78095909520813E
:103F00003181822393239183808360E0C8010E94E2
:103F1000931B809162028D7F0E94450C82E00E947B
:103F2000BD1435CE9091510493FD8DCFC0CF88E064
:103F3000F701ACE7B2E001900D928A95E1F710929B
:103F40007E021092800210927F0280915C04909118
:103F50005D0408171907D1F52091510425FF36C0DB
:103F600030911F0131FF02C026FF30C020915A045A
:103F700030915B045601A21AB30AB7010E9458108F
:103F8000A816B90618F58091150481FF08C0809124
:103F90001F01806180931F0182E00E94600C80916C
:103FA000150485FF08C080911F01806280931F0166
:103FB00080E20E94600C60911F01669561708091A3
:103FC0005C0490915D040E94931BE1CD809162029C
:103FD00090911504982B20911F0191FB21F92093BA
:103FE0001F018D7F0E94450C10935D0400935C04BB
:103FF000D0925B04C0925A0480911F018460809328
:104000001F018CCF970140E0B601C8010E94A81B98
:10401000BECD4FE458E06DE578E0073CBCE51B07FA
:10402000E9F146E758E06BE678E0083CECE51E076E
:10403000A8F14DE558E06FE478E030C00D3CFCE5B8
:104040001F0709F442C070F444E058E062E178E0F0
:104050000B3C3CE5130711F198F142E158E064E0B4
:1040600078E01CC0063D5CE5150708F490CD0D35E1
:10407000100709F48CCDBCC38091A50291E089277B
:104080008093A502109212018091A4028160809316
:10409000A4027DCD40E958E06BE978E00E94E70793
:1040A00076CD4BE958E060E978E0F8CF4BE658E090
:1040B00066E778E0F3CF43E358E061E478E0EECFE1
:1040C00041E458E063E378E0E9CF61E081E00E94F9
:1040D00081085DCD0A359DE5190771F158F4011588
:1040E000BCE51B0791F00E3D1C4509F081C30E9401
:1040F0006C1C09C00C35FDE51F07A1F0F8F0073A6C
:104100001D4509F075C30E9466190E9416154FEFF0
:1041100054E38CE0415050408040E1F700C0000083
:104120000E942F0E8091270582FB882780F991E05D
:1041300089270E94D9145CC381E0FBCF80E0F9CFCE
:10414000828100811181882369F0C8010E94F60EE6
:10415000D82E682FC8010E94170DB8018D2D0E941E
:10416000D90E4CC3C8010E94E30CD82EF6CF202FE5
:104170002F70B22E802F807F19F0B29490EFB92269
:10418000DD20A9F0BB2059F080E2810F883010F0CB
:10419000111107C08B2D0E94670C0E94B013812F54
:1041A0005AC080915B05B82AB0925B05F6CF812F8B
:1041B0000E949B19BB2009F450C080E2810F883017
:1041C00010F0111104C08B2D0E94600C03C08B2DC8
:1041D0000E94590C0E94B01340C0302F3F70B32E84
:1041E000802F807F803219F0B29480EFB8221123A3
:1041F00021F1113009F4AEC0DD2009F4B7C0CC20A4
:1042000009F47FC020E0D7014C9111965C91119781
:1042100012966C91129713967C91139714968C9129
:104220000E944F0F8091530481FDB9CFF701858122
:1042300080FFB5CF8F70858364C08091270582FD94
:1042400040C0DD20C1F1BB2029F08B2D0E94670CFE
:104250000E94B01380E00E944B1AA92DA850BB0BFE
:10426000149710F40E945206812F902F0E944E0D39
:104270008111C2C11092E0011092DF01AA20B1F0B9
:1042800080913F0280FD12C0D70112961C92859545
:10429000859585950E94EE14C7010E94D71C8091D8
:1042A0003F028595859585950E94B01460E0C70111
:1042B0000E94720F7CCC80E00E949B19BB2069F2A7
:1042C00082CFDD2011F1C11004C0809162028B29E0
:1042D00019C041E0C41206C0809162028B290E947D
:1042E000450CBBCF80915204823078F3C812EDCFD9
:1042F0000E943A0C9091DE018B2D892B89138093BB
:10430000DE018B2D0E949419A8CFC11003C00E941A
:104310003A0C17C08091520451E0C51216C0823089
:1043200008F49BCF809115048B2109F496CF0E944D
:104330003A0C9091DE018B2D80958923891380930F
:10434000DE018B2D0E948D1988CF823000F3C812B8
:10435000DECF83CF80915804DD2021F08C1508F446
:104360007CCFCFCFC81608F078CFEBCFCC2049F365
:104370008091560490915704193321F08091540490
:10438000909155040E94530E812F0E949B1965CF76
:10439000802F86958695837069F0813009F05DCF16
:1043A000812F902F9370D11002C090E080E00E9486
:1043B000260653CF812F902F9370D11002C090E02A
:1043C00080E00E943C0649CF812FDD2029F00E9429
:1043D000E8090E94A60841CF0E94CD08FACF802F9D
:1043E000837091F5D11039CF412F42954695477092
:1043F000440F440F812F8F70042E01C0880F0A9440
:10440000EAF7212F207114FF07C02FE030E001C030
:10441000220F4A95EAF72095302F3695369533705E
:10442000323069F050F440916302313029F0822B30
:1044300084230E94111511CF842B822BFACF282BB5
:10444000809163028227F5CF8695DD2011F0802FC1
:104450008170882309F401CF412F4295469547701A
:10446000440F440F812F8F70042E01C0880F0A94CF
:10447000EAF7212F207114FF07C02FE030E001C0C0
:10448000220F4A95EAF72095302F369536953370EE
:10449000323069F050F440915A05313029F0822BC6
:1044A00084230E949F14D9CE842B822BFACF282BF1
:1044B00080915A058227F5CFF02FFF70BF2EDD20A7
:1044C00029F08F2F0E94EE14812F1CCF812F0E9484
:1044D0008D198B2D0E94B014C0CE123F89F160F46B
:1044E000103FB9F0113F81F0DD2009F480C0C11008
:1044F00056CE802F8F7128C0133F49F1143FA1F78A
:104500008091270582FD2FC0802F8F71DD2011F350
:104510001BC080915804DD2079F0C81608F09DCEAC
:10452000202F2F7181E090E001C0880F2A95EAF7D3
:1045300090915A058927B5CF8C1508F48ECEF0CF0F
:10454000802F8F71D110C6CF0E94EE1486CE80E0EE
:10455000DD2009F4A6CF81E0902F9F7101C0880F64
:104560009A95EAF79ECF80915204823040F1DD2087
:10457000D1F090913F029770943041F40E946D0CFD
:10458000802F8F710E94B014A12C67CEC816E0F75F
:10459000202F2F71B22E822F0E94EE1463E08B2DFC
:1045A0000E94FA14F1CFC81630F00E946D0C64E03E
:1045B000802F8F71F5CF81E00E94BD14E5CFDD2003
:1045C00059F0302F3F71B32E832F0E94EE1463E019
:1045D0008B2D0E94FA1441CE81E00E94BD1441E06F
:1045E0004C1508F03ACE82E00E94BD1436CEC110C0
:1045F000BFCE802F8F716ECFDD2019F0C1103ACE63
:104600003DCEC11037CE20E0F7014081518162815B
:10461000738184810E944F0F8091530483FF2ACEBF
:104620008091DF019091E001029709F023CE812F64
:104630000E94B81A1FCE552029F0DC0118968C91E3
:1046400085FFC5CBC80197558F3F910511F008F044
:1046500071C05801BB24BEE00B9FF00111249F01E3
:104660002A533D4F6901D70112968C91E553FD4FB6
:10467000908180FB90F99083882309F4AFCB0E944E
:10468000E50590937B0280937A02F60182818F5F29
:10469000828380915B0590911504892B838380919F
:1046A000620284830680F781E02D309731F0D601D5
:1046B0001C966D917C91C60109958EE08A9DF00152
:1046C0008B9DF00D1124EA53FD4F858181FF83CB33
:1046D00090E080E09093190580931A052BC080919B
:1046E000DC019091DD010817190781F41092DD01BA
:1046F0001092DC0110920E0510920F051092100519
:10470000109211051092160510921505809117054B
:1047100090911805009709F495CFA8E08A169104A6
:1047200008F04ACB642D0E94B006811103C081E0DD
:104730000E94CD198091510480FF39C00E94E50587
:104740006C01D70112968C91882309F45DCB80917E
:104750001F0182FF08C02CE732E040E0B60190E084
:1047600080E00E94A81B0B31BCE51B0709F43ECB7F
:104770000C31ECE51E0709F43FCB90911F01892F06
:104780008E7F90FF81600A31FCE51F0709F437CB6B
:10479000C8019056811520E2920728F0905E81159D
:1047A000904108F03FCB10925D0410925C04F70139
:1047B000828181118FCC809115048272093CFCE5C5
:1047C0001F0709F478CC08F039CC053C3CE5130709
:1047D00009F46CCC08F01DCC033C5CE5150709F42A
:1047E00059CC08F05ECC023CACE51A0709F444CC85
:1047F000F70186819781009709F4A2CC0E94AC0A48
:10480000182F092FF701D280C580C2943FE0C32240
:1048100080913F028770C1F0AD2CDD20B1F0892F6F
:10482000807F803421F080E2810F883068F08091B1
:10483000270582FF09C082E00E94BD1480913F02DB
:104840008770AA24A3948111A12C902E92942FE01A
:104850009222FBE0F91508F400CDE92DF0E0E25AD0
:10486000F94C0C947E350031FFE51F0709F48AC925
:1048700001312FE5120709F040C082E084C9003100
:104880003FE5130709F497C901314FE5140709F40F
:1048900096C96801E7E5DE1AFFEFCF16D10409F0EB
:1048A00060F56CEB72E08C2D0E944410892B29F589
:1048B0008EE08C9DF0018D9DF00D1124EA53FD4F8B
:1048C0008281813009F07DC98091BC029091BD0246
:1048D000892B99F08091BE029091BF02892B69F0DB
:1048E0008091C0029091C1022091C2023091C30216
:1048F000822B932B892B09F46EC9D70112965C90F9
:10490000552009F47DC90F35BDE51B0709F474C9AD
:104910000036EDE51E0751F00E35FDE51F0709F0E5
:104920006FC980910001882309F466C910920001C3
:1049300080E00E94CD192BC9A114B10409F0F3C97C
:10494000512CB12CA12C80E00E94CD19D0921805D9
:10495000C092170581E080931405F601858180934C
:10496000120551100EC0AB2861F0F60180819181D3
:104970009C0124503109213A310508F0FBC90E94FD
:104980008E0CD6011696AD90BC90C5019A958115F6
:104990009F4110F4E0EEBE2277247394C501019785
:1049A000803B9D4508F0712CD6011996ED91FC9144
:1049B0001A97309731F01B966D917C9181E00995A3
:1049C0007822772079F0F601868197810E94690D1F
:1049D00080931305C501F8E08F16910408F0CDC946
:1049E0000E945F060E94B013D1C9B0E0A0E0EBEFD7
:1049F000F4E20C9495358091F801807F31F4809138
:104A0000F501C0913C02811107C0CDB7DEB7E8E0E7
:104A10000C94B1352196C7708091FB018C17A9F3D6
:104A2000F090F301E090F401C090F601D090F7010E
:104A3000A6016E2D8F2D0E94D006D0E08111EACF05
:104A40008E0183E0000F111F8A95E1F7F801E45011
:104A5000FE4F81818E11DECF80818F11DBCF82816D
:104A60008111D8CFE380F480EC18FD0860E083EF7B
:104A700091E00E94720F63EF71E00E945810E816F7
:104A8000F90640F68091F8018F7080618093F801FB
:104A9000F801EF5FFD4F80818F708061808383EF2D
:104AA00091E00E94D71C0E94D90CAFCFA5E1B0E0E5
:104AB000ECE5F5E20C948E358C0185E0F801DE0121
:104AC000519601900D928A95E1F7D8015C9011966C
:104AD0006C9011971296EC9012971396CD90DC90F3
:104AE00060E083EF91E00E94720F83EFA82E81E0D7
:104AF000B82E8090F6019090F701A4016091F40126
:104B00008091F3010E94D0068111A8C1F090F501B7
:104B1000F601E819F9094F0160E0FF2009F44BC1E3
:104B2000C5010E94720FB5010E9458107090F801E3
:104B30008816990608F0F2C04091F6015091F701ED
:104B4000B090F301A090F401872D807F6A2D09F0C9
:104B50008CC08B2D0E94D006FE2C811127C0D8015D
:104B600011968C9111978A1121C08C918B111EC0C6
:104B70002091F9013091FA0116968D919C91281798
:104B80003907A1F4E11012C0872D8F7080618093E6
:104B9000F80183EF91E00E94D71C8091F801F801A1
:104BA00085838F2D6596EFE00C94AA35A601662DBE
:104BB000852D0E94D006D82E81E08E25D11080E070
:104BC00080FF18C04E2D662D852D0E94B90C8823BC
:104BD00089F08091530480FF0DC083EF91E00E9423
:104BE000D71C88E0E3EFF1E0DF011D928A95E9F739
:104BF000F12CD7CF81E08E25D11080E0B82FB17095
:104C0000CB2E80FF29C04E2D662D852D0E94B90C1C
:104C1000D82E811121C0598A6A8A89899A890E946D
:104C2000250F292F22952F70223050F0243078F450
:104C30009F7051F0F8019581907F31F4FD2CB1CF38
:104C40009F7011F08823D1F3805E8830B8F3C801DB
:104C50000E94D71CDC2CF2CFEE2009F4A2CF809169
:104C6000F80181608093F801C3CF8B2D0E94D0069C
:104C7000811124C0D80111968C9111978A111EC000
:104C80008C918B111BC02091F9013091FA0116967D
:104C90008D919C9117972817390781F4E1100EC068
:104CA00015967C92C8010E94D71C88E0F801A3EFFA
:104CB000B1E001900D928A95E1F773CFC8010E948F
:104CC000320F882339F1EE2029F18091F8018032EA
:104CD000A0F02091F3013091F4013A8729871B86D7
:104CE000DD86CC868E878091F9019091FA01988BB0
:104CF0008F87CE0109960E94D71C88E0F801A3EFA8
:104D0000B1E001900D928A95E1F70E94F524FF240D
:104D1000F39447CFC8010E94D71CF9CF872D807F1D
:104D200009F45BCF9090F3018090F4014091F6017B
:104D30005091F701682D892D0E94D00681111CC069
:104D4000F8018181881118C08081891115C02091D6
:104D5000F9013091FA01868197812817390761F4AA
:104D6000E1100AC07582C8010E94D71C88E0D501F5
:104D70001D928A95E9F715CFC8010E94320F88234A
:104D800049F2EE2039F28091F801803208F4B5CF73
:104D90002091F3013091F4013A8329831B82DD8253
:104DA000CC828E838091F9019091FA0198878F834C
:104DB000CE010196A0CF83EF91E00E94720F63EFC6
:104DC00071E00E9458108816990680F6FE2CEE209D
:104DD00009F4A0CFE090F301D090F4014091F601E6
:104DE0005091F7016D2D8E2D0E94D006811128C0A3
:104DF000F80181818D1124C080818E1121C0209104
:104E0000F9013091FA018681978128173907C1F499
:104E10008091530482FD49CF9091F80190FD45CFD8
:104E2000907F09F442CF8091F8018583903F09F487
:104E300039CF982F907F905F8F70892B858332CFE9
:104E4000C8010E94320F811158CF8091F801816012
:104E50008093F801C8010E94D71CA3CEEE2009F46C
:104E600059CFC8010E94320FF82E882309F452CF7F
:104E700088E0F801A3EFB1E001900D928A95E1F787
:104E80008091F3019091F4010E94250F0E94F52476
:104E900088CEA0E1B0E0EFE4F7E20C949B352987DF
:104EA0003A874B875C876D877E878F87988BCE018B
:104EB00009960E94562581112FC088E0FE0139967F
:104EC000DE01119601900D928A95E1F74C855D8582
:104ED0006A8589850E94D00681111EC0A091FB01C0
:104EE000B0E0CD0101968770992720913C022817E8
:104EF0001906E1F093E0AA0FBB1F9A95E1F7A450C1
:104F0000BE4F98E0FE01319601900D929A95E1F71F
:104F10008093FB010E94D90C80913C029091FB018F
:104F2000891312C06096E2E00C94B7350E94161502
:104F30001092FB0110923C0288E0E3EFF1E0DF0108
:104F40001D928A95E9F7E8CFB8E08B9FC001112444
:104F500084509E4F0E945625882321F380913C0265
:104F600090E001968770992780933C02D5CFEF920D
:104F7000FF920F931F93CF93DF9380916104882357
:104F800061F0C09160048CE0F82E80916104C81734
:104F900048F01092610410926004CDB7DEB7E6E0ED
:104FA0000C94B335EE24E394EC0EE09260040C2FE5
:104FB00010E0CF9DE0011124CE59DB4F4B815C8185
:104FC000698188810E94D00681111DC08E819F81D8
:104FD000892B21F488859985019651F4288139819E
:104FE0004A815B816C817D818E819F810E944927EE
:104FF000F09EF001F19EF00D1124EE59FB4F14824A
:10500000138210925B05CE2DC0CF10920505109231
:1050100004051092200180910305809302050E94EF
:1050200009070E94B7270895B0E0A0E0EAE1F8E29E
:105030000C948C35C091020597E0892E01E010E0B8
:105040002CE0322E3EEF932E4424439480910305AE
:105050008C1309C00E94B7270E940907CDB7DEB79D
:10506000E1E10C94A835D0E0FE01EE0FFF1FE65001
:10507000FB4F80819181889ED001899EB00D1124C3
:10508000AE53BB4F14962C911497211158C05090D9
:105090006104E2E6F4E030E020E0712C5D012515CA
:1050A00008F04BC0E284F384D501CD90DC906FEF23
:1050B0007FEF612C462D50E0DA01AA0FBB1FAC0D2B
:1050C000BD1D0D90BC91A02D109731F0EA16FB0686
:1050D00009F4BA016394EECF6F3F7607A9F1D801C6
:1050E00002C0AA0FBB1F6A95E2F77A2AB801062C04
:1050F00002C0660F771F0A94E2F7AB0141505109D5
:1051000074161506F9F4329EF001339EF00D112449
:10511000EE59FB4F889ED001899EB00D1124AE53ED
:10512000BB4F12962D913C91139737832683908223
:1051300091829187808715964C920E94DB0621967A
:10514000C37084CF148213822F5F3F4F3C96A7CF4A
:10515000A9E1B0E0EEEAF8E20C948B35942F498B8C
:10516000252F5A8B6B8B7C8B8D8B4C895D89622FA5
:10517000892F0E94D006811109C08091DF01909192
:10518000E00101969093E0018093DF018B8981110A
:1051900010925B051D861E861F86188A85E0FE011B
:1051A0007196DE01199601900D928A95E1F7809132
:1051B000270582FF1EC08091380490913904892B05
:1051C000C1F00E94E50520913D0230913E02821B14
:1051D000930B20913804309139048217930720F003
:1051E00080913F0282FFE2C10E94740C81110E94F3
:1051F0003A0C4C855D856A8589850E94D0068111AF
:1052000011C061E0CE0109960E94720F6C018B857E
:1052100027EFC2162CE5D20681F4882321F181E024
:105220008093200129853A854B855C856D857E8537
:105230008F8598890E944927C6C038EFC3163CE580
:10524000D30629F4882379F00E940528EBCF49EF93
:10525000C4164CE5D40639F4882329F08091200146
:105260008111F2CFDCCF02EC14E0512CB12CA12C37
:1052700022242394312C2EEF422EF80140815181BB
:1052800088248A94982C20E0822F90E0FC01EE0F75
:10529000FF1FE40FF51F608171816115710531F009
:1052A000C616D70609F44C012F5FEECFF12CFFEFA5
:1052B0008F169F0609F449C0F8014481F09020013F
:1052C0008F2D411180E0F82FF170FF2EF801E5805D
:1052D00086819B85992309F4F8C0FF2009F4F5C065
:1052E00060904C0470904D04E11013C0A101082C93
:1052F00001C0440F0A94EAF7842B868380915E04F0
:1053000090915F048615970520F470925F04609277
:105310005E04C10102C0880F991F2A95E2F7019728
:10532000F80126812817190681F4809104059091CF
:105330000505009709F44BC00E94CA056816790656
:1053400008F045C021E0F80124835F28FFEFAF1A81
:10535000BF0A095F1F4F28E0A216B10409F08DCFE4
:105360008B85882309F40DC1552009F40AC10E94D8
:10537000E5059093050580930405809161048830CC
:1053800010F591E0980F9093610498E0FE01399632
:10539000DE01119601900D929A95E1F73CE0839F12
:1053A000C00111248E599B4F28E0FE013196DC018B
:1053B00001900D922A95E1F72FEF3FEFFC01318725
:1053C0002087D386C2866996E2E10C94A735809146
:1053D000020550910305982FF0E0E0E0851314C01A
:1053E00090930205E017F10709F4AFCF90E0FC01BC
:1053F000EE0FFF1FE650FB4FB182A0820196837033
:10540000992780930305A1CF682E712CF301EE0F2D
:10541000FF1FE650FB4F2081318147E0429FD001C2
:10542000439FB00D1124AE53BB4F6D917C911197EA
:10543000798F688F40E020E030E0E32FF0E0EE0F5E
:10544000FF1F688D798DE60FF71F80809180811492
:105450009104E1F0F8010190F081E02DFF8BEE8BDB
:1054600020E005C08616970609F44F2D2F5FE22F26
:10547000F0E0EE0FFF1F6E897F89E60FF71F608156
:1054800071816115710571F73F5FD7CF4423D1F06A
:10549000F801231708F0FD0121E024830E171F07F0
:1054A00021F490930205F42E50CF981305C0AE1747
:1054B000BF0711F49F5F937093012F5F3F4F822FBF
:1054C00083708CCFF0E0E0E0F7CF90E0E11020C0F7
:1054D000B10102C0660F771F2A95E2F79B012150A8
:1054E00031098217930731F4442309F448C0C501F8
:1054F0000E94DB06C101082C01C0880F0A94EAF75C
:10550000982F9095F801868189238683FE2C1DCFE4
:105510009C01082C02C0359527950A94E2F7A90151
:1055200041705527BC016150710986239723892B4F
:1055300011F5452B01F1F80182819381892BC1F08E
:105540001B821C821D821E8249824A820E94E505BE
:105550008160582F9D838C83F801828193818F8392
:10556000988729813A814B816D817E810E944927EC
:10557000F8011582BFCFF22FF170EF2EBBCFEF2CC9
:10558000B9CF9091020580910305981731F00E94E0
:105590001428552009F446CE16CF0E94B727109242
:1055A0000505109204050E940907F3CF82E00E94CE
:1055B000BD141ACEA5E0B0E0E0EEFAE20C949B3503
:1055C0009093120480931104811520E2920730F425
:1055D0000E94331A2596E2E00C94B73580EF898358
:1055E0008A831B820E94E5058160782F9D838C83CE
:1055F00049815A816B818D810E94A828EBCF0F933E
:105600001F93CF93DF938C01EB016CEB72E08C2F37
:105610000E944410892BA1F4809154049091550468
:105620000E94530EDD27CC54DD4F8881F801128291
:1056300018828330F1F048F4813059F0823081F0E3
:10564000DF91CF911F910F9108958430B9F085308B
:10565000B9F78091BC029091BD02009789F306C012
:105660008091BE029091BF02009799F30E94DA2ABE
:10567000E7CF8091C0029091C102F6CF8091C20223
:105680009091C302009791F72091BC023091BD0226
:105690008091BE029091BF0221153105F1F2009771
:1056A00029F7C901E3CFA5E0B0E0E9E5FBE20C94FE
:1056B0009B359093120480931104811520E2920788
:1056C00030F40E947B1B2596E2E00C94B73580EF06
:1056D00089838A8381E08B830E94E5058160782F2E
:1056E0009D838C8349815A816B818D810E94A8287A
:1056F000EACFCF93DF93EC010E94532B80915404A7
:10570000909155040E94530ECE010E94DA2ADF9137
:10571000CF9108950F931F93CF93DF938C01862F22
:105720006CEB72E00E944410892BB1F4C091BC0272
:10573000D091BD02209781F0F8018281833051F42D
:10574000CE010E94792BCE010E94792BCE010E94BE
:10575000792B02C08430D0F7DF91CF911F910F9148
:1057600008950F931F93CF93DF938C01EB016CEBA4
:1057700072E08C2F0E944410892B09F05CC0FE015E
:10578000FF27D80112968C911297EC54FD4F81306F
:10579000B9F415969C9192FF02C080830AC090FFD5
:1057A000FCCF82E080838091BE029091BF0200977F
:1057B000B9F48091BC029091BD020097E1F110C054
:1057C0008230B9F515968C9182FD28C080FD0BC002
:1057D00083E080838091C0029091C102009701F123
:1057E0000E94532B28C084E080838091C202909154
:1057F000C3020097A9F78091BC029091BD02009767
:10580000F9F00E94792B8091BE029091BF0200971F
:1058100039F78091BC029091BD02E2CF85E0808390
:105820008091BC029091BD02009729F00E94792BD3
:10583000F0CF86E08083DF91CF911F910F91089583
:105840008091BE029091BF02B8CF1F920F920FB607
:105850000F9211242F933F934F935F936F937F93F6
:105860008F939F93AF93BF93CF93DF93EF93FF9368
:10587000D091E900DF708091EC00C82FC17080FDED
:10588000C0E81092E9008091F000877F8093F000DB
:1058900078940E942C151092E9008091F0008860A5
:1058A0008093F000CD2BCF70C093E900FF91EF9172
:1058B000DF91CF91BF91AF919F918F917F916F9128
:1058C0005F914F913F912F910F900FBE0F901F90BE
:1058D00018951F920F920FB60F9211242F933F939A
:1058E0004F935F936F937F938F939F93AF93BF93E8
:1058F000EF93FF938091E10082FF09C08091E20065
:1059000082FF05C08091E1008B7F8093E100809150
:10591000DA0080FF24C08091D80080FF20C08091F1
:10592000DA008E7F8093DA008091D90080FF9DC0DD
:1059300080E189BD82E189BD09B400FEFDCF81E02F
:105940008093500580912B05811109C00E9442046B
:105950000E940D058091E20084608093E2008091B6
:10596000E10080FF17C08091E20080FF13C08091AA
:10597000E2008E7F8093E2008091E200806180935C
:10598000E2008091D80080628093D80019BC85E045
:10599000809350058091E10084FF2BC08091E2004C
:1059A00084FF27C080E189BD82E189BD89B5982F38
:1059B000917080FFFBCF8091D8008F7D8093D800BD
:1059C0008091E1008F7E8093E1008091E2008F7EE4
:1059D0008093E2008091E20081608093E2008091F8
:1059E0005105882309F447C084E0809350058091D5
:1059F00050058091E10083FF27C08091E20083FF82
:105A000023C08091E100877F8093E10082E0809352
:105A10005005109251058091E1008E7F8093E10046
:105A20008091E2008E7F8093E2008091E2008061AD
:105A30008093E20042E060E080E00E94DB0480911D
:105A4000F00088608093F000FF91EF91BF91AF91DB
:105A50009F918F917F916F915F914F913F912F9186
:105A60000F900FBE0F901F90189519BC1092500503
:105A700010922B0574CF8091E30087FD93E0909303
:105A80005005B5CF78941F921FB61F9211248F93A3
:105A90009F93AF93BF938091220590912305A0918E
:105AA0002405B09125050196A11DB11D8093220505
:105AB00090932305A0932405B0932505BF91AF9142
:105AC0009F918F911F901FBE1F9018951F921FB618
:105AD0001F9211248F939F93AF93BF9380912105C1
