:100000000C94DF020C9417030C9417030C945A34CD
:100010000C9417030C9417030C9417030C941703F8
:100020000C9417030C9417030C94212B0C94DD2AC9
:100030000C941E2C0C9417030C9417030C941703A8
:100040000C9417030C9417030C9417030C941703C8
:100050000C9417030C94FA2B0C9417030C941703AD
:100060000C9417030C9417030C9417030C941703A8
:100070000C9417030C9417030C9417030C94170398
:100080000C9417030C9417030C9417030C94170388
:100090000C9417030C9417030C9417030C94170378
:1000A0000C9417030C9417030C9417030501098093
:1000B000A101850319012AB700150126B700950192
:1000C00075108100C0050C0901A101850419012AE0
:1000D000A002150126A002950175108100C005013E
:1000E0000906A1018506050719E029E71500250184
:1000F0009508750181020507190029EF15002501F2
:1001000095F075018102050819012905950575010C
:100110009102950175039101C00660FF0961A1017B
:100120000962150026FF00952075088102096315F4
:100130000026FF00952075089102C005010906A15F
:1001400001050719E029E7150025019508750181CA
:10015000029501750881010507190029FF15002680
:10016000FF00950675088100050819012905950508
:1001700075019102950175039101C0FD377A585AB6
:10018000000004E6D6B44602002101160000007407
:100190002FE5A3E0016D009F5D003D888986D3DCDB
:1001A0000AE842C3249258425AFA4B42162C5F5432
:1001B0002BA3199BCDF09E3ED52B7388208A270256
:1001C000C28DB956A604C979CA6824B52A6AE9D588
:1001D000772AD313E8DD0885248A9DB35B02566B2A
:1001E00038FBC09B423623115D513D855FB2F07BE9
:1001F000201D6E4F48C005EE3FE291E9B8396BCB48
:10020000AA774237467D780F16E8AE18606C462D07
:10021000AA006021890C869DF93BA5A972C1EE63F5
:1002200051BB9D031D73D35829109BD7AFCB2AF523
:10023000BA4F15F9A14E9CDD000000E89C0243A7CF
:10024000FFF4050001BB01EE020000BEFC1CBBB1C7
:10025000C467FB020000000004595A0000000002BD
:10026000000100060002000D000300190004001F39
:10027000000500000101010101010101010202026A
:100280000202020202020303030303030303040442
:10029000040404040405050505050606060606070C
:1002A0000707070708080808090909090A0A0A0BC5
:1002B0000B0B0C0C0C0D0D0D0E0E0E0F0F0F101066
:1002C00011111112121313141415151616171718ED
:1002D0001819191A1A1B1B1C1D1D1E1E1F20202158
:1002E0002222232424252626272829292A2B2C2D9F
:1002F0002D2E2F30313232333435363738393A3BC0
:100300003C3D3E3F404142434445464748494A4CB4
:100310004D4E4F50515354555658595A5B5D5E5F80
:10032000616264656668696B6C6D6F707273757716
:10033000787A7B7D7E8082838587888A8C8E8F9178
:10034000939596989A9C9EA0A2A3A5A7A9ABADAFA2
:10035000B1B3B5B7BABCBEC0C2C4C6C9CBCDCFD18C
:10036000D4D6D8DBDDDFE2E4E7E9EBEEF0F3F5F835
:10037000FAFDFF0000000000000000000000000087
:10038000000000000000000000000000000000006D
:10039000000000000000000000000000000000005D
:1003A000000000000000000000000000000000004D
:1003B000000000000000000000000000000000003D
:1003C0000000000100010035056C0D9F0D000002CA
:1003D00000020031056C0D9F0D0000030001003686
:1003E000056C0D9F0D0000040002001B056C0D9FA5
:1003F0000DFA050500010037056C0D9F0D00000684
:100400000002001D056C0D9F0D0000070002003367
:10041000056C0D9F0D00000800010038056C0D9F54
:100420000D00001200020039056C0D9F0D00001335
:100430000002003B056C0D9F0D0000140001003D03
:10044000056C0D9F0D00001500000000008005CE1A
:1004500017000009025B00030100A0FA0904000074
:1004600001030101000921110100012240000705DB
:1004700081030800010904010002030000000921B2
:100480001101000122220007058203200001070557
:1004900003032000010904020001030000000921F8
:1004A00011010001226D00070584032000011201E3
:1004B0000002000000080100A1DF000101020301A9
:1004C0001C037600690061006C003A00660036008B
:1004D0003400630032006200330063000000160342
:1004E0005200680079006D006500730074006F00B1
:1004F0006E006500000012036D00610072006B0069
:10050000730061007200640000000403090400002D
:1005100000000000000000000000000000000000DB
:1005200000000000000000000000000000000000CB
:1005300000007E0F00D4FFFFFFC70000007800001E
:100540000000000000002A2B28000000000000002E
:1005500000000000000000000029000000002C1E28
:100560003420212224342627252E362D3738271EE5
:100570001F202122232425263333362E37381F040B
:1005800005060708090A0B0C0D0E0F1011121314A3
:1005900015161718191A1B1C1D2F3130232D350461
:1005A00005060708090A0B0C0D0E0F101112131483
:1005B00015161718191A1B1C1D2F3130354C112414
:1005C0001FBECFEFDAE0DEBFCDBF04B603FE18C01A
:1005D00080912E0690912F06A0913006B0913106A1
:1005E0008730904BA740B04B59F410922E061092D2
:1005F0002F061092300610923106E0E0F8E30995DC
:1006000026E0A4E4B2E001C01D92AE32B207E1F7E9
:1006100012E0A0E0B1E0EEEAFEE602C005900D9225
:10062000A434B107D9F70E94452C0C9431370C94AF
:100630000000FC01AC014C5F5F4F8FEF91E3219113
:10064000822728E030E087FF09C0880F89272150E2
:100650003109C9F7E417F50791F70895880FF7CF27
:10066000E8EDF0E080818E7F80831092E2001092AE
:10067000DA001092E100A0EEB0E08C9181608C93E2
:1006800080818F77808319BCA7EDB0E08C918E7F3D
:100690008C9380818F7E80831092FD050895209138
:1006A000E4003091E50095E6A9012091EC00822F4D
:1006B000817020FF06C08091E80080FF06C080E0C6
:1006C00008952091E80022FD1AC080912206882317
:1006D00089F0853089F08091EB0085FD0FC0209175
:1006E000E4003091E50042175307F9F29150E1F62A
:1006F00084E0089582E0089583E0089581E00895FC
:10070000EF92FF920F931F93CF937C018B010E9476
:100710004F03C82F811117C08091E80085FD0BC0E1
:100720008091E8008E778093E8000E944F03882331
:1007300099F3C82F08C0F70181917F018093F100E0
:100740000150110949F78C2FCF911F910F91FF9004
:10075000EF9008958091240687FF13C08091E800F0
:1007600082FF06C08091E8008B778093E80004C088
:10077000809122068111F2CF08958091220688236C
:10078000D9F38091E80080FFF8CF8091E8008E7760
:10079000ECCF982F9093E900242F762F50E0891703
:1007A00031F07091EC002091ED005091F00021FDAE
:1007B00007C09F5F973071F78093E90081E008954B
:1007C0003091EB003E7F3093EB003091ED003D7FA8
:1007D0003093ED003091EB0031603093EB0070937B
:1007E000EC002093ED005093F0002091EE0027FDE7
:1007F000E0CF80E00895B0E0A0E0E1E0F4E00C9408
:100800008035C8EDD0E088818F7E8883E7EDF0E009
:1008100080818160808384E082BF81E08093FD05D8
:1008200088818E7F888302EE10E0F801108210929A
:10083000DA0081EEC82ED12CF601108288818F77E4
:10084000888388818068888388818F7D888319BCAC
:100850001092220610922306109221061092200672
:1008600090EEE92EF12CF70180818B7F80838881C7
:100870008160888342E060E080E00E94C903F60165
:1008800080818E7F8083F801808181608083808178
:1008900088608083F70180818E7F8083888180617A
:1008A0008883CDB7DEB7E8E00C949C35FC018091DD
:1008B0002A0690912B0686179707A0F061157105FF
:1008C00029F49091E8009E779093E80090E06115FC
:1008D000710551F4911108C08091E80082FF34C085
:1008E00080E00895BC01F2CF809122068823C1F1F7
:1008F0008530C1F18091E80083FD30C08091E8002F
:1009000082FDEACF8091E80080FFE1CF8091F30083
:100910002091F200382F6115710519F0283031054A
:1009200058F091E02830310509F090E02091E8007E
:100930002E772093E800CBCF81918093F100615016
:1009400071092F5F3F4FE7CF80912206882341F046
:10095000853041F08091E80083FFBECF81E00895AB
:1009600082E0089583E00895089508958091FF0539
:1009700008959C014FB7F8948091F4059091F50586
:10098000A091F605B091F7054FBF821B930B089518
:100990002FB7F8946091F4057091F5058091F605F4
:1009A0009091F7052FBF08952FB7F8948091F40523
:1009B0009091F505A091F605B091F7052FBF089528
:1009C000209145012223C9F02091F80527FF15C089
:1009D000E62FE695E695E695EE31D8F4E80FF92F87
:1009E000F11D677021E030E001C0220F6A95EAF73F
:1009F00020958281282322830895FC01329608964F
:100A00002191621303C0DF0111971C92E817F907C7
:100A1000B9F708952091F1053091F20528173907AB
:100A200071F09093F2058093F105E091EF05F0915C
:100A3000F005309721F00084F185E02D09950895A7
:100A40002091ED053091EE052817390771F090934C
:100A5000EE058093ED05E091EF05F091F0053097FC
:100A600021F00680F781E02D09950895452B39F096
:100A7000682381E06F3F09F080E08170089581E094
:100A8000FCCFDC016091E7058091E805962F891382
:100A900001C00895292F30E0F901EE0FFF1FE15248
:100AA000FA4F408151814A175B07A1F487E08A9F82
:100AB000A0018B9F500D112449555A4F81E0FA0136
:100AC00084839613E6CF2F5F3F4F23703327209305
:100AD000E70508952F5F3F4F922F9370D8CF109264
:100AE000440510924305E7EAF5E08581811102C0D3
:100AF00014821682379685E0EF3DF807B1F7089526
:100B0000B0E0A0E0E6E8F5E00C947E358FEF9FEFD3
:100B10004430510508F469C04091F80541FB88272D
:100B200080F990E0880F991F42FB002700F910E040
:100B3000000F111F000F111F802B912B40FBCC24A5
:100B4000C0F8D12C8C299D2943FB222720F9C22FE4
:100B5000E0E0DE2F53E0CC0FDD1F5A95E1F78C2B40
:100B60009D2B44FBAA27A0F9B0E0E4E0AA0FBB1F2D
:100B7000EA95E1F78A2B9B2B45FBEE27E0F9F0E0A5
:100B8000A5E0EE0FFF1FAA95E1F78E2B9F2B46FBEA
:100B9000222720F930E0B6E0220F331FBA95E1F7A3
:100BA000822B932B47FB222720F930E03695322FFA
:100BB000222737952795822B932B2091F905322FE9
:100BC0003170F32EE82EF92A26952170B22EBB0C37
:100BD000A82EBF28C501BB0CAA0BBB0BFB01808351
:100BE0009183A283B38390E080E0CDB7DEB7EAE0E3
:100BF0000C949A3580911B0590911C0590934201AD
:100C0000809341010895E6E3F4E090E080E062E43F
:100C10007AE249E65AE227EB39E277836683518725
:100C20004087338722879587848701963E96883050
:100C3000910599F7089581152CE5920741F42091CB
:100C40003F0130914001232B11F490E080E00895A2
:100C5000FA01811101C0FB0109950895E6EAF3E06C
:100C6000248130E1231B08F420E024838091A50334
:100C700081608093A5030895E6EAF3E0248130E1E2
:100C8000230F08F42FEF24838091A50381608093C4
:100C9000A50308959091A603937071F08093A70324
:100CA0006093A803453608F044E64093A903809179
:100CB000A503822B8093A5030895E6EAF3E0438120
:100CC00020E1421B08F440E0818121E0628190E054
:100CD0000E944A060895E6EAF3E0438120E1420FCC
:100CE00008F44FEF818121E0628190E00E944A0682
:100CF0000895E6EAF3E0628120E1621B08F460E017
:100D0000818121E0438190E00E944A060895E6EA4D
:100D1000F3E0628120E1620F08F46FEF818121E04E
:100D2000438190E00E944A060895E6EAF3E081815B
:100D300021E0438162818850990B0E944A06089500
:100D4000E6EAF3E0818190E021E043816281089648
:100D50000E944A0608959091A603937061F0811154
:100D60000BC094609093A60310923E018091A5035E
:100D7000862B8093A5030895863010F09461F2CFFE
:100D8000880F880F982BEECF8091A60386958695C5
:100D9000815009F485E061E00E94AB0608958091DE
:100DA000A603869586958F5F863008F081E061E026
:100DB0000E94AB0608950E94380D0895FF920F938C
:100DC0001F93CF93DF93182F062FF42ED0E0C0E0AF
:100DD0002F2D402F612FCE010E94DB062196C832B5
:100DE000D105B1F7CDB7DEB7E5E00C949F3540955E
:100DF000282F429F412D1124842F089530E020E0B8
:100E0000869F212D969F200D311D1124C901089523
:100E1000AF92BF92CF92DF92FF920F931F93CF9327
:100E2000DF93362F472FE82FF0E0ED58FD4F71117B
:100E30000FC0E4918E2F2E2F6E2F722FDF91CF9146
:100E40001F910F91FF90DF90CF90BF90AF900895CA
:100E5000C72FD0E02491F22E022F10E056E0659FBC
:100E6000C0011124EFEFF0E0BF010E94AD35832FE8
:100E700090E0880F991F35E5369FD001379FB00D60
:100E800011248A1B9B0B982F990F980F6F01CC1A76
:100E9000DD0AC09ED001C19EB00DD09EB00D1124C0
:100EA0008B2F499FA0011124452F55276F01C41A8C
:100EB000D50AC09EA001C19E500DD09E500D112498
:100EC0005F01A91AB108AC9E6001AD9ED00CBC9E1A
:100ED000D00C1124CD2CDD24EC19FD09E09FE0019C
:100EE000E19FD00DF09FD00D1124ED2F62307105E0
:100EF000A1F050F46115710509F49ECF61307105C0
:100F000081F0EB2F852F98CF6430710569F080F068
:100F10006630710509F490CFF4CFE22F2B2F8D2F7F
:100F20008BCFE22F252F88CFEB2F822F2D2F84CF31
:100F30002B2F8F2DE52F80CF80E00895F894E82F98
:100F4000E295EF70F0E031A1282F2F7081E090E062
:100F500001C0880F2A95EAF7982F9095932391A3C3
:100F600092A1892B82A3789408959091F80592FF1D
:100F700006C0282F28712830F9F4877F846093FFFA
:100F800006C0282F28712831F1F4877E84612091D2
:100F9000F90520FF06C0382F38713830D9F4877F23
:100FA000816021FF06C0282F28712831D1F4877E67
:100FB000816194FD877E0895282F24712430F9F6ED
:100FC0008B7F8860DCCF282F2471243101F78B7E42
:100FD0008861DDCF382F3171313019F78E7F88600D
:100FE000E0CF282F2171213121F78E7E8861E1CF5A
:100FF000CF93DF93EC0182389105B1F108F040C046
:101000008133910509F49DC048F58932910509F4B1
:101010008DC08A9709F49CC0C11522E5D20708F05B
:10102000BDC0C11531E5D30708F025C1C83ED105C3
:1010300008F0A3C0C13ED10588F5C83AD10508F033
:101040008EC0C53AD10508F0F6C0C130D10531F1E6
:10105000209721F1C430D10508F545C085339105AD
:1010600009F45FC0C997C1F68091F805837009F053
:1010700037C18091F90583FF11C0C9E2D0E00EC0ED
:10108000833E910599F170F4803E910501F1823E15
:10109000910511F68091F80582FD21C0CE01DF9106
:1010A000CF910895863E910561F1873E910571F1DA
:1010B000843E910509F0B0CF8091F90581FFEECF14
:1010C0008091F805C7EED0E084FD0DC0E7CF809198
:1010D000F80580FD33C09091F90590FFDFCFC3EE96
:1010E000D0E084FFDBCFD0E0C0E0D8CF8091F8051E
:1010F00082FDF3C09091F90590FDF2C084FFCECF40
:10110000F2CF8091F80583FDDDCFC8CF8091F8053F
:1011100083FDE9C09091F90591FFF0CFC4EED0E0D6
:10112000BDCF8091F80585FFB9CFA7CF8091F80595
:1011300085FDDCC08091F90583FFB0CFC9E3D0E025
:10114000ADCF8091F80586FFA9CFCAE2D0E0A6CF47
:101150008091F80586FFA2CFC1E3D0E09FCFCF3BBF
:10116000D10508F6C85AD0E0CC0FDD1FCC5ADE4FAF
:101170000990D881C02DD46491CFC11540E5D40722
:1011800008F064C0C11580E4D80708F05CC0CE0147
:101190009A9581159F4108F481CFA5CFC11536E5F9
:1011A000D30718F5C11545E5D40708F07DC0C11572
:1011B00084E5D80708F073C09C2F969596959E01FC
:1011C00023703327C115D34508F45AC0C1E0D0E0DD
:1011D00002C0CC0FDD1F2A95E2F730E2939FC001D9
:1011E0001124C82BD92BDA6859CFC1158AE5D80745
:1011F00078F4C11529E5D20708F061C0C11538E5BA
:10120000D30708F470CFDC2FCC27C06FD06A46CF4D
:10121000CE0190568115904208F065CF8D2F8F71C9
:101220000E94B50790E0982F882788279F719C011E
:101230002C2BE90142C0C55AD0E0CF5ADE4FC881FD
:10124000D0E0D0642BCFDF70D06A28CF2C2F26952A
:101250002695237080E2289F900111248C2F8370A3
:10126000C1E0D0E002C0CC0FDD1F8A95E2F7C22BAF
:10127000D32BDD6813CFDC2FCC27C16FD06A0ECF04
:10128000C1E0D0E002C0CC0FDD1F2A95E2F720E2DA
:10129000929FC0011124C82BD92BDC68FFCEDC2F14
:1012A000CC27C46FD06AFACE8C2F0E94B507C82F06
:1012B000D0E0DC2FCC27CC27DF71D062EFCE8C2F93
:1012C0008F700E94B50734E0D695C7953A95E1F73F
:1012D000CF709C2FEC01D069E1CEC2EED0E0DECE23
:1012E000C0EED0E0DBCEC6EED0E0D8CEC5E3D0E095
:1012F000D5CE8091E702882331F01092E702109258
:10130000E6021092E5020895CF93C82F8091F90567
:1013100082FF0CC08091E7028C1741F00E94D40438
:101320009093E6028093E502C093E702CF9108957F
:10133000809590912D06982390932D060895809581
:101340009091FA0498239093FA0408959091FA04E6
:10135000892B8093FA0408951092C4021092C3025C
:101360001092C202089580911D0590911E05892B4F
:1013700089F00E94D4042091E5023091E602AC018C
:10138000421B530B81E020911D0530911E05421731
:10139000530708F480E0817008952091C102909174
:1013A0008002291302C080E0089530E0F90153E083
:1013B000EE0FFF1F5A95E1F7EF57FD4F518156137E
:1013C00006C05081581303C05281541304C02F5FCC
:1013D0003F4F2770E6CF81E008958091C102909140
:1013E0008002981301C008958F5F8770FACF292F6C
:1013F000983078F5853068F590E035E0239F800DD2
:10140000911D1124682F677023E0969587952A9582
:10141000E1F7FC01EE0FFF1FE80FF91FE759FD4F41
:1014200050E040E080E0219130E0062E02C0369589
:1014300027950A94E2F721703327042E01C0220F6A
:101440000A94EAF7822B4F5F5F4F4330510559F7FB
:10145000089580E00895292F983098F5853088F513
:1014600090E035E0239F800D911D1124282F2770D7
:1014700041E001C0440F2A95EAF723E0969587954D
:101480002A95E1F7FC01EE0FFF1FE80FF91FE7595E
:10149000FD4F30E020E070E05191DF011197CB016A
:1014A000022E02C0969587950A94E2F78170819585
:1014B0008527842385278C932F5F3F4F2330310569
:1014C00059F7089592959F70963091F058F4925F75
:1014D0009F70923058F4803F19F030F4883E30F419
:1014E00081E008959A5FF4CF843FD1F380E00895BE
:1014F000883EB0F3813FD1F7F3CF9C013A95211597
:101500003F4150F5FC01EE27F170BC016627727077
:10151000AC01442754709C012227387094FF0EC000
:1015200080E1EF2B09F480E0672B09F08062452B06
:1015300009F08064232B89F08068089581E0EF2B07
:1015400009F480E0672B09F08260452B09F0846084
:10155000232B19F08860089580E008958093FA05A0
:101560007093FC056093FB05809122068430F9F4AA
:101570008093E9008FEF9091E800815095FD06C0BF
:1015800095ED9A95F1F700008111F5CF8091E80073
:1015900085FF0DC050E040E063E070E08AEF95E029
:1015A0000E9480038091E8008E778093E800089580
:1015B000BC0184E00E94AE0A0895BC0183E00E9451
:1015C000AE0A0895CF93DF93EC0180914501882303
:1015D000B1F18091F80587FF32C060E284E080932A
:1015E000E9008FEF9091E800815095FD06C095EDE0
:1015F0009A95F1F700008111F5CF8091E80085FF01
:101600001BC08091450170E050E040E0811104C0B2
:1016100050E040E068E070E0CE010E9480038091DD
:10162000E8008E778093E80080E2FE01A0E0B6E05B
:1016300001900D928A95E1F7DF91CF91089568E0CE
:1016400081E0CDCF81E08093E00080E28093D800FC
:101650001092C9008FE19EE40197F1F700C00000ED
:1016600087E090EBDC0180932E0690932F06A093E9
:101670003006B093310688E19CE00FB6F894A89547
:10168000809360000FBE90936000FFCF019708F435
:101690000895EFE9FFE03197F1F700C00000F6CFC1
:1016A000539A3BB1377F2BB128604FB7F8948CEA3F
:1016B00093E0FC015191CF0168E02BB9000000C01C
:1016C00057FF3BB9550F000000C000C000C03BB938
:1016D00000C06A9591F7F4E084329F0751F74FBF3D
:1016E0008FE594E00197F1F700C000000895B0E0A5
:1016F000A0E0EDE7FBE00C947E357C015B016A0124
:1017000080911C0301E010E08A3010F40AE010E040
:10171000C1E0D0E0B501C701F6010995811104C00F
:1017200021960C171D072CF4CDB7DEB7EAE00C9418
:101730009A35CC9F9001CD9F300D300D112490E053
:1017400080E045E34A95F1F7000001968217930780
:10175000C1F7E0CF8091F302811110C08091D800D1
:1017600080618093D8008AE18A95F1F700C080916A
:10177000D90080FF0AC081E08093F30281E090915C
:10178000F302913009F080E0089582E08093F30243
:101790000E94300310922206F1CF0E94AA0B8823E8
:1017A00059F0E091EF05F091F005309729F00190A4
:1017B000F081E02D0995089580E008950F931F931F
:1017C0000E94AA0B882329F00E94C8041F910F9140
:1017D00008950E94C80400911D0310911E032091DA
:1017E0001F0330912003600F711F821F931FEECFE4
:1017F000CF92DF92EF92FF926B017C010E94AA0BC5
:101800008823A1F02FB7F8946091F4057091F50545
:101810008091F6059091F7052FBF6C197D098E090F
:101820009F09FF90EF90DF90CF9008950E94DE0B0C
:10183000F4CF0F931F93CF93DF930BE115E0C7E62F
:10184000D1E0CE010E947436F80181938F01219678
:10185000CB38F1E0DF07A9F7CDECD3E0FE018591AD
:101860009491009711F0FC0109952C96F4E0CD3588
:10187000DF07A1F7DF91CF911F910F9108950F938B
:101880001F93CF93DF93843030F5683020F54530D7
:1018900010F5C42FD0E0CC0FDD1F2AE0629FC00DF1
:1018A000D11D112430E5839FC00DD11D1124CE011F
:1018B00087960E947436082F10E0102F0027CE0163
:1018C00088960E9474369801282BC901DF91CF9128
:1018D0001F910F91089590E080E0F8CF462F20915E
:1018E000F8043091F904232B99F4703F39F4603FE8
:1018F00079F48091F6049091F7040895843040F4CF
:10190000783030F4653020F4672F0E943F0C089542
:1019100090E080E00895CF92DF92FF920F931F93A3
:10192000CF93DF936C0100912C068091E802082B85
:10193000C7E0D0E010E0FC2EC8010C2E02C0959547
:1019400087950A94E2F780FD0CC02197A0F7F12C4F
:101950008F2DDF91CF911F910F91FF90DF90CF904E
:101960000895B6018C2F0E946E0C0E94F807019713
:1019700061F3EECFCF93DF93EC010E948B0CBE019D
:101980000E946E0C0E94F807DF91CF910895CF93CB
:10199000DF93EC014B815C81698188810E9436056F
:1019A000811110C08E819F81009739F00E94F80745
:1019B0000E94620ADF91CF910895888199810E94E7
:1019C000BA0CF6CF80E0F6CFA5E0B0E0EAEEFCE09E
:1019D0000C94853549835A8389819A81662399F0CD
:1019E000222389F00E948B0C182F682F89819A81FD
:1019F0000E942B0A69817A81812F0E946E0C2596A4
:101A0000E3E00C94A1350E94F709182FF3CFFC01F5
:101A1000262F86819781009739F440815181628118
:101A2000738184810E94E40C089583E290E00E9417
:101A30007436863889F484E290E00E9474368D3AD8
:101A400059F485E290E00E94743691E0833809F001
:101A500090E0892F8170089580E0FCCF8EE090E0C7
:101A60000E94743691E0811101C090E0892F0895A1
:101A7000FF920F931F93CF93DF93EC01F62E042F69
:101A8000122F0E942E0D81110FC0C431D1057CF0A0
:101A90006497FE01EE0FFF1FEC0FFD1FE455FC4F96
:101AA000F1820083128303C0C431D10594F3CDB712
:101AB000DEB7E5E00C949F35CF93C82F0E942E0D22
:101AC000882329F081E0C43128F080E003C081E060
:101AD000C832D8F7CF910895DB01FC0132962591E9
:101AE00034914217530758F0FC0134966591749174
:101AF000A901CD010E94543690E080E008958FEF57
:101B00009FEF08950F931F93CF93DF930BE115E0A1
:101B1000C7E6D1E0CE010E947436F80161918F01D1
:101B2000681719F0CE010E9492362196CB38F1E069
:101B3000DF0781F7DF91CF911F910F910895DA01AF
:101B40009C012E5F3F4FF90145915491F901259178
:101B50003491A217B30758F0FC0134968591949103
:101B60000E9454360E94820D90E080E008958FEF2D
:101B70009FEF0895CF93DF93CBE2D2E060E0CE01F8
:101B80000E9492362196C11584E0D807B9F7DF91FB
:101B9000CF9108951F93CF93DF93122F8430E0F4F9
:101BA0006830D0F44530C0F4C42FD0E0CC0FDD1F36
:101BB0009AE0699FC00DD11D112490E5899FC00D49
:101BC000D11D1124632FCE0187960E949236612F7A
:101BD000CE0188960E949236DF91CF911F91089591
:101BE000CF93C82F6FEF811166E883E290E00E94E7
:101BF00092366FEFC1116DEA84E290E00E94923656
:101C00006FEFC11163E885E290E00E949236CF91B8
:101C10000895CF93C92F682F84E090E00E949236F8
:101C20006C2F82E290E00E949236CF9108959B0142
:101C3000883070F49AE0899FB001112465577E4F77
:101C40004AE050E0C9010E94643690E080E00895C7
:101C50008FEF9FEF0895AAE0B0E0E1E3FEE00C947F
:101C600086359C0137552F3F310509F068F4BE01D8
:101C70006F5F7F4F0E94170E892B31F489859A85FB
:101C80002A96E2E00C94A2358091330590913405B8
:101C9000F7CFAAE0B0E0EFE4FEE00C948035E6EA8E
:101CA000F4E080E5DF011D928A95E9F7E7EAF5E0C7
:101CB00088E3DF011D928A95E9F786EAC82E84E061
:101CC000D82E7F010BED11E0F701D182C0824AE0EE
:101CD00050E0B801CE0101960E94643688E0FE0112
:101CE0003196D60101900D928A95E1F789859A8502
:101CF000D70113969C938E931297BAE0CB0ED11C0A
:101D0000E7E0EE0EF11C065F1F4F0B32F2E01F07FB
:101D1000D9F62A96E8E00C949C351F93CF93DF9375
:101D2000EC01FC01E35FFD4F80816823B1F00E946C
:101D30002E36182F0E942E368F77782F20E8720FBC
:101D400008F47FEF612F8091A9030E940807462FB6
:101D5000282F672FCE010E94DB06DF91CF911F91C4
:101D6000089546E050E06CE170E086EA93E00E945E
:101D700082361092A5030895B0E0A0E0E2ECFEE008
:101D80000C9478356091740370917503809176039B
:101D9000909177030E94F80B6B017C010E94DE0B8F
:101DA0004B015C018092740390927503A0927603BC
:101DB000B0927703A0914B03EBE4F3E08A2F90E01D
:101DC0004FEF5FEF60E070E04C195D096E097F092D
:101DD000A9131BC080934B038091A603182F137087
:101DE00019F0182F1695169590913E019130B9F182
:101DF0009923F1F0923009F402C2933009F407C23A
:101E0000CDB7DEB7E0E10C949435218D328D2901F8
:101E1000712C612C441555056605770520F4815019
:101E20009F5F3296D5CF2C0D3D1D328F218FF8CF7D
:101E300010923B018092A1039092A203A092A3036F
:101E4000B092A40389E2EBE4F3E0A8E7B3E00190E9
:101E50000D928A95E1F781E080933E01D1CF909178
:101E60003A01191337C083702091390130E091E0B5
:101E70008217130609F490E0892F817080933D0149
:101E80008091AB0390913C01981739F080933C010D
:101E900040E060E080E00E94DE06123009F4B4C049
:101EA000D8F4112309F473C0113009F47BC0C0E0E9
:101EB00080913B018F5F80933B01C111A1CF82E0F4
:101EC00080933E0180913D0181119ACF111198CFED
:101ED00083E0C2CF81E0D1CF143009F43AC1C09180
:101EE0003B01143008F4FBC0153009F7CC0FCC0FC0
:101EF000CC0F08E00C0F093208F008E20E942E0D0A
:101F0000882309F4B0C1053108F004E12091AA0347
:101F100031E0230F08F42FEF30E050E040E06FEFA6
:101F20007FEF80E090E00E94CE367901D0E02C2F48
:101F3000C01708F057C0FE01E35FFD4F808190910C
:101F40003C01892311F1409178034150042E000C8B
:101F5000550B47FF40C1C7016091AA0321E0620F02
:101F600008F46FEF0E94FE06AC016091A703709128
:101F7000A8038091A9030E94F7060E940807462F34
:101F8000282F672FCE010E94DB062196D0CF8091AB
:101F90003D01882309F48BCF40E060E080E00E949F
:101FA000DE0685CFC0913B01CC0FCC0FCC0F08E0F3
:101FB0000C0F093208F008E20E942E0D882309F464
:101FC0003EC1053108F004E16091A7037091A803B8
:101FD0008091A9030E940807F62EE72ED82ED0E0A4
:101FE000C01710F0802F65C0FE01E35FFD4F8081B8
:101FF00090913C01892331F02D2D4F2D6E2DCE0176
:102000000E94DB062196ECCFC0913B01CC0FCC0F98
:10201000CC0FD8E0DC0FD93208F0D8E20E942E0DA8
:10202000882309F411C1D53108F0D4E1F090A70359
:102030000091A803E090A9036091AA0366956695B4
:1020400066958091A1039091A2030E94FE06E82F5D
:1020500086FDE0952E2F2F7086FD2F5FE695E69585
:10206000E695E670F0E0E357FE4F9181929F902D48
:10207000212D112492959F702295207F922B2081F3
:10208000920F87FD9195892F87FD8195880F382FB5
:102090002E2D329F312D1124832F6F2D702F0E94F2
:1020A0000807062FD72EC82EEC2EF12CED1628F09F
:1020B0008D2F0E945C0DC82FFBCEF701E35FFD4F13
:1020C000808190913C01892331F02C2D402F6D2D82
:1020D000C7010E94DB063FEFE31AF30AE7CFCC0FFC
:1020E000CC0FCC0F08E00C0F093208F008E20E9478
:1020F0002E0D882309F4ADC0053108F004E160918C
:10210000AA036695669521E0620F08F46FEF80914F
:10211000A1039091A2030E94FE06F82ED0E0C01702
:1021200008F060CFFE01E35FFD4F808190913C019C
:10213000892369F07091A8036F2D8091A9030E94F3
:102140000807462F282F672FCE010E94DB06219615
:10215000E6CFC0913D01C1111EC06091AA0320E1EC
:10216000620F08F46FEF8091A1039091A2030E9487
:10217000FE0665E070E00E94AD35892B09F097CE30
:102180000E942E3668E270E00E94C13560913C01E9
:102190000E948D0E8DCEC0913B01CC0FCC0FCC0F89
:1021A00008E00C0F093208F008E20E942E0D882387
:1021B00009F454C0053108F004E1D0E0E02EF12C20
:1021C000CE15DF050CF00ECF60913C01CE010E94D0
:1021D0008D0E2196F5CFFA01E858FC4F81898213C4
:1021E0000BC0FA01EE0FFF1FE858FC4F818D928D56
:1021F0008E159F0508F4B0CE41505109AACE109318
:102200003A018370809339010E94500B61CE809116
:10221000A50381110E94B10E6091A1037091A203E8
:102220008091A3039091A4030E94F80B6031710583
:102230008105910508F4E4CD10923E01E1CDC43151
:1022400008F0C2CEC4E1C0CEC43108F0EFCEC4E184
:10225000EDCEC43108F053CFC4E151CFC43108F002
:10226000ACCFC4E1AACFC43108F050CEC4E14ECE09
:10227000E6EAF3E085E08083809146019091470192
:10228000A091480181839283A3838FE784838FEF9A
:1022900085830E94B10E0895ACE0B0E0E2E5F1E183
:1022A0000C947B358E010F5F1F4F88E0D8011D9283
:1022B0008A95E9F784E8C82E81E0D82EF12CE12C2C
:1022C000AA24A394B12C2DE8822E21E0922EF601AF
:1022D00081916F018F3F09F442C0F894E82FE29595
:1022E000EF70F0E021A18F70A50102C0440F551FCF
:1022F0008A95E2F7CA01922F982B91A392A180951B
:10230000892382A3789400C0E8E8F1E0712C31E0E1
:1023100021912F3F09F46BC0A22FA295AF70B0E0BE
:1023200090968C9190E02F7002C0959587952A9594
:10233000E2F780FD5CC0832F782A330F8E169F064C
:1023400039F7F601319780818F3F11F00E949E0787
:1023500050EA5A95F1F7F801EE0DFF1D70828FEFEC
:10236000E81AF80AA4E0EA16F10409F0B0CF48E050
:1023700050E0B80181E293E00E944736009741F0B7
:1023800028E0F801A1E2B3E001900D922A95E1F76F
:1023900000912A03892B69F181E08093EB020E946E
:1023A000D4049093EA028093E9028091E90290912B
:1023B000EA020E94B904059700F110E00D5B1C4F82
:1023C00044E050E061E273E0C8010E944736B12C5E
:1023D000892B51F084E0E1E2F3E0D80101900D9205
:1023E0008A95E1F7BB24B3941092EB0207C080E01A
:1023F000A3CF8091EB028111D8CFB12C0E94AA0B00
:10240000A82EE0912A03882309F489C019861A8628
:102410001B861C860E2F10E00D5B1C4F80911C0349
:102420008A3008F046C049E55BE1BE01675F7F4F37
:10243000C8010E94770B882309F460C04DE85CE175
:10244000BE01675F7F4FC8010E94770B882309F4A4
:1024500055C043E05BE1BE01675F7F4FC8010E944A
:10246000770B882309F44AC043E65CE1BE01675F4D
:102470007F4FC8010E94770B882309F43FC0109258
:102480001C038091290390E044E050E0BE01675FA7
:102490007F4F8D5B9C4F0E94473621E02093F202D4
:1024A000892BF1F4A12C8A2D8B292C96EDE00C942C
:1024B00097358091EC029091ED020E94B904843F1F
:1024C000914008F0B0CF8091F202882359F3FE01C9
:1024D000399684E0DF011D928A95E9F71092F202A5
:1024E000E0912903F0E0ED5BFC4F89859A85AB858F
:1024F000BC8580839183A283B383D5CF80911C0355
:102500008F3F31F08F5F80931C038A3008F4B9CF7E
:102510000E94D4049093ED028093EC02D4CF0091FA
:10252000290310E00D5B1C4FF0E0ED5BFC4F84E0F5
:10253000A1E0B3E001900D928A95E1F781E093E08C
:102540000E9419038093000384E0E5E0F3E0D801E2
:1025500001900D928A95E1F7C0900903D0900A038B
:10256000E0900B03F0900C038091EE029091EF024B
:10257000A091F002B091F102C816D906EA06FB0656
:10258000D1F0C092EE02D092EF02E092F002F0920F
:10259000F1020E94AA0B81110EC00E94C804C61A43
:1025A000D70AE80AF90AC0921D03D0921E03E092EE
:1025B0001F03F092200386E0EDE0F3E0A6EAB3E02B
:1025C00001900D928A95E1F76ECF8091FA04909177
:1025D0002D06892B809346028091E702882319F10A
:1025E00080911D0590911E05892B29F00E94B30949
:1025F00081110E947909809146029091E702892B0E
:1026000080934602809145018823E1F18091F8058D
:1026100087FF38C08EE1E8E4F2E090E08150A0F559
:1026200091110E94790940E250E065EC72E086E485
:1026300092E00E944736892B21F180E2E6E4F2E045
:10264000A5ECB2E001900D928A95E1F7E091EF05DB
:10265000F091F0053097A9F080914501882359F059
:102660008091F80587FF07C080914602809347025A
:1026700086E0809346020280F381E02D86E492E0BA
:102680000995089586E0C7CF2191222339F29F5FF3
:10269000C5CFCF93DF93EC01EA85FB85309719F026
:1026A0006C857D8509958B810E9498098C810E949B
:1026B0009F090E94E51286E0FE0111928A95E9F7D2
:1026C000DF91CF910895CF93DF93EC018D8181FD50
:1026D00015C082608D8380912D069B81892B80930C
:1026E0002D068C810E94A6090E94E512E885F985D5
:1026F000309721F06C857D85CE0109951092EC050F
:102700001092EB058D8180FD03C0CE010E9449131C
:10271000DF91CF91089580914301877F809343019A
:1027200082E00E9498098091430184FF06C08F7E59
:102730008093430182E00E94A6098091430185FFB6
:1027400006C08F7D8093430180E20E94A6090E940B
:10275000E512089590E080E00E94200590E080E07E
:102760000E940A0510922D060E94E512089580939A
:102770002C060E94AA13089580912C06982F96701B
:10278000963021F488600E94B7130895877FFBCFAD
:1027900021E030E001C0220F8A95EAF72095809170
:1027A0002C0682230E94B71308959091C40280954D
:1027B00089238093C402282F277091F4282F082E94
:1027C000000C330B9217130659F09091F90592FF04
:1027D00007C08595859585950E94C8130E94AC0910
:1027E00008959091F90592FB222720F9281769F0A6
:1027F00080FB92F99093F9058091F8059091F90585
:102800000E94090E82E00E94D513089521E030E075
:1028100001C0220F8A95EAF780912C06822B0E9434
:10282000B71308959091F90592FF10C098E0899F21
:1028300090011124622B6093C4020E9406140E942E
:10284000D4049093C3028093C20208950E94061498
:1028500008958093E8020E94AA1308951092FA0442
:1028600080914501E8E4F2E0882361F08091F80569
:1028700087FF08C08EE1DF011D928A95E9F70E946B
:10288000AA13089586E0F7CFAAE2B0E0EAE4F4E103
:102890000C94853584E296E02091F100DC012D93C3
:1028A000CD01B6E08C329B07B9F7809125068330C5
:1028B00009F472C0B8F4813009F449C0823009F4D7
:1028C000B3C08091E80083FF96C280912406909166
:1028D00025069A3008F08FC2E92FF0E0ED5CF84C45
:1028E0000C94D5358A3009F48EC08B3009F471C050
:1028F000893039F780912406813219F780912806B2
:1029000090912906009711F00297D9F68091E8007E
:10291000877F8093E8008091E80082FF38C0909123
:10292000F3008091F200029731F48091F100813040
:1029300011F0863021F48091F1008093FF058091A1
:10294000E8008B778093E8000E94AA03BACF8091B9
:102950002406813A09F0B5CF8091E800877F809303
:10296000E8008091280690912906892B61F460E2A5
:1029700080E096E070E00E9456048091E8008B773A
:102980008093E8009ECF60E090E080E0F3CF8091FC
:1029900022068111C0CF95CF80912406813A09F09B
:1029A00090CF8091280690912906892B09F089CF34
:1029B0008091E800877F8093E8008091E80080FFA5
:1029C000FCCF809145018093F1008091E8008E77E3
:1029D000B9CF80912406813209F073CF8091280607
:1029E00090912906892B09F06CCF8091E800877FB0
:1029F0008093E8000E94AA038091260680934501F7
:102A00000E942E145ECF80912406813209F059CFA6
:102A10008091E800877F8093E8000E94AA0380915C
:102A200027068093FE054DCF80912406813A09F058
:102A300048CF8091E800877F8093E8008091E8008C
:102A400080FFFCCF8091FE05BECF803899F08238A0
:102A500009F0D1C1809128068F70873008F0CBC172
:102A60008093E9008091EB0085FB882780F9109224
:102A7000E90006C0809120069091210691118260A4
:102A80009091E800977F9093E8008093F100109276
:102A9000F1008091E8008E77AAC1882309F498C1DB
:102AA000823009F0A8C18091260681119BC18091D6
:102AB00028068F702FEF280F263008F09CC18093D6
:102AC000E9002091EB0020FF8DC1933031F480911B
:102AD000EB0080628093EB0085C19091EB009061E8
:102AE0009093EB0021E030E001C0220F8A95EAF7D5
:102AF0002093EA001092EA008091EB008860EACF10
:102B0000811179C1109126061F778091E3008078AA
:102B1000812B8093E3008091E800877F8093E80019
:102B20000E94AA038091E80080FFFCCF8091E3001F
:102B300080688093E30082E0111183E08093220695
:102B40005AC18058823008F056C120912606309133
:102B500027062C3DE3E03E07A1F583E08A838AE265
:102B600089834FB7F894DE01139620E03EE051E2EE
:102B7000E32FF0E050935700E49120FF03C0E2956B
:102B8000EF703F5FEF708E2F90E0EA30C0F0C79695
:102B90008D939D932F5F243159F74FBF8091E800AB
:102BA000877F8093E8006AE270E0CE0101960E9480
:102BB00056048091E8008B778093E8001CC1C09692
:102BC000E7CF8091280690912906432F552743305F
:102BD000510509F44AC078F54130510509F485C022
:102BE0008BE590E0E3E5F4E04230510509F003C1E4
:102BF0002091E800277F2093E80020912A06309159
:102C00002B068217930708F49C0140E0211531053B
:102C100009F070C041116EC08091E80082FDC9CFFB
:102C200080912206882329F2853019F28091E800EC
:102C300083FFF2CFBECF4132510509F447C0423283
:102C4000510509F0D8C08330910508F0D4C0FC01CB
:102C5000EE0FFF1FE85CFD4F0190F081E02D8B5CD3
:102C60009D4FDC018C9190E01DC033272130310550
:102C7000E9F02115310579F022303105F9F02330E2
:102C8000310509F0B8C0E0ECF4E0E4918E2F90E05B
:102C9000E0ECF4E007C0EAE0F5E0E4918E2F90E08C
:102CA000EAE0F5E0009709F4A6C0A2CFE6EFF4E071
:102CB000E4918E2F90E0E6EFF4E0F4CFEEEDF4E057
:102CC000E4918E2F90E0EEEDF4E0ECCF83309105AF
:102CD00008F091C0880F991FFC01E25CFD4F019044
:102CE000F081E02D89E090E083CF82E190E0EEEA90
:102CF000F4E07ECF80912206882309F45ACF8530F4
:102D000009F457CF8091E80083FD53CF8091E8000C
:102D100082FD82CF8091E80080FF78CF9091F30010
:102D20008091F2002115310519F08830910550F09D
:102D300041E0089709F040E08091E8008E778093A9
:102D4000E80064CF44914093F1003196215031095D
:102D50000196E8CF803809F04EC08091E800877F67
:102D60008093E800809123068093F10092CE811138
:102D700042C0109126061230F0F58091E800877F5E
:102D80008093E800109323060E94AA03112311F0F8
:102D900084E005C08091E30087FDFACF81E0809355
:102DA000220642E061EC81E00E94C90342E261EC4C
:102DB00084E00E94C90342E261EC82E00E94C90300
:102DC00042E260EC83E00E94C9038091220613C0B6
:102DD00080912606813079F481E0933009F080E01B
:102DE000809321061092E9008091E800877F80930C
:102DF000E8000E94AA038091E80083FF0AC0809146
:102E0000E800877F8093E8008091EB0080628093E8
:102E1000EB00AA96E3E00C94A135EBE1F5E0128E0D
:102E2000138E8FEA90E09183808385E0848F28E879
:102E300033E13383228322E330E0378B268B28EC87
:102E400030E0318F208F158E178E168E20E530E002
:102E500031A320A382A30E94820D0E942E141092FF
:102E6000F9051092F805E9EFF5E080818460808330
:102E70008091F8059091F9050E94090E0E94190CA5
:102E80000895A4E1B0E0E7E4F7E10C947D35C0904B
:102E90003F01D090400181E090E090934001809309
:102EA0003F01F12CE12C83E7A82E83E0B82E912C72
:102EB0001BC0E114F104D9F4F801EE0FFF1FEA0D75
:102EC000FB1D25913491402F692D80E00E94CA0D91
:102ED0000F5F1F4F0530110561F78AE0A80EB11C86
:102EE0009394E8E09E1649F010E000E0E2CF21E084
:102EF00030E0402F692D8E2DE9CFFFEFEF1AFF0A4A
:102F000084E0E816F10479F60E940D171A821982FE
:102F10001C821B821E821D8218861F8288EC90E014
:102F20009A8789870BE811E04AE050E0B801CE01AA
:102F300001960E94B636065F1F4F0B3DE1E01E076B
:102F400099F77E01FBE0EF0EF11C8AE0F701119288
:102F50008A95E9F74AE050E0B801C7010E94B63609
:102F6000065F1F4F0B32F2E01F07A1F7D09240011E
:102F7000C0923F016496EBE00C94993580E00E948A
:102F8000F00D60E086E290E00E9492360E944117C8
:102F90000E94BA0D81E00E94F00D0895CF92DF9259
:102FA000EF92FF928FEF9FEF4430510508F46AC013
:102FB000FB01C080D180E280F3800E942E148091BA
:102FC000F805C0FA80F9B701A6017695679557957F
:102FD000479540FB81F9B701A60122E076956795F8
:102FE000579547952A95D1F740FB82F9B701A6017D
:102FF00033E076956795579547953A95D1F740FB1D
:1030000083F9B701A601E4E0769567955795479552
:10301000EA95D1F740FB84F9B701A601F5E0769572
:10302000679557954795FA95D1F740FB85F9B70114
:10303000A601A6E07695679557954795AA95D1F78D
:1030400040FB86F9B701A601B7E0769567955795DD
:103050004795BA95D1F740FB87F98093F8058091A1
:10306000F905D0FA80F9D1FACC24C0F8C0FA81F978
:103070008093F9058091F8059091F9050E94090E59
:1030800090E080E0FF90EF90DF90CF9008950E9455
:103090002E142FEF84E39CE0215080409040E1F714
:1030A00000C0000088E19CE00FB6F894A8958093DA
:1030B00060000FBE90936000FFCF882321F00E9434
:1030C00098090E94E5120895882339F090912D0601
:1030D000982B90932D060E94E5120895882321F0E5
:1030E0000E949F090E94E5120895882321F00E9402
:1030F000A6090E94E5120895882351F19CEF980FCC
:10310000913A40F4682F86E492E00E94E0040E9425
:10311000E512089590E2980F983050F4877091E08E
:1031200001C0990F8A95EAF7892F0E949F09EFCF76
:103130009BE5980F933028F490E080E00E942005F2
:103140000895885A873120F490E080E00E940A05B3
:103150000895CF93DF93EC010E947C18CE010E946A
:103160007D0A9E01205E31092830310510F0CD2BFB
:1031700029F40E946E18DF91CF9108950E945D1886
:10318000FACFCF93C82F882309F445C08CEF8C0F5A
:10319000813A08F068C0809145018823F1F180915F
:1031A000F80587FF3AC0EC2FE695E695E695F0E046
:1031B000EA5BFD4F828190E04C2F477021E030E0C8
:1031C00002C0220F331F4A95E2F782239323892BF3
:1031D00061F06C2F86E492E00E94E0040E94E51208
:1031E00026C08091F80587FF26C0AC2FA695A6952E
:1031F000A695B0E0AA5BBD4FC77021E030E001C0EA
:10320000220FCA95EAF712968C911297822B12968A
:103210008C930E94E512CF910895E8E4F2E08EE4E9
:1032200092E02191C217A9F28E179F07D1F78091E2
:1032300045018111D6CFA8E4B2E0EFEF80E09D9187
:10324000C91739F3EF3F19F4911101C0E82F8F5FCF
:103250008630A9F7EF3FE9F20E2E000CFF0BEA5B78
:10326000FD4FC283D6CF80E28C0F883048F4C77000
:1032700081E001C0880FCA95EAF70E94A609C9CF6C
:10328000EBE5EC0FE33040F4F0E0EF5AFE4F8081C5
:1032900090E00E942005BFCFC85AC73108F0BBCFCD
:1032A000EC2FF0E0EE0FFF1FEC5AFE4F8081918172
:1032B0000E940A05B0CF1F93CF93DF93182FC091C0
:1032C0003B05D0913C05893321F0C0913905D0915F
:1032D0003A05812F0E94C118209739F4812F0E944E
:1032E0007C18DF91CF911F9108958FE99FE001979E
:1032F000F1F700C000002197EFCFB0E0A0E0E3E8D5
:10330000F9E10C947E35EC018AE0A82E2881222375
:1033100009F48FC02130C9F599818A81913021F457
:1033200022960E945B1905C0923029F422960E94D1
:10333000C1182196EBCF933021F422960E947C187D
:10334000F8CF943011F02196F4CF229630E020E0AF
:10335000AE014F5F5F4F8053990B8A30910550F05B
:103360002150310930F38FE99FE00197F1F700C058
:103370000000F6CFA29EB001A39E700D11249C0107
:10338000260F371F8981EA01E3CFE22FF0E0E25CEC
:10339000FA4FB490822F86958695869590E0FC0131
:1033A000E25DFA4FE4902770F12C022E02C0F594F2
:1033B000E7940A94E2F731E0E322FF24FC01E25EA5
:1033C000FA4FC490D12C022E02C0D594C7940A940F
:1033D000E2F731E0C322DD24FC01E25FFA4F049101
:1033E00010E002C0159507952A95E2F701701127A4
:1033F000E114F10419F081EE0E94C118C114D10446
:1034000019F086EE0E94C1188B2D0E945B19C11421
:10341000D10419F086EE0E947C18E114F10419F031
:1034200081EE0E947C180115110509F482CF8CE20F
:1034300078CFCDB7DEB7EAE00C949A35CF93DF931F
:10344000EC010E947D0A9E01205E31092830310581
:1034500010F0209741F40E9475188C2F0E94C1181B
:10346000DF91CF9108950E946418F7CF662329F069
:1034700020912D06226020932D069C0130562115A7
:1034800040E2340720F0305E2115304108F49927DE
:103490000E941E1A0895B0E0A0E0E1E5FAE10C9464
:1034A00081357C018B01D42E8091430182FF8CC039
:1034B000C0914105D0914205CE15DF0521F0E11400
:1034C000F10409F081C0809143018B7F8093430117
:1034D00081FD73C080913F0590914005A801481B74
:1034E000590B81E02091410130914201421753076D
:1034F00008F480E08170F82E80914301F0FA81F9A0
:1035000080934301FE0183E0F695E7958A95E1F704
:10351000EE71FF27E550FB4F20813181AE014F70E6
:10352000552781E090E002C0880F991F4A95E2F785
:10353000FF2009F444C0822B932B918380838091D8
:10354000FA0481FF08C080914301806180934301A8
:1035500082E00E949F098091FA0485FF08C0809153
:10356000430180628093430180E20E949F096F2D96
:10357000CE010E94361ADD2031F08091360585FF9C
:1035800002C086FF3BC08091390590913A050E94A8
:10359000460B80914105909142059C0130562115C2
:1035A00040E2340720F0305E2115304108F49927BD
:1035B0000E94A9180E948B131DC081E09BCF8095AB
:1035C000909582239323B9CFC7019927970130564D
:1035D000211540E2340728F0305E2115304108F013
:1035E000C7010E94A91880914105909142058E154E
:1035F0009F0501F31093400500933F05CDB7DEB75B
:10360000E7E00C949D35A4E0B0E0E9E0FBE10C9428
:103610008535409114035091150360911603709104
:1036200017032FB7F8948091F4059091F505A091B8
:10363000F605B091F7052FBF841B950BA60BB70BB2
:1036400011E084369105A105B10570F10E94DE0BF1
:103650006E5F7F4F8F4F9F4F69837A838B839C83ED
:1036600080911D0190911E0180509D4F40911C0141
:1036700050E04530510510F044E050E0BE016F5F6E
:103680007F4F0E94543683E090E00E940035182F4F
:10369000882351F00E94C8046093140370931503AB
:1036A0008093160390931703812F2496E3E00C94E4
:1036B000A135EF92FF921F93CF93DF9300D000D0FC
:1036C0000F92CDB7DEB77B0190E080E00E9400351D
:1036D000182F882309F46DC04091070150E041156F
:1036E000510511F041E050E060910801709109012D
:1036F00060507D4FCE0105960E9454364091F802ED
:103700005091F9026091FA027091FB022FB7F89480
:103710008091F4059091F505A091F605B091F7051B
:103720002FBF841B950BA60BB70B84369105A10503
:10373000B10538F481E093E00E9419039D81891757
:10374000C1F181E090E00E940035882309F458C05F
:1037500040910F0150E04530510510F044E050E039
:10376000609110017091110160507D4FCE01019662
:103770000E94543681E093E00E9419039D818913D1
:103780003FC00E94C8046093F8027093F9028093CE
:10379000FA029093FB0289819A81AB81BC8180936C
:1037A000F4029093F502A093F602B093F70211E0B1
:1037B0000EC08091010390910203A0910303B09188
:1037C000040389839A83AB83BC831111E4CF809176
:1037D000F4029091F502A091F602B091F702F70180
:1037E00080839183A283B383812F0F900F900F90DA
:1037F0000F900F90DF91CF911F91FF90EF90089560
:1038000010E0E5CF4F925F926F927F928F929F92DE
:10381000AF92BF92EF92FF920F931F93CF93DF93DC
:103820007B01FB0140805180628073809FB7F894D8
:103830008090F4059090F505A090F605B090F705FE
:103840009FBF84189508A608B708F4E68F16910460
:10385000A104B10418F4C1E0442329F1C82F880F52
:10386000DD0BFE0183E0EE0FFF1F8A95E1F7EC5FB1
:10387000FE4F8181928180509D4F408150E004171E
:10388000150708F4A801B9010E945436CE010E9420
:103890000035C82F882339F00E94C804F7016083DF
:1038A0007183828393838C2FDF91CF911F910F912E
:1038B000FF90EF90BF90AF909F908F907F906F9010
:1038C0005F904F900895A7E0B0E0E9E6FCE10C942A
:1038D000843586E0E6EAF3E0DE01119601900D9270
:1038E0008A95E1F71F8247E050E06DE073E0CE017A
:1038F00001960E94473641E0892B09F440E007E039
:1039000010E09E012F5F3F4F68E173E084E00E946A
:10391000021C2796E4E00C94A0350F931F93CF93DD
:10392000DF93EC0144E050E065E073E00E9447362D
:1039300041E0892B09F440E004E010E09E016CEFC7
:1039400072E082E00E94021CDF91CF911F910F91E3
:10395000089590E080E00E947C36883E9E4F19F4E6
:103960000E94150D089580E0089568EE7EEF90E0C6
:1039700080E00E94B03660E082E090E00E949236E3
:1039800060E083E090E00E9492361092E80260E0EE
:1039900084E090E00E94923664E082E290E00E942F
:1039A000923660E085E090E00E94923660E086E02A
:1039B00090E00E9492366FEF87E090E00E9492368E
:1039C00040E050E0BA0188E090E00E94A43660E058
:1039D0008DE090E00E94923640E050E0BA0188E12C
:1039E00090E00E94A43660E087E190E00E94923669
:1039F00040E050E0BA018CE190E00E94A43670E013
:103A000060E080E290E00E94B03640E050E0BA0111
:103A100088E190E00E94A43680E00E94F00D0E94B0
:103A2000BE1740E050E0BA018FE090E00E94A4365B
:103A300040E050E0BA0183E190E00E94A43608958E
:103A4000A4E0B0E0E6E2FDE10C947D357C01DC0110
:103A500013964D915C91149711966C9111978C91DE
:103A60000E9436058111EDC061E0C7010E94070D7B
:103A70008C01F70182818823E1F08091EB05909120
:103A8000EC050097B1F00817190799F0FEE08F9F39
:103A9000C0011124FC01E55CFB4F208124602083E0
:103AA0008A5C9B4FDC010D931C930E946313109260
:103AB0002D06F7018281882309F443C6980122511B
:103AC0003F452031310508F0ADC58FEF93E00E94EE
:103AD00074368111A6C06EEED62ED00E0BE212E027
:103AE000D11036C019821A821B821C8299249A94A2
:103AF00068012FEFC21AD20AC8010E947436898366
:103B00001A82882309F48DC0813009F07FC05801E2
:103B100032E0A30EB11CC6010E947436C82E8A83FF
:103B2000882309F47EC0C5010E947436D82E8FEF19
:103B30008C0D8330D8F4580143E0A40EB11CDB8215
:103B4000DD2021F0CE0101960E947D198501D0CFA4
:103B50000115F4E01F0709F464C0C8010E9474361F
:103B6000811101C0DA940F5F1F4FBACF8BEF8C0D1C
:103B7000833030F5C8010396DB825C01DD2031F330
:103B8000580154E0A50EB11C0E9474368C83882322
:103B9000E9F28B819C818130AFEF9A0710F0982F6A
:103BA0008827B6E0CB1631F0E7E0CE1631F00E9460
:103BB000312ACCCF0E940B2AC9CF0E949229C6CFAE
:103BC000F4E0CF12C3CF580124E0A20EB11CC8010B
:103BD00003960E947436DD2021F1882311F1815073
:103BE000990B989E9001999E300D11244D2D4150B6
:103BF000550BCA01820F931F019708F4A7CFAFE9B5
:103C0000BFE01197F1F700C00000F6CFCE0101969A
:103C10000E947D1956019ACF81E00E9406140E94ED
:103C2000BC138091C402877061F0D70112968C9109
:103C3000882339F08091F90582FF03C082E00E9459
:103C4000D5132496EBE00C94993581E00E94C813BB
:103C5000E6CF82E0E2CF823009F025C580913004C2
:103C600090913104892B09F41EC52EE02C9DC001D2
:103C70002D9D900D1124FC01E55CFB4F20812E7FD2
:103C800020838A5C9B4F0E9463130DC52FEFC216E1
:103C9000D10409F008F407C58091360580FF39C0CA
:103CA0000E94D4046C01D70112968C91882309F4E8
:103CB000A5C08091430182FF08C028E333E040E0C3
:103CC000B60190E080E00E944B1A0B31BCE51B0767
:103CD00009F486C00C31ECE51E0709F487C0909109
:103CE0004301892F8E7F90FF81600A31FCE51F0719
:103CF00009F47FC0C8019056811520E2920728F090
:103D0000905E8115904108F087C010924205109294
:103D10004105F70182818111DFC18091FA0482722D
:103D2000093CFCE51F0709F4C8C108F082C1053C45
:103D30003CE5130709F4BCC108F065C1033C5CE530
:103D4000150709F4A9C108F0AEC1023CACE51A0799
:103D500009F494C1F70186819781009709F4F2C1B3
:103D60000E94F807182F092FF701C280D580D2943E
:103D70003FE0D3228091C4028770C1F0AC2CCC20EC
:103D8000B1F0892F807F803421F080E2810F88306C
:103D900068F08091F90582FF09C082E00E94D51386
:103DA0008091C4028770AA24A3948111A12C902E23
:103DB00092942FE09222FBE0F91508F450C2E92D0D
:103DC000F0E0E35CF84C0C94D535902F812FB4C40F
:103DD000F601858181FF60CFC6010E9449135CCF47
:103DE0008091430181608093430184CF809143019E
:103DF0008E7F809343010E948B137CCF809143017F
:103E00008F7E013E110531F0053E1105C9F4809108
:103E100043018F7D809343018091430180FF79CFDF
:103E2000D70112968C910832110528F50E31110533
:103E300008F072C00430110580F5811166CF69CF9A
:103E4000C8019056811540E2940720F0905E8115DC
:103E5000904110F78091430182FF5BCF809138053C
:103E600081FD57CF28E333E040E0B60190E080E0E9
:103E70000E944B1A4ECF0933110558F40D3211052B
:103E800018F40B321105C9F69091360592FDD5CF85
:103E900008C004361105C1F3D0CF9091360594FDCA
:103EA000CCCF882309F4A8C08091E7029091FA044E
:103EB000892B8D7FB1F110924205109241058091BE
:103EC000360581FD2EC0F80143E0F695E7954A9549
:103ED000E1F7EE71FF27E550FB4F98012F70332774
:103EE00081E090E002C0880F991F2A95E2F7809543
:103EF000909520813181822393239183808360E098
:103F0000C8010E94361A8091E7028D7F0E948409C1
:103F100082E00E94D51385CE9091360593FD8DCF1A
:103F2000C0CF88E0F701A8E3B3E001900D928A9535
:103F3000E1F710923A0310923C0310923B038091F8
:103F400041059091420508171907D1F520913605D2
:103F500025FF36C03091430131FF02C026FF30C03B
:103F600020913F05309140055601A21AB30AB701CE
:103F70000E942B0EA816B90618F58091FA0481FF4D
:103F800008C08091430180618093430182E00E94D8
:103F90009F098091FA0485FF08C0809143018062E7
:103FA0008093430180E20E949F09609143016695DE
:103FB000617080914105909142050E94361A31CE80
:103FC0008091E7029091FA04982B2091430191FB94
:103FD00021F9209343018D7F0E94840910934205AB
:103FE00000934105D0924005C0923F058091430166
:103FF0008460809343018CCF970140E0B601C801F3
:104000000E944B1A0ECE49E756E067E876E0073C7F
:10401000BCE51B0709F444C040EA56E065E976E0D8
:10402000083CECE51E07E0F147E856E069E776E07A
:1040300037C00D3CFCE51F0709F449C070F44EE29F
:1040400056E06CE376E00B3C3CE5130749F1D0F118
:104050004CE356E06EE276E023C0063D5CE51507D2
:1040600040F40F3C8CE5180708F0DBCD61E082E0FE
:1040700030C00D35100709F4D4CD6CCE8091A60365
:1040800091E089278093A60310923E018091A503B9
:1040900081608093A503C5CD44EC56E06FEC76E0DB
:1040A0000E942806BECD4FEC56E064EC76E0F8CFD7
:1040B00045E956E060EA76E0F3CF4DE556E06BE681
:1040C00076E0EECF4BE656E06DE576E0E9CF61E0D5
:1040D00081E00E94AB06A5CD0A35ADE51A0771F166
:1040E00058F40115ECE51E0791F00E3D1C4509F052
:1040F00031CE0E94B51C09C00C352DE51207A1F088
:10410000F8F0073A1D4509F025CE0E9447180E9495
:104110002E145FEF84E39CE0515080409040E1F723
:1041200000C000000E94220B8091F90582FB8827C5
:1041300080F991E089270E94F1130CCE81E0FBCF3A
:1041400080E0F9CF828100811181882369F0C80164
:104150000E948B0CD82E682FC8010E942B0AB80130
:104160008D2D0E946E0CFCCDC8010E94F709D82E3F
:10417000F6CF202F2F70B22E802F807F19F0B294AF
:1041800090EFB922CC20A9F0BB2059F080E2810F3A
:10419000883010F0111107C08B2D0E94A6090E94D3
:1041A000E512812F5AC080912D06B82AB0922D06B3
:1041B000F6CF812F0E947C18BB2009F450C080E20A
:1041C000810F883010F0111104C08B2D0E949F09BF
:1041D00003C08B2D0E9498090E94E51240C0302F29
:1041E0003F70B32E802F807F803219F0B29480EF21
:1041F000B822112321F1113009F4AEC0CC2009F40A
:10420000B7C0DD2009F47FC020E0D7014C911196A2
:104210005C91119712966C91129713967C9113975B
:1042200014968C910E94E40C8091380581FDB9CFE1
:10423000F701858180FFB5CF8F70858364C0809141
:10424000F90582FD40C0CC20C1F1BB2029F08B2DA7
:104250000E94A6090E94E51280E00E94C118A92DC3
:10426000A850BB0B149710F40E94CD0B812F902FF8
:104270000E94620A8111B7C110926802109267020F
:10428000AA20B1F08091C40280FD12C0D70112961D
:104290001C928595859585950E940614C7010E94FC
:1042A000201D8091C4028595859585950E94C8132F
:1042B00060E0C7010E94070DC4CC80E00E947C181A
:1042C000BB2069F282CFCC2011F1D11004C08091C3
:1042D000E7028B2919C041E0D41206C08091E702A1
:1042E0008B290E948409BBCF80913705823078F3F7
:1042F000D812EDCF0E947909909166028B2D892BFF
:104300008913809366028B2D0E947518A8CFD11057
:1043100003C00E94790917C08091370551E0D5127A
:1043200016C0823008F49BCF8091FA048B2109F4E7
:1043300096CF0E947909909166028B2D80958923F2
:104340008913809366028B2D0E946E1888CF82306D
:1043500000F3D812DECF83CF80913D05CC2021F031
:104360008D1508F47CCFCFCFD81608F078CFEBCFDF
:10437000DD2049F380913B0590913C05193321F0F4
:104380008091390590913A050E94460B812F0E9439
:104390007C1865CF802F86958695837069F0813073
:1043A00009F05DCF812F902F9370C11002C090E073
:1043B00080E00E940A0553CF812F902F9370C11087
:1043C00002C090E080E00E94200549CF802F8370DA
:1043D00091F5C11044CF412F429546954770440F47
:1043E000440F812F8F70042E01C0880F0A94EAF7C2
:1043F000212F207114FF07C02FE030E001C0220FF1
:104400004A95EAF72095302F36953695337032303D
:1044100069F050F44091E802313029F0822B842376
:104420000E9429141CCF842B822BFACF282B809139
:10443000E8028227F5CF8695CC2011F0802F81707D
:10444000882309F40CCF412F429546954770440FBD
:10445000440F812F8F70042E01C0880F0A94EAF751
:10446000212F207114FF07C02FE030E001C0220F80
:104470004A95EAF72095302F3695369533703230CD
:1044800069F050F440912C06313029F0822B8423BE
:104490000E94B713E4CE842B822BFACF282B809175
:1044A0002C068227F5CFF02FFF70BF2ECC2029F0ED
:1044B0008F2F0E940614812F27CF812F0E946E1804
:1044C0008B2D0E94C813CBCE123F89F160F4103FB0
:1044D000B9F0113F81F0CC2009F480C0D11061CE39
:1044E000802F8F7128C0133F49F1143FA1F78091AD
:1044F000F90582FD2FC0802F8F71CC2011F31BC0D6
:1045000080913D05CC2079F0D81608F0A8CE202F58
:104510002F7181E090E001C0880F2A95EAF7909111
:104520002C068927B5CF8D1508F499CEF0CF802FB2
:104530008F71C110C6CF0E94061491CE80E0CC20AE
:1045400009F4A6CF81E0902F9F7101C0880F9A9542
:10455000EAF79ECF80913705823040F1CC20D1F030
:104560009091C4029770943041F40E94AC09802F5E
:104570008F710E94C813A12C72CED816E0F7202F9D
:104580002F71B22E822F0E94061463E08B2D0E94A1
:104590001214F1CFD81630F00E94AC0964E0802FDD
:1045A0008F71F5CF81E00E94D513E5CFCC2059F073
:1045B000302F3F71B32E832F0E94061463E08B2DA2
:1045C0000E9412144CCE81E00E94D51341E04D159B
:1045D00008F045CE82E00E94D51341CED110CACE5C
:1045E000802F8F716ECFCC2019F0D11045CE48CEE0
:1045F000D11042CE20E0F701408151816281738168
:1046000084810E94E40C8091380583FF35CE80912F
:10461000670290916802029709F02ECE812F0E94C6
:104620005B192ACE0031BFE51B0709F4F5CA013139
:10463000EFE51E0709F40DCB6801E7E5DE1A8111ED
:1046400025CBFFEFCF16D10411F008F025CB6CE29B
:1046500074E08C2D0E94170E892B29F58EE08C9D1D
:10466000F0018D9DF00D1124EA5CFB4F82818130B9
:1046700009F0F1CA80912C0490912D04892B99F0B6
:1046800080912E0490912F04892B69F08091300441
:10469000909131042091320430913304822B932B7A
:1046A000892B09F4E2CA5801BB243EE0039FF001C4
:1046B0001124AF014A5C5B4F6A01D70112968C91BD
:1046C000E55CFB4F908180FB90F99083882309F48F
:1046D0007FCB0E94D4049093370380933603D60196
:1046E00012968C9112978F5F12968C9312978091ED
:1046F0002D069091FA04892B13968C931397809131
:10470000E70214968C9314971696ED91FC911797E7
:10471000309729F01C966D917C91C60109958EE029
:104720008A9DF0018B9DF00D1124EA5CFB4F858181
:1047300081FF4BCB90E080E09093EB058093EC05FC
:10474000ABCA0031FFE51F0709F47FCA01312FE52D
:10475000120709F071CF82E079CAB0E0A0E0E3EB84
:10476000F3E20C94803580917D02807F31F480915A
:104770007A02C091C102811107C0CDB7DEB7E8E06F
:104780000C949C352196C770809180028C17A9F3F8
:10479000F0907802E0907902C0907B02D0907C0289
:1047A000A6016E2D8F2D0E943605D0E08111EACF33
:1047B0008E0183E0000F111F8A95E1F7F801EF5792
:1047C000FD4F81818E11DECF80818F11DBCF828101
:1047D0008111D8CFE380F480EC18FD0860E088E711
:1047E00092E00E94070D68E772E00E942B0EE81627
:1047F000F90640F680917D028F70806180937D0282
:10480000F801EA57FD4F80818F708061808388E7CF
:1048100092E00E94201D0E94ED09AFCFA5E1B0E01B
:10482000E4E1F4E20C9479358C0185E0F801DE01D5
:10483000519601900D928A95E1F7D8015C901196FE
:104840006C9011971296EC9012971396CD90DC9085
:1048500060E088E792E00E94070D88E7A82E82E0DA
:10486000B82E80907B0290907C02A4016091790226
:10487000809178020E9436058111A8C1F0907A02D9
:10488000F601E819F9094F0160E0FF2009F44BC176
:10489000C5010E94070DB5010E942B0E70907D028C
:1048A0008816990608F0F2C040917B0250917C0274
:1048B000B0907802A0907902872D807F6A2D09F050
:1048C0008CC08B2D0E943605FE2C811127C0D8018B
:1048D00011968C9111978A1121C08C918B111EC059
:1048E00020917E0230917F0216968D919C9128171F
:1048F0003907A1F4E11012C0872D8F708061809379
:104900007D0288E792E00E94201D80917D02F801DF
:1049100085838F2D6596EFE00C949535A601662D65
:10492000852D0E943605D82E81E08E25D11080E09D
:1049300080FF18C04E2D662D852D0E94CD0988233D
:1049400089F08091380580FF0DC088E792E00E94D1
:10495000201D88E0E8E7F2E0DF011D928A95E9F783
:10496000F12CD7CF81E08E25D11080E0B82FB17027
:10497000CB2E80FF29C04E2D662D852D0E94CD099E
:10498000D82E811121C0598A6A8A89899A890E9400
:10499000BA0C292F22952F70223050F0243078F451
:1049A0009F7051F0F8019581907F31F4FD2CB1CFCB
:1049B0009F7011F08823D1F3805E8830B8F3C8016E
:1049C0000E94201DDC2CF2CFEE2009F4A2CF8091B2
:1049D0007D02816080937D02C3CF8B2D0E943605BE
:1049E000811124C0D80111968C9111978A111EC093
:1049F0008C918B111BC020917E0230917F02169604
:104A00008D919C9117972817390781F4E1100EC0FA
:104A100015967C92C8010E94201D88E0F801A8E745
:104A2000B2E001900D928A95E1F773CFC8010E9420
:104A3000C70C882339F1EE2029F180917D02803264
:104A4000A0F020917802309179023A8729871B865D
:104A5000DD86CC868E8780917E0290917F02988B36
:104A60008F87CE0109960E94201D88E0F801A8E7F3
:104A7000B2E001900D928A95E1F70E94AD23FF24E8
:104A8000F39447CFC8010E94201DF9CF872D807F66
:104A900009F45BCF909078028090790240917B027C
:104AA00050917C02682D892D0E94360581111CC011
:104AB000F8018181881118C08081891115C0209169
:104AC0007E0230917F02868197812817390761F431
:104AD000E1100AC07582C8010E94201D88E0D5013E
:104AE0001D928A95E9F715CFC8010E94C70C88234B
:104AF00049F2EE2039F280917D02803208F4B5CF80
:104B000020917802309179023A8329831B82DD82D9
:104B1000CC828E8380917E0290917F0298878F83D2
:104B2000CE010196A0CF88E792E00E94070D68E7CA
:104B300072E00E942B0E8816990680F6FE2CEE205D
:104B400009F4A0CFE0907802D090790240917B02E6
:104B500050917C026D2D8E2D0E943605811128C04A
:104B6000F80181818D1124C080818E1121C0209196
:104B70007E0230917F028681978128173907C1F420
:104B80008091380582FD49CF90917D0290FD45CFFF
:104B9000907F09F442CF80917D028583903F09F494
:104BA00039CF982F907F905F8F70892B858332CF7C
:104BB000C8010E94C70C811158CF80917D0281608D
:104BC00080937D02C8010E94201DA3CEEE2009F42F
:104BD00059CFC8010E94C70CF82E882309F452CF80
:104BE00088E0F801A8E7B2E001900D928A95E1F71C
:104BF00080917802909179020E94BA0C0E94AD23B4
:104C000088CEA0E1B0E0E7E0F6E20C948635298793
:104C10003A874B875C876D877E878F87988BCE011D
:104C200009960E940E2481112FC088E0FE0139965A
:104C3000DE01119601900D928A95E1F74C855D8514
:104C40006A8589850E94360581111EC0A091800267
:104C5000B0E0CD010196877099272091C1022817F5
:104C60001906E1F093E0AA0FBB1F9A95E1F7AF5741
:104C7000BD4F98E0FE01319601900D929A95E1F7B3
:104C8000809380020E94ED098091C1029091800280
:104C9000891312C06096E2E00C94A2350E942E1493
:104CA000109280021092C10288E0E8E7F2E0DF0192
:104CB0001D928A95E9F7E8CFB8E08B9FC0011124D7
:104CC0008F579D4F0E940E24882321F38091C102AB
:104CD00090E00196877099278093C102D5CFEF921B
:104CE000FF920F931F93CF93DF9380914605882304
:104CF00061F0C09145058CE0F82E80914605C817FB
:104D000048F01092460510924505CDB7DEB7E6E0B3
:104D10000C949E35EE24E394EC0EE09245050C2FA6
:104D200010E0CF9DE0011124C95BDA4F4B815C811B
:104D3000698188810E94360581111DC08E819F8105
:104D4000892B21F488859985019651F42881398130
:104D50004A815B816C817D818E819F810E940126C9
:104D6000F09EF001F19EF00D1124E95BFA4F1482E0
:104D7000138210922D06CE2DC0CF1092EA0510920C
:104D8000E905109244018091E8058093E7050E94AF
:104D90006F050E946F260895B0E0A0E0E2EDF6E214
:104DA0000C947735C091E70597E0892E01E010E07B
:104DB0002CE0322E3EEF932E442443948091E8055C
:104DC0008C1309C00E946F260E946F05CDB7DEB715
:104DD000E1E10C949335D0E0FE01EE0FFF1FE152AC
:104DE000FA4F80819181889ED001899EB00D112457
:104DF000A955BA4F14962C911497211158C0509070
:104E00004605E7E4F5E030E020E0712C5D01251572
:104E100008F04BC0E284F384D501CD90DC906FEFB5
:104E20007FEF612C462D50E0DA01AA0FBB1FAC0DBD
:104E3000BD1D0D90BC91A02D109731F0EA16FB0618
:104E400009F4BA016394EECF6F3F7607A9F1D80158
:104E500002C0AA0FBB1F6A95E2F77A2AB801062C96
:104E600002C0660F771F0A94E2F7AB014150510967
:104E700074161506F9F4329EF001339EF00D1124DC
:104E8000E95BFA4F889ED001899EB00D1124A95587
:104E9000BA4F12962D913C911397378326839082B7
:104EA00091829187808715964C920E9441052196A8
:104EB000C37084CF148213822F5F3F4F3C96A7CFDD
:104EC000A9E1B0E0E6E6F7E20C947635942F498B41
:104ED000252F5A8B6B8B7C8B8D8B4C895D89622F38
:104EE000892F0E943605811109C080916702909137
:104EF0006802019690936802809367028B89811102
:104F000010922D061D861E861F86188A85E0FE01DA
:104F10007196DE01199601900D928A95E1F78091C4
:104F2000F90582FF1EC080911D0590911E05892BF9
:104F3000C1F00E94D4042091C2023091C302821BAE
:104F4000930B20911D0530911E058217930720F0C9
:104F50008091C40282FFE2C10E94B30981110E94C4
:104F600079094C855D856A8589850E9436058111A0
:104F700011C061E0CE0109960E94070D6C018B857E
:104F800027EFC2162CE5D20681F4882321F181E0B7
:104F90008093440129853A854B855C856D857E85A6
:104FA0008F8598890E940126C6C038EFC3163CE55C
:104FB000D30629F4882379F00E94BD26EBCF49EF70
:104FC000C4164CE5D40639F4882329F080914401B5
:104FD0008111F2CFDCCF07EA15E0512CB12CA12CC6
:104FE00022242394312C2EEF422EF801408151814E
:104FF00088248A94982C20E0822F90E0FC01EE0F08
:10500000FF1FE40FF51F608171816115710531F09B
:10501000C616D70609F44C012F5FEECFF12CFFEF37
:105020008F169F0609F449C0F8014481F0904401AD
:105030008F2D411180E0F82FF170FF2EF801E580EF
:1050400086819B85992309F4F8C0FF2009F4F5C0F7
:105050006090310570903205E11013C0A101082C59
:1050600001C0440F0A94EAF7842B8683809143059C
:10507000909144058615970520F47092440560923E
:105080004305C10102C0880F991F2A95E2F70197D5
:10509000F80126812817190681F48091E90590917D
:1050A000EA05009709F44BC00E94B9046816790616
:1050B00008F045C021E0F80124835F28FFEFAF1A14
:1050C000BF0A095F1F4F28E0A216B10409F08DCF77
:1050D0008B85882309F40DC1552009F40AC10E946B
:1050E000D4049093EA058093E905809146058830C1
:1050F00010F591E0980F9093460598E0FE013996DF
:10510000DE01119601900D929A95E1F73CE0839FA4
:10511000C0011124895B9A4F28E0FE013196DC0121
:1051200001900D922A95E1F72FEF3FEFFC013187B7
:105130002087D386C2866996E2E10C9492358091ED
:10514000E7055091E805982FF0E0E0E0851314C0E2
:105150009093E705E017F10709F4AFCF90E0FC0169
:10516000EE0FFF1FE152FA4FB182A08201968370C9
:1051700099278093E805A1CF682E712CF301EE0FDB
:10518000FF1FE152FA4F2081318147E0429FD00159
:10519000439FB00D1124A955BA4F6D917C91119781
:1051A000798F688F40E020E030E0E32FF0E0EE0FF1
:1051B000FF1F688D798DE60FF71F80809180811425
:1051C0009104E1F0F8010190F081E02DFF8BEE8B6E
:1051D00020E005C08616970609F44F2D2F5FE22FB9
:1051E000F0E0EE0FFF1F6E897F89E60FF71F6081E9
:1051F00071816115710571F73F5FD7CF4423D1F0FD
:10520000F801231708F0FD0121E024830E171F0782
:1052100021F49093E705F42E50CF981305C0AE17F4
:10522000BF0711F49F5F937093012F5F3F4F822F51
:1052300083708CCFF0E0E0E0F7CF90E0E11020C089
:10524000B10102C0660F771F2A95E2F79B0121503A
:1052500031098217930731F4442309F448C0C5018A
:105260000E944105C101082C01C0880F0A94EAF789
:10527000982F9095F801868189238683FE2C1DCF77
:105280009C01082C02C0359527950A94E2F7A901E4
:1052900041705527BC016150710986239723892BE2
:1052A00011F5452B01F1F80182819381892BC1F021
:1052B0001B821C821D821E8249824A820E94D40463
:1052C0008160582F9D838C83F801828193818F8325
:1052D000988729813A814B816D817E810E940126C8
:1052E000F8011582BFCFF22FF170EF2EBBCFEF2C5C
:1052F000B9CF9091E7058091E805981731F00E94A9
:10530000CC26552009F446CE16CF0E946F26109267
:10531000EA051092E9050E946F05F3CF82E00E9432
:10532000D5131ACEA5E0B0E0E8E9F9E20C94863591
:105330009093F7048093F604811520E2920730F4ED
:105340000E94A9182596E2E00C94A23580EF89838B
:105350008A831B820E94D4048160782F9D838C8372
:1053600049815A816B818D810E946027EBCF0F9319
:105370001F93CF93DF938C01EB016CE274E08C2FD1
:105380000E94170E892BA1F48091390590913A055E
:105390000E94460BDD27CC5DDB4F8881F80112822D
:1053A00018828330F1F048F4813059F0823081F076
:1053B000DF91CF911F910F9108958430B9F085301E
:1053C000B9F780912C0490912D04009789F306C0C1
:1053D00080912E0490912F04009799F30E949229B6
:1053E000E7CF8091300490913104F6CF8091320460
:1053F00090913304009791F720912C0430912D0463
:1054000080912E0490912F0421153105F1F200971F
:1054100029F7C901E3CFA5E0B0E0E1E1FAE20C949D
:1054200086359093F7048093F604811520E2920765
:1054300030F40E941E1A2596E2E00C94A23580EF0B
:1054400089838A8381E08B830E94D4048160782FD2
:105450009D838C8349815A816B818D810E94602755
:10546000EACFCF93DF93EC010E940B2A809139059C
:1054700090913A050E94460BCE010E949229DF913D
:10548000CF9108950F931F93CF93DF938C01862FB5
:105490006CE274E00E94170E892BB1F4C0912C04C9
:1054A000D0912D04209781F0F8018281833051F44E
:1054B000CE010E94312ACE010E94312ACE010E94E3
:1054C000312A02C08430D0F7DF91CF911F910F9124
:1054D00008950F931F93CF93DF938C01EB016CE240
:1054E00074E08C2F0E94170E892B09F05CC0FE011E
:1054F000FF27D80112968C911297EC5DFB4F8130FB
:10550000B9F415969C9192FF02C080830AC090FF67
:10551000FCCF82E0808380912E0490912F0400972D
:10552000B9F480912C0490912D040097E1F110C002
:105530008230B9F515968C9182FD28C080FD0BC094
:1055400083E080838091300490913104009701F1D1
:105550000E940B2A28C084E08083809132049091BD
:1055600033040097A9F780912C0490912D040097A3
:10557000F9F00E94312A80912E0490912F04009717
:1055800039F780912C0490912D04E2CF85E080833F
:1055900080912C0490912D04009729F00E94312ACB
:1055A000F0CF86E08083DF91CF911F910F91089516
:1055B00080912E0490912F04B8CF1F920F920FB6B6
:1055C0000F9211242F933F934F935F936F937F9389
:1055D0008F939F93AF93BF93CF93DF93EF93FF93FB
:1055E000D091E900DF708091EC00C82FC17080FD80
:1055F000C0E81092E9008091F000877F8093F0006E
:1056000078940E9444141092E9008091F000886020
:105610008093F000CD2BCF70C093E900FF91EF9104
:10562000DF91CF91BF91AF919F918F917F916F91BA
:105630005F914F913F912F910F900FBE0F901F9050
:1056400018951F920F920FB60F9211242F933F932C
:105650004F935F936F937F938F939F93AF93BF937A
:10566000EF93FF938091E10082FF09C08091E200F7
:1056700082FF05C08091E1008B7F8093E1008091E3
:10568000DA0080FF24C08091D80080FF20C0809184
:10569000DA008E7F8093DA008091D90080FF9DC070
:1056A00080E189BD82E189BD09B400FEFDCF81E0C2
:1056B000809322068091FD05811109C00E9430036C
:1056C0000E94FB038091E20084608093E20080915D
:1056D000E10080FF17C08091E20080FF13C080913D
:1056E000E2008E7F8093E2008091E20080618093EF
:1056F000E2008091D80080628093D80019BC85E0D8
:10570000809322068091E10084FF2BC08091E2000B
:1057100084FF27C080E189BD82E189BD89B5982FCA
:10572000917080FFFBCF8091D8008F7D8093D8004F
:105730008091E1008F7E8093E1008091E2008F7E76
:105740008093E2008091E20081608093E20080918A
:105750002306882309F447C084E0809322068091C1
:1057600022068091E10083FF27C08091E20083FF41
:1057700023C08091E100877F8093E10082E08093E5
:105780002206109223068091E1008E7F8093E10033
:105790008091E2008E7F8093E2008091E200806140
:1057A0008093E20042E060E080E00E94C9038091C3
:1057B000F00088608093F000FF91EF91BF91AF916E
:1057C0009F918F917F916F915F914F913F912F9119
:1057D0000F900FBE0F901F90189519BC10922206C3
:1057E0001092FD0574CF8091E30087FD93E09093C4
:1057F0002206B5CF78941F921FB61F9211248F9363
:105800009F93AF93BF938091F4059091F505A0917C
:10581000F605B091F7050196A11DB11D8093F40521
:105820009093F505A093F605B093F705BF91AF915E
:105830009F918F911F901FBE1F9018951F921FB6AA
:105840001F9211248F939F93AF93BF938091F30581
:10585000811113C08091F4059091F505A091F60592
:10586000B091F7054196A11DB11D8093F405909369
:10587000F505A093F605B093F705BF91AF919F9101
:105880008F911F901FBE1F901895CDB7DEB7C454DF
:10589000D1090FB6F894DEBF0FBECDBF85B78068C3
:1058A00085BF85B7806885BF84B7877F84BF0FB603
:1058B000F894A895809160008861809360001092B0
:1058C00060000FBE80E890E00FB6F894809361000E
:1058D000909361000FBE8CE997E09093450280930E
:1058E00044020E9403060E94490E0E94190C0E9465
:1058F00030030E94FB038091E20084608093E20009
:105900007894809122068823A1F01091E9001F70FD
:105910009091EC00892F817090FD80E8182B1092F7
:10592000E9008091E80083FD0E9444141F701093E9
:10593000E90082E084BD93E095BD9AEF97BD809326
:105940006E0010921D0310921E0310921F031092FE
:1059500020030E94150D811102C00E94BE170E94F3
:10596000A91C811102C00E94B51C0E942E0D8093BB
:105970002C010E94AA0B81110E94143480912C01E9
:1059800080912C0194E0811190E090932A0384E0AF
:10599000891B8093290384EF0E949E0785EF0E9454
:1059A0009E0786EF0E949E0787EF0E949E0708E8E9
:1059B00011E08DE8E82E81E0F82ED8018D918D015F
:1059C0008F3F11F00E949E07E016F106B1F788E0C4
:1059D000E3E4F3E0DF01282F1D922A95E9F7E1E2E5
:1059E000F3E0DF011D928A95E9F70E94A91C81115D
:1059F00002C00E94B51C82E090E00E947436809341
:105A00002D0384E090E00E947436182F82E290E02B
:105A10000E947436982F812F9093F9058093F80592
:105A20000E944C11BFEFE6E7F1E0B150E040F040DA
:105A3000E1F700C000000E944C118091430380FFF9
:105A400008C06FEF7FEF90E080E00E94B0360E94C8
:105A5000220B83E090E00E9474360E942914109279
:105A600078038FEF9FEF909392038093910390932D
:105A7000940380939303909396038093950390935C
:105A800098038093970390939A038093990390933C
:105A90009C0380939B0390939E0380939D0390931C
:105AA000A00380939F0310924B0390936503809310
:105AB00064039093670380936603909369038093D4
:105AC000680390936B0380936A0390936D038093B4
:105AD0006C0390936F0380936E0390937103809394
