:100000000C9424030C945C030C945C030C945C032C
:100010000C945C030C945C030C945C030C945C03E4
:100020000C945C030C945C030C94512B0C940D2BDE
:100030000C944E2C0C945C030C945C030C945C03A9
:100040000C945C030C945C030C945C030C945C03B4
:100050000C945C030C942A2C0C945C030C945C03AD
:100060000C945C030C945C030C945C030C945C0394
:100070000C945C030C945C030C945C030C945C0384
:100080000C945C030C945C030C945C030C945C0374
:100090000C945C030C945C030C945C030C945C0364
:1000A0000C945C030C945C030C945C030501090242
:1000B000A10185020901A100050919012905150001
:1000C00025019505750181029501750381010501E1
:1000D000093009311581257F950275088106093897
:1000E0001581257F950175088106050C0A380215D2
:1000F00081257F950175088106C0C005010980A191
:1001000001850319012AB700150126B7009501756D
:10011000108100C0050C0901A101850419012AA064
:1001200002150126A002950175108100C005010984
:1001300006A1018506050719E029E71500250195A7
:1001400008750181020507190029EF1500250195A1
:10015000F0750181020508190129059505750191C0
:1001600002950175039101C00660FF0961A10109B3
:1001700062150026FF0095207508810209631500AD
:1001800026FF00952075089102C005010906A1010E
:10019000050719E029E71500250195087501810279
:1001A0009501750881010507190029FF150026FF33
:1001B0000095067508810005081901290595057542
:1001C000019102950175039101C0FD377A585A00DB
:1001D0000004E6D6B4460200210116000000742F88
:1001E000E5A3E0040A01685D003D888986D3DC0A46
:1001F000E842C324925842588FD8E75CA0D2616E7F
:1002000026E888019A676C7887BC8D3709EA0E1456
:1002100059A53C79858663BA247445A3F020FF2054
:10022000B3687235CC77FE57F71DCDC486FDE5E87F
:10023000F629B306CB2F5565D185696419EF22E500
:10024000BAB0BFD6BF4CAC7B257DC6396CD2CFD1FE
:100250005D8B4D68466F294B1B3AF5778D49C1E19F
:100260001BF8D633846D40F1BB1B4E60840A99CCD9
:10027000E17BF0B0639D03C65A01BC12D3549AE2ED
:1002800031546BA797124DDC410D13B3BCC94246E4
:10029000C5AB0A8EF1D5E973F93DD92653FEC44D9D
:1002A000D931CBE42DF125A68D70D5BD65D13A7E2F
:1002B000A88598CE8C9739B1D87A5E355010949B2A
:1002C000275F631F75850152EABA24692C957B412B
:1002D0008AE44B945424F66B467CEF53B898CE795D
:1002E0005D5DA052A683C0A3D6EB1DBE639E62B225
:1002F000812AA75B18D402A0B0E20F29EA85BA7759
:100300003A3B140CFE3EBBAAF23CC7E8EFB8DBD781
:1003100013A6F0868BEA6F8C945DCB7032F7560B88
:100320001663160BE54A2DB752FF7A846E365E0DC2
:10033000EBFFCEDA728E5EA70904AC4966BE0AE70F
:100340008388A51474CE20C02E3BFAD1C3F1E25DA0
:1003500000008D3399AC8CB1B007000184038B0889
:10036000000041989F35B1C467FB02000000000403
:10037000595A0000000000000000000000000000CA
:10038000000000000000000000000000000000006D
:10039000000000000000000000000000000000005D
:1003A000000000000000000000000000000000004D
:1003B000000000000000000000000000000000003D
:1003C000000000000000000000000000000000002D
:1003D000000000000000000000000000000001001C
:1003E00001000E043F0E720E0000020002000A041B
:1003F0003F0E720E0000030001000F043F0E720E4C
:10040000000004000200F4033F0E720ED506050042
:10041000010010043F0E720E000006000200F603F9
:100420003F0E720E0000070002000C043F0E720E19
:1004300000000800010011043F0E720E00000900C8
:100440000200F8033F0E720EB0060A000200FA0323
:100450003F0E720EB0060B000200FC033F0E720E40
:10046000B0060C000200FE033F0E720EB0060D0037
:10047000020000043F0E720EB0060E0002000204DD
:100480003F0E720EB0060F00020004043F0E720E03
:10049000B0061000020006043F0E720EB0061100F6
:1004A000020008043F0E720EB00612000200120491
:1004B0003F0E720E00001300020014043F0E720E75
:1004C00000001400010016043F0E720E000015001B
:1004D0000000000036063216000009025B0003012E
:1004E00000A0FA0904000001030101000921110123
:1004F00000012240000705810308000109040100F2
:100500000203000000092111010001222200070559
:1005100082032000010705030320000109040200F3
:10052000010300000009211101000122BC000705A0
:1005300084032000011201000200000008646D2302
:10054000230002010203011C037600690061006CB4
:10055000003A006600360034006300320062003367
:10056000006300000010036D0033006E003300765E
:100570000061006E0000001A034D006100740074F9
:100580000068006500770020004400690061007386
:100590000000000403090400000000000000000047
:1005A000000000000000000000000000000000004B
:1005B00000000000000000000000007E0F00D4FFDB
:1005C000FFFFC70000007800000000000000002AC4
:1005D0002B280000000000000000000000000000C8
:1005E000000029000000002C1E3420212224342683
:1005F00027252E362D3738271E1F2021222324257C
:10060000263333362E37381F0405060708090A0B30
:100610000C0D0E0F101112131415161718191A1BA2
:100620001C1D2F3130232D350405060708090A0B40
:100630000C0D0E0F101112131415161718191A1B82
:100640001C1D2F3130354C0011241FBECFEFDAE0D6
:10065000DEBFCDBF04B603FE18C080911D0590918A
:100660001E05A0911F05B09120058730904BA74033
:10067000B04B59F410921D0510921E0510921F05E3
:1006800010922005E0E0F8E3099511E0A0E0B1E068
:10069000E2EEFBE602C005900D92A638B107D9F74D
:1006A00025E0A6E8B1E001C01D92AD31B207E1F747
:1006B0000E94752C0C94C4350C940000E8EDF0E019
:1006C00080818E7F80831092E2001092DA00109277
:1006D000E100A0EEB0E08C9181608C9380818F77F7
:1006E000808319BCA7EDB0E08C918E7F8C938081C4
:1006F0008F7E80831092EC0408952091E400309165
:10070000E50095E6A9012091EC00822F817020FF81
:1007100006C08091E80080FF06C080E00895209127
:10072000E80022FD1AC080911105882389F08530E8
:1007300089F08091EB0085FD0FC02091E40030919D
:10074000E50042175307F9F29150E1F684E008956D
:1007500082E0089583E0089581E00895EF92FF928A
:100760000F931F93CF937C018B010E947D03C82FB1
:10077000811117C08091E80085FD0BC08091E800D1
:100780008E778093E8000E947D03882399F3C82F19
:1007900008C0F70181917F018093F1000150110998
:1007A00049F78C2FCF911F910F91FF90EF900895F3
:1007B0008091130587FF13C08091E80082FF06C077
:1007C0008091E8008B778093E80004C08091110548
:1007D0008111F2CF0895809111058823D9F380917A
:1007E000E80080FFF8CF8091E8008E77ECCF982F5B
:1007F0009093E900242F762F50E0891731F0709103
:10080000EC002091ED005091F00021FD07C09F5FAA
:10081000973071F78093E90081E008953091EB0003
:100820003E7F3093EB003091ED003D7F3093ED0043
:100830003091EB0031603093EB007093EC0020932B
:10084000ED005093F0002091EE0027FDE0CF80E016
:100850000895B0E0A0E0EFE2F4E00C941735C8EDA5
:10086000D0E088818F7E8883E7EDF0E08081816031
:10087000808384E082BF81E08093EC0488818E7F56
:10088000888302EE10E0F80110821092DA0081EE07
:10089000C82ED12CF601108288818F7788838881B9
:1008A0008068888388818F7D888319BC10921105A8
:1008B000109212051092100510920F0590EEE92E7D
:1008C000F12CF70180818B7F808388818160888310
:1008D00042E060E080E00E94F703F60180818E7FB5
:1008E0008083F8018081816080838081886080833B
:1008F000F70180818E7F8083888180618883CDB776
:10090000DEB7E8E00C943335FC0180911905909135
:100910001A0586179707A0F06115710529F49091C3
:10092000E8009E779093E80090E06115710551F41E
:10093000911108C08091E80082FF34C080E00895E2
:10094000BC01F2CF809111058823C1F18530C1F13E
:100950008091E80083FD30C08091E80082FDEACFFD
:100960008091E80080FFE1CF8091F3002091F200B8
:10097000382F6115710519F02830310558F091E0D4
:100980002830310509F090E02091E8002E7720937F
:10099000E800CBCF81918093F100615071092F5F06
:1009A0003F4FE7CF80911105882341F0853041F01A
:1009B0008091E80083FFBECF81E0089582E0089532
:1009C00083E0089508958091EE0408959C014FB747
:1009D000F8948091E3049091E404A091E504B0912F
:1009E000E6044FBF821B930B08952FB7F8946091D4
:1009F000E3047091E4048091E5049091E6042FBF34
:100A000008952FB7F8948091E3049091E404A091A5
:100A1000E504B091E6042FBF089520911B01222325
:100A2000C1F02091E70427FF14C0E62FE695E69574
:100A3000E695EE31F8F4E80FF92FF11D677021E02B
:100A400030E001C0220F6A95EAF78281822B82830F
:100A50000895FC0132962FEF30E04191641751F078
:100A60002F3F19F4411101C0232F3F5F3630A9F702
:100A70002F3F09F40895820F911D27FD9A95FC01DF
:100A8000628308952091E0043091E104281739072A
:100A900071F09093E1048093E004E091DE04F09122
:100AA000DF04309721F00084F185E02D0995089549
:100AB0002091DC043091DD042817390771F0909300
:100AC000DD048093DC04E091DE04F091DF043097D4
:100AD00021F00680F781E02D09950895E091DE046C
:100AE000F091DF04309729F00190F081E02D099515
:100AF000089580E00895CF93DF93EC014091CC04FA
:100B00005091CD046091CE047091CF042FB7F8942A
:100B10008091E3049091E404A091E504B091E6048F
:100B20002FBF841B950BA60BB70B843F9140A105EB
:100B3000B10518F58091CC049091CD04A091CE041C
:100B4000B091CF048093C8049093C904A093CA04C1
:100B5000B093CB0484EF91E0A0E0B0E08093C404B4
:100B60009093C504A093C604B093C704D093D40453
:100B7000C093D304DF91CF9108950E94F504609350
:100B8000C8047093C9048093CA049093CB0482E391
:100B900090E0A0E0B0E0E2CFFC018481862351F434
:100BA00092819923B9F06923808583FF05C081E094
:100BB00061110FC080E00895892F8F7092959F700A
:100BC000982B862F8F7062956F70682B81E096133B
:100BD000F1CF089581E0FDCF452B39F0682381E006
:100BE0006F3F09F080E08170089581E0FCCFDC0167
:100BF0006091C0048091C104962F891301C00895AB
:100C0000292F30E0F901EE0FFF1FE854FB4F408120
:100C100051814A175B07A1F487E08A9FA0018B9F4F
:100C2000500D112440585B4F81E0FA0184839613E4
:100C3000E6CF2F5F3F4F237033272093C0040895E2
:100C40002F5F3F4F922F9370D8CF10921D041092B8
:100C50001C04E0E8F4E08581811102C01482168250
:100C6000379684E0E83BF807B1F70895B0E0A0E0DC
:100C7000ECE3F6E00C9415358FEF9FEF443051050F
:100C800008F469C04091E70441FB882780F990E0AF
:100C9000880F991F42FB002700F910E0000F111F79
:100CA000000F111F802B912B40FBCC24C0F8D12CBE
:100CB0008C299D2943FB222720F9C22FE0E0DE2F5B
:100CC00053E0CC0FDD1F5A95E1F78C2B9D2B44FB95
:100CD000AA27A0F9B0E0E4E0AA0FBB1FEA95E1F76C
:100CE0008A2B9B2B45FBEE27E0F9F0E0A5E0EE0F09
:100CF000FF1FAA95E1F78E2B9F2B46FB222720F999
:100D000030E0B6E0220F331FBA95E1F7822B932B28
:100D100047FB222720F930E03695322F22273795DE
:100D20002795822B932B2091E804322F3170F32EDC
:100D3000E82EF92A26952170B22EBB0CA82EBF28CA
:100D4000C501BB0CAA0BBB0BFB0180839183A28363
:100D5000B38390E080E0CDB7DEB7EAE00C943135A4
:100D6000E4EFF3E0848195812AE030E0B9010E944C
:100D7000D834609316018681809315018285809313
:100D8000140184858093130186859785B9010E949B
:100D9000D8346093120180898093110182898093F5
:100DA0001001848980930F0108958091F40390913C
:100DB000F50390931801809317010895E4E8F2E099
:100DC00090E080E062E77AE249E95AE227EE39E210
:100DD0007783668351874087338722879587848707
:100DE00001963E968830910599F7089581152CE576
:100DF000920741F420910D0130910E01232B11F443
:100E000090E080E008950E9401059C0190916E029F
:100E100080916F02982B21F030936B0220936A022D
:100E20009091700280917102982B21F030936902A9
:100E300020936802E091DE04F091DF04309749F0DE
:100E400082E080936C020480F581E02D8CE692E0D4
:100E50000995089590916E02803F59F480916F0238
:100E600087FF0DC010926F0291110BC010926602A5
:100E700008C0813F81F480916F0218169CF399237A
:100E800081F08091700290917102892B09F064C009
:100E9000109265020895823F49F497FFF0CF1092B7
:100EA0006E0280916F028111ECCFE0CF833F19F485
:100EB0001916ACF3E4CF20917002893F29F4121681
:100EC000F4F610927002DBCF8A3F19F427FFD7CFD8
:100ED000F8CF209171028B3F29F427FFD0CF1092D9
:100EE0007102CDCF8C3F19F41216CCF3C8CF843FDA
:100EF00031F480916D028E7F80936D02C0CF853F6B
:100F000021F480916D028D7FF7CF863F21F480918F
:100F10006D028B7FF1CF873F21F480916D02877F37
:100F2000EBCF883F21F480916D028F7EE5CF8D3F1E
:100F300031F4809167028E7F80936702A0CF8E3F4D
:100F400021F4809167028D7FF7CF8F3F09F097CF13
:100F5000809167028B7FF0CF08958091670280FFB8
:100F60000CC06091100170E0759567957595679557
:100F70006115710549F1862F089581FF06C06091C2
:100F8000100170E075956795F3CF6091100182FDB7
:100F90000BC0909165029923A1F060910F0180919F
:100FA0001001961738F0682F70E06038710500F373
:100FB0008FE70895899FC001112470E00E94EC34EE
:100FC000F4CF61E070E0D7CF81E0089580916702AF
:100FD0006091FC037091FD0380FF16C02091140105
:100FE000269FC001279F900D1124BC01769567951F
:100FF000769567956038710508F043C061157105F5
:1010000009F441C0862F089581FF0BC0209114017F
:10101000269FC001279F900D1124BC0176956795EE
:10102000E9CF82FF09C0809114019B01829FB0012A
:10103000839F700D1124DECF209166022223D1F20E
:101040009091130180911401482F50E0291748F026
:10105000CB01849FB001859F700D949F700D11246A
:10106000C9CF289F90011124269FA001279F500DD2
:10107000369F500D1124692F70E0CA010E94D834A8
:10108000B9CF8FE7089581E00895803F31F40E9441
:10109000E607819580936F020895813F19F40E94BD
:1010A000E607F8CF823F31F40E94E60781958093EE
:1010B0006E020895833F19F40E94E607F8CF893F36
:1010C00029F40E94AD078093700208958A3F21F4AD
:1010D0000E94AD078195F7CF8B3F31F40E94AD0799
:1010E00081958093710208958C3F19F40E94AD0799
:1010F000F8CF843F31F480916D02816080936D025E
:101100000895853F21F480916D028260F7CF863F7C
:1011100021F480916D028460F1CF873F21F48091AA
:101120006D028860EBCF883F21F480916D02806171
:10113000E5CF8D3F31F48091670281608093670233
:1011400008958E3F21F4809167028260F7CF8F3F30
:10115000B9F7809167028460F1CF80E00895F89438
:10116000E82FE295EF70F0E031A1282F2F7081E099
:1011700090E001C0880F2A95EAF7982F9095932365
:1011800091A392A1892B82A3789408959091E7046A
:1011900092FF06C0282F28712830F9F4877F8460D9
:1011A00093FF06C0282F28712831F1F4877E8461CF
:1011B0002091E80420FF06C0382F38713830D9F468
:1011C000877F816021FF06C0282F28712831D1F444
:1011D000877E816194FD877E0895282F24712430B5
:1011E000F9F68B7F8860DCCF282F2471243101F73A
:1011F0008B7E8861DDCF382F3171313019F78E7FCA
:101200008860E0CF282F2171213121F78E7E8861FF
:10121000E1CFCF93DF93EC0182389105B1F108F073
:1012200040C08133910509F49DC048F5893291058C
:1012300009F48DC08A9709F49CC0C11521E5D20735
:1012400008F0C3C0C11530E5D30708F01EC1C83E81
:10125000D10508F0A3C0C03ED10588F5C83AD10534
:1012600008F08EC0C53AD10508F007C1C130D105DC
:1012700031F1209721F1C430D10508F545C08533FF
:10128000910509F45FC0C997C1F68091E7048370A6
:1012900009F044C18091E80483FF11C0C9E2D0E0A5
:1012A0000EC0833E910599F170F4803E910501F1E5
:1012B000823E910511F68091E70482FD21C0CE01A6
:1012C000DF91CF910895863E910561F1873E9105AA
:1012D00071F1843E910509F0B0CF8091E80481FF5F
:1012E000EECF8091E704C7EED0E084FD0DC0E7CFDC
:1012F0008091E70480FD33C09091E80490FFDFCF38
:10130000C3EED0E084FFDBCFD0E0C0E0D8CF809147
:10131000E70482FD00C19091E80490FDFFC084FFC6
:10132000CECFF2CF8091E70483FDDDCFC8CF80918F
:10133000E70483FDF6C09091E80491FFF0CFC4EE7E
:10134000D0E0BDCF8091E70485FFB9CFA7CF8091D2
:10135000E70485FDE9C08091E80483FFB0CFC9E3CD
:10136000D0E0ADCF8091E70486FFA9CFCAE2D0E0FC
:10137000A6CF8091E70486FFA2CFC1E3D0E09FCF44
:10138000CF3BD10508F6C85AD0E0CC0FDD1FC95DB0
:10139000DE4F0990D881C02DD46491CFC11540E2B1
:1013A000D40758F4C11581E0D80708F088CFC03FB2
:1013B000D10508F4A9CFD06582CFC11520E4D207AA
:1013C00008F4A2CFDF70D06A7ACFC11535E5D30714
:1013D00018F5C11544E5D40708F085C0C11583E5AB
:1013E000D80708F06CC0C11522E5D20708F462C026
:1013F000CE018370992721E030E002C0220F331F15
:101400008A95E2F7C695C69580E2C89FE00111244F
:10141000C22BD32BDC6853CFC11539E5D307A8F411
:10142000C11548E5D40708F063C0C11586E5D807A3
:1014300008F06ACF8C2F0E94C608C82FD0E0DC2F9E
:10144000CC27CC27DF71D0623ACFC1152AE5D2076D
:1014500008F453C0CE0190568115904208F054CF45
:101460008D2F8F710E94C60890E0982F88278827BB
:101470009F719C012C2BE901E6CFC55AD0E0CC5DD1
:10148000DE4FC881D0E0D0641ACF2C2F2695269548
:10149000237040E2249F900111248C2F8370C1E0BF
:1014A000D0E002C0CC0FDD1F8A95E2F7C22BD32B10
:1014B000DD6805CFDC2FCC27C16FD06A00CFCE010D
:1014C0008370992721E030E002C0220F331F8A95F4
:1014D000E2F7C695C69540E2C49FE0011124C22BF5
:1014E000D32BDA68ECCEDC2FCC27C46FD06AE7CEE2
:1014F000DC2FCC27C06FD06AE2CE8C2F8F700E9479
:10150000C60834E0D695C7953A95E1F7CF709C2F81
:10151000EC01D069D4CEC2EED0E0D1CEC0EED0E0A6
:10152000CECEC6EED0E0CBCEC5E3D0E0C8CE809123
:101530003402882331F01092340210923302109258
:1015400032020895CF93C82F8091E80482FF0CC027
:10155000809134028C1741F00E9401059093330270
:1015600080933202C0933402CF9108958095909178
:101570001C05982390931C05089580959091D303A2
:1015800098239093D30308959091D303892B80934C
:10159000D3030895109211021092100210920F02BC
:1015A00008958091F6039091F703892B89F00E94AA
:1015B00001052091320230913302AC01421B530BE2
:1015C00081E02091F6033091F7034217530708F4A6
:1015D00080E08170089590911B019923D1F0909142
:1015E000E70497FF16C0E82FE695E695E695EE31FD
:1015F000E0F4F0E0E857FE4F282F277081E090E0FC
:1016000001C0880F2A95EAF7809592818923828309
:101610000895EAE8F1E09191891303C0DF01119781
:101620001C9291E0E039F907B1F7089520910E027C
:101630009091CD01291302C080E0089530E0F901B6
:1016400053E0EE0FFF1F5A95E1F7E253FE4F518131
:10165000561306C05081581303C05281541304C05E
:101660002F5F3F4F2770E6CF81E0089580910E02F3
:101670009091CD01981301C008958F5F8770FACFC4
:10168000A82FA77023E0969587952A95E1F7FC018E
:10169000EE0FFF1FE80FF91FE60FF71F50E040E0C5
:1016A00080E0219130E00A2E02C0369527950A94F9
:1016B000E2F721703327042E01C0220F0A94EAF7C3
:1016C000822B4F5F5F4F4330510559F70895903F8C
:1016D000C9F0943080F48D30A8F4282F30E060EB0E
:1016E00071E0A901EDE09E9F400D511D1124CA013A
:1016F0000E94400B08959C5F923020F46DEA71E0E7
:1017000090E0F6CF80E00895262F277091E001C089
:10171000990F2A95EAF723E0769567952A95E1F7E0
:10172000FB01EE0FFF1FE60FF71FE40FF51F50E060
:1017300040E0682F70E08191DF0111979B01042E3A
:1017400002C0369527950A94E2F721702195282743
:10175000292328272C934F5F5F4F4330510559F7BA
:101760000895282F862F903F79F0943070F42D3013
:1017700058F4622F70E02DE0929F600D711D1124CE
:1017800040EB51E00E94840B08959C5F9230E0F79B
:10179000622F70E04DEA51E0F5CF92959F70963040
:1017A00091F058F4925F9F70923058F4803F19F096
:1017B00030F4883E30F481E008959A5FF4CF843F9E
:1017C000D1F380E00895883EB0F3813FD1F7F3CFA5
:1017D0009C013A9521153F4150F5FC01EE27F1702F
:1017E000BC0166277270AC01442754709C0122270B
:1017F000387094FF0EC080E1EF2B09F480E0672B76
:1018000009F08062452B09F08064232B89F0806801
:10181000089581E0EF2B09F480E0672B09F08260E6
:10182000452B09F08460232B19F08860089580E02F
:1018300008958093E9047093EB046093EA04809127
:1018400011058430F9F48093E9008FEF9091E8005E
:10185000815095FD06C095ED9A95F1F70000811134
:10186000F5CF8091E80085FF0DC050E040E063E0D7
:1018700070E089EE94E00E94AE038091E8008E77DC
:101880008093E8000895BC0184E00E94190C08953B
:10189000BC0183E00E94190C08959C0184E08093B0
:1018A000E9009FEF8091E800915085FD06C085ED2D
:1018B0008A95F1F700009111F5CF8091E80085FF3E
:1018C0000CC050E040E066E070E0C9010E94AE0349
:1018D0008091E8008E778093E8000895CF93DF939E
:1018E000EC0180911B018823B1F18091E70487FF0F
:1018F00032C060E284E08093E9008FEF9091E800CD
:10190000815095FD06C095ED9A95F1F70000811183
:10191000F5CF8091E80085FF1BC080911B0170E02E
:1019200050E040E0811104C050E040E068E070E029
:10193000CE010E94AE038091E8008E778093E8008C
:1019400080E2FE01AFEEB4E001900D928A95E1F7DE
:10195000DF91CF91089568E081E0CDCF81E0809361
:10196000E00080E28093D8001092C9008FE19EE4ED
:101970000197F1F700C0000087E090EBDC01809355
:101980001D0590931E05A0931F05B093200588E1C7
:101990009CE00FB6F894A895809360000FBE9093DA
:1019A0006000FFCF019708F40895EFE9FFE0319759
:1019B000F1F700C00000F6CF0F931F93CF93DF9392
:1019C00004EF13E0C7EDD1E0CE010E947A35F801B3
:1019D00081938F012196CB3FF1E0DF07A9F7C8EE95
:1019E000D3E0FE0185919491009711F0FC010995D7
:1019F0002C96F4E0C43EDF07A1F7DF91CF911F9151
:101A00000F910895FF920F931F93CF93DF93F42EBE
:101A1000843040F5611126C024E0829F80011124AA
:101A200009531E4F82E090E0442311F090E080E0E3
:101A3000800F911F0E947A35C82FD0E0DC2FCC2771
:101A400083E090E0FF2011F081E090E0800F911F93
:101A50000E947A359E01282BC901CDB7DEB7E5E09B
:101A60000C94363590E080E0F8CF0F931F93CF931E
:101A7000DF93843030F5643020F54D3010F5C42FFD
:101A8000D0E0CC0FDD1F2AE1629FC00DD11D1124D3
:101A900038E6839FC00DD11D1124CE0187960E9488
:101AA0007A35082F10E0102F0027CE0188960E946B
:101AB0007A359801282BC901DF91CF911F910F91A1
:101AC000089590E080E0F8CF462F672F2091D10352
:101AD0003091D203232BF9F4703F39F4403FD9F40D
:101AE0008091CF039091D00308958430A0F4743096
:101AF00028F44D3080F40E94350D08957D3F39F46F
:101B0000411109C041E060E00E94020D08957C3F50
:101B100011F44423C1F390E080E00895CF92DF9266
:101B2000FF920F931F93CF93DF936C0100911B05DE
:101B300080913502082BC7E0D0E010E0FC2EC801F0
:101B40000C2E02C0959587950A94E2F780FD0CC093
:101B50002197A0F7F12C8F2DDF91CF911F910F913D
:101B6000FF90DF90CF900895B6018C2F0E94640DF6
:101B70000E940909019761F3EECFCF93DF93EC0147
:101B80000E948E0DBE010E94640D0E940909DF9122
:101B9000CF910895CF93DF93EC014B815C816981F4
:101BA00088810E94EC05811110C08E819F81009771
:101BB00039F00E9409090E94CD0BDF91CF91089561
:101BC000888199810E94BD0DF6CF80E0F6CFA5E017
:101BD000B0E0EDEEFDE00C941C3549835A83898119
:101BE0009A81662399F0222389F00E948E0D182F86
:101BF000682F89819A810E94B10B69817A81812F36
:101C00000E94640D2596E3E00C9438350E94670B22
:101C1000182FF3CFFC01262F86819781009739F486
:101C2000408151816281738184810E94E70D089512
:101C300083E290E00E947A35883389F484E290E070
:101C40000E947A358C3F59F485E290E00E947A3503
:101C500091E08C3C09F090E0892F8170089580E03C
:101C6000FCCFCF9384E090E00E947A35C82F82E2C7
:101C700090E00E947A35982F8C2FCF910895DB0148
:101C8000FC013296259134914217530758F0FC011C
:101C9000349665917491A901CD010E945A3590E066
:101CA00080E008958FEF9FEF08950F931F93CF93D8
:101CB000DF9304EF13E0C7EDD1E0CE010E947A3547
:101CC000F80161918F01681719F0CE010E948835E3
:101CD0002196CB3FF1E0DF0781F7DF91CF911F9194
:101CE0000F910895DA019C012E5F3F4FF901459154
:101CF0005491F90125913491A217B30758F0FC01D2
:101D00003496859194910E945A350E94550E90E028
:101D100080E008958FEF9FEF0895CF93DF93CBEE90
:101D2000D2E060E0CE010E9488352196C11584E0A2
:101D3000D807B9F7DF91CF9108950F931F93CF93F1
:101D4000DF93142F022F8430F0F461111CC094E053
:101D5000899FE0011124C953DE4F82E090E04423C3
:101D600011F090E080E0632F8C0F9D1F0E9488355A
:101D700083E090E0112311F081E090E0602F8C0F60
:101D80009D1F0E948835DF91CF911F910F9108957B
:101D90001F93CF93DF93122F8430E0F46430D0F49C
:101DA0004D30C0F4C42FD0E0CC0FDD1F9AE1699F05
:101DB000C00DD11D112498E6899FC00DD11D11249D
:101DC000632FCE0187960E948835612FCE018896B9
:101DD0000E948835DF91CF911F910895CF93C82F2E
:101DE0006FEF811168E383E290E00E9488356FEF26
:101DF000C1116CEF84E290E00E9488356FEFC11151
:101E00006CEC85E290E00E948835CF910895CF93E5
:101E1000C92F682F84E090E00E9488356C2F82E201
:101E200090E00E948835CF9108959B01883070F42E
:101E30009AE0899FB001112465507E4F4AE050E03E
:101E4000C9010E946A3590E080E008958FEF9FEF0E
:101E50000895AAE0B0E0EFE2FFE00C941D359C018C
:101E600037552F3F310509F068F4BE016F5F7F4F92
:101E70000E94150F892B31F489859A852A96E2E014
:101E80000C94393580910C0490910D04F7CFAAE0A1
:101E9000B0E0EDE4FFE00C94133507E513E085E4D2
:101EA000C82E83E0D82E9BE9E92E92E0F92E27E098
:101EB000922E34E4A32E33E0B32E88248394D601EB
:101EC0000D931D936D014AE050E0B701CE010196DC
:101ED0000E946A35F8013896DF01892D1D928A9596
:101EE000E9F789819A81D80111969C938E938F810D
:101EF00012968C9312978D8113968C9313978885E5
:101F000014968C931497898515968C9315978B81CD
:101F10009C8117969C938E93169718961C921897EF
:101F20008A8587FF3CC01E961C921E921D9780FFDB
:101F300003C0D80118968C9281FF04C0F8019085E7
:101F40009260908782FF07C0D80118969C911897DD
:101F5000946018969C9383FF04C0F8019085986064
:101F6000908784FF07C0D80118969C9118979061BC
:101F700018969C9385FF04C0F80180858062808755
:101F8000015F1F4FFAE0EF0EF11C8BEEE81682E0C6
:101F9000F80609F094CF2A96ECE00C942F35F8015E
:101FA000B686A586C4CFAAE0B0E0E9EDFFE00C94C8
:101FB0001735E4EFF2E080E5DF011D928A95E9F73D
:101FC000E0E8F4E088E3DF011D928A95E9F784EF09
:101FD000C82E82E0D82E7F010BE412E0F701D182F7
:101FE000C0824AE050E0B801CE0101960E946A35F5
:101FF00088E0FE013196D60101900D928A95E1F7B5
:1020000089859A85D70113969C938E931297BAE08F
:10201000CB0ED11CE7E0EE0EF11C065F1F4F0B3913
:10202000F2E01F07D9F62A96E8E00C943335A8E0D1
:10203000B0E0EDE1F0E10C940F358E010F5F1F4F22
:1020400088E0F80111928A95E9F795E5E92E91E08B
:10205000F92E680129E5422E21E0522E6624639470
:10206000712C46E6842E41E0942EF70181917F0188
:102070008F3F09F445C0F894E82FE295EF70F0E047
:1020800021A18F70A30102C0440F551F8A95E2F76A
:10209000CA01922F982B91A392A18095892382A3A4
:1020A000789400C0E9E5F1E021E030E0B12CA12C0A
:1020B00041914F3F09F464C0A42FA295AF70B0E0E6
:1020C00090968C9190E04F7002C0959587954A95B7
:1020D000E2F780FD55C0C901A82AB92A220F331F93
:1020E0008E169F0629F7F701319780818F3F11F0F7
:1020F0000E94AF0850EA5A95F1F7F601B182A0822A
:10210000F2E0CF0ED11C4E145F0409F0AECF48E0D0
:1021100050E0B80189E392E00E944D35892B99F196
:1021200088E0F801A9E3B2E001900D928A95E1F709
:1021300081E0809338020E940105909337028093DA
:10214000360280913602909137020E94E60405978C
:10215000F0F048E050E069E372E08DE592E00E9423
:102160004D35892BC9F088E0E9E3F2E0ADE5B2E056
:1021700001900D928A95E1F781E01092380208C033
:1021800090E080E0A9CF809138028111DACF80E021
:102190002896E0E10C942B3580E0EFCFCF9380912F
:1021A000D30390911C05892B809388018091340280
:1021B000882329F18091F6039091F703892B29F068
:1021C0000E94D10A81110E94970A80918801909102
:1021D0003402892B8093880180911B01882309F4A4
:1021E00047C08091E70487FF43C08EE1EAE8F1E051
:1021F00090E0815008F03EC091110E94970AC09172
:10220000D004C09580918801C8238091D104C82B47
:10221000C093880140E250E062E172E088E891E01A
:102220000E944D35892B11F180E2E8E8F1E0A2E14E
:10223000B2E001900D928A95E1F7E091DE04F09111
:10224000DF04309799F080911B01882349F0809139
:10225000E70487FF05C0C093890186E08093880169
:102260000280F381E02D88E891E00995CF910895EF
:1022700086E0BCCF2191222309F4BBCF9F5FB9CF69
:10228000CF93DF93EC01EA85FB85309719F06C85DD
:102290007D8509958B810E94B60A8C810E94BD0ABA
:1022A0000E94CE1086E0FE0111928A95E9F7DF9137
:1022B000CF910895CF93DF93EC018D8181FD15C0FF
:1022C00082608D8380911C059B81892B80931C05E6
:1022D0008C810E94C40A0E94CE10E885F98530974F
:1022E00021F06C857D85CE0109951092DB0410925A
:1022F000DA048D8180FD03C0CE010E944011DF9180
:10230000CF91089580911901877F8093190182E010
:102310000E94B60A8091190184FF06C08F7E8093C7
:10232000190182E00E94C40A8091190185FF06C04C
:102330008F7D8093190180E20E94C40A0E94CE1012
:10234000089590E080E00E94580590E080E00E94AF
:10235000420510921C050E94CE1086E0ECE6F2E0E9
:10236000DF011D928A95E9F71092660210926502CC
:10237000109267020E940307089580931B050E9434
:10238000A111089580911B05982F9670963021F425
:1023900088600E94BD110895877FFBCF21E030E067
:1023A00001C0220F8A95EAF7209580911B058223B0
:1023B0000E94BD1108959091110280958923809308
:1023C0001102282F277091F4282F082E000C330BB0
:1023D0009217130659F09091E80492FF07C0859573
:1023E000859585950E94CE110E94CA0A0895909104
:1023F000E80492FB222720F9281769F080FB92F964
:102400009093E8048091E7049091E8040E94070FFC
:1024100082E00E94DB11089521E030E001C0220F2C
:102420008A95EAF780911B05822B0E94BD110895C1
:102430009091E80492FF10C098E0899F90011124C8
:10244000622B609311020E940C120E94010590936E
:10245000100280930F0208950E940C120895809339
:1024600035020E94A11108951092D30380911B019F
:10247000EAE8F1E0882361F08091E70487FF08C073
:102480008EE1DF011D928A95E9F70E94A11108955E
:1024900086E0F7CFAAE2B0E0E0E5F2E10C941C356B
:1024A00083E195E02091F100DC012D93CD01B5E0B1
:1024B0008B319B07B9F780911405833009F472C002
:1024C000B8F4813009F449C0823009F4B3C0809176
:1024D000E80083FF96C280911305909114059A300D
:1024E00008F08FC2E92FF0E0EA53FA4C0C94003563
:1024F0008A3009F48EC08B3009F471C0893039F705
:1025000080911305813219F7809117059091180574
:10251000009711F00297D9F68091E800877F8093A9
:10252000E8008091E80082FF38C09091F30080912C
:10253000F200029731F48091F100813011F0863081
:1025400021F48091F1008093EE048091E8008B7774
:102550008093E8000E94D803BACF80911305813A96
:1025600009F0B5CF8091E800877F8093E8008091E3
:10257000170590911805892B61F460E28FEE94E0C5
:1025800070E00E9484048091E8008B778093E800DB
:102590009ECF60E090E080E0F3CF80911105811143
:1025A000C0CF95CF80911305813A09F090CF8091EB
:1025B000170590911805892B09F089CF8091E800C3
:1025C000877F8093E8008091E80080FFFCCF8091B6
:1025D0001B018093F1008091E8008E77B9CF809144
:1025E0001305813209F073CF80911705909118057A
:1025F000892B09F06CCF8091E800877F8093E800F9
:102600000E94D8038091150580931B010E9434120B
:102610005ECF80911305813209F059CF8091E80097
:10262000877F8093E8000E94D803809116058093ED
:10263000ED044DCF80911305813A09F048CF809188
:10264000E800877F8093E8008091E80080FFFCCF5E
:102650008091ED04BECF803899F0823809F0D1C165
:10266000809117058F70873008F0CBC18093E90007
:102670008091EB0085FB882780F91092E90006C065
:1026800080910F0590911005911182609091E80062
:10269000977F9093E8008093F1001092F100809171
:1026A000E8008E77AAC1882309F498C1823009F026
:1026B000A8C18091150581119BC1809117058F706C
:1026C0002FEF280F263008F09CC18093E90020915D
:1026D000EB0020FF8DC1933031F48091EB008062DC
:1026E0008093EB0085C19091EB0090619093EB009B
:1026F00021E030E001C0220F8A95EAF72093EA003A
:102700001092EA008091EB008860EACF811179C1D4
:10271000109115051F778091E3008078812B8093BD
:10272000E3008091E800877F8093E8000E94D8034F
:102730008091E80080FFFCCF8091E3008068809367
:10274000E30082E0111183E0809311055AC18058A3
:10275000823008F056C120911505309116052C3DA8
:10276000E3E03E07A1F583E08A838AE289834FB7DD
:10277000F894DE01139620E03EE051E2E32FF0E012
:1027800050935700E49120FF03C0E295EF703F5F44
:10279000EF708E2F90E0EA30C0F0C7968D939D9336
:1027A0002F5F243159F74FBF8091E800877F8093D6
:1027B000E8006AE270E0CE0101960E9484048091F4
:1027C000E8008B778093E8001CC1C096E7CF80912A
:1027D000170590911805432F55274330510509F4EB
:1027E0004AC078F54130510509F485C08BE590E089
:1027F000EAEDF4E04230510509F003C12091E80010
:10280000277F2093E8002091190530911A0582173F
:10281000930708F49C0140E02115310509F070C0D0
:1028200041116EC08091E80082FDC9CF80911105F1
:10283000882329F2853019F28091E80083FFF2CFD6
:10284000BECF4132510509F447C04232510509F06B
:10285000D8C08330910508F0D4C0FC01EE0FFF1FF3
:10286000E758FE4F0190F081E02D8A589E4FDC0121
:102870008C9190E01DC0332721303105E9F02115FE
:10288000310579F022303105F9F02330310509F0B6
:10289000B8C0E7E4F5E0E4918E2F90E0E7E4F5E0DE
:1028A00007C0E3E9F5E0E4918E2F90E0E3E9F5E07D
:1028B000009709F4A6C0A2CFE7E7F5E0E4918E2FD8
:1028C00090E0E7E7F5E0F4CFE5E6F5E0E4918E2F60
:1028D00090E0E5E6F5E0ECCF8330910508F091C09B
:1028E000880F991FFC01E158FE4F0190F081E02D07
:1028F00089E090E083CF82E190E0E5E3F5E07ECFF0
:1029000080911105882309F45ACF853009F457CFF7
:102910008091E80083FD53CF8091E80082FD82CF53
:102920008091E80080FF78CF9091F3008091F200D1
:102930002115310519F08830910550F041E00897D4
:1029400009F040E08091E8008E778093E80064CF42
:1029500044914093F1003196215031090196E8CF1E
:10296000803809F04EC08091E800877F8093E800AE
:10297000809112058093F10092CE811142C0109196
:1029800015051230F0F58091E800877F8093E8000C
:10299000109312050E94D803112311F084E005C0A2
:1029A0008091E30087FDFACF81E08093110542E03A
:1029B00061EC81E00E94F70342E261EC84E00E9456
:1029C000F70342E261EC82E00E94F70342E260EC2E
:1029D00083E00E94F7038091110513C080911505D3
:1029E000813079F481E0933009F080E08093100524
:1029F0001092E9008091E800877F8093E8000E94B0
:102A0000D8038091E80083FF0AC08091E800877FA7
:102A10008093E8008091EB0080628093EB00AA969F
:102A2000E3E00C943835E4EFF3E0128E138E8FEA76
:102A300090E09183808325E0248F88E893E193835D
:102A400082838AE090E09583848344E150E0578359
:102A5000468348E050E051874087938782876EE144
:102A600070E0758764879787868780E590E0918B13
:102A7000808B538B428B48E250E0558B448B42E372
:102A800050E0578B468B48EC50E0518F408F158EAD
:102A9000178E168E91A380A322A30E94550E0E942A
:102AA00034121092E8041092E704E8EEF4E080811A
:102AB000846080838091E7049091E8040E94070F6E
:102AC0000E94DC0C0895AEE1B0E0E9E6F5E10C947B
:102AD0000F3560900D0170900E0181E090E09093B1
:102AE0000E0180930D0110E000E092E7A92E93E023
:102AF000B92E24E7822E23E0922E86E7E82E83E08B
:102B0000F82E512C1AC001151105D1F4F6012591AA
:102B10003491442D652D80E00E94C80E82E0C80EDD
:102B2000D11C4394EDE04E12EECF5394FAE1EF0E38
:102B3000F11C84E0581609F474C06701412CE3CFFE
:102B400021E030E0442D652D802FE6CFF501259161
:102B5000349141E060E080E00E949D0EF4012591F7
:102B6000349140E060E080E00E949D0E0F5F1F4FB7
:102B70000430110509F0C1CF0E9413151A82198281
:102B80001C821B821E821D8218861F8288EC90E0A8
:102B90009A8789870BEF11E04AE050E0B801CE0137
:102BA00001960E94AC35065F1F4F0B34E2E01E0712
:102BB00099F77E01FBE0EF0EF11C8AE0F70111921C
:102BC0008A95E9F74AE050E0B801C7010E94AC35A8
:102BD000065F1F4F0B39F2E01F07A1F77E0185E169
:102BE000E80EF11C8AE0F70111928A95E9F78FEF60
:102BF0009FEF9A8F898F87E08E8F4AE050E0B8016F
:102C0000C7010E94AC35065F1F4F0B3EF2E01F0765
:102C1000A1F770920E0160920D016E96E0E10C94A6
:102C20002B350115110509F491CF21E030E041E089
:102C300060E0802F0E949D0E21E030E040E060E0E7
:102C4000802F92CF80E00E94EE0E60E086E290E05E
:102C50000E9488350E9463150E948D0E81E00E94BB
:102C6000EE0E0895CF92DF92EF92FF928FEF9FEFDB
:102C70004430510508F46AC0FB01C080D180E28075
:102C8000F3800E9434128091E704C0FA80F9B70102
:102C9000A601769567955795479540FB81F9B70151
:102CA000A60122E076956795579547952A95D1F725
:102CB00040FB82F9B701A60133E0769567955795F9
:102CC00047953A95D1F740FB83F9B701A601E4E0B7
:102CD0007695679557954795EA95D1F740FB84F926
:102CE000B701A601F5E07695679557954795FA9552
:102CF000D1F740FB85F9B701A601A6E07695679567
:102D000057954795AA95D1F740FB86F9B701A601DB
:102D1000B7E07695679557954795BA95D1F740FBFB
:102D200087F98093E7048091E804D0FA80F9D1FA1A
:102D3000CC24C0F8C0FA81F98093E8048091E704BC
:102D40009091E8040E94070F90E080E0FF90EF90E0
:102D5000DF90CF9008950E9434122FEF84E39CE01F
:102D6000215080409040E1F700C0000088E19CE0E5
:102D70000FB6F894A895809360000FBE9093600002
:102D8000FFCF882321F00E94B60A0E94CE1008953A
:102D9000882339F090911C05982B90931C050E9474
:102DA000CE100895882321F00E94BD0A0E94CE1003
:102DB0000895882321F00E94C40A0E94CE1008952D
:102DC000882379F19CEF980F913A28F40E94EB0A3E
:102DD0000E94CE10089590E2980F983050F48770BA
:102DE00091E001C0990F8A95EAF7892F0E94BD0AE8
:102DF000EFCF9BE5980F933028F490E080E00E949D
:102E00005805089598E5980F973128F490E080E0F0
:102E10000E9442050895803F20F00E942A070E94E8
:102E200003070895FF920F931F93CF93DF93F82E1C
:102E30000091D5041091D6040115110509F449C07B
:102E40001092D4041092D3041092D0041092D104A2
:102E5000D8011696CD91DC919E013A9521153F41FE
:102E600008F4D07ED1E0C11101C0D0E0D80119969C
:102E7000ED91FC911A97309731F01B966D917C91F2
:102E800080E00995D823DD2339F08CEF8C0F813A4F
:102E900030F58C2F0E94EB0AFF2099F0E091D504C9
:102EA000F091D604808584FD0CC08091D2048823E3
:102EB00041F0808191819C0121503109203B3D45A9
:102EC000A0F00E94CE101092D6041092D504109259
:102ED000D204C801CDB7DEB7E5E00C9436350E94C8
:102EE000CE108C2F0E94E016D7CF0E947B05E9CF31
:102EF000CF93DF93EC010E94E016CE010E94E80B15
:102F00009E01205E31092830310510F0CD2B29F4C7
:102F10000E94D216DF91CF9108950E94C116FACF78
:102F2000CF93C82F8823C1F18CEF8C0F813AB0F575
:102F300080911B01882301F18091E70487FF1CC069
:102F4000EC2FE695E695E695F0E0E857FE4F828196
:102F500090E04C2F477021E030E002C0220F331F79
:102F60004A95E2F782239323892B79F08C2F0E94D4
:102F7000EB0A0E94CE1009C0EAE8F1E08191C8177F
:102F8000A9F381E0E039F807C9F76C2F88E891E0F0
:102F90000E940D050E94CE10CF91089580E28C0F03
:102FA000883048F4C77081E001C0880FCA95EAF7FD
:102FB0000E94C40AEFCFEBE5EC0FE33040F4F0E001
:102FC000EC5DFE4F808190E00E945805E5CFE8E57A
:102FD000EC0FE73150F4F0E0EE0FFF1FE95DFE4F1C
:102FE000808191810E944205D7CFC03FA8F28C2FEB
:102FF0000E9445080E940307CFCF1F93CF93DF9312
:10300000182FC0911404D0911504893321F0C09178
:103010001204D0911304812F0E949017209739F445
:10302000812F0E94E016DF91CF911F9108958FE9C3
:103030009FE00197F1F700C000002197EFCFB0E0CB
:10304000A0E0E5E2F8E10C941535EC018AE0A82E49
:103050002881222309F48FC02130C9F599818A8102
:10306000913021F422960E94FD1705C0923029F478
:1030700022960E9490172196EBCF933021F422964E
:103080000E94E016F8CF943011F02196F4CF2296EA
:1030900030E020E0AE014F5F5F4F8053990B8A30E4
:1030A000910550F02150310930F38FE99FE00197ED
:1030B000F1F700C00000F6CFA29EB001A39E700DF4
:1030C00011249C01260F371F8981EA01E3CFE22FEB
:1030D000F0E0E953FA4FB490822F86958695869555
:1030E00090E0FC01E954FA4FE4902770F12C022E95
:1030F00002C0F594E7940A94E2F731E0E322FF245A
:10310000FC01E955FA4FC490D12C022E02C0D5948F
:10311000C7940A94E2F731E0C322DD24FC01E956AA
:10312000FA4F049110E002C0159507952A95E2F731
:1031300001701127E114F10419F081EE0E9490173B
:10314000C114D10419F086EE0E9490178B2D0E94B5
:10315000FD17C114D10419F086EE0E94E016E114A7
:10316000F10419F081EE0E94E0160115110509F431
:1031700082CF8CE278CFCDB7DEB7EAE00C94313560
:10318000B0E0A0E0E6ECF8E10C9415357C015B01C1
:10319000C42FD22FFC0182818823A9F04093D90447
:1031A0000E9401059093D8048093D704C77081E0F2
:1031B00001C0880FCA95EAF70E94D916CDB7DEB7CD
:1031C000EAE00C9431351091D904141338C0809181
:1031D000D7049091D8040E94E6046C01B701C501A0
:1031E0000E94290FC816D90650F5C0E2CD0F1D1751
:1031F000C1F080E2810F883048F4177081E0012E21
:1032000001C0880F0A94EAF70E94D216C83048F429
:1032100081E09D2F977001C0880F9A95EAF70E9470
:10322000D916802F0E94FD17C83040F6D77081E074
:1032300001C0880FDA95EAF70E94D216BFCFC77097
:1032400081E001C0880FCA95EAF7F6CFCF93DF93EC
:10325000EC010E94E80B9E01205E31092830310507
:1032600010F0209741F40E94D9168C2F0E949017DD
:10327000DF91CF9108950E94C816F7CF662329F0F9
:1032800020911C05226020931C059C0130562115BD
:1032900040E2340720F0305E2115304108F49927D0
:1032A0000E9426190895B0E0A0E0E9E5F9E10C9448
:1032B00018357C018B01D42E8091190182FF8CC0BE
:1032C000C0911A04D0911B04CE15DF0521F0E11442
:1032D000F10409F081C0809119018B7F809319015D
:1032E00081FD73C08091180490911904A801481BB6
:1032F000590B81E0209117013091180142175307B3
:1033000008F480E08170F82E80911901F0FA81F9BB
:1033100080931901FE0183E0F695E7958A95E1F720
:10332000EE71FF27EC52FC4F20813181AE014F70CE
:10333000552781E090E002C0880F991F4A95E2F777
:10334000FF2009F444C0822B932B918380838091CA
:10335000D30381FF08C08091190180618093190116
:1033600082E00E94BD0A8091D30385FF08C080914E
:10337000190180628093190180E20E94BD0A6F2DBD
:10338000CE010E943E19DD2031F080910F0485FFAF
:1033900002C086FF3BC080911204909113040E94EA
:1033A000D20C80911A0490911B049C013056211577
:1033B00040E2340720F0305E2115304108F49927AF
:1033C0000E9478170E9482111DC081E09BCF8095DA
:1033D000909582239323B9CFC7019927970130563F
:1033E000211540E2340728F0305E2115304108F005
:1033F000C7010E94781780911A0490911B048E15C2
:103400009F0501F31093190400931804CDB7DEB79C
:10341000E7E00C94343568EE7EEF90E080E00E94A7
:10342000A63560E082E090E00E94883560E083E0AD
:1034300090E00E9488351092350260E084E090E0D0
:103440000E94883564E082E290E00E94883560E066
:1034500085E090E00E94883560E086E090E00E9480
:1034600088356FEF87E090E00E94883540E050E0BB
:10347000BA0188E090E00E949A3560E08DE090E02B
:103480000E94883540E050E0BA0188E190E00E9457
:103490009A3560E087E190E00E94883540E050E096
:1034A000BA018CE190E00E949A3570E060E080E221
:1034B00090E00E94A63540E050E0BA0188E190E03B
:1034C0000E949A3580E00E94EE0E0E94221640E093
:1034D00050E0BA018FE090E00E949A3540E050E061
:1034E000BA0183E190E00E949A350895A7E0B0E028
:1034F000ECE7FAE10C940D357C01DC0113964D915B
:103500005C91149711966C9111978C910E94EC0527
:103510008111EEC061E0C7010E940A0E8C01F70123
:1035200082818823E1F08091DA049091DB04009796
:10353000B1F00817190799F0FEE08F9FC001112420
:10354000FC01E757FD4F2081246020838C579D4F5D
:10355000DC010D931C930E945A1110921C05F70177
:103560008281882311F40C942623C80182519F453F
:10357000409710F00C941A238FEF93E00E947A3555
:103580008111A6C07EEED72ED00E0BEE12E0D11028
:1035900036C019821A821B821C8299249A9468016F
:1035A0002FEFC21AD20AC8010E947A3589831A8283
:1035B000882309F48DC0813009F07FC0580132E0C2
:1035C000A30EB11CC6010E947A35C82E8A838823B7
:1035D00009F47EC0C5010E947A35D82E8FEF8C0D7C
:1035E0008330D8F4580143E0A40EB11CDB82DD2007
:1035F00021F0CE0101960E941F188501D0CF011540
:10360000F4E01F0709F464C0C8010E947A358111F3
:1036100001C0DA940F5F1F4FBACF8BEF8C0D833050
:1036200030F5C8010396DB825C01DD2031F35801DF
:1036300054E0A50EB11C0E947A358C838823E9F2F0
:103640008B819C818130AFEF9A0710F0982F8827EB
:10365000B6E0CB1631F0E7E0CE1631F00E94612AD9
:10366000CCCF0E943B2AC9CF0E94C229C6CFF4E02A
:10367000CF12C3CF580124E0A20EB11CC80103969B
:103680000E947A35DD2021F1882311F18150990BB8
:10369000989E9001999E300D11244D2D4150550B4F
:1036A000CA01820F931F019708F4A7CFAFE9BFE0CB
:1036B0001197F1F700C00000F6CFCE0101960E94ED
:1036C0001F1856019ACF81E00E940C120E94C2116D
:1036D00080911102877061F0D70112968C91882336
:1036E00039F08091E80482FF03C082E00E94DB1180
:1036F0002796E2E10C94293581E00E94CE11E6CFB5
:1037000082E0FBCF823009F0DFC780917E0290918A
:103710007F02892B09F4D8C72EE02C9DC0012D9D76
:10372000900D1124FC01E757FD4F20812E7F20834F
:103730008C579D4F0E945A11C7C781E080930001AA
:10374000C7CF80910001882309F4A0C6480120EE6C
:10375000821A9108409034028091AA01482A8091EF
:10376000D303482A38E08316910408F086C09801F4
:103770002770332781E090E001C0880F2A95EAF78F
:10378000552009F477C0482AD7018D919C910E9459
:10379000670B21E030E0F90102C0EE0FFF1F8A95B0
:1037A000E2F7FF83EE832090D5043090D60460903A
:1037B000A8017090A9011D822D81E22FF0E0EE0F8B
:1037C000FF1FEB5BFC4FC080D180C114D10409F412
:1037D000C1C6411005C0D60112968C91811189C0D5
:1037E000F601838190E02E813F8182239323892BF0
:1037F00009F47FC08085982F977009F487E038E03E
:103800008316910408F053C0552009F44CC08695E6
:103810008170882309F46DC0D601AD90BC900A1563
:103820001B0519F4552009F464C0C214D30409F42B
:1038300060C0D6011D96ED91FC91309721F08081FA
:10384000882309F456C0642DC6010E94CC05882344
:1038500009F44FC00A151B0509F056C701151105DB
:1038600009F457C7511057C7A614B70409F041C04F
:10387000512C51C78095482287CF552009F453C653
:103880001093A9010093A8010E94F5046093CC0451
:103890007093CD048093CE049093CF041092D404FF
:1038A0001092D30471CF82FB882780F9B2CF5520C4
:1038B00001F18170AECF0E94E0164BC70497813AA8
:1038C000910558F46A2D88E891E00E940D05552075
:1038D00009F4DCC50E94CE10FBCE0E94CE108FE30F
:1038E0009CE90197F1F700C000008A2D0E94901713
:1038F000EECF9D819F5F9D835FCFFC012081318151
:103900000217130709F0BBC55110BBC51092D204B2
:1039100080E00E941217BAC5902F812FFFC5F901D0
:10392000858181FF2BC6C9010E94401127C6809165
:1039300019018160809319014FC6809119018E7F12
:10394000809319010E94821147C6809119018F7ED0
:10395000013E110531F0053E1105C9F480911901B0
:103960008F7D809319018091190180FF44C6D70192
:1039700012968C910832110528F50E31110508F0C8
:1039800072C00430110580F5811131C634C6C801FA
:103990009056811540E2940720F0905E8115904189
:1039A00010F78091190182FF26C68091110481FDD4
:1039B00022C62EE432E040E0B60190E080E00E94B2
:1039C000531919C60933110558F40D32110518F4AD
:1039D0000B321105C9F690910F0492FDD5CF08C0A6
:1039E00004361105C1F3D0CF90910F0494FDCCCFD4
:1039F000882309F4A8C0809134029091D303892BC5
:103A00008D7FB1F110921B0410921A0480910F0463
:103A100081FD2EC0F80143E0F695E7954A95E1F760
:103A2000EE71FF27EC52FC4F98012F70332781E095
:103A300090E002C0880F991F2A95E2F78095909533
:103A400020813181822393239183808360E0C801A8
:103A50000E943E19809134028D7F0E94A20A82E06A
:103A60000E94DB1135CE90910F0493FD8DCFC0CF16
:103A700088E0F701AEE4B2E001900D928A95E1F79B
:103A800010925002109252021092510280911A0428
:103A900090911B0408171907D1F520910F0425FFF9
:103AA00036C03091190131FF02C026FF30C020918D
:103AB0001804309119045601A21AB30AB7010E94E2
:103AC000290FA816B90618F58091D30381FF08C005
:103AD0008091190180618093190182E00E94BD0AE2
:103AE0008091D30385FF08C0809119018062809383
:103AF000190180E20E94BD0A60911901669561700A
:103B000080911A0490911B040E943E19E1CD80918E
:103B100034029091D303982B2091190191FB21F944
:103B2000209319018D7F0E94A20A10931B04009319
:103B30001A04D0921904C09218048091190184606B
:103B4000809319018CCF970140E0B601C8010E9413
:103B50005319BECD053F4CE5140709F463C008F4C2
:103B60005BC0063F8CE5180709F462C0D7011296C6
:103B70008C91882309F484C01092D9040330BDE5E8
:103B80001B0708F061C00A3FECE51E0730F4C801CE
:103B900082509C45449708F063C00E94310E909378
:103BA000E8048093E70402314CE5140709F499C155
:103BB00008F0E9C009308CE5180709F470C108F075
:103BC000B3C00530ACE51A0709F45DC108F09AC02E
:103BD0000330ECE51E0709F44EC108F050C1809196
:103BE000E704816002302CE5120709F4C9C0809116
:103BF000E7049091E8040E94070F0E94341268CDF8
:103C000007E225EE45EE68ED7CE510C506E221EE03
:103C100040EE63EF7CE50AC507E225EE44EE64EF73
:103C20007CE504C506E221EE42EE65EF7CE5FEC4CC
:103C300007E225EE46EE66EF7CE5F8C408E221E0F7
:103C400045EE69ED7CE5F2C4053AFDE51F0709F490
:103C5000A4CF08F050C001363DE5130709F49DCF0D
:103C60000A354DE5140709F48BC108F064C101154C
:103C70008CE5180709F46AC10E3D1C4509F473C1AF
:103C8000F70186819781009709F47EC10E94090996
:103C9000182F092FF701D280C580C2943FE0C322BC
:103CA000809111028770C1F0AD2CDD20B1F0892F19
:103CB000807F803421F080E2810F883068F080912D
:103CC000E80482FF09C082E00E94DB1180911102AA
:103CD0008770AA24A3948111A12C902E92942FE096
:103CE0009222FBE0F91508F4DCC1E92DF0E0E05385
:103CF000FA4C0C940035C8018D5A9D45039708F085
:103D0000AFCF4BCF8091E704806207303CE51307CB
:103D1000B9F18091E704806108304CE5140780F127
:103D20008091E70480642CC00D305CE5150709F430
:103D3000C0C090F48091E7048E7F0B309CE519079A
:103D4000F9F08091E7048C600C30ACE51A07C0F004
:103D50008091E7048D7F14C00F30BCE51B0709F488
:103D6000B8C008F4AAC00031FCE51F0709F4B5C0CB
:103D70008091E7048F7B01312CE5120709F037CFE2
:103D80008093E70434CF0F3F3CE5130709F4B3C039
:103D9000A8F50A3F5CE5150709F479C0C0F40431C1
:103DA0009CE5190709F4B5C008F4A1C00531BCE5CC
:103DB0001B0709F01CCF8091E70482FB992790F93B
:103DC00021E0922790FB82F990FB83F9D9CF0C3F39
:103DD000ECE51E0709F475C008F45DC00D3F2CE545
:103DE000120709F472C08091E80483600E3F3CE53D
:103DF000130709F0FCCE8093E804F9CE01364DE5B7
:103E0000140709F491C090F401308DE5180709F406
:103E100089C008F474C060E00230ADE51A0709F00B
:103E2000E6CE8EE090E00E948835E1CE0D3ABDE509
:103E30001B07E9F060F49091E704892F8E7F90FFD3
:103E40008160053AFDE51F0709F49ACFD0CE0E3AFE
:103E50002DE5120751F10F3A3DE5130709F0C7CEE2
:103E60009091E804892F877F93FF8860C4CF809169
:103E7000E8048860C0CF8091E704826081CF8091A0
:103E8000E70484607DCF8091E704886079CF8091DA
:103E9000E8048160B0CF8091E8048260ACCF0E94DA
:103EA00034128091E70480686BCF8091E804877FAB
:103EB000A2CF8091E7048B7F63CF8091E704877F57
:103EC0005FCF8091E8048E7F96CF8091E8048D7F4C
:103ED00092CF8091E7048F7E53CF8091E7048F7D4E
:103EE0004FCF0E9434128091E7048F7749CF8091A1
:103EF000E704837F45CF8091E8048C7F7CCF80915D
:103F0000E804982F909591708E7F892B90FB81F912
:103F100072CF0E9434129091E704892F97FB87F9A2
:103F200080582ECF61E07DCF9091E704892F8F7E5E
:103F300094FF806125CF0C35ADE51A07B9F010F17B
:103F4000073A1D4509F09CCE0E94AB160E94341220
:103F5000FFEF24E33CE0F15020403040E1F700C0A7
:103F600000000E94AE0C0E940B1AEECF8091E80474
:103F700082FB882780F991E089270E94F71180CE83
:103F800081E0FBCF80E0F9CF82810081118188231D
:103F900069F0C8010E948E0DD82E682FC8010E94BA
:103FA000B10BB8018D2D0E94640D70CEC8010E9426
:103FB000670BD82EF6CF202F2F70B22E802F807F48
:103FC00019F0B29490EFB922DD20A9F0BB2059F08E
:103FD00080E2810F883010F0111107C08B2D0E94F4
:103FE000C40A0E94CE10812F5AC080911C05B82AA5
:103FF000B0921C05F6CF812F0E94E016BB2009F479
:1040000050C080E2810F883010F0111104C08B2D58
:104010000E94BD0A03C08B2D0E94B60A0E94CE10DA
:1040200040C0302F3F70B32E802F807F803219F038
:10403000B29480EFB822112321F1113009F4AEC0FF
:10404000DD2009F4B7C0CC2009F47FC020E0D701FF
:104050004C9111965C91119712966C911297139650
:104060007C91139714968C910E94E70D8091110416
:1040700081FDB9CFF701858180FFB5CF8F70858332
:1040800064C08091E80482FD40C0DD20C1F1BB2006
:1040900029F08B2D0E94C40A0E94CE1080E00E945D
:1040A0009017A92DA850BB0B149710F40E946E0511
:1040B000812F902F0E94CD0B8111C2C11092AC01B3
:1040C0001092AB01AA20B1F08091110280FD12C0C4
:1040D000D70112961C928595859585950E940C12A4
:1040E000C7010E94761A8091110285958595859564
:1040F0000E94CE1160E0C7010E940A0EF9CA80E05A
:104100000E94E016BB2069F282CFDD2011F1C110C0
:1041100004C0809134028B2919C041E0C41206C04A
:10412000809134028B290E94A20ABBCF8091100497
:10413000823078F3C812EDCF0E94970A9091AA01BD
:104140008B2D892B89138093AA018B2D0E94D91660
:10415000A8CFC11003C00E94970A17C08091100415
:1041600051E0C51216C0823008F49BCF8091D30372
:104170008B2109F496CF0E94970A9091AA018B2D6A
:104180008095892389138093AA018B2D0E94D216D2
:1041900088CF823000F38C11DECF83CF809116045C
:1041A000DD2021F08C1508F47CCFCFCFC81608F0A5
:1041B00078CFEBCFCC2049F3809114049091150473
:1041C000193321F080911204909113040E94D20CB3
:1041D000812F0E94E01665CF802F8695869583708B
:1041E00069F0813009F05DCF812F902F9370D1104D
:1041F00002C090E080E00E94420553CF812F902FB3
:104200009370D11002C090E080E00E94580549CF21
:10421000812FDD2029F00E9445080E94030741CF2D
:104220000E942A07FACF802F837091F5D11039CFE1
:10423000412F429546954770440F440F812F8F7050
:10424000042E01C0880F0A94EAF7212F207114FF71
:1042500007C02FE030E001C0220F4A95EAF7209511
:10426000302F369536953370323069F050F44091E6
:104270003502313029F0822B84230E942F1211CF76
:10428000842B822BFACF282B809135028227F5CF01
:104290008695DD2011F0802F8170882309F401CFED
:1042A000412F429546954770440F440F812F8F70E0
:1042B000042E01C0880F0A94EAF7212F207114FF01
:1042C00007C02FE030E001C0220F4A95EAF72095A1
:1042D000302F369536953370323069F050F4409176
:1042E0001B05313029F0822B84230E94BD11D9CEC9
:1042F000842B822BFACF282B80911B058227F5CFA8
:10430000F02FFF70BF2EDD2029F08F2F0E940C129E
:10431000812F1CCF812F0E94D2168B2D0E94CE118F
:10432000C0CE123F89F160F4103FB9F0113F81F027
:10433000DD2009F480C0C11056CE802F8F7128C0B7
:10434000133F49F1143FA1F78091E80482FD2FC08B
:10435000802F8F71DD2011F31BC080911604DD20AA
:1043600079F0C81608F09DCE202F2F7181E090E0E3
:1043700001C0880F2A95EAF790911B058927B5CFD0
:104380008C1508F48ECEF0CF802F8F71D110C6CF50
:104390000E940C1286CE80E0DD2009F4A6CF81E0D9
:1043A000902F9F7101C0880F9A95EAF79ECF809158
:1043B0001004823040F1DD20D1F09091110297700D
:1043C000943041F40E94CA0A802F8F710E94CE114E
:1043D000A12C67CEC816E0F7202F2F71B22E822FA6
:1043E0000E940C1263E08B2D0E941812F1CFC816A8
:1043F00030F00E94CA0A64E0802F8F71F5CF81E00F
:104400000E94DB11E5CFDD2059F0302F3F71B32E34
:10441000832F0E940C1263E08B2D0E94181241CE54
:1044200081E00E94DB1141E04C1508F03ACE82E0B9
:104430000E94DB1136CEC110BFCE802F8F716ECFA0
:10444000DD2019F0C1103ACE3DCEC11037CE20E0AC
:10445000F701408151816281738184810E94E70D5F
:104460008091110483FF2ACE8091AB019091AC0121
:10447000029709F023CE812F0E94FD171FCE5520F1
:1044800029F0DC0118968C9185FF42CAC801975526
:104490008F3F910511F008F071C05801BB24BEE0B8
:1044A0000B9FF00111249F012C573D4F6901D7014B
:1044B00012968C91E757FD4F908180FB90F9908385
:1044C000882309F42CCA0E94010590934D02809321
:1044D0004C02F60182818F5F828380911C0590914E
:1044E000D303892B83838091340284830680F781F0
:1044F000E02D309731F0D6011C966D917C91C6016C
:1045000009958EE08A9DF0018B9DF00D1124EC57EA
:10451000FD4F858181FF00CA90E080E09093DA042E
:104520008093DB042BC08091A8019091A90108170A
:10453000190781F41092A9011092A8011092CC04DD
:104540001092CD041092CE041092CF041092D40495
:104550001092D3048091D5049091D604009709F469
:1045600095CFA8E08A16910408F0C7C9642D0E946F
:10457000CC05811103C081E00E94121780910F04C5
:1045800080FF39C00E9401056C01D70112968C9101
:10459000882309F4DAC98091190182FF08C02EE44A
:1045A00032E040E0B60190E080E00E9453190B3108
:1045B000BCE51B0709F4BBC90C31ECE51E0709F487
:1045C000BCC990911901892F8E7F90FF81600A31BB
:1045D000FCE51F0709F4B4C9C8019056811520E213
:1045E000920728F0905E8115904108F0BCC91092A6
:1045F0001B0410921A04033FBCE51B0709F406CB09
:1046000008F0A8CA083DFCE51F0709F4F9CA093DEE
:104610002CE5120709F412CB073D3CE5130709F01E
:10462000A5CA06E221EE41EE67ED7CE5C7010E94D6
:10463000C0184EC80031FFE51F0709F444C8013116
:104640002FE5120709F040C082E03EC800313FE587
:10465000130709F451C801314FE5140709F450C894
:104660006801E7E5DE1AFFEFCF16D10409F060F527
:104670006AE772E08C2D0E94150F892B29F58EE0D8
:104680008C9DF0018D9DF00D1124EC57FD4F828122
:10469000813009F037C880917A0290917B02892B92
:1046A00099F080917C0290917D02892B69F0809134
:1046B0007E0290917F022091800230918102822BB4
:1046C000932B892B09F428C8D70112965C905520AA
:1046D00009F437C80F35BDE51B0709F42EC80036AD
:1046E000EDE51E0751F00E35FDE51F0709F029C85D
:1046F00080910001882309F420C81092000180E015
:104700000E9412170C94681BA114B10409F0ACC8E4
:10471000512CB12CA12C80E00E941217D092D6040B
:10472000C092D50481E08093D204F6018581809304
:10473000D00451100EC0AB2861F0F6018081918148
:104740009C0124503109213A310508F0B4C80E9477
:10475000EB0AD6011696AD90BC90C5019A958115CD
:104760009F4110F4E0EEBE2277247394C5010197B7
:10477000803B9D4508F0712CD6011996ED91FC9176
:104780001A97309731F01B966D917C9181E00995D5
:104790007822772079F0F601868197810E94E80BD4
:1047A0008093D104C501F8E08F16910408F086C803
:1047B0000E947B050E94CE108AC8B0E0A0E0E3EE24
:1047C000F3E20C9417358091CA01807F31F4809117
:1047D000C701C0910E02811107C0CDB7DEB7E8E076
:1047E0000C9433352196C7708091CD018C17A9F3B5
:1047F000F090C501E090C601C090C801D090C901F9
:10480000A6016E2D8F2D0E94EC05D0E08111EACF1C
:104810008E0183E0000F111F8A95E1F7F801E25342
:10482000FE4F81818E11DECF80818F11DBCF82819F
:104830008111D8CFE380F480EC18FD0860E085ECAE
:1048400091E00E940A0E65EC71E00E94290FE816C3
:10485000F90640F68091CA018F7080618093CA0189
:10486000F801ED52FE4F80818F708061808385EC6E
:1048700091E00E94761A0E94360BAFCFA5E1B0E01E
:10488000E4E4F4E20C9410358C0185E0F801DE01DB
:10489000519601900D928A95E1F7D8015C9011969E
:1048A0006C9011971296EC9012971396CD90DC9025
:1048B00060E085EC91E00E940A0E85ECA82E81E074
:1048C000B82E8090C8019090C901A4016091C601E2
:1048D0008091C5010E94EC058111A8C1F090C7012B
:1048E000F601E819F9094F0160E0FF2009F44BC116
:1048F000C5010E940A0EB5010E94290F7090CA01DD
:104900008816990608F0F2C04091C8015091C9017B
:10491000B090C501A090C601872D807F6A2D09F057
:104920008CC08B2D0E94EC05FE2C811127C0D80174
:1049300011968C9111978A1121C08C918B111EC0F8
:104940002091CB013091CC0116968D919C91281726
:104950003907A1F4E11012C0872D8F708061809318
:10496000CA0185EC91E00E94761A8091CA01F80193
:1049700085838F2D6596EFE00C942C35A601662D6E
:10498000852D0E94EC05D82E81E08E25D11080E087
:1049900080FF18C04E2D662D852D0E94160B882392
:1049A00089F08091110480FF0DC085EC91E00E9498
:1049B000761A88E0E5ECF1E0DF011D928A95E9F7CF
:1049C000F12CD7CF81E08E25D11080E0B82FB170C7
:1049D000CB2E80FF29C04E2D662D852D0E94160BF3
:1049E000D82E811121C0598A6A8A89899A890E94A0
:1049F000BD0D292F22952F70223050F0243078F4ED
:104A00009F7051F0F8019581907F31F4FD2CB1CF6A
:104A10009F7011F08823D1F3805E8830B8F3C8010D
:104A20000E94761ADC2CF2CFEE2009F4A2CF8091FE
:104A3000CA0181608093CA01C3CF8B2D0E94EC050F
:104A4000811124C0D80111968C9111978A111EC032
:104A50008C918B111BC02091CB013091CC0116960B
:104A60008D919C9117972817390781F4E1100EC09A
:104A700015967C92C8010E94761A88E0F801A5EC90
:104A8000B1E001900D928A95E1F773CFC8010E94C1
:104A9000CA0D882339F1EE2029F18091CA018032B4
:104AA000A0F02091C5013091C6013A8729871B8665
:104AB000DD86CC868E878091CB019091CC01988B3E
:104AC0008F87CE0109960E94761A88E0F801A5EC3E
:104AD000B1E001900D928A95E1F70E94DD23FF2459
:104AE000F39447CFC8010E94761AF9CF872D807FB3
:104AF00009F45BCF9090C5018090C6014091C80138
:104B00005091C901682D892D0E94EC0581111CC0AE
:104B1000F8018181881118C08081891115C0209108
:104B2000CB013091CC01868197812817390761F438
:104B3000E1100AC07582C8010E94761A88E0D5018A
:104B40001D928A95E9F715CFC8010E94CA0D8823E6
:104B500049F2EE2039F28091CA01803208F4B5CFD3
:104B60002091C5013091C6013A8329831B82DD82E1
:104B7000CC828E838091CB019091CC0198878F83DA
:104B8000CE010196A0CF85EC91E00E940A0E65EC63
:104B900071E00E94290F8816990680F6FE2CEE20FF
:104BA00009F4A0CFE090C501D090C6014091C801A2
:104BB0005091C9016D2D8E2D0E94EC05811128C0E8
:104BC000F80181818D1124C080818E1121C0209136
:104BD000CB013091CC018681978128173907C1F428
:104BE0008091110482FD49CF9091CA0190FD45CF7B
:104BF000907F09F442CF8091CA018583903F09F4E8
:104C000039CF982F907F905F8F70892B858332CF1B
:104C1000C8010E94CA0D811158CF8091CA018160DC
:104C20008093CA01C8010E94761AA3CEEE2009F42F
:104C300059CFC8010E94CA0DF82E882309F452CF1B
:104C400088E0F801A5ECB1E001900D928A95E1F7BA
:104C50008091C5019091C6010E94BD0D0E94DD2387
:104C600088CEA0E1B0E0E7E3F6E20C941D35298799
:104C70003A874B875C876D877E878F87988BCE01BD
:104C800009960E943E2481112FC088E0FE013996CA
:104C9000DE01119601900D928A95E1F74C855D85B4
:104CA0006A8589850E94EC0581111EC0A091CD0105
:104CB000B0E0CD0101968770992720910E02281748
:104CC0001906E1F093E0AA0FBB1F9A95E1F7A253F2
:104CD000BE4F98E0FE01319601900D929A95E1F752
:104CE0008093CD010E94360B80910E029091CD01F0
:104CF000891312C06096E2E00C9439350E94341298
:104D00001092CD0110920E0288E0E5ECF1E0DF0197
:104D10001D928A95E9F7E8CFB8E08B9FC001112476
:104D200082539E4F0E943E24882321F380910E02DD
:104D300090E001968770992780930E02D5CFEF926D
:104D4000FF920F931F93CF93DF9380911F048823CB
:104D500061F0C0911E048CE0F82E80911F04C817EA
:104D600048F010921F0410921E04CDB7DEB7E6E0A3
:104D70000C943535EE24E394EC0EE0921E040C2FD7
:104D800010E0CF9DE0011124C05EDB4F4B815C81C0
:104D9000698188810E94EC0581111DC08E819F81EF
:104DA000892B21F488859985019651F428813981D0
:104DB0004A815B816C817D818E819F810E94312639
:104DC000F09EF001F19EF00D1124E05EFB4F148285
:104DD000138210921C05CE2DC0CF1092C3041092E6
:104DE000C20410921A018091C1048093C0040E94F1
:104DF00025060E949F260895B0E0A0E0E2E0F7E2D9
:104E00000C940E35C091C00497E0892E01E010E0AB
:104E10002CE0322E3EEF932E442443948091C10423
:104E20008C1309C00E949F260E942506CDB7DEB7CD
:104E3000E1E10C942A35D0E0FE01EE0FFF1FE854AB
:104E4000FB4F80819181889ED001899EB00D1124F5
:104E5000A058BB4F14962C911497211158C0509014
:104E60001F04E0E2F4E030E020E0712C5D01251544
:104E700008F04BC0E284F384D501CD90DC906FEF55
:104E80007FEF612C462D50E0DA01AA0FBB1FAC0D5D
:104E9000BD1D0D90BC91A02D109731F0EA16FB06B8
:104EA00009F4BA016394EECF6F3F7607A9F1D801F8
:104EB00002C0AA0FBB1F6A95E2F77A2AB801062C36
:104EC00002C0660F771F0A94E2F7AB014150510907
:104ED00074161506F9F4329EF001339EF00D11247C
:104EE000E05EFB4F889ED001899EB00D1124A05832
:104EF000BB4F12962D913C91139737832683908256
:104F000091829187808715964C920E94F705219691
:104F1000C37084CF148213822F5F3F4F3C96A7CF7C
:104F2000A9E1B0E0E6E9F7E20C940D35942F498B46
:104F3000252F5A8B6B8B7C8B8D8B4C895D89622FD7
:104F4000892F0E94EC05811109C08091AB019091DD
:104F5000AC0101969093AC018093AB018B898111D8
:104F600010921C051D861E861F86188A85E0FE018C
:104F70007196DE01199601900D928A95E1F7809164
:104F8000E80482FF1EC08091F6039091F703892BFD
:104F9000C1F00E94010520910F0230911002821B86
:104FA000930B2091F6033091F7038217930720F0BB
:104FB0008091110282FFE2C10E94D10A81110E94F8
:104FC000970A4C855D856A8589850E94EC0581116B
:104FD00011C061E0CE0109960E940A0E6C018B851A
:104FE00027EFC2162CE5D20681F4882321F181E057
:104FF00080931A0129853A854B855C856D857E8570
:105000008F8598890E943126C6C038EFC3163CE5CB
:10501000D30629F4882379F00E94ED26EBCF49EFDF
:10502000C4164CE5D40639F4882329F080911A017E
:105030008111F2CFDCCF00E814E0512CB12CA12C6F
:1050400022242394312C2EEF422EF80140815181ED
:1050500088248A94982C20E0822F90E0FC01EE0FA7
:10506000FF1FE40FF51F608171816115710531F03B
:10507000C616D70609F44C012F5FEECFF12CFFEFD7
:105080008F169F0609F449C0F8014481F0901A0177
:105090008F2D411180E0F82FF170FF2EF801E5808F
:1050A00086819B85992309F4F8C0FF2009F4F5C097
:1050B00060900A0470900B04E11013C0A101082C49
:1050C00001C0440F0A94EAF7842B868380911C0464
:1050D00090911D048615970520F470921D0460922E
:1050E0001C04C10102C0880F991F2A95E2F701979D
:1050F000F80126812817190681F48091C204909145
:10510000C304009709F44BC00E94E60468167906B0
:1051100008F045C021E0F80124835F28FFEFAF1AB3
:10512000BF0A095F1F4F28E0A216B10409F08DCF16
:105130008B85882309F40DC1552009F40AC10E940A
:1051400001059093C3048093C20480911F048830AA
:1051500010F591E0980F90931F0498E0FE013996A6
:10516000DE01119601900D929A95E1F73CE0839F44
:10517000C0011124805E9B4F28E0FE013196DC01C6
:1051800001900D922A95E1F72FEF3FEFFC01318757
:105190002087D386C2866996E2E10C9429358091F6
:1051A000C0045091C104982FF0E0E0E0851314C0D2
:1051B0009093C004E017F10709F4AFCF90E0FC0131
:1051C000EE0FFF1FE854FB4FB182A082019683705F
:1051D00099278093C104A1CF682E712CF301EE0FA3
:1051E000FF1FE854FB4F2081318147E0429FD001EF
:1051F000439FB00D1124A058BB4F6D917C91119726
:10520000798F688F40E020E030E0E32FF0E0EE0F90
:10521000FF1F688D798DE60FF71F808091808114C4
:105220009104E1F0F8010190F081E02DFF8BEE8B0D
:1052300020E005C08616970609F44F2D2F5FE22F58
:10524000F0E0EE0FFF1F6E897F89E60FF71F608188
:1052500071816115710571F73F5FD7CF4423D1F09C
:10526000F801231708F0FD0121E024830E171F0722
:1052700021F49093C004F42E50CF981305C0AE17BC
:10528000BF0711F49F5F937093012F5F3F4F822FF1
:1052900083708CCFF0E0E0E0F7CF90E0E11020C029
:1052A000B10102C0660F771F2A95E2F79B012150DA
:1052B00031098217930731F4442309F448C0C5012A
:1052C0000E94F705C101082C01C0880F0A94EAF773
:1052D000982F9095F801868189238683FE2C1DCF17
:1052E0009C01082C02C0359527950A94E2F7A90184
:1052F00041705527BC016150710986239723892B82
:1053000011F5452B01F1F80182819381892BC1F0C0
:105310001B821C821D821E8249824A820E940105D4
:105320008160582F9D838C83F801828193818F83C4
:10533000988729813A814B816D817E810E94312637
:10534000F8011582BFCFF22FF170EF2EBBCFEF2CFB
:10535000B9CF9091C0048091C104981731F00E9498
:10536000FC26552009F446CE16CF0E949F261092A7
:10537000C3041092C2040E942506F3CF82E00E946B
:10538000DB111ACEA5E0B0E0E8ECF9E20C941D3593
:105390009093D0038093CF03811520E2920730F4DD
:1053A0000E9478172596E2E00C94393580EF8983C6
:1053B0008A831B820E9401058160782F9D838C83E4
:1053C00049815A816B818D810E949027EBCF0F9389
:1053D0001F93CF93DF938C01EB016AE772E08C2F70
:1053E0000E94150F892BA1F480911204909113044F
:1053F0000E94D20CDD27CE58DD4F8881F801128241
:1054000018828330F1F048F4813059F0823081F015
:10541000DF91CF911F910F9108958430B9F08530BD
:10542000B9F780917A0290917B02009789F306C0C8
:1054300080917C0290917D02009799F30E94C2298D
:10544000E7CF80917E0290917F02F6CF809180021B
:1054500090918102009791F720917A0230917B021E
:1054600080917C0290917D0221153105F1F2009727
:1054700029F7C901E3CFA5E0B0E0E1E4FAE20C943A
:105480001D359093D0038093CF03811520E29207BE
:1054900030F40E9426192596E2E00C94393580EF0D
:1054A00089838A8381E08B830E9401058160782F44
:1054B0009D838C8349815A816B818D810E949027C5
:1054C000EACFCF93DF93EC010E943B2A8091120434
:1054D000909113040E94D20CCE010E94C229DF9148
:1054E000CF9108950F931F93CF93DF938C01862F55
:1054F0006AE772E00E94150F892BB1F4C0917A021D
:10550000D0917B02209781F0F8018281833051F4A1
:10551000CE010E94612ACE010E94612ACE010E9422
:10552000612A02C08430D0F7DF91CF911F910F9193
:1055300008950F931F93CF93DF938C01EB016AE7DC
:1055400072E08C2F0E94150F892B09F05CC0FE01C0
:10555000FF27D80112968C911297EE58FD4F81309B
:10556000B9F415969C9192FF02C080830AC090FF07
:10557000FCCF82E0808380917C0290917D02009735
:10558000B9F480917A0290917B020097E1F110C00A
:105590008230B9F515968C9182FD28C080FD0BC034
:1055A00083E0808380917E0290917F02009701F1D9
:1055B0000E943B2A28C084E08083809180029091E1
:1055C00081020097A9F780917A0290917B0200975F
:1055D000F9F00E94612A80917C0290917D020097EF
:1055E00039F780917A0290917B02E2CF85E0808347
:1055F00080917A0290917B02009729F00E94612AA3
:10560000F0CF86E08083DF91CF911F910F910895B5
:1056100080917C0290917D02B8CF1F920F920FB6BD
:105620000F9211242F933F934F935F936F937F9328
:105630008F939F93AF93BF93CF93DF93EF93FF939A
:10564000D091E900DF708091EC00C82FC17080FD1F
:10565000C0E81092E9008091F000877F8093F0000D
:1056600078940E944A121092E9008091F0008860BC
:105670008093F000CD2BCF70C093E900FF91EF91A4
:10568000DF91CF91BF91AF919F918F917F916F915A
:105690005F914F913F912F910F900FBE0F901F90F0
:1056A00018951F920F920FB60F9211242F933F93CC
:1056B0004F935F936F937F938F939F93AF93BF931A
:1056C000EF93FF938091E10082FF09C08091E20097
:1056D00082FF05C08091E1008B7F8093E100809183
:1056E000DA0080FF24C08091D80080FF20C0809124
:1056F000DA008E7F8093DA008091D90080FF9DC010
:1057000080E189BD82E189BD09B400FEFDCF81E061
:10571000809311058091EC04811109C00E945E0301
:105720000E9429048091E20084608093E2008091CD
:10573000E10080FF17C08091E20080FF13C08091DC
:10574000E2008E7F8093E2008091E200806180938E
:10575000E2008091D80080628093D80019BC85E077
:10576000809311058091E10084FF2BC08091E200BD
:1057700084FF27C080E189BD82E189BD89B5982F6A
:10578000917080FFFBCF8091D8008F7D8093D800EF
:105790008091E1008F7E8093E1008091E2008F7E16
:1057A0008093E2008091E20081608093E20080912A
:1057B0001205882309F447C084E080931105809185
:1057C00011058091E10083FF27C08091E20083FFF3
:1057D00023C08091E100877F8093E10082E0809385
:1057E0001105109212058091E1008E7F8093E100F7
:1057F0008091E2008E7F8093E2008091E2008061E0
:105800008093E20042E060E080E00E94F703809134
:10581000F00088608093F000FF91EF91BF91AF910D
:105820009F918F917F916F915F914F913F912F91B8
:105830000F900FBE0F901F90189519BC1092110574
:105840001092EC0474CF8091E30087FD93E0909375
:105850001105B5CF78941F921FB61F9211248F9314
:105860009F93AF93BF938091E3049091E404A09140
:10587000E504B091E6040196A11DB11D8093E304F7
:105880009093E404A093E504B093E604BF91AF9134
:105890009F918F911F901FBE1F9018951F921FB64A
:1058A0001F9211248F939F93AF93BF938091E20433
:1058B000811113C08091E3049091E404A091E50468
:1058C000B091E6044196A11DB11D8093E30490932D
:1058D000E404A093E504B093E604BF91AF919F91D7
:1058E0008F911F901FBE1F901895CDB7DEB7C05582
:1058F000D1090FB6F894DEBF0FBECDBF85B7806863
:1059000085BF85B7806885BF84B7877F84BF0FB6A2
:10591000F894A8958091600088618093600010924F
:1059200060000FBE80E890E00FB6F89480936100AD
:10593000909361000FBE8DEA98E090938701809369
:1059400086010E94DE060E94D30F0E94470F0E942C
:10595000DC0C0E945E030E9429048091E2008460B6
:105960008093E2007894809111058823A1F0109132
:10597000E9001F709091EC00892F817090FD80E804
:10598000182B1092E9008091E80083FD0E944A12D2
:105990001F701093E90082E084BD93E095BD9AEFFB
:1059A00097BD80936E000E94180E811102C00E9464
:1059B000221685E30E94AF0886E30E94AF0886E6C0
:1059C0000E94AF0887E60E94AF0809E511E0E6E60D
:1059D000EE2EE1E0FE2ED8018D918D018F3F11F06A
:1059E0000E94AF08E016F106B1F788E0EDE5F2E0BD
:1059F000DF01282F1D922A95E9F7E9E3F2E0DF01A4
:105A00001D928A95E9F790E080E00E948235883EF9
:105A10009E4F21F40E94180E811102C00E940B1AA1
:105A200082E090E00E947A35809343020E94310E1A
:105A30009093E8048093E7040E941710EFEFF6E7D5
:105A400021E0E150F0402040E1F700C000000E945A
:105A5000171080915D0280FF08C06FEF7FEF90E02C
:105A600080E00E94A6350E94AE0C83E090E00E9488
:105A70007A350E942F1281E08093580224982C9A44
:105A800057985F9A8FE891E00197F1F700C0000006
:105A90004091580269E572E0FB018E2F861B841746
:105AA00008F487C08091E70480688093E7048091C0
:105AB000E7049091E8040E94070F81E091E0909341
:105AC000DF048093DE0448E1442E512C55E6652E18
:105AD00052E0752E8091110530E4F32E00E112E1C1
