:100000000C9455030C949C030C949C030C949C033B
:100010000C949C030C949C030C949C030C949C03E4
:100020000C949C030C949C030C94AC2C0C94682CA6
:100030000C94A72D0C949C030C949C030C949C038F
:100040000C949C030C949C030C949C030C949C03B4
:100050000C949C030C94832D0C949C030C949C0393
:100060000C949C030C949C030C949C030C949C0394
:100070000C949C030C949C030C949C030C949C0384
:100080000C949C030C949C030C949C030C949C0374
:100090000C949C030C949C030C949C030C949C0364
:1000A0000C949C030C949C030C949C030501090282
:1000B000A10185020901A100050919012905150001
:1000C00025019505750181029501750381010501E1
:1000D000093009311581257F950275088106093897
:1000E0001581257F950175088106050C0A380215D2
:1000F00081257F950175088106C0C005010980A191
:1001000001850319012AB700150126B7009501756D
:10011000108100C0050C0901A101850419012AA064
:1001200002150126A002950175108100C005010984
:1001300006A1018505050719E029E71500250195A8
:1001400008750181020507190029EF1500250195A1
:10015000F0750181020508190129059505750191C0
:1001600002950175039101C00660FF0961A10109B3
:1001700062150026FF0095207508810209631500AD
:1001800026FF00952075089102C005010906A1010E
:10019000050719E029E71500250195087501810279
:1001A0009501750881010507190029FF150026FF33
:1001B0000095067508810005081901290595057542
:1001C000019102950175039101C00000000000003B
:1001D000000000000000000000000000000000001F
:1001E00000000000000000000000000000007E0F82
:1001F00000D4FFFFFFC700000078000000000000EF
:1002000000002A2B28000000000000000000000071
:10021000000000000029000000002C1E34202122D4
:1002200024342627252E362D3738271E1F2021223D
:10023000232425263333362E37381F0405060708B6
:10024000090A0B0C0D0E0F101112131415161718A6
:10025000191A1B1C1D2F3130232D350405060708E4
:10026000090A0B0C0D0E0F10111213141516171886
:10027000191A1B1C1D2F3130354CFD377A585A0086
:100280000004E6D6B4460200210116000000742FD7
:10029000E5A3E0021700FF5D003D8889C65436C320
:1002A000174FE4E9AB7BBFD74DA0D7B40DF586F16E
:1002B000A7EE23470FDA65A96D94129FBA6728DE6F
:1002C000AE9DF4DF5F73A060C6D7A84150B746F378
:1002D000E0EF329529117777DDD721736DAFA1BE9D
:1002E0004EA502AA7FAC58A67AF82746B473A3514C
:1002F000A7ABA4549FD608555C9CA297CD2D336024
:100300000EA9B1925D0606478ABC1E821497D3A23D
:100310008390783E91C4CF029AD589B23E026E1E78
:100320001EFFBBE8917066E3D00C89E3515274C59F
:10033000FA2C67F7CAEE1B97927C1A055F11B76B10
:100340002CCC3DC00A78352D817062F511E3513B0C
:10035000FA2F368FF42708C45CCCDCB547C899C0A7
:100360006E1DB11A813B8CA1EBAECC3700DB06B31E
:1003700033835EC21A46FF3966CEE2B78CF2484438
:100380004C0D660B862E2254E99D22688F57181556
:100390007A5038F433B1105E0000E8A95AAF3490B7
:1003A000D01100019B0298040000AA00C9B1B1C499
:1003B00067FB020000000004595A14001A000800EC
:1003C000150017001C0018000C0012001300040098
:1003D0001600070009000A000B000D000E000F00B8
:1003E00028001D001B000600190005001100100068
:1003F000360037002A00E000E2000151E100AE00C3
:100400002C002C000251E600E4001E001F0020001A
:1004100021002200230024002500260027002900B7
:100420005000510052004F002D002E0034003300C8
:1004300001002B004C0046002F0030003100380036
:1004400001000100010001000100010001000100A4
:100450000100010001000100010001000100010094
:100460000100010001000100010001000100010084
:100470000100010001000100010001000100010074
:100480000100010001000100010001000100010064
:100490000100010001000100010001000100010054
:1004A000010001000100010001000700110001002E
:1004B0000100010001000100010001000100010034
:1004C0000100010001000100010001000100010024
:1004D0000100010001000100010001000100010014
:1004E0000100010001000100010001000100010004
:1004F0000100010001000100010001000100CA0427
:10050000000002000200C604000003000100CB044A
:10051000000004000200B004D60805000100CC046D
:10052000000006000200B204000007000200C80438
:10053000000008000100CD04000009000200B4041E
:10054000B1080A000200B604B1080B000200B804AA
:10055000B1080C000200BA04B1080D000200BC048E
:10056000B1080E000200BE04B1080F000200C00472
:10057000B10810000200C204B10811000200C40456
:10058000B10812000200CE04000013000200D004E3
:1005900000000902BF00050100A0FA0904000001E3
:1005A000030101000921110100012240000705811A
:1005B00003080001090401000203000000092111E1
:1005C0000100012222000705820320000107050324
:1005D00003200001090402000103000000092111A9
:1005E00001000122BC0007058403200001080B0361
:1005F00002010100000904030000010100000924B8
:1006000001000109000104090404000201030000C3
:100610000724010001410006240201010006240212
:10062000020200092403010301020100092403025C
:10063000040101010009050602400005000005252E
:1006400001010109058502400005000005250101A1
:100650000312010002000000086B727379010001AF
:100660000203011C037600690061006C003A006619
:100670000036003400630032006200330063000083
:10068000000C03790061007300750069000000141C
:10069000037200610069006E006B00650065006216
:1006A0000073000000040309040011241FBECFEFF3
:1006B000DAE0DEBFCDBF04B603FE27C0809104069A
:1006C00090910506A0910606B09107068730904BE1
:1006D000A740B04BD1F41092040610920506109278
:1006E00006061092070614BE84B7877F84BF0FB634
:1006F000F894A895809160008861809360001092C2
:1007000060000FBEE0E0F8E3099511E0A0E0B1E081
:10071000EAEFFEE602C005900D92AA39B107D9F7BB
:1007200026E0AAE9B1E001C01D92A430B207E1F7CA
:100730000E94CE2D0C9449370C9400000F931F9308
:100740009B01305E8901000F012F001F110B1195D5
:100750002F77482F406EE0911705F091180563E060
:1007600070E087E195E009951F910F9108950F932F
:10077000262F042F0F77482F406BE0911705F0913B
:10078000180563E070E087E195E009950F91089501
:10079000CF92DF92EF92FF920F931F93CF93DF934D
:1007A00000D00F92CDB7DEB77C01162FD42EC22E0B
:1007B00080913C058430B9F5E0913105F091320526
:1007C000309709F440C0C701019763E070E00E94D0
:1007D0009436CB01880F991F860F971F19834A8380
:1007E000CB824E2D481B9E012F5F3F4FBC0187E1FE
:1007F00095E00995E0913505F0913605309739F08F
:100800000C2D2D2D412FB70187E195E009950F9013
:100810000F900F90DF91CF911F910F91FF90EF906C
:10082000DF90CF90089582E0E816F10409F45AC0F1
:1008300083E0E816F104A9F081E0E816F10409F478
:1008400084C0F12CE12CE0913305F0913405309710
:1008500089F20C2D2D2D412FB70187E195E00995E7
:10086000C9CF862F807F803A11F188F48038D1F08B
:10087000E0911B05F0911C05803929F7309719F399
:10088000123F49F12C2D4D2D612F6F7027C0803EF6
:1008900099F0803FB1F0E0911905F0911A05803B85
:1008A00091F6ECCFE0911D05F0911E05E7CFE091A8
:1008B0001F05F0912005E2CFE0912105F09122057E
:1008C000DDCF623F09F0BFCFE0912305F091240511
:1008D000309709F4B8CF2C2D4D2D62EF87E195E0CC
:1008E000099588CF862F807F803DB9F0803FD1F079
:1008F000E0912505F0912605803C09F0A4CF3097C2
:1009000009F4A1CF812F8D7F4D2D612F6F70813F15
:10091000C9F087E195E009956DCFE0912705F09149
:100920002805EDCFE0912905F0912A05633F39F0C4
:10093000613F09F088CFE0912B05F0912C053097AD
:1009400009F481CF4D2D612FE4CFE0912D05F09179
:100950002E05683F38F4663F09F075CFE0912F050A
:10096000F0913005309709F46ECF612F87E195E063
:10097000099540CFE8EDF0E080818E7F8083109272
:10098000E2001092DA001092E100A0EEB0E08C914B
:1009900081608C9380818F77808319BCA7EDB0E054
:1009A0008C918E7F8C9380818F7E80831092E60461
:1009B00008952091E4003091E50095E6A901209189
:1009C000EC00822F817020FF06C08091E80080FF3C
:1009D00006C080E008952091E80022FD1AC08091B1
:1009E0001405882389F0853089F08091EB0085FD1E
:1009F0000FC02091E4003091E50042175307F9F24F
:100A00009150E1F684E0089582E0089583E008952E
:100A100081E00895EF92FF920F931F93CF937C0193
:100A20008B010E94D904C82F811117C08091E80062
:100A300085FD0BC08091E8008E778093E8000E94CE
:100A4000D904882399F3C82F08C0F70181917F0149
:100A50008093F1000150110949F78C2FCF911F911C
:100A60000F91FF90EF900895CF93FC0180911405B2
:100A7000843001F5C091E900CF702091EC00922FF5
:100A8000917020FD90E8C92B82E08093E90080916D
:100A9000E80080FF0CC050E040E060E270E0CF0171
:100AA0000E940A058091E8008E778093E800CF705D
:100AB000C093E900CF910895EF92FF920F931F9397
:100AC000CF937C018B010E94D904C82F811117C0DC
:100AD0008091E80085FD0BC08091E8008B778093C2
:100AE000E8000E94D904882399F3C82F08C0809198
:100AF000F100F70181937F010150110949F78C2F13
:100B0000CF911F910F91FF90EF90089580910C0568
:100B100087FF13C08091E80082FF06C08091E80043
:100B20008B778093E80004C0809114058111F2CF87
:100B30000895809114058823D9F38091E80080FFFF
:100B4000F8CF8091E8008E77ECCF982F9093E90052
:100B5000242F762F50E0891731F07091EC0020910E
:100B6000ED005091F00021FD07C09F5F973071F7B5
:100B70008093E90081E008953091EB003E7F30934F
:100B8000EB003091ED003D7F3093ED003091EB00B4
:100B900031603093EB007093EC002093ED005093A4
:100BA000F0002091EE0027FDE0CF80E00895CF9285
:100BB000DF92EF92FF920F931F93CF93DF93C8EDD5
:100BC000D0E088818F7E8883E7EDF0E080818160CE
:100BD000808384E082BF81E08093E60488818E7FF9
:100BE000888302EE10E0F80110821092DA0081EEA4
:100BF000C82ED12CF601108288818F778883888156
:100C00008068888388818F7D888319BC1092140541
:100C100010920B0510920A051092090590EEE92E2C
:100C2000F12CF70180818B7F8083888181608883AC
:100C300042E060E080E00E94A505F60180818E7FA1
:100C40008083F801808181608083808188608083D7
:100C5000F70180818E7F8083888180618883DF9126
:100C6000CF911F910F91FF90EF90DF90CF9008955B
:100C7000FC01809112059091130586179707A0F04B
:100C80006115710529F49091E8009E779093E80032
:100C900090E06115710551F4911108C08091E80050
:100CA00082FF34C080E00895BC01F2CF809114052A
:100CB0008823C1F18530C1F18091E80083FD30C007
:100CC0008091E80082FDEACF8091E80080FFE1CFCB
:100CD0008091F3002091F200382F6115710519F011
:100CE0002830310558F091E02830310509F090E0C6
:100CF0002091E8002E772093E800CBCF819180935C
:100D0000F100615071092F5F3F4FE7CF80911405CB
:100D1000882341F0853041F08091E80083FFBECF09
:100D200081E0089582E0089583E008958091E804C9
:100D3000089508950895982F907F903BE9F040F42E
:100D40009039D1F0903AC1F09038B1F080E0089538
:100D5000903D19F020F4903CC9F782E00895903E50
:100D600059F0903F99F7815F8F3080F7E82FF0E0DE
:100D7000E558FE4F8081089583E00895FF920F9318
:100D80001F93CF93DF9300D000D000D00F92CDB748
:100D9000DEB78C0108511F4F80911405843009F093
:100DA0006CC080911D018F708093E9008091E800F4
:100DB00082FF63C08091E80085FF5FC050E040E0A3
:100DC00064E070E0CE0101960E945C058091E8002D
:100DD00085FD05C08091E8008B778093E800FA805C
:100DE0008F2D0E949B06282FFD828B818E838C8104
:100DF0008F8321110AC08981843039F1873029F12C
:100E0000863029F121E0853039F630E0E5E0F0E088
:100E1000EC0FFD1FE30FF11DF0804FB7F894D801E0
:100E20001196EC911197F0E0CF01019612966C911A
:100E300070E00E94A836D8015C915817190649F451
:100E40004FBF3F5F321710F3A7CF23E0DECF22E082
:100E5000DCCF13968D919C911497E80FF91FF082C7
:100E600011968C91119790E0019612966C9170E01A
:100E70000E94A836F8018183E3CF27960FB6F89435
:100E8000DEBF0FBECDBFDF91CF911F910F91FF90BD
:100E90000895DF92EF92FF920F931F93CF93DF930A
:100EA00000D000D0CDB7DEB77B01142FD22E4A83FD
:100EB0002B830C83842F0E949B06811141C082E00A
:100EC000E816F104C1F183E0E816F10439F0EA9480
:100ED000EF2829F5173F29F485E004C087E0073F94
:100EE00009F084E08983809114058430C1F48091F5
:100EF00018018F708093E90050E040E064E070E0FA
:100F0000CE0101960E940A05811109C08091E80076
:100F100085FD05C08091E8008E778093E8000F90F2
:100F20000F900F900F90DF91CF911F910F91FF9035
:100F3000EF90DF90089587EFD812D3CF86E0D2CF1D
:100F400012951F701983CFCF87E797E79093010819
:100F50008093000888E19AE00FB6F894A8958093F2
:100F600060000FBE90936000FFCF9C014FB7F894D4
:100F70008091DD049091DE04A091DF04B091E00443
:100F80004FBF821B930B08952FB7F8948091DD0417
:100F90009091DE04A091DF04B091E0042FBF08958A
:100FA000209123012223C9F02091E10427FF15C0DD
:100FB000E62FE695E695E695EE31D8F4E80FF92FA1
:100FC000F11D677021E030E001C0220F6A95EAF759
:100FD00020958281282322830895FC013296089669
:100FE0002191621303C0DF0111971C92E817F907E2
:100FF000B9F70895209123012223C1F02091E10443
:1010000027FF14C0E62FE695E695E695EE31F8F455
:10101000E80FF92FF11D677021E030E001C0220FC9
:101020006A95EAF78281822B82830895FC013296C9
:101030002FEF30E04191641751F02F3F19F4411127
:1010400001C0232F3F5F3630A9F72F3F09F40895E1
:10105000820F911D27FD9A95FC01628308952091CE
:10106000DA043091DB042817390771F09093DB0420
:101070008093DA04E091D804F091D904309721F0FC
:101080000084F185E02D099408952091D6043091D3
:10109000D7042817390771F09093D7048093D604AA
:1010A000E091D804F091D904309721F00680F781BF
:1010B000E02D09940895E091D804F091D904309777
:1010C00021F00190F081E02D099480E00895452BF6
:1010D00039F0682381E06F3F09F080E08170089566
:1010E00081E0FCCFDC016091F8038091F903962F39
:1010F000891301C00895292F30E0F901EE0FFF1F79
:10110000E051FC4F408151814A175B07A1F487E011
:101110008A9FA0018B9F500D112448545C4F81E0A1
:10112000FA0184839613E6CF2F5F3F4F2370332756
:101130002093F80308952F5F3F4F922F9370D8CFDD
:101140001092550310925403E8EBF3E0858181116E
:1011500002C014821682379683E0E03FF807B1F7A9
:101160000895E0EBF4E0848195812AE030E0B90154
:101170000E949436609312018681809311018285CA
:1011800080931001848580930F0186859785B9012E
:101190000E94943660930E01808980930D018289AC
:1011A00080930C01848980930B0108958091B00491
:1011B0009091B104909315018093140108950E94B9
:1011C000C4079C019091E5028091E602982B21F0E2
:1011D0003093E2022093E1029091E7028091E802CD
:1011E000982B21F03093E0022093DF02E091D804A5
:1011F000F091D904309749F082E08093E3020480B3
:10120000F581E02D83EE92E0099408959091E50236
:10121000803F59F48091E60287FF0DC01092E602EC
:1012200091110BC01092DD0208C0813F81F48091C2
:10123000E60218169CF3992381F08091E7029091C1
:10124000E802892B09F064C01092DC020895823F05
:1012500049F497FFF0CF1092E5028091E6028111E8
:10126000ECCFE0CF833F19F41916ACF3E4CF209113
:10127000E702893F29F41216F4F61092E702DBCF59
:101280008A3F19F427FFD7CFF8CF2091E8028B3F90
:1012900029F427FFD0CF1092E802CDCF8C3F19F46C
:1012A0001216CCF3C8CF843F31F48091E4028E7FD4
:1012B0008093E402C0CF853F21F48091E4028D7FCA
:1012C000F7CF863F21F48091E4028B7FF1CF873FF7
:1012D00021F48091E402877FEBCF883F21F4809155
:1012E000E4028F7EE5CF8D3F31F48091DE028E7F68
:1012F0008093DE02A0CF8E3F21F48091DE028D7FAD
:10130000F7CF8F3F09F097CF8091DE028B7FF0CF30
:1013100008958091DE0280FF0CC060910C0170E0A6
:1013200075956795759567956115710549F1862FD6
:10133000089581FF06C060910C0170E07595679576
:10134000F3CF60910C0182FD0BC09091DC029923D8
:10135000A1F060910B0180910C01961738F0682F75
:1013600070E06038710500F38FE70895899FC00130
:10137000112470E00E94A836F4CF61E070E0D7CF6E
:1013800081E008958091DE026091B8047091B90403
:1013900080FF16C020911001269FC001279F900D4D
:1013A0001124BC017695679576956795603871052F
:1013B00008F043C06115710509F441C0862F0895F6
:1013C00081FF0BC020911001269FC001279F900D27
:1013D0001124BC0176956795E9CF82FF09C0809101
:1013E00010019B01829FB001839F700D1124DECFFD
:1013F0002091DD022223D1F290910F018091100102
:10140000482F50E0291748F0CB01849FB001859FF9
:10141000700D949F700D1124C9CF289F9001112445
:10142000269FA001279F500D369F500D1124692F34
:1014300070E0CA010E949436B9CF8FE7089581E029
:101440000895803F31F40E94C20981958093E6029D
:101450000895813F19F40E94C209F8CF823F31F408
:101460000E94C20981958093E5020895833F19F493
:101470000E94C209F8CF893F29F40E94890980930C
:10148000E70208958A3F21F40E9489098195F7CFE8
:101490008B3F31F40E94890981958093E802089579
:1014A0008C3F19F40E948909F8CF843F31F4809170
:1014B000E40281608093E4020895853F21F48091E5
:1014C000E4028260F7CF863F21F48091E4028460D9
:1014D000F1CF873F21F48091E4028860EBCF883F11
:1014E00021F48091E4028061E5CF8D3F31F4809159
:1014F000DE0281608093DE0208958E3F21F48091A8
:10150000DE028260F7CF8F3FB9F78091DE02846000
:10151000F1CF80E00895F894E82FE295EF70F0E0C5
:1015200031A1282F2F7081E090E001C0880F2A950B
:10153000EAF7982F9095932391A392A1892B82A3E8
:10154000789408959091E10492FF06C0282F2871A5
:101550002830F9F4877F846093FF06C0282F287114
:101560002831F1F4877E84612091E20420FF06C0D7
:10157000382F38713830D9F4877F816021FF06C059
:10158000282F28712831D1F4877E816194FD877ED0
:101590000895282F24712430F9F68B7F8860DCCFE2
:1015A000282F2471243101F78B7E8861DDCF382FFD
:1015B0003171313019F78E7F8860E0CF282F21718B
:1015C000213121F78E7E8861E1CFCF93DF93EC014B
:1015D00082389105A9F1D8F58133910509F496C0B7
:1015E00048F58932910509F48AC08A9709F495C0B3
:1015F000C11521E5D20708F0BCC0C11530E5D307FD
:1016000008F014C1C83ED10508F09CC0C03ED10509
:1016100060F5C83AD10508F087C0C53AD10508F091
:10162000FDC0C130D10509F12097F9F0C430D105D2
:10163000E0F440C08533910509F45AC0C997C1F65A
:101640008091E104837089F0C0EED0E00EC0833E4B
:10165000910599F170F4803E910501F1823E91056A
:1016600039F68091E10482FD21C0CE01DF91CF9156
:101670000895863E910561F1873E910571F1843EA2
:10168000910509F0B5CF8091E20481FFEECF809102
:10169000E104C7EED0E084FD0DC0E7CF8091E10406
:1016A00080FD12C19091E20490FFDFCFC3EED0E045
:1016B00084FFDBCFD0E0C0E0D8CF8091E10482FD91
:1016C00006C19091E20490FDBFCF84FFCECFF2CF50
:1016D0008091E10483FDDDCFC8CF8091E10483FDDB
:1016E000F9C09091E20491FFF0CFC4EED0E0BDCFFD
:1016F0008091E10485FFB9CFC9E2D0E0B6CF8091F7
:10170000E10485FFB2CFC5E3D0E0AFCF8091E10423
:1017100086FFABCFCAE2D0E0A8CF8091E10486FF7C
:10172000A4CFC1E3D0E0A1CFCF3BD10518F6C85A72
:10173000D0E0CC0FDD1FC15DDE4F0990D881C02DF8
:10174000D46493CFC11540E2D40758F4C11581E0A9
:10175000D80708F08ACFC03FD10508F4ABCFD065D9
:1017600084CFC11590E4D90708F4A4CFDF70D06A04
:101770007CCFC11525E5D20700F5C11534E5D307A7
:1017800008F08AC0C11543E5D40708F071C0C1153F
:1017900082E5D80708F467C0CE018370992721E05D
:1017A00030E002C0220F331F8A95E2F7C695C69536
:1017B00080E2C89FE001112452C0C11599E5D90704
:1017C000A8F4C11528E5D20708F06BC0C11536E5AD
:1017D000D30708F06FCF8C2F0E94A20AC82FD0E049
:1017E000DC2FCC27CC27DF71D0623FCFC1154AE573
:1017F000D40708F45BC0CE0190568115904208F0E2
:1018000059CF8D2F8F710E94A20A90E0982F8827C0
:1018100088279F719C012C2BE901E6CFC55AD0E0A7
:10182000C45DDE4FC881D0E0D0641FCFCE01E4E0BC
:1018300096958795EA95E1F783702C2F2695269546
:10184000237040E2249F90011124382B8C2F837049
:10185000C1E0D0E002C0CC0FDD1F8A95E2F7C22BB9
:10186000D32BDC6802CFDC2FCC27C16FD06AFDCE32
:10187000CE018370992721E030E002C0220F331F90
:101880008A95E2F7C695C69590E2C99FE0011124BA
:10189000C22BD32BDA68E9CEDC2FCC27C46FD06AF9
:1018A000E4CEDC2FCC27C06FD06ADFCE8C2F8F70B8
:1018B0000E94A20A34E0D695C7953A95E1F7CF7019
:1018C0009C2FEC01D069D1CEC9E3D0E0CECEC2EEE0
:1018D000D0E0CBCEC6EED0E0C8CE80911F028823E8
:1018E00031F010921F0210921E0210921D020895F4
:1018F00080959091AF0498239093AF0408958095BC
:101900009091FC0398239093FC03089510921B027E
:1019100010921A021092190208958091B2049091C7
:10192000B304892B89F00E94C40720911D023091D5
:101930001E02AC01421B530B81E02091B204309196
:10194000B3044217530708F480E081700895809132
:10195000FC039091AF04892B90911C02892B8093FA
:101960009C0180911F02882319F18091B20490910B
:10197000B304892B29F00E948D0C81110E946D0CFB
:1019800080919C0190911F02892B80939C018091F2
:101990002301882341F18091E10487FF24C08EE177
:1019A000EEE9F1E090E0815000F591110E946D0C9C
:1019B000E091D804F091D9043097E1F080912301AF
:1019C000882359F08091E10487FF07C080919C0132
:1019D00080939D0185E080939C010280F381E02D3E
:1019E0008CE991E0099486E0DBCF21912223D9F2A2
:1019F0009F5FD9CF0895EF92FF920F931F93CF93DC
:101A0000DF93EC018A85811134C0EB80FC8087E58F
:101A1000F81A26E12E9DC0012F9D900D1124DC01A6
:101A2000A150BC4F1496ED91FC911597309731F071
:101A300054966D917C918B5F9B4F099586E18E9DAD
:101A400080018F9D100D112401501C4FF8018781DA
:101A50000E947F0CF80180850E94780C0E94A70CE0
:101A6000188219861B861E821D821092FE03109218
:101A7000FD03DF91CF911F910F91FF90EF9008959B
:101A8000CF93DF93EC01898981111BC081E0898BA1
:101A90008091FC039F81892B8093FC038091AF048C
:101AA0009885892B8093AF040E94A70CEA81FB8163
:101AB000309739F06C897D89CE010696DF91CF9100
:101AC0000994DF91CF9108958091180281111092AD
:101AD00018020895209117029091D601291302C08F
:101AE00080E0089530E0F90153E0EE0FFF1F5A95B2
:101AF000E1F7E952FE4F5181561306C05081581349
:101B000003C05281541304C02F5F3F4F2770E6CFAC
:101B100081E00895809117029091D601981301C039
:101B200008958F5F8770FACF9E3F49F1E82F2AE032
:101B3000929FE00D11249E2F9770E695E695E6950D
:101B400083E0E89FF0011124E154FE4F50E040E0B3
:101B500080E0219130E0092E02C0369527950A9445
:101B6000E2F721703327042E01C0220F0A94EAF70E
:101B7000822B4F5F5F4F4330510559F7089580E046
:101B800008959E3F69F1E82F2AE0929FE00D11240D
:101B90008E2F877041E001C0440F8A95EAF7E695E1
:101BA000E695E69583E0E89FF0011124E154FE4FAD
:101BB00030E020E070E05191DF011197CB01022E5F
:101BC00002C0969587950A94E2F7817081958527E2
:101BD000842385278C932F5F3F4F2330310559F79E
:101BE0000895E92FE295EF70E250EE3070F4F0E0E6
:101BF000E55BF84C0C94BC36803F19F020F4883E2D
:101C000020F481E00895843FE1F380E00895883E68
:101C1000C0F3813FD1F7F5CF93FB882780F9089572
:101C200090E080E00E94450890E080E00E942F084C
:101C30001092AF0410921C020E94A70C86E0E3EE03
:101C4000F2E0DF011D928A95E9F71092DD02109211
:101C5000DC021092DE020C94DF08809316050C94CF
:101C6000100E80911605982F9670963019F48860A2
:101C70000C942D0E877FFCCF21E030E001C0220FB5
:101C80008A95EAF720958091160582230C942D0EF3
:101C900090911B028095892380931B02282F277027
:101CA00039F4282F082E000C330B9217130621F459
:101CB0009091E20492FF07C08595859585950E94D5
:101CC0003C0E0C94860C089521E030E001C0220FF8
:101CD0008A95EAF780911605822B0C942D0E90912F
:101CE000E20492FD10C098E0899F90011124622BBC
:101CF00060931B020E94640E0E94C40790931A0214
:101D00008093190208950C94640E809315050C9429
:101D1000100E882321F00E94780C0C94A70C0895D3
:101D2000882339F09091AF04982B9093AF040C94D2
:101D3000A70C0895882321F00E947F0C0C94A70C17
:101D40000895882339F09091FC03982B9093FC031D
:101D50000C94A70C0895882379F19CEF980F913A81
:101D600038F4682F8CE991E00E94D0070C94A70CFE
:101D700090E2980F983050F4877091E001C0990F6D
:101D80008A95EAF7892F0E947F0CF0CF9BE5980F88
:101D9000933020F490E080E00C94450898E5980F8B
:101DA000973120F490E080E00C942F08803F20F0E1
:101DB0000E9406090C94DF080895CF93C82F88234A
:101DC00009F46FC08CEF8C0F813AC0F5809123012C
:101DD000882311F18091E10487FF1EC0EC2FE69566
:101DE000E695E695F0E0E456FE4F828190E04C2FB8
:101DF000477021E030E002C0220F331F4A95E2F71E
:101E000082239323892B91F06C2F8CE991E00E941F
:101E1000D0070E94A70C0AC0EEE9F1E084EA91E045
:101E20002191C21789F38E179F07D1F76C2F8CE988
:101E300091E00E94FA07CF910C94A70C80E28C0FDE
:101E4000883068F4C77021E030E001C0220FCA95E5
:101E5000EAF78091FC03822B8093FC03ECCFEBE547
:101E6000EC0FE33040F4F0E0E45DFE4F808190E061
:101E7000CF910C944508E8E5EC0FE73150F4F0E021
:101E8000EE0FFF1FE15DFE4F80819181CF910C9499
:101E90002F08C03F30F08C2F0E94210ACF910C9464
:101EA000DF08CF9108959C013A9521153F4150F5E7
:101EB000FC01EE27F170BC0166277270AC0144276B
:101EC00054709C012227387094FF0EC080E1EF2BE4
:101ED00009F480E0672B09F08062452B09F08064EB
:101EE000232B89F08068089581E0EF2B09F480E0CE
:101EF000672B09F08260452B09F08460232B19F0D1
:101F00008860089580E0089590911405943029F533
:101F10008093E3047093E5046093E4049093E900F4
:101F20008FEF9091E800815095FD06C095ED9A9550
:101F3000F1F700008111F5CF8091E80085FF0DC019
:101F400050E040E063E070E083EE94E00E940A0518
:101F50008091E8008E778093E8000895BC0184E0CA
:101F60000C94840FBC0183E00C94840F9C0184E0EA
:101F70008093E9009FEF8091E800915085FD06C0B5
:101F800085ED8A95F1F700009111F5CF8091E80079
:101F900085FF0CC050E040E066E070E0C9010E949F
:101FA0000A058091E8008E778093E8000895CF932A
:101FB000DF93EC01809123018823B1F18091E1044A
:101FC00087FF32C060E284E08093E9008FEF909158
:101FD000E800815095FD06C095ED9A95F1F7000057
:101FE0008111F5CF8091E80085FF1BC0809123010E
:101FF00070E050E040E0811104C050E040E068E053
:1020000070E0CE010E940A058091E8008E778093EF
:10201000E80080E2FE01A9EEB4E001900D928A95FD
:10202000E1F7DF91CF91089568E081E0CDCF01978E
:1020300008F40895EFE9FFE03197F1F700C00000E0
:10204000F6CFFF920F931F93CF93DF938C01EB0199
:10205000F42E8091160182FF43C08B7F809316017E
:102060008091D2042091D4043091D504AB01421B5D
:10207000530B9A0140911401509115012417350713
:10208000A8F40E94DD0E809116018D7F80931601C9
:102090008091CE049091CF040E9417108091D204B9
:1020A0000E94AB0E82E00E94780C24C09091AF0495
:1020B00092609093AF040E94DD0E809116018260C1
:1020C000809316018091CB0485FFE2CF86FDE0CF9F
:1020D000FF20F1F2DF91CF911F910F91FF900895B2
:1020E000802F0E94AB0E8091D2049091D304801770
:1020F0009107C1F20E94A70CD093D504C093D404D9
:10210000E9CF1F93CF93DF93182FC091D004D091C4
:10211000D104893321F0C091CE04D091CF04812F16
:102120000E94DD0E209731F4812FDF91CF911F9116
:102130000C94AB0E8FE99FE00197F1F700C000000F
:102140002197F0CF0F931F93CF93DF93C42FD22FFC
:10215000FC0182818823A1F0409353030E94C407AD
:102160009093520380935103C77081E001C0880FA0
:10217000CA95EAF7DF91CF911F910F910C94A10EB0
:1021800010915303141339C080915103909152035D
:102190000E94B5072091C8043091C90482179307A3
:1021A00060F5C0E2CD0F1D17B9F080E2810F8830D5
:1021B00040F4177081E001C0880F1A95EAF70E9479
:1021C0009A0EC83048F481E09D2F977001C0880FA7
:1021D0009A95EAF70E94A10E802F0E948110C830C4
:1021E00098F4D77081E001C0880FDA95EAF7DF91A3
:1021F000CF911F910F910C949A0EC77081E001C08E
:10220000880FCA95EAF7F3CFDF91CF911F910F9115
:102210000895AF92BF92CF92DF92EF92FF920F9309
:102220001F93CF93DF93EC018AE0A82E288122230D
:1022300009F48CC02130C9F599818A81913021F44B
:1022400022960E94811005C0923029F422960E94A5
:10225000DD0E2196EBCF933021F422960E94AB0E37
:10226000F8CF943011F02196F4CF229630E020E0A0
:10227000AE014F5F5F4F8053990B8A30910550F04C
:102280002150310930F38FE99FE00197F1F700C049
:102290000000F6CFA29EB001A39E700D11249C01F8
:1022A000260F371F8981EA01E3CFE22FF0E0E650E5
:1022B000FE4FB490822F86958695869590E0FC011E
:1022C000E651FE4FE4902770F12C022E02C0F594E7
:1022D000E7940A94E2F731E0E322FF24FC01E6529E
:1022E000FE4FC490D12C022E02C0D594C7940A94FC
:1022F000E2F731E0C322DD24FC01E653FE4F0491F6
:1023000010E002C0159507952A95E2F70170112794
:10231000E114F10419F081EE0E94DD0EC114D10424
:1023200019F086EE0E94DD0E8B2D0E948110CD28C3
:1023300019F086EE0E94AB0EEF2819F081EE0E9494
:10234000AB0E012B09F485CF8CE27BCFDF91CF91CF
:102350001F910F91FF90EF90DF90CF90BF90AF90C3
:1023600008950F931F93CF93DF9300EB14E0C7E71B
:10237000D1E0CE010E94FF36F80181938F012196B2
:10238000C939F1E0DF07A9F7C0E0D5E0FE0185918A
:102390009491009711F0FC0109952896F5E0C83951
:1023A000DF07A1F7DF91CF911F910F9108950F9350
:1023B0001F93CF93DF93843000F561111EC024E09A
:1023C000829F8001112450E0440F551F040F151FF8
:1023D00009591E4FC8010E94FF36C82FD0E0DC2FDC
:1023E000CC27C80101960E94FF369E01282BC90107
:1023F000DF91CF911F910F91089590E080E0F8CF89
:102400000F931F93CF93DF93843030F5643020F522
:102410004A3010F5C42FD0E0CC0FDD1F24E1629FBD
:10242000C00DD11D112430E5839FC00DD11D112495
:10243000CE0187960E94FF36082F10E0102F00274C
:10244000CE0188960E94FF369801282BC901DF91A2
:10245000CF911F910F91089590E080E0F8CF462F23
:1024600020914F0330915003232B91F47E3F39F498
:102470006E3F71F480914D0390914E030895843026
:1024800038F4743028F46A3018F4672F0C94001272
:1024900090E080E00895CF92DF92FF920F931F9318
:1024A000CF93DF936C010091160580911505082BE1
:1024B000C7E0D0E010E0FC2EC8010C2E02C09595BC
:1024C00087950A94E2F780FD0CC02197A0F7F12CC4
:1024D0008F2DDF91CF911F910F91FF90DF90CF90C3
:1024E0000895B6018C2F0E942F120E94E50A0197D1
:1024F00061F3EECFCF93DF93EC010E944B12BE014C
:102500000E942F12DF91CF910C94E50AFC01868185
:102510009781009721F00E94E50A0C94F10D8081CB
:1025200091810E947A12F9CF1F93CF93DF9300D04D
:1025300000D00F92CDB7DEB749835A8389819A8143
:102540006623B9F02223A9F00E944B12182F682F9E
:1025500089819A810E94C10D69817A81812F0F90B2
:102560000F900F900F900F90DF91CF911F910C94CF
:102570002F120E94940D182FEFCFFC01262F868179
:102580009781009739F44081518162817381848100
:102590000C949412089583E290E00E94FF368B30F1
:1025A00089F484E290E00E94FF368B3B59F485E287
:1025B00090E00E94FF3691E0843409F090E0892F8A
:1025C0008170089580E0FCCFCF9384E090E00E947A
:1025D000FF36C82F82E290E00E94FF36982F8C2FA2
:1025E000CF9108950F931F93CF93DF9300EB14E0E7
:1025F000C7E7D1E0CE010E94FF36F80161918F015B
:10260000681719F0CE010E940D372196C939F1E003
:10261000DF0781F7DF91CF911F910F910895E0EBD4
:10262000F4E0128E138E8FEA90E09183808385E030
:10263000848F88E893E1938382834CE251E0558351
:10264000448322E330E03783268385E090E091875E
:1026500080878AE090E09387828764E170E07587E5
:1026600064875787468744E650E0518B408B48E0AB
:1026700050E0538B428B48E250E0558B448B378BB4
:10268000268B28EC30E0318F208F158E978F868F28
:1026900080E590E091A380A30E94F2120C94B11106
:1026A000CF93DF93C9E3D2E060E0CE010E940D3703
:1026B0002196C11584E0D807B9F7DF91CF9108952D
:1026C0000F931F93CF93DF938901843028F5611115
:1026D00023C0423008F521153C4531F420914B03CD
:1026E00030914C03232BC1F094E0899FE001112429
:1026F00050E0440F551FC40FD51FC959DE4F612F3D
:10270000CE010E940D37602FCE010196DF91CF914F
:102710001F910F910C940D37DF91CF911F910F9165
:1027200008950F931F93CF93DF938901843048F569
:10273000643038F54A3028F521153C4531F42091B4
:102740004B0330914C03232BE1F0C42FD0E0CC0F8E
:10275000DD1F94E1699FC00DD11D112490E5899F73
:10276000C00DD11D1124612FCE0187960E940D3717
:10277000602FCE018896DF91CF911F910F910C941D
:102780000D37DF91CF911F910F910895CF93C82FEF
:102790006FEF81116BE083E290E00E940D376FEFE5
:1027A000C1116BEB84E290E00E940D376FEFC11115
:1027B00064E485E290E0CF910C940D37CF93C09103
:1027C000E204C2FB992790F9981781F080FBC2F9C7
:1027D000C093E2046091E10484E090E00E940D3730
:1027E0006C2F82E290E0CF910C940D37CF91089539
:1027F0007F928F929F92AF92BF92CF92DF92EF9291
:10280000FF920F931F93CF93DF93CDB7DEB76497FB
:102810000FB6F894DEBF0FBECDBFA0904B03B090B3
:102820004C0381E090E090934C0380934B038AEB40
:10283000C82E83E0D82E10E0760100E015C0F40128
:1028400025913491472D602F812F0E94911382E0B2
:10285000880E911C7394EAE07E12F1CFF4E1EF0E42
:10286000F11C0F5F043019F04701712CE8CF21E013
:1028700030E040E060E0812F0E94601321E030E012
:1028800041E060E0812F0E9460131F5F80E5C80E69
:10289000D11C143089F60E940F131A8219821C82EF
:1028A0001B821E821D8218861F8288EC90E09A8708
:1028B000898709E911E04AE050E0B801CE010196AC
:1028C0000E943137065F1F4F093EE1E01E0799F76E
:1028D0007E01FBE0EF0EF11C8AE0F70111928A9570
:1028E000E9F74AE050E0B801C7010E943137065FBE
:1028F0001F4F0933F2E01F07A1F7B0924C03A092DB
:102900004B0364960FB6F894DEBF0FBECDBFDF91C8
:10291000CF911F910F91FF90EF90DF90CF90BF90DC
:10292000AF909F908F907F90089580E00E94C61393
:1029300060E086E290E00E940D370E94F8130E944A
:10294000501381E00C94C6139B01883070F49AE018
:10295000899FB001112467567E4F4AE050E0C901BB
:102960000E94EF3690E080E008958FEF9FEF08958A
:102970008F929F92AF92BF92CF92DF92EF92FF928F
:102980000F931F93CF93DF93CDB7DEB72A970FB680
:10299000F894DEBF0FBECDBF0FEF13E0F12CE12C9A
:1029A00082ECC82E8BE2D82E9CEEA92E9BE2B92E8B
:1029B00021EC822E2AE2922EF801D182C082B382CB
:1029C000A28295828482F58AE48ABE016F5F7F4F7E
:1029D0008E2D0E94A414892B29F489859A85F801EB
:1029E000938B828BFFEFEF1AFF0A0A5E1F4F88E07E
:1029F000E816F10409F72A960FB6F894DEBF0FBE69
:102A0000CDBFDF91CF911F910F91FF90EF90DF909D
:102A1000CF90BF90AF909F908F900895CF92DF920C
:102A2000EF92FF920F931F93CF93DF93CDB7DEB753
:102A30002A970FB6F894DEBF0FBECDBFEBEFF2E0E2
:102A400080E5DF011D928A95E9F7E8EBF3E088E382
:102A5000DF011D928A95E9F78BEFC82E82E0D82E10
:102A60007F0109EE11E0F701D182C0824AE050E017
:102A7000B801CE0101960E94EF3688E0FE01319642
:102A8000D60101900D928A95E1F789859A85D70143
:102A900013969C938E931297BAE0CB0ED11CE7E06D
:102AA000EE0EF11C065F1F4F0933F2E01F07D9F647
:102AB0002A960FB6F894DEBF0FBECDBFDF91CF913F
:102AC0001F910F91FF90EF90DF90CF90089510929B
:102AD000FC0380912301EEE9F1E0882359F0809115
:102AE000E10487FF07C08EE1DF011D928A95E9F7B7
:102AF0000C94100E86E0F8CF1F93CF93DF93CDB7E1
:102B0000DEB7AA970FB6F894DEBF0FBECDBF8CE03C
:102B100095E02091F100DC012D93CD01B5E08431E9
:102B20009B07B9F780910D05833009F471C0B8F4A3
:102B3000813009F448C0823009F4B2C08091E800C5
:102B400083FF3AC180910C0590910D059A3008F0F1
:102B500033C1E92FF0E0E75AF84C0C94BC368A30C8
:102B600009F48DC08B3009F470C0893039F7809139
:102B70000C05813219F7809110059091110500978D
:102B800011F00297D9F68091E800877F8093E800E2
:102B90008091E80082FF37C09091F3008091F200AD
:102BA000029729F48091F1008B7F813021F480918C
:102BB000F1008093E8048091E8008B778093E8002F
:102BC0000E948605BBCF80910C05813A09F0B6CFF3
:102BD0008091E800877F8093E800809110059091B4
:102BE0001105892B61F460E289EE94E070E00E94A7
:102BF00038068091E8008B778093E8009FCF60E0F3
:102C000090E080E0F3CF809114058111C1CF96CF81
:102C100080910C05813A09F091CF80911005909137
:102C20001105892B09F08ACF8091E800877F809376
:102C3000E8008091E80080FFFCCF80912301809321
:102C4000F1008091E8008E77B9CF80910C05813238
:102C500009F074CF8091100590911105892B09F02E
:102C60006DCF8091E800877F8093E8000E94860501
:102C700080910E05809323010E9467155FCF80919C
:102C80000C05813209F05ACF8091E800877F80934C
:102C9000E8000E94860580910F058093E7044ECFDF
:102CA00080910C05813A09F049CF8091E800877F37
:102CB0008093E8008091E80080FFFCCF8091E704DA
:102CC000BECF803899F0823809F076C08091100527
:102CD0008F70873008F070C08093E9008091EB001E
:102CE00085FB882780F91092E90006C080910905CC
:102CF00090910A05911182609091E800977F9093DE
:102D0000E8008093F1001092F1008091E8008E7746
:102D1000CAC1882309F4B7C1823009F04DC080913F
:102D20000E058111BBC1809110058F702FEF280F08
:102D3000263008F041C08093E9002091EB0020FF8D
:102D4000ADC1933031F48091EB0080628093EB0051
:102D5000A5C19091EB0090619093EB0021E030E0F1
:102D600001C0220F8A95EAF72093EA001092EA0048
:102D70008091EB008860EACF81111EC010910E0592
:102D80001F778091E3008078812B8093E30080910E
:102D9000E800877F8093E8000E9486058091E80024
:102DA00080FFFCCF8091E30080688093E30082E0A5
:102DB000111183E0809314058091E80083FF0AC01D
:102DC0008091E800877F8093E8008091EB0080622B
:102DD0008093EB00AA960FB6F894DEBF0FBECDBF6E
:102DE000DF91CF911F9108958058823028F720916C
:102DF0000E0530910F052C3DE3E03E07A1F583E081
:102E00008A838AE289834FB7F894DE01139620E023
:102E10003EE051E2E32FF0E050935700E49120FFB1
:102E200003C0E295EF703F5FEF708E2F90E0EA30C5
:102E3000C0F0C7968D939D932F5F243159F74FBFF4
:102E40008091E800877F8093E8006AE270E0CE011D
:102E500001960E9438068091E8008B778093E80005
:102E6000ABCFC096E7CF8091100590911105432F0D
:102E700055274330510509F44AC078F541305105D2
:102E800009F485C08FEB90E0E2E9F5E042305105AE
:102E900009F092CF2091E800277F2093E80020914D
:102EA0001205309113058217930708F49C0140E046
:102EB0002115310509F070C041116EC08091E80004
:102EC00082FDC9CF80911405882329F2853019F23B
:102ED0008091E80083FFF2CFBECF4132510509F463
:102EE00047C04232510509F067CF8330910508F0A1
:102EF00063CFFC01EE0FFF1FE357FE4F0190F081FF
:102F0000E02D86579E4FDC018C9190E01DC0332749
:102F100021303105E9F02115310579F022303105F4
:102F2000F9F02330310509F047CFE3E6F6E0E4910C
:102F30008E2F90E0E3E6F6E007C0E5EAF6E0E491E4
:102F40008E2F90E0E5EAF6E0009709F435CFA2CFA6
:102F5000EFE8F6E0E4918E2F90E0EFE8F6E0F4CFB2
:102F6000E1E8F6E0E4918E2F90E0E1E8F6E0ECCFC6
:102F70008330910508F020CF880F991FFC01ED5692
:102F8000FE4F0190F081E02D89E090E083CF82E157
:102F900090E0E1E5F6E07ECF80911405882309F406
:102FA0005ACF853009F457CF8091E80083FD53CF85
:102FB0008091E80082FD82CF8091E80080FF78CF89
:102FC0009091F3008091F2002115310519F08830BD
:102FD000910550F041E0089709F040E08091E80049
:102FE0008E778093E80064CF44914093F10031964E
:102FF000215031090196E8CF803809F0DDCE80916B
:10300000E800877F8093E80080910B058093F100B2
:103010007CCE8111D1CE10910E05123008F0CCCEAD
:103020008091E800877F8093E80010930B050E9451
:103030008605112311F084E005C08091E30087FD2F
:10304000FACF81E08093140542E061EC81E00E94B8
:10305000A50542E261EC84E00E94A50542E261EC34
:1030600082E00E94A50542E260EC83E00E94A50593
:1030700042E361E885E00E94A50542E361E886E05D
:103080000E94A50599CE80910E05813009F094CE5D
:1030900081E0933009F080E080930A051092E90006
:1030A0008091E800877F8093E8000E94860584CEA7
:1030B0006AEE7EEF90E080E00E942B3760E082E0D5
:1030C00090E00E940D3760E083E090E00E940D37B1
:1030D0001092150560E084E090E00E940D3760E0FA
:1030E00082E290E00E940D3760E085E090E00E946F
:1030F0000D3760E086E090E00E940D376FEF87E0CB
:1031000090E00E940D3740E050E0BA0188E090E086
:103110000E941F3760E08DE090E00E940D3740E094
:1031200050E0BA0188E190E00E941F3760E087E13B
:1031300090E00E940D3740E050E0BA018CE190E051
:103140000E941F3770E060E080E290E00E942B3721
:1031500040E050E0BA0188E190E00E941F3780E033
:103160000E94C6130E94951440E050E0BA018FE01F
:1031700090E00E941F3740E050E0BA0183E190E008
:103180000C941F378F929F92AF92BF92CF92DF9293
:10319000EF92FF920F931F93CF93DF9300D000D055
:1031A000CDB7DEB77C01DC0113964D915C9114978D
:1031B00011966C9111978C910E94670881112FC113
:1031C00061E0C7010E94BD128C01F701828181116B
:1031D000CAC0D70112968C91811103C10031FFE55D
:1031E0001F0709F4A3C101312FE5120709F4A2C199
:1031F000011527E5120708F456C0011538E5130735
:1032000078F5680147E5D41A61EF72E08C2D0E94D1
:10321000A414892B29F586E18C9DF0018D9DF00D7C
:103220001124E150FC4F8681813009F085C18091E5
:10323000F1029091F202892B99F08091F302909122
:10324000F402892B69F08091F5029091F6022091A9
:10325000F7023091F802822B932B892B09F476C167
:103260000E3ABCE51B0708F0F0C10E39ECE51E076D
:1032700008F031C30039FCE51F0708F08DC10338A1
:103280002CE5120708F0D8C201383CE5130708F016
:103290006BC107374CE5140708F0ACC20F325CE590
:1032A000150708F04FC2C80197558F3F910509F0E7
:1032B00008F4D2C38091CB0480FF36C00E94C407BB
:1032C0006C01D70112968C91882311F1809116011F
:1032D00082FF06C040E0B60190E080E00E9421102D
:1032E00082E00E94780C0B31BCE51B0709F409C48D
:1032F0000C31ECE51E0709F454C490911601892F96
:103300008E7F90FF81600A31FCE51F0709F44CC4F1
:103310000832110508F04EC40E31110508F090C4B2
:103320000430110508F059C4033FFCE51F0709F4F8
:10333000BFC408F0A7C4083D3CE5130709F4B2C4B4
:10334000093D4CE5140709F4C5C4073D5CE51507C4
:1033500009F0DCC306E221EE41EE67ED7CE5C70132
:103360000E94A21050C0809100018F3F09F431CF1C
:103370005FEFC52E53E0D52EB12CA12C9924939448
:1033800080910001082E000C990B8A159B050CF406
:1033900020CFF60186818823E9F081859285081780
:1033A000190739F48091FD039091FE03081719075E
:1033B00089F0D6011F969C921F971C961C930E9322
:1033C0001B97C6010E94400DC60106960E94FB0C89
:1033D0001092AF04BFEFAB1ABB0AE6E1CE0ED11CD0
:1033E000CFCFC80182519F45409710F00C94F8212F
:1033F0008FEF93E00E94FF364EEED42ED00E09E3FD
:1034000012E0882349F180911B02877041F0D701B7
:1034100012968C91882319F082E00E94480E0F903A
:103420000F900F900F90DF91CF911F910F91FF9010
:10343000EF90DF90CF90BF90AF909F908F900895C6
:103440000115F4E01F07F9F2C8010E94FF3681114F
:1034500001C0DA940F5F1F4FD110F2CF19821A8288
:103460001B821C82CC24CA9448012FEF821A920A34
:10347000C8010E94FF3689831A82882321F2813095
:1034800009F048C0580132E0A30EB11CC4010E94EB
:10349000FF36982E8A83882309F4B5CFC5010E9490
:1034A000FF36D82E8FEF890D833068F4580143E042
:1034B000A40EB11CDB82DD2021F0CE0101960E941A
:1034C00009118501D1CF54E09512FBCF580164E07A
:1034D000A60EB11CC80103960E94FF36DD2009F438
:1034E00092CF882309F48FCF8150990BC89E900109
:1034F000C99E300D1124AD2DA150BB0BCD01820F03
:10350000931F0197F0F2EFE9FFE03197F1F700C068
:103510000000F7CFCE0101960E9409115401D1CFCE
:1035200081E00E94640E0E94310E6DCF81E00E9406
:103530003C0EF9CF82E0FBCF823009F091CE809132
:10354000F5029091F602892B09F48ACE26E12C9D92
:10355000C0012D9D900D112481509C4FDC0150968F
:103560001C920E94400D7CCE01386CE5160709F4D0
:1035700050C102387CE5170709F095CEF70182812A
:10358000882309F440CF8091C002982F9F70993012
:1035900008F039CF9F5F4AC10C398CE51807C0F598
:1035A00002399CE5190708F069C10039ACE51A0732
:1035B00009F450C10139BCE51B0709F074CED701ED
:1035C00012968C91882309F41ECF2091C002822F7D
:1035D000859585958595859586300CF014CF91E07D
:1035E000980F9295907F9595959595959595392FEE
:1035F0003295307F2F70232B2093C00218160CF0C9
:1036000002CF97FF00CF8295807F922F9F7010C1CD
:103610000C39ECE51E0709F443C10D39FCE51F0721
:1036200009F041CEF7018281882309F4ECCE809124
:10363000C102982F9F779F3709F4E5CE933708F0A2
:1036400048C1935F9F77807842C1043B2CE5120705
:1036500009F49EC1E0F5003B4CE5140709F470C184
:10366000F0F40E3A6CE5160709F44BC10F3A7CE50D
:10367000170709F018CED70112968C91882309F408
:10368000C2CE2091C102322F331F3327331F9091B6
:10369000C202892F8770880F832B8F5F44C1D701A7
:1036A00012962C918091C1029091C202023BBCE51E
:1036B0001B0709F459C108F061C140E021114FE72F
:1036C000881F8827881F9770990F60E449C1073BBE
:1036D000FCE51F0709F472C198F4053B3CE51307AC
:1036E00009F467C1063B4CE5140709F0DCCDD701AE
:1036F00012968C91811160C18FEF8093BF0283CEAF
:10370000093B5CE5150709F493C108F479C10A3B4C
:103710007CE5170709F0C7CD8091C102982F991F4A
:103720009927991F8091C2028770880F892BD70132
:1037300012969C916FEF7FE1992309F48AC10E9450
:103740009E0361CE8091C102982F991F9927991FDE
:103750004091C2024770440F492B8F7721ED200F13
:1037600030E0D70112969C91F901ED5DFD4F6F019C
:10377000992341F11091C002912F9F7015951595D5
:10378000159515951F52FCE09F9F100D1124100FE9
:10379000212F2F774069E0911705F0911805082F28
:1037A00063E070E087E195E00995F601E85BFF4F83
:1037B00080818F5F8083D6018C918F3F09F023CE6B
:1037C0001C9321CE2081E85BFF4F90819150908324
:1037D000911119CE2F774068E0911705F0911805E7
:1037E000082F63E070E087E195E009958FEFD6013F
:1037F0008C9309CEF7018281882309F404CE075700
:10380000802F8F700091C002007F082B0093C002B0
:10381000FACDD70112968C91882309F4F4CD8091CA
:10382000C002982F9F7009F4EECD915F9F70807F4A
:10383000892B8093C002E7CDD70112968C91882303
:1038400009F4E1CD0958802F8295807F0091C00254
:103850000F70DBCFF7018281882309F4D4CD8091EA
:10386000C002982F95959595959595959B3F0CF44D
:10387000CACD915F9295907F8F70DACFF7018281E8
:10388000882309F4C0CD02598EE0089F802D1124B1
:103890008F770091C1020078082B0093C102B3CD4D
:1038A000D70112968C91882309F4ADCD8091C10285
:1038B000982F9F7709F4A7CD80789F3721F48567EB
:1038C0008093C102A0CD9D30D8F39D509F77892B66
:1038D000F7CF8F67F5CFD70112968C91882309F423
:1038E00092CD0E598091C10200FB87F98093C102ED
:1038F000069507708091C202887F082B0093C20250
:1039000082CDF7018281882309F47DCD2091C10207
:10391000322F331F3327331F9091C202892F8770B4
:10392000880F832B815F382F3F7080FB27F920930E
:10393000C102832F8695987F982B9093C20263CD06
:10394000F7018281882309F45ECD9091C102991F0D
:103950009927991F8091C2028770880F40E06BE71A
:10396000892B0E94B7034FCD40E021114FE7881FFC
:103970008827881F9770990F61E4F2CF40E02111EA
:103980004FE7881F8827881F9770990F62E4E8CF58
:10399000D70112968C9140E081114FE79091C102BE
:1039A000991F9927991F8091C2028770880F63E43D
:1039B000D7CFF7018281EFCF81E09FCEF7018281DF
:1039C000882309F420CD9091C202292F26952695AF
:1039D00026952F7081E0820F8F70880F880F880FD7
:1039E0009778892B8093C202982F987709F00BCD96
:1039F000220F220F220F8778822B8093C20203CDE1
:103A0000D70112968C91882309F4FDCC8091C202D3
:103A1000982F987709F4F7CC982F969596959695C8
:103A2000915F9F70990F990F990F8778892BE5CF38
:103A30008091C102982F991F9927991F8091C202E6
:103A40008770880F892BF701928160E070EE9111E9
:103A500076CE70E060E073CE20910001022E000C63
:103A6000330B2817390714F480930001F7012281E2
:103A700036E1389F5001399FB00C1124A501415007
:103A80005C4F6A01DA0150962C93509792811696FA
:103A90008C911697992339F11A961C930E931997C6
:103AA0008F5F16968C930E94C407F60196878587D0
:103AB00080911F0287838091AF049091FC03892B32
:103AC00080870190F081E02D309741F0D601549627
:103AD0006D917C91C5018B5F9B4F09951093FE03FF
:103AE0000093FD03E7CB882309F4E4CBFA01818935
:103AF000882309F4DFCBC5018B5F9B4F0E94FB0C31
:103B0000D9CB80911601816080931601D70112965E
:103B10003C91332309F479C4109253030230BCE57D
:103B20001B0708F4A7C40631ECE51E0730F0C801F6
:103B30008A5F9C45099708F09DC40E94E412909307
:103B4000E2048093E1040031FCE51F0709F475C12C
:103B500008F003C108303CE5130709F464C108F01C
:103B6000D2C004305CE5150709F455C108F0B8C0AF
:103B700002307CE5170709F444C103301C4509F401
:103B800046C16091E1041091E20484E090E00E945B
:103B90000D37612F82E290E00E940D370E94671579
:103BA00032CC809116018E7F8093160182E00E94B4
:103BB000780CACCF0933110560F40D32110520F4F7
:103BC0000B32110509F0B0CB8091CB0482FDACCB58
:103BD00008C004361105C1F3A7CB8091CB0484FD46
:103BE000A3CBD70112968C91882309F445C080910C
:103BF000160180FF99CB9091CB0491FD04C02091D8
:103C0000FC03211191CB95FF26C096FD02C081FDDA
:103C100022C02091D4043091D504F601E21BF30BAD
:103C2000E83CF105C0F42091D2043091D30402178E
:103C3000130789F481FD09C0802F0E94DD0EE3CBBC
:103C40008091CB0483FD70CBCCCF8091AF04826098
:103C50008093AF04F1CF1093D3040093D204D09299
:103C6000D504C092D404809116018460809316011B
:103C700082E00E94480EC7CB40E0B601C8010E9416
:103C80002110C1CB053F6CE51607F1F0B8F0063FF7
:103C90008CE5180709F03ACF07E225EE46EE66EF0D
:103CA0007CE55DCB07E225EE45EE68ED7CE557CB84
:103CB00006E221EE40EE63EF7CE551CB07E225EE14
:103CC00044EE64EF7CE54BCB06E221EE42EE65EF7D
:103CD0007CE545CB08E221E045EE69ED7CE53FCB94
:103CE0008091E104806106309CE5190709F48CC0DD
:103CF0008091E104886007301C4508F485C08091FC
:103D0000E104806281C08091E1048D7F0C30BCE5CC
:103D10001B0709F479C070F48091E1048C600A30CB
:103D2000FCE51F0709F470C008F481C08091E1042C
:103D30008E7F6AC08091E104877F0E303CE51307D7
:103D400009F462C08091E1048B7F0F301C4508F4B8
:103D50005BC08091E1048F7E57C00B3F5CE5150787
:103D600009F45DC030F503317CE5170709F46DC037
:103D700078F401319CE5190709F463C002311C4550
:103D800009F0FFCE0E9467158091E1048F773CC057
:103D90000531BCE51B0709F460C008F474C08091CC
:103DA000E20481600A3F1C4509F0EBCE8093E204F7
:103DB000E8CE0F3F2CE5120709F44BC088F4809140
:103DC000E2048D7F0D3F4CE5140781F38091E204FE
:103DD0008E7F0E3F1C4550F38091E2048360E6CF56
:103DE00001306DE5160709F457C008F442C060E0E1
:103DF00002301D4509F0C5CE8EE090E00E940D37DF
:103E0000C0CE8091E10481608093E104BACE8091BC
:103E1000E1048260F9CF8091E1048460F5CF809164
:103E2000E2048260C3CF8091E1048064EDCF0E9400
:103E300067158091E1048068E7CF8091E1048F7D70
:103E4000E3CF8091E1048F7BDFCF8091E104837F1A
:103E5000DBCF8091E2048C7FA9CF8091E10482FBCB
:103E6000992790F921E0922790FB82F990FB83F942
:103E7000CBCF8091E204982F909591708E7F892B03
:103E800090FB81F993CF0E9467159091E104892FEF
:103E900097FB87F98058B8CF61E0AECF8091BC0125
:103EA00069E2811165E38CE991E00E94D007DEC2EE
:103EB0000B35FDE51F0701F10C351D4509F0EEC27C
:103EC0008091E20482FB882780F991E089270E9493
:103ED000DE13E4C20E9467153FEF44E35CE031501B
:103EE00040405040E1F700C000000E94A4070E943B
:103EF000581889CA81E0EBCF80E0E9CF8281008148
:103F00001181882369F0C8010E944B12D82E682FB6
:103F1000C8010E94C10DB8018D2D0E942F12C4C28C
:103F2000C8010E94940DD82EF6CF202F2F70B22EEC
:103F3000802F807F19F0B29490EFB922CC20C9F085
:103F4000BB2069F080E2810F883010F011110BC0A6
:103F50008091FC03B82AB092FC030E94A70C812F29
:103F60000E94DD0E16C08091AF04B82AB092AF0453
:103F7000F4CF812F0E94AB0EBB2059F080E2810F5D
:103F8000883010F0111133C08B2D0E947F0C0E94DD
:103F9000A70CA92DA850BB0B149710F40E945B0826
:103FA000812F902F0E94F10D811103C21092BE014A
:103FB0001092BD01AA20B1F080911B0280FD12C0B9
:103FC000D70112961C928595859585950E94640E61
:103FD000C7010E94C21880911B0285958595859521
:103FE0000E943C0E60E0C7010E94BD1218CA8B2DD2
:103FF0000E94780CCCCF302F3F70B32E802F807F63
:10400000803219F0B29480EFB822112321F11130DF
:1040100009F46DC0CC2009F476C0DD2009F448C055
:1040200020E0D7014C9111965C91119712966C91FA
:10403000129713967C91139714968C910E94941268
:104040008091CD0481FD8BCFF701858180FF87CFE3
:104050008F7085832DC0CC2069F1D11006C080916E
:104060001F028B290E94A10E94CF41E0D41213C0ED
:104070008091E20482FD8DCF80911F02B82AB8168C
:1040800009F487CF0E94C40790931E0280931D02FB
:10409000B0921F027ECF8091CC04823000F3D81200
:1040A000DECF0E946D0C80911802B812B0921802F7
:1040B0008B2DD8CFD11006C00E946D0C8B2D0E9485
:1040C0009A0E67CF8091CC0451E0D5120BC082309C
:1040D00008F45FCF8091FC038B2109F45ACF0E9432
:1040E000640DEACF823040F38D11E6CF52CFCC2061
:1040F00029F065E06D1508F44CCFDACF74E07D153A
:1041000008F447CFDBCFDD20C9F28091D004909135
:10411000D104193321F08091CE049091CF040E94F4
:104120001710812F0E94AB0E34CF802F8695869575
:10413000837069F0813009F02CCF812F902F93701C
:10414000C11002C090E080E00E942F0822CF812F92
:10415000902F9370C11002C090E080E00E9445084B
:1041600018CF812FCC2039F00E94210A0E94DF084D
:104170000E94DF080ECF0E940609FACF802F8370BD
:1041800091F5C11006CF412F429546954770440FD7
:10419000440F812F8F70042E01C0880F0A94EAF714
:1041A000212F207114FF07C02FE030E001C0220F43
:1041B0004A95EAF72095302F369536953370323090
:1041C00069F050F440911505313029F0822B842399
:1041D0000E94850EDECE842B822BFACF282B809175
:1041E00015058227F5CF8695CC2011F0802F8170A0
:1041F000882309F4CECE412F429546954770440F4F
:10420000440F812F8F70042E01C0880F0A94EAF7A3
:10421000212F207114FF07C02FE030E001C0220FD2
:104220004A95EAF72095302F36953695337032301F
:1042300069F050F440911605313029F0822B842327
:104240000E942D0EA6CE842B822BFACF282B809194
:1042500016058227F5CFF02FFF70BF2ECC2029F056
:104260008F2F0E94640E812FFDCE812F0E949A0E07
:104270008B2D0E943C0E8DCE123F09F44AC060F493
:10428000103F41F1113FE9F1CC2009F48DC0D1106C
:1042900066CE802F8F713AC0133F09F43FC0143FA0
:1042A00099F72091CC04223008F466C0809118025E
:1042B000CC2009F44EC00E947F0C80911B028770B5
:1042C0008430C1F50E94860C802F8F710E943C0EB5
:1042D000A12C5FCECC2081F024E02D1508F459CE1E
:1042E000202F2F7181E090E001C0880F2A95EAF716
:1042F000909116058927A4CF35E03D1508F449CEE5
:10430000EFCF802F8F71CC2009F4B3CF0E94640EC1
:1043100040CE802F8F71CC20C9F3ABCF80E0CC2072
:1043200009F48ECF81E0902F9F7101C0880F9A957C
:10433000EAF786CF8091CC04D81650F6402F4F7103
:10434000B42E842F0E94640E63E08B2D0E946F0EAA
:10435000BFCF9091FC03982B9093FC03D21640F0B2
:104360000E94860C0E94640D64E0802F8F71EECF56
:1043700081E00E94480EACCFCC2059F0502F5F71E5
:10438000B52E852F0E94640E63E08B2D0E946F0E68
:1043900000CE81E00E94480E61E06D1508F0F9CD75
:1043A00082E00E94480EF5CDD110AFCE802F8F71E4
:1043B00060CFCC2019F0D110F9CDFCCDD110F6CDC5
:1043C00020E0F701408151816281738184810E94E4
:1043D00094128091CD0483FFE9CD8091BD0190912D
:1043E000BE01029709F0E2CD812F0E948110DECD3F
:1043F0000031BFE51B0709F493C80131EFE51E0743
:1044000011F00C94301982E08CC806311C4509F07B
:1044100045C08091FC03982F9A7A2091CA0420FF0E
:1044200004C0482F447409F090E021FF04C0482FD5
:10443000417109F090E022FF04C0482F487809F04C
:1044400090E023FF03C0827209F090E0332309F467
:1044500025CD81E0911101C080E08093BC0169E22B
:10446000911165E38CE991E00E94FA070E94A70C84
:104470000C94031A06315CE5150759F20A359DE5DF
:10448000190709F437CD08F013CD0115BCE51B075A
:1044900009F420CD0E3D1C4509F429CDF701868194
:1044A0009781009709F42ACD0E94E50A182F092F59
:1044B000F701C280D580D2943FE0D32280911B02C5
:1044C0008770A1F0AC2CCC2091F0892F807F8034B4
:1044D00021F080E2810F883048F082E00E94480E8F
:1044E00080911B028770AA24A3948111A12C902E85
:1044F00092942FE09222FBE0F91508F44ACDE92DC1
:10450000F0E0ED59F84C0C94BC36CF92DF92EF926C
:10451000FF920F931F93CF93DF938091D301807FFE
:1045200031F48091D001C091170281110BC0DF914D
:10453000CF911F910F91FF90EF90DF90CF90089552
:104540002196C7708091D6018C1789F3F090CE0127
:10455000E090CF01C090D101D090D201A6016E2D84
:104560008F2D0E946708D0E08111EACF8E0183E091
:10457000000F111F8A95E1F7F801E952FE4F818182
:104580008E11DECF80818F11DBCF82818111D8CF58
:10459000E380F480EC18FD0860E08EEC91E00E946E
:1045A000BD128091C8049091C904E816F90640F63E
:1045B0008091D3018F7080618093D301F801E45220
:1045C000FE4F80818F70806180838EEC91E00E942D
:1045D000C218DF91CF911F910F91FF90EF90DF9064
:1045E000CF900C948A0D5F926F927F928F929F92E0
:1045F000AF92BF92CF92DF92EF92FF920F931F93F1
:10460000CF93DF93CDB7DEB765970FB6F894DEBFD3
:104610000FBECDBF8C0185E0F801DE0151960190FF
:104620000D928A95E1F7D8011296EC908EECA82EA7
:1046300081E0B82E8090D1019090D201A4016091C8
:10464000CF018091CE010E9467088111EAC1F80173
:10465000C380D480F090D001C601881999094C011B
:10466000FF2009F47AC15080618060E0C5010E949A
:10467000BD128091C8049091C9047090D30188162E
:10468000990608F01DC14091D1015091D201B0901E
:10469000CE01A090CF01872D807F6A2D09F0B7C091
:1046A0008B2D0E946708FE2C811139C0D80111960C
:1046B0008C9111978A1133C08C918B1130C020914D
:1046C000D4013091D50116968D919C912817390708
:1046D00031F5E11024C0872D8F7080618093D30164
:1046E0008EEC91E00E94C2188091D301F80185837D
:1046F0008F2D65960FB6F894DEBF0FBECDBFDF914C
:10470000CF911F910F91FF90EF90DF90CF90BF90CE
:10471000AF909F908F907F906F905F90089560E032
:104720008EEC91E00E94BD128091C8049091C90462
:10473000843F9140F8F0A601662D852D0E94670800
:1047400081114CC081E08E2580FF1DC04E2D662D4D
:10475000852D0E946A0D8823B1F08EEC91E00E94B5
:10476000C21888E0EEECF1E0DF011D928A95E9F7CE
:10477000F12CBECF60E08EEC91E00E94BD128091E2
:10478000CD0480FDD8CFA601662D852D0E94670837
:10479000811126C081E08E25B82FB170CB2E80FF0D
:1047A0002DC04E2D662D852D0E946A0DD82E8111AB
:1047B00025C0598A6A8A89899A890E947A12292F82
:1047C00022952F70223070F0243098F49F7071F091
:1047D000F8019581907F51F4FD2C8ACF80E0B4CF11
:1047E00080E0DACF9F7011F08823B1F3805E8830CB
:1047F00098F3C8010E94C218DC2CEECFEE2009F419
:1048000077CF8091D30181608093D301B1CF8B2D7D
:104810000E946708811124C0D80111968C911197CC
:104820008A111EC08C918B111BC02091D401309134
:10483000D50116968D919C9117972817390781F409
:10484000E1100EC015967C92C8010E94C21888E043
:10485000F801AEECB1E001900D928A95E1F748CFF6
:10486000C8010E948612882339F1EE2029F1809137
:10487000D3018032A0F02091CE013091CF013A8750
:1048800029871B86DD86CC868E878091D401909106
:10489000D501988B8F87CE0109960E94C21888E0B7
:1048A000F801AEECB1E001900D928A95E1F70E941B
:1048B0008522FF24F3941CCFC8010E94C218F9CFAF
:1048C000872D807F09F449CF9090CE018090CF0151
:1048D0004091D1015091D201682D892D0E94670825
:1048E00081111CC0F8018181881118C08081891153
:1048F00015C02091D4013091D50186819781281768
:10490000390761F4E1100AC07582C8010E94C2181B
:1049100088E0D5011D928A95E9F7EACEC8010E9488
:104920008612882349F2EE2039F28091D301803239
:1049300008F4B5CF2091CE013091CF013A8329837D
:104940001B82DD82CC828E838091D4019091D5012F
:1049500098878F83CE010196A0CF60E08EEC91E026
:104960000E94BD128091C8049091C90488169906CE
:1049700008F051C0FE2CEE2009F49ECFE090CE014D
:10498000D090CF014091D1015091D2016D2D8E2D4B
:104990000E946708811131C0F80181818D112DC0FD
:1049A00080818E112AC02091D4013091D501868159
:1049B00097812817390709F560E08EEC91E00E9495
:1049C000BD128091CD0482FD42CF9091D30190FD24
:1049D0003ECF907F09F43BCF8091D301D80115964B
:1049E0008C931597903F09F42FCF982F907F905F6D
:1049F0008F70892B15968C9327CFC8010E94861241
:104A000081114DCF8091D30181608093D301C80182
:104A10000E94C2186DCE88E0F50111928A95E9F7DF
:104A200067CEEE2009F448CFC8010E948612F82E06
:104A3000882309F441CF88E0F801AEECB1E00190A1
:104A40000D928A95E1F78091CE019091CF010E945D
:104A50007A120E9485224CCECF93DF93CDB7DEB77A
:104A600060970FB6F894DEBF0FBECDBF29873A8797
:104A70004B875C876D877E878F87988BCE010996E1
:104A80000E94F32281112FC088E0FE013996DE01D9
:104A9000119601900D928A95E1F74C855D856A85A6
:104AA00089850E94670881111EC0A091D601B0E0DF
:104AB000CD010196877099272091170228171906B2
:104AC00009F193E0AA0FBB1F9A95E1F7A952BE4FD7
:104AD00098E0FE01319601900D929A95E1F780934E
:104AE000D6010E948A0D809117029091D6018913F8
:104AF00017C060960FB6F894DEBF0FBECDBFDF9132
:104B0000CF9108950E9467151092D6011092170256
:104B100088E0EEECF1E0DF011D928A95E9F7E3CF42
:104B2000B8E08B9FC001112489529E4F0E94F3224E
:104B30008823F9F28091170290E0019687709927F7
:104B400080931702D0CFEF92FF920F931F93CF93D2
:104B5000DF9380915703882361F0C09156038CE066
:104B6000F82E80915703C81758F0109257031092EF
:104B70005603DF91CF911F910F91FF90EF90089511
:104B8000EE24E394EC0EE09256030C2F10E0CF9D40
:104B9000E0011124C85ADC4F4B815C816981888116
:104BA0000E94670881111BC08E819F81892B21F48F
:104BB00088859985019651F4288139814A815B81E4
:104BC0006C817D818E819F810E942C25F09EF00159
:104BD000F19EF00D1124E85AFC4F14821382CE2D61
:104BE000C0CF1092FB031092FA0310921301809130
:104BF000F9038093F8030E94A0080C94A3253F9228
:104C00004F925F926F927F928F929F92AF92BF92DC
:104C1000CF92DF92EF92FF920F931F93CF93DF9388
:104C2000C091F80397E0892E01E010E02CE0322ECD
:104C30003EEF932E442443948091F9038C1315C0C6
:104C40000E94A325DF91CF911F910F91FF90EF90CC
:104C5000DF90CF90BF90AF909F908F907F906F909C
:104C60005F904F903F900C94A008D0E0FE01EE0FB3
:104C7000FF1FE051FC4F80819181889ED001899E69
:104C8000B00D1124A854BC4F14962C9114972111E7
:104C900057C050905703E8E5F3E030E020E0712C76
:104CA0005D01251508F04AC0E284F384D501CD905A
:104CB000DC906FEF7FEF612C462D50E0DA01AA0FF8
:104CC000BB1FAC0DBD1D0D90BC91A02D109731F0F8
:104CD000EA16FB0609F4BA016394EECF6F3F76073C
:104CE000A1F1D80102C0AA0FBB1F6A95E2F77A2A88
:104CF000B80102C0660F771F6A94E2F7AB0141501A
:104D0000510974161506F9F4329EF001339EF00D28
:104D10001124E85AFC4F889ED001899EB00D1124C1
:104D2000A854BC4F12962D913C911397378326833C
:104D3000908291829187808715964C920E9472088A
:104D40002196C37079CF148213822F5F3F4F3C9618
:104D5000A8CF8F929F92AF92BF92CF92DF92EF92A5
:104D6000FF920F931F93CF93DF93CDB7DEB72897B2
:104D70000FB6F894DEBF0FBECDBF8E010F5F1F4F81
:104D800088E0F80111928A95E9F78DE5E82E81E037
:104D9000F82E6801AA24A394B12CF70181917F0118
:104DA0008F3F09F44BC0F894E82FE295EF70F0E0E4
:104DB00021A18F70A50102C0440F551F8A95E2F70B
:104DC000CA01922F982B91A392A18095892382A347
:104DD000789400C0E1E6F1E030E020E0912C812CF5
:104DE00081918F3F09F47EC0A82FA295AF70B0E0EB
:104DF00090964C9150E08F7002C0559547958A95DA
:104E0000E2F740FD6FC0C501022E02C0880F991F56
:104E10000A94E2F7882A992A2F5F3F4F2A303105FA
:104E2000F9F6F701319780818F3F11F00E948B0ACC
:104E300050EA5A95F1F7F60191828082F2E0CF0EA6
:104E4000D11C41E6E41641E0F40609F0A6CF48E0A3
:104E500050E0B80183EB92E00E94D236DD24D39477
:104E6000009709F4D12C892B09F43FC088E0F801A0
:104E7000A3EBB2E001900D928A95E1F781E0809377
:104E800022020E94C4079093210280932002809105
:104E90002002909121020E94B507059750F1809160
:104EA000B3029091B4029093D5028093D402809182
:104EB000B5029091B6029093D7028093D60280916A
:104EC000B7029091B8029093D9028093D802809152
:104ED000B9029091BA029093DB028093DA021092A9
:104EE000220207C090E080E095CF809122028111DC
:104EF000CECF8091000110E006E18F3F09F067C03E
:104F00008091130181116EC08091CB0480FF1CC081
:104F10008091160182FF18C00E94C4072091D4041A
:104F20003091D504AC01421B530B209114013091F8
:104F300015014217530740F041E0BC018091D204B3
:104F40009091D3040E9421108D2D28960FB6F894CD
:104F5000DEBF0FBECDBFDF91CF911F910F91FF90AC
:104F6000EF90DF90CF90BF90AF909F908F9008957B
:104F7000029FF001039FF00D1124E150FC4FE288E5
:104F8000F388E114F10421F4E090C804F090C9041E
:104F9000029FF001039FF00D1124E150FC4F868128
:104FA0008823A1F0858596850E94B507E816F90645
:104FB00068F4109F70011124C70181509C4F0E941A
:104FC000400DC7018B5F9B4F0E94FB0C1F5F212F81
:104FD00030E080910001082E000C990B8217930796
:104FE0003CF68ECF8091FA039091FB03009709F471
:104FF0008BCF0E94B5072091540330915503281799
:10500000390708F081CF9091F8038091F903981740
:1050100059F00E94FF2510925503109254031092EC
:10502000FB031092FA0370CF0E94A3251092FB039A
:105030001092FA030E94A00867CF2F923F924F92DE
:105040005F926F927F928F929F92AF92BF92CF9218
:10505000DF92EF92FF920F931F93CF93DF93CDB721
:10506000DEB769970FB6F894DEBF0FBECDBF942FA1
:10507000498B252F5A8B6B8B7C8B8D8B4C895D8953
:10508000622F892F0E946708811109C08091BD019C
:105090009091BE0101969093BE018093BD018B89D2
:1050A00081111092AF041D861E861F86188A85E026
:1050B000FE017196DE01199601900D928A95E1F735
:1050C0008091B2049091B304892BC1F00E94C4076F
:1050D0002091190230911A02821B930B2091B20485
:1050E0003091B3048217930720F080911B0282FF56
:1050F000F5C10E948D0C81110E946D0C4C855D855F
:105100006A8589850E946708811111C061E0CE011E
:1051100009960E94BD126C018B8527EFC2162CE503
:10512000D20681F4882321F181E08093130129853F
:105130003A854B855C856D857E858F8598890E9433
:105140002C25C5C038EFC3163CE5D30629F48823C7
:1051500079F00E94F125EBCF49EFC4164CE5D40657
:1051600039F4882329F0809113018111F2CFDCCF2B
:1051700008EB13E0512CB12CA12C22242394312CC8
:105180002EEF422EF8014081518188248A94982C78
:1051900020E0822F90E0FC01EE0FFF1FE40FF51FCF
:1051A000608171816115710531F0C616D70609F469
:1051B0004C012F5FEECFF12CFFEF8F169F0609F405
:1051C00048C0F8014481F09013018F2D411180E017
:1051D000F82FF170FF2EF801E58086819B859923D9
:1051E00009F40CC1FF2009F409C16090C604709055
:1051F000C704E11012C0A10101C0440F8A94EAF76C
:10520000842B8683809154039091550386159705CE
:1052100020F47092550360925403C10102C0880FBC
:10522000991F2A95E2F70197F80126812817190698
:1052300081F48091FA039091FB03009709F460C018
:105240000E94B5076816790608F05AC021E0F801F7
:1052500024835F28FFEFAF1ABF0A095F1F4F28E0C2
:10526000A216B10409F08ECF8B85882309F421C1E1
:10527000552009F41EC10E94C4079093FB0380933C
:10528000FA0380915703883010F591E0980F9093BE
:10529000570398E0FE013996DE01119601900D92B8
:1052A0009A95E1F73CE0839FC0011124885A9C4FF6
:1052B00028E0FE013196DC0101900D922A95E1F77C
:1052C0002FEF3FEFFC0131872087D386C286699696
:1052D0000FB6F894DEBF0FBECDBFDF91CF911F9107
:1052E0000F91FF90EF90DF90CF90BF90AF909F9085
:1052F0008F907F906F905F904F903F902F90089588
:105300008091F8035091F903982FF0E0E0E08513C5
:1053100014C09093F803E017F10709F49ACF90E0D6
:10532000FC01EE0FFF1FE051FC4FB182A0820196FD
:10533000837099278093F9038CCF682E712CF30129
:10534000EE0FFF1FE051FC4F2081318147E0429F6B
:10535000D001439FB00D1124A854BC4F6D917C9196
:105360001197798F688F40E020E030E0E32FF0E084
:10537000EE0FFF1F688D798DE60FF71F80809180FB
:1053800081149104E1F0F8010190F081E02DFF8B90
:10539000EE8B20E005C08616970609F44F2D2F5F8F
:1053A000E22FF0E0EE0FFF1F6E897F89E60FF71FF7
:1053B000608171816115710571F73F5FD7CF44231B
:1053C000D1F0F801231708F0FD0121E024830E1726
:1053D0001F0721F49093F803F42E3BCF981305C0D8
:1053E000AE17BF0711F49F5F937093012F5F3F4F7C
:1053F000822F83708CCFF0E0E0E0F7CF90E0E110F7
:105400001FC0B10102C0660F771F2A95E2F79B010A
:10541000215031098217930731F4442309F447C01E
:10542000C5010E947208C10101C0880F8A94EAF781
:10543000982F9095F801868189238683FE2C09CFC9
:105440009C01082C02C0359527950A94E2F7A90122
:1054500041705527BC016150710986239723892B20
:1054600011F5452B01F1F80182819381892BC1F05F
:105470001B821C821D821E8249824A820E94C407AE
:105480008160582F9D838C83F801828193818F8363
:10549000988729813A814B816D817E810E942C25DC
:1054A000F8011582C0CFF22FF170EF2EBCCFEF2C98
:1054B000BACF9091F8038091F903981731F00E94C8
:1054C000FF25552009F433CE02CF0E94A325109268
:1054D000FB031092FA030E94A008F3CF82E00E941F
:1054E000480E07CE0F931F93CF93DF9300D000D0C9
:1054F0000F92CDB7DEB78C0190934E0380934D038E
:10550000011580E2180720F5802F0E94AB0EC8011C
:105510000E94530F9801205E31092830310510F0A8
:10552000012B59F40F900F900F900F900F90DF9177
:10553000CF911F910F910C949A0E0F900F900F9096
:105540000F900F90DF91CF911F910F910C94890EC6
:105550008EEF89838A831B820E94C4078160782F23
:105560009D838C8349815A816B818D810F900F902F
:105570000F900F900F90DF91CF911F910F910C948E
:105580001D280F931F93CF93DF938C01EB0161EFE5
:1055900072E08C2F0E94A414892BA1F48091CE0478
:1055A0009091CF040E941710DD27C751DD4F8881ED
:1055B000F80110821882833009F148F4813059F0E3
:1055C000823081F0DF91CF911F910F910895843047
:1055D000D1F08530B9F78091F1029091F2020097F5
:1055E00089F306C08091F3029091F402009799F339
:1055F000DF91CF911F910F910C94722A8091F50247
:105600009091F602F3CF8091F7029091F802009703
:1056100079F72091F1023091F2028091F30290919A
:10562000F40221153105D9F2009711F7C901E0CF35
:105630000F931F93CF93DF9300D000D00F92CDB77D
:10564000DEB78C0190934E0380934D03011580E2E9
:105650001807E8F4C8010E94530F9801205E310931
:105660002830310518F00115110571F40E94A10EC2
:10567000802F0F900F900F900F900F90DF91CF9190
:105680001F910F910C94DD0E0E94900EF1CF8EEFC2
:1056900089838A8381E08B830E94C4078160782F8D
:1056A0009D838C8349815A816B818D810F900F90EE
:1056B0000F900F900F90DF91CF911F910F910C944D
:1056C0001D28BF92CF92DF92EF92FF920F931F930C
:1056D000CF93DF93B82EC090160580911505C82A88
:1056E000C7E0D0E0D12CF12CE12CD701C6010C2E63
:1056F00004C0B695A795979587950A94D2F780FF31
:105700001FC04B2D60E08C2F0E94D7118C0181307F
:105710009105B1F00E94182B8FE39CE90197F1F7F6
:1057200000C00000C8010E94722A81E0DF91CF9181
:105730001F910F91FF90EF90DF90CF90BF90089551
:10574000219798F64B2D60E080E00E94D711EC0184
:105750000E94182B8FE39CE90197F1F700C000002D
:10576000CE01E1CFCF93DF93EC010E94182B809103
:10577000CE049091CF040E941710CE01DF91CF91FB
:105780000C94722A0F931F93CF93DF938C01862F73
:1057900061EF72E00E94A414892BC9F4C091F10258
:1057A000D091F202209799F0F8018081833069F45A
:1057B000CE010E94B22BCE010E94B22BCE01DF910E
:1057C000CF911F910F910C94B22B8430B8F7DF91D9
:1057D000CF911F910F9108950F931F93CF93DF9354
:1057E0008C01EB0161EF72E08C2F0E94A414892BD5
:1057F00009F064C0FE01FF27D8018C91E751FD4FED
:105800008130D9F419969C911997992311F08083CE
:105810000CC01A969C919923D1F382E080838091E9
:10582000F3029091F4020097D9F48091F1029091E3
:10583000F202009709F442C013C08230E9F51996CC
:105840008C91199781112DC01A968C9181110EC0DF
:1058500083E080838091F5029091F602009719F120
:10586000DF91CF911F910F910C94182B84E08083CE
:105870008091F7029091F802009791F78091F102E0
:105880009091F2020097F9F00E94B22B8091F302FE
:105890009091F402009721F78091F1029091F20229
:1058A000DFCF85E080838091F1029091F202009732
:1058B00029F00E94B22BF0CF86E08083DF91CF9158
:1058C0001F910F9108958091F3029091F402B1CF4E
:1058D0001F920F920FB60F9211242F933F934F9365
:1058E0005F936F937F938F939F93AF93BF93CF9368
:1058F000DF93EF93FF93D091E900DF708091EC008C
:10590000C82FC17080FDC0E81092E9008091F000BE
:10591000877F8093F00078940E947C151092E900B4
:105920008091F00088608093F000CD2BCF70C09301
:10593000E900FF91EF91DF91CF91BF91AF919F91DE
:105940008F917F916F915F914F913F912F910F9028
:105950000FBE0F901F9018951F920F920FB60F92C7
:1059600011242F933F934F935F936F937F938F9364
:105970009F93AF93BF93EF93FF938091E10082FFDA
:1059800009C08091E20082FF05C08091E1008B7F19
:105990008093E1008091DA0080FF24C08091D800DC
:1059A00080FF20C08091DA008E7F8093DA008091A2
:1059B000D90080FF9BC080E189BD82E189BD09B427
:1059C00000FEFDCF81E0809314058091E6048111F3
:1059D00009C00E94BA040E94D7058091E200846049
:1059E0008093E2008091E10080FF17C08091E20087
:1059F00080FF13C08091E2008E7F8093E20080914F
:105A0000E20080618093E2008091D8008062809300
:105A1000D80019BC85E0809314058091E10084FFD3
:105A200029C08091E20084FF25C080E189BD82E128
:105A300089BD89B5982F917080FFFBCF8091D800E8
:105A40008F7D8093D8008091E1008F7E8093E1006C
:105A50008091E2008F7E8093E2008091E20081607D
:105A60008093E20080910B05882309F445C084E00F
:105A7000809314058091E10083FF27C08091E200AC
:105A800083FF23C08091E100877F8093E10082E063
:105A90008093140510920B058091E1008E7F809316
:105AA000E1008091E2008E7F8093E2008091E2002D
:105AB00080618093E20042E060E080E00E94A50502
:105AC0008091F00088608093F000FF91EF91BF918A
:105AD000AF919F918F917F916F915F914F913F9186
